{
	".learneth/ethereum/remix-workshops/1. Introduction/introduction.sol": {
		"MultisigTutorial": {
			"abi": [
				{
					"inputs": [],
					"name": "question1",
					"outputs": [
						{
							"internalType": "uint8",
							"name": "",
							"type": "uint8"
						}
					],
					"stateMutability": "view",
					"type": "function"
				},
				{
					"inputs": [],
					"name": "question2",
					"outputs": [
						{
							"internalType": "uint8",
							"name": "",
							"type": "uint8"
						}
					],
					"stateMutability": "view",
					"type": "function"
				}
			],
			"devdoc": {
				"kind": "dev",
				"methods": {},
				"version": 1
			},
			"evm": {
				"assembly": "    /* \".learneth/ethereum/remix-workshops/1. Introduction/introduction.sol\":58:171  contract MultisigTutorial {... */\n  mstore(0x40, 0x80)\n    /* \".learneth/ethereum/remix-workshops/1. Introduction/introduction.sol\":110:136  uint8 public question1 = 2 */\n  0x00\n  dup1\n  sload\n  not(0xffff)\n    /* \".learneth/ethereum/remix-workshops/1. Introduction/introduction.sol\":142:168  uint8 public question2 = 4 */\n  and\n  0x0402\n  or\n  swap1\n  sstore\n    /* \".learneth/ethereum/remix-workshops/1. Introduction/introduction.sol\":58:171  contract MultisigTutorial {... */\n  callvalue\n  dup1\n  iszero\n  tag_1\n  jumpi\n  0x00\n  dup1\n  revert\ntag_1:\n  pop\n  dataSize(sub_0)\n  dup1\n  dataOffset(sub_0)\n  0x00\n  codecopy\n  0x00\n  return\nstop\n\nsub_0: assembly {\n        /* \".learneth/ethereum/remix-workshops/1. Introduction/introduction.sol\":58:171  contract MultisigTutorial {... */\n      mstore(0x40, 0x80)\n      callvalue\n      dup1\n      iszero\n      tag_1\n      jumpi\n      0x00\n      dup1\n      revert\n    tag_1:\n      pop\n      jumpi(tag_2, lt(calldatasize, 0x04))\n      shr(0xe0, calldataload(0x00))\n      dup1\n      0x10cd83c0\n      eq\n      tag_3\n      jumpi\n      dup1\n      0x33d1c2fc\n      eq\n      tag_4\n      jumpi\n    tag_2:\n      0x00\n      dup1\n      revert\n        /* \".learneth/ethereum/remix-workshops/1. Introduction/introduction.sol\":110:136  uint8 public question1 = 2 */\n    tag_3:\n      sload(0x00)\n      tag_5\n      swap1\n      0xff\n      and\n      dup2\n      jump\n    tag_5:\n      mload(0x40)\n        /* \"#utility.yul\":186:190   */\n      0xff\n        /* \"#utility.yul\":174:191   */\n      swap1\n      swap2\n      and\n        /* \"#utility.yul\":156:192   */\n      dup2\n      mstore\n        /* \"#utility.yul\":144:146   */\n      0x20\n        /* \"#utility.yul\":129:147   */\n      add\n        /* \".learneth/ethereum/remix-workshops/1. Introduction/introduction.sol\":110:136  uint8 public question1 = 2 */\n      mload(0x40)\n      dup1\n      swap2\n      sub\n      swap1\n      return\n        /* \".learneth/ethereum/remix-workshops/1. Introduction/introduction.sol\":142:168  uint8 public question2 = 4 */\n    tag_4:\n      sload(0x00)\n      tag_5\n      swap1\n      0x0100\n      swap1\n      div\n      0xff\n      and\n      dup2\n      jump\n\n    auxdata: 0xa2646970667358221220d3b107e30be69381f2a4ae47e379fed6dc479fb0c684b14d2a55511f6de099bc64736f6c634300081a0033\n}\n",
				"bytecode": {
					"linkReferences": {},
					"object": "60806040525f805461ffff1916610402179055348015601c575f80fd5b50609b8060285f395ff3fe6080604052348015600e575f80fd5b50600436106030575f3560e01c806310cd83c014603457806333d1c2fc146055575b5f80fd5b5f54603f9060ff1681565b60405160ff909116815260200160405180910390f35b5f54603f90610100900460ff168156fea2646970667358221220d3b107e30be69381f2a4ae47e379fed6dc479fb0c684b14d2a55511f6de099bc64736f6c634300081a0033",
					"opcodes": "PUSH1 0x80 PUSH1 0x40 MSTORE PUSH0 DUP1 SLOAD PUSH2 0xFFFF NOT AND PUSH2 0x402 OR SWAP1 SSTORE CALLVALUE DUP1 ISZERO PUSH1 0x1C JUMPI PUSH0 DUP1 REVERT JUMPDEST POP PUSH1 0x9B DUP1 PUSH1 0x28 PUSH0 CODECOPY PUSH0 RETURN INVALID PUSH1 0x80 PUSH1 0x40 MSTORE CALLVALUE DUP1 ISZERO PUSH1 0xE JUMPI PUSH0 DUP1 REVERT JUMPDEST POP PUSH1 0x4 CALLDATASIZE LT PUSH1 0x30 JUMPI PUSH0 CALLDATALOAD PUSH1 0xE0 SHR DUP1 PUSH4 0x10CD83C0 EQ PUSH1 0x34 JUMPI DUP1 PUSH4 0x33D1C2FC EQ PUSH1 0x55 JUMPI JUMPDEST PUSH0 DUP1 REVERT JUMPDEST PUSH0 SLOAD PUSH1 0x3F SWAP1 PUSH1 0xFF AND DUP2 JUMP JUMPDEST PUSH1 0x40 MLOAD PUSH1 0xFF SWAP1 SWAP2 AND DUP2 MSTORE PUSH1 0x20 ADD PUSH1 0x40 MLOAD DUP1 SWAP2 SUB SWAP1 RETURN JUMPDEST PUSH0 SLOAD PUSH1 0x3F SWAP1 PUSH2 0x100 SWAP1 DIV PUSH1 0xFF AND DUP2 JUMP INVALID LOG2 PUSH5 0x6970667358 0x22 SLT KECCAK256 0xD3 0xB1 SMOD 0xE3 SIGNEXTEND 0xE6 SWAP4 DUP2 CALLCODE LOG4 0xAE SELFBALANCE 0xE3 PUSH26 0xFED6DC479FB0C684B14D2A55511F6DE099BC64736F6C63430008 BYTE STOP CALLER "
				},
				"gasEstimates": {
					"creation": {
						"codeDepositCost": "31000",
						"executionCost": "24302",
						"totalCost": "55302"
					},
					"external": {
						"question1()": "2277",
						"question2()": "2310"
					}
				},
				"methodIdentifiers": {
					"question1()": "10cd83c0",
					"question2()": "33d1c2fc"
				}
			},
			"storageLayout": {
				"storage": [
					{
						"astId": 4,
						"contract": ".learneth/ethereum/remix-workshops/1. Introduction/introduction.sol:MultisigTutorial",
						"label": "question1",
						"offset": 0,
						"slot": "0",
						"type": "t_uint8"
					},
					{
						"astId": 7,
						"contract": ".learneth/ethereum/remix-workshops/1. Introduction/introduction.sol:MultisigTutorial",
						"label": "question2",
						"offset": 1,
						"slot": "0",
						"type": "t_uint8"
					}
				],
				"types": {
					"t_uint8": {
						"encoding": "inplace",
						"label": "uint8",
						"numberOfBytes": "1"
					}
				}
			},
			"userdoc": {
				"kind": "user",
				"methods": {},
				"version": 1
			}
		}
	}
}