{
	"data": {
		"bytecode": {
			"linkReferences": {},
			"object": "60806040525f805461ffff1916610402179055348015601c575f80fd5b50609b8060285f395ff3fe6080604052348015600e575f80fd5b50600436106030575f3560e01c806310cd83c014603457806333d1c2fc146055575b5f80fd5b5f54603f9060ff1681565b60405160ff909116815260200160405180910390f35b5f54603f90610100900460ff168156fea26469706673582212206846622f4804ac2dc830154f1468efa5ce58cc5e86ac0acb5dffacdd1ad2db1a64736f6c634300081a0033",
			"opcodes": "PUSH1 0x80 PUSH1 0x40 MSTORE PUSH0 DUP1 SLOAD PUSH2 0xFFFF NOT AND PUSH2 0x402 OR SWAP1 SSTORE CALLVALUE DUP1 ISZERO PUSH1 0x1C JUMPI PUSH0 DUP1 REVERT JUMPDEST POP PUSH1 0x9B DUP1 PUSH1 0x28 PUSH0 CODECOPY PUSH0 RETURN INVALID PUSH1 0x80 PUSH1 0x40 MSTORE CALLVALUE DUP1 ISZERO PUSH1 0xE JUMPI PUSH0 DUP1 REVERT JUMPDEST POP PUSH1 0x4 CALLDATASIZE LT PUSH1 0x30 JUMPI PUSH0 CALLDATALOAD PUSH1 0xE0 SHR DUP1 PUSH4 0x10CD83C0 EQ PUSH1 0x34 JUMPI DUP1 PUSH4 0x33D1C2FC EQ PUSH1 0x55 JUMPI JUMPDEST PUSH0 DUP1 REVERT JUMPDEST PUSH0 SLOAD PUSH1 0x3F SWAP1 PUSH1 0xFF AND DUP2 JUMP JUMPDEST PUSH1 0x40 MLOAD PUSH1 0xFF SWAP1 SWAP2 AND DUP2 MSTORE PUSH1 0x20 ADD PUSH1 0x40 MLOAD DUP1 SWAP2 SUB SWAP1 RETURN JUMPDEST PUSH0 SLOAD PUSH1 0x3F SWAP1 PUSH2 0x100 SWAP1 DIV PUSH1 0xFF AND DUP2 JUMP INVALID LOG2 PUSH5 0x6970667358 0x22 SLT KECCAK256 PUSH9 0x46622F4804AC2DC830 ISZERO 0x4F EQ PUSH9 0xEFA5CE58CC5E86AC0A 0xCB TSTORE SELFDESTRUCT 0xAC 0xDD BYTE 0xD2 0xDB BYTE PUSH5 0x736F6C6343 STOP ADDMOD BYTE STOP CALLER "
		},
		"gasEstimates": {
			"creation": {
				"codeDepositCost": "31000",
				"executionCost": "24302",
				"totalCost": "55302"
			},
			"external": {
				"question1()": "2277",
				"question2()": "2310"
			}
		},
		"methodIdentifiers": {
			"question1()": "10cd83c0",
			"question2()": "33d1c2fc"
		}
	},
	"abi": [
		{
			"inputs": [],
			"name": "question1",
			"outputs": [
				{
					"internalType": "uint8",
					"name": "",
					"type": "uint8"
				}
			],
			"stateMutability": "view",
			"type": "function"
		},
		{
			"inputs": [],
			"name": "question2",
			"outputs": [
				{
					"internalType": "uint8",
					"name": "",
					"type": "uint8"
				}
			],
			"stateMutability": "view",
			"type": "function"
		}
	]
}