{
	"contracts/StakingContract.sol": {
		"StakingContract": {
			"abi": [
				{
					"inputs": [
						{
							"internalType": "address",
							"name": "_tokenAddress",
							"type": "address"
						},
						{
							"internalType": "address",
							"name": "_initialOwner",
							"type": "address"
						}
					],
					"stateMutability": "nonpayable",
					"type": "constructor"
				},
				{
					"inputs": [
						{
							"internalType": "address",
							"name": "owner",
							"type": "address"
						}
					],
					"name": "OwnableInvalidOwner",
					"type": "error"
				},
				{
					"inputs": [
						{
							"internalType": "address",
							"name": "account",
							"type": "address"
						}
					],
					"name": "OwnableUnauthorizedAccount",
					"type": "error"
				},
				{
					"anonymous": false,
					"inputs": [
						{
							"indexed": true,
							"internalType": "address",
							"name": "previousOwner",
							"type": "address"
						},
						{
							"indexed": true,
							"internalType": "address",
							"name": "newOwner",
							"type": "address"
						}
					],
					"name": "OwnershipTransferred",
					"type": "event"
				},
				{
					"anonymous": false,
					"inputs": [
						{
							"indexed": true,
							"internalType": "address",
							"name": "user",
							"type": "address"
						},
						{
							"indexed": false,
							"internalType": "uint256",
							"name": "amount",
							"type": "uint256"
						}
					],
					"name": "Staked",
					"type": "event"
				},
				{
					"anonymous": false,
					"inputs": [
						{
							"indexed": true,
							"internalType": "address",
							"name": "user",
							"type": "address"
						},
						{
							"indexed": false,
							"internalType": "uint256",
							"name": "amount",
							"type": "uint256"
						},
						{
							"indexed": false,
							"internalType": "uint256",
							"name": "unlockTime",
							"type": "uint256"
						}
					],
					"name": "UnstakeInitiated",
					"type": "event"
				},
				{
					"anonymous": false,
					"inputs": [
						{
							"indexed": true,
							"internalType": "address",
							"name": "user",
							"type": "address"
						},
						{
							"indexed": false,
							"internalType": "uint256",
							"name": "amount",
							"type": "uint256"
						}
					],
					"name": "Withdraw",
					"type": "event"
				},
				{
					"inputs": [],
					"name": "UNSTAKE_PERIOD",
					"outputs": [
						{
							"internalType": "uint256",
							"name": "",
							"type": "uint256"
						}
					],
					"stateMutability": "view",
					"type": "function"
				},
				{
					"inputs": [
						{
							"internalType": "address",
							"name": "_account",
							"type": "address"
						}
					],
					"name": "getUnstakedRequest",
					"outputs": [
						{
							"internalType": "uint256",
							"name": "amount",
							"type": "uint256"
						},
						{
							"internalType": "uint256",
							"name": "unlockTime",
							"type": "uint256"
						}
					],
					"stateMutability": "view",
					"type": "function"
				},
				{
					"inputs": [
						{
							"internalType": "address",
							"name": "_account",
							"type": "address"
						}
					],
					"name": "getVotingPower",
					"outputs": [
						{
							"internalType": "uint256",
							"name": "",
							"type": "uint256"
						}
					],
					"stateMutability": "view",
					"type": "function"
				},
				{
					"inputs": [],
					"name": "governanceToken",
					"outputs": [
						{
							"internalType": "contract IERC20",
							"name": "",
							"type": "address"
						}
					],
					"stateMutability": "view",
					"type": "function"
				},
				{
					"inputs": [
						{
							"internalType": "uint256",
							"name": "_amount",
							"type": "uint256"
						}
					],
					"name": "initiateUnstaking",
					"outputs": [],
					"stateMutability": "nonpayable",
					"type": "function"
				},
				{
					"inputs": [],
					"name": "owner",
					"outputs": [
						{
							"internalType": "address",
							"name": "",
							"type": "address"
						}
					],
					"stateMutability": "view",
					"type": "function"
				},
				{
					"inputs": [],
					"name": "renounceOwnership",
					"outputs": [],
					"stateMutability": "nonpayable",
					"type": "function"
				},
				{
					"inputs": [
						{
							"internalType": "uint256",
							"name": "_amount",
							"type": "uint256"
						}
					],
					"name": "stake",
					"outputs": [],
					"stateMutability": "nonpayable",
					"type": "function"
				},
				{
					"inputs": [
						{
							"internalType": "address",
							"name": "",
							"type": "address"
						}
					],
					"name": "stakedBalance",
					"outputs": [
						{
							"internalType": "uint256",
							"name": "",
							"type": "uint256"
						}
					],
					"stateMutability": "view",
					"type": "function"
				},
				{
					"inputs": [],
					"name": "totalStaked",
					"outputs": [
						{
							"internalType": "uint256",
							"name": "",
							"type": "uint256"
						}
					],
					"stateMutability": "view",
					"type": "function"
				},
				{
					"inputs": [
						{
							"internalType": "address",
							"name": "newOwner",
							"type": "address"
						}
					],
					"name": "transferOwnership",
					"outputs": [],
					"stateMutability": "nonpayable",
					"type": "function"
				},
				{
					"inputs": [
						{
							"internalType": "address",
							"name": "",
							"type": "address"
						}
					],
					"name": "unstakingRequest",
					"outputs": [
						{
							"internalType": "uint256",
							"name": "amount",
							"type": "uint256"
						},
						{
							"internalType": "uint256",
							"name": "unlockTime",
							"type": "uint256"
						}
					],
					"stateMutability": "view",
					"type": "function"
				},
				{
					"inputs": [],
					"name": "withdraw",
					"outputs": [],
					"stateMutability": "nonpayable",
					"type": "function"
				}
			],
			"devdoc": {
				"errors": {
					"OwnableInvalidOwner(address)": [
						{
							"details": "The owner is not a valid owner account. (eg. `address(0)`)"
						}
					],
					"OwnableUnauthorizedAccount(address)": [
						{
							"details": "The caller account is not authorized to perform an operation."
						}
					]
				},
				"kind": "dev",
				"methods": {
					"constructor": {
						"details": "Constructor sets the address of the Governance Token",
						"params": {
							"_initialOwner": "The address that will own the contract",
							"_tokenAddress": "The address to deploy GovernanceToken contract"
						}
					},
					"getUnstakedRequest(address)": {
						"params": {
							"_account": "The address to query."
						},
						"returns": {
							"amount": "The amount pending withdrawal.",
							"unlockTime": "The timestamp when withdrawal is possible."
						}
					},
					"getVotingPower(address)": {
						"params": {
							"_account": "The address to query."
						},
						"returns": {
							"_0": "The amount of tokens staked by the account."
						}
					},
					"initiateUnstaking(uint256)": {
						"details": "Tokens remain locked for UNSTAKE_PERIOD. Only one unstake request active at a time per user.",
						"params": {
							"_amount": "The amount of tokens to start unstaking."
						}
					},
					"owner()": {
						"details": "Returns the address of the current owner."
					},
					"renounceOwnership()": {
						"details": "Leaves the contract without owner. It will not be possible to call `onlyOwner` functions. Can only be called by the current owner. NOTE: Renouncing ownership will leave the contract without an owner, thereby disabling any functionality that is only available to the owner."
					},
					"stake(uint256)": {
						"details": "User must first approve this contract to spend their tokens.",
						"params": {
							"_amount": "The amount of tokens to stake."
						}
					},
					"transferOwnership(address)": {
						"details": "Transfers ownership of the contract to a new account (`newOwner`). Can only be called by the current owner."
					},
					"withdraw()": {
						"details": "Can only be called after initiateUnstake and waiting UNSTAKE_PERIOD."
					}
				},
				"version": 1
			},
			"evm": {
				"assembly": "    /* \"contracts/StakingContract.sol\":291:4985  contract StakingContract is Ownable, ReentrancyGuard {... */\n  mstore(0x40, 0xa0)\n    /* \"contracts/StakingContract.sol\":1213:1432  constructor(address _tokenAddress, address _initialOwner) Ownable(_initialOwner) {... */\n  callvalue\n  dup1\n  iszero\n  tag_1\n  jumpi\n  0x00\n  dup1\n  revert\ntag_1:\n  pop\n  mload(0x40)\n  sub(codesize, bytecodeSize)\n  dup1\n  bytecodeSize\n  dup4\n  codecopy\n  dup2\n  add\n  0x40\n  dup2\n  swap1\n  mstore\n  tag_2\n  swap2\n  tag_3\n  jump\t// in\ntag_2:\n    /* \"contracts/StakingContract.sol\":1279:1292  _initialOwner */\n  dup1\n  sub(shl(0xa0, 0x01), 0x01)\n    /* \"@openzeppelin/contracts/access/Ownable.sol\":1273:1299  initialOwner == address(0) */\n  dup2\n  and\n    /* \"@openzeppelin/contracts/access/Ownable.sol\":1269:1364  if (initialOwner == address(0)) {... */\n  tag_8\n  jumpi\n    /* \"@openzeppelin/contracts/access/Ownable.sol\":1322:1353  OwnableInvalidOwner(address(0)) */\n  mload(0x40)\n  shl(0xe0, 0x1e4fbdf7)\n  dup2\n  mstore\n    /* \"@openzeppelin/contracts/access/Ownable.sol\":1350:1351  0 */\n  0x00\n    /* \"@openzeppelin/contracts/access/Ownable.sol\":1322:1353  OwnableInvalidOwner(address(0)) */\n  0x04\n  dup3\n  add\n    /* \"#utility.yul\":640:691   */\n  mstore\n    /* \"#utility.yul\":613:631   */\n  0x24\n  add\n    /* \"@openzeppelin/contracts/access/Ownable.sol\":1322:1353  OwnableInvalidOwner(address(0)) */\ntag_9:\n  mload(0x40)\n  dup1\n  swap2\n  sub\n  swap1\n  revert\n    /* \"@openzeppelin/contracts/access/Ownable.sol\":1269:1364  if (initialOwner == address(0)) {... */\ntag_8:\n    /* \"@openzeppelin/contracts/access/Ownable.sol\":1373:1405  _transferOwnership(initialOwner) */\n  tag_11\n    /* \"@openzeppelin/contracts/access/Ownable.sol\":1392:1404  initialOwner */\n  dup2\n    /* \"@openzeppelin/contracts/access/Ownable.sol\":1373:1391  _transferOwnership */\n  tag_12\n    /* \"@openzeppelin/contracts/access/Ownable.sol\":1373:1405  _transferOwnership(initialOwner) */\n  jump\t// in\ntag_11:\n  pop\n    /* \"@openzeppelin/contracts/security/ReentrancyGuard.sol\":1716:1717  1 */\n  0x01\n    /* \"@openzeppelin/contracts/security/ReentrancyGuard.sol\":1821:1843  _status = _NOT_ENTERED */\n  dup1\n  sstore\n  sub(shl(0xa0, 0x01), 0x01)\n    /* \"contracts/StakingContract.sol\":1312:1339  _tokenAddress != address(0) */\n  dup3\n  and\n    /* \"contracts/StakingContract.sol\":1304:1376  require(_tokenAddress != address(0), \"The Token address cannot be zero\") */\n  tag_15\n  jumpi\n  mload(0x40)\n  shl(0xe5, 0x461bcd)\n  dup2\n  mstore\n    /* \"#utility.yul\":904:906   */\n  0x20\n    /* \"contracts/StakingContract.sol\":1304:1376  require(_tokenAddress != address(0), \"The Token address cannot be zero\") */\n  0x04\n  dup3\n  add\n    /* \"#utility.yul\":886:907   */\n  dup2\n  swap1\n  mstore\n    /* \"#utility.yul\":923:941   */\n  0x24\n  dup3\n  add\n    /* \"#utility.yul\":916:946   */\n  mstore\n    /* \"#utility.yul\":982:1016   */\n  0x54686520546f6b656e20616464726573732063616e6e6f74206265207a65726f\n    /* \"#utility.yul\":962:980   */\n  0x44\n  dup3\n  add\n    /* \"#utility.yul\":955:1017   */\n  mstore\n    /* \"#utility.yul\":1034:1052   */\n  0x64\n  add\n    /* \"contracts/StakingContract.sol\":1304:1376  require(_tokenAddress != address(0), \"The Token address cannot be zero\") */\n  tag_9\n    /* \"#utility.yul\":702:1058   */\n  jump\n    /* \"contracts/StakingContract.sol\":1304:1376  require(_tokenAddress != address(0), \"The Token address cannot be zero\") */\ntag_15:\n  pop\n  sub(shl(0xa0, 0x01), 0x01)\n    /* \"contracts/StakingContract.sol\":1386:1425  governanceToken = IERC20(_tokenAddress) */\n  and\n  0x80\n  mstore\n    /* \"contracts/StakingContract.sol\":291:4985  contract StakingContract is Ownable, ReentrancyGuard {... */\n  jump(tag_21)\n    /* \"@openzeppelin/contracts/access/Ownable.sol\":2912:3099  function _transferOwnership(address newOwner) internal virtual {... */\ntag_12:\n    /* \"@openzeppelin/contracts/access/Ownable.sol\":2985:3001  address oldOwner */\n  0x00\n    /* \"@openzeppelin/contracts/access/Ownable.sol\":3004:3010  _owner */\n  dup1\n  sload\n  sub(shl(0xa0, 0x01), 0x01)\n    /* \"@openzeppelin/contracts/access/Ownable.sol\":3020:3037  _owner = newOwner */\n  dup4\n  dup2\n  and\n  not(sub(shl(0xa0, 0x01), 0x01))\n  dup4\n  and\n  dup2\n  or\n  dup5\n  sstore\n    /* \"@openzeppelin/contracts/access/Ownable.sol\":3052:3092  OwnershipTransferred(oldOwner, newOwner) */\n  mload(0x40)\n    /* \"@openzeppelin/contracts/access/Ownable.sol\":3004:3010  _owner */\n  swap2\n  swap1\n  swap3\n  and\n  swap3\n  dup4\n  swap2\n    /* \"@openzeppelin/contracts/access/Ownable.sol\":3052:3092  OwnershipTransferred(oldOwner, newOwner) */\n  0x8be0079c531659141344cd1fd0a4f28419497f9722a3daafe3b4186f6b6457e0\n  swap2\n    /* \"@openzeppelin/contracts/access/Ownable.sol\":2985:3001  address oldOwner */\n  swap1\n    /* \"@openzeppelin/contracts/access/Ownable.sol\":3052:3092  OwnershipTransferred(oldOwner, newOwner) */\n  log3\n    /* \"@openzeppelin/contracts/access/Ownable.sol\":2975:3099  {... */\n  pop\n    /* \"@openzeppelin/contracts/access/Ownable.sol\":2912:3099  function _transferOwnership(address newOwner) internal virtual {... */\n  pop\n  jump\t// out\n    /* \"#utility.yul\":14:191   */\ntag_20:\n    /* \"#utility.yul\":93:106   */\n  dup1\n  mload\n  sub(shl(0xa0, 0x01), 0x01)\n    /* \"#utility.yul\":135:166   */\n  dup2\n  and\n    /* \"#utility.yul\":125:167   */\n  dup2\n  eq\n    /* \"#utility.yul\":115:185   */\n  tag_23\n  jumpi\n    /* \"#utility.yul\":181:182   */\n  0x00\n    /* \"#utility.yul\":178:179   */\n  dup1\n    /* \"#utility.yul\":171:183   */\n  revert\n    /* \"#utility.yul\":115:185   */\ntag_23:\n    /* \"#utility.yul\":14:191   */\n  swap2\n  swap1\n  pop\n  jump\t// out\n    /* \"#utility.yul\":196:489   */\ntag_3:\n    /* \"#utility.yul\":275:281   */\n  0x00\n    /* \"#utility.yul\":283:289   */\n  dup1\n    /* \"#utility.yul\":336:338   */\n  0x40\n    /* \"#utility.yul\":324:333   */\n  dup4\n    /* \"#utility.yul\":315:322   */\n  dup6\n    /* \"#utility.yul\":311:334   */\n  sub\n    /* \"#utility.yul\":307:339   */\n  slt\n    /* \"#utility.yul\":304:356   */\n  iszero\n  tag_25\n  jumpi\n    /* \"#utility.yul\":352:353   */\n  0x00\n    /* \"#utility.yul\":349:350   */\n  dup1\n    /* \"#utility.yul\":342:354   */\n  revert\n    /* \"#utility.yul\":304:356   */\ntag_25:\n    /* \"#utility.yul\":375:415   */\n  tag_26\n    /* \"#utility.yul\":405:414   */\n  dup4\n    /* \"#utility.yul\":375:415   */\n  tag_20\n  jump\t// in\ntag_26:\n    /* \"#utility.yul\":365:415   */\n  swap2\n  pop\n    /* \"#utility.yul\":434:483   */\n  tag_27\n    /* \"#utility.yul\":479:481   */\n  0x20\n    /* \"#utility.yul\":468:477   */\n  dup5\n    /* \"#utility.yul\":464:482   */\n  add\n    /* \"#utility.yul\":434:483   */\n  tag_20\n  jump\t// in\ntag_27:\n    /* \"#utility.yul\":424:483   */\n  swap1\n  pop\n    /* \"#utility.yul\":196:489   */\n  swap3\n  pop\n  swap3\n  swap1\n  pop\n  jump\t// out\n    /* \"#utility.yul\":702:1058   */\ntag_21:\n    /* \"contracts/StakingContract.sol\":291:4985  contract StakingContract is Ownable, ReentrancyGuard {... */\n  mload(0x80)\n  codecopy(0x00, dataOffset(sub_0), dataSize(sub_0))\n  0x00\n  assignImmutable(\"0x42fa20e8c2fc174121a60bb5704cfd8579fc4a2698f9ae487d1310659094676e\")\n  return(0x00, dataSize(sub_0))\nstop\n\nsub_0: assembly {\n        /* \"contracts/StakingContract.sol\":291:4985  contract StakingContract is Ownable, ReentrancyGuard {... */\n      mstore(0x40, 0x80)\n      callvalue\n      dup1\n      iszero\n      tag_1\n      jumpi\n      0x00\n      dup1\n      revert\n    tag_1:\n      pop\n      jumpi(tag_2, lt(calldatasize, 0x04))\n      shr(0xe0, calldataload(0x00))\n      dup1\n      0x817b1cd2\n      gt\n      tag_16\n      jumpi\n      dup1\n      0xa694fc3a\n      gt\n      tag_17\n      jumpi\n      dup1\n      0xa694fc3a\n      eq\n      tag_12\n      jumpi\n      dup1\n      0xbb4d4436\n      eq\n      tag_13\n      jumpi\n      dup1\n      0xf2fde38b\n      eq\n      tag_14\n      jumpi\n      dup1\n      0xf96dae0a\n      eq\n      tag_15\n      jumpi\n      0x00\n      dup1\n      revert\n    tag_17:\n      dup1\n      0x817b1cd2\n      eq\n      tag_9\n      jumpi\n      dup1\n      0x8da5cb5b\n      eq\n      tag_10\n      jumpi\n      dup1\n      0xa0873111\n      eq\n      tag_11\n      jumpi\n      0x00\n      dup1\n      revert\n    tag_16:\n      dup1\n      0x60217267\n      gt\n      tag_18\n      jumpi\n      dup1\n      0x60217267\n      eq\n      tag_6\n      jumpi\n      dup1\n      0x715018a6\n      eq\n      tag_7\n      jumpi\n      dup1\n      0x79b57862\n      eq\n      tag_8\n      jumpi\n      0x00\n      dup1\n      revert\n    tag_18:\n      dup1\n      0x18fb4f32\n      eq\n      tag_3\n      jumpi\n      dup1\n      0x3b64916e\n      eq\n      tag_4\n      jumpi\n      dup1\n      0x3ccfd60b\n      eq\n      tag_5\n      jumpi\n    tag_2:\n      0x00\n      dup1\n      revert\n        /* \"contracts/StakingContract.sol\":2546:3303  function initiateUnstaking(uint256 _amount) external nonReentrant {... */\n    tag_3:\n      tag_19\n      tag_20\n      calldatasize\n      0x04\n      tag_21\n      jump\t// in\n    tag_20:\n      tag_22\n      jump\t// in\n    tag_19:\n      stop\n        /* \"contracts/StakingContract.sol\":4751:4981  function getUnstakedRequest(address _account) external view returns(uint256 amount, uint256 unlockTime) {... */\n    tag_4:\n      tag_23\n      tag_24\n      calldatasize\n      0x04\n      tag_25\n      jump\t// in\n    tag_24:\n      sub(shl(0xa0, 0x01), 0x01)\n        /* \"contracts/StakingContract.sol\":4895:4921  unstakingRequest[_account] */\n      and\n        /* \"contracts/StakingContract.sol\":4819:4833  uint256 amount */\n      0x00\n        /* \"contracts/StakingContract.sol\":4895:4921  unstakingRequest[_account] */\n      swap1\n      dup2\n      mstore\n        /* \"contracts/StakingContract.sol\":4895:4911  unstakingRequest */\n      0x04\n        /* \"contracts/StakingContract.sol\":4895:4921  unstakingRequest[_account] */\n      0x20\n      mstore\n      0x40\n      swap1\n      keccak256\n        /* \"contracts/StakingContract.sol\":4939:4953  request.amount */\n      dup1\n      sload\n        /* \"contracts/StakingContract.sol\":4955:4973  request.unlockTime */\n      0x01\n      swap1\n      swap2\n      add\n      sload\n        /* \"contracts/StakingContract.sol\":4939:4953  request.amount */\n      swap1\n      swap2\n        /* \"contracts/StakingContract.sol\":4751:4981  function getUnstakedRequest(address _account) external view returns(uint256 amount, uint256 unlockTime) {... */\n      jump\n    tag_23:\n      0x40\n      dup1\n      mload\n        /* \"#utility.yul\":687:712   */\n      swap3\n      dup4\n      mstore\n        /* \"#utility.yul\":743:745   */\n      0x20\n        /* \"#utility.yul\":728:746   */\n      dup4\n      add\n        /* \"#utility.yul\":721:755   */\n      swap2\n      swap1\n      swap2\n      mstore\n        /* \"#utility.yul\":660:678   */\n      add\n        /* \"contracts/StakingContract.sol\":4751:4981  function getUnstakedRequest(address _account) external view returns(uint256 amount, uint256 unlockTime) {... */\n    tag_27:\n      mload(0x40)\n      dup1\n      swap2\n      sub\n      swap1\n      return\n        /* \"contracts/StakingContract.sol\":3477:4139  function withdraw() external nonReentrant {... */\n    tag_5:\n      tag_19\n      tag_30\n      jump\t// in\n        /* \"contracts/StakingContract.sol\":429:477  mapping(address => uint256) public stakedBalance */\n    tag_6:\n      tag_31\n      tag_32\n      calldatasize\n      0x04\n      tag_25\n      jump\t// in\n    tag_32:\n      mstore(0x20, 0x02)\n      0x00\n      swap1\n      dup2\n      mstore\n      0x40\n      swap1\n      keccak256\n      sload\n      dup2\n      jump\n    tag_31:\n      mload(0x40)\n        /* \"#utility.yul\":912:937   */\n      swap1\n      dup2\n      mstore\n        /* \"#utility.yul\":900:902   */\n      0x20\n        /* \"#utility.yul\":885:903   */\n      add\n        /* \"contracts/StakingContract.sol\":429:477  mapping(address => uint256) public stakedBalance */\n      tag_27\n        /* \"#utility.yul\":766:943   */\n      jump\n        /* \"@openzeppelin/contracts/access/Ownable.sol\":2293:2394  function renounceOwnership() public virtual onlyOwner {... */\n    tag_7:\n      tag_19\n      tag_37\n      jump\t// in\n        /* \"contracts/StakingContract.sol\":721:768  uint256 public constant UNSTAKE_PERIOD = 7 days */\n    tag_8:\n      tag_31\n        /* \"contracts/StakingContract.sol\":762:768  7 days */\n      0x093a80\n        /* \"contracts/StakingContract.sol\":721:768  uint256 public constant UNSTAKE_PERIOD = 7 days */\n      dup2\n      jump\n        /* \"contracts/StakingContract.sol\":483:506  uint public totalStaked */\n    tag_9:\n      tag_31\n      sload(0x03)\n      dup2\n      jump\n        /* \"@openzeppelin/contracts/access/Ownable.sol\":1638:1723  function owner() public view virtual returns (address) {... */\n    tag_10:\n        /* \"@openzeppelin/contracts/access/Ownable.sol\":1684:1691  address */\n      0x00\n        /* \"@openzeppelin/contracts/access/Ownable.sol\":1710:1716  _owner */\n      sload\n      sub(shl(0xa0, 0x01), 0x01)\n      and\n        /* \"@openzeppelin/contracts/access/Ownable.sol\":1638:1723  function owner() public view virtual returns (address) {... */\n    tag_44:\n      mload(0x40)\n      sub(shl(0xa0, 0x01), 0x01)\n        /* \"#utility.yul\":1112:1167   */\n      swap1\n      swap2\n      and\n        /* \"#utility.yul\":1094:1168   */\n      dup2\n      mstore\n        /* \"#utility.yul\":1082:1084   */\n      0x20\n        /* \"#utility.yul\":1067:1085   */\n      add\n        /* \"@openzeppelin/contracts/access/Ownable.sol\":1638:1723  function owner() public view virtual returns (address) {... */\n      tag_27\n        /* \"#utility.yul\":948:1174   */\n      jump\n        /* \"contracts/StakingContract.sol\":659:714  mapping(address => UnstakeInfo) public unstakingRequest */\n    tag_11:\n      tag_23\n      tag_49\n      calldatasize\n      0x04\n      tag_25\n      jump\t// in\n    tag_49:\n      mstore(0x20, 0x04)\n      0x00\n      swap1\n      dup2\n      mstore\n      0x40\n      swap1\n      keccak256\n      dup1\n      sload\n      0x01\n      swap1\n      swap2\n      add\n      sload\n      dup3\n      jump\n        /* \"contracts/StakingContract.sol\":1657:2267  function stake(uint256 _amount) external nonReentrant {... */\n    tag_12:\n      tag_19\n      tag_53\n      calldatasize\n      0x04\n      tag_21\n      jump\t// in\n    tag_53:\n      tag_54\n      jump\t// in\n        /* \"contracts/StakingContract.sol\":4374:4494  function getVotingPower(address _account) external view returns(uint256) {... */\n    tag_13:\n      tag_31\n      tag_56\n      calldatasize\n      0x04\n      tag_25\n      jump\t// in\n    tag_56:\n      sub(shl(0xa0, 0x01), 0x01)\n        /* \"contracts/StakingContract.sol\":4464:4487  stakedBalance[_account] */\n      and\n        /* \"contracts/StakingContract.sol\":4438:4445  uint256 */\n      0x00\n        /* \"contracts/StakingContract.sol\":4464:4487  stakedBalance[_account] */\n      swap1\n      dup2\n      mstore\n        /* \"contracts/StakingContract.sol\":4464:4477  stakedBalance */\n      0x02\n        /* \"contracts/StakingContract.sol\":4464:4487  stakedBalance[_account] */\n      0x20\n      mstore\n      0x40\n      swap1\n      keccak256\n      sload\n      swap1\n        /* \"contracts/StakingContract.sol\":4374:4494  function getVotingPower(address _account) external view returns(uint256) {... */\n      jump\n        /* \"@openzeppelin/contracts/access/Ownable.sol\":2543:2758  function transferOwnership(address newOwner) public virtual onlyOwner {... */\n    tag_14:\n      tag_19\n      tag_60\n      calldatasize\n      0x04\n      tag_25\n      jump\t// in\n    tag_60:\n      tag_61\n      jump\t// in\n        /* \"contracts/StakingContract.sol\":383:422  IERC20 public immutable governanceToken */\n    tag_15:\n      tag_44\n      immutable(\"0x42fa20e8c2fc174121a60bb5704cfd8579fc4a2698f9ae487d1310659094676e\")\n      dup2\n      jump\n        /* \"contracts/StakingContract.sol\":2546:3303  function initiateUnstaking(uint256 _amount) external nonReentrant {... */\n    tag_22:\n        /* \"@openzeppelin/contracts/security/ReentrancyGuard.sol\":2261:2282  _nonReentrantBefore() */\n      tag_67\n        /* \"@openzeppelin/contracts/security/ReentrancyGuard.sol\":2261:2280  _nonReentrantBefore */\n      tag_68\n        /* \"@openzeppelin/contracts/security/ReentrancyGuard.sol\":2261:2282  _nonReentrantBefore() */\n      jump\t// in\n    tag_67:\n        /* \"contracts/StakingContract.sol\":2640:2641  0 */\n      0x00\n        /* \"contracts/StakingContract.sol\":2630:2637  _amount */\n      dup2\n        /* \"contracts/StakingContract.sol\":2630:2641  _amount > 0 */\n      gt\n        /* \"contracts/StakingContract.sol\":2622:2672  require(_amount > 0, \"Cannot Unstake zero tokens\") */\n      tag_70\n      jumpi\n      mload(0x40)\n      shl(0xe5, 0x461bcd)\n      dup2\n      mstore\n        /* \"#utility.yul\":1626:1628   */\n      0x20\n        /* \"contracts/StakingContract.sol\":2622:2672  require(_amount > 0, \"Cannot Unstake zero tokens\") */\n      0x04\n      dup3\n      add\n        /* \"#utility.yul\":1608:1629   */\n      mstore\n        /* \"#utility.yul\":1665:1667   */\n      0x1a\n        /* \"#utility.yul\":1645:1663   */\n      0x24\n      dup3\n      add\n        /* \"#utility.yul\":1638:1668   */\n      mstore\n        /* \"#utility.yul\":1704:1732   */\n      0x43616e6e6f7420556e7374616b65207a65726f20746f6b656e73000000000000\n        /* \"#utility.yul\":1684:1702   */\n      0x44\n      dup3\n      add\n        /* \"#utility.yul\":1677:1733   */\n      mstore\n        /* \"#utility.yul\":1750:1768   */\n      0x64\n      add\n        /* \"contracts/StakingContract.sol\":2622:2672  require(_amount > 0, \"Cannot Unstake zero tokens\") */\n    tag_71:\n      mload(0x40)\n      dup1\n      swap2\n      sub\n      swap1\n      revert\n    tag_70:\n        /* \"contracts/StakingContract.sol\":2704:2714  msg.sender */\n      caller\n        /* \"contracts/StakingContract.sol\":2690:2715  stakedBalance[msg.sender] */\n      0x00\n      swap1\n      dup2\n      mstore\n        /* \"contracts/StakingContract.sol\":2690:2703  stakedBalance */\n      0x02\n        /* \"contracts/StakingContract.sol\":2690:2715  stakedBalance[msg.sender] */\n      0x20\n      mstore\n      0x40\n      swap1\n      keccak256\n      sload\n        /* \"contracts/StakingContract.sol\":2690:2726  stakedBalance[msg.sender] >= _amount */\n      dup2\n      gt\n      iszero\n        /* \"contracts/StakingContract.sol\":2682:2758  require(stakedBalance[msg.sender] >= _amount, \"Insufficient staked balance\") */\n      tag_73\n      jumpi\n      mload(0x40)\n      shl(0xe5, 0x461bcd)\n      dup2\n      mstore\n        /* \"#utility.yul\":1981:1983   */\n      0x20\n        /* \"contracts/StakingContract.sol\":2682:2758  require(stakedBalance[msg.sender] >= _amount, \"Insufficient staked balance\") */\n      0x04\n      dup3\n      add\n        /* \"#utility.yul\":1963:1984   */\n      mstore\n        /* \"#utility.yul\":2020:2022   */\n      0x1b\n        /* \"#utility.yul\":2000:2018   */\n      0x24\n      dup3\n      add\n        /* \"#utility.yul\":1993:2023   */\n      mstore\n        /* \"#utility.yul\":2059:2088   */\n      0x496e73756666696369656e74207374616b65642062616c616e63650000000000\n        /* \"#utility.yul\":2039:2057   */\n      0x44\n      dup3\n      add\n        /* \"#utility.yul\":2032:2089   */\n      mstore\n        /* \"#utility.yul\":2106:2124   */\n      0x64\n      add\n        /* \"contracts/StakingContract.sol\":2682:2758  require(stakedBalance[msg.sender] >= _amount, \"Insufficient staked balance\") */\n      tag_71\n        /* \"#utility.yul\":1779:2130   */\n      jump\n        /* \"contracts/StakingContract.sol\":2682:2758  require(stakedBalance[msg.sender] >= _amount, \"Insufficient staked balance\") */\n    tag_73:\n        /* \"contracts/StakingContract.sol\":2793:2803  msg.sender */\n      caller\n        /* \"contracts/StakingContract.sol\":2776:2804  unstakingRequest[msg.sender] */\n      0x00\n      swap1\n      dup2\n      mstore\n        /* \"contracts/StakingContract.sol\":2776:2792  unstakingRequest */\n      0x04\n        /* \"contracts/StakingContract.sol\":2776:2804  unstakingRequest[msg.sender] */\n      0x20\n      mstore\n      0x40\n      swap1\n      keccak256\n        /* \"contracts/StakingContract.sol\":2776:2811  unstakingRequest[msg.sender].amount */\n      sload\n        /* \"contracts/StakingContract.sol\":2776:2816  unstakingRequest[msg.sender].amount == 0 */\n      iszero\n        /* \"contracts/StakingContract.sol\":2768:2847  require(unstakingRequest[msg.sender].amount == 0, \"Unstake Already in Process\") */\n      tag_76\n      jumpi\n      mload(0x40)\n      shl(0xe5, 0x461bcd)\n      dup2\n      mstore\n        /* \"#utility.yul\":2337:2339   */\n      0x20\n        /* \"contracts/StakingContract.sol\":2768:2847  require(unstakingRequest[msg.sender].amount == 0, \"Unstake Already in Process\") */\n      0x04\n      dup3\n      add\n        /* \"#utility.yul\":2319:2340   */\n      mstore\n        /* \"#utility.yul\":2376:2378   */\n      0x1a\n        /* \"#utility.yul\":2356:2374   */\n      0x24\n      dup3\n      add\n        /* \"#utility.yul\":2349:2379   */\n      mstore\n        /* \"#utility.yul\":2415:2443   */\n      0x556e7374616b6520416c726561647920696e2050726f63657373000000000000\n        /* \"#utility.yul\":2395:2413   */\n      0x44\n      dup3\n      add\n        /* \"#utility.yul\":2388:2444   */\n      mstore\n        /* \"#utility.yul\":2461:2479   */\n      0x64\n      add\n        /* \"contracts/StakingContract.sol\":2768:2847  require(unstakingRequest[msg.sender].amount == 0, \"Unstake Already in Process\") */\n      tag_71\n        /* \"#utility.yul\":2135:2485   */\n      jump\n        /* \"contracts/StakingContract.sol\":2768:2847  require(unstakingRequest[msg.sender].amount == 0, \"Unstake Already in Process\") */\n    tag_76:\n        /* \"contracts/StakingContract.sol\":2936:2946  msg.sender */\n      caller\n        /* \"contracts/StakingContract.sol\":2922:2947  stakedBalance[msg.sender] */\n      0x00\n      swap1\n      dup2\n      mstore\n        /* \"contracts/StakingContract.sol\":2922:2935  stakedBalance */\n      0x02\n        /* \"contracts/StakingContract.sol\":2922:2947  stakedBalance[msg.sender] */\n      0x20\n      mstore\n      0x40\n      swap1\n      keccak256\n      sload\n        /* \"contracts/StakingContract.sol\":2922:2960  stakedBalance[msg.sender].sub(_amount) */\n      tag_79\n      swap1\n        /* \"contracts/StakingContract.sol\":2952:2959  _amount */\n      dup3\n        /* \"contracts/StakingContract.sol\":2922:2951  stakedBalance[msg.sender].sub */\n      tag_80\n        /* \"contracts/StakingContract.sol\":2922:2960  stakedBalance[msg.sender].sub(_amount) */\n      jump\t// in\n    tag_79:\n        /* \"contracts/StakingContract.sol\":2908:2918  msg.sender */\n      caller\n        /* \"contracts/StakingContract.sol\":2894:2919  stakedBalance[msg.sender] */\n      0x00\n      swap1\n      dup2\n      mstore\n        /* \"contracts/StakingContract.sol\":2894:2907  stakedBalance */\n      0x02\n        /* \"contracts/StakingContract.sol\":2894:2919  stakedBalance[msg.sender] */\n      0x20\n      mstore\n      0x40\n      swap1\n      keccak256\n        /* \"contracts/StakingContract.sol\":2894:2960  stakedBalance[msg.sender] = stakedBalance[msg.sender].sub(_amount) */\n      sstore\n        /* \"contracts/StakingContract.sol\":2984:2995  totalStaked */\n      sload(0x03)\n        /* \"contracts/StakingContract.sol\":2984:3008  totalStaked.sub(_amount) */\n      tag_81\n      swap1\n        /* \"contracts/StakingContract.sol\":3000:3007  _amount */\n      dup3\n        /* \"contracts/StakingContract.sol\":2984:2999  totalStaked.sub */\n      tag_80\n        /* \"contracts/StakingContract.sol\":2984:3008  totalStaked.sub(_amount) */\n      jump\t// in\n    tag_81:\n        /* \"contracts/StakingContract.sol\":2970:2981  totalStaked */\n      0x03\n        /* \"contracts/StakingContract.sol\":2970:3008  totalStaked = totalStaked.sub(_amount) */\n      sstore\n        /* \"contracts/StakingContract.sol\":3049:3067  uint256 unlockTime */\n      0x00\n        /* \"contracts/StakingContract.sol\":3070:3102  block.timestamp + UNSTAKE_PERIOD */\n      tag_82\n        /* \"contracts/StakingContract.sol\":762:768  7 days */\n      0x093a80\n        /* \"contracts/StakingContract.sol\":3070:3085  block.timestamp */\n      timestamp\n        /* \"contracts/StakingContract.sol\":3070:3102  block.timestamp + UNSTAKE_PERIOD */\n      tag_83\n      jump\t// in\n    tag_82:\n        /* \"contracts/StakingContract.sol\":3143:3231  UnstakeInfo({... */\n      0x40\n      dup1\n      mload\n      dup1\n      dup3\n      add\n      dup3\n      mstore\n      dup5\n      dup2\n      mstore\n      0x20\n      dup1\n      dup3\n      add\n      dup5\n      dup2\n      mstore\n        /* \"contracts/StakingContract.sol\":3129:3139  msg.sender */\n      caller\n      0x00\n        /* \"contracts/StakingContract.sol\":3112:3140  unstakingRequest[msg.sender] */\n      dup2\n      dup2\n      mstore\n        /* \"contracts/StakingContract.sol\":3112:3128  unstakingRequest */\n      0x04\n        /* \"contracts/StakingContract.sol\":3112:3140  unstakingRequest[msg.sender] */\n      dup5\n      mstore\n      dup6\n      swap1\n      keccak256\n        /* \"contracts/StakingContract.sol\":3112:3231  unstakingRequest[msg.sender] = UnstakeInfo({... */\n      swap4\n      mload\n      dup5\n      sstore\n      swap1\n      mload\n      0x01\n      swap1\n      swap4\n      add\n      swap3\n      swap1\n      swap3\n      sstore\n        /* \"contracts/StakingContract.sol\":3247:3296  UnstakeInitiated(msg.sender, _amount, unlockTime) */\n      dup3\n      mload\n        /* \"#utility.yul\":687:712   */\n      dup7\n      dup2\n      mstore\n        /* \"#utility.yul\":728:746   */\n      swap1\n      dup2\n      add\n        /* \"#utility.yul\":721:755   */\n      dup5\n      swap1\n      mstore\n        /* \"contracts/StakingContract.sol\":3143:3231  UnstakeInfo({... */\n      swap3\n      swap4\n      pop\n        /* \"contracts/StakingContract.sol\":3129:3139  msg.sender */\n      swap2\n        /* \"contracts/StakingContract.sol\":3247:3296  UnstakeInitiated(msg.sender, _amount, unlockTime) */\n      0x9cee5eacd317086e5050733a5dad16ef5aaec185de792371a9625bfee2a3213b\n      swap2\n        /* \"#utility.yul\":660:678   */\n      add\n        /* \"contracts/StakingContract.sol\":3247:3296  UnstakeInitiated(msg.sender, _amount, unlockTime) */\n    tag_84:\n      mload(0x40)\n      dup1\n      swap2\n      sub\n      swap1\n      log2\n        /* \"contracts/StakingContract.sol\":2612:3303  {... */\n      pop\n        /* \"@openzeppelin/contracts/security/ReentrancyGuard.sol\":2303:2323  _nonReentrantAfter() */\n      tag_85\n        /* \"@openzeppelin/contracts/security/ReentrancyGuard.sol\":1716:1717  1 */\n      0x01\n        /* \"@openzeppelin/contracts/security/ReentrancyGuard.sol\":2809:2831  _status = _NOT_ENTERED */\n      dup1\n      sstore\n        /* \"@openzeppelin/contracts/security/ReentrancyGuard.sol\":2629:2838  function _nonReentrantAfter() private {... */\n      jump\n        /* \"@openzeppelin/contracts/security/ReentrancyGuard.sol\":2303:2323  _nonReentrantAfter() */\n    tag_85:\n        /* \"contracts/StakingContract.sol\":2546:3303  function initiateUnstaking(uint256 _amount) external nonReentrant {... */\n      pop\n      jump\t// out\n        /* \"contracts/StakingContract.sol\":3477:4139  function withdraw() external nonReentrant {... */\n    tag_30:\n        /* \"@openzeppelin/contracts/security/ReentrancyGuard.sol\":2261:2282  _nonReentrantBefore() */\n      tag_89\n        /* \"@openzeppelin/contracts/security/ReentrancyGuard.sol\":2261:2280  _nonReentrantBefore */\n      tag_68\n        /* \"@openzeppelin/contracts/security/ReentrancyGuard.sol\":2261:2282  _nonReentrantBefore() */\n      jump\t// in\n    tag_89:\n        /* \"contracts/StakingContract.sol\":3576:3586  msg.sender */\n      caller\n        /* \"contracts/StakingContract.sol\":3529:3556  UnstakeInfo storage request */\n      0x00\n        /* \"contracts/StakingContract.sol\":3559:3587  unstakingRequest[msg.sender] */\n      swap1\n      dup2\n      mstore\n        /* \"contracts/StakingContract.sol\":3559:3575  unstakingRequest */\n      0x04\n        /* \"contracts/StakingContract.sol\":3559:3587  unstakingRequest[msg.sender] */\n      0x20\n      mstore\n      0x40\n      swap1\n      keccak256\n        /* \"contracts/StakingContract.sol\":3605:3619  request.amount */\n      dup1\n      sload\n        /* \"contracts/StakingContract.sol\":3597:3652  require(request.amount > 0, \"No Unstake Request Found\") */\n      tag_91\n      jumpi\n      mload(0x40)\n      shl(0xe5, 0x461bcd)\n      dup2\n      mstore\n        /* \"#utility.yul\":3011:3013   */\n      0x20\n        /* \"contracts/StakingContract.sol\":3597:3652  require(request.amount > 0, \"No Unstake Request Found\") */\n      0x04\n      dup3\n      add\n        /* \"#utility.yul\":2993:3014   */\n      mstore\n        /* \"#utility.yul\":3050:3052   */\n      0x18\n        /* \"#utility.yul\":3030:3048   */\n      0x24\n      dup3\n      add\n        /* \"#utility.yul\":3023:3053   */\n      mstore\n        /* \"#utility.yul\":3089:3115   */\n      0x4e6f20556e7374616b65205265717565737420466f756e640000000000000000\n        /* \"#utility.yul\":3069:3087   */\n      0x44\n      dup3\n      add\n        /* \"#utility.yul\":3062:3116   */\n      mstore\n        /* \"#utility.yul\":3133:3151   */\n      0x64\n      add\n        /* \"contracts/StakingContract.sol\":3597:3652  require(request.amount > 0, \"No Unstake Request Found\") */\n      tag_71\n        /* \"#utility.yul\":2809:3157   */\n      jump\n        /* \"contracts/StakingContract.sol\":3597:3652  require(request.amount > 0, \"No Unstake Request Found\") */\n    tag_91:\n        /* \"contracts/StakingContract.sol\":3689:3696  request */\n      dup1\n        /* \"contracts/StakingContract.sol\":3689:3707  request.unlockTime */\n      0x01\n      add\n      sload\n        /* \"contracts/StakingContract.sol\":3670:3685  block.timestamp */\n      timestamp\n        /* \"contracts/StakingContract.sol\":3670:3707  block.timestamp >= request.unlockTime */\n      lt\n      iszero\n        /* \"contracts/StakingContract.sol\":3662:3735  require(block.timestamp >= request.unlockTime, \"Unstake period not over\") */\n      tag_94\n      jumpi\n      mload(0x40)\n      shl(0xe5, 0x461bcd)\n      dup2\n      mstore\n        /* \"#utility.yul\":3364:3366   */\n      0x20\n        /* \"contracts/StakingContract.sol\":3662:3735  require(block.timestamp >= request.unlockTime, \"Unstake period not over\") */\n      0x04\n      dup3\n      add\n        /* \"#utility.yul\":3346:3367   */\n      mstore\n        /* \"#utility.yul\":3403:3405   */\n      0x17\n        /* \"#utility.yul\":3383:3401   */\n      0x24\n      dup3\n      add\n        /* \"#utility.yul\":3376:3406   */\n      mstore\n        /* \"#utility.yul\":3442:3467   */\n      0x556e7374616b6520706572696f64206e6f74206f766572000000000000000000\n        /* \"#utility.yul\":3422:3440   */\n      0x44\n      dup3\n      add\n        /* \"#utility.yul\":3415:3468   */\n      mstore\n        /* \"#utility.yul\":3485:3503   */\n      0x64\n      add\n        /* \"contracts/StakingContract.sol\":3662:3735  require(block.timestamp >= request.unlockTime, \"Unstake period not over\") */\n      tag_71\n        /* \"#utility.yul\":3162:3509   */\n      jump\n        /* \"contracts/StakingContract.sol\":3662:3735  require(block.timestamp >= request.unlockTime, \"Unstake period not over\") */\n    tag_94:\n        /* \"contracts/StakingContract.sol\":3773:3787  request.amount */\n      dup1\n      sload\n        /* \"contracts/StakingContract.sol\":3746:3770  uint256 amountToWithdraw */\n      0x00\n        /* \"contracts/StakingContract.sol\":3851:3869  request.amount = 0 */\n      dup1\n      dup4\n      sstore\n      0x01\n        /* \"contracts/StakingContract.sol\":3879:3897  request.unlockTime */\n      dup4\n      add\n        /* \"contracts/StakingContract.sol\":3879:3901  request.unlockTime = 0 */\n      dup2\n      swap1\n      sstore\n        /* \"contracts/StakingContract.sol\":3947:4001  governanceToken.transfer(msg.sender, amountToWithdraw) */\n      mload(0x40)\n      0xa9059cbb00000000000000000000000000000000000000000000000000000000\n      dup2\n      mstore\n        /* \"contracts/StakingContract.sol\":3972:3982  msg.sender */\n      caller\n        /* \"contracts/StakingContract.sol\":3947:4001  governanceToken.transfer(msg.sender, amountToWithdraw) */\n      0x04\n      dup3\n      add\n        /* \"#utility.yul\":3688:3762   */\n      mstore\n        /* \"#utility.yul\":3778:3796   */\n      0x24\n      dup2\n      add\n        /* \"#utility.yul\":3771:3805   */\n      dup4\n      swap1\n      mstore\n        /* \"contracts/StakingContract.sol\":3947:3962  governanceToken */\n      immutable(\"0x42fa20e8c2fc174121a60bb5704cfd8579fc4a2698f9ae487d1310659094676e\")\n      sub(shl(0xa0, 0x01), 0x01)\n        /* \"contracts/StakingContract.sol\":3947:3971  governanceToken.transfer */\n      and\n      swap1\n      0xa9059cbb\n      swap1\n        /* \"#utility.yul\":3661:3679   */\n      0x44\n      add\n        /* \"contracts/StakingContract.sol\":3947:4001  governanceToken.transfer(msg.sender, amountToWithdraw) */\n      0x20\n      mload(0x40)\n      dup1\n      dup4\n      sub\n      dup2\n      0x00\n      dup8\n      gas\n      call\n      iszero\n      dup1\n      iszero\n      tag_100\n      jumpi\n      returndatasize\n      0x00\n      dup1\n      returndatacopy\n      revert(0x00, returndatasize)\n    tag_100:\n      pop\n      pop\n      pop\n      pop\n      mload(0x40)\n      returndatasize\n      not(0x1f)\n      0x1f\n      dup3\n      add\n      and\n      dup3\n      add\n      dup1\n      0x40\n      mstore\n      pop\n      dup2\n      add\n      swap1\n      tag_101\n      swap2\n      swap1\n      tag_102\n      jump\t// in\n    tag_101:\n        /* \"contracts/StakingContract.sol\":3932:4001  bool success = governanceToken.transfer(msg.sender, amountToWithdraw) */\n      swap1\n      pop\n        /* \"contracts/StakingContract.sol\":4019:4026  success */\n      dup1\n        /* \"contracts/StakingContract.sol\":4011:4077  require(success, \"Token Transfer Failed during UnStaking Process\") */\n      tag_103\n      jumpi\n      mload(0x40)\n      shl(0xe5, 0x461bcd)\n      dup2\n      mstore\n        /* \"#utility.yul\":4300:4302   */\n      0x20\n        /* \"contracts/StakingContract.sol\":4011:4077  require(success, \"Token Transfer Failed during UnStaking Process\") */\n      0x04\n      dup3\n      add\n        /* \"#utility.yul\":4282:4303   */\n      mstore\n        /* \"#utility.yul\":4339:4341   */\n      0x2e\n        /* \"#utility.yul\":4319:4337   */\n      0x24\n      dup3\n      add\n        /* \"#utility.yul\":4312:4342   */\n      mstore\n        /* \"#utility.yul\":4378:4412   */\n      0x546f6b656e205472616e73666572204661696c656420647572696e6720556e53\n        /* \"#utility.yul\":4358:4376   */\n      0x44\n      dup3\n      add\n        /* \"#utility.yul\":4351:4413   */\n      mstore\n        /* \"#utility.yul\":4449:4465   */\n      0x74616b696e672050726f63657373000000000000000000000000000000000000\n        /* \"#utility.yul\":4429:4447   */\n      0x64\n      dup3\n      add\n        /* \"#utility.yul\":4422:4466   */\n      mstore\n        /* \"#utility.yul\":4483:4502   */\n      0x84\n      add\n        /* \"contracts/StakingContract.sol\":4011:4077  require(success, \"Token Transfer Failed during UnStaking Process\") */\n      tag_71\n        /* \"#utility.yul\":4098:4508   */\n      jump\n        /* \"contracts/StakingContract.sol\":4011:4077  require(success, \"Token Transfer Failed during UnStaking Process\") */\n    tag_103:\n        /* \"contracts/StakingContract.sol\":4093:4131  Withdraw(msg.sender, amountToWithdraw) */\n      mload(0x40)\n        /* \"#utility.yul\":912:937   */\n      dup3\n      dup2\n      mstore\n        /* \"contracts/StakingContract.sol\":4102:4112  msg.sender */\n      caller\n      swap1\n        /* \"contracts/StakingContract.sol\":4093:4131  Withdraw(msg.sender, amountToWithdraw) */\n      0x884edad9ce6fa2440d8a54cc123490eb96d2768479d49ff9c7366125a9424364\n      swap1\n        /* \"#utility.yul\":900:902   */\n      0x20\n        /* \"#utility.yul\":885:903   */\n      add\n        /* \"contracts/StakingContract.sol\":4093:4131  Withdraw(msg.sender, amountToWithdraw) */\n      mload(0x40)\n      dup1\n      swap2\n      sub\n      swap1\n      log2\n        /* \"contracts/StakingContract.sol\":3519:4139  {... */\n      pop\n      pop\n      pop\n        /* \"@openzeppelin/contracts/security/ReentrancyGuard.sol\":2303:2323  _nonReentrantAfter() */\n      tag_107\n        /* \"@openzeppelin/contracts/security/ReentrancyGuard.sol\":1716:1717  1 */\n      0x01\n        /* \"@openzeppelin/contracts/security/ReentrancyGuard.sol\":2809:2831  _status = _NOT_ENTERED */\n      dup1\n      sstore\n        /* \"@openzeppelin/contracts/security/ReentrancyGuard.sol\":2629:2838  function _nonReentrantAfter() private {... */\n      jump\n        /* \"@openzeppelin/contracts/security/ReentrancyGuard.sol\":2303:2323  _nonReentrantAfter() */\n    tag_107:\n        /* \"contracts/StakingContract.sol\":3477:4139  function withdraw() external nonReentrant {... */\n      jump\t// out\n        /* \"@openzeppelin/contracts/access/Ownable.sol\":2293:2394  function renounceOwnership() public virtual onlyOwner {... */\n    tag_37:\n        /* \"@openzeppelin/contracts/access/Ownable.sol\":1531:1544  _checkOwner() */\n      tag_109\n        /* \"@openzeppelin/contracts/access/Ownable.sol\":1531:1542  _checkOwner */\n      tag_110\n        /* \"@openzeppelin/contracts/access/Ownable.sol\":1531:1544  _checkOwner() */\n      jump\t// in\n    tag_109:\n        /* \"@openzeppelin/contracts/access/Ownable.sol\":2357:2387  _transferOwnership(address(0)) */\n      tag_107\n        /* \"@openzeppelin/contracts/access/Ownable.sol\":2384:2385  0 */\n      0x00\n        /* \"@openzeppelin/contracts/access/Ownable.sol\":2357:2375  _transferOwnership */\n      tag_113\n        /* \"@openzeppelin/contracts/access/Ownable.sol\":2357:2387  _transferOwnership(address(0)) */\n      jump\t// in\n        /* \"contracts/StakingContract.sol\":1657:2267  function stake(uint256 _amount) external nonReentrant {... */\n    tag_54:\n        /* \"@openzeppelin/contracts/security/ReentrancyGuard.sol\":2261:2282  _nonReentrantBefore() */\n      tag_116\n        /* \"@openzeppelin/contracts/security/ReentrancyGuard.sol\":2261:2280  _nonReentrantBefore */\n      tag_68\n        /* \"@openzeppelin/contracts/security/ReentrancyGuard.sol\":2261:2282  _nonReentrantBefore() */\n      jump\t// in\n    tag_116:\n        /* \"contracts/StakingContract.sol\":1739:1740  0 */\n      0x00\n        /* \"contracts/StakingContract.sol\":1729:1736  _amount */\n      dup2\n        /* \"contracts/StakingContract.sol\":1729:1740  _amount > 0 */\n      gt\n        /* \"contracts/StakingContract.sol\":1721:1769  require(_amount > 0, \"Cannot stake zero Tokens\") */\n      tag_118\n      jumpi\n      mload(0x40)\n      shl(0xe5, 0x461bcd)\n      dup2\n      mstore\n        /* \"#utility.yul\":4715:4717   */\n      0x20\n        /* \"contracts/StakingContract.sol\":1721:1769  require(_amount > 0, \"Cannot stake zero Tokens\") */\n      0x04\n      dup3\n      add\n        /* \"#utility.yul\":4697:4718   */\n      mstore\n        /* \"#utility.yul\":4754:4756   */\n      0x18\n        /* \"#utility.yul\":4734:4752   */\n      0x24\n      dup3\n      add\n        /* \"#utility.yul\":4727:4757   */\n      mstore\n        /* \"#utility.yul\":4793:4819   */\n      0x43616e6e6f74207374616b65207a65726f20546f6b656e730000000000000000\n        /* \"#utility.yul\":4773:4791   */\n      0x44\n      dup3\n      add\n        /* \"#utility.yul\":4766:4820   */\n      mstore\n        /* \"#utility.yul\":4837:4855   */\n      0x64\n      add\n        /* \"contracts/StakingContract.sol\":1721:1769  require(_amount > 0, \"Cannot stake zero Tokens\") */\n      tag_71\n        /* \"#utility.yul\":4513:4861   */\n      jump\n        /* \"contracts/StakingContract.sol\":1721:1769  require(_amount > 0, \"Cannot stake zero Tokens\") */\n    tag_118:\n        /* \"contracts/StakingContract.sol\":1787:1824  governanceToken.balanceOf(msg.sender) */\n      mload(0x40)\n      0x70a0823100000000000000000000000000000000000000000000000000000000\n      dup2\n      mstore\n        /* \"contracts/StakingContract.sol\":1813:1823  msg.sender */\n      caller\n        /* \"contracts/StakingContract.sol\":1787:1824  governanceToken.balanceOf(msg.sender) */\n      0x04\n      dup3\n      add\n        /* \"#utility.yul\":1094:1168   */\n      mstore\n        /* \"contracts/StakingContract.sol\":1828:1835  _amount */\n      dup2\n      swap1\n        /* \"contracts/StakingContract.sol\":1787:1802  governanceToken */\n      immutable(\"0x42fa20e8c2fc174121a60bb5704cfd8579fc4a2698f9ae487d1310659094676e\")\n      sub(shl(0xa0, 0x01), 0x01)\n        /* \"contracts/StakingContract.sol\":1787:1812  governanceToken.balanceOf */\n      and\n      swap1\n      0x70a08231\n      swap1\n        /* \"#utility.yul\":1067:1085   */\n      0x24\n      add\n        /* \"contracts/StakingContract.sol\":1787:1824  governanceToken.balanceOf(msg.sender) */\n      0x20\n      mload(0x40)\n      dup1\n      dup4\n      sub\n      dup2\n      dup7\n      gas\n      staticcall\n      iszero\n      dup1\n      iszero\n      tag_123\n      jumpi\n      returndatasize\n      0x00\n      dup1\n      returndatacopy\n      revert(0x00, returndatasize)\n    tag_123:\n      pop\n      pop\n      pop\n      pop\n      mload(0x40)\n      returndatasize\n      not(0x1f)\n      0x1f\n      dup3\n      add\n      and\n      dup3\n      add\n      dup1\n      0x40\n      mstore\n      pop\n      dup2\n      add\n      swap1\n      tag_124\n      swap2\n      swap1\n      tag_125\n      jump\t// in\n    tag_124:\n        /* \"contracts/StakingContract.sol\":1787:1835  governanceToken.balanceOf(msg.sender) >= _amount */\n      lt\n      iszero\n        /* \"contracts/StakingContract.sol\":1779:1860  require(governanceToken.balanceOf(msg.sender) >= _amount, \"Insufficient Balance\") */\n      tag_126\n      jumpi\n      mload(0x40)\n      shl(0xe5, 0x461bcd)\n      dup2\n      mstore\n        /* \"#utility.yul\":5257:5259   */\n      0x20\n        /* \"contracts/StakingContract.sol\":1779:1860  require(governanceToken.balanceOf(msg.sender) >= _amount, \"Insufficient Balance\") */\n      0x04\n      dup3\n      add\n        /* \"#utility.yul\":5239:5260   */\n      mstore\n        /* \"#utility.yul\":5296:5298   */\n      0x14\n        /* \"#utility.yul\":5276:5294   */\n      0x24\n      dup3\n      add\n        /* \"#utility.yul\":5269:5299   */\n      mstore\n        /* \"#utility.yul\":5335:5357   */\n      0x496e73756666696369656e742042616c616e6365000000000000000000000000\n        /* \"#utility.yul\":5315:5333   */\n      0x44\n      dup3\n      add\n        /* \"#utility.yul\":5308:5358   */\n      mstore\n        /* \"#utility.yul\":5375:5393   */\n      0x64\n      add\n        /* \"contracts/StakingContract.sol\":1779:1860  require(governanceToken.balanceOf(msg.sender) >= _amount, \"Insufficient Balance\") */\n      tag_71\n        /* \"#utility.yul\":5055:5399   */\n      jump\n        /* \"contracts/StakingContract.sol\":1779:1860  require(governanceToken.balanceOf(msg.sender) >= _amount, \"Insufficient Balance\") */\n    tag_126:\n        /* \"contracts/StakingContract.sol\":1947:2011  governanceToken.transferFrom(msg.sender, address(this), _amount) */\n      mload(0x40)\n      0x23b872dd00000000000000000000000000000000000000000000000000000000\n      dup2\n      mstore\n        /* \"contracts/StakingContract.sol\":1976:1986  msg.sender */\n      caller\n        /* \"contracts/StakingContract.sol\":1947:2011  governanceToken.transferFrom(msg.sender, address(this), _amount) */\n      0x04\n      dup3\n      add\n        /* \"#utility.yul\":5606:5680   */\n      mstore\n        /* \"contracts/StakingContract.sol\":1996:2000  this */\n      address\n        /* \"#utility.yul\":5696:5714   */\n      0x24\n      dup3\n      add\n        /* \"#utility.yul\":5689:5772   */\n      mstore\n        /* \"#utility.yul\":5788:5806   */\n      0x44\n      dup2\n      add\n        /* \"#utility.yul\":5781:5815   */\n      dup3\n      swap1\n      mstore\n        /* \"contracts/StakingContract.sol\":1932:1944  bool success */\n      0x00\n      swap1\n        /* \"contracts/StakingContract.sol\":1947:1962  governanceToken */\n      immutable(\"0x42fa20e8c2fc174121a60bb5704cfd8579fc4a2698f9ae487d1310659094676e\")\n      sub(shl(0xa0, 0x01), 0x01)\n        /* \"contracts/StakingContract.sol\":1947:1975  governanceToken.transferFrom */\n      and\n      swap1\n      0x23b872dd\n      swap1\n        /* \"#utility.yul\":5579:5597   */\n      0x64\n      add\n        /* \"contracts/StakingContract.sol\":1947:2011  governanceToken.transferFrom(msg.sender, address(this), _amount) */\n      0x20\n      mload(0x40)\n      dup1\n      dup4\n      sub\n      dup2\n      0x00\n      dup8\n      gas\n      call\n      iszero\n      dup1\n      iszero\n      tag_132\n      jumpi\n      returndatasize\n      0x00\n      dup1\n      returndatacopy\n      revert(0x00, returndatasize)\n    tag_132:\n      pop\n      pop\n      pop\n      pop\n      mload(0x40)\n      returndatasize\n      not(0x1f)\n      0x1f\n      dup3\n      add\n      and\n      dup3\n      add\n      dup1\n      0x40\n      mstore\n      pop\n      dup2\n      add\n      swap1\n      tag_133\n      swap2\n      swap1\n      tag_102\n      jump\t// in\n    tag_133:\n        /* \"contracts/StakingContract.sol\":1932:2011  bool success = governanceToken.transferFrom(msg.sender, address(this), _amount) */\n      swap1\n      pop\n        /* \"contracts/StakingContract.sol\":2029:2036  success */\n      dup1\n        /* \"contracts/StakingContract.sol\":2021:2056  require(success, \"Transfer Failed\") */\n      tag_134\n      jumpi\n      mload(0x40)\n      shl(0xe5, 0x461bcd)\n      dup2\n      mstore\n        /* \"#utility.yul\":6028:6030   */\n      0x20\n        /* \"contracts/StakingContract.sol\":2021:2056  require(success, \"Transfer Failed\") */\n      0x04\n      dup3\n      add\n        /* \"#utility.yul\":6010:6031   */\n      mstore\n        /* \"#utility.yul\":6067:6069   */\n      0x0f\n        /* \"#utility.yul\":6047:6065   */\n      0x24\n      dup3\n      add\n        /* \"#utility.yul\":6040:6070   */\n      mstore\n        /* \"#utility.yul\":6106:6123   */\n      0x5472616e73666572204661696c65640000000000000000000000000000000000\n        /* \"#utility.yul\":6086:6104   */\n      0x44\n      dup3\n      add\n        /* \"#utility.yul\":6079:6124   */\n      mstore\n        /* \"#utility.yul\":6141:6159   */\n      0x64\n      add\n        /* \"contracts/StakingContract.sol\":2021:2056  require(success, \"Transfer Failed\") */\n      tag_71\n        /* \"#utility.yul\":5826:6165   */\n      jump\n        /* \"contracts/StakingContract.sol\":2021:2056  require(success, \"Transfer Failed\") */\n    tag_134:\n        /* \"contracts/StakingContract.sol\":2145:2155  msg.sender */\n      caller\n        /* \"contracts/StakingContract.sol\":2131:2156  stakedBalance[msg.sender] */\n      0x00\n      swap1\n      dup2\n      mstore\n        /* \"contracts/StakingContract.sol\":2131:2144  stakedBalance */\n      0x02\n        /* \"contracts/StakingContract.sol\":2131:2156  stakedBalance[msg.sender] */\n      0x20\n      mstore\n      0x40\n      swap1\n      keccak256\n      sload\n        /* \"contracts/StakingContract.sol\":2131:2169  stakedBalance[msg.sender].add(_amount) */\n      tag_137\n      swap1\n        /* \"contracts/StakingContract.sol\":2161:2168  _amount */\n      dup4\n        /* \"contracts/StakingContract.sol\":2131:2160  stakedBalance[msg.sender].add */\n      tag_138\n        /* \"contracts/StakingContract.sol\":2131:2169  stakedBalance[msg.sender].add(_amount) */\n      jump\t// in\n    tag_137:\n        /* \"contracts/StakingContract.sol\":2117:2127  msg.sender */\n      caller\n        /* \"contracts/StakingContract.sol\":2103:2128  stakedBalance[msg.sender] */\n      0x00\n      swap1\n      dup2\n      mstore\n        /* \"contracts/StakingContract.sol\":2103:2116  stakedBalance */\n      0x02\n        /* \"contracts/StakingContract.sol\":2103:2128  stakedBalance[msg.sender] */\n      0x20\n      mstore\n      0x40\n      swap1\n      keccak256\n        /* \"contracts/StakingContract.sol\":2103:2169  stakedBalance[msg.sender] = stakedBalance[msg.sender].add(_amount) */\n      sstore\n        /* \"contracts/StakingContract.sol\":2193:2204  totalStaked */\n      sload(0x03)\n        /* \"contracts/StakingContract.sol\":2193:2217  totalStaked.add(_amount) */\n      tag_139\n      swap1\n        /* \"contracts/StakingContract.sol\":2209:2216  _amount */\n      dup4\n        /* \"contracts/StakingContract.sol\":2193:2208  totalStaked.add */\n      tag_138\n        /* \"contracts/StakingContract.sol\":2193:2217  totalStaked.add(_amount) */\n      jump\t// in\n    tag_139:\n        /* \"contracts/StakingContract.sol\":2179:2190  totalStaked */\n      0x03\n        /* \"contracts/StakingContract.sol\":2179:2217  totalStaked = totalStaked.add(_amount) */\n      sstore\n        /* \"contracts/StakingContract.sol\":2233:2260  Staked(msg.sender, _amount) */\n      mload(0x40)\n        /* \"#utility.yul\":912:937   */\n      dup3\n      dup2\n      mstore\n        /* \"contracts/StakingContract.sol\":2240:2250  msg.sender */\n      caller\n      swap1\n        /* \"contracts/StakingContract.sol\":2233:2260  Staked(msg.sender, _amount) */\n      0x9e71bc8eea02a63969f509818f2dafb9254532904319f9dbda79b67bd34a5f3d\n      swap1\n        /* \"#utility.yul\":900:902   */\n      0x20\n        /* \"#utility.yul\":885:903   */\n      add\n        /* \"contracts/StakingContract.sol\":2233:2260  Staked(msg.sender, _amount) */\n      tag_84\n        /* \"#utility.yul\":766:943   */\n      jump\n        /* \"@openzeppelin/contracts/access/Ownable.sol\":2543:2758  function transferOwnership(address newOwner) public virtual onlyOwner {... */\n    tag_61:\n        /* \"@openzeppelin/contracts/access/Ownable.sol\":1531:1544  _checkOwner() */\n      tag_144\n        /* \"@openzeppelin/contracts/access/Ownable.sol\":1531:1542  _checkOwner */\n      tag_110\n        /* \"@openzeppelin/contracts/access/Ownable.sol\":1531:1544  _checkOwner() */\n      jump\t// in\n    tag_144:\n      sub(shl(0xa0, 0x01), 0x01)\n        /* \"@openzeppelin/contracts/access/Ownable.sol\":2627:2649  newOwner == address(0) */\n      dup2\n      and\n        /* \"@openzeppelin/contracts/access/Ownable.sol\":2623:2714  if (newOwner == address(0)) {... */\n      tag_146\n      jumpi\n        /* \"@openzeppelin/contracts/access/Ownable.sol\":2672:2703  OwnableInvalidOwner(address(0)) */\n      mload(0x40)\n      0x1e4fbdf700000000000000000000000000000000000000000000000000000000\n      dup2\n      mstore\n        /* \"@openzeppelin/contracts/access/Ownable.sol\":2700:2701  0 */\n      0x00\n        /* \"@openzeppelin/contracts/access/Ownable.sol\":2672:2703  OwnableInvalidOwner(address(0)) */\n      0x04\n      dup3\n      add\n        /* \"#utility.yul\":1094:1168   */\n      mstore\n        /* \"#utility.yul\":1067:1085   */\n      0x24\n      add\n        /* \"@openzeppelin/contracts/access/Ownable.sol\":2672:2703  OwnableInvalidOwner(address(0)) */\n      tag_71\n        /* \"#utility.yul\":948:1174   */\n      jump\n        /* \"@openzeppelin/contracts/access/Ownable.sol\":2623:2714  if (newOwner == address(0)) {... */\n    tag_146:\n        /* \"@openzeppelin/contracts/access/Ownable.sol\":2723:2751  _transferOwnership(newOwner) */\n      tag_85\n        /* \"@openzeppelin/contracts/access/Ownable.sol\":2742:2750  newOwner */\n      dup2\n        /* \"@openzeppelin/contracts/access/Ownable.sol\":2723:2741  _transferOwnership */\n      tag_113\n        /* \"@openzeppelin/contracts/access/Ownable.sol\":2723:2751  _transferOwnership(newOwner) */\n      jump\t// in\n        /* \"@openzeppelin/contracts/security/ReentrancyGuard.sol\":2336:2623  function _nonReentrantBefore() private {... */\n    tag_68:\n        /* \"@openzeppelin/contracts/security/ReentrancyGuard.sol\":1759:1760  2 */\n      0x02\n        /* \"@openzeppelin/contracts/security/ReentrancyGuard.sol\":2468:2475  _status */\n      sload(0x01)\n        /* \"@openzeppelin/contracts/security/ReentrancyGuard.sol\":2468:2487  _status != _ENTERED */\n      sub\n        /* \"@openzeppelin/contracts/security/ReentrancyGuard.sol\":2460:2523  require(_status != _ENTERED, \"ReentrancyGuard: reentrant call\") */\n      tag_150\n      jumpi\n      mload(0x40)\n      shl(0xe5, 0x461bcd)\n      dup2\n      mstore\n        /* \"#utility.yul\":6372:6374   */\n      0x20\n        /* \"@openzeppelin/contracts/security/ReentrancyGuard.sol\":2460:2523  require(_status != _ENTERED, \"ReentrancyGuard: reentrant call\") */\n      0x04\n      dup3\n      add\n        /* \"#utility.yul\":6354:6375   */\n      mstore\n        /* \"#utility.yul\":6411:6413   */\n      0x1f\n        /* \"#utility.yul\":6391:6409   */\n      0x24\n      dup3\n      add\n        /* \"#utility.yul\":6384:6414   */\n      mstore\n        /* \"#utility.yul\":6450:6483   */\n      0x5265656e7472616e637947756172643a207265656e7472616e742063616c6c00\n        /* \"#utility.yul\":6430:6448   */\n      0x44\n      dup3\n      add\n        /* \"#utility.yul\":6423:6484   */\n      mstore\n        /* \"#utility.yul\":6501:6519   */\n      0x64\n      add\n        /* \"@openzeppelin/contracts/security/ReentrancyGuard.sol\":2460:2523  require(_status != _ENTERED, \"ReentrancyGuard: reentrant call\") */\n      tag_71\n        /* \"#utility.yul\":6170:6525   */\n      jump\n        /* \"@openzeppelin/contracts/security/ReentrancyGuard.sol\":2460:2523  require(_status != _ENTERED, \"ReentrancyGuard: reentrant call\") */\n    tag_150:\n        /* \"@openzeppelin/contracts/security/ReentrancyGuard.sol\":1759:1760  2 */\n      0x02\n        /* \"@openzeppelin/contracts/security/ReentrancyGuard.sol\":2598:2605  _status */\n      0x01\n        /* \"@openzeppelin/contracts/security/ReentrancyGuard.sol\":2598:2616  _status = _ENTERED */\n      sstore\n        /* \"@openzeppelin/contracts/security/ReentrancyGuard.sol\":2336:2623  function _nonReentrantBefore() private {... */\n      jump\t// out\n        /* \"@openzeppelin/contracts/utils/math/SafeMath.sol\":3122:3218  function sub(uint256 a, uint256 b) internal pure returns (uint256) {... */\n    tag_80:\n        /* \"@openzeppelin/contracts/utils/math/SafeMath.sol\":3180:3187  uint256 */\n      0x00\n        /* \"@openzeppelin/contracts/utils/math/SafeMath.sol\":3206:3211  a - b */\n      tag_154\n        /* \"@openzeppelin/contracts/utils/math/SafeMath.sol\":3210:3211  b */\n      dup3\n        /* \"@openzeppelin/contracts/utils/math/SafeMath.sol\":3206:3207  a */\n      dup5\n        /* \"@openzeppelin/contracts/utils/math/SafeMath.sol\":3206:3211  a - b */\n      tag_155\n      jump\t// in\n    tag_154:\n        /* \"@openzeppelin/contracts/utils/math/SafeMath.sol\":3199:3211  return a - b */\n      swap1\n      pop\n        /* \"@openzeppelin/contracts/utils/math/SafeMath.sol\":3122:3218  function sub(uint256 a, uint256 b) internal pure returns (uint256) {... */\n    tag_153:\n      swap3\n      swap2\n      pop\n      pop\n      jump\t// out\n        /* \"@openzeppelin/contracts/access/Ownable.sol\":1796:1958  function _checkOwner() internal view virtual {... */\n    tag_110:\n        /* \"@openzeppelin/contracts/access/Ownable.sol\":1684:1691  address */\n      0x00\n        /* \"@openzeppelin/contracts/access/Ownable.sol\":1710:1716  _owner */\n      sload\n      sub(shl(0xa0, 0x01), 0x01)\n      and\n        /* \"@openzeppelin/contracts/utils/Context.sol\":735:745  msg.sender */\n      caller\n        /* \"@openzeppelin/contracts/access/Ownable.sol\":1855:1878  owner() != _msgSender() */\n      eq\n        /* \"@openzeppelin/contracts/access/Ownable.sol\":1851:1952  if (owner() != _msgSender()) {... */\n      tag_107\n      jumpi\n        /* \"@openzeppelin/contracts/access/Ownable.sol\":1901:1941  OwnableUnauthorizedAccount(_msgSender()) */\n      mload(0x40)\n      0x118cdaa700000000000000000000000000000000000000000000000000000000\n      dup2\n      mstore\n        /* \"@openzeppelin/contracts/utils/Context.sol\":735:745  msg.sender */\n      caller\n        /* \"@openzeppelin/contracts/access/Ownable.sol\":1901:1941  OwnableUnauthorizedAccount(_msgSender()) */\n      0x04\n      dup3\n      add\n        /* \"#utility.yul\":1094:1168   */\n      mstore\n        /* \"#utility.yul\":1067:1085   */\n      0x24\n      add\n        /* \"@openzeppelin/contracts/access/Ownable.sol\":1901:1941  OwnableUnauthorizedAccount(_msgSender()) */\n      tag_71\n        /* \"#utility.yul\":948:1174   */\n      jump\n        /* \"@openzeppelin/contracts/access/Ownable.sol\":2912:3099  function _transferOwnership(address newOwner) internal virtual {... */\n    tag_113:\n        /* \"@openzeppelin/contracts/access/Ownable.sol\":2985:3001  address oldOwner */\n      0x00\n        /* \"@openzeppelin/contracts/access/Ownable.sol\":3004:3010  _owner */\n      dup1\n      sload\n      sub(shl(0xa0, 0x01), 0x01)\n        /* \"@openzeppelin/contracts/access/Ownable.sol\":3020:3037  _owner = newOwner */\n      dup4\n      dup2\n      and\n      0xffffffffffffffffffffffff0000000000000000000000000000000000000000\n      dup4\n      and\n      dup2\n      or\n      dup5\n      sstore\n        /* \"@openzeppelin/contracts/access/Ownable.sol\":3052:3092  OwnershipTransferred(oldOwner, newOwner) */\n      mload(0x40)\n        /* \"@openzeppelin/contracts/access/Ownable.sol\":3004:3010  _owner */\n      swap2\n      swap1\n      swap3\n      and\n      swap3\n      dup4\n      swap2\n        /* \"@openzeppelin/contracts/access/Ownable.sol\":3052:3092  OwnershipTransferred(oldOwner, newOwner) */\n      0x8be0079c531659141344cd1fd0a4f28419497f9722a3daafe3b4186f6b6457e0\n      swap2\n        /* \"@openzeppelin/contracts/access/Ownable.sol\":2985:3001  address oldOwner */\n      swap1\n        /* \"@openzeppelin/contracts/access/Ownable.sol\":3052:3092  OwnershipTransferred(oldOwner, newOwner) */\n      log3\n        /* \"@openzeppelin/contracts/access/Ownable.sol\":2975:3099  {... */\n      pop\n        /* \"@openzeppelin/contracts/access/Ownable.sol\":2912:3099  function _transferOwnership(address newOwner) internal virtual {... */\n      pop\n      jump\t// out\n        /* \"@openzeppelin/contracts/utils/math/SafeMath.sol\":2755:2851  function add(uint256 a, uint256 b) internal pure returns (uint256) {... */\n    tag_138:\n        /* \"@openzeppelin/contracts/utils/math/SafeMath.sol\":2813:2820  uint256 */\n      0x00\n        /* \"@openzeppelin/contracts/utils/math/SafeMath.sol\":2839:2844  a + b */\n      tag_154\n        /* \"@openzeppelin/contracts/utils/math/SafeMath.sol\":2843:2844  b */\n      dup3\n        /* \"@openzeppelin/contracts/utils/math/SafeMath.sol\":2839:2840  a */\n      dup5\n        /* \"@openzeppelin/contracts/utils/math/SafeMath.sol\":2839:2844  a + b */\n      tag_83\n      jump\t// in\n        /* \"#utility.yul\":14:194   */\n    tag_21:\n        /* \"#utility.yul\":73:79   */\n      0x00\n        /* \"#utility.yul\":126:128   */\n      0x20\n        /* \"#utility.yul\":114:123   */\n      dup3\n        /* \"#utility.yul\":105:112   */\n      dup5\n        /* \"#utility.yul\":101:124   */\n      sub\n        /* \"#utility.yul\":97:129   */\n      slt\n        /* \"#utility.yul\":94:146   */\n      iszero\n      tag_171\n      jumpi\n        /* \"#utility.yul\":142:143   */\n      0x00\n        /* \"#utility.yul\":139:140   */\n      dup1\n        /* \"#utility.yul\":132:144   */\n      revert\n        /* \"#utility.yul\":94:146   */\n    tag_171:\n      pop\n        /* \"#utility.yul\":165:188   */\n      calldataload\n      swap2\n        /* \"#utility.yul\":14:194   */\n      swap1\n      pop\n      jump\t// out\n        /* \"#utility.yul\":199:508   */\n    tag_25:\n        /* \"#utility.yul\":258:264   */\n      0x00\n        /* \"#utility.yul\":311:313   */\n      0x20\n        /* \"#utility.yul\":299:308   */\n      dup3\n        /* \"#utility.yul\":290:297   */\n      dup5\n        /* \"#utility.yul\":286:309   */\n      sub\n        /* \"#utility.yul\":282:314   */\n      slt\n        /* \"#utility.yul\":279:331   */\n      iszero\n      tag_173\n      jumpi\n        /* \"#utility.yul\":327:328   */\n      0x00\n        /* \"#utility.yul\":324:325   */\n      dup1\n        /* \"#utility.yul\":317:329   */\n      revert\n        /* \"#utility.yul\":279:331   */\n    tag_173:\n        /* \"#utility.yul\":366:375   */\n      dup2\n        /* \"#utility.yul\":353:376   */\n      calldataload\n      sub(shl(0xa0, 0x01), 0x01)\n        /* \"#utility.yul\":409:414   */\n      dup2\n        /* \"#utility.yul\":405:459   */\n      and\n        /* \"#utility.yul\":398:403   */\n      dup2\n        /* \"#utility.yul\":395:460   */\n      eq\n        /* \"#utility.yul\":385:478   */\n      tag_174\n      jumpi\n        /* \"#utility.yul\":474:475   */\n      0x00\n        /* \"#utility.yul\":471:472   */\n      dup1\n        /* \"#utility.yul\":464:476   */\n      revert\n        /* \"#utility.yul\":385:478   */\n    tag_174:\n        /* \"#utility.yul\":497:502   */\n      swap4\n        /* \"#utility.yul\":199:508   */\n      swap3\n      pop\n      pop\n      pop\n      jump\t// out\n        /* \"#utility.yul\":2490:2674   */\n    tag_168:\n        /* \"#utility.yul\":2542:2619   */\n      0x4e487b7100000000000000000000000000000000000000000000000000000000\n        /* \"#utility.yul\":2539:2540   */\n      0x00\n        /* \"#utility.yul\":2532:2620   */\n      mstore\n        /* \"#utility.yul\":2639:2643   */\n      0x11\n        /* \"#utility.yul\":2636:2637   */\n      0x04\n        /* \"#utility.yul\":2629:2644   */\n      mstore\n        /* \"#utility.yul\":2663:2667   */\n      0x24\n        /* \"#utility.yul\":2660:2661   */\n      0x00\n        /* \"#utility.yul\":2653:2668   */\n      revert\n        /* \"#utility.yul\":2679:2804   */\n    tag_83:\n        /* \"#utility.yul\":2744:2753   */\n      dup1\n      dup3\n      add\n        /* \"#utility.yul\":2765:2775   */\n      dup1\n      dup3\n      gt\n        /* \"#utility.yul\":2762:2798   */\n      iszero\n      tag_153\n      jumpi\n        /* \"#utility.yul\":2778:2796   */\n      tag_153\n      tag_168\n      jump\t// in\n        /* \"#utility.yul\":3816:4093   */\n    tag_102:\n        /* \"#utility.yul\":3883:3889   */\n      0x00\n        /* \"#utility.yul\":3936:3938   */\n      0x20\n        /* \"#utility.yul\":3924:3933   */\n      dup3\n        /* \"#utility.yul\":3915:3922   */\n      dup5\n        /* \"#utility.yul\":3911:3934   */\n      sub\n        /* \"#utility.yul\":3907:3939   */\n      slt\n        /* \"#utility.yul\":3904:3956   */\n      iszero\n      tag_190\n      jumpi\n        /* \"#utility.yul\":3952:3953   */\n      0x00\n        /* \"#utility.yul\":3949:3950   */\n      dup1\n        /* \"#utility.yul\":3942:3954   */\n      revert\n        /* \"#utility.yul\":3904:3956   */\n    tag_190:\n        /* \"#utility.yul\":3984:3993   */\n      dup2\n        /* \"#utility.yul\":3978:3994   */\n      mload\n        /* \"#utility.yul\":4037:4042   */\n      dup1\n        /* \"#utility.yul\":4030:4043   */\n      iszero\n        /* \"#utility.yul\":4023:4044   */\n      iszero\n        /* \"#utility.yul\":4016:4021   */\n      dup2\n        /* \"#utility.yul\":4013:4045   */\n      eq\n        /* \"#utility.yul\":4003:4063   */\n      tag_174\n      jumpi\n        /* \"#utility.yul\":4059:4060   */\n      0x00\n        /* \"#utility.yul\":4056:4057   */\n      dup1\n        /* \"#utility.yul\":4049:4061   */\n      revert\n        /* \"#utility.yul\":4866:5050   */\n    tag_125:\n        /* \"#utility.yul\":4936:4942   */\n      0x00\n        /* \"#utility.yul\":4989:4991   */\n      0x20\n        /* \"#utility.yul\":4977:4986   */\n      dup3\n        /* \"#utility.yul\":4968:4975   */\n      dup5\n        /* \"#utility.yul\":4964:4987   */\n      sub\n        /* \"#utility.yul\":4960:4992   */\n      slt\n        /* \"#utility.yul\":4957:5009   */\n      iszero\n      tag_195\n      jumpi\n        /* \"#utility.yul\":5005:5006   */\n      0x00\n        /* \"#utility.yul\":5002:5003   */\n      dup1\n        /* \"#utility.yul\":4995:5007   */\n      revert\n        /* \"#utility.yul\":4957:5009   */\n    tag_195:\n      pop\n        /* \"#utility.yul\":5028:5044   */\n      mload\n      swap2\n        /* \"#utility.yul\":4866:5050   */\n      swap1\n      pop\n      jump\t// out\n        /* \"#utility.yul\":6530:6658   */\n    tag_155:\n        /* \"#utility.yul\":6597:6606   */\n      dup2\n      dup2\n      sub\n        /* \"#utility.yul\":6618:6629   */\n      dup2\n      dup2\n      gt\n        /* \"#utility.yul\":6615:6652   */\n      iszero\n      tag_153\n      jumpi\n        /* \"#utility.yul\":6632:6650   */\n      tag_153\n      tag_168\n      jump\t// in\n\n    auxdata: 0xa264697066735822122094d8dd9c8dc80333cbbcda28d474c7fe88ff6bcfed5f025f6f85248266179f4b64736f6c634300081a0033\n}\n",
				"bytecode": {
					"linkReferences": {},
					"object": "60a060405234801561000f575f80fd5b50604051610d17380380610d1783398101604081905261002e9161013d565b806001600160a01b03811661005d57604051631e4fbdf760e01b81525f60048201526024015b60405180910390fd5b610066816100d3565b50600180556001600160a01b0382166100c15760405162461bcd60e51b815260206004820181905260248201527f54686520546f6b656e20616464726573732063616e6e6f74206265207a65726f6044820152606401610054565b506001600160a01b031660805261016e565b5f80546001600160a01b038381166001600160a01b0319831681178455604051919092169283917f8be0079c531659141344cd1fd0a4f28419497f9722a3daafe3b4186f6b6457e09190a35050565b80516001600160a01b0381168114610138575f80fd5b919050565b5f806040838503121561014e575f80fd5b61015783610122565b915061016560208401610122565b90509250929050565b608051610b7c61019b5f395f818161022a01528181610519015281816106db01526107d70152610b7c5ff3fe608060405234801561000f575f80fd5b50600436106100da575f3560e01c8063817b1cd211610088578063a694fc3a11610063578063a694fc3a146101d7578063bb4d4436146101ea578063f2fde38b14610212578063f96dae0a14610225575f80fd5b8063817b1cd2146101845780638da5cb5b1461018d578063a0873111146101b1575f80fd5b806360217267116100b85780636021726714610145578063715018a61461017257806379b578621461017a575f80fd5b806318fb4f32146100de5780633b64916e146100f35780633ccfd60b1461013d575b5f80fd5b6100f16100ec366004610a79565b61024c565b005b610123610101366004610a90565b6001600160a01b03165f90815260046020526040902080546001909101549091565b604080519283526020830191909152015b60405180910390f35b6100f161041f565b610164610153366004610a90565b60026020525f908152604090205481565b604051908152602001610134565b6100f1610643565b61016462093a8081565b61016460035481565b5f546001600160a01b03165b6040516001600160a01b039091168152602001610134565b6101236101bf366004610a90565b60046020525f90815260409020805460019091015482565b6100f16101e5366004610a79565b610654565b6101646101f8366004610a90565b6001600160a01b03165f9081526002602052604090205490565b6100f1610220366004610a90565b610902565b6101997f000000000000000000000000000000000000000000000000000000000000000081565b610254610955565b5f81116102a85760405162461bcd60e51b815260206004820152601a60248201527f43616e6e6f7420556e7374616b65207a65726f20746f6b656e7300000000000060448201526064015b60405180910390fd5b335f908152600260205260409020548111156103065760405162461bcd60e51b815260206004820152601b60248201527f496e73756666696369656e74207374616b65642062616c616e63650000000000604482015260640161029f565b335f90815260046020526040902054156103625760405162461bcd60e51b815260206004820152601a60248201527f556e7374616b6520416c726561647920696e2050726f63657373000000000000604482015260640161029f565b335f9081526002602052604090205461037b90826109ae565b335f9081526002602052604090205560035461039790826109ae565b6003555f6103a862093a8042610aea565b6040805180820182528481526020808201848152335f818152600484528590209351845590516001909301929092558251868152908101849052929350917f9cee5eacd317086e5050733a5dad16ef5aaec185de792371a9625bfee2a3213b91015b60405180910390a25061041c60018055565b50565b610427610955565b335f90815260046020526040902080546104835760405162461bcd60e51b815260206004820152601860248201527f4e6f20556e7374616b65205265717565737420466f756e640000000000000000604482015260640161029f565b80600101544210156104d75760405162461bcd60e51b815260206004820152601760248201527f556e7374616b6520706572696f64206e6f74206f766572000000000000000000604482015260640161029f565b80545f808355600183018190556040517fa9059cbb000000000000000000000000000000000000000000000000000000008152336004820152602481018390527f00000000000000000000000000000000000000000000000000000000000000006001600160a01b03169063a9059cbb906044016020604051808303815f875af1158015610567573d5f803e3d5ffd5b505050506040513d601f19601f8201168201806040525081019061058b9190610afd565b9050806106005760405162461bcd60e51b815260206004820152602e60248201527f546f6b656e205472616e73666572204661696c656420647572696e6720556e5360448201527f74616b696e672050726f63657373000000000000000000000000000000000000606482015260840161029f565b60405182815233907f884edad9ce6fa2440d8a54cc123490eb96d2768479d49ff9c7366125a94243649060200160405180910390a250505061064160018055565b565b61064b6109c2565b6106415f610a07565b61065c610955565b5f81116106ab5760405162461bcd60e51b815260206004820152601860248201527f43616e6e6f74207374616b65207a65726f20546f6b656e730000000000000000604482015260640161029f565b6040517f70a0823100000000000000000000000000000000000000000000000000000000815233600482015281907f00000000000000000000000000000000000000000000000000000000000000006001600160a01b0316906370a0823190602401602060405180830381865afa158015610728573d5f803e3d5ffd5b505050506040513d601f19601f8201168201806040525081019061074c9190610b1c565b101561079a5760405162461bcd60e51b815260206004820152601460248201527f496e73756666696369656e742042616c616e6365000000000000000000000000604482015260640161029f565b6040517f23b872dd000000000000000000000000000000000000000000000000000000008152336004820152306024820152604481018290525f907f00000000000000000000000000000000000000000000000000000000000000006001600160a01b0316906323b872dd906064016020604051808303815f875af1158015610825573d5f803e3d5ffd5b505050506040513d601f19601f820116820180604052508101906108499190610afd565b9050806108985760405162461bcd60e51b815260206004820152600f60248201527f5472616e73666572204661696c65640000000000000000000000000000000000604482015260640161029f565b335f908152600260205260409020546108b19083610a6e565b335f908152600260205260409020556003546108cd9083610a6e565b60035560405182815233907f9e71bc8eea02a63969f509818f2dafb9254532904319f9dbda79b67bd34a5f3d9060200161040a565b61090a6109c2565b6001600160a01b03811661094c576040517f1e4fbdf70000000000000000000000000000000000000000000000000000000081525f600482015260240161029f565b61041c81610a07565b6002600154036109a75760405162461bcd60e51b815260206004820152601f60248201527f5265656e7472616e637947756172643a207265656e7472616e742063616c6c00604482015260640161029f565b6002600155565b5f6109b98284610b33565b90505b92915050565b5f546001600160a01b03163314610641576040517f118cdaa700000000000000000000000000000000000000000000000000000000815233600482015260240161029f565b5f80546001600160a01b038381167fffffffffffffffffffffffff0000000000000000000000000000000000000000831681178455604051919092169283917f8be0079c531659141344cd1fd0a4f28419497f9722a3daafe3b4186f6b6457e09190a35050565b5f6109b98284610aea565b5f60208284031215610a89575f80fd5b5035919050565b5f60208284031215610aa0575f80fd5b81356001600160a01b0381168114610ab6575f80fd5b9392505050565b7f4e487b71000000000000000000000000000000000000000000000000000000005f52601160045260245ffd5b808201808211156109bc576109bc610abd565b5f60208284031215610b0d575f80fd5b81518015158114610ab6575f80fd5b5f60208284031215610b2c575f80fd5b5051919050565b818103818111156109bc576109bc610abd56fea264697066735822122094d8dd9c8dc80333cbbcda28d474c7fe88ff6bcfed5f025f6f85248266179f4b64736f6c634300081a0033",
					"opcodes": "PUSH1 0xA0 PUSH1 0x40 MSTORE CALLVALUE DUP1 ISZERO PUSH2 0xF JUMPI PUSH0 DUP1 REVERT JUMPDEST POP PUSH1 0x40 MLOAD PUSH2 0xD17 CODESIZE SUB DUP1 PUSH2 0xD17 DUP4 CODECOPY DUP2 ADD PUSH1 0x40 DUP2 SWAP1 MSTORE PUSH2 0x2E SWAP2 PUSH2 0x13D JUMP JUMPDEST DUP1 PUSH1 0x1 PUSH1 0x1 PUSH1 0xA0 SHL SUB DUP2 AND PUSH2 0x5D JUMPI PUSH1 0x40 MLOAD PUSH4 0x1E4FBDF7 PUSH1 0xE0 SHL DUP2 MSTORE PUSH0 PUSH1 0x4 DUP3 ADD MSTORE PUSH1 0x24 ADD JUMPDEST PUSH1 0x40 MLOAD DUP1 SWAP2 SUB SWAP1 REVERT JUMPDEST PUSH2 0x66 DUP2 PUSH2 0xD3 JUMP JUMPDEST POP PUSH1 0x1 DUP1 SSTORE PUSH1 0x1 PUSH1 0x1 PUSH1 0xA0 SHL SUB DUP3 AND PUSH2 0xC1 JUMPI PUSH1 0x40 MLOAD PUSH3 0x461BCD PUSH1 0xE5 SHL DUP2 MSTORE PUSH1 0x20 PUSH1 0x4 DUP3 ADD DUP2 SWAP1 MSTORE PUSH1 0x24 DUP3 ADD MSTORE PUSH32 0x54686520546F6B656E20616464726573732063616E6E6F74206265207A65726F PUSH1 0x44 DUP3 ADD MSTORE PUSH1 0x64 ADD PUSH2 0x54 JUMP JUMPDEST POP PUSH1 0x1 PUSH1 0x1 PUSH1 0xA0 SHL SUB AND PUSH1 0x80 MSTORE PUSH2 0x16E JUMP JUMPDEST PUSH0 DUP1 SLOAD PUSH1 0x1 PUSH1 0x1 PUSH1 0xA0 SHL SUB DUP4 DUP2 AND PUSH1 0x1 PUSH1 0x1 PUSH1 0xA0 SHL SUB NOT DUP4 AND DUP2 OR DUP5 SSTORE PUSH1 0x40 MLOAD SWAP2 SWAP1 SWAP3 AND SWAP3 DUP4 SWAP2 PUSH32 0x8BE0079C531659141344CD1FD0A4F28419497F9722A3DAAFE3B4186F6B6457E0 SWAP2 SWAP1 LOG3 POP POP JUMP JUMPDEST DUP1 MLOAD PUSH1 0x1 PUSH1 0x1 PUSH1 0xA0 SHL SUB DUP2 AND DUP2 EQ PUSH2 0x138 JUMPI PUSH0 DUP1 REVERT JUMPDEST SWAP2 SWAP1 POP JUMP JUMPDEST PUSH0 DUP1 PUSH1 0x40 DUP4 DUP6 SUB SLT ISZERO PUSH2 0x14E JUMPI PUSH0 DUP1 REVERT JUMPDEST PUSH2 0x157 DUP4 PUSH2 0x122 JUMP JUMPDEST SWAP2 POP PUSH2 0x165 PUSH1 0x20 DUP5 ADD PUSH2 0x122 JUMP JUMPDEST SWAP1 POP SWAP3 POP SWAP3 SWAP1 POP JUMP JUMPDEST PUSH1 0x80 MLOAD PUSH2 0xB7C PUSH2 0x19B PUSH0 CODECOPY PUSH0 DUP2 DUP2 PUSH2 0x22A ADD MSTORE DUP2 DUP2 PUSH2 0x519 ADD MSTORE DUP2 DUP2 PUSH2 0x6DB ADD MSTORE PUSH2 0x7D7 ADD MSTORE PUSH2 0xB7C PUSH0 RETURN INVALID PUSH1 0x80 PUSH1 0x40 MSTORE CALLVALUE DUP1 ISZERO PUSH2 0xF JUMPI PUSH0 DUP1 REVERT JUMPDEST POP PUSH1 0x4 CALLDATASIZE LT PUSH2 0xDA JUMPI PUSH0 CALLDATALOAD PUSH1 0xE0 SHR DUP1 PUSH4 0x817B1CD2 GT PUSH2 0x88 JUMPI DUP1 PUSH4 0xA694FC3A GT PUSH2 0x63 JUMPI DUP1 PUSH4 0xA694FC3A EQ PUSH2 0x1D7 JUMPI DUP1 PUSH4 0xBB4D4436 EQ PUSH2 0x1EA JUMPI DUP1 PUSH4 0xF2FDE38B EQ PUSH2 0x212 JUMPI DUP1 PUSH4 0xF96DAE0A EQ PUSH2 0x225 JUMPI PUSH0 DUP1 REVERT JUMPDEST DUP1 PUSH4 0x817B1CD2 EQ PUSH2 0x184 JUMPI DUP1 PUSH4 0x8DA5CB5B EQ PUSH2 0x18D JUMPI DUP1 PUSH4 0xA0873111 EQ PUSH2 0x1B1 JUMPI PUSH0 DUP1 REVERT JUMPDEST DUP1 PUSH4 0x60217267 GT PUSH2 0xB8 JUMPI DUP1 PUSH4 0x60217267 EQ PUSH2 0x145 JUMPI DUP1 PUSH4 0x715018A6 EQ PUSH2 0x172 JUMPI DUP1 PUSH4 0x79B57862 EQ PUSH2 0x17A JUMPI PUSH0 DUP1 REVERT JUMPDEST DUP1 PUSH4 0x18FB4F32 EQ PUSH2 0xDE JUMPI DUP1 PUSH4 0x3B64916E EQ PUSH2 0xF3 JUMPI DUP1 PUSH4 0x3CCFD60B EQ PUSH2 0x13D JUMPI JUMPDEST PUSH0 DUP1 REVERT JUMPDEST PUSH2 0xF1 PUSH2 0xEC CALLDATASIZE PUSH1 0x4 PUSH2 0xA79 JUMP JUMPDEST PUSH2 0x24C JUMP JUMPDEST STOP JUMPDEST PUSH2 0x123 PUSH2 0x101 CALLDATASIZE PUSH1 0x4 PUSH2 0xA90 JUMP JUMPDEST PUSH1 0x1 PUSH1 0x1 PUSH1 0xA0 SHL SUB AND PUSH0 SWAP1 DUP2 MSTORE PUSH1 0x4 PUSH1 0x20 MSTORE PUSH1 0x40 SWAP1 KECCAK256 DUP1 SLOAD PUSH1 0x1 SWAP1 SWAP2 ADD SLOAD SWAP1 SWAP2 JUMP JUMPDEST PUSH1 0x40 DUP1 MLOAD SWAP3 DUP4 MSTORE PUSH1 0x20 DUP4 ADD SWAP2 SWAP1 SWAP2 MSTORE ADD JUMPDEST PUSH1 0x40 MLOAD DUP1 SWAP2 SUB SWAP1 RETURN JUMPDEST PUSH2 0xF1 PUSH2 0x41F JUMP JUMPDEST PUSH2 0x164 PUSH2 0x153 CALLDATASIZE PUSH1 0x4 PUSH2 0xA90 JUMP JUMPDEST PUSH1 0x2 PUSH1 0x20 MSTORE PUSH0 SWAP1 DUP2 MSTORE PUSH1 0x40 SWAP1 KECCAK256 SLOAD DUP2 JUMP JUMPDEST PUSH1 0x40 MLOAD SWAP1 DUP2 MSTORE PUSH1 0x20 ADD PUSH2 0x134 JUMP JUMPDEST PUSH2 0xF1 PUSH2 0x643 JUMP JUMPDEST PUSH2 0x164 PUSH3 0x93A80 DUP2 JUMP JUMPDEST PUSH2 0x164 PUSH1 0x3 SLOAD DUP2 JUMP JUMPDEST PUSH0 SLOAD PUSH1 0x1 PUSH1 0x1 PUSH1 0xA0 SHL SUB AND JUMPDEST PUSH1 0x40 MLOAD PUSH1 0x1 PUSH1 0x1 PUSH1 0xA0 SHL SUB SWAP1 SWAP2 AND DUP2 MSTORE PUSH1 0x20 ADD PUSH2 0x134 JUMP JUMPDEST PUSH2 0x123 PUSH2 0x1BF CALLDATASIZE PUSH1 0x4 PUSH2 0xA90 JUMP JUMPDEST PUSH1 0x4 PUSH1 0x20 MSTORE PUSH0 SWAP1 DUP2 MSTORE PUSH1 0x40 SWAP1 KECCAK256 DUP1 SLOAD PUSH1 0x1 SWAP1 SWAP2 ADD SLOAD DUP3 JUMP JUMPDEST PUSH2 0xF1 PUSH2 0x1E5 CALLDATASIZE PUSH1 0x4 PUSH2 0xA79 JUMP JUMPDEST PUSH2 0x654 JUMP JUMPDEST PUSH2 0x164 PUSH2 0x1F8 CALLDATASIZE PUSH1 0x4 PUSH2 0xA90 JUMP JUMPDEST PUSH1 0x1 PUSH1 0x1 PUSH1 0xA0 SHL SUB AND PUSH0 SWAP1 DUP2 MSTORE PUSH1 0x2 PUSH1 0x20 MSTORE PUSH1 0x40 SWAP1 KECCAK256 SLOAD SWAP1 JUMP JUMPDEST PUSH2 0xF1 PUSH2 0x220 CALLDATASIZE PUSH1 0x4 PUSH2 0xA90 JUMP JUMPDEST PUSH2 0x902 JUMP JUMPDEST PUSH2 0x199 PUSH32 0x0 DUP2 JUMP JUMPDEST PUSH2 0x254 PUSH2 0x955 JUMP JUMPDEST PUSH0 DUP2 GT PUSH2 0x2A8 JUMPI PUSH1 0x40 MLOAD PUSH3 0x461BCD PUSH1 0xE5 SHL DUP2 MSTORE PUSH1 0x20 PUSH1 0x4 DUP3 ADD MSTORE PUSH1 0x1A PUSH1 0x24 DUP3 ADD MSTORE PUSH32 0x43616E6E6F7420556E7374616B65207A65726F20746F6B656E73000000000000 PUSH1 0x44 DUP3 ADD MSTORE PUSH1 0x64 ADD JUMPDEST PUSH1 0x40 MLOAD DUP1 SWAP2 SUB SWAP1 REVERT JUMPDEST CALLER PUSH0 SWAP1 DUP2 MSTORE PUSH1 0x2 PUSH1 0x20 MSTORE PUSH1 0x40 SWAP1 KECCAK256 SLOAD DUP2 GT ISZERO PUSH2 0x306 JUMPI PUSH1 0x40 MLOAD PUSH3 0x461BCD PUSH1 0xE5 SHL DUP2 MSTORE PUSH1 0x20 PUSH1 0x4 DUP3 ADD MSTORE PUSH1 0x1B PUSH1 0x24 DUP3 ADD MSTORE PUSH32 0x496E73756666696369656E74207374616B65642062616C616E63650000000000 PUSH1 0x44 DUP3 ADD MSTORE PUSH1 0x64 ADD PUSH2 0x29F JUMP JUMPDEST CALLER PUSH0 SWAP1 DUP2 MSTORE PUSH1 0x4 PUSH1 0x20 MSTORE PUSH1 0x40 SWAP1 KECCAK256 SLOAD ISZERO PUSH2 0x362 JUMPI PUSH1 0x40 MLOAD PUSH3 0x461BCD PUSH1 0xE5 SHL DUP2 MSTORE PUSH1 0x20 PUSH1 0x4 DUP3 ADD MSTORE PUSH1 0x1A PUSH1 0x24 DUP3 ADD MSTORE PUSH32 0x556E7374616B6520416C726561647920696E2050726F63657373000000000000 PUSH1 0x44 DUP3 ADD MSTORE PUSH1 0x64 ADD PUSH2 0x29F JUMP JUMPDEST CALLER PUSH0 SWAP1 DUP2 MSTORE PUSH1 0x2 PUSH1 0x20 MSTORE PUSH1 0x40 SWAP1 KECCAK256 SLOAD PUSH2 0x37B SWAP1 DUP3 PUSH2 0x9AE JUMP JUMPDEST CALLER PUSH0 SWAP1 DUP2 MSTORE PUSH1 0x2 PUSH1 0x20 MSTORE PUSH1 0x40 SWAP1 KECCAK256 SSTORE PUSH1 0x3 SLOAD PUSH2 0x397 SWAP1 DUP3 PUSH2 0x9AE JUMP JUMPDEST PUSH1 0x3 SSTORE PUSH0 PUSH2 0x3A8 PUSH3 0x93A80 TIMESTAMP PUSH2 0xAEA JUMP JUMPDEST PUSH1 0x40 DUP1 MLOAD DUP1 DUP3 ADD DUP3 MSTORE DUP5 DUP2 MSTORE PUSH1 0x20 DUP1 DUP3 ADD DUP5 DUP2 MSTORE CALLER PUSH0 DUP2 DUP2 MSTORE PUSH1 0x4 DUP5 MSTORE DUP6 SWAP1 KECCAK256 SWAP4 MLOAD DUP5 SSTORE SWAP1 MLOAD PUSH1 0x1 SWAP1 SWAP4 ADD SWAP3 SWAP1 SWAP3 SSTORE DUP3 MLOAD DUP7 DUP2 MSTORE SWAP1 DUP2 ADD DUP5 SWAP1 MSTORE SWAP3 SWAP4 POP SWAP2 PUSH32 0x9CEE5EACD317086E5050733A5DAD16EF5AAEC185DE792371A9625BFEE2A3213B SWAP2 ADD JUMPDEST PUSH1 0x40 MLOAD DUP1 SWAP2 SUB SWAP1 LOG2 POP PUSH2 0x41C PUSH1 0x1 DUP1 SSTORE JUMP JUMPDEST POP JUMP JUMPDEST PUSH2 0x427 PUSH2 0x955 JUMP JUMPDEST CALLER PUSH0 SWAP1 DUP2 MSTORE PUSH1 0x4 PUSH1 0x20 MSTORE PUSH1 0x40 SWAP1 KECCAK256 DUP1 SLOAD PUSH2 0x483 JUMPI PUSH1 0x40 MLOAD PUSH3 0x461BCD PUSH1 0xE5 SHL DUP2 MSTORE PUSH1 0x20 PUSH1 0x4 DUP3 ADD MSTORE PUSH1 0x18 PUSH1 0x24 DUP3 ADD MSTORE PUSH32 0x4E6F20556E7374616B65205265717565737420466F756E640000000000000000 PUSH1 0x44 DUP3 ADD MSTORE PUSH1 0x64 ADD PUSH2 0x29F JUMP JUMPDEST DUP1 PUSH1 0x1 ADD SLOAD TIMESTAMP LT ISZERO PUSH2 0x4D7 JUMPI PUSH1 0x40 MLOAD PUSH3 0x461BCD PUSH1 0xE5 SHL DUP2 MSTORE PUSH1 0x20 PUSH1 0x4 DUP3 ADD MSTORE PUSH1 0x17 PUSH1 0x24 DUP3 ADD MSTORE PUSH32 0x556E7374616B6520706572696F64206E6F74206F766572000000000000000000 PUSH1 0x44 DUP3 ADD MSTORE PUSH1 0x64 ADD PUSH2 0x29F JUMP JUMPDEST DUP1 SLOAD PUSH0 DUP1 DUP4 SSTORE PUSH1 0x1 DUP4 ADD DUP2 SWAP1 SSTORE PUSH1 0x40 MLOAD PUSH32 0xA9059CBB00000000000000000000000000000000000000000000000000000000 DUP2 MSTORE CALLER PUSH1 0x4 DUP3 ADD MSTORE PUSH1 0x24 DUP2 ADD DUP4 SWAP1 MSTORE PUSH32 0x0 PUSH1 0x1 PUSH1 0x1 PUSH1 0xA0 SHL SUB AND SWAP1 PUSH4 0xA9059CBB SWAP1 PUSH1 0x44 ADD PUSH1 0x20 PUSH1 0x40 MLOAD DUP1 DUP4 SUB DUP2 PUSH0 DUP8 GAS CALL ISZERO DUP1 ISZERO PUSH2 0x567 JUMPI RETURNDATASIZE PUSH0 DUP1 RETURNDATACOPY RETURNDATASIZE PUSH0 REVERT JUMPDEST POP POP POP POP PUSH1 0x40 MLOAD RETURNDATASIZE PUSH1 0x1F NOT PUSH1 0x1F DUP3 ADD AND DUP3 ADD DUP1 PUSH1 0x40 MSTORE POP DUP2 ADD SWAP1 PUSH2 0x58B SWAP2 SWAP1 PUSH2 0xAFD JUMP JUMPDEST SWAP1 POP DUP1 PUSH2 0x600 JUMPI PUSH1 0x40 MLOAD PUSH3 0x461BCD PUSH1 0xE5 SHL DUP2 MSTORE PUSH1 0x20 PUSH1 0x4 DUP3 ADD MSTORE PUSH1 0x2E PUSH1 0x24 DUP3 ADD MSTORE PUSH32 0x546F6B656E205472616E73666572204661696C656420647572696E6720556E53 PUSH1 0x44 DUP3 ADD MSTORE PUSH32 0x74616B696E672050726F63657373000000000000000000000000000000000000 PUSH1 0x64 DUP3 ADD MSTORE PUSH1 0x84 ADD PUSH2 0x29F JUMP JUMPDEST PUSH1 0x40 MLOAD DUP3 DUP2 MSTORE CALLER SWAP1 PUSH32 0x884EDAD9CE6FA2440D8A54CC123490EB96D2768479D49FF9C7366125A9424364 SWAP1 PUSH1 0x20 ADD PUSH1 0x40 MLOAD DUP1 SWAP2 SUB SWAP1 LOG2 POP POP POP PUSH2 0x641 PUSH1 0x1 DUP1 SSTORE JUMP JUMPDEST JUMP JUMPDEST PUSH2 0x64B PUSH2 0x9C2 JUMP JUMPDEST PUSH2 0x641 PUSH0 PUSH2 0xA07 JUMP JUMPDEST PUSH2 0x65C PUSH2 0x955 JUMP JUMPDEST PUSH0 DUP2 GT PUSH2 0x6AB JUMPI PUSH1 0x40 MLOAD PUSH3 0x461BCD PUSH1 0xE5 SHL DUP2 MSTORE PUSH1 0x20 PUSH1 0x4 DUP3 ADD MSTORE PUSH1 0x18 PUSH1 0x24 DUP3 ADD MSTORE PUSH32 0x43616E6E6F74207374616B65207A65726F20546F6B656E730000000000000000 PUSH1 0x44 DUP3 ADD MSTORE PUSH1 0x64 ADD PUSH2 0x29F JUMP JUMPDEST PUSH1 0x40 MLOAD PUSH32 0x70A0823100000000000000000000000000000000000000000000000000000000 DUP2 MSTORE CALLER PUSH1 0x4 DUP3 ADD MSTORE DUP2 SWAP1 PUSH32 0x0 PUSH1 0x1 PUSH1 0x1 PUSH1 0xA0 SHL SUB AND SWAP1 PUSH4 0x70A08231 SWAP1 PUSH1 0x24 ADD PUSH1 0x20 PUSH1 0x40 MLOAD DUP1 DUP4 SUB DUP2 DUP7 GAS STATICCALL ISZERO DUP1 ISZERO PUSH2 0x728 JUMPI RETURNDATASIZE PUSH0 DUP1 RETURNDATACOPY RETURNDATASIZE PUSH0 REVERT JUMPDEST POP POP POP POP PUSH1 0x40 MLOAD RETURNDATASIZE PUSH1 0x1F NOT PUSH1 0x1F DUP3 ADD AND DUP3 ADD DUP1 PUSH1 0x40 MSTORE POP DUP2 ADD SWAP1 PUSH2 0x74C SWAP2 SWAP1 PUSH2 0xB1C JUMP JUMPDEST LT ISZERO PUSH2 0x79A JUMPI PUSH1 0x40 MLOAD PUSH3 0x461BCD PUSH1 0xE5 SHL DUP2 MSTORE PUSH1 0x20 PUSH1 0x4 DUP3 ADD MSTORE PUSH1 0x14 PUSH1 0x24 DUP3 ADD MSTORE PUSH32 0x496E73756666696369656E742042616C616E6365000000000000000000000000 PUSH1 0x44 DUP3 ADD MSTORE PUSH1 0x64 ADD PUSH2 0x29F JUMP JUMPDEST PUSH1 0x40 MLOAD PUSH32 0x23B872DD00000000000000000000000000000000000000000000000000000000 DUP2 MSTORE CALLER PUSH1 0x4 DUP3 ADD MSTORE ADDRESS PUSH1 0x24 DUP3 ADD MSTORE PUSH1 0x44 DUP2 ADD DUP3 SWAP1 MSTORE PUSH0 SWAP1 PUSH32 0x0 PUSH1 0x1 PUSH1 0x1 PUSH1 0xA0 SHL SUB AND SWAP1 PUSH4 0x23B872DD SWAP1 PUSH1 0x64 ADD PUSH1 0x20 PUSH1 0x40 MLOAD DUP1 DUP4 SUB DUP2 PUSH0 DUP8 GAS CALL ISZERO DUP1 ISZERO PUSH2 0x825 JUMPI RETURNDATASIZE PUSH0 DUP1 RETURNDATACOPY RETURNDATASIZE PUSH0 REVERT JUMPDEST POP POP POP POP PUSH1 0x40 MLOAD RETURNDATASIZE PUSH1 0x1F NOT PUSH1 0x1F DUP3 ADD AND DUP3 ADD DUP1 PUSH1 0x40 MSTORE POP DUP2 ADD SWAP1 PUSH2 0x849 SWAP2 SWAP1 PUSH2 0xAFD JUMP JUMPDEST SWAP1 POP DUP1 PUSH2 0x898 JUMPI PUSH1 0x40 MLOAD PUSH3 0x461BCD PUSH1 0xE5 SHL DUP2 MSTORE PUSH1 0x20 PUSH1 0x4 DUP3 ADD MSTORE PUSH1 0xF PUSH1 0x24 DUP3 ADD MSTORE PUSH32 0x5472616E73666572204661696C65640000000000000000000000000000000000 PUSH1 0x44 DUP3 ADD MSTORE PUSH1 0x64 ADD PUSH2 0x29F JUMP JUMPDEST CALLER PUSH0 SWAP1 DUP2 MSTORE PUSH1 0x2 PUSH1 0x20 MSTORE PUSH1 0x40 SWAP1 KECCAK256 SLOAD PUSH2 0x8B1 SWAP1 DUP4 PUSH2 0xA6E JUMP JUMPDEST CALLER PUSH0 SWAP1 DUP2 MSTORE PUSH1 0x2 PUSH1 0x20 MSTORE PUSH1 0x40 SWAP1 KECCAK256 SSTORE PUSH1 0x3 SLOAD PUSH2 0x8CD SWAP1 DUP4 PUSH2 0xA6E JUMP JUMPDEST PUSH1 0x3 SSTORE PUSH1 0x40 MLOAD DUP3 DUP2 MSTORE CALLER SWAP1 PUSH32 0x9E71BC8EEA02A63969F509818F2DAFB9254532904319F9DBDA79B67BD34A5F3D SWAP1 PUSH1 0x20 ADD PUSH2 0x40A JUMP JUMPDEST PUSH2 0x90A PUSH2 0x9C2 JUMP JUMPDEST PUSH1 0x1 PUSH1 0x1 PUSH1 0xA0 SHL SUB DUP2 AND PUSH2 0x94C JUMPI PUSH1 0x40 MLOAD PUSH32 0x1E4FBDF700000000000000000000000000000000000000000000000000000000 DUP2 MSTORE PUSH0 PUSH1 0x4 DUP3 ADD MSTORE PUSH1 0x24 ADD PUSH2 0x29F JUMP JUMPDEST PUSH2 0x41C DUP2 PUSH2 0xA07 JUMP JUMPDEST PUSH1 0x2 PUSH1 0x1 SLOAD SUB PUSH2 0x9A7 JUMPI PUSH1 0x40 MLOAD PUSH3 0x461BCD PUSH1 0xE5 SHL DUP2 MSTORE PUSH1 0x20 PUSH1 0x4 DUP3 ADD MSTORE PUSH1 0x1F PUSH1 0x24 DUP3 ADD MSTORE PUSH32 0x5265656E7472616E637947756172643A207265656E7472616E742063616C6C00 PUSH1 0x44 DUP3 ADD MSTORE PUSH1 0x64 ADD PUSH2 0x29F JUMP JUMPDEST PUSH1 0x2 PUSH1 0x1 SSTORE JUMP JUMPDEST PUSH0 PUSH2 0x9B9 DUP3 DUP5 PUSH2 0xB33 JUMP JUMPDEST SWAP1 POP JUMPDEST SWAP3 SWAP2 POP POP JUMP JUMPDEST PUSH0 SLOAD PUSH1 0x1 PUSH1 0x1 PUSH1 0xA0 SHL SUB AND CALLER EQ PUSH2 0x641 JUMPI PUSH1 0x40 MLOAD PUSH32 0x118CDAA700000000000000000000000000000000000000000000000000000000 DUP2 MSTORE CALLER PUSH1 0x4 DUP3 ADD MSTORE PUSH1 0x24 ADD PUSH2 0x29F JUMP JUMPDEST PUSH0 DUP1 SLOAD PUSH1 0x1 PUSH1 0x1 PUSH1 0xA0 SHL SUB DUP4 DUP2 AND PUSH32 0xFFFFFFFFFFFFFFFFFFFFFFFF0000000000000000000000000000000000000000 DUP4 AND DUP2 OR DUP5 SSTORE PUSH1 0x40 MLOAD SWAP2 SWAP1 SWAP3 AND SWAP3 DUP4 SWAP2 PUSH32 0x8BE0079C531659141344CD1FD0A4F28419497F9722A3DAAFE3B4186F6B6457E0 SWAP2 SWAP1 LOG3 POP POP JUMP JUMPDEST PUSH0 PUSH2 0x9B9 DUP3 DUP5 PUSH2 0xAEA JUMP JUMPDEST PUSH0 PUSH1 0x20 DUP3 DUP5 SUB SLT ISZERO PUSH2 0xA89 JUMPI PUSH0 DUP1 REVERT JUMPDEST POP CALLDATALOAD SWAP2 SWAP1 POP JUMP JUMPDEST PUSH0 PUSH1 0x20 DUP3 DUP5 SUB SLT ISZERO PUSH2 0xAA0 JUMPI PUSH0 DUP1 REVERT JUMPDEST DUP2 CALLDATALOAD PUSH1 0x1 PUSH1 0x1 PUSH1 0xA0 SHL SUB DUP2 AND DUP2 EQ PUSH2 0xAB6 JUMPI PUSH0 DUP1 REVERT JUMPDEST SWAP4 SWAP3 POP POP POP JUMP JUMPDEST PUSH32 0x4E487B7100000000000000000000000000000000000000000000000000000000 PUSH0 MSTORE PUSH1 0x11 PUSH1 0x4 MSTORE PUSH1 0x24 PUSH0 REVERT JUMPDEST DUP1 DUP3 ADD DUP1 DUP3 GT ISZERO PUSH2 0x9BC JUMPI PUSH2 0x9BC PUSH2 0xABD JUMP JUMPDEST PUSH0 PUSH1 0x20 DUP3 DUP5 SUB SLT ISZERO PUSH2 0xB0D JUMPI PUSH0 DUP1 REVERT JUMPDEST DUP2 MLOAD DUP1 ISZERO ISZERO DUP2 EQ PUSH2 0xAB6 JUMPI PUSH0 DUP1 REVERT JUMPDEST PUSH0 PUSH1 0x20 DUP3 DUP5 SUB SLT ISZERO PUSH2 0xB2C JUMPI PUSH0 DUP1 REVERT JUMPDEST POP MLOAD SWAP2 SWAP1 POP JUMP JUMPDEST DUP2 DUP2 SUB DUP2 DUP2 GT ISZERO PUSH2 0x9BC JUMPI PUSH2 0x9BC PUSH2 0xABD JUMP INVALID LOG2 PUSH5 0x6970667358 0x22 SLT KECCAK256 SWAP5 0xD8 0xDD SWAP13 DUP14 0xC8 SUB CALLER 0xCB 0xBC 0xDA 0x28 0xD4 PUSH21 0xC7FE88FF6BCFED5F025F6F85248266179F4B64736F PUSH13 0x634300081A0033000000000000 "
				},
				"gasEstimates": {
					"creation": {
						"codeDepositCost": "588000",
						"executionCost": "infinite",
						"totalCost": "infinite"
					},
					"external": {
						"UNSTAKE_PERIOD()": "261",
						"getUnstakedRequest(address)": "4676",
						"getVotingPower(address)": "2543",
						"governanceToken()": "infinite",
						"initiateUnstaking(uint256)": "infinite",
						"owner()": "2363",
						"renounceOwnership()": "infinite",
						"stake(uint256)": "infinite",
						"stakedBalance(address)": "2504",
						"totalStaked()": "2317",
						"transferOwnership(address)": "28345",
						"unstakingRequest(address)": "4676",
						"withdraw()": "infinite"
					}
				},
				"methodIdentifiers": {
					"UNSTAKE_PERIOD()": "79b57862",
					"getUnstakedRequest(address)": "3b64916e",
					"getVotingPower(address)": "bb4d4436",
					"governanceToken()": "f96dae0a",
					"initiateUnstaking(uint256)": "18fb4f32",
					"owner()": "8da5cb5b",
					"renounceOwnership()": "715018a6",
					"stake(uint256)": "a694fc3a",
					"stakedBalance(address)": "60217267",
					"totalStaked()": "817b1cd2",
					"transferOwnership(address)": "f2fde38b",
					"unstakingRequest(address)": "a0873111",
					"withdraw()": "3ccfd60b"
				}
			},
			"storageLayout": {
				"storage": [
					{
						"astId": 8,
						"contract": "contracts/StakingContract.sol:StakingContract",
						"label": "_owner",
						"offset": 0,
						"slot": "0",
						"type": "t_address"
					},
					{
						"astId": 158,
						"contract": "contracts/StakingContract.sol:StakingContract",
						"label": "_status",
						"offset": 0,
						"slot": "1",
						"type": "t_uint256"
					},
					{
						"astId": 652,
						"contract": "contracts/StakingContract.sol:StakingContract",
						"label": "stakedBalance",
						"offset": 0,
						"slot": "2",
						"type": "t_mapping(t_address,t_uint256)"
					},
					{
						"astId": 654,
						"contract": "contracts/StakingContract.sol:StakingContract",
						"label": "totalStaked",
						"offset": 0,
						"slot": "3",
						"type": "t_uint256"
					},
					{
						"astId": 664,
						"contract": "contracts/StakingContract.sol:StakingContract",
						"label": "unstakingRequest",
						"offset": 0,
						"slot": "4",
						"type": "t_mapping(t_address,t_struct(UnstakeInfo)659_storage)"
					}
				],
				"types": {
					"t_address": {
						"encoding": "inplace",
						"label": "address",
						"numberOfBytes": "20"
					},
					"t_mapping(t_address,t_struct(UnstakeInfo)659_storage)": {
						"encoding": "mapping",
						"key": "t_address",
						"label": "mapping(address => struct StakingContract.UnstakeInfo)",
						"numberOfBytes": "32",
						"value": "t_struct(UnstakeInfo)659_storage"
					},
					"t_mapping(t_address,t_uint256)": {
						"encoding": "mapping",
						"key": "t_address",
						"label": "mapping(address => uint256)",
						"numberOfBytes": "32",
						"value": "t_uint256"
					},
					"t_struct(UnstakeInfo)659_storage": {
						"encoding": "inplace",
						"label": "struct StakingContract.UnstakeInfo",
						"members": [
							{
								"astId": 656,
								"contract": "contracts/StakingContract.sol:StakingContract",
								"label": "amount",
								"offset": 0,
								"slot": "0",
								"type": "t_uint256"
							},
							{
								"astId": 658,
								"contract": "contracts/StakingContract.sol:StakingContract",
								"label": "unlockTime",
								"offset": 0,
								"slot": "1",
								"type": "t_uint256"
							}
						],
						"numberOfBytes": "64"
					},
					"t_uint256": {
						"encoding": "inplace",
						"label": "uint256",
						"numberOfBytes": "32"
					}
				}
			},
			"userdoc": {
				"kind": "user",
				"methods": {
					"getUnstakedRequest(address)": {
						"notice": "Gets details of a pending unstake request for an account."
					},
					"getVotingPower(address)": {
						"notice": "Gets the staked balance of an account, which represents voting power."
					},
					"initiateUnstaking(uint256)": {
						"notice": "Initiates the unstaking process for a specified amount."
					},
					"stake(uint256)": {
						"notice": "Stakes a specified amount of GovernanceToken."
					},
					"withdraw()": {
						"notice": "Withdraws tokens after the unstaking period has passed."
					}
				},
				"version": 1
			}
		}
	}
}