{
	"contracts/BasicVestingGovernanceToken.sol": {
		"BasicVestingGovernanceToken": {
			"abi": [
				{
					"inputs": [
						{
							"internalType": "string",
							"name": "_name",
							"type": "string"
						},
						{
							"internalType": "string",
							"name": "_symbol",
							"type": "string"
						},
						{
							"internalType": "uint256",
							"name": "_initialOwnerSupply",
							"type": "uint256"
						},
						{
							"internalType": "uint256",
							"name": "_totalVestedSupply",
							"type": "uint256"
						},
						{
							"internalType": "uint256",
							"name": "_vestingDurationInSeconds",
							"type": "uint256"
						},
						{
							"internalType": "address",
							"name": "_initialOwner",
							"type": "address"
						}
					],
					"stateMutability": "nonpayable",
					"type": "constructor"
				},
				{
					"inputs": [
						{
							"internalType": "address",
							"name": "spender",
							"type": "address"
						},
						{
							"internalType": "uint256",
							"name": "allowance",
							"type": "uint256"
						},
						{
							"internalType": "uint256",
							"name": "needed",
							"type": "uint256"
						}
					],
					"name": "ERC20InsufficientAllowance",
					"type": "error"
				},
				{
					"inputs": [
						{
							"internalType": "address",
							"name": "sender",
							"type": "address"
						},
						{
							"internalType": "uint256",
							"name": "balance",
							"type": "uint256"
						},
						{
							"internalType": "uint256",
							"name": "needed",
							"type": "uint256"
						}
					],
					"name": "ERC20InsufficientBalance",
					"type": "error"
				},
				{
					"inputs": [
						{
							"internalType": "address",
							"name": "approver",
							"type": "address"
						}
					],
					"name": "ERC20InvalidApprover",
					"type": "error"
				},
				{
					"inputs": [
						{
							"internalType": "address",
							"name": "receiver",
							"type": "address"
						}
					],
					"name": "ERC20InvalidReceiver",
					"type": "error"
				},
				{
					"inputs": [
						{
							"internalType": "address",
							"name": "sender",
							"type": "address"
						}
					],
					"name": "ERC20InvalidSender",
					"type": "error"
				},
				{
					"inputs": [
						{
							"internalType": "address",
							"name": "spender",
							"type": "address"
						}
					],
					"name": "ERC20InvalidSpender",
					"type": "error"
				},
				{
					"inputs": [
						{
							"internalType": "address",
							"name": "owner",
							"type": "address"
						}
					],
					"name": "OwnableInvalidOwner",
					"type": "error"
				},
				{
					"inputs": [
						{
							"internalType": "address",
							"name": "account",
							"type": "address"
						}
					],
					"name": "OwnableUnauthorizedAccount",
					"type": "error"
				},
				{
					"anonymous": false,
					"inputs": [
						{
							"indexed": true,
							"internalType": "address",
							"name": "owner",
							"type": "address"
						},
						{
							"indexed": true,
							"internalType": "address",
							"name": "spender",
							"type": "address"
						},
						{
							"indexed": false,
							"internalType": "uint256",
							"name": "value",
							"type": "uint256"
						}
					],
					"name": "Approval",
					"type": "event"
				},
				{
					"anonymous": false,
					"inputs": [
						{
							"indexed": true,
							"internalType": "address",
							"name": "previousOwner",
							"type": "address"
						},
						{
							"indexed": true,
							"internalType": "address",
							"name": "newOwner",
							"type": "address"
						}
					],
					"name": "OwnershipTransferred",
					"type": "event"
				},
				{
					"anonymous": false,
					"inputs": [
						{
							"indexed": true,
							"internalType": "address",
							"name": "from",
							"type": "address"
						},
						{
							"indexed": true,
							"internalType": "address",
							"name": "to",
							"type": "address"
						},
						{
							"indexed": false,
							"internalType": "uint256",
							"name": "value",
							"type": "uint256"
						}
					],
					"name": "Transfer",
					"type": "event"
				},
				{
					"anonymous": false,
					"inputs": [
						{
							"indexed": true,
							"internalType": "address",
							"name": "to",
							"type": "address"
						},
						{
							"indexed": false,
							"internalType": "uint256",
							"name": "amount",
							"type": "uint256"
						}
					],
					"name": "VestedTokensReleased",
					"type": "event"
				},
				{
					"anonymous": false,
					"inputs": [
						{
							"indexed": false,
							"internalType": "uint256",
							"name": "totalAmount",
							"type": "uint256"
						},
						{
							"indexed": false,
							"internalType": "uint256",
							"name": "startTime",
							"type": "uint256"
						},
						{
							"indexed": false,
							"internalType": "uint256",
							"name": "duration",
							"type": "uint256"
						}
					],
					"name": "VestingScheduleCreated",
					"type": "event"
				},
				{
					"inputs": [
						{
							"internalType": "address",
							"name": "owner",
							"type": "address"
						},
						{
							"internalType": "address",
							"name": "spender",
							"type": "address"
						}
					],
					"name": "allowance",
					"outputs": [
						{
							"internalType": "uint256",
							"name": "",
							"type": "uint256"
						}
					],
					"stateMutability": "view",
					"type": "function"
				},
				{
					"inputs": [
						{
							"internalType": "address",
							"name": "spender",
							"type": "address"
						},
						{
							"internalType": "uint256",
							"name": "value",
							"type": "uint256"
						}
					],
					"name": "approve",
					"outputs": [
						{
							"internalType": "bool",
							"name": "",
							"type": "bool"
						}
					],
					"stateMutability": "nonpayable",
					"type": "function"
				},
				{
					"inputs": [
						{
							"internalType": "address",
							"name": "account",
							"type": "address"
						}
					],
					"name": "balanceOf",
					"outputs": [
						{
							"internalType": "uint256",
							"name": "",
							"type": "uint256"
						}
					],
					"stateMutability": "view",
					"type": "function"
				},
				{
					"inputs": [
						{
							"internalType": "uint256",
							"name": "value",
							"type": "uint256"
						}
					],
					"name": "burn",
					"outputs": [],
					"stateMutability": "nonpayable",
					"type": "function"
				},
				{
					"inputs": [
						{
							"internalType": "address",
							"name": "account",
							"type": "address"
						},
						{
							"internalType": "uint256",
							"name": "value",
							"type": "uint256"
						}
					],
					"name": "burnFrom",
					"outputs": [],
					"stateMutability": "nonpayable",
					"type": "function"
				},
				{
					"inputs": [],
					"name": "currentlyVested",
					"outputs": [
						{
							"internalType": "uint256",
							"name": "",
							"type": "uint256"
						}
					],
					"stateMutability": "view",
					"type": "function"
				},
				{
					"inputs": [],
					"name": "decimals",
					"outputs": [
						{
							"internalType": "uint8",
							"name": "",
							"type": "uint8"
						}
					],
					"stateMutability": "view",
					"type": "function"
				},
				{
					"inputs": [],
					"name": "name",
					"outputs": [
						{
							"internalType": "string",
							"name": "",
							"type": "string"
						}
					],
					"stateMutability": "view",
					"type": "function"
				},
				{
					"inputs": [],
					"name": "owner",
					"outputs": [
						{
							"internalType": "address",
							"name": "",
							"type": "address"
						}
					],
					"stateMutability": "view",
					"type": "function"
				},
				{
					"inputs": [],
					"name": "releaseVestedTokens",
					"outputs": [],
					"stateMutability": "nonpayable",
					"type": "function"
				},
				{
					"inputs": [],
					"name": "renounceOwnership",
					"outputs": [],
					"stateMutability": "nonpayable",
					"type": "function"
				},
				{
					"inputs": [],
					"name": "symbol",
					"outputs": [
						{
							"internalType": "string",
							"name": "",
							"type": "string"
						}
					],
					"stateMutability": "view",
					"type": "function"
				},
				{
					"inputs": [],
					"name": "totalSupply",
					"outputs": [
						{
							"internalType": "uint256",
							"name": "",
							"type": "uint256"
						}
					],
					"stateMutability": "view",
					"type": "function"
				},
				{
					"inputs": [],
					"name": "totalVestedReleased",
					"outputs": [
						{
							"internalType": "uint256",
							"name": "",
							"type": "uint256"
						}
					],
					"stateMutability": "view",
					"type": "function"
				},
				{
					"inputs": [],
					"name": "totalVestedSupply",
					"outputs": [
						{
							"internalType": "uint256",
							"name": "",
							"type": "uint256"
						}
					],
					"stateMutability": "view",
					"type": "function"
				},
				{
					"inputs": [
						{
							"internalType": "address",
							"name": "to",
							"type": "address"
						},
						{
							"internalType": "uint256",
							"name": "value",
							"type": "uint256"
						}
					],
					"name": "transfer",
					"outputs": [
						{
							"internalType": "bool",
							"name": "",
							"type": "bool"
						}
					],
					"stateMutability": "nonpayable",
					"type": "function"
				},
				{
					"inputs": [
						{
							"internalType": "address",
							"name": "from",
							"type": "address"
						},
						{
							"internalType": "address",
							"name": "to",
							"type": "address"
						},
						{
							"internalType": "uint256",
							"name": "value",
							"type": "uint256"
						}
					],
					"name": "transferFrom",
					"outputs": [
						{
							"internalType": "bool",
							"name": "",
							"type": "bool"
						}
					],
					"stateMutability": "nonpayable",
					"type": "function"
				},
				{
					"inputs": [
						{
							"internalType": "address",
							"name": "newOwner",
							"type": "address"
						}
					],
					"name": "transferOwnership",
					"outputs": [],
					"stateMutability": "nonpayable",
					"type": "function"
				},
				{
					"inputs": [],
					"name": "vestingDuration",
					"outputs": [
						{
							"internalType": "uint256",
							"name": "",
							"type": "uint256"
						}
					],
					"stateMutability": "view",
					"type": "function"
				},
				{
					"inputs": [],
					"name": "vestingStartTime",
					"outputs": [
						{
							"internalType": "uint256",
							"name": "",
							"type": "uint256"
						}
					],
					"stateMutability": "view",
					"type": "function"
				}
			],
			"devdoc": {
				"errors": {
					"ERC20InsufficientAllowance(address,uint256,uint256)": [
						{
							"details": "Indicates a failure with the `spender`’s `allowance`. Used in transfers.",
							"params": {
								"allowance": "Amount of tokens a `spender` is allowed to operate with.",
								"needed": "Minimum amount required to perform a transfer.",
								"spender": "Address that may be allowed to operate on tokens without being their owner."
							}
						}
					],
					"ERC20InsufficientBalance(address,uint256,uint256)": [
						{
							"details": "Indicates an error related to the current `balance` of a `sender`. Used in transfers.",
							"params": {
								"balance": "Current balance for the interacting account.",
								"needed": "Minimum amount required to perform a transfer.",
								"sender": "Address whose tokens are being transferred."
							}
						}
					],
					"ERC20InvalidApprover(address)": [
						{
							"details": "Indicates a failure with the `approver` of a token to be approved. Used in approvals.",
							"params": {
								"approver": "Address initiating an approval operation."
							}
						}
					],
					"ERC20InvalidReceiver(address)": [
						{
							"details": "Indicates a failure with the token `receiver`. Used in transfers.",
							"params": {
								"receiver": "Address to which tokens are being transferred."
							}
						}
					],
					"ERC20InvalidSender(address)": [
						{
							"details": "Indicates a failure with the token `sender`. Used in transfers.",
							"params": {
								"sender": "Address whose tokens are being transferred."
							}
						}
					],
					"ERC20InvalidSpender(address)": [
						{
							"details": "Indicates a failure with the `spender` to be approved. Used in approvals.",
							"params": {
								"spender": "Address that may be allowed to operate on tokens without being their owner."
							}
						}
					],
					"OwnableInvalidOwner(address)": [
						{
							"details": "The owner is not a valid owner account. (eg. `address(0)`)"
						}
					],
					"OwnableUnauthorizedAccount(address)": [
						{
							"details": "The caller account is not authorized to perform an operation."
						}
					]
				},
				"events": {
					"Approval(address,address,uint256)": {
						"details": "Emitted when the allowance of a `spender` for an `owner` is set by a call to {approve}. `value` is the new allowance."
					},
					"Transfer(address,address,uint256)": {
						"details": "Emitted when `value` tokens are moved from one account (`from`) to another (`to`). Note that `value` may be zero."
					}
				},
				"kind": "dev",
				"methods": {
					"allowance(address,address)": {
						"details": "See {IERC20-allowance}."
					},
					"approve(address,uint256)": {
						"details": "See {IERC20-approve}. NOTE: If `value` is the maximum `uint256`, the allowance is not updated on `transferFrom`. This is semantically equivalent to an infinite approval. Requirements: - `spender` cannot be the zero address."
					},
					"balanceOf(address)": {
						"details": "See {IERC20-balanceOf}."
					},
					"burn(uint256)": {
						"details": "Destroys a `value` amount of tokens from the caller. See {ERC20-_burn}."
					},
					"burnFrom(address,uint256)": {
						"details": "Destroys a `value` amount of tokens from `account`, deducting from the caller's allowance. See {ERC20-_burn} and {ERC20-allowance}. Requirements: - the caller must have allowance for ``accounts``'s tokens of at least `value`."
					},
					"decimals()": {
						"details": "Returns the number of decimals used to get its user representation. For example, if `decimals` equals `2`, a balance of `505` tokens should be displayed to a user as `5.05` (`505 / 10 ** 2`). Tokens usually opt for a value of 18, imitating the relationship between Ether and Wei. This is the default value returned by this function, unless it's overridden. NOTE: This information is only used for _display_ purposes: it in no way affects any of the arithmetic of the contract, including {IERC20-balanceOf} and {IERC20-transfer}."
					},
					"name()": {
						"details": "Returns the name of the token."
					},
					"owner()": {
						"details": "Returns the address of the current owner."
					},
					"renounceOwnership()": {
						"details": "Leaves the contract without owner. It will not be possible to call `onlyOwner` functions. Can only be called by the current owner. NOTE: Renouncing ownership will leave the contract without an owner, thereby disabling any functionality that is only available to the owner."
					},
					"symbol()": {
						"details": "Returns the symbol of the token, usually a shorter version of the name."
					},
					"totalSupply()": {
						"details": "See {IERC20-totalSupply}."
					},
					"transfer(address,uint256)": {
						"details": "See {IERC20-transfer}. Requirements: - `to` cannot be the zero address. - the caller must have a balance of at least `value`."
					},
					"transferFrom(address,address,uint256)": {
						"details": "See {IERC20-transferFrom}. Skips emitting an {Approval} event indicating an allowance update. This is not required by the ERC. See {xref-ERC20-_approve-address-address-uint256-bool-}[_approve]. NOTE: Does not update the allowance if the current allowance is the maximum `uint256`. Requirements: - `from` and `to` cannot be the zero address. - `from` must have a balance of at least `value`. - the caller must have allowance for ``from``'s tokens of at least `value`."
					},
					"transferOwnership(address)": {
						"details": "Transfers ownership of the contract to a new account (`newOwner`). Can only be called by the current owner."
					}
				},
				"version": 1
			},
			"evm": {
				"assembly": "    /* \"contracts/BasicVestingGovernanceToken.sol\":303:2884  contract BasicVestingGovernanceToken is ERC20, ERC20Burnable, Ownable {... */\n  mstore(0x40, 0xe0)\n    /* \"contracts/BasicVestingGovernanceToken.sol\":759:1672  constructor(... */\n  callvalue\n  dup1\n  iszero\n  tag_1\n  jumpi\n  0x00\n  dup1\n  revert\ntag_1:\n  pop\n  mload(0x40)\n  sub(codesize, bytecodeSize)\n  dup1\n  bytecodeSize\n  dup4\n  codecopy\n  dup2\n  add\n  0x40\n  dup2\n  swap1\n  mstore\n  tag_2\n  swap2\n  tag_3\n  jump\t// in\ntag_2:\n    /* \"contracts/BasicVestingGovernanceToken.sol\":1014:1027  _initialOwner */\n  dup1\n    /* \"contracts/BasicVestingGovernanceToken.sol\":990:995  _name */\n  dup7\n    /* \"contracts/BasicVestingGovernanceToken.sol\":997:1004  _symbol */\n  dup7\n    /* \"@openzeppelin/contracts/token/ERC20/ERC20.sol\":1667:1672  _name */\n  0x03\n    /* \"@openzeppelin/contracts/token/ERC20/ERC20.sol\":1667:1680  _name = name_ */\n  tag_8\n    /* \"contracts/BasicVestingGovernanceToken.sol\":990:995  _name */\n  dup4\n    /* \"@openzeppelin/contracts/token/ERC20/ERC20.sol\":1667:1672  _name */\n  dup3\n    /* \"@openzeppelin/contracts/token/ERC20/ERC20.sol\":1667:1680  _name = name_ */\n  tag_9\n  jump\t// in\ntag_8:\n  pop\n    /* \"@openzeppelin/contracts/token/ERC20/ERC20.sol\":1690:1697  _symbol */\n  0x04\n    /* \"@openzeppelin/contracts/token/ERC20/ERC20.sol\":1690:1707  _symbol = symbol_ */\n  tag_10\n    /* \"@openzeppelin/contracts/token/ERC20/ERC20.sol\":1700:1707  symbol_ */\n  dup3\n    /* \"@openzeppelin/contracts/token/ERC20/ERC20.sol\":1690:1697  _symbol */\n  dup3\n    /* \"@openzeppelin/contracts/token/ERC20/ERC20.sol\":1690:1707  _symbol = symbol_ */\n  tag_9\n  jump\t// in\ntag_10:\n  pop\n  pop\n  pop\n  sub(shl(0xa0, 0x01), 0x01)\n    /* \"@openzeppelin/contracts/access/Ownable.sol\":1273:1299  initialOwner == address(0) */\n  dup2\n  and\n    /* \"@openzeppelin/contracts/access/Ownable.sol\":1269:1364  if (initialOwner == address(0)) {... */\n  tag_12\n  jumpi\n    /* \"@openzeppelin/contracts/access/Ownable.sol\":1322:1353  OwnableInvalidOwner(address(0)) */\n  mload(0x40)\n  shl(0xe0, 0x1e4fbdf7)\n  dup2\n  mstore\n    /* \"@openzeppelin/contracts/access/Ownable.sol\":1350:1351  0 */\n  0x00\n    /* \"@openzeppelin/contracts/access/Ownable.sol\":1322:1353  OwnableInvalidOwner(address(0)) */\n  0x04\n  dup3\n  add\n    /* \"#utility.yul\":4602:4653   */\n  mstore\n    /* \"#utility.yul\":4575:4593   */\n  0x24\n  add\n    /* \"@openzeppelin/contracts/access/Ownable.sol\":1322:1353  OwnableInvalidOwner(address(0)) */\ntag_13:\n  mload(0x40)\n  dup1\n  swap2\n  sub\n  swap1\n  revert\n    /* \"@openzeppelin/contracts/access/Ownable.sol\":1269:1364  if (initialOwner == address(0)) {... */\ntag_12:\n    /* \"@openzeppelin/contracts/access/Ownable.sol\":1373:1405  _transferOwnership(initialOwner) */\n  tag_15\n    /* \"@openzeppelin/contracts/access/Ownable.sol\":1392:1404  initialOwner */\n  dup2\n    /* \"@openzeppelin/contracts/access/Ownable.sol\":1373:1391  _transferOwnership */\n  tag_16\n    /* \"@openzeppelin/contracts/access/Ownable.sol\":1373:1405  _transferOwnership(initialOwner) */\n  jump\t// in\ntag_15:\n  pop\n  sub(shl(0xa0, 0x01), 0x01)\n    /* \"contracts/BasicVestingGovernanceToken.sol\":1048:1075  _initialOwner != address(0) */\n  dup2\n  and\n    /* \"contracts/BasicVestingGovernanceToken.sol\":1040:1122  require(_initialOwner != address(0), \"Ownable: initial owner is the zero address\") */\n  tag_18\n  jumpi\n  mload(0x40)\n  shl(0xe5, 0x461bcd)\n  dup2\n  mstore\n    /* \"#utility.yul\":4866:4868   */\n  0x20\n    /* \"contracts/BasicVestingGovernanceToken.sol\":1040:1122  require(_initialOwner != address(0), \"Ownable: initial owner is the zero address\") */\n  0x04\n  dup3\n  add\n    /* \"#utility.yul\":4848:4869   */\n  mstore\n    /* \"#utility.yul\":4905:4907   */\n  0x2a\n    /* \"#utility.yul\":4885:4903   */\n  0x24\n  dup3\n  add\n    /* \"#utility.yul\":4878:4908   */\n  mstore\n    /* \"#utility.yul\":4944:4978   */\n  0x4f776e61626c653a20696e697469616c206f776e657220697320746865207a65\n    /* \"#utility.yul\":4924:4942   */\n  0x44\n  dup3\n  add\n    /* \"#utility.yul\":4917:4979   */\n  mstore\n  shl(0xb0, 0x726f2061646472657373)\n    /* \"#utility.yul\":4995:5013   */\n  0x64\n  dup3\n  add\n    /* \"#utility.yul\":4988:5028   */\n  mstore\n    /* \"#utility.yul\":5045:5064   */\n  0x84\n  add\n    /* \"contracts/BasicVestingGovernanceToken.sol\":1040:1122  require(_initialOwner != address(0), \"Ownable: initial owner is the zero address\") */\n  tag_13\n    /* \"#utility.yul\":4664:5070   */\n  jump\n    /* \"contracts/BasicVestingGovernanceToken.sol\":1040:1122  require(_initialOwner != address(0), \"Ownable: initial owner is the zero address\") */\ntag_18:\n    /* \"contracts/BasicVestingGovernanceToken.sol\":1168:1169  0 */\n  0x00\n    /* \"contracts/BasicVestingGovernanceToken.sol\":1140:1165  _vestingDurationInSeconds */\n  dup3\n    /* \"contracts/BasicVestingGovernanceToken.sol\":1140:1169  _vestingDurationInSeconds > 0 */\n  gt\n    /* \"contracts/BasicVestingGovernanceToken.sol\":1132:1217  require(_vestingDurationInSeconds > 0, \"Vesting: duration must be greater than zero\") */\n  tag_21\n  jumpi\n  mload(0x40)\n  shl(0xe5, 0x461bcd)\n  dup2\n  mstore\n    /* \"#utility.yul\":5277:5279   */\n  0x20\n    /* \"contracts/BasicVestingGovernanceToken.sol\":1132:1217  require(_vestingDurationInSeconds > 0, \"Vesting: duration must be greater than zero\") */\n  0x04\n  dup3\n  add\n    /* \"#utility.yul\":5259:5280   */\n  mstore\n    /* \"#utility.yul\":5316:5318   */\n  0x2b\n    /* \"#utility.yul\":5296:5314   */\n  0x24\n  dup3\n  add\n    /* \"#utility.yul\":5289:5319   */\n  mstore\n    /* \"#utility.yul\":5355:5389   */\n  0x56657374696e673a206475726174696f6e206d75737420626520677265617465\n    /* \"#utility.yul\":5335:5353   */\n  0x44\n  dup3\n  add\n    /* \"#utility.yul\":5328:5390   */\n  mstore\n  shl(0xa8, 0x72207468616e207a65726f)\n    /* \"#utility.yul\":5406:5424   */\n  0x64\n  dup3\n  add\n    /* \"#utility.yul\":5399:5440   */\n  mstore\n    /* \"#utility.yul\":5457:5476   */\n  0x84\n  add\n    /* \"contracts/BasicVestingGovernanceToken.sol\":1132:1217  require(_vestingDurationInSeconds > 0, \"Vesting: duration must be greater than zero\") */\n  tag_13\n    /* \"#utility.yul\":5075:5482   */\n  jump\n    /* \"contracts/BasicVestingGovernanceToken.sol\":1132:1217  require(_vestingDurationInSeconds > 0, \"Vesting: duration must be greater than zero\") */\ntag_21:\n    /* \"contracts/BasicVestingGovernanceToken.sol\":1247:1262  block.timestamp */\n  timestamp\n    /* \"contracts/BasicVestingGovernanceToken.sol\":1228:1262  vestingStartTime = block.timestamp */\n  0x80\n  mstore\n    /* \"contracts/BasicVestingGovernanceToken.sol\":1272:1315  vestingDuration = _vestingDurationInSeconds */\n  0xa0\n  dup3\n  swap1\n  mstore\n    /* \"contracts/BasicVestingGovernanceToken.sol\":1325:1363  totalVestedSupply = _totalVestedSupply */\n  0xc0\n  dup4\n  swap1\n  mstore\n    /* \"contracts/BasicVestingGovernanceToken.sol\":1378:1401  _initialOwnerSupply > 0 */\n  dup4\n  iszero\n    /* \"contracts/BasicVestingGovernanceToken.sol\":1374:1469  if (_initialOwnerSupply > 0) {... */\n  tag_25\n  jumpi\n    /* \"contracts/BasicVestingGovernanceToken.sol\":1417:1458  _mint(_initialOwner, _initialOwnerSupply) */\n  tag_25\n    /* \"contracts/BasicVestingGovernanceToken.sol\":1423:1436  _initialOwner */\n  dup2\n    /* \"contracts/BasicVestingGovernanceToken.sol\":1438:1457  _initialOwnerSupply */\n  dup6\n    /* \"contracts/BasicVestingGovernanceToken.sol\":1417:1422  _mint */\n  tag_26\n    /* \"contracts/BasicVestingGovernanceToken.sol\":1417:1458  _mint(_initialOwner, _initialOwnerSupply) */\n  jump\t// in\ntag_25:\n    /* \"contracts/BasicVestingGovernanceToken.sol\":1483:1505  _totalVestedSupply > 0 */\n  dup3\n  iszero\n    /* \"contracts/BasicVestingGovernanceToken.sol\":1479:1572  if (_totalVestedSupply > 0) {... */\n  tag_28\n  jumpi\n    /* \"contracts/BasicVestingGovernanceToken.sol\":1521:1561  _mint(address(this), _totalVestedSupply) */\n  tag_28\n    /* \"contracts/BasicVestingGovernanceToken.sol\":1535:1539  this */\n  address\n    /* \"contracts/BasicVestingGovernanceToken.sol\":1542:1560  _totalVestedSupply */\n  dup5\n    /* \"contracts/BasicVestingGovernanceToken.sol\":1521:1526  _mint */\n  tag_26\n    /* \"contracts/BasicVestingGovernanceToken.sol\":1521:1561  _mint(address(this), _totalVestedSupply) */\n  jump\t// in\ntag_28:\n    /* \"contracts/BasicVestingGovernanceToken.sol\":1630:1646  vestingStartTime */\n  mload(0x80)\n    /* \"contracts/BasicVestingGovernanceToken.sol\":1648:1663  vestingDuration */\n  mload(0xa0)\n    /* \"contracts/BasicVestingGovernanceToken.sol\":1587:1664  VestingScheduleCreated(_totalVestedSupply, vestingStartTime, vestingDuration) */\n  0x40\n  dup1\n  mload\n    /* \"#utility.yul\":5689:5714   */\n  dup7\n  dup2\n  mstore\n    /* \"#utility.yul\":5745:5747   */\n  0x20\n    /* \"#utility.yul\":5730:5748   */\n  dup2\n  add\n    /* \"#utility.yul\":5723:5757   */\n  swap4\n  swap1\n  swap4\n  mstore\n    /* \"#utility.yul\":5773:5791   */\n  dup3\n  add\n    /* \"#utility.yul\":5766:5800   */\n  mstore\n    /* \"contracts/BasicVestingGovernanceToken.sol\":1587:1664  VestingScheduleCreated(_totalVestedSupply, vestingStartTime, vestingDuration) */\n  0xe8fbcdfc2a707362664a0cdec5038e3d2a2183f4d4d3747e56bfc200eda13756\n  swap1\n    /* \"#utility.yul\":5677:5679   */\n  0x60\n    /* \"#utility.yul\":5662:5680   */\n  add\n    /* \"contracts/BasicVestingGovernanceToken.sol\":1587:1664  VestingScheduleCreated(_totalVestedSupply, vestingStartTime, vestingDuration) */\n  mload(0x40)\n  dup1\n  swap2\n  sub\n  swap1\n  log1\n    /* \"contracts/BasicVestingGovernanceToken.sol\":759:1672  constructor(... */\n  pop\n  pop\n  pop\n  pop\n  pop\n  pop\n    /* \"contracts/BasicVestingGovernanceToken.sol\":303:2884  contract BasicVestingGovernanceToken is ERC20, ERC20Burnable, Ownable {... */\n  jump(tag_68)\n    /* \"@openzeppelin/contracts/access/Ownable.sol\":2912:3099  function _transferOwnership(address newOwner) internal virtual {... */\ntag_16:\n    /* \"@openzeppelin/contracts/access/Ownable.sol\":3004:3010  _owner */\n  0x05\n  dup1\n  sload\n  sub(shl(0xa0, 0x01), 0x01)\n    /* \"@openzeppelin/contracts/access/Ownable.sol\":3020:3037  _owner = newOwner */\n  dup4\n  dup2\n  and\n  not(sub(shl(0xa0, 0x01), 0x01))\n  dup4\n  and\n  dup2\n  or\n  swap1\n  swap4\n  sstore\n    /* \"@openzeppelin/contracts/access/Ownable.sol\":3052:3092  OwnershipTransferred(oldOwner, newOwner) */\n  mload(0x40)\n    /* \"@openzeppelin/contracts/access/Ownable.sol\":3004:3010  _owner */\n  swap2\n  and\n  swap2\n    /* \"@openzeppelin/contracts/access/Ownable.sol\":3020:3037  _owner = newOwner */\n  swap1\n    /* \"@openzeppelin/contracts/access/Ownable.sol\":3004:3010  _owner */\n  dup3\n  swap1\n    /* \"@openzeppelin/contracts/access/Ownable.sol\":3052:3092  OwnershipTransferred(oldOwner, newOwner) */\n  0x8be0079c531659141344cd1fd0a4f28419497f9722a3daafe3b4186f6b6457e0\n  swap1\n    /* \"@openzeppelin/contracts/access/Ownable.sol\":2985:3001  address oldOwner */\n  0x00\n  swap1\n    /* \"@openzeppelin/contracts/access/Ownable.sol\":3052:3092  OwnershipTransferred(oldOwner, newOwner) */\n  log3\n    /* \"@openzeppelin/contracts/access/Ownable.sol\":2975:3099  {... */\n  pop\n    /* \"@openzeppelin/contracts/access/Ownable.sol\":2912:3099  function _transferOwnership(address newOwner) internal virtual {... */\n  pop\n  jump\t// out\n    /* \"@openzeppelin/contracts/token/ERC20/ERC20.sol\":7458:7666  function _mint(address account, uint256 value) internal {... */\ntag_26:\n  sub(shl(0xa0, 0x01), 0x01)\n    /* \"@openzeppelin/contracts/token/ERC20/ERC20.sol\":7528:7549  account == address(0) */\n  dup3\n  and\n    /* \"@openzeppelin/contracts/token/ERC20/ERC20.sol\":7524:7615  if (account == address(0)) {... */\n  tag_34\n  jumpi\n    /* \"@openzeppelin/contracts/token/ERC20/ERC20.sol\":7572:7604  ERC20InvalidReceiver(address(0)) */\n  mload(0x40)\n  shl(0xe0, 0xec442f05)\n  dup2\n  mstore\n    /* \"@openzeppelin/contracts/token/ERC20/ERC20.sol\":7601:7602  0 */\n  0x00\n    /* \"@openzeppelin/contracts/token/ERC20/ERC20.sol\":7572:7604  ERC20InvalidReceiver(address(0)) */\n  0x04\n  dup3\n  add\n    /* \"#utility.yul\":4602:4653   */\n  mstore\n    /* \"#utility.yul\":4575:4593   */\n  0x24\n  add\n    /* \"@openzeppelin/contracts/token/ERC20/ERC20.sol\":7572:7604  ERC20InvalidReceiver(address(0)) */\n  tag_13\n    /* \"#utility.yul\":4456:4659   */\n  jump\n    /* \"@openzeppelin/contracts/token/ERC20/ERC20.sol\":7524:7615  if (account == address(0)) {... */\ntag_34:\n    /* \"@openzeppelin/contracts/token/ERC20/ERC20.sol\":7624:7659  _update(address(0), account, value) */\n  tag_36\n    /* \"@openzeppelin/contracts/token/ERC20/ERC20.sol\":7640:7641  0 */\n  0x00\n    /* \"@openzeppelin/contracts/token/ERC20/ERC20.sol\":7644:7651  account */\n  dup4\n    /* \"@openzeppelin/contracts/token/ERC20/ERC20.sol\":7653:7658  value */\n  dup4\n    /* \"@openzeppelin/contracts/token/ERC20/ERC20.sol\":7624:7631  _update */\n  tag_37\n    /* \"@openzeppelin/contracts/token/ERC20/ERC20.sol\":7624:7659  _update(address(0), account, value) */\n  jump\t// in\ntag_36:\n    /* \"@openzeppelin/contracts/token/ERC20/ERC20.sol\":7458:7666  function _mint(address account, uint256 value) internal {... */\n  pop\n  pop\n  jump\t// out\n    /* \"contracts/BasicVestingGovernanceToken.sol\":2590:2880  function _update(address from, address to, uint256 amount) internal virtual override{... */\ntag_37:\n    /* \"contracts/BasicVestingGovernanceToken.sol\":2685:2716  super._update(from, to, amount) */\n  tag_39\n    /* \"contracts/BasicVestingGovernanceToken.sol\":2699:2703  from */\n  dup4\n    /* \"contracts/BasicVestingGovernanceToken.sol\":2705:2707  to */\n  dup4\n    /* \"contracts/BasicVestingGovernanceToken.sol\":2709:2715  amount */\n  dup4\n    /* \"contracts/BasicVestingGovernanceToken.sol\":2685:2698  super._update */\n  tag_40\n    /* \"contracts/BasicVestingGovernanceToken.sol\":2685:2716  super._update(from, to, amount) */\n  jump\t// in\ntag_39:\n    /* \"contracts/BasicVestingGovernanceToken.sol\":2747:2751  this */\n  address\n  sub(shl(0xa0, 0x01), 0x01)\n    /* \"contracts/BasicVestingGovernanceToken.sol\":2731:2752  from == address(this) */\n  dup5\n  and\n  sub\n    /* \"contracts/BasicVestingGovernanceToken.sol\":2727:2873  if (from == address(this)) {... */\n  tag_46\n  jumpi\n    /* \"@openzeppelin/contracts/access/Ownable.sol\":1710:1716  _owner */\n  sload(0x05)\n  sub(shl(0xa0, 0x01), 0x01)\n    /* \"contracts/BasicVestingGovernanceToken.sol\":2776:2789  to == owner() */\n  dup4\n  dup2\n  and\n    /* \"@openzeppelin/contracts/access/Ownable.sol\":1710:1716  _owner */\n  swap2\n  and\n    /* \"contracts/BasicVestingGovernanceToken.sol\":2776:2789  to == owner() */\n  eq\n    /* \"contracts/BasicVestingGovernanceToken.sol\":2776:2814  to == owner() && msg.sender == owner() */\n  dup1\n  iszero\n  tag_44\n  jumpi\n  pop\n    /* \"@openzeppelin/contracts/access/Ownable.sol\":1710:1716  _owner */\n  and(sub(shl(0xa0, 0x01), 0x01), sload(0x05))\n    /* \"contracts/BasicVestingGovernanceToken.sol\":2793:2803  msg.sender */\n  caller\n    /* \"contracts/BasicVestingGovernanceToken.sol\":2793:2814  msg.sender == owner() */\n  eq\n    /* \"contracts/BasicVestingGovernanceToken.sol\":2776:2814  to == owner() && msg.sender == owner() */\ntag_44:\n    /* \"contracts/BasicVestingGovernanceToken.sol\":2768:2862  require(to == owner() && msg.sender == owner(), \"ERC20: cannot transfer locked vested tokens\") */\n  tag_46\n  jumpi\n  mload(0x40)\n  shl(0xe5, 0x461bcd)\n  dup2\n  mstore\n    /* \"#utility.yul\":6013:6015   */\n  0x20\n    /* \"contracts/BasicVestingGovernanceToken.sol\":2768:2862  require(to == owner() && msg.sender == owner(), \"ERC20: cannot transfer locked vested tokens\") */\n  0x04\n  dup3\n  add\n    /* \"#utility.yul\":5995:6016   */\n  mstore\n    /* \"#utility.yul\":6052:6054   */\n  0x2b\n    /* \"#utility.yul\":6032:6050   */\n  0x24\n  dup3\n  add\n    /* \"#utility.yul\":6025:6055   */\n  mstore\n    /* \"#utility.yul\":6091:6125   */\n  0x45524332303a2063616e6e6f74207472616e73666572206c6f636b6564207665\n    /* \"#utility.yul\":6071:6089   */\n  0x44\n  dup3\n  add\n    /* \"#utility.yul\":6064:6126   */\n  mstore\n  shl(0xa8, 0x7374656420746f6b656e73)\n    /* \"#utility.yul\":6142:6160   */\n  0x64\n  dup3\n  add\n    /* \"#utility.yul\":6135:6176   */\n  mstore\n    /* \"#utility.yul\":6193:6212   */\n  0x84\n  add\n    /* \"contracts/BasicVestingGovernanceToken.sol\":2768:2862  require(to == owner() && msg.sender == owner(), \"ERC20: cannot transfer locked vested tokens\") */\n  tag_13\n    /* \"#utility.yul\":5811:6218   */\n  jump\n    /* \"contracts/BasicVestingGovernanceToken.sol\":2768:2862  require(to == owner() && msg.sender == owner(), \"ERC20: cannot transfer locked vested tokens\") */\ntag_46:\n    /* \"contracts/BasicVestingGovernanceToken.sol\":2590:2880  function _update(address from, address to, uint256 amount) internal virtual override{... */\n  pop\n  pop\n  pop\n  jump\t// out\n    /* \"@openzeppelin/contracts/token/ERC20/ERC20.sol\":6008:7115  function _update(address from, address to, uint256 value) internal virtual {... */\ntag_40:\n  sub(shl(0xa0, 0x01), 0x01)\n    /* \"@openzeppelin/contracts/token/ERC20/ERC20.sol\":6097:6115  from == address(0) */\n  dup4\n  and\n    /* \"@openzeppelin/contracts/token/ERC20/ERC20.sol\":6093:6633  if (from == address(0)) {... */\n  tag_50\n  jumpi\n    /* \"@openzeppelin/contracts/token/ERC20/ERC20.sol\":6249:6254  value */\n  dup1\n    /* \"@openzeppelin/contracts/token/ERC20/ERC20.sol\":6233:6245  _totalSupply */\n  0x02\n  0x00\n    /* \"@openzeppelin/contracts/token/ERC20/ERC20.sol\":6233:6254  _totalSupply += value */\n  dup3\n  dup3\n  sload\n  tag_51\n  swap2\n  swap1\n  tag_52\n  jump\t// in\ntag_51:\n  swap1\n  swap2\n  sstore\n  pop\n    /* \"@openzeppelin/contracts/token/ERC20/ERC20.sol\":6093:6633  if (from == address(0)) {... */\n  tag_53\n  swap1\n  pop\n  jump\ntag_50:\n  sub(shl(0xa0, 0x01), 0x01)\n    /* \"@openzeppelin/contracts/token/ERC20/ERC20.sol\":6307:6322  _balances[from] */\n  dup4\n  and\n    /* \"@openzeppelin/contracts/token/ERC20/ERC20.sol\":6285:6304  uint256 fromBalance */\n  0x00\n    /* \"@openzeppelin/contracts/token/ERC20/ERC20.sol\":6307:6322  _balances[from] */\n  swap1\n  dup2\n  mstore\n  0x20\n  dup2\n  swap1\n  mstore\n  0x40\n  swap1\n  keccak256\n  sload\n    /* \"@openzeppelin/contracts/token/ERC20/ERC20.sol\":6340:6359  fromBalance < value */\n  dup2\n  dup2\n  lt\n    /* \"@openzeppelin/contracts/token/ERC20/ERC20.sol\":6336:6451  if (fromBalance < value) {... */\n  iszero\n  tag_54\n  jumpi\n    /* \"@openzeppelin/contracts/token/ERC20/ERC20.sol\":6386:6436  ERC20InsufficientBalance(from, fromBalance, value) */\n  mload(0x40)\n  shl(0xe2, 0x391434e3)\n  dup2\n  mstore\n  sub(shl(0xa0, 0x01), 0x01)\n    /* \"#utility.yul\":6670:6702   */\n  dup6\n  and\n    /* \"@openzeppelin/contracts/token/ERC20/ERC20.sol\":6386:6436  ERC20InsufficientBalance(from, fromBalance, value) */\n  0x04\n  dup3\n  add\n    /* \"#utility.yul\":6652:6703   */\n  mstore\n    /* \"#utility.yul\":6719:6737   */\n  0x24\n  dup2\n  add\n    /* \"#utility.yul\":6712:6746   */\n  dup3\n  swap1\n  mstore\n    /* \"#utility.yul\":6762:6780   */\n  0x44\n  dup2\n  add\n    /* \"#utility.yul\":6755:6789   */\n  dup4\n  swap1\n  mstore\n    /* \"#utility.yul\":6625:6643   */\n  0x64\n  add\n    /* \"@openzeppelin/contracts/token/ERC20/ERC20.sol\":6386:6436  ERC20InsufficientBalance(from, fromBalance, value) */\n  tag_13\n    /* \"#utility.yul\":6450:6795   */\n  jump\n    /* \"@openzeppelin/contracts/token/ERC20/ERC20.sol\":6336:6451  if (fromBalance < value) {... */\ntag_54:\n  sub(shl(0xa0, 0x01), 0x01)\n    /* \"@openzeppelin/contracts/token/ERC20/ERC20.sol\":6571:6586  _balances[from] */\n  dup5\n  and\n    /* \"@openzeppelin/contracts/token/ERC20/ERC20.sol\":6571:6580  _balances */\n  0x00\n    /* \"@openzeppelin/contracts/token/ERC20/ERC20.sol\":6571:6586  _balances[from] */\n  swap1\n  dup2\n  mstore\n  0x20\n  dup2\n  swap1\n  mstore\n  0x40\n  swap1\n  keccak256\n    /* \"@openzeppelin/contracts/token/ERC20/ERC20.sol\":6589:6608  fromBalance - value */\n  swap1\n  dup3\n  swap1\n  sub\n    /* \"@openzeppelin/contracts/token/ERC20/ERC20.sol\":6571:6608  _balances[from] = fromBalance - value */\n  swap1\n  sstore\n    /* \"@openzeppelin/contracts/token/ERC20/ERC20.sol\":6093:6633  if (from == address(0)) {... */\ntag_53:\n  sub(shl(0xa0, 0x01), 0x01)\n    /* \"@openzeppelin/contracts/token/ERC20/ERC20.sol\":6647:6663  to == address(0) */\n  dup3\n  and\n    /* \"@openzeppelin/contracts/token/ERC20/ERC20.sol\":6643:7068  if (to == address(0)) {... */\n  tag_57\n  jumpi\n    /* \"@openzeppelin/contracts/token/ERC20/ERC20.sol\":6810:6822  _totalSupply */\n  0x02\n    /* \"@openzeppelin/contracts/token/ERC20/ERC20.sol\":6810:6831  _totalSupply -= value */\n  dup1\n  sload\n  dup3\n  swap1\n  sub\n  swap1\n  sstore\n    /* \"@openzeppelin/contracts/token/ERC20/ERC20.sol\":6643:7068  if (to == address(0)) {... */\n  jump(tag_58)\ntag_57:\n  sub(shl(0xa0, 0x01), 0x01)\n    /* \"@openzeppelin/contracts/token/ERC20/ERC20.sol\":7021:7034  _balances[to] */\n  dup3\n  and\n    /* \"@openzeppelin/contracts/token/ERC20/ERC20.sol\":7021:7030  _balances */\n  0x00\n    /* \"@openzeppelin/contracts/token/ERC20/ERC20.sol\":7021:7034  _balances[to] */\n  swap1\n  dup2\n  mstore\n  0x20\n  dup2\n  swap1\n  mstore\n  0x40\n  swap1\n  keccak256\n    /* \"@openzeppelin/contracts/token/ERC20/ERC20.sol\":7021:7043  _balances[to] += value */\n  dup1\n  sload\n  dup3\n  add\n  swap1\n  sstore\n    /* \"@openzeppelin/contracts/token/ERC20/ERC20.sol\":6643:7068  if (to == address(0)) {... */\ntag_58:\n    /* \"@openzeppelin/contracts/token/ERC20/ERC20.sol\":7098:7100  to */\n  dup2\n  sub(shl(0xa0, 0x01), 0x01)\n    /* \"@openzeppelin/contracts/token/ERC20/ERC20.sol\":7083:7108  Transfer(from, to, value) */\n  and\n    /* \"@openzeppelin/contracts/token/ERC20/ERC20.sol\":7092:7096  from */\n  dup4\n  sub(shl(0xa0, 0x01), 0x01)\n    /* \"@openzeppelin/contracts/token/ERC20/ERC20.sol\":7083:7108  Transfer(from, to, value) */\n  and\n  0xddf252ad1be2c89b69c2b068fc378daa952ba7f163c4a11628f55a4df523b3ef\n    /* \"@openzeppelin/contracts/token/ERC20/ERC20.sol\":7102:7107  value */\n  dup4\n    /* \"@openzeppelin/contracts/token/ERC20/ERC20.sol\":7083:7108  Transfer(from, to, value) */\n  mload(0x40)\n  tag_59\n  swap2\n    /* \"#utility.yul\":6946:6971   */\n  dup2\n  mstore\n    /* \"#utility.yul\":6934:6936   */\n  0x20\n    /* \"#utility.yul\":6919:6937   */\n  add\n  swap1\n    /* \"#utility.yul\":6800:6977   */\n  jump\n    /* \"@openzeppelin/contracts/token/ERC20/ERC20.sol\":7083:7108  Transfer(from, to, value) */\ntag_59:\n  mload(0x40)\n  dup1\n  swap2\n  sub\n  swap1\n  log3\n    /* \"@openzeppelin/contracts/token/ERC20/ERC20.sol\":6008:7115  function _update(address from, address to, uint256 value) internal virtual {... */\n  pop\n  pop\n  pop\n  jump\t// out\n    /* \"#utility.yul\":14:141   */\ntag_62:\n    /* \"#utility.yul\":75:85   */\n  0x4e487b71\n    /* \"#utility.yul\":70:73   */\n  0xe0\n    /* \"#utility.yul\":66:86   */\n  shl\n    /* \"#utility.yul\":63:64   */\n  0x00\n    /* \"#utility.yul\":56:87   */\n  mstore\n    /* \"#utility.yul\":106:110   */\n  0x41\n    /* \"#utility.yul\":103:104   */\n  0x04\n    /* \"#utility.yul\":96:111   */\n  mstore\n    /* \"#utility.yul\":130:134   */\n  0x24\n    /* \"#utility.yul\":127:128   */\n  0x00\n    /* \"#utility.yul\":120:135   */\n  revert\n    /* \"#utility.yul\":146:869   */\ntag_63:\n    /* \"#utility.yul\":200:205   */\n  0x00\n    /* \"#utility.yul\":253:256   */\n  dup3\n    /* \"#utility.yul\":246:250   */\n  0x1f\n    /* \"#utility.yul\":238:244   */\n  dup4\n    /* \"#utility.yul\":234:251   */\n  add\n    /* \"#utility.yul\":230:257   */\n  slt\n    /* \"#utility.yul\":220:275   */\n  tag_71\n  jumpi\n    /* \"#utility.yul\":271:272   */\n  0x00\n    /* \"#utility.yul\":268:269   */\n  dup1\n    /* \"#utility.yul\":261:273   */\n  revert\n    /* \"#utility.yul\":220:275   */\ntag_71:\n    /* \"#utility.yul\":298:311   */\n  dup2\n  mload\n  sub(shl(0x40, 0x01), 0x01)\n    /* \"#utility.yul\":323:353   */\n  dup2\n  gt\n    /* \"#utility.yul\":320:376   */\n  iszero\n  tag_73\n  jumpi\n    /* \"#utility.yul\":356:374   */\n  tag_73\n  tag_62\n  jump\t// in\ntag_73:\n    /* \"#utility.yul\":405:407   */\n  0x40\n    /* \"#utility.yul\":399:408   */\n  mload\n    /* \"#utility.yul\":497:499   */\n  0x1f\n    /* \"#utility.yul\":459:476   */\n  dup3\n  add\n  not(0x1f)\n    /* \"#utility.yul\":455:486   */\n  swap1\n  dup2\n  and\n    /* \"#utility.yul\":488:490   */\n  0x3f\n    /* \"#utility.yul\":451:491   */\n  add\n    /* \"#utility.yul\":447:501   */\n  and\n    /* \"#utility.yul\":435:502   */\n  dup2\n  add\n  sub(shl(0x40, 0x01), 0x01)\n    /* \"#utility.yul\":517:551   */\n  dup2\n  gt\n    /* \"#utility.yul\":553:575   */\n  dup3\n  dup3\n  lt\n    /* \"#utility.yul\":514:576   */\n  or\n    /* \"#utility.yul\":511:599   */\n  iszero\n  tag_75\n  jumpi\n    /* \"#utility.yul\":579:597   */\n  tag_75\n  tag_62\n  jump\t// in\ntag_75:\n    /* \"#utility.yul\":615:617   */\n  0x40\n    /* \"#utility.yul\":608:630   */\n  mstore\n    /* \"#utility.yul\":639:661   */\n  dup2\n  dup2\n  mstore\n    /* \"#utility.yul\":680:699   */\n  dup4\n  dup3\n  add\n    /* \"#utility.yul\":701:705   */\n  0x20\n    /* \"#utility.yul\":676:706   */\n  add\n    /* \"#utility.yul\":673:712   */\n  dup6\n  lt\n    /* \"#utility.yul\":670:729   */\n  iszero\n  tag_76\n  jumpi\n    /* \"#utility.yul\":725:726   */\n  0x00\n    /* \"#utility.yul\":722:723   */\n  dup1\n    /* \"#utility.yul\":715:727   */\n  revert\n    /* \"#utility.yul\":670:729   */\ntag_76:\n    /* \"#utility.yul\":782:788   */\n  dup2\n    /* \"#utility.yul\":775:779   */\n  0x20\n    /* \"#utility.yul\":767:773   */\n  dup6\n    /* \"#utility.yul\":763:780   */\n  add\n    /* \"#utility.yul\":756:760   */\n  0x20\n    /* \"#utility.yul\":748:754   */\n  dup4\n    /* \"#utility.yul\":744:761   */\n  add\n    /* \"#utility.yul\":738:789   */\n  mcopy\n    /* \"#utility.yul\":837:838   */\n  0x00\n    /* \"#utility.yul\":809:828   */\n  swap2\n  dup2\n  add\n    /* \"#utility.yul\":830:834   */\n  0x20\n    /* \"#utility.yul\":805:835   */\n  add\n    /* \"#utility.yul\":798:839   */\n  swap2\n  swap1\n  swap2\n  mstore\n    /* \"#utility.yul\":813:819   */\n  swap4\n    /* \"#utility.yul\":146:869   */\n  swap3\n  pop\n  pop\n  pop\n  jump\t// out\n    /* \"#utility.yul\":874:1942   */\ntag_3:\n    /* \"#utility.yul\":1009:1015   */\n  0x00\n    /* \"#utility.yul\":1017:1023   */\n  dup1\n    /* \"#utility.yul\":1025:1031   */\n  0x00\n    /* \"#utility.yul\":1033:1039   */\n  dup1\n    /* \"#utility.yul\":1041:1047   */\n  0x00\n    /* \"#utility.yul\":1049:1055   */\n  dup1\n    /* \"#utility.yul\":1102:1105   */\n  0xc0\n    /* \"#utility.yul\":1090:1099   */\n  dup8\n    /* \"#utility.yul\":1081:1088   */\n  dup10\n    /* \"#utility.yul\":1077:1100   */\n  sub\n    /* \"#utility.yul\":1073:1106   */\n  slt\n    /* \"#utility.yul\":1070:1123   */\n  iszero\n  tag_78\n  jumpi\n    /* \"#utility.yul\":1119:1120   */\n  0x00\n    /* \"#utility.yul\":1116:1117   */\n  dup1\n    /* \"#utility.yul\":1109:1121   */\n  revert\n    /* \"#utility.yul\":1070:1123   */\ntag_78:\n    /* \"#utility.yul\":1146:1162   */\n  dup7\n  mload\n  sub(shl(0x40, 0x01), 0x01)\n    /* \"#utility.yul\":1174:1204   */\n  dup2\n  gt\n    /* \"#utility.yul\":1171:1221   */\n  iszero\n  tag_79\n  jumpi\n    /* \"#utility.yul\":1217:1218   */\n  0x00\n    /* \"#utility.yul\":1214:1215   */\n  dup1\n    /* \"#utility.yul\":1207:1219   */\n  revert\n    /* \"#utility.yul\":1171:1221   */\ntag_79:\n    /* \"#utility.yul\":1240:1301   */\n  tag_80\n    /* \"#utility.yul\":1293:1300   */\n  dup10\n    /* \"#utility.yul\":1284:1290   */\n  dup3\n    /* \"#utility.yul\":1273:1282   */\n  dup11\n    /* \"#utility.yul\":1269:1291   */\n  add\n    /* \"#utility.yul\":1240:1301   */\n  tag_63\n  jump\t// in\ntag_80:\n    /* \"#utility.yul\":1347:1349   */\n  0x20\n    /* \"#utility.yul\":1332:1350   */\n  dup10\n  add\n    /* \"#utility.yul\":1326:1351   */\n  mload\n    /* \"#utility.yul\":1230:1301   */\n  swap1\n  swap8\n  pop\n    /* \"#utility.yul\":1326:1351   */\n  swap1\n  pop\n  sub(shl(0x40, 0x01), 0x01)\n    /* \"#utility.yul\":1363:1395   */\n  dup2\n  gt\n    /* \"#utility.yul\":1360:1412   */\n  iszero\n  tag_81\n  jumpi\n    /* \"#utility.yul\":1408:1409   */\n  0x00\n    /* \"#utility.yul\":1405:1406   */\n  dup1\n    /* \"#utility.yul\":1398:1410   */\n  revert\n    /* \"#utility.yul\":1360:1412   */\ntag_81:\n    /* \"#utility.yul\":1431:1494   */\n  tag_82\n    /* \"#utility.yul\":1486:1493   */\n  dup10\n    /* \"#utility.yul\":1475:1483   */\n  dup3\n    /* \"#utility.yul\":1464:1473   */\n  dup11\n    /* \"#utility.yul\":1460:1484   */\n  add\n    /* \"#utility.yul\":1431:1494   */\n  tag_63\n  jump\t// in\ntag_82:\n    /* \"#utility.yul\":1556:1558   */\n  0x40\n    /* \"#utility.yul\":1541:1559   */\n  dup10\n  add\n    /* \"#utility.yul\":1535:1560   */\n  mload\n    /* \"#utility.yul\":1650:1652   */\n  0x60\n    /* \"#utility.yul\":1635:1653   */\n  dup11\n  add\n    /* \"#utility.yul\":1629:1654   */\n  mload\n    /* \"#utility.yul\":1746:1749   */\n  0x80\n    /* \"#utility.yul\":1731:1750   */\n  dup12\n  add\n    /* \"#utility.yul\":1725:1751   */\n  mload\n    /* \"#utility.yul\":1822:1825   */\n  0xa0\n    /* \"#utility.yul\":1807:1826   */\n  dup13\n  add\n    /* \"#utility.yul\":1801:1827   */\n  mload\n    /* \"#utility.yul\":1421:1494   */\n  swap4\n  swap10\n  pop\n    /* \"#utility.yul\":1535:1560   */\n  swap2\n  swap8\n  pop\n    /* \"#utility.yul\":1629:1654   */\n  swap6\n  pop\n    /* \"#utility.yul\":1725:1751   */\n  swap4\n  pop\n    /* \"#utility.yul\":1801:1827   */\n  swap1\n  pop\n  sub(shl(0xa0, 0x01), 0x01)\n    /* \"#utility.yul\":1858:1891   */\n  dup2\n  and\n    /* \"#utility.yul\":1846:1892   */\n  dup2\n  eq\n    /* \"#utility.yul\":1836:1910   */\n  tag_83\n  jumpi\n    /* \"#utility.yul\":1906:1907   */\n  0x00\n    /* \"#utility.yul\":1903:1904   */\n  dup1\n    /* \"#utility.yul\":1896:1908   */\n  revert\n    /* \"#utility.yul\":1836:1910   */\ntag_83:\n    /* \"#utility.yul\":1929:1936   */\n  dup1\n    /* \"#utility.yul\":1919:1936   */\n  swap2\n  pop\n  pop\n    /* \"#utility.yul\":874:1942   */\n  swap3\n  swap6\n  pop\n  swap3\n  swap6\n  pop\n  swap3\n  swap6\n  jump\t// out\n    /* \"#utility.yul\":1947:2327   */\ntag_64:\n    /* \"#utility.yul\":2026:2027   */\n  0x01\n    /* \"#utility.yul\":2022:2034   */\n  dup2\n  dup2\n  shr\n  swap1\n    /* \"#utility.yul\":2069:2081   */\n  dup3\n  and\n  dup1\n    /* \"#utility.yul\":2090:2151   */\n  tag_85\n  jumpi\n    /* \"#utility.yul\":2144:2148   */\n  0x7f\n    /* \"#utility.yul\":2136:2142   */\n  dup3\n    /* \"#utility.yul\":2132:2149   */\n  and\n    /* \"#utility.yul\":2122:2149   */\n  swap2\n  pop\n    /* \"#utility.yul\":2090:2151   */\ntag_85:\n    /* \"#utility.yul\":2197:2199   */\n  0x20\n    /* \"#utility.yul\":2189:2195   */\n  dup3\n    /* \"#utility.yul\":2186:2200   */\n  lt\n    /* \"#utility.yul\":2166:2184   */\n  dup2\n    /* \"#utility.yul\":2163:2201   */\n  sub\n    /* \"#utility.yul\":2160:2321   */\n  tag_86\n  jumpi\n    /* \"#utility.yul\":2243:2253   */\n  0x4e487b71\n    /* \"#utility.yul\":2238:2241   */\n  0xe0\n    /* \"#utility.yul\":2234:2254   */\n  shl\n    /* \"#utility.yul\":2231:2232   */\n  0x00\n    /* \"#utility.yul\":2224:2255   */\n  mstore\n    /* \"#utility.yul\":2278:2282   */\n  0x22\n    /* \"#utility.yul\":2275:2276   */\n  0x04\n    /* \"#utility.yul\":2268:2283   */\n  mstore\n    /* \"#utility.yul\":2306:2310   */\n  0x24\n    /* \"#utility.yul\":2303:2304   */\n  0x00\n    /* \"#utility.yul\":2296:2311   */\n  revert\n    /* \"#utility.yul\":2160:2321   */\ntag_86:\n  pop\n    /* \"#utility.yul\":1947:2327   */\n  swap2\n  swap1\n  pop\n  jump\t// out\n    /* \"#utility.yul\":2458:2976   */\ntag_66:\n    /* \"#utility.yul\":2560:2562   */\n  0x1f\n    /* \"#utility.yul\":2555:2558   */\n  dup3\n    /* \"#utility.yul\":2552:2563   */\n  gt\n    /* \"#utility.yul\":2549:2970   */\n  iszero\n  tag_46\n  jumpi\n    /* \"#utility.yul\":2596:2601   */\n  dup1\n    /* \"#utility.yul\":2593:2594   */\n  0x00\n    /* \"#utility.yul\":2586:2602   */\n  mstore\n    /* \"#utility.yul\":2640:2644   */\n  0x20\n    /* \"#utility.yul\":2637:2638   */\n  0x00\n    /* \"#utility.yul\":2627:2645   */\n  keccak256\n    /* \"#utility.yul\":2710:2712   */\n  0x1f\n    /* \"#utility.yul\":2698:2708   */\n  dup5\n    /* \"#utility.yul\":2694:2713   */\n  add\n    /* \"#utility.yul\":2691:2692   */\n  0x05\n    /* \"#utility.yul\":2687:2714   */\n  shr\n    /* \"#utility.yul\":2681:2685   */\n  dup2\n    /* \"#utility.yul\":2677:2715   */\n  add\n    /* \"#utility.yul\":2746:2750   */\n  0x20\n    /* \"#utility.yul\":2734:2744   */\n  dup6\n    /* \"#utility.yul\":2731:2751   */\n  lt\n    /* \"#utility.yul\":2728:2775   */\n  iszero\n  tag_90\n  jumpi\n  pop\n    /* \"#utility.yul\":2769:2773   */\n  dup1\n    /* \"#utility.yul\":2728:2775   */\ntag_90:\n    /* \"#utility.yul\":2824:2826   */\n  0x1f\n    /* \"#utility.yul\":2819:2822   */\n  dup5\n    /* \"#utility.yul\":2815:2827   */\n  add\n    /* \"#utility.yul\":2812:2813   */\n  0x05\n    /* \"#utility.yul\":2808:2828   */\n  shr\n    /* \"#utility.yul\":2802:2806   */\n  dup3\n    /* \"#utility.yul\":2798:2829   */\n  add\n    /* \"#utility.yul\":2788:2829   */\n  swap2\n  pop\n    /* \"#utility.yul\":2879:2960   */\ntag_91:\n    /* \"#utility.yul\":2897:2899   */\n  dup2\n    /* \"#utility.yul\":2890:2895   */\n  dup2\n    /* \"#utility.yul\":2887:2900   */\n  lt\n    /* \"#utility.yul\":2879:2960   */\n  iszero\n  tag_93\n  jumpi\n    /* \"#utility.yul\":2956:2957   */\n  0x00\n    /* \"#utility.yul\":2942:2958   */\n  dup2\n  sstore\n    /* \"#utility.yul\":2923:2924   */\n  0x01\n    /* \"#utility.yul\":2912:2925   */\n  add\n    /* \"#utility.yul\":2879:2960   */\n  jump(tag_91)\ntag_93:\n    /* \"#utility.yul\":2883:2886   */\n  pop\n  pop\n    /* \"#utility.yul\":2458:2976   */\n  pop\n  pop\n  pop\n  jump\t// out\n    /* \"#utility.yul\":3152:4451   */\ntag_9:\n    /* \"#utility.yul\":3272:3282   */\n  dup2\n  mload\n  sub(shl(0x40, 0x01), 0x01)\n    /* \"#utility.yul\":3294:3324   */\n  dup2\n  gt\n    /* \"#utility.yul\":3291:3347   */\n  iszero\n  tag_97\n  jumpi\n    /* \"#utility.yul\":3327:3345   */\n  tag_97\n  tag_62\n  jump\t// in\ntag_97:\n    /* \"#utility.yul\":3356:3453   */\n  tag_98\n    /* \"#utility.yul\":3446:3452   */\n  dup2\n    /* \"#utility.yul\":3406:3444   */\n  tag_99\n    /* \"#utility.yul\":3438:3442   */\n  dup5\n    /* \"#utility.yul\":3432:3443   */\n  sload\n    /* \"#utility.yul\":3406:3444   */\n  tag_64\n  jump\t// in\ntag_99:\n    /* \"#utility.yul\":3400:3404   */\n  dup5\n    /* \"#utility.yul\":3356:3453   */\n  tag_66\n  jump\t// in\ntag_98:\n    /* \"#utility.yul\":3502:3506   */\n  0x20\n    /* \"#utility.yul\":3533:3535   */\n  0x1f\n    /* \"#utility.yul\":3522:3536   */\n  dup3\n  gt\n    /* \"#utility.yul\":3550:3551   */\n  0x01\n    /* \"#utility.yul\":3545:4194   */\n  dup2\n  eq\n  tag_101\n  jumpi\n    /* \"#utility.yul\":4238:4239   */\n  0x00\n    /* \"#utility.yul\":4255:4261   */\n  dup4\n    /* \"#utility.yul\":4252:4341   */\n  iszero\n  tag_102\n  jumpi\n  pop\n    /* \"#utility.yul\":4307:4326   */\n  dup5\n  dup3\n  add\n    /* \"#utility.yul\":4301:4327   */\n  mload\n    /* \"#utility.yul\":4252:4341   */\ntag_102:\n  not(0x00)\n    /* \"#utility.yul\":3109:3110   */\n  0x03\n    /* \"#utility.yul\":3105:3116   */\n  dup6\n  swap1\n  shl\n    /* \"#utility.yul\":3101:3125   */\n  shr\n    /* \"#utility.yul\":3097:3126   */\n  not\n    /* \"#utility.yul\":3087:3127   */\n  and\n    /* \"#utility.yul\":3133:3134   */\n  0x01\n    /* \"#utility.yul\":3129:3140   */\n  dup5\n  swap1\n  shl\n    /* \"#utility.yul\":3084:3141   */\n  or\n    /* \"#utility.yul\":4354:4435   */\n  dup5\n  sstore\n    /* \"#utility.yul\":3515:4445   */\n  jump(tag_93)\n    /* \"#utility.yul\":3545:4194   */\ntag_101:\n    /* \"#utility.yul\":2405:2406   */\n  0x00\n    /* \"#utility.yul\":2398:2412   */\n  dup5\n  dup2\n  mstore\n    /* \"#utility.yul\":2442:2446   */\n  0x20\n    /* \"#utility.yul\":2429:2447   */\n  dup2\n  keccak256\n  not(0x1f)\n    /* \"#utility.yul\":3581:3601   */\n  dup6\n  and\n  swap2\n    /* \"#utility.yul\":3699:3921   */\ntag_105:\n    /* \"#utility.yul\":3713:3720   */\n  dup3\n    /* \"#utility.yul\":3710:3711   */\n  dup2\n    /* \"#utility.yul\":3707:3721   */\n  lt\n    /* \"#utility.yul\":3699:3921   */\n  iszero\n  tag_107\n  jumpi\n    /* \"#utility.yul\":3795:3814   */\n  dup8\n  dup6\n  add\n    /* \"#utility.yul\":3789:3815   */\n  mload\n    /* \"#utility.yul\":3774:3816   */\n  dup3\n  sstore\n    /* \"#utility.yul\":3902:3906   */\n  0x20\n    /* \"#utility.yul\":3887:3907   */\n  swap5\n  dup6\n  add\n  swap5\n    /* \"#utility.yul\":3855:3856   */\n  0x01\n    /* \"#utility.yul\":3843:3857   */\n  swap1\n  swap3\n  add\n  swap2\n    /* \"#utility.yul\":3729:3741   */\n  add\n    /* \"#utility.yul\":3699:3921   */\n  jump(tag_105)\ntag_107:\n    /* \"#utility.yul\":3703:3706   */\n  pop\n    /* \"#utility.yul\":3949:3955   */\n  dup5\n    /* \"#utility.yul\":3940:3947   */\n  dup3\n    /* \"#utility.yul\":3937:3956   */\n  lt\n    /* \"#utility.yul\":3934:4135   */\n  iszero\n  tag_108\n  jumpi\n    /* \"#utility.yul\":4010:4029   */\n  dup7\n  dup5\n  add\n    /* \"#utility.yul\":4004:4030   */\n  mload\n  not(0x00)\n    /* \"#utility.yul\":4093:4094   */\n  0x03\n    /* \"#utility.yul\":4089:4103   */\n  dup8\n  swap1\n  shl\n    /* \"#utility.yul\":4105:4108   */\n  0xf8\n    /* \"#utility.yul\":4085:4109   */\n  and\n    /* \"#utility.yul\":4081:4118   */\n  shr\n    /* \"#utility.yul\":4077:4119   */\n  not\n    /* \"#utility.yul\":4062:4120   */\n  and\n    /* \"#utility.yul\":4047:4121   */\n  dup2\n  sstore\n    /* \"#utility.yul\":3934:4135   */\ntag_108:\n  pop\n  pop\n  pop\n  pop\n    /* \"#utility.yul\":4181:4182   */\n  0x01\n    /* \"#utility.yul\":4165:4179   */\n  swap1\n  dup2\n  shl\n    /* \"#utility.yul\":4161:4183   */\n  add\n    /* \"#utility.yul\":4148:4184   */\n  swap1\n  sstore\n  pop\n    /* \"#utility.yul\":3152:4451   */\n  jump\t// out\n    /* \"#utility.yul\":6223:6445   */\ntag_52:\n    /* \"#utility.yul\":6288:6297   */\n  dup1\n  dup3\n  add\n    /* \"#utility.yul\":6309:6319   */\n  dup1\n  dup3\n  gt\n    /* \"#utility.yul\":6306:6439   */\n  iszero\n  tag_115\n  jumpi\n    /* \"#utility.yul\":6361:6371   */\n  0x4e487b71\n    /* \"#utility.yul\":6356:6359   */\n  0xe0\n    /* \"#utility.yul\":6352:6372   */\n  shl\n    /* \"#utility.yul\":6349:6350   */\n  0x00\n    /* \"#utility.yul\":6342:6373   */\n  mstore\n    /* \"#utility.yul\":6396:6400   */\n  0x11\n    /* \"#utility.yul\":6393:6394   */\n  0x04\n    /* \"#utility.yul\":6386:6401   */\n  mstore\n    /* \"#utility.yul\":6424:6428   */\n  0x24\n    /* \"#utility.yul\":6421:6422   */\n  0x00\n    /* \"#utility.yul\":6414:6429   */\n  revert\n    /* \"#utility.yul\":6306:6439   */\ntag_115:\n    /* \"#utility.yul\":6223:6445   */\n  swap3\n  swap2\n  pop\n  pop\n  jump\t// out\n    /* \"#utility.yul\":6800:6977   */\ntag_68:\n    /* \"contracts/BasicVestingGovernanceToken.sol\":303:2884  contract BasicVestingGovernanceToken is ERC20, ERC20Burnable, Ownable {... */\n  mload(0x80)\n  mload(0xa0)\n  mload(0xc0)\n  codecopy(0x00, dataOffset(sub_0), dataSize(sub_0))\n  0x00\n  assignImmutable(\"0x0996217b5bd56d5d4e65aa105bb02b59e7c2556b5b3d7f7f3baaee6777207758\")\n  0x00\n  assignImmutable(\"0x574c9b24b1330b680473d85a29c8e5ee10c43b3c92431d577a8acff668b9d6f0\")\n  0x00\n  assignImmutable(\"0x2470008a7122f3980884751511290e12d66a3210a88591c6a718f11411dff3c9\")\n  return(0x00, dataSize(sub_0))\nstop\n\nsub_0: assembly {\n        /* \"contracts/BasicVestingGovernanceToken.sol\":303:2884  contract BasicVestingGovernanceToken is ERC20, ERC20Burnable, Ownable {... */\n      mstore(0x40, 0x80)\n      callvalue\n      dup1\n      iszero\n      tag_1\n      jumpi\n      0x00\n      dup1\n      revert\n    tag_1:\n      pop\n      jumpi(tag_2, lt(calldatasize, 0x04))\n      shr(0xe0, calldataload(0x00))\n      dup1\n      0x715018a6\n      gt\n      tag_23\n      jumpi\n      dup1\n      0xa8660a78\n      gt\n      tag_24\n      jumpi\n      dup1\n      0xa8660a78\n      eq\n      tag_18\n      jumpi\n      dup1\n      0xa9059cbb\n      eq\n      tag_19\n      jumpi\n      dup1\n      0xdd62ed3e\n      eq\n      tag_20\n      jumpi\n      dup1\n      0xf2fde38b\n      eq\n      tag_21\n      jumpi\n      dup1\n      0xf4eb90a6\n      eq\n      tag_22\n      jumpi\n      0x00\n      dup1\n      revert\n    tag_24:\n      dup1\n      0x715018a6\n      eq\n      tag_13\n      jumpi\n      dup1\n      0x79cc6790\n      eq\n      tag_14\n      jumpi\n      dup1\n      0x8da5cb5b\n      eq\n      tag_15\n      jumpi\n      dup1\n      0x95d89b41\n      eq\n      tag_16\n      jumpi\n      dup1\n      0x9de5a561\n      eq\n      tag_17\n      jumpi\n      0x00\n      dup1\n      revert\n    tag_23:\n      dup1\n      0x313ce567\n      gt\n      tag_25\n      jumpi\n      dup1\n      0x313ce567\n      eq\n      tag_8\n      jumpi\n      dup1\n      0x42966c68\n      eq\n      tag_9\n      jumpi\n      dup1\n      0x4b8f1ef0\n      eq\n      tag_10\n      jumpi\n      dup1\n      0x54dd1da4\n      eq\n      tag_11\n      jumpi\n      dup1\n      0x70a08231\n      eq\n      tag_12\n      jumpi\n      0x00\n      dup1\n      revert\n    tag_25:\n      dup1\n      0x06fdde03\n      eq\n      tag_3\n      jumpi\n      dup1\n      0x095ea7b3\n      eq\n      tag_4\n      jumpi\n      dup1\n      0x1514617e\n      eq\n      tag_5\n      jumpi\n      dup1\n      0x18160ddd\n      eq\n      tag_6\n      jumpi\n      dup1\n      0x23b872dd\n      eq\n      tag_7\n      jumpi\n    tag_2:\n      0x00\n      dup1\n      revert\n        /* \"@openzeppelin/contracts/token/ERC20/ERC20.sol\":1779:1868  function name() public view virtual returns (string memory) {... */\n    tag_3:\n      tag_26\n      tag_27\n      jump\t// in\n    tag_26:\n      mload(0x40)\n      tag_28\n      swap2\n      swap1\n      tag_29\n      jump\t// in\n    tag_28:\n      mload(0x40)\n      dup1\n      swap2\n      sub\n      swap1\n      return\n        /* \"@openzeppelin/contracts/token/ERC20/ERC20.sol\":3998:4184  function approve(address spender, uint256 value) public virtual returns (bool) {... */\n    tag_4:\n      tag_30\n      tag_31\n      calldatasize\n      0x04\n      tag_32\n      jump\t// in\n    tag_31:\n      tag_33\n      jump\t// in\n    tag_30:\n      mload(0x40)\n        /* \"#utility.yul\":1085:1099   */\n      swap1\n      iszero\n        /* \"#utility.yul\":1078:1100   */\n      iszero\n        /* \"#utility.yul\":1060:1101   */\n      dup2\n      mstore\n        /* \"#utility.yul\":1048:1050   */\n      0x20\n        /* \"#utility.yul\":1033:1051   */\n      add\n        /* \"@openzeppelin/contracts/token/ERC20/ERC20.sol\":3998:4184  function approve(address spender, uint256 value) public virtual returns (bool) {... */\n      tag_28\n        /* \"#utility.yul\":920:1107   */\n      jump\n        /* \"contracts/BasicVestingGovernanceToken.sol\":460:500  uint256 public immutable vestingDuration */\n    tag_5:\n      tag_36\n      immutable(\"0x574c9b24b1330b680473d85a29c8e5ee10c43b3c92431d577a8acff668b9d6f0\")\n      dup2\n      jump\n    tag_36:\n      mload(0x40)\n        /* \"#utility.yul\":1258:1283   */\n      swap1\n      dup2\n      mstore\n        /* \"#utility.yul\":1246:1248   */\n      0x20\n        /* \"#utility.yul\":1231:1249   */\n      add\n        /* \"contracts/BasicVestingGovernanceToken.sol\":460:500  uint256 public immutable vestingDuration */\n      tag_28\n        /* \"#utility.yul\":1112:1289   */\n      jump\n        /* \"@openzeppelin/contracts/token/ERC20/ERC20.sol\":2849:2946  function totalSupply() public view virtual returns (uint256) {... */\n    tag_6:\n        /* \"@openzeppelin/contracts/token/ERC20/ERC20.sol\":2927:2939  _totalSupply */\n      sload(0x02)\n        /* \"@openzeppelin/contracts/token/ERC20/ERC20.sol\":2849:2946  function totalSupply() public view virtual returns (uint256) {... */\n      jump(tag_36)\n        /* \"@openzeppelin/contracts/token/ERC20/ERC20.sol\":4776:5020  function transferFrom(address from, address to, uint256 value) public virtual returns (bool) {... */\n    tag_7:\n      tag_30\n      tag_44\n      calldatasize\n      0x04\n      tag_45\n      jump\t// in\n    tag_44:\n      tag_46\n      jump\t// in\n        /* \"@openzeppelin/contracts/token/ERC20/ERC20.sol\":2707:2789  function decimals() public view virtual returns (uint8) {... */\n    tag_8:\n      mload(0x40)\n        /* \"@openzeppelin/contracts/token/ERC20/ERC20.sol\":2780:2782  18 */\n      0x12\n        /* \"#utility.yul\":1815:1851   */\n      dup2\n      mstore\n        /* \"#utility.yul\":1803:1805   */\n      0x20\n        /* \"#utility.yul\":1788:1806   */\n      add\n        /* \"@openzeppelin/contracts/token/ERC20/ERC20.sol\":2707:2789  function decimals() public view virtual returns (uint8) {... */\n      tag_28\n        /* \"#utility.yul\":1673:1857   */\n      jump\n        /* \"@openzeppelin/contracts/token/ERC20/extensions/ERC20Burnable.sol\":618:705  function burn(uint256 value) public virtual {... */\n    tag_9:\n      tag_52\n      tag_53\n      calldatasize\n      0x04\n      tag_54\n      jump\t// in\n    tag_53:\n      tag_55\n      jump\t// in\n    tag_52:\n      stop\n        /* \"contracts/BasicVestingGovernanceToken.sol\":556:590  uint256 public totalVestedReleased */\n    tag_10:\n      tag_36\n      sload(0x06)\n      dup2\n      jump\n        /* \"contracts/BasicVestingGovernanceToken.sol\":2092:2583  function releaseVestedTokens() public onlyOwner {... */\n    tag_11:\n      tag_52\n      tag_60\n      jump\t// in\n        /* \"@openzeppelin/contracts/token/ERC20/ERC20.sol\":3004:3120  function balanceOf(address account) public view virtual returns (uint256) {... */\n    tag_12:\n      tag_36\n      tag_62\n      calldatasize\n      0x04\n      tag_63\n      jump\t// in\n    tag_62:\n      sub(shl(0xa0, 0x01), 0x01)\n        /* \"@openzeppelin/contracts/token/ERC20/ERC20.sol\":3095:3113  _balances[account] */\n      and\n        /* \"@openzeppelin/contracts/token/ERC20/ERC20.sol\":3069:3076  uint256 */\n      0x00\n        /* \"@openzeppelin/contracts/token/ERC20/ERC20.sol\":3095:3113  _balances[account] */\n      swap1\n      dup2\n      mstore\n      0x20\n      dup2\n      swap1\n      mstore\n      0x40\n      swap1\n      keccak256\n      sload\n      swap1\n        /* \"@openzeppelin/contracts/token/ERC20/ERC20.sol\":3004:3120  function balanceOf(address account) public view virtual returns (uint256) {... */\n      jump\n        /* \"@openzeppelin/contracts/access/Ownable.sol\":2293:2394  function renounceOwnership() public virtual onlyOwner {... */\n    tag_13:\n      tag_52\n      tag_67\n      jump\t// in\n        /* \"@openzeppelin/contracts/token/ERC20/extensions/ERC20Burnable.sol\":1021:1179  function burnFrom(address account, uint256 value) public virtual {... */\n    tag_14:\n      tag_52\n      tag_69\n      calldatasize\n      0x04\n      tag_32\n      jump\t// in\n    tag_69:\n      tag_70\n      jump\t// in\n        /* \"@openzeppelin/contracts/access/Ownable.sol\":1638:1723  function owner() public view virtual returns (address) {... */\n    tag_15:\n        /* \"@openzeppelin/contracts/access/Ownable.sol\":1710:1716  _owner */\n      sload(0x05)\n        /* \"@openzeppelin/contracts/access/Ownable.sol\":1638:1723  function owner() public view virtual returns (address) {... */\n      mload(0x40)\n      sub(shl(0xa0, 0x01), 0x01)\n        /* \"@openzeppelin/contracts/access/Ownable.sol\":1710:1716  _owner */\n      swap1\n      swap2\n      and\n        /* \"#utility.yul\":2430:2481   */\n      dup2\n      mstore\n        /* \"#utility.yul\":2418:2420   */\n      0x20\n        /* \"#utility.yul\":2403:2421   */\n      add\n        /* \"@openzeppelin/contracts/access/Ownable.sol\":1638:1723  function owner() public view virtual returns (address) {... */\n      tag_28\n        /* \"#utility.yul\":2284:2487   */\n      jump\n        /* \"@openzeppelin/contracts/token/ERC20/ERC20.sol\":1981:2074  function symbol() public view virtual returns (string memory) {... */\n    tag_16:\n      tag_26\n      tag_76\n      jump\t// in\n        /* \"contracts/BasicVestingGovernanceToken.sol\":507:549  uint256 public immutable totalVestedSupply */\n    tag_17:\n      tag_36\n      immutable(\"0x0996217b5bd56d5d4e65aa105bb02b59e7c2556b5b3d7f7f3baaee6777207758\")\n      dup2\n      jump\n        /* \"contracts/BasicVestingGovernanceToken.sol\":413:454  uint256 public immutable vestingStartTime */\n    tag_18:\n      tag_36\n      immutable(\"0x2470008a7122f3980884751511290e12d66a3210a88591c6a718f11411dff3c9\")\n      dup2\n      jump\n        /* \"@openzeppelin/contracts/token/ERC20/ERC20.sol\":3315:3493  function transfer(address to, uint256 value) public virtual returns (bool) {... */\n    tag_19:\n      tag_30\n      tag_85\n      calldatasize\n      0x04\n      tag_32\n      jump\t// in\n    tag_85:\n      tag_86\n      jump\t// in\n        /* \"@openzeppelin/contracts/token/ERC20/ERC20.sol\":3551:3691  function allowance(address owner, address spender) public view virtual returns (uint256) {... */\n    tag_20:\n      tag_36\n      tag_89\n      calldatasize\n      0x04\n      tag_90\n      jump\t// in\n    tag_89:\n      sub(shl(0xa0, 0x01), 0x01)\n        /* \"@openzeppelin/contracts/token/ERC20/ERC20.sol\":3657:3675  _allowances[owner] */\n      swap2\n      dup3\n      and\n        /* \"@openzeppelin/contracts/token/ERC20/ERC20.sol\":3631:3638  uint256 */\n      0x00\n        /* \"@openzeppelin/contracts/token/ERC20/ERC20.sol\":3657:3675  _allowances[owner] */\n      swap1\n      dup2\n      mstore\n        /* \"@openzeppelin/contracts/token/ERC20/ERC20.sol\":3657:3668  _allowances */\n      0x01\n        /* \"@openzeppelin/contracts/token/ERC20/ERC20.sol\":3657:3675  _allowances[owner] */\n      0x20\n      swap1\n      dup2\n      mstore\n      0x40\n      dup1\n      dup4\n      keccak256\n        /* \"@openzeppelin/contracts/token/ERC20/ERC20.sol\":3657:3684  _allowances[owner][spender] */\n      swap4\n      swap1\n      swap5\n      and\n      dup3\n      mstore\n      swap2\n      swap1\n      swap2\n      mstore\n      keccak256\n      sload\n      swap1\n        /* \"@openzeppelin/contracts/token/ERC20/ERC20.sol\":3551:3691  function allowance(address owner, address spender) public view virtual returns (uint256) {... */\n      jump\n        /* \"@openzeppelin/contracts/access/Ownable.sol\":2543:2758  function transferOwnership(address newOwner) public virtual onlyOwner {... */\n    tag_21:\n      tag_52\n      tag_94\n      calldatasize\n      0x04\n      tag_63\n      jump\t// in\n    tag_94:\n      tag_95\n      jump\t// in\n        /* \"contracts/BasicVestingGovernanceToken.sol\":1679:2086  function currentlyVested() public view returns (uint256) {... */\n    tag_22:\n      tag_36\n      tag_97\n      jump\t// in\n        /* \"@openzeppelin/contracts/token/ERC20/ERC20.sol\":1779:1868  function name() public view virtual returns (string memory) {... */\n    tag_27:\n        /* \"@openzeppelin/contracts/token/ERC20/ERC20.sol\":1824:1837  string memory */\n      0x60\n        /* \"@openzeppelin/contracts/token/ERC20/ERC20.sol\":1856:1861  _name */\n      0x03\n        /* \"@openzeppelin/contracts/token/ERC20/ERC20.sol\":1849:1861  return _name */\n      dup1\n      sload\n      tag_100\n      swap1\n      tag_101\n      jump\t// in\n    tag_100:\n      dup1\n      0x1f\n      add\n      0x20\n      dup1\n      swap2\n      div\n      mul\n      0x20\n      add\n      mload(0x40)\n      swap1\n      dup2\n      add\n      0x40\n      mstore\n      dup1\n      swap3\n      swap2\n      swap1\n      dup2\n      dup2\n      mstore\n      0x20\n      add\n      dup3\n      dup1\n      sload\n      tag_102\n      swap1\n      tag_101\n      jump\t// in\n    tag_102:\n      dup1\n      iszero\n      tag_103\n      jumpi\n      dup1\n      0x1f\n      lt\n      tag_104\n      jumpi\n      0x0100\n      dup1\n      dup4\n      sload\n      div\n      mul\n      dup4\n      mstore\n      swap2\n      0x20\n      add\n      swap2\n      jump(tag_103)\n    tag_104:\n      dup3\n      add\n      swap2\n      swap1\n      0x00\n      mstore\n      keccak256(0x00, 0x20)\n      swap1\n    tag_105:\n      dup2\n      sload\n      dup2\n      mstore\n      swap1\n      0x01\n      add\n      swap1\n      0x20\n      add\n      dup1\n      dup4\n      gt\n      tag_105\n      jumpi\n      dup3\n      swap1\n      sub\n      0x1f\n      and\n      dup3\n      add\n      swap2\n    tag_103:\n      pop\n      pop\n      pop\n      pop\n      pop\n      swap1\n      pop\n        /* \"@openzeppelin/contracts/token/ERC20/ERC20.sol\":1779:1868  function name() public view virtual returns (string memory) {... */\n      swap1\n      jump\t// out\n        /* \"@openzeppelin/contracts/token/ERC20/ERC20.sol\":3998:4184  function approve(address spender, uint256 value) public virtual returns (bool) {... */\n    tag_33:\n        /* \"@openzeppelin/contracts/token/ERC20/ERC20.sol\":4071:4075  bool */\n      0x00\n        /* \"@openzeppelin/contracts/utils/Context.sol\":735:745  msg.sender */\n      caller\n        /* \"@openzeppelin/contracts/token/ERC20/ERC20.sol\":4125:4156  _approve(owner, spender, value) */\n      tag_109\n        /* \"@openzeppelin/contracts/utils/Context.sol\":735:745  msg.sender */\n      dup2\n        /* \"@openzeppelin/contracts/token/ERC20/ERC20.sol\":4141:4148  spender */\n      dup6\n        /* \"@openzeppelin/contracts/token/ERC20/ERC20.sol\":4150:4155  value */\n      dup6\n        /* \"@openzeppelin/contracts/token/ERC20/ERC20.sol\":4125:4133  _approve */\n      tag_110\n        /* \"@openzeppelin/contracts/token/ERC20/ERC20.sol\":4125:4156  _approve(owner, spender, value) */\n      jump\t// in\n    tag_109:\n        /* \"@openzeppelin/contracts/token/ERC20/ERC20.sol\":4173:4177  true */\n      0x01\n        /* \"@openzeppelin/contracts/token/ERC20/ERC20.sol\":4166:4177  return true */\n      swap2\n      pop\n      pop\n        /* \"@openzeppelin/contracts/token/ERC20/ERC20.sol\":3998:4184  function approve(address spender, uint256 value) public virtual returns (bool) {... */\n    tag_106:\n      swap3\n      swap2\n      pop\n      pop\n      jump\t// out\n        /* \"@openzeppelin/contracts/token/ERC20/ERC20.sol\":4776:5020  function transferFrom(address from, address to, uint256 value) public virtual returns (bool) {... */\n    tag_46:\n        /* \"@openzeppelin/contracts/token/ERC20/ERC20.sol\":4863:4867  bool */\n      0x00\n        /* \"@openzeppelin/contracts/utils/Context.sol\":735:745  msg.sender */\n      caller\n        /* \"@openzeppelin/contracts/token/ERC20/ERC20.sol\":4919:4956  _spendAllowance(from, spender, value) */\n      tag_114\n        /* \"@openzeppelin/contracts/token/ERC20/ERC20.sol\":4935:4939  from */\n      dup6\n        /* \"@openzeppelin/contracts/utils/Context.sol\":735:745  msg.sender */\n      dup3\n        /* \"@openzeppelin/contracts/token/ERC20/ERC20.sol\":4950:4955  value */\n      dup6\n        /* \"@openzeppelin/contracts/token/ERC20/ERC20.sol\":4919:4934  _spendAllowance */\n      tag_115\n        /* \"@openzeppelin/contracts/token/ERC20/ERC20.sol\":4919:4956  _spendAllowance(from, spender, value) */\n      jump\t// in\n    tag_114:\n        /* \"@openzeppelin/contracts/token/ERC20/ERC20.sol\":4966:4992  _transfer(from, to, value) */\n      tag_116\n        /* \"@openzeppelin/contracts/token/ERC20/ERC20.sol\":4976:4980  from */\n      dup6\n        /* \"@openzeppelin/contracts/token/ERC20/ERC20.sol\":4982:4984  to */\n      dup6\n        /* \"@openzeppelin/contracts/token/ERC20/ERC20.sol\":4986:4991  value */\n      dup6\n        /* \"@openzeppelin/contracts/token/ERC20/ERC20.sol\":4966:4975  _transfer */\n      tag_117\n        /* \"@openzeppelin/contracts/token/ERC20/ERC20.sol\":4966:4992  _transfer(from, to, value) */\n      jump\t// in\n    tag_116:\n      pop\n        /* \"@openzeppelin/contracts/token/ERC20/ERC20.sol\":5009:5013  true */\n      0x01\n      swap5\n        /* \"@openzeppelin/contracts/token/ERC20/ERC20.sol\":4776:5020  function transferFrom(address from, address to, uint256 value) public virtual returns (bool) {... */\n      swap4\n      pop\n      pop\n      pop\n      pop\n      jump\t// out\n        /* \"@openzeppelin/contracts/token/ERC20/extensions/ERC20Burnable.sol\":618:705  function burn(uint256 value) public virtual {... */\n    tag_55:\n        /* \"@openzeppelin/contracts/token/ERC20/extensions/ERC20Burnable.sol\":672:698  _burn(_msgSender(), value) */\n      tag_120\n        /* \"@openzeppelin/contracts/utils/Context.sol\":735:745  msg.sender */\n      caller\n        /* \"@openzeppelin/contracts/token/ERC20/extensions/ERC20Burnable.sol\":692:697  value */\n      dup3\n        /* \"@openzeppelin/contracts/token/ERC20/extensions/ERC20Burnable.sol\":672:677  _burn */\n      tag_122\n        /* \"@openzeppelin/contracts/token/ERC20/extensions/ERC20Burnable.sol\":672:698  _burn(_msgSender(), value) */\n      jump\t// in\n    tag_120:\n        /* \"@openzeppelin/contracts/token/ERC20/extensions/ERC20Burnable.sol\":618:705  function burn(uint256 value) public virtual {... */\n      pop\n      jump\t// out\n        /* \"contracts/BasicVestingGovernanceToken.sol\":2092:2583  function releaseVestedTokens() public onlyOwner {... */\n    tag_60:\n        /* \"@openzeppelin/contracts/access/Ownable.sol\":1531:1544  _checkOwner() */\n      tag_124\n        /* \"@openzeppelin/contracts/access/Ownable.sol\":1531:1542  _checkOwner */\n      tag_125\n        /* \"@openzeppelin/contracts/access/Ownable.sol\":1531:1544  _checkOwner() */\n      jump\t// in\n    tag_124:\n        /* \"contracts/BasicVestingGovernanceToken.sol\":2150:2175  uint256 totalVestedAmount */\n      0x00\n        /* \"contracts/BasicVestingGovernanceToken.sol\":2178:2195  currentlyVested() */\n      tag_127\n        /* \"contracts/BasicVestingGovernanceToken.sol\":2178:2193  currentlyVested */\n      tag_97\n        /* \"contracts/BasicVestingGovernanceToken.sol\":2178:2195  currentlyVested() */\n      jump\t// in\n    tag_127:\n        /* \"contracts/BasicVestingGovernanceToken.sol\":2150:2195  uint256 totalVestedAmount = currentlyVested() */\n      swap1\n      pop\n        /* \"contracts/BasicVestingGovernanceToken.sol\":2234:2253  totalVestedReleased */\n      sload(0x06)\n        /* \"contracts/BasicVestingGovernanceToken.sol\":2214:2231  totalVestedAmount */\n      dup2\n        /* \"contracts/BasicVestingGovernanceToken.sol\":2214:2253  totalVestedAmount > totalVestedReleased */\n      gt\n        /* \"contracts/BasicVestingGovernanceToken.sol\":2206:2292  require(totalVestedAmount > totalVestedReleased, \"Vesting: no new tokens have vested\") */\n      tag_128\n      jumpi\n      mload(0x40)\n      shl(0xe5, 0x461bcd)\n      dup2\n      mstore\n        /* \"#utility.yul\":3344:3346   */\n      0x20\n        /* \"contracts/BasicVestingGovernanceToken.sol\":2206:2292  require(totalVestedAmount > totalVestedReleased, \"Vesting: no new tokens have vested\") */\n      0x04\n      dup3\n      add\n        /* \"#utility.yul\":3326:3347   */\n      mstore\n        /* \"#utility.yul\":3383:3385   */\n      0x22\n        /* \"#utility.yul\":3363:3381   */\n      0x24\n      dup3\n      add\n        /* \"#utility.yul\":3356:3386   */\n      mstore\n        /* \"#utility.yul\":3422:3456   */\n      0x56657374696e673a206e6f206e657720746f6b656e7320686176652076657374\n        /* \"#utility.yul\":3402:3420   */\n      0x44\n      dup3\n      add\n        /* \"#utility.yul\":3395:3457   */\n      mstore\n      shl(0xf2, 0x1959)\n        /* \"#utility.yul\":3473:3491   */\n      0x64\n      dup3\n      add\n        /* \"#utility.yul\":3466:3498   */\n      mstore\n        /* \"#utility.yul\":3515:3534   */\n      0x84\n      add\n        /* \"contracts/BasicVestingGovernanceToken.sol\":2206:2292  require(totalVestedAmount > totalVestedReleased, \"Vesting: no new tokens have vested\") */\n    tag_129:\n      mload(0x40)\n      dup1\n      swap2\n      sub\n      swap1\n      revert\n    tag_128:\n        /* \"contracts/BasicVestingGovernanceToken.sol\":2303:2326  uint256 amountToRelease */\n      0x00\n        /* \"contracts/BasicVestingGovernanceToken.sol\":2329:2371  totalVestedAmount.sub(totalVestedReleased) */\n      tag_131\n        /* \"contracts/BasicVestingGovernanceToken.sol\":2351:2370  totalVestedReleased */\n      sload(0x06)\n        /* \"contracts/BasicVestingGovernanceToken.sol\":2329:2346  totalVestedAmount */\n      dup4\n        /* \"contracts/BasicVestingGovernanceToken.sol\":2329:2350  totalVestedAmount.sub */\n      tag_132\n      swap1\n        /* \"contracts/BasicVestingGovernanceToken.sol\":2329:2371  totalVestedAmount.sub(totalVestedReleased) */\n      swap2\n      swap1\n      0xffffffff\n      and\n      jump\t// in\n    tag_131:\n        /* \"contracts/BasicVestingGovernanceToken.sol\":2404:2423  totalVestedReleased */\n      sload(0x06)\n        /* \"contracts/BasicVestingGovernanceToken.sol\":2303:2371  uint256 amountToRelease = totalVestedAmount.sub(totalVestedReleased) */\n      swap1\n      swap2\n      pop\n        /* \"contracts/BasicVestingGovernanceToken.sol\":2404:2444  totalVestedReleased.add(amountToRelease) */\n      tag_133\n      swap1\n        /* \"contracts/BasicVestingGovernanceToken.sol\":2303:2371  uint256 amountToRelease = totalVestedAmount.sub(totalVestedReleased) */\n      dup3\n        /* \"contracts/BasicVestingGovernanceToken.sol\":2404:2427  totalVestedReleased.add */\n      tag_134\n        /* \"contracts/BasicVestingGovernanceToken.sol\":2404:2444  totalVestedReleased.add(amountToRelease) */\n      jump\t// in\n    tag_133:\n        /* \"contracts/BasicVestingGovernanceToken.sol\":2382:2401  totalVestedReleased */\n      0x06\n        /* \"contracts/BasicVestingGovernanceToken.sol\":2382:2444  totalVestedReleased = totalVestedReleased.add(amountToRelease) */\n      sstore\n        /* \"contracts/BasicVestingGovernanceToken.sol\":2455:2505  _transfer(address(this), owner(), amountToRelease) */\n      tag_135\n        /* \"contracts/BasicVestingGovernanceToken.sol\":2473:2477  this */\n      address\n        /* \"contracts/BasicVestingGovernanceToken.sol\":2480:2487  owner() */\n      tag_136\n        /* \"@openzeppelin/contracts/access/Ownable.sol\":1710:1716  _owner */\n      and(sub(shl(0xa0, 0x01), 0x01), sload(0x05))\n      swap1\n        /* \"@openzeppelin/contracts/access/Ownable.sol\":1638:1723  function owner() public view virtual returns (address) {... */\n      jump\n        /* \"contracts/BasicVestingGovernanceToken.sol\":2480:2487  owner() */\n    tag_136:\n        /* \"contracts/BasicVestingGovernanceToken.sol\":2489:2504  amountToRelease */\n      dup4\n        /* \"contracts/BasicVestingGovernanceToken.sol\":2455:2464  _transfer */\n      tag_117\n        /* \"contracts/BasicVestingGovernanceToken.sol\":2455:2505  _transfer(address(this), owner(), amountToRelease) */\n      jump\t// in\n    tag_135:\n        /* \"@openzeppelin/contracts/access/Ownable.sol\":1710:1716  _owner */\n      and(sub(shl(0xa0, 0x01), 0x01), sload(0x05))\n      sub(shl(0xa0, 0x01), 0x01)\n        /* \"contracts/BasicVestingGovernanceToken.sol\":2530:2576  VestedTokensReleased(owner(), amountToRelease) */\n      and\n      0x6bc5063c7239b75c8bf325a2a2238f726fada322163996bb6c93d5594fb119f0\n        /* \"contracts/BasicVestingGovernanceToken.sol\":2560:2575  amountToRelease */\n      dup3\n        /* \"contracts/BasicVestingGovernanceToken.sol\":2530:2576  VestedTokensReleased(owner(), amountToRelease) */\n      mload(0x40)\n      tag_138\n      swap2\n        /* \"#utility.yul\":1258:1283   */\n      dup2\n      mstore\n        /* \"#utility.yul\":1246:1248   */\n      0x20\n        /* \"#utility.yul\":1231:1249   */\n      add\n      swap1\n        /* \"#utility.yul\":1112:1289   */\n      jump\n        /* \"contracts/BasicVestingGovernanceToken.sol\":2530:2576  VestedTokensReleased(owner(), amountToRelease) */\n    tag_138:\n      mload(0x40)\n      dup1\n      swap2\n      sub\n      swap1\n      log2\n        /* \"contracts/BasicVestingGovernanceToken.sol\":2140:2583  {... */\n      pop\n      pop\n        /* \"contracts/BasicVestingGovernanceToken.sol\":2092:2583  function releaseVestedTokens() public onlyOwner {... */\n      jump\t// out\n        /* \"@openzeppelin/contracts/access/Ownable.sol\":2293:2394  function renounceOwnership() public virtual onlyOwner {... */\n    tag_67:\n        /* \"@openzeppelin/contracts/access/Ownable.sol\":1531:1544  _checkOwner() */\n      tag_141\n        /* \"@openzeppelin/contracts/access/Ownable.sol\":1531:1542  _checkOwner */\n      tag_125\n        /* \"@openzeppelin/contracts/access/Ownable.sol\":1531:1544  _checkOwner() */\n      jump\t// in\n    tag_141:\n        /* \"@openzeppelin/contracts/access/Ownable.sol\":2357:2387  _transferOwnership(address(0)) */\n      tag_143\n        /* \"@openzeppelin/contracts/access/Ownable.sol\":2384:2385  0 */\n      0x00\n        /* \"@openzeppelin/contracts/access/Ownable.sol\":2357:2375  _transferOwnership */\n      tag_144\n        /* \"@openzeppelin/contracts/access/Ownable.sol\":2357:2387  _transferOwnership(address(0)) */\n      jump\t// in\n    tag_143:\n        /* \"@openzeppelin/contracts/access/Ownable.sol\":2293:2394  function renounceOwnership() public virtual onlyOwner {... */\n      jump\t// out\n        /* \"@openzeppelin/contracts/token/ERC20/extensions/ERC20Burnable.sol\":1021:1179  function burnFrom(address account, uint256 value) public virtual {... */\n    tag_70:\n        /* \"@openzeppelin/contracts/token/ERC20/extensions/ERC20Burnable.sol\":1096:1141  _spendAllowance(account, _msgSender(), value) */\n      tag_146\n        /* \"@openzeppelin/contracts/token/ERC20/extensions/ERC20Burnable.sol\":1112:1119  account */\n      dup3\n        /* \"@openzeppelin/contracts/utils/Context.sol\":735:745  msg.sender */\n      caller\n        /* \"@openzeppelin/contracts/token/ERC20/extensions/ERC20Burnable.sol\":1135:1140  value */\n      dup4\n        /* \"@openzeppelin/contracts/token/ERC20/extensions/ERC20Burnable.sol\":1096:1111  _spendAllowance */\n      tag_115\n        /* \"@openzeppelin/contracts/token/ERC20/extensions/ERC20Burnable.sol\":1096:1141  _spendAllowance(account, _msgSender(), value) */\n      jump\t// in\n    tag_146:\n        /* \"@openzeppelin/contracts/token/ERC20/extensions/ERC20Burnable.sol\":1151:1172  _burn(account, value) */\n      tag_148\n        /* \"@openzeppelin/contracts/token/ERC20/extensions/ERC20Burnable.sol\":1157:1164  account */\n      dup3\n        /* \"@openzeppelin/contracts/token/ERC20/extensions/ERC20Burnable.sol\":1166:1171  value */\n      dup3\n        /* \"@openzeppelin/contracts/token/ERC20/extensions/ERC20Burnable.sol\":1151:1156  _burn */\n      tag_122\n        /* \"@openzeppelin/contracts/token/ERC20/extensions/ERC20Burnable.sol\":1151:1172  _burn(account, value) */\n      jump\t// in\n    tag_148:\n        /* \"@openzeppelin/contracts/token/ERC20/extensions/ERC20Burnable.sol\":1021:1179  function burnFrom(address account, uint256 value) public virtual {... */\n      pop\n      pop\n      jump\t// out\n        /* \"@openzeppelin/contracts/token/ERC20/ERC20.sol\":1981:2074  function symbol() public view virtual returns (string memory) {... */\n    tag_76:\n        /* \"@openzeppelin/contracts/token/ERC20/ERC20.sol\":2028:2041  string memory */\n      0x60\n        /* \"@openzeppelin/contracts/token/ERC20/ERC20.sol\":2060:2067  _symbol */\n      0x04\n        /* \"@openzeppelin/contracts/token/ERC20/ERC20.sol\":2053:2067  return _symbol */\n      dup1\n      sload\n      tag_100\n      swap1\n      tag_101\n      jump\t// in\n        /* \"@openzeppelin/contracts/token/ERC20/ERC20.sol\":3315:3493  function transfer(address to, uint256 value) public virtual returns (bool) {... */\n    tag_86:\n        /* \"@openzeppelin/contracts/token/ERC20/ERC20.sol\":3384:3388  bool */\n      0x00\n        /* \"@openzeppelin/contracts/utils/Context.sol\":735:745  msg.sender */\n      caller\n        /* \"@openzeppelin/contracts/token/ERC20/ERC20.sol\":3438:3465  _transfer(owner, to, value) */\n      tag_109\n        /* \"@openzeppelin/contracts/utils/Context.sol\":735:745  msg.sender */\n      dup2\n        /* \"@openzeppelin/contracts/token/ERC20/ERC20.sol\":3455:3457  to */\n      dup6\n        /* \"@openzeppelin/contracts/token/ERC20/ERC20.sol\":3459:3464  value */\n      dup6\n        /* \"@openzeppelin/contracts/token/ERC20/ERC20.sol\":3438:3447  _transfer */\n      tag_117\n        /* \"@openzeppelin/contracts/token/ERC20/ERC20.sol\":3438:3465  _transfer(owner, to, value) */\n      jump\t// in\n        /* \"@openzeppelin/contracts/access/Ownable.sol\":2543:2758  function transferOwnership(address newOwner) public virtual onlyOwner {... */\n    tag_95:\n        /* \"@openzeppelin/contracts/access/Ownable.sol\":1531:1544  _checkOwner() */\n      tag_161\n        /* \"@openzeppelin/contracts/access/Ownable.sol\":1531:1542  _checkOwner */\n      tag_125\n        /* \"@openzeppelin/contracts/access/Ownable.sol\":1531:1544  _checkOwner() */\n      jump\t// in\n    tag_161:\n      sub(shl(0xa0, 0x01), 0x01)\n        /* \"@openzeppelin/contracts/access/Ownable.sol\":2627:2649  newOwner == address(0) */\n      dup2\n      and\n        /* \"@openzeppelin/contracts/access/Ownable.sol\":2623:2714  if (newOwner == address(0)) {... */\n      tag_163\n      jumpi\n        /* \"@openzeppelin/contracts/access/Ownable.sol\":2672:2703  OwnableInvalidOwner(address(0)) */\n      mload(0x40)\n      shl(0xe0, 0x1e4fbdf7)\n      dup2\n      mstore\n        /* \"@openzeppelin/contracts/access/Ownable.sol\":2700:2701  0 */\n      0x00\n        /* \"@openzeppelin/contracts/access/Ownable.sol\":2672:2703  OwnableInvalidOwner(address(0)) */\n      0x04\n      dup3\n      add\n        /* \"#utility.yul\":2430:2481   */\n      mstore\n        /* \"#utility.yul\":2403:2421   */\n      0x24\n      add\n        /* \"@openzeppelin/contracts/access/Ownable.sol\":2672:2703  OwnableInvalidOwner(address(0)) */\n      tag_129\n        /* \"#utility.yul\":2284:2487   */\n      jump\n        /* \"@openzeppelin/contracts/access/Ownable.sol\":2623:2714  if (newOwner == address(0)) {... */\n    tag_163:\n        /* \"@openzeppelin/contracts/access/Ownable.sol\":2723:2751  _transferOwnership(newOwner) */\n      tag_120\n        /* \"@openzeppelin/contracts/access/Ownable.sol\":2742:2750  newOwner */\n      dup2\n        /* \"@openzeppelin/contracts/access/Ownable.sol\":2723:2741  _transferOwnership */\n      tag_144\n        /* \"@openzeppelin/contracts/access/Ownable.sol\":2723:2751  _transferOwnership(newOwner) */\n      jump\t// in\n        /* \"contracts/BasicVestingGovernanceToken.sol\":1679:2086  function currentlyVested() public view returns (uint256) {... */\n    tag_97:\n        /* \"contracts/BasicVestingGovernanceToken.sol\":1727:1734  uint256 */\n      0x00\n        /* \"contracts/BasicVestingGovernanceToken.sol\":1769:1785  vestingStartTime */\n      immutable(\"0x2470008a7122f3980884751511290e12d66a3210a88591c6a718f11411dff3c9\")\n        /* \"contracts/BasicVestingGovernanceToken.sol\":1751:1766  block.timestamp */\n      timestamp\n        /* \"contracts/BasicVestingGovernanceToken.sol\":1751:1785  block.timestamp < vestingStartTime */\n      lt\n        /* \"contracts/BasicVestingGovernanceToken.sol\":1751:1809  block.timestamp < vestingStartTime || vestingDuration == 0 */\n      dup1\n      tag_167\n      jumpi\n      pop\n        /* \"contracts/BasicVestingGovernanceToken.sol\":1789:1804  vestingDuration */\n      immutable(\"0x574c9b24b1330b680473d85a29c8e5ee10c43b3c92431d577a8acff668b9d6f0\")\n        /* \"contracts/BasicVestingGovernanceToken.sol\":1789:1809  vestingDuration == 0 */\n      iszero\n        /* \"contracts/BasicVestingGovernanceToken.sol\":1751:1809  block.timestamp < vestingStartTime || vestingDuration == 0 */\n    tag_167:\n        /* \"contracts/BasicVestingGovernanceToken.sol\":1747:1844  if (block.timestamp < vestingStartTime || vestingDuration == 0) {... */\n      iszero\n      tag_168\n      jumpi\n      pop\n        /* \"contracts/BasicVestingGovernanceToken.sol\":1832:1833  0 */\n      0x00\n      swap1\n        /* \"contracts/BasicVestingGovernanceToken.sol\":1679:2086  function currentlyVested() public view returns (uint256) {... */\n      jump\t// out\n        /* \"contracts/BasicVestingGovernanceToken.sol\":1747:1844  if (block.timestamp < vestingStartTime || vestingDuration == 0) {... */\n    tag_168:\n        /* \"contracts/BasicVestingGovernanceToken.sol\":1854:1870  uint timeElapsed */\n      0x00\n        /* \"contracts/BasicVestingGovernanceToken.sol\":1873:1910  block.timestamp.sub(vestingStartTime) */\n      tag_169\n        /* \"contracts/BasicVestingGovernanceToken.sol\":1873:1888  block.timestamp */\n      timestamp\n        /* \"contracts/BasicVestingGovernanceToken.sol\":1893:1909  vestingStartTime */\n      immutable(\"0x2470008a7122f3980884751511290e12d66a3210a88591c6a718f11411dff3c9\")\n        /* \"contracts/BasicVestingGovernanceToken.sol\":1873:1892  block.timestamp.sub */\n      tag_132\n        /* \"contracts/BasicVestingGovernanceToken.sol\":1873:1910  block.timestamp.sub(vestingStartTime) */\n      jump\t// in\n    tag_169:\n        /* \"contracts/BasicVestingGovernanceToken.sol\":1854:1910  uint timeElapsed = block.timestamp.sub(vestingStartTime) */\n      swap1\n      pop\n        /* \"contracts/BasicVestingGovernanceToken.sol\":1940:1955  vestingDuration */\n      immutable(\"0x574c9b24b1330b680473d85a29c8e5ee10c43b3c92431d577a8acff668b9d6f0\")\n        /* \"contracts/BasicVestingGovernanceToken.sol\":1925:1936  timeElapsed */\n      dup2\n        /* \"contracts/BasicVestingGovernanceToken.sol\":1925:1955  timeElapsed >= vestingDuration */\n      lt\n        /* \"contracts/BasicVestingGovernanceToken.sol\":1921:2006  if (timeElapsed >= vestingDuration) {... */\n      tag_170\n      jumpi\n        /* \"contracts/BasicVestingGovernanceToken.sol\":1978:1995  totalVestedSupply */\n      immutable(\"0x0996217b5bd56d5d4e65aa105bb02b59e7c2556b5b3d7f7f3baaee6777207758\")\n        /* \"contracts/BasicVestingGovernanceToken.sol\":1971:1995  return totalVestedSupply */\n      swap2\n      pop\n      pop\n        /* \"contracts/BasicVestingGovernanceToken.sol\":1679:2086  function currentlyVested() public view returns (uint256) {... */\n      swap1\n      jump\t// out\n        /* \"contracts/BasicVestingGovernanceToken.sol\":1921:2006  if (timeElapsed >= vestingDuration) {... */\n    tag_170:\n        /* \"contracts/BasicVestingGovernanceToken.sol\":2023:2078  totalVestedSupply.mul(timeElapsed).div(vestingDuration) */\n      tag_171\n        /* \"contracts/BasicVestingGovernanceToken.sol\":2062:2077  vestingDuration */\n      immutable(\"0x574c9b24b1330b680473d85a29c8e5ee10c43b3c92431d577a8acff668b9d6f0\")\n        /* \"contracts/BasicVestingGovernanceToken.sol\":2023:2057  totalVestedSupply.mul(timeElapsed) */\n      tag_172\n        /* \"contracts/BasicVestingGovernanceToken.sol\":2023:2040  totalVestedSupply */\n      immutable(\"0x0996217b5bd56d5d4e65aa105bb02b59e7c2556b5b3d7f7f3baaee6777207758\")\n        /* \"contracts/BasicVestingGovernanceToken.sol\":2045:2056  timeElapsed */\n      dup5\n        /* \"contracts/BasicVestingGovernanceToken.sol\":2023:2044  totalVestedSupply.mul */\n      tag_173\n        /* \"contracts/BasicVestingGovernanceToken.sol\":2023:2057  totalVestedSupply.mul(timeElapsed) */\n      jump\t// in\n    tag_172:\n        /* \"contracts/BasicVestingGovernanceToken.sol\":2023:2061  totalVestedSupply.mul(timeElapsed).div */\n      swap1\n      tag_174\n        /* \"contracts/BasicVestingGovernanceToken.sol\":2023:2078  totalVestedSupply.mul(timeElapsed).div(vestingDuration) */\n      jump\t// in\n    tag_171:\n        /* \"contracts/BasicVestingGovernanceToken.sol\":2016:2078  return totalVestedSupply.mul(timeElapsed).div(vestingDuration) */\n      swap2\n      pop\n      pop\n        /* \"contracts/BasicVestingGovernanceToken.sol\":1679:2086  function currentlyVested() public view returns (uint256) {... */\n      swap1\n      jump\t// out\n        /* \"@openzeppelin/contracts/token/ERC20/ERC20.sol\":8726:8854  function _approve(address owner, address spender, uint256 value) internal {... */\n    tag_110:\n        /* \"@openzeppelin/contracts/token/ERC20/ERC20.sol\":8810:8847  _approve(owner, spender, value, true) */\n      tag_177\n        /* \"@openzeppelin/contracts/token/ERC20/ERC20.sol\":8819:8824  owner */\n      dup4\n        /* \"@openzeppelin/contracts/token/ERC20/ERC20.sol\":8826:8833  spender */\n      dup4\n        /* \"@openzeppelin/contracts/token/ERC20/ERC20.sol\":8835:8840  value */\n      dup4\n        /* \"@openzeppelin/contracts/token/ERC20/ERC20.sol\":8842:8846  true */\n      0x01\n        /* \"@openzeppelin/contracts/token/ERC20/ERC20.sol\":8810:8818  _approve */\n      tag_178\n        /* \"@openzeppelin/contracts/token/ERC20/ERC20.sol\":8810:8847  _approve(owner, spender, value, true) */\n      jump\t// in\n    tag_177:\n        /* \"@openzeppelin/contracts/token/ERC20/ERC20.sol\":8726:8854  function _approve(address owner, address spender, uint256 value) internal {... */\n      pop\n      pop\n      pop\n      jump\t// out\n        /* \"@openzeppelin/contracts/token/ERC20/ERC20.sol\":10415:10891  function _spendAllowance(address owner, address spender, uint256 value) internal virtual {... */\n    tag_115:\n      sub(shl(0xa0, 0x01), 0x01)\n        /* \"@openzeppelin/contracts/token/ERC20/ERC20.sol\":3657:3675  _allowances[owner] */\n      dup4\n      dup2\n      and\n        /* \"@openzeppelin/contracts/token/ERC20/ERC20.sol\":10514:10538  uint256 currentAllowance */\n      0x00\n        /* \"@openzeppelin/contracts/token/ERC20/ERC20.sol\":3657:3675  _allowances[owner] */\n      swap1\n      dup2\n      mstore\n        /* \"@openzeppelin/contracts/token/ERC20/ERC20.sol\":3657:3668  _allowances */\n      0x01\n        /* \"@openzeppelin/contracts/token/ERC20/ERC20.sol\":3657:3675  _allowances[owner] */\n      0x20\n      swap1\n      dup2\n      mstore\n      0x40\n      dup1\n      dup4\n      keccak256\n        /* \"@openzeppelin/contracts/token/ERC20/ERC20.sol\":3657:3684  _allowances[owner][spender] */\n      swap4\n      dup7\n      and\n      dup4\n      mstore\n      swap3\n      swap1\n      mstore\n      keccak256\n      sload\n      not(0x00)\n        /* \"@openzeppelin/contracts/token/ERC20/ERC20.sol\":10580:10616  currentAllowance < type(uint256).max */\n      dup2\n      lt\n        /* \"@openzeppelin/contracts/token/ERC20/ERC20.sol\":10576:10885  if (currentAllowance < type(uint256).max) {... */\n      iszero\n      tag_185\n      jumpi\n        /* \"@openzeppelin/contracts/token/ERC20/ERC20.sol\":10655:10660  value */\n      dup2\n        /* \"@openzeppelin/contracts/token/ERC20/ERC20.sol\":10636:10652  currentAllowance */\n      dup2\n        /* \"@openzeppelin/contracts/token/ERC20/ERC20.sol\":10636:10660  currentAllowance < value */\n      lt\n        /* \"@openzeppelin/contracts/token/ERC20/ERC20.sol\":10632:10762  if (currentAllowance < value) {... */\n      iszero\n      tag_182\n      jumpi\n        /* \"@openzeppelin/contracts/token/ERC20/ERC20.sol\":10687:10747  ERC20InsufficientAllowance(spender, currentAllowance, value) */\n      mload(0x40)\n      shl(0xe1, 0x7dc7a0d9)\n      dup2\n      mstore\n      sub(shl(0xa0, 0x01), 0x01)\n        /* \"#utility.yul\":3765:3797   */\n      dup5\n      and\n        /* \"@openzeppelin/contracts/token/ERC20/ERC20.sol\":10687:10747  ERC20InsufficientAllowance(spender, currentAllowance, value) */\n      0x04\n      dup3\n      add\n        /* \"#utility.yul\":3747:3798   */\n      mstore\n        /* \"#utility.yul\":3814:3832   */\n      0x24\n      dup2\n      add\n        /* \"#utility.yul\":3807:3841   */\n      dup3\n      swap1\n      mstore\n        /* \"#utility.yul\":3857:3875   */\n      0x44\n      dup2\n      add\n        /* \"#utility.yul\":3850:3884   */\n      dup4\n      swap1\n      mstore\n        /* \"#utility.yul\":3720:3738   */\n      0x64\n      add\n        /* \"@openzeppelin/contracts/token/ERC20/ERC20.sol\":10687:10747  ERC20InsufficientAllowance(spender, currentAllowance, value) */\n      tag_129\n        /* \"#utility.yul\":3545:3890   */\n      jump\n        /* \"@openzeppelin/contracts/token/ERC20/ERC20.sol\":10632:10762  if (currentAllowance < value) {... */\n    tag_182:\n        /* \"@openzeppelin/contracts/token/ERC20/ERC20.sol\":10803:10860  _approve(owner, spender, currentAllowance - value, false) */\n      tag_185\n        /* \"@openzeppelin/contracts/token/ERC20/ERC20.sol\":10812:10817  owner */\n      dup5\n        /* \"@openzeppelin/contracts/token/ERC20/ERC20.sol\":10819:10826  spender */\n      dup5\n        /* \"@openzeppelin/contracts/token/ERC20/ERC20.sol\":10847:10852  value */\n      dup5\n        /* \"@openzeppelin/contracts/token/ERC20/ERC20.sol\":10828:10844  currentAllowance */\n      dup5\n        /* \"@openzeppelin/contracts/token/ERC20/ERC20.sol\":10828:10852  currentAllowance - value */\n      sub\n        /* \"@openzeppelin/contracts/token/ERC20/ERC20.sol\":10854:10859  false */\n      0x00\n        /* \"@openzeppelin/contracts/token/ERC20/ERC20.sol\":10803:10811  _approve */\n      tag_178\n        /* \"@openzeppelin/contracts/token/ERC20/ERC20.sol\":10803:10860  _approve(owner, spender, currentAllowance - value, false) */\n      jump\t// in\n    tag_185:\n        /* \"@openzeppelin/contracts/token/ERC20/ERC20.sol\":10504:10891  {... */\n      pop\n        /* \"@openzeppelin/contracts/token/ERC20/ERC20.sol\":10415:10891  function _spendAllowance(address owner, address spender, uint256 value) internal virtual {... */\n      pop\n      pop\n      pop\n      jump\t// out\n        /* \"@openzeppelin/contracts/token/ERC20/ERC20.sol\":5393:5693  function _transfer(address from, address to, uint256 value) internal {... */\n    tag_117:\n      sub(shl(0xa0, 0x01), 0x01)\n        /* \"@openzeppelin/contracts/token/ERC20/ERC20.sol\":5476:5494  from == address(0) */\n      dup4\n      and\n        /* \"@openzeppelin/contracts/token/ERC20/ERC20.sol\":5472:5558  if (from == address(0)) {... */\n      tag_187\n      jumpi\n        /* \"@openzeppelin/contracts/token/ERC20/ERC20.sol\":5517:5547  ERC20InvalidSender(address(0)) */\n      mload(0x40)\n      shl(0xe1, 0x4b637e8f)\n      dup2\n      mstore\n        /* \"@openzeppelin/contracts/token/ERC20/ERC20.sol\":5544:5545  0 */\n      0x00\n        /* \"@openzeppelin/contracts/token/ERC20/ERC20.sol\":5517:5547  ERC20InvalidSender(address(0)) */\n      0x04\n      dup3\n      add\n        /* \"#utility.yul\":2430:2481   */\n      mstore\n        /* \"#utility.yul\":2403:2421   */\n      0x24\n      add\n        /* \"@openzeppelin/contracts/token/ERC20/ERC20.sol\":5517:5547  ERC20InvalidSender(address(0)) */\n      tag_129\n        /* \"#utility.yul\":2284:2487   */\n      jump\n        /* \"@openzeppelin/contracts/token/ERC20/ERC20.sol\":5472:5558  if (from == address(0)) {... */\n    tag_187:\n      sub(shl(0xa0, 0x01), 0x01)\n        /* \"@openzeppelin/contracts/token/ERC20/ERC20.sol\":5571:5587  to == address(0) */\n      dup3\n      and\n        /* \"@openzeppelin/contracts/token/ERC20/ERC20.sol\":5567:5653  if (to == address(0)) {... */\n      tag_189\n      jumpi\n        /* \"@openzeppelin/contracts/token/ERC20/ERC20.sol\":5610:5642  ERC20InvalidReceiver(address(0)) */\n      mload(0x40)\n      shl(0xe0, 0xec442f05)\n      dup2\n      mstore\n        /* \"@openzeppelin/contracts/token/ERC20/ERC20.sol\":5639:5640  0 */\n      0x00\n        /* \"@openzeppelin/contracts/token/ERC20/ERC20.sol\":5610:5642  ERC20InvalidReceiver(address(0)) */\n      0x04\n      dup3\n      add\n        /* \"#utility.yul\":2430:2481   */\n      mstore\n        /* \"#utility.yul\":2403:2421   */\n      0x24\n      add\n        /* \"@openzeppelin/contracts/token/ERC20/ERC20.sol\":5610:5642  ERC20InvalidReceiver(address(0)) */\n      tag_129\n        /* \"#utility.yul\":2284:2487   */\n      jump\n        /* \"@openzeppelin/contracts/token/ERC20/ERC20.sol\":5567:5653  if (to == address(0)) {... */\n    tag_189:\n        /* \"@openzeppelin/contracts/token/ERC20/ERC20.sol\":5662:5686  _update(from, to, value) */\n      tag_177\n        /* \"@openzeppelin/contracts/token/ERC20/ERC20.sol\":5670:5674  from */\n      dup4\n        /* \"@openzeppelin/contracts/token/ERC20/ERC20.sol\":5676:5678  to */\n      dup4\n        /* \"@openzeppelin/contracts/token/ERC20/ERC20.sol\":5680:5685  value */\n      dup4\n        /* \"@openzeppelin/contracts/token/ERC20/ERC20.sol\":5662:5669  _update */\n      tag_192\n        /* \"@openzeppelin/contracts/token/ERC20/ERC20.sol\":5662:5686  _update(from, to, value) */\n      jump\t// in\n        /* \"@openzeppelin/contracts/token/ERC20/ERC20.sol\":7984:8190  function _burn(address account, uint256 value) internal {... */\n    tag_122:\n      sub(shl(0xa0, 0x01), 0x01)\n        /* \"@openzeppelin/contracts/token/ERC20/ERC20.sol\":8054:8075  account == address(0) */\n      dup3\n      and\n        /* \"@openzeppelin/contracts/token/ERC20/ERC20.sol\":8050:8139  if (account == address(0)) {... */\n      tag_194\n      jumpi\n        /* \"@openzeppelin/contracts/token/ERC20/ERC20.sol\":8098:8128  ERC20InvalidSender(address(0)) */\n      mload(0x40)\n      shl(0xe1, 0x4b637e8f)\n      dup2\n      mstore\n        /* \"@openzeppelin/contracts/token/ERC20/ERC20.sol\":8125:8126  0 */\n      0x00\n        /* \"@openzeppelin/contracts/token/ERC20/ERC20.sol\":8098:8128  ERC20InvalidSender(address(0)) */\n      0x04\n      dup3\n      add\n        /* \"#utility.yul\":2430:2481   */\n      mstore\n        /* \"#utility.yul\":2403:2421   */\n      0x24\n      add\n        /* \"@openzeppelin/contracts/token/ERC20/ERC20.sol\":8098:8128  ERC20InvalidSender(address(0)) */\n      tag_129\n        /* \"#utility.yul\":2284:2487   */\n      jump\n        /* \"@openzeppelin/contracts/token/ERC20/ERC20.sol\":8050:8139  if (account == address(0)) {... */\n    tag_194:\n        /* \"@openzeppelin/contracts/token/ERC20/ERC20.sol\":8148:8183  _update(account, address(0), value) */\n      tag_148\n        /* \"@openzeppelin/contracts/token/ERC20/ERC20.sol\":8156:8163  account */\n      dup3\n        /* \"@openzeppelin/contracts/token/ERC20/ERC20.sol\":8173:8174  0 */\n      0x00\n        /* \"@openzeppelin/contracts/token/ERC20/ERC20.sol\":8177:8182  value */\n      dup4\n        /* \"@openzeppelin/contracts/token/ERC20/ERC20.sol\":8148:8155  _update */\n      tag_192\n        /* \"@openzeppelin/contracts/token/ERC20/ERC20.sol\":8148:8183  _update(account, address(0), value) */\n      jump\t// in\n        /* \"@openzeppelin/contracts/access/Ownable.sol\":1796:1958  function _checkOwner() internal view virtual {... */\n    tag_125:\n        /* \"@openzeppelin/contracts/access/Ownable.sol\":1710:1716  _owner */\n      and(sub(shl(0xa0, 0x01), 0x01), sload(0x05))\n        /* \"@openzeppelin/contracts/utils/Context.sol\":735:745  msg.sender */\n      caller\n        /* \"@openzeppelin/contracts/access/Ownable.sol\":1855:1878  owner() != _msgSender() */\n      eq\n        /* \"@openzeppelin/contracts/access/Ownable.sol\":1851:1952  if (owner() != _msgSender()) {... */\n      tag_143\n      jumpi\n        /* \"@openzeppelin/contracts/access/Ownable.sol\":1901:1941  OwnableUnauthorizedAccount(_msgSender()) */\n      mload(0x40)\n      shl(0xe0, 0x118cdaa7)\n      dup2\n      mstore\n        /* \"@openzeppelin/contracts/utils/Context.sol\":735:745  msg.sender */\n      caller\n        /* \"@openzeppelin/contracts/access/Ownable.sol\":1901:1941  OwnableUnauthorizedAccount(_msgSender()) */\n      0x04\n      dup3\n      add\n        /* \"#utility.yul\":2430:2481   */\n      mstore\n        /* \"#utility.yul\":2403:2421   */\n      0x24\n      add\n        /* \"@openzeppelin/contracts/access/Ownable.sol\":1901:1941  OwnableUnauthorizedAccount(_msgSender()) */\n      tag_129\n        /* \"#utility.yul\":2284:2487   */\n      jump\n        /* \"@openzeppelin/contracts/utils/math/SafeMath.sol\":3122:3218  function sub(uint256 a, uint256 b) internal pure returns (uint256) {... */\n    tag_132:\n        /* \"@openzeppelin/contracts/utils/math/SafeMath.sol\":3180:3187  uint256 */\n      0x00\n        /* \"@openzeppelin/contracts/utils/math/SafeMath.sol\":3206:3211  a - b */\n      tag_204\n        /* \"@openzeppelin/contracts/utils/math/SafeMath.sol\":3210:3211  b */\n      dup3\n        /* \"@openzeppelin/contracts/utils/math/SafeMath.sol\":3206:3207  a */\n      dup5\n        /* \"@openzeppelin/contracts/utils/math/SafeMath.sol\":3206:3211  a - b */\n      tag_205\n      jump\t// in\n    tag_204:\n        /* \"@openzeppelin/contracts/utils/math/SafeMath.sol\":3199:3211  return a - b */\n      swap4\n        /* \"@openzeppelin/contracts/utils/math/SafeMath.sol\":3122:3218  function sub(uint256 a, uint256 b) internal pure returns (uint256) {... */\n      swap3\n      pop\n      pop\n      pop\n      jump\t// out\n        /* \"@openzeppelin/contracts/utils/math/SafeMath.sol\":2755:2851  function add(uint256 a, uint256 b) internal pure returns (uint256) {... */\n    tag_134:\n        /* \"@openzeppelin/contracts/utils/math/SafeMath.sol\":2813:2820  uint256 */\n      0x00\n        /* \"@openzeppelin/contracts/utils/math/SafeMath.sol\":2839:2844  a + b */\n      tag_204\n        /* \"@openzeppelin/contracts/utils/math/SafeMath.sol\":2843:2844  b */\n      dup3\n        /* \"@openzeppelin/contracts/utils/math/SafeMath.sol\":2839:2840  a */\n      dup5\n        /* \"@openzeppelin/contracts/utils/math/SafeMath.sol\":2839:2844  a + b */\n      tag_208\n      jump\t// in\n        /* \"@openzeppelin/contracts/access/Ownable.sol\":2912:3099  function _transferOwnership(address newOwner) internal virtual {... */\n    tag_144:\n        /* \"@openzeppelin/contracts/access/Ownable.sol\":3004:3010  _owner */\n      0x05\n      dup1\n      sload\n      sub(shl(0xa0, 0x01), 0x01)\n        /* \"@openzeppelin/contracts/access/Ownable.sol\":3020:3037  _owner = newOwner */\n      dup4\n      dup2\n      and\n      not(sub(shl(0xa0, 0x01), 0x01))\n      dup4\n      and\n      dup2\n      or\n      swap1\n      swap4\n      sstore\n        /* \"@openzeppelin/contracts/access/Ownable.sol\":3052:3092  OwnershipTransferred(oldOwner, newOwner) */\n      mload(0x40)\n        /* \"@openzeppelin/contracts/access/Ownable.sol\":3004:3010  _owner */\n      swap2\n      and\n      swap2\n        /* \"@openzeppelin/contracts/access/Ownable.sol\":3020:3037  _owner = newOwner */\n      swap1\n        /* \"@openzeppelin/contracts/access/Ownable.sol\":3004:3010  _owner */\n      dup3\n      swap1\n        /* \"@openzeppelin/contracts/access/Ownable.sol\":3052:3092  OwnershipTransferred(oldOwner, newOwner) */\n      0x8be0079c531659141344cd1fd0a4f28419497f9722a3daafe3b4186f6b6457e0\n      swap1\n        /* \"@openzeppelin/contracts/access/Ownable.sol\":2985:3001  address oldOwner */\n      0x00\n      swap1\n        /* \"@openzeppelin/contracts/access/Ownable.sol\":3052:3092  OwnershipTransferred(oldOwner, newOwner) */\n      log3\n        /* \"@openzeppelin/contracts/access/Ownable.sol\":2975:3099  {... */\n      pop\n        /* \"@openzeppelin/contracts/access/Ownable.sol\":2912:3099  function _transferOwnership(address newOwner) internal virtual {... */\n      pop\n      jump\t// out\n        /* \"@openzeppelin/contracts/utils/math/SafeMath.sol\":3465:3561  function mul(uint256 a, uint256 b) internal pure returns (uint256) {... */\n    tag_173:\n        /* \"@openzeppelin/contracts/utils/math/SafeMath.sol\":3523:3530  uint256 */\n      0x00\n        /* \"@openzeppelin/contracts/utils/math/SafeMath.sol\":3549:3554  a * b */\n      tag_204\n        /* \"@openzeppelin/contracts/utils/math/SafeMath.sol\":3553:3554  b */\n      dup3\n        /* \"@openzeppelin/contracts/utils/math/SafeMath.sol\":3549:3550  a */\n      dup5\n        /* \"@openzeppelin/contracts/utils/math/SafeMath.sol\":3549:3554  a * b */\n      tag_212\n      jump\t// in\n        /* \"@openzeppelin/contracts/utils/math/SafeMath.sol\":3850:3946  function div(uint256 a, uint256 b) internal pure returns (uint256) {... */\n    tag_174:\n        /* \"@openzeppelin/contracts/utils/math/SafeMath.sol\":3908:3915  uint256 */\n      0x00\n        /* \"@openzeppelin/contracts/utils/math/SafeMath.sol\":3934:3939  a / b */\n      tag_204\n        /* \"@openzeppelin/contracts/utils/math/SafeMath.sol\":3938:3939  b */\n      dup3\n        /* \"@openzeppelin/contracts/utils/math/SafeMath.sol\":3934:3935  a */\n      dup5\n        /* \"@openzeppelin/contracts/utils/math/SafeMath.sol\":3934:3939  a / b */\n      tag_215\n      jump\t// in\n        /* \"@openzeppelin/contracts/token/ERC20/ERC20.sol\":9701:10133  function _approve(address owner, address spender, uint256 value, bool emitEvent) internal virtual {... */\n    tag_178:\n      sub(shl(0xa0, 0x01), 0x01)\n        /* \"@openzeppelin/contracts/token/ERC20/ERC20.sol\":9813:9832  owner == address(0) */\n      dup5\n      and\n        /* \"@openzeppelin/contracts/token/ERC20/ERC20.sol\":9809:9898  if (owner == address(0)) {... */\n      tag_217\n      jumpi\n        /* \"@openzeppelin/contracts/token/ERC20/ERC20.sol\":9855:9887  ERC20InvalidApprover(address(0)) */\n      mload(0x40)\n      shl(0xe0, 0xe602df05)\n      dup2\n      mstore\n        /* \"@openzeppelin/contracts/token/ERC20/ERC20.sol\":9884:9885  0 */\n      0x00\n        /* \"@openzeppelin/contracts/token/ERC20/ERC20.sol\":9855:9887  ERC20InvalidApprover(address(0)) */\n      0x04\n      dup3\n      add\n        /* \"#utility.yul\":2430:2481   */\n      mstore\n        /* \"#utility.yul\":2403:2421   */\n      0x24\n      add\n        /* \"@openzeppelin/contracts/token/ERC20/ERC20.sol\":9855:9887  ERC20InvalidApprover(address(0)) */\n      tag_129\n        /* \"#utility.yul\":2284:2487   */\n      jump\n        /* \"@openzeppelin/contracts/token/ERC20/ERC20.sol\":9809:9898  if (owner == address(0)) {... */\n    tag_217:\n      sub(shl(0xa0, 0x01), 0x01)\n        /* \"@openzeppelin/contracts/token/ERC20/ERC20.sol\":9911:9932  spender == address(0) */\n      dup4\n      and\n        /* \"@openzeppelin/contracts/token/ERC20/ERC20.sol\":9907:9997  if (spender == address(0)) {... */\n      tag_219\n      jumpi\n        /* \"@openzeppelin/contracts/token/ERC20/ERC20.sol\":9955:9986  ERC20InvalidSpender(address(0)) */\n      mload(0x40)\n      shl(0xe1, 0x4a1406b1)\n      dup2\n      mstore\n        /* \"@openzeppelin/contracts/token/ERC20/ERC20.sol\":9983:9984  0 */\n      0x00\n        /* \"@openzeppelin/contracts/token/ERC20/ERC20.sol\":9955:9986  ERC20InvalidSpender(address(0)) */\n      0x04\n      dup3\n      add\n        /* \"#utility.yul\":2430:2481   */\n      mstore\n        /* \"#utility.yul\":2403:2421   */\n      0x24\n      add\n        /* \"@openzeppelin/contracts/token/ERC20/ERC20.sol\":9955:9986  ERC20InvalidSpender(address(0)) */\n      tag_129\n        /* \"#utility.yul\":2284:2487   */\n      jump\n        /* \"@openzeppelin/contracts/token/ERC20/ERC20.sol\":9907:9997  if (spender == address(0)) {... */\n    tag_219:\n      sub(shl(0xa0, 0x01), 0x01)\n        /* \"@openzeppelin/contracts/token/ERC20/ERC20.sol\":10006:10024  _allowances[owner] */\n      dup1\n      dup6\n      and\n      0x00\n      swap1\n      dup2\n      mstore\n        /* \"@openzeppelin/contracts/token/ERC20/ERC20.sol\":10006:10017  _allowances */\n      0x01\n        /* \"@openzeppelin/contracts/token/ERC20/ERC20.sol\":10006:10024  _allowances[owner] */\n      0x20\n      swap1\n      dup2\n      mstore\n      0x40\n      dup1\n      dup4\n      keccak256\n        /* \"@openzeppelin/contracts/token/ERC20/ERC20.sol\":10006:10033  _allowances[owner][spender] */\n      swap4\n      dup8\n      and\n      dup4\n      mstore\n      swap3\n      swap1\n      mstore\n      keccak256\n        /* \"@openzeppelin/contracts/token/ERC20/ERC20.sol\":10006:10041  _allowances[owner][spender] = value */\n      dup3\n      swap1\n      sstore\n        /* \"@openzeppelin/contracts/token/ERC20/ERC20.sol\":10051:10127  if (emitEvent) {... */\n      dup1\n      iszero\n      tag_185\n      jumpi\n        /* \"@openzeppelin/contracts/token/ERC20/ERC20.sol\":10101:10108  spender */\n      dup3\n      sub(shl(0xa0, 0x01), 0x01)\n        /* \"@openzeppelin/contracts/token/ERC20/ERC20.sol\":10085:10116  Approval(owner, spender, value) */\n      and\n        /* \"@openzeppelin/contracts/token/ERC20/ERC20.sol\":10094:10099  owner */\n      dup5\n      sub(shl(0xa0, 0x01), 0x01)\n        /* \"@openzeppelin/contracts/token/ERC20/ERC20.sol\":10085:10116  Approval(owner, spender, value) */\n      and\n      0x8c5be1e5ebec7d5bd14f71427d1e84f3dd0314c0f7b2291e5b200ac8c7c3b925\n        /* \"@openzeppelin/contracts/token/ERC20/ERC20.sol\":10110:10115  value */\n      dup5\n        /* \"@openzeppelin/contracts/token/ERC20/ERC20.sol\":10085:10116  Approval(owner, spender, value) */\n      mload(0x40)\n      tag_222\n      swap2\n        /* \"#utility.yul\":1258:1283   */\n      dup2\n      mstore\n        /* \"#utility.yul\":1246:1248   */\n      0x20\n        /* \"#utility.yul\":1231:1249   */\n      add\n      swap1\n        /* \"#utility.yul\":1112:1289   */\n      jump\n        /* \"@openzeppelin/contracts/token/ERC20/ERC20.sol\":10085:10116  Approval(owner, spender, value) */\n    tag_222:\n      mload(0x40)\n      dup1\n      swap2\n      sub\n      swap1\n      log3\n        /* \"@openzeppelin/contracts/token/ERC20/ERC20.sol\":9701:10133  function _approve(address owner, address spender, uint256 value, bool emitEvent) internal virtual {... */\n      pop\n      pop\n      pop\n      pop\n      jump\t// out\n        /* \"contracts/BasicVestingGovernanceToken.sol\":2590:2880  function _update(address from, address to, uint256 amount) internal virtual override{... */\n    tag_192:\n        /* \"contracts/BasicVestingGovernanceToken.sol\":2685:2716  super._update(from, to, amount) */\n      tag_224\n        /* \"contracts/BasicVestingGovernanceToken.sol\":2699:2703  from */\n      dup4\n        /* \"contracts/BasicVestingGovernanceToken.sol\":2705:2707  to */\n      dup4\n        /* \"contracts/BasicVestingGovernanceToken.sol\":2709:2715  amount */\n      dup4\n        /* \"contracts/BasicVestingGovernanceToken.sol\":2685:2698  super._update */\n      tag_225\n        /* \"contracts/BasicVestingGovernanceToken.sol\":2685:2716  super._update(from, to, amount) */\n      jump\t// in\n    tag_224:\n        /* \"contracts/BasicVestingGovernanceToken.sol\":2747:2751  this */\n      address\n      sub(shl(0xa0, 0x01), 0x01)\n        /* \"contracts/BasicVestingGovernanceToken.sol\":2731:2752  from == address(this) */\n      dup5\n      and\n      sub\n        /* \"contracts/BasicVestingGovernanceToken.sol\":2727:2873  if (from == address(this)) {... */\n      tag_177\n      jumpi\n        /* \"@openzeppelin/contracts/access/Ownable.sol\":1710:1716  _owner */\n      sload(0x05)\n      sub(shl(0xa0, 0x01), 0x01)\n        /* \"contracts/BasicVestingGovernanceToken.sol\":2776:2789  to == owner() */\n      dup4\n      dup2\n      and\n        /* \"@openzeppelin/contracts/access/Ownable.sol\":1710:1716  _owner */\n      swap2\n      and\n        /* \"contracts/BasicVestingGovernanceToken.sol\":2776:2789  to == owner() */\n      eq\n        /* \"contracts/BasicVestingGovernanceToken.sol\":2776:2814  to == owner() && msg.sender == owner() */\n      dup1\n      iszero\n      tag_228\n      jumpi\n      pop\n        /* \"@openzeppelin/contracts/access/Ownable.sol\":1710:1716  _owner */\n      and(sub(shl(0xa0, 0x01), 0x01), sload(0x05))\n        /* \"contracts/BasicVestingGovernanceToken.sol\":2793:2803  msg.sender */\n      caller\n        /* \"contracts/BasicVestingGovernanceToken.sol\":2793:2814  msg.sender == owner() */\n      eq\n        /* \"contracts/BasicVestingGovernanceToken.sol\":2776:2814  to == owner() && msg.sender == owner() */\n    tag_228:\n        /* \"contracts/BasicVestingGovernanceToken.sol\":2768:2862  require(to == owner() && msg.sender == owner(), \"ERC20: cannot transfer locked vested tokens\") */\n      tag_177\n      jumpi\n      mload(0x40)\n      shl(0xe5, 0x461bcd)\n      dup2\n      mstore\n        /* \"#utility.yul\":4887:4889   */\n      0x20\n        /* \"contracts/BasicVestingGovernanceToken.sol\":2768:2862  require(to == owner() && msg.sender == owner(), \"ERC20: cannot transfer locked vested tokens\") */\n      0x04\n      dup3\n      add\n        /* \"#utility.yul\":4869:4890   */\n      mstore\n        /* \"#utility.yul\":4926:4928   */\n      0x2b\n        /* \"#utility.yul\":4906:4924   */\n      0x24\n      dup3\n      add\n        /* \"#utility.yul\":4899:4929   */\n      mstore\n        /* \"#utility.yul\":4965:4999   */\n      0x45524332303a2063616e6e6f74207472616e73666572206c6f636b6564207665\n        /* \"#utility.yul\":4945:4963   */\n      0x44\n      dup3\n      add\n        /* \"#utility.yul\":4938:5000   */\n      mstore\n      shl(0xa8, 0x7374656420746f6b656e73)\n        /* \"#utility.yul\":5016:5034   */\n      0x64\n      dup3\n      add\n        /* \"#utility.yul\":5009:5050   */\n      mstore\n        /* \"#utility.yul\":5067:5086   */\n      0x84\n      add\n        /* \"contracts/BasicVestingGovernanceToken.sol\":2768:2862  require(to == owner() && msg.sender == owner(), \"ERC20: cannot transfer locked vested tokens\") */\n      tag_129\n        /* \"#utility.yul\":4685:5092   */\n      jump\n        /* \"@openzeppelin/contracts/token/ERC20/ERC20.sol\":6008:7115  function _update(address from, address to, uint256 value) internal virtual {... */\n    tag_225:\n      sub(shl(0xa0, 0x01), 0x01)\n        /* \"@openzeppelin/contracts/token/ERC20/ERC20.sol\":6097:6115  from == address(0) */\n      dup4\n      and\n        /* \"@openzeppelin/contracts/token/ERC20/ERC20.sol\":6093:6633  if (from == address(0)) {... */\n      tag_234\n      jumpi\n        /* \"@openzeppelin/contracts/token/ERC20/ERC20.sol\":6249:6254  value */\n      dup1\n        /* \"@openzeppelin/contracts/token/ERC20/ERC20.sol\":6233:6245  _totalSupply */\n      0x02\n      0x00\n        /* \"@openzeppelin/contracts/token/ERC20/ERC20.sol\":6233:6254  _totalSupply += value */\n      dup3\n      dup3\n      sload\n      tag_235\n      swap2\n      swap1\n      tag_208\n      jump\t// in\n    tag_235:\n      swap1\n      swap2\n      sstore\n      pop\n        /* \"@openzeppelin/contracts/token/ERC20/ERC20.sol\":6093:6633  if (from == address(0)) {... */\n      tag_236\n      swap1\n      pop\n      jump\n    tag_234:\n      sub(shl(0xa0, 0x01), 0x01)\n        /* \"@openzeppelin/contracts/token/ERC20/ERC20.sol\":6307:6322  _balances[from] */\n      dup4\n      and\n        /* \"@openzeppelin/contracts/token/ERC20/ERC20.sol\":6285:6304  uint256 fromBalance */\n      0x00\n        /* \"@openzeppelin/contracts/token/ERC20/ERC20.sol\":6307:6322  _balances[from] */\n      swap1\n      dup2\n      mstore\n      0x20\n      dup2\n      swap1\n      mstore\n      0x40\n      swap1\n      keccak256\n      sload\n        /* \"@openzeppelin/contracts/token/ERC20/ERC20.sol\":6340:6359  fromBalance < value */\n      dup2\n      dup2\n      lt\n        /* \"@openzeppelin/contracts/token/ERC20/ERC20.sol\":6336:6451  if (fromBalance < value) {... */\n      iszero\n      tag_237\n      jumpi\n        /* \"@openzeppelin/contracts/token/ERC20/ERC20.sol\":6386:6436  ERC20InsufficientBalance(from, fromBalance, value) */\n      mload(0x40)\n      shl(0xe2, 0x391434e3)\n      dup2\n      mstore\n      sub(shl(0xa0, 0x01), 0x01)\n        /* \"#utility.yul\":3765:3797   */\n      dup6\n      and\n        /* \"@openzeppelin/contracts/token/ERC20/ERC20.sol\":6386:6436  ERC20InsufficientBalance(from, fromBalance, value) */\n      0x04\n      dup3\n      add\n        /* \"#utility.yul\":3747:3798   */\n      mstore\n        /* \"#utility.yul\":3814:3832   */\n      0x24\n      dup2\n      add\n        /* \"#utility.yul\":3807:3841   */\n      dup3\n      swap1\n      mstore\n        /* \"#utility.yul\":3857:3875   */\n      0x44\n      dup2\n      add\n        /* \"#utility.yul\":3850:3884   */\n      dup4\n      swap1\n      mstore\n        /* \"#utility.yul\":3720:3738   */\n      0x64\n      add\n        /* \"@openzeppelin/contracts/token/ERC20/ERC20.sol\":6386:6436  ERC20InsufficientBalance(from, fromBalance, value) */\n      tag_129\n        /* \"#utility.yul\":3545:3890   */\n      jump\n        /* \"@openzeppelin/contracts/token/ERC20/ERC20.sol\":6336:6451  if (fromBalance < value) {... */\n    tag_237:\n      sub(shl(0xa0, 0x01), 0x01)\n        /* \"@openzeppelin/contracts/token/ERC20/ERC20.sol\":6571:6586  _balances[from] */\n      dup5\n      and\n        /* \"@openzeppelin/contracts/token/ERC20/ERC20.sol\":6571:6580  _balances */\n      0x00\n        /* \"@openzeppelin/contracts/token/ERC20/ERC20.sol\":6571:6586  _balances[from] */\n      swap1\n      dup2\n      mstore\n      0x20\n      dup2\n      swap1\n      mstore\n      0x40\n      swap1\n      keccak256\n        /* \"@openzeppelin/contracts/token/ERC20/ERC20.sol\":6589:6608  fromBalance - value */\n      swap1\n      dup3\n      swap1\n      sub\n        /* \"@openzeppelin/contracts/token/ERC20/ERC20.sol\":6571:6608  _balances[from] = fromBalance - value */\n      swap1\n      sstore\n        /* \"@openzeppelin/contracts/token/ERC20/ERC20.sol\":6093:6633  if (from == address(0)) {... */\n    tag_236:\n      sub(shl(0xa0, 0x01), 0x01)\n        /* \"@openzeppelin/contracts/token/ERC20/ERC20.sol\":6647:6663  to == address(0) */\n      dup3\n      and\n        /* \"@openzeppelin/contracts/token/ERC20/ERC20.sol\":6643:7068  if (to == address(0)) {... */\n      tag_239\n      jumpi\n        /* \"@openzeppelin/contracts/token/ERC20/ERC20.sol\":6810:6822  _totalSupply */\n      0x02\n        /* \"@openzeppelin/contracts/token/ERC20/ERC20.sol\":6810:6831  _totalSupply -= value */\n      dup1\n      sload\n      dup3\n      swap1\n      sub\n      swap1\n      sstore\n        /* \"@openzeppelin/contracts/token/ERC20/ERC20.sol\":6643:7068  if (to == address(0)) {... */\n      jump(tag_240)\n    tag_239:\n      sub(shl(0xa0, 0x01), 0x01)\n        /* \"@openzeppelin/contracts/token/ERC20/ERC20.sol\":7021:7034  _balances[to] */\n      dup3\n      and\n        /* \"@openzeppelin/contracts/token/ERC20/ERC20.sol\":7021:7030  _balances */\n      0x00\n        /* \"@openzeppelin/contracts/token/ERC20/ERC20.sol\":7021:7034  _balances[to] */\n      swap1\n      dup2\n      mstore\n      0x20\n      dup2\n      swap1\n      mstore\n      0x40\n      swap1\n      keccak256\n        /* \"@openzeppelin/contracts/token/ERC20/ERC20.sol\":7021:7043  _balances[to] += value */\n      dup1\n      sload\n      dup3\n      add\n      swap1\n      sstore\n        /* \"@openzeppelin/contracts/token/ERC20/ERC20.sol\":6643:7068  if (to == address(0)) {... */\n    tag_240:\n        /* \"@openzeppelin/contracts/token/ERC20/ERC20.sol\":7098:7100  to */\n      dup2\n      sub(shl(0xa0, 0x01), 0x01)\n        /* \"@openzeppelin/contracts/token/ERC20/ERC20.sol\":7083:7108  Transfer(from, to, value) */\n      and\n        /* \"@openzeppelin/contracts/token/ERC20/ERC20.sol\":7092:7096  from */\n      dup4\n      sub(shl(0xa0, 0x01), 0x01)\n        /* \"@openzeppelin/contracts/token/ERC20/ERC20.sol\":7083:7108  Transfer(from, to, value) */\n      and\n      0xddf252ad1be2c89b69c2b068fc378daa952ba7f163c4a11628f55a4df523b3ef\n        /* \"@openzeppelin/contracts/token/ERC20/ERC20.sol\":7102:7107  value */\n      dup4\n        /* \"@openzeppelin/contracts/token/ERC20/ERC20.sol\":7083:7108  Transfer(from, to, value) */\n      mload(0x40)\n      tag_241\n      swap2\n        /* \"#utility.yul\":1258:1283   */\n      dup2\n      mstore\n        /* \"#utility.yul\":1246:1248   */\n      0x20\n        /* \"#utility.yul\":1231:1249   */\n      add\n      swap1\n        /* \"#utility.yul\":1112:1289   */\n      jump\n        /* \"@openzeppelin/contracts/token/ERC20/ERC20.sol\":7083:7108  Transfer(from, to, value) */\n    tag_241:\n      mload(0x40)\n      dup1\n      swap2\n      sub\n      swap1\n      log3\n        /* \"@openzeppelin/contracts/token/ERC20/ERC20.sol\":6008:7115  function _update(address from, address to, uint256 value) internal virtual {... */\n      pop\n      pop\n      pop\n      jump\t// out\n        /* \"#utility.yul\":14:432   */\n    tag_29:\n        /* \"#utility.yul\":163:165   */\n      0x20\n        /* \"#utility.yul\":152:161   */\n      dup2\n        /* \"#utility.yul\":145:166   */\n      mstore\n        /* \"#utility.yul\":126:130   */\n      0x00\n        /* \"#utility.yul\":195:201   */\n      dup3\n        /* \"#utility.yul\":189:202   */\n      mload\n        /* \"#utility.yul\":238:244   */\n      dup1\n        /* \"#utility.yul\":233:235   */\n      0x20\n        /* \"#utility.yul\":222:231   */\n      dup5\n        /* \"#utility.yul\":218:236   */\n      add\n        /* \"#utility.yul\":211:245   */\n      mstore\n        /* \"#utility.yul\":297:303   */\n      dup1\n        /* \"#utility.yul\":292:294   */\n      0x20\n        /* \"#utility.yul\":284:290   */\n      dup6\n        /* \"#utility.yul\":280:295   */\n      add\n        /* \"#utility.yul\":275:277   */\n      0x40\n        /* \"#utility.yul\":264:273   */\n      dup6\n        /* \"#utility.yul\":260:278   */\n      add\n        /* \"#utility.yul\":254:304   */\n      mcopy\n        /* \"#utility.yul\":353:354   */\n      0x00\n        /* \"#utility.yul\":348:350   */\n      0x40\n        /* \"#utility.yul\":339:345   */\n      dup3\n        /* \"#utility.yul\":328:337   */\n      dup6\n        /* \"#utility.yul\":324:346   */\n      add\n        /* \"#utility.yul\":320:351   */\n      add\n        /* \"#utility.yul\":313:355   */\n      mstore\n        /* \"#utility.yul\":423:425   */\n      0x40\n        /* \"#utility.yul\":416:418   */\n      0x1f\n        /* \"#utility.yul\":412:419   */\n      not\n        /* \"#utility.yul\":407:409   */\n      0x1f\n        /* \"#utility.yul\":399:405   */\n      dup4\n        /* \"#utility.yul\":395:410   */\n      add\n        /* \"#utility.yul\":391:420   */\n      and\n        /* \"#utility.yul\":380:389   */\n      dup5\n        /* \"#utility.yul\":376:421   */\n      add\n        /* \"#utility.yul\":372:426   */\n      add\n        /* \"#utility.yul\":364:426   */\n      swap2\n      pop\n      pop\n        /* \"#utility.yul\":14:432   */\n      swap3\n      swap2\n      pop\n      pop\n      jump\t// out\n        /* \"#utility.yul\":437:610   */\n    tag_242:\n        /* \"#utility.yul\":505:525   */\n      dup1\n      calldataload\n      sub(shl(0xa0, 0x01), 0x01)\n        /* \"#utility.yul\":554:585   */\n      dup2\n      and\n        /* \"#utility.yul\":544:586   */\n      dup2\n      eq\n        /* \"#utility.yul\":534:604   */\n      tag_247\n      jumpi\n        /* \"#utility.yul\":600:601   */\n      0x00\n        /* \"#utility.yul\":597:598   */\n      dup1\n        /* \"#utility.yul\":590:602   */\n      revert\n        /* \"#utility.yul\":534:604   */\n    tag_247:\n        /* \"#utility.yul\":437:610   */\n      swap2\n      swap1\n      pop\n      jump\t// out\n        /* \"#utility.yul\":615:915   */\n    tag_32:\n        /* \"#utility.yul\":683:689   */\n      0x00\n        /* \"#utility.yul\":691:697   */\n      dup1\n        /* \"#utility.yul\":744:746   */\n      0x40\n        /* \"#utility.yul\":732:741   */\n      dup4\n        /* \"#utility.yul\":723:730   */\n      dup6\n        /* \"#utility.yul\":719:742   */\n      sub\n        /* \"#utility.yul\":715:747   */\n      slt\n        /* \"#utility.yul\":712:764   */\n      iszero\n      tag_249\n      jumpi\n        /* \"#utility.yul\":760:761   */\n      0x00\n        /* \"#utility.yul\":757:758   */\n      dup1\n        /* \"#utility.yul\":750:762   */\n      revert\n        /* \"#utility.yul\":712:764   */\n    tag_249:\n        /* \"#utility.yul\":783:812   */\n      tag_250\n        /* \"#utility.yul\":802:811   */\n      dup4\n        /* \"#utility.yul\":783:812   */\n      tag_242\n      jump\t// in\n    tag_250:\n        /* \"#utility.yul\":773:812   */\n      swap5\n        /* \"#utility.yul\":881:883   */\n      0x20\n        /* \"#utility.yul\":866:884   */\n      swap4\n      swap1\n      swap4\n      add\n        /* \"#utility.yul\":853:885   */\n      calldataload\n      swap4\n      pop\n      pop\n      pop\n        /* \"#utility.yul\":615:915   */\n      jump\t// out\n        /* \"#utility.yul\":1294:1668   */\n    tag_45:\n        /* \"#utility.yul\":1371:1377   */\n      0x00\n        /* \"#utility.yul\":1379:1385   */\n      dup1\n        /* \"#utility.yul\":1387:1393   */\n      0x00\n        /* \"#utility.yul\":1440:1442   */\n      0x60\n        /* \"#utility.yul\":1428:1437   */\n      dup5\n        /* \"#utility.yul\":1419:1426   */\n      dup7\n        /* \"#utility.yul\":1415:1438   */\n      sub\n        /* \"#utility.yul\":1411:1443   */\n      slt\n        /* \"#utility.yul\":1408:1460   */\n      iszero\n      tag_254\n      jumpi\n        /* \"#utility.yul\":1456:1457   */\n      0x00\n        /* \"#utility.yul\":1453:1454   */\n      dup1\n        /* \"#utility.yul\":1446:1458   */\n      revert\n        /* \"#utility.yul\":1408:1460   */\n    tag_254:\n        /* \"#utility.yul\":1479:1508   */\n      tag_255\n        /* \"#utility.yul\":1498:1507   */\n      dup5\n        /* \"#utility.yul\":1479:1508   */\n      tag_242\n      jump\t// in\n    tag_255:\n        /* \"#utility.yul\":1469:1508   */\n      swap3\n      pop\n        /* \"#utility.yul\":1527:1565   */\n      tag_256\n        /* \"#utility.yul\":1561:1563   */\n      0x20\n        /* \"#utility.yul\":1550:1559   */\n      dup6\n        /* \"#utility.yul\":1546:1564   */\n      add\n        /* \"#utility.yul\":1527:1565   */\n      tag_242\n      jump\t// in\n    tag_256:\n        /* \"#utility.yul\":1294:1668   */\n      swap3\n      swap6\n        /* \"#utility.yul\":1517:1565   */\n      swap3\n      swap5\n      pop\n      pop\n      pop\n        /* \"#utility.yul\":1634:1636   */\n      0x40\n        /* \"#utility.yul\":1619:1637   */\n      swap2\n      swap1\n      swap2\n      add\n        /* \"#utility.yul\":1606:1638   */\n      calldataload\n      swap1\n        /* \"#utility.yul\":1294:1668   */\n      jump\t// out\n        /* \"#utility.yul\":1862:2088   */\n    tag_54:\n        /* \"#utility.yul\":1921:1927   */\n      0x00\n        /* \"#utility.yul\":1974:1976   */\n      0x20\n        /* \"#utility.yul\":1962:1971   */\n      dup3\n        /* \"#utility.yul\":1953:1960   */\n      dup5\n        /* \"#utility.yul\":1949:1972   */\n      sub\n        /* \"#utility.yul\":1945:1977   */\n      slt\n        /* \"#utility.yul\":1942:1994   */\n      iszero\n      tag_259\n      jumpi\n        /* \"#utility.yul\":1990:1991   */\n      0x00\n        /* \"#utility.yul\":1987:1988   */\n      dup1\n        /* \"#utility.yul\":1980:1992   */\n      revert\n        /* \"#utility.yul\":1942:1994   */\n    tag_259:\n      pop\n        /* \"#utility.yul\":2035:2058   */\n      calldataload\n      swap2\n        /* \"#utility.yul\":1862:2088   */\n      swap1\n      pop\n      jump\t// out\n        /* \"#utility.yul\":2093:2279   */\n    tag_63:\n        /* \"#utility.yul\":2152:2158   */\n      0x00\n        /* \"#utility.yul\":2205:2207   */\n      0x20\n        /* \"#utility.yul\":2193:2202   */\n      dup3\n        /* \"#utility.yul\":2184:2191   */\n      dup5\n        /* \"#utility.yul\":2180:2203   */\n      sub\n        /* \"#utility.yul\":2176:2208   */\n      slt\n        /* \"#utility.yul\":2173:2225   */\n      iszero\n      tag_261\n      jumpi\n        /* \"#utility.yul\":2221:2222   */\n      0x00\n        /* \"#utility.yul\":2218:2219   */\n      dup1\n        /* \"#utility.yul\":2211:2223   */\n      revert\n        /* \"#utility.yul\":2173:2225   */\n    tag_261:\n        /* \"#utility.yul\":2244:2273   */\n      tag_204\n        /* \"#utility.yul\":2263:2272   */\n      dup3\n        /* \"#utility.yul\":2244:2273   */\n      tag_242\n      jump\t// in\n        /* \"#utility.yul\":2492:2752   */\n    tag_90:\n        /* \"#utility.yul\":2560:2566   */\n      0x00\n        /* \"#utility.yul\":2568:2574   */\n      dup1\n        /* \"#utility.yul\":2621:2623   */\n      0x40\n        /* \"#utility.yul\":2609:2618   */\n      dup4\n        /* \"#utility.yul\":2600:2607   */\n      dup6\n        /* \"#utility.yul\":2596:2619   */\n      sub\n        /* \"#utility.yul\":2592:2624   */\n      slt\n        /* \"#utility.yul\":2589:2641   */\n      iszero\n      tag_265\n      jumpi\n        /* \"#utility.yul\":2637:2638   */\n      0x00\n        /* \"#utility.yul\":2634:2635   */\n      dup1\n        /* \"#utility.yul\":2627:2639   */\n      revert\n        /* \"#utility.yul\":2589:2641   */\n    tag_265:\n        /* \"#utility.yul\":2660:2689   */\n      tag_266\n        /* \"#utility.yul\":2679:2688   */\n      dup4\n        /* \"#utility.yul\":2660:2689   */\n      tag_242\n      jump\t// in\n    tag_266:\n        /* \"#utility.yul\":2650:2689   */\n      swap2\n      pop\n        /* \"#utility.yul\":2708:2746   */\n      tag_267\n        /* \"#utility.yul\":2742:2744   */\n      0x20\n        /* \"#utility.yul\":2731:2740   */\n      dup5\n        /* \"#utility.yul\":2727:2745   */\n      add\n        /* \"#utility.yul\":2708:2746   */\n      tag_242\n      jump\t// in\n    tag_267:\n        /* \"#utility.yul\":2698:2746   */\n      swap1\n      pop\n        /* \"#utility.yul\":2492:2752   */\n      swap3\n      pop\n      swap3\n      swap1\n      pop\n      jump\t// out\n        /* \"#utility.yul\":2757:3137   */\n    tag_101:\n        /* \"#utility.yul\":2836:2837   */\n      0x01\n        /* \"#utility.yul\":2832:2844   */\n      dup2\n      dup2\n      shr\n      swap1\n        /* \"#utility.yul\":2879:2891   */\n      dup3\n      and\n      dup1\n        /* \"#utility.yul\":2900:2961   */\n      tag_269\n      jumpi\n        /* \"#utility.yul\":2954:2958   */\n      0x7f\n        /* \"#utility.yul\":2946:2952   */\n      dup3\n        /* \"#utility.yul\":2942:2959   */\n      and\n        /* \"#utility.yul\":2932:2959   */\n      swap2\n      pop\n        /* \"#utility.yul\":2900:2961   */\n    tag_269:\n        /* \"#utility.yul\":3007:3009   */\n      0x20\n        /* \"#utility.yul\":2999:3005   */\n      dup3\n        /* \"#utility.yul\":2996:3010   */\n      lt\n        /* \"#utility.yul\":2976:2994   */\n      dup2\n        /* \"#utility.yul\":2973:3011   */\n      sub\n        /* \"#utility.yul\":2970:3131   */\n      tag_270\n      jumpi\n        /* \"#utility.yul\":3053:3063   */\n      0x4e487b71\n        /* \"#utility.yul\":3048:3051   */\n      0xe0\n        /* \"#utility.yul\":3044:3064   */\n      shl\n        /* \"#utility.yul\":3041:3042   */\n      0x00\n        /* \"#utility.yul\":3034:3065   */\n      mstore\n        /* \"#utility.yul\":3088:3092   */\n      0x22\n        /* \"#utility.yul\":3085:3086   */\n      0x04\n        /* \"#utility.yul\":3078:3093   */\n      mstore\n        /* \"#utility.yul\":3116:3120   */\n      0x24\n        /* \"#utility.yul\":3113:3114   */\n      0x00\n        /* \"#utility.yul\":3106:3121   */\n      revert\n        /* \"#utility.yul\":2970:3131   */\n    tag_270:\n      pop\n        /* \"#utility.yul\":2757:3137   */\n      swap2\n      swap1\n      pop\n      jump\t// out\n        /* \"#utility.yul\":3895:4022   */\n    tag_243:\n        /* \"#utility.yul\":3956:3966   */\n      0x4e487b71\n        /* \"#utility.yul\":3951:3954   */\n      0xe0\n        /* \"#utility.yul\":3947:3967   */\n      shl\n        /* \"#utility.yul\":3944:3945   */\n      0x00\n        /* \"#utility.yul\":3937:3968   */\n      mstore\n        /* \"#utility.yul\":3987:3991   */\n      0x11\n        /* \"#utility.yul\":3984:3985   */\n      0x04\n        /* \"#utility.yul\":3977:3992   */\n      mstore\n        /* \"#utility.yul\":4011:4015   */\n      0x24\n        /* \"#utility.yul\":4008:4009   */\n      0x00\n        /* \"#utility.yul\":4001:4016   */\n      revert\n        /* \"#utility.yul\":4027:4155   */\n    tag_205:\n        /* \"#utility.yul\":4094:4103   */\n      dup2\n      dup2\n      sub\n        /* \"#utility.yul\":4115:4126   */\n      dup2\n      dup2\n      gt\n        /* \"#utility.yul\":4112:4149   */\n      iszero\n      tag_106\n      jumpi\n        /* \"#utility.yul\":4129:4147   */\n      tag_106\n      tag_243\n      jump\t// in\n        /* \"#utility.yul\":4160:4285   */\n    tag_208:\n        /* \"#utility.yul\":4225:4234   */\n      dup1\n      dup3\n      add\n        /* \"#utility.yul\":4246:4256   */\n      dup1\n      dup3\n      gt\n        /* \"#utility.yul\":4243:4279   */\n      iszero\n      tag_106\n      jumpi\n        /* \"#utility.yul\":4259:4277   */\n      tag_106\n      tag_243\n      jump\t// in\n        /* \"#utility.yul\":4290:4458   */\n    tag_212:\n        /* \"#utility.yul\":4363:4372   */\n      dup1\n      dup3\n      mul\n        /* \"#utility.yul\":4394:4403   */\n      dup2\n      iszero\n        /* \"#utility.yul\":4411:4426   */\n      dup3\n      dup3\n      div\n        /* \"#utility.yul\":4405:4427   */\n      dup5\n      eq\n        /* \"#utility.yul\":4391:4428   */\n      or\n        /* \"#utility.yul\":4381:4452   */\n      tag_106\n      jumpi\n        /* \"#utility.yul\":4432:4450   */\n      tag_106\n      tag_243\n      jump\t// in\n        /* \"#utility.yul\":4463:4680   */\n    tag_215:\n        /* \"#utility.yul\":4503:4504   */\n      0x00\n        /* \"#utility.yul\":4529:4530   */\n      dup3\n        /* \"#utility.yul\":4519:4651   */\n      tag_284\n      jumpi\n        /* \"#utility.yul\":4573:4583   */\n      0x4e487b71\n        /* \"#utility.yul\":4568:4571   */\n      0xe0\n        /* \"#utility.yul\":4564:4584   */\n      shl\n        /* \"#utility.yul\":4561:4562   */\n      0x00\n        /* \"#utility.yul\":4554:4585   */\n      mstore\n        /* \"#utility.yul\":4608:4612   */\n      0x12\n        /* \"#utility.yul\":4605:4606   */\n      0x04\n        /* \"#utility.yul\":4598:4613   */\n      mstore\n        /* \"#utility.yul\":4636:4640   */\n      0x24\n        /* \"#utility.yul\":4633:4634   */\n      0x00\n        /* \"#utility.yul\":4626:4641   */\n      revert\n        /* \"#utility.yul\":4519:4651   */\n    tag_284:\n      pop\n        /* \"#utility.yul\":4665:4674   */\n      div\n      swap1\n        /* \"#utility.yul\":4463:4680   */\n      jump\t// out\n\n    auxdata: 0xa2646970667358221220c9b3c575d73941a6363605c80751b333f5002709ac8b48e0acad56782e2cda7e64736f6c634300081a0033\n}\n",
				"bytecode": {
					"linkReferences": {},
					"object": "60e060405234801561000f575f80fd5b5060405161141838038061141883398101604081905261002e916104c2565b808686600361003d83826105e6565b50600461004a82826105e6565b5050506001600160a01b03811661007b57604051631e4fbdf760e01b81525f60048201526024015b60405180910390fd5b610084816101cf565b506001600160a01b0381166100ee5760405162461bcd60e51b815260206004820152602a60248201527f4f776e61626c653a20696e697469616c206f776e657220697320746865207a65604482015269726f206164647265737360b01b6064820152608401610072565b5f82116101515760405162461bcd60e51b815260206004820152602b60248201527f56657374696e673a206475726174696f6e206d7573742062652067726561746560448201526a72207468616e207a65726f60a81b6064820152608401610072565b4260805260a082905260c0839052831561016f5761016f8185610220565b821561017f5761017f3084610220565b60805160a0516040805186815260208101939093528201527fe8fbcdfc2a707362664a0cdec5038e3d2a2183f4d4d3747e56bfc200eda137569060600160405180910390a15050505050506106c5565b600580546001600160a01b038381166001600160a01b0319831681179093556040519116919082907f8be0079c531659141344cd1fd0a4f28419497f9722a3daafe3b4186f6b6457e0905f90a35050565b6001600160a01b0382166102495760405163ec442f0560e01b81525f6004820152602401610072565b6102545f8383610258565b5050565b6102638383836102ff565b306001600160a01b038416036102fa576005546001600160a01b03838116911614801561029a57506005546001600160a01b031633145b6102fa5760405162461bcd60e51b815260206004820152602b60248201527f45524332303a2063616e6e6f74207472616e73666572206c6f636b656420766560448201526a7374656420746f6b656e7360a81b6064820152608401610072565b505050565b6001600160a01b038316610329578060025f82825461031e91906106a0565b909155506103999050565b6001600160a01b0383165f908152602081905260409020548181101561037b5760405163391434e360e21b81526001600160a01b03851660048201526024810182905260448101839052606401610072565b6001600160a01b0384165f9081526020819052604090209082900390555b6001600160a01b0382166103b5576002805482900390556103d3565b6001600160a01b0382165f9081526020819052604090208054820190555b816001600160a01b0316836001600160a01b03167fddf252ad1be2c89b69c2b068fc378daa952ba7f163c4a11628f55a4df523b3ef8360405161041891815260200190565b60405180910390a3505050565b634e487b7160e01b5f52604160045260245ffd5b5f82601f830112610448575f80fd5b81516001600160401b0381111561046157610461610425565b604051601f8201601f19908116603f011681016001600160401b038111828210171561048f5761048f610425565b6040528181528382016020018510156104a6575f80fd5b8160208501602083015e5f918101602001919091529392505050565b5f805f805f8060c087890312156104d7575f80fd5b86516001600160401b038111156104ec575f80fd5b6104f889828a01610439565b602089015190975090506001600160401b03811115610515575f80fd5b61052189828a01610439565b604089015160608a015160808b015160a08c01519399509197509550935090506001600160a01b0381168114610555575f80fd5b809150509295509295509295565b600181811c9082168061057757607f821691505b60208210810361059557634e487b7160e01b5f52602260045260245ffd5b50919050565b601f8211156102fa57805f5260205f20601f840160051c810160208510156105c05750805b601f840160051c820191505b818110156105df575f81556001016105cc565b5050505050565b81516001600160401b038111156105ff576105ff610425565b6106138161060d8454610563565b8461059b565b6020601f821160018114610645575f831561062e5750848201515b5f19600385901b1c1916600184901b1784556105df565b5f84815260208120601f198516915b828110156106745787850151825560209485019460019092019101610654565b508482101561069157868401515f19600387901b60f8161c191681555b50505050600190811b01905550565b808201808211156106bf57634e487b7160e01b5f52601160045260245ffd5b92915050565b60805160a05160c051610cf86107205f395f818161025c0152818161061e015261066c01525f81816101710152818161059d015281816105f7015261064801525f81816102830152818161057401526105cf0152610cf85ff3fe608060405234801561000f575f80fd5b5060043610610127575f3560e01c8063715018a6116100a9578063a8660a781161006e578063a8660a781461027e578063a9059cbb146102a5578063dd62ed3e146102b8578063f2fde38b146102f0578063f4eb90a614610303575f80fd5b8063715018a61461021957806379cc6790146102215780638da5cb5b1461023457806395d89b411461024f5780639de5a56114610257575f80fd5b8063313ce567116100ef578063313ce567146101bc57806342966c68146101cb5780634b8f1ef0146101e057806354dd1da4146101e957806370a08231146101f1575f80fd5b806306fdde031461012b578063095ea7b3146101495780631514617e1461016c57806318160ddd146101a157806323b872dd146101a9575b5f80fd5b61013361030b565b6040516101409190610b07565b60405180910390f35b61015c610157366004610b57565b61039b565b6040519015158152602001610140565b6101937f000000000000000000000000000000000000000000000000000000000000000081565b604051908152602001610140565b600254610193565b61015c6101b7366004610b7f565b6103b4565b60405160128152602001610140565b6101de6101d9366004610bb9565b6103d7565b005b61019360065481565b6101de6103e4565b6101936101ff366004610bd0565b6001600160a01b03165f9081526020819052604090205490565b6101de6104ef565b6101de61022f366004610b57565b610502565b6005546040516001600160a01b039091168152602001610140565b61013361051b565b6101937f000000000000000000000000000000000000000000000000000000000000000081565b6101937f000000000000000000000000000000000000000000000000000000000000000081565b61015c6102b3366004610b57565b61052a565b6101936102c6366004610be9565b6001600160a01b039182165f90815260016020908152604080832093909416825291909152205490565b6101de6102fe366004610bd0565b610537565b610193610571565b60606003805461031a90610c1a565b80601f016020809104026020016040519081016040528092919081815260200182805461034690610c1a565b80156103915780601f1061036857610100808354040283529160200191610391565b820191905f5260205f20905b81548152906001019060200180831161037457829003601f168201915b5050505050905090565b5f336103a881858561069d565b60019150505b92915050565b5f336103c18582856106af565b6103cc85858561072b565b506001949350505050565b6103e13382610788565b50565b6103ec6107bc565b5f6103f5610571565b905060065481116104585760405162461bcd60e51b815260206004820152602260248201527f56657374696e673a206e6f206e657720746f6b656e7320686176652076657374604482015261195960f21b60648201526084015b60405180910390fd5b5f61046e600654836107e990919063ffffffff16565b60065490915061047e90826107fb565b60065561049d306104976005546001600160a01b031690565b8361072b565b6005546001600160a01b03166001600160a01b03167f6bc5063c7239b75c8bf325a2a2238f726fada322163996bb6c93d5594fb119f0826040516104e391815260200190565b60405180910390a25050565b6104f76107bc565b6105005f610806565b565b61050d8233836106af565b6105178282610788565b5050565b60606004805461031a90610c1a565b5f336103a881858561072b565b61053f6107bc565b6001600160a01b03811661056857604051631e4fbdf760e01b81525f600482015260240161044f565b6103e181610806565b5f7f00000000000000000000000000000000000000000000000000000000000000004210806105be57507f0000000000000000000000000000000000000000000000000000000000000000155b156105c857505f90565b5f6105f3427f00000000000000000000000000000000000000000000000000000000000000006107e9565b90507f00000000000000000000000000000000000000000000000000000000000000008110610643577f000000000000000000000000000000000000000000000000000000000000000091505090565b6106977f00000000000000000000000000000000000000000000000000000000000000006106917f000000000000000000000000000000000000000000000000000000000000000084610857565b90610862565b91505090565b6106aa838383600161086d565b505050565b6001600160a01b038381165f908152600160209081526040808320938616835292905220545f19811015610725578181101561071757604051637dc7a0d960e11b81526001600160a01b0384166004820152602481018290526044810183905260640161044f565b61072584848484035f61086d565b50505050565b6001600160a01b03831661075457604051634b637e8f60e11b81525f600482015260240161044f565b6001600160a01b03821661077d5760405163ec442f0560e01b81525f600482015260240161044f565b6106aa83838361093f565b6001600160a01b0382166107b157604051634b637e8f60e11b81525f600482015260240161044f565b610517825f8361093f565b6005546001600160a01b031633146105005760405163118cdaa760e01b815233600482015260240161044f565b5f6107f48284610c66565b9392505050565b5f6107f48284610c79565b600580546001600160a01b038381166001600160a01b0319831681179093556040519116919082907f8be0079c531659141344cd1fd0a4f28419497f9722a3daafe3b4186f6b6457e0905f90a35050565b5f6107f48284610c8c565b5f6107f48284610ca3565b6001600160a01b0384166108965760405163e602df0560e01b81525f600482015260240161044f565b6001600160a01b0383166108bf57604051634a1406b160e11b81525f600482015260240161044f565b6001600160a01b038085165f908152600160209081526040808320938716835292905220829055801561072557826001600160a01b0316846001600160a01b03167f8c5be1e5ebec7d5bd14f71427d1e84f3dd0314c0f7b2291e5b200ac8c7c3b9258460405161093191815260200190565b60405180910390a350505050565b61094a8383836109e1565b306001600160a01b038416036106aa576005546001600160a01b03838116911614801561098157506005546001600160a01b031633145b6106aa5760405162461bcd60e51b815260206004820152602b60248201527f45524332303a2063616e6e6f74207472616e73666572206c6f636b656420766560448201526a7374656420746f6b656e7360a81b606482015260840161044f565b6001600160a01b038316610a0b578060025f828254610a009190610c79565b90915550610a7b9050565b6001600160a01b0383165f9081526020819052604090205481811015610a5d5760405163391434e360e21b81526001600160a01b0385166004820152602481018290526044810183905260640161044f565b6001600160a01b0384165f9081526020819052604090209082900390555b6001600160a01b038216610a9757600280548290039055610ab5565b6001600160a01b0382165f9081526020819052604090208054820190555b816001600160a01b0316836001600160a01b03167fddf252ad1be2c89b69c2b068fc378daa952ba7f163c4a11628f55a4df523b3ef83604051610afa91815260200190565b60405180910390a3505050565b602081525f82518060208401528060208501604085015e5f604082850101526040601f19601f83011684010191505092915050565b80356001600160a01b0381168114610b52575f80fd5b919050565b5f8060408385031215610b68575f80fd5b610b7183610b3c565b946020939093013593505050565b5f805f60608486031215610b91575f80fd5b610b9a84610b3c565b9250610ba860208501610b3c565b929592945050506040919091013590565b5f60208284031215610bc9575f80fd5b5035919050565b5f60208284031215610be0575f80fd5b6107f482610b3c565b5f8060408385031215610bfa575f80fd5b610c0383610b3c565b9150610c1160208401610b3c565b90509250929050565b600181811c90821680610c2e57607f821691505b602082108103610c4c57634e487b7160e01b5f52602260045260245ffd5b50919050565b634e487b7160e01b5f52601160045260245ffd5b818103818111156103ae576103ae610c52565b808201808211156103ae576103ae610c52565b80820281158282048414176103ae576103ae610c52565b5f82610cbd57634e487b7160e01b5f52601260045260245ffd5b50049056fea2646970667358221220c9b3c575d73941a6363605c80751b333f5002709ac8b48e0acad56782e2cda7e64736f6c634300081a0033",
					"opcodes": "PUSH1 0xE0 PUSH1 0x40 MSTORE CALLVALUE DUP1 ISZERO PUSH2 0xF JUMPI PUSH0 DUP1 REVERT JUMPDEST POP PUSH1 0x40 MLOAD PUSH2 0x1418 CODESIZE SUB DUP1 PUSH2 0x1418 DUP4 CODECOPY DUP2 ADD PUSH1 0x40 DUP2 SWAP1 MSTORE PUSH2 0x2E SWAP2 PUSH2 0x4C2 JUMP JUMPDEST DUP1 DUP7 DUP7 PUSH1 0x3 PUSH2 0x3D DUP4 DUP3 PUSH2 0x5E6 JUMP JUMPDEST POP PUSH1 0x4 PUSH2 0x4A DUP3 DUP3 PUSH2 0x5E6 JUMP JUMPDEST POP POP POP PUSH1 0x1 PUSH1 0x1 PUSH1 0xA0 SHL SUB DUP2 AND PUSH2 0x7B JUMPI PUSH1 0x40 MLOAD PUSH4 0x1E4FBDF7 PUSH1 0xE0 SHL DUP2 MSTORE PUSH0 PUSH1 0x4 DUP3 ADD MSTORE PUSH1 0x24 ADD JUMPDEST PUSH1 0x40 MLOAD DUP1 SWAP2 SUB SWAP1 REVERT JUMPDEST PUSH2 0x84 DUP2 PUSH2 0x1CF JUMP JUMPDEST POP PUSH1 0x1 PUSH1 0x1 PUSH1 0xA0 SHL SUB DUP2 AND PUSH2 0xEE JUMPI PUSH1 0x40 MLOAD PUSH3 0x461BCD PUSH1 0xE5 SHL DUP2 MSTORE PUSH1 0x20 PUSH1 0x4 DUP3 ADD MSTORE PUSH1 0x2A PUSH1 0x24 DUP3 ADD MSTORE PUSH32 0x4F776E61626C653A20696E697469616C206F776E657220697320746865207A65 PUSH1 0x44 DUP3 ADD MSTORE PUSH10 0x726F2061646472657373 PUSH1 0xB0 SHL PUSH1 0x64 DUP3 ADD MSTORE PUSH1 0x84 ADD PUSH2 0x72 JUMP JUMPDEST PUSH0 DUP3 GT PUSH2 0x151 JUMPI PUSH1 0x40 MLOAD PUSH3 0x461BCD PUSH1 0xE5 SHL DUP2 MSTORE PUSH1 0x20 PUSH1 0x4 DUP3 ADD MSTORE PUSH1 0x2B PUSH1 0x24 DUP3 ADD MSTORE PUSH32 0x56657374696E673A206475726174696F6E206D75737420626520677265617465 PUSH1 0x44 DUP3 ADD MSTORE PUSH11 0x72207468616E207A65726F PUSH1 0xA8 SHL PUSH1 0x64 DUP3 ADD MSTORE PUSH1 0x84 ADD PUSH2 0x72 JUMP JUMPDEST TIMESTAMP PUSH1 0x80 MSTORE PUSH1 0xA0 DUP3 SWAP1 MSTORE PUSH1 0xC0 DUP4 SWAP1 MSTORE DUP4 ISZERO PUSH2 0x16F JUMPI PUSH2 0x16F DUP2 DUP6 PUSH2 0x220 JUMP JUMPDEST DUP3 ISZERO PUSH2 0x17F JUMPI PUSH2 0x17F ADDRESS DUP5 PUSH2 0x220 JUMP JUMPDEST PUSH1 0x80 MLOAD PUSH1 0xA0 MLOAD PUSH1 0x40 DUP1 MLOAD DUP7 DUP2 MSTORE PUSH1 0x20 DUP2 ADD SWAP4 SWAP1 SWAP4 MSTORE DUP3 ADD MSTORE PUSH32 0xE8FBCDFC2A707362664A0CDEC5038E3D2A2183F4D4D3747E56BFC200EDA13756 SWAP1 PUSH1 0x60 ADD PUSH1 0x40 MLOAD DUP1 SWAP2 SUB SWAP1 LOG1 POP POP POP POP POP POP PUSH2 0x6C5 JUMP JUMPDEST PUSH1 0x5 DUP1 SLOAD PUSH1 0x1 PUSH1 0x1 PUSH1 0xA0 SHL SUB DUP4 DUP2 AND PUSH1 0x1 PUSH1 0x1 PUSH1 0xA0 SHL SUB NOT DUP4 AND DUP2 OR SWAP1 SWAP4 SSTORE PUSH1 0x40 MLOAD SWAP2 AND SWAP2 SWAP1 DUP3 SWAP1 PUSH32 0x8BE0079C531659141344CD1FD0A4F28419497F9722A3DAAFE3B4186F6B6457E0 SWAP1 PUSH0 SWAP1 LOG3 POP POP JUMP JUMPDEST PUSH1 0x1 PUSH1 0x1 PUSH1 0xA0 SHL SUB DUP3 AND PUSH2 0x249 JUMPI PUSH1 0x40 MLOAD PUSH4 0xEC442F05 PUSH1 0xE0 SHL DUP2 MSTORE PUSH0 PUSH1 0x4 DUP3 ADD MSTORE PUSH1 0x24 ADD PUSH2 0x72 JUMP JUMPDEST PUSH2 0x254 PUSH0 DUP4 DUP4 PUSH2 0x258 JUMP JUMPDEST POP POP JUMP JUMPDEST PUSH2 0x263 DUP4 DUP4 DUP4 PUSH2 0x2FF JUMP JUMPDEST ADDRESS PUSH1 0x1 PUSH1 0x1 PUSH1 0xA0 SHL SUB DUP5 AND SUB PUSH2 0x2FA JUMPI PUSH1 0x5 SLOAD PUSH1 0x1 PUSH1 0x1 PUSH1 0xA0 SHL SUB DUP4 DUP2 AND SWAP2 AND EQ DUP1 ISZERO PUSH2 0x29A JUMPI POP PUSH1 0x5 SLOAD PUSH1 0x1 PUSH1 0x1 PUSH1 0xA0 SHL SUB AND CALLER EQ JUMPDEST PUSH2 0x2FA JUMPI PUSH1 0x40 MLOAD PUSH3 0x461BCD PUSH1 0xE5 SHL DUP2 MSTORE PUSH1 0x20 PUSH1 0x4 DUP3 ADD MSTORE PUSH1 0x2B PUSH1 0x24 DUP3 ADD MSTORE PUSH32 0x45524332303A2063616E6E6F74207472616E73666572206C6F636B6564207665 PUSH1 0x44 DUP3 ADD MSTORE PUSH11 0x7374656420746F6B656E73 PUSH1 0xA8 SHL PUSH1 0x64 DUP3 ADD MSTORE PUSH1 0x84 ADD PUSH2 0x72 JUMP JUMPDEST POP POP POP JUMP JUMPDEST PUSH1 0x1 PUSH1 0x1 PUSH1 0xA0 SHL SUB DUP4 AND PUSH2 0x329 JUMPI DUP1 PUSH1 0x2 PUSH0 DUP3 DUP3 SLOAD PUSH2 0x31E SWAP2 SWAP1 PUSH2 0x6A0 JUMP JUMPDEST SWAP1 SWAP2 SSTORE POP PUSH2 0x399 SWAP1 POP JUMP JUMPDEST PUSH1 0x1 PUSH1 0x1 PUSH1 0xA0 SHL SUB DUP4 AND PUSH0 SWAP1 DUP2 MSTORE PUSH1 0x20 DUP2 SWAP1 MSTORE PUSH1 0x40 SWAP1 KECCAK256 SLOAD DUP2 DUP2 LT ISZERO PUSH2 0x37B JUMPI PUSH1 0x40 MLOAD PUSH4 0x391434E3 PUSH1 0xE2 SHL DUP2 MSTORE PUSH1 0x1 PUSH1 0x1 PUSH1 0xA0 SHL SUB DUP6 AND PUSH1 0x4 DUP3 ADD MSTORE PUSH1 0x24 DUP2 ADD DUP3 SWAP1 MSTORE PUSH1 0x44 DUP2 ADD DUP4 SWAP1 MSTORE PUSH1 0x64 ADD PUSH2 0x72 JUMP JUMPDEST PUSH1 0x1 PUSH1 0x1 PUSH1 0xA0 SHL SUB DUP5 AND PUSH0 SWAP1 DUP2 MSTORE PUSH1 0x20 DUP2 SWAP1 MSTORE PUSH1 0x40 SWAP1 KECCAK256 SWAP1 DUP3 SWAP1 SUB SWAP1 SSTORE JUMPDEST PUSH1 0x1 PUSH1 0x1 PUSH1 0xA0 SHL SUB DUP3 AND PUSH2 0x3B5 JUMPI PUSH1 0x2 DUP1 SLOAD DUP3 SWAP1 SUB SWAP1 SSTORE PUSH2 0x3D3 JUMP JUMPDEST PUSH1 0x1 PUSH1 0x1 PUSH1 0xA0 SHL SUB DUP3 AND PUSH0 SWAP1 DUP2 MSTORE PUSH1 0x20 DUP2 SWAP1 MSTORE PUSH1 0x40 SWAP1 KECCAK256 DUP1 SLOAD DUP3 ADD SWAP1 SSTORE JUMPDEST DUP2 PUSH1 0x1 PUSH1 0x1 PUSH1 0xA0 SHL SUB AND DUP4 PUSH1 0x1 PUSH1 0x1 PUSH1 0xA0 SHL SUB AND PUSH32 0xDDF252AD1BE2C89B69C2B068FC378DAA952BA7F163C4A11628F55A4DF523B3EF DUP4 PUSH1 0x40 MLOAD PUSH2 0x418 SWAP2 DUP2 MSTORE PUSH1 0x20 ADD SWAP1 JUMP JUMPDEST PUSH1 0x40 MLOAD DUP1 SWAP2 SUB SWAP1 LOG3 POP POP POP JUMP JUMPDEST PUSH4 0x4E487B71 PUSH1 0xE0 SHL PUSH0 MSTORE PUSH1 0x41 PUSH1 0x4 MSTORE PUSH1 0x24 PUSH0 REVERT JUMPDEST PUSH0 DUP3 PUSH1 0x1F DUP4 ADD SLT PUSH2 0x448 JUMPI PUSH0 DUP1 REVERT JUMPDEST DUP2 MLOAD PUSH1 0x1 PUSH1 0x1 PUSH1 0x40 SHL SUB DUP2 GT ISZERO PUSH2 0x461 JUMPI PUSH2 0x461 PUSH2 0x425 JUMP JUMPDEST PUSH1 0x40 MLOAD PUSH1 0x1F DUP3 ADD PUSH1 0x1F NOT SWAP1 DUP2 AND PUSH1 0x3F ADD AND DUP2 ADD PUSH1 0x1 PUSH1 0x1 PUSH1 0x40 SHL SUB DUP2 GT DUP3 DUP3 LT OR ISZERO PUSH2 0x48F JUMPI PUSH2 0x48F PUSH2 0x425 JUMP JUMPDEST PUSH1 0x40 MSTORE DUP2 DUP2 MSTORE DUP4 DUP3 ADD PUSH1 0x20 ADD DUP6 LT ISZERO PUSH2 0x4A6 JUMPI PUSH0 DUP1 REVERT JUMPDEST DUP2 PUSH1 0x20 DUP6 ADD PUSH1 0x20 DUP4 ADD MCOPY PUSH0 SWAP2 DUP2 ADD PUSH1 0x20 ADD SWAP2 SWAP1 SWAP2 MSTORE SWAP4 SWAP3 POP POP POP JUMP JUMPDEST PUSH0 DUP1 PUSH0 DUP1 PUSH0 DUP1 PUSH1 0xC0 DUP8 DUP10 SUB SLT ISZERO PUSH2 0x4D7 JUMPI PUSH0 DUP1 REVERT JUMPDEST DUP7 MLOAD PUSH1 0x1 PUSH1 0x1 PUSH1 0x40 SHL SUB DUP2 GT ISZERO PUSH2 0x4EC JUMPI PUSH0 DUP1 REVERT JUMPDEST PUSH2 0x4F8 DUP10 DUP3 DUP11 ADD PUSH2 0x439 JUMP JUMPDEST PUSH1 0x20 DUP10 ADD MLOAD SWAP1 SWAP8 POP SWAP1 POP PUSH1 0x1 PUSH1 0x1 PUSH1 0x40 SHL SUB DUP2 GT ISZERO PUSH2 0x515 JUMPI PUSH0 DUP1 REVERT JUMPDEST PUSH2 0x521 DUP10 DUP3 DUP11 ADD PUSH2 0x439 JUMP JUMPDEST PUSH1 0x40 DUP10 ADD MLOAD PUSH1 0x60 DUP11 ADD MLOAD PUSH1 0x80 DUP12 ADD MLOAD PUSH1 0xA0 DUP13 ADD MLOAD SWAP4 SWAP10 POP SWAP2 SWAP8 POP SWAP6 POP SWAP4 POP SWAP1 POP PUSH1 0x1 PUSH1 0x1 PUSH1 0xA0 SHL SUB DUP2 AND DUP2 EQ PUSH2 0x555 JUMPI PUSH0 DUP1 REVERT JUMPDEST DUP1 SWAP2 POP POP SWAP3 SWAP6 POP SWAP3 SWAP6 POP SWAP3 SWAP6 JUMP JUMPDEST PUSH1 0x1 DUP2 DUP2 SHR SWAP1 DUP3 AND DUP1 PUSH2 0x577 JUMPI PUSH1 0x7F DUP3 AND SWAP2 POP JUMPDEST PUSH1 0x20 DUP3 LT DUP2 SUB PUSH2 0x595 JUMPI PUSH4 0x4E487B71 PUSH1 0xE0 SHL PUSH0 MSTORE PUSH1 0x22 PUSH1 0x4 MSTORE PUSH1 0x24 PUSH0 REVERT JUMPDEST POP SWAP2 SWAP1 POP JUMP JUMPDEST PUSH1 0x1F DUP3 GT ISZERO PUSH2 0x2FA JUMPI DUP1 PUSH0 MSTORE PUSH1 0x20 PUSH0 KECCAK256 PUSH1 0x1F DUP5 ADD PUSH1 0x5 SHR DUP2 ADD PUSH1 0x20 DUP6 LT ISZERO PUSH2 0x5C0 JUMPI POP DUP1 JUMPDEST PUSH1 0x1F DUP5 ADD PUSH1 0x5 SHR DUP3 ADD SWAP2 POP JUMPDEST DUP2 DUP2 LT ISZERO PUSH2 0x5DF JUMPI PUSH0 DUP2 SSTORE PUSH1 0x1 ADD PUSH2 0x5CC JUMP JUMPDEST POP POP POP POP POP JUMP JUMPDEST DUP2 MLOAD PUSH1 0x1 PUSH1 0x1 PUSH1 0x40 SHL SUB DUP2 GT ISZERO PUSH2 0x5FF JUMPI PUSH2 0x5FF PUSH2 0x425 JUMP JUMPDEST PUSH2 0x613 DUP2 PUSH2 0x60D DUP5 SLOAD PUSH2 0x563 JUMP JUMPDEST DUP5 PUSH2 0x59B JUMP JUMPDEST PUSH1 0x20 PUSH1 0x1F DUP3 GT PUSH1 0x1 DUP2 EQ PUSH2 0x645 JUMPI PUSH0 DUP4 ISZERO PUSH2 0x62E JUMPI POP DUP5 DUP3 ADD MLOAD JUMPDEST PUSH0 NOT PUSH1 0x3 DUP6 SWAP1 SHL SHR NOT AND PUSH1 0x1 DUP5 SWAP1 SHL OR DUP5 SSTORE PUSH2 0x5DF JUMP JUMPDEST PUSH0 DUP5 DUP2 MSTORE PUSH1 0x20 DUP2 KECCAK256 PUSH1 0x1F NOT DUP6 AND SWAP2 JUMPDEST DUP3 DUP2 LT ISZERO PUSH2 0x674 JUMPI DUP8 DUP6 ADD MLOAD DUP3 SSTORE PUSH1 0x20 SWAP5 DUP6 ADD SWAP5 PUSH1 0x1 SWAP1 SWAP3 ADD SWAP2 ADD PUSH2 0x654 JUMP JUMPDEST POP DUP5 DUP3 LT ISZERO PUSH2 0x691 JUMPI DUP7 DUP5 ADD MLOAD PUSH0 NOT PUSH1 0x3 DUP8 SWAP1 SHL PUSH1 0xF8 AND SHR NOT AND DUP2 SSTORE JUMPDEST POP POP POP POP PUSH1 0x1 SWAP1 DUP2 SHL ADD SWAP1 SSTORE POP JUMP JUMPDEST DUP1 DUP3 ADD DUP1 DUP3 GT ISZERO PUSH2 0x6BF JUMPI PUSH4 0x4E487B71 PUSH1 0xE0 SHL PUSH0 MSTORE PUSH1 0x11 PUSH1 0x4 MSTORE PUSH1 0x24 PUSH0 REVERT JUMPDEST SWAP3 SWAP2 POP POP JUMP JUMPDEST PUSH1 0x80 MLOAD PUSH1 0xA0 MLOAD PUSH1 0xC0 MLOAD PUSH2 0xCF8 PUSH2 0x720 PUSH0 CODECOPY PUSH0 DUP2 DUP2 PUSH2 0x25C ADD MSTORE DUP2 DUP2 PUSH2 0x61E ADD MSTORE PUSH2 0x66C ADD MSTORE PUSH0 DUP2 DUP2 PUSH2 0x171 ADD MSTORE DUP2 DUP2 PUSH2 0x59D ADD MSTORE DUP2 DUP2 PUSH2 0x5F7 ADD MSTORE PUSH2 0x648 ADD MSTORE PUSH0 DUP2 DUP2 PUSH2 0x283 ADD MSTORE DUP2 DUP2 PUSH2 0x574 ADD MSTORE PUSH2 0x5CF ADD MSTORE PUSH2 0xCF8 PUSH0 RETURN INVALID PUSH1 0x80 PUSH1 0x40 MSTORE CALLVALUE DUP1 ISZERO PUSH2 0xF JUMPI PUSH0 DUP1 REVERT JUMPDEST POP PUSH1 0x4 CALLDATASIZE LT PUSH2 0x127 JUMPI PUSH0 CALLDATALOAD PUSH1 0xE0 SHR DUP1 PUSH4 0x715018A6 GT PUSH2 0xA9 JUMPI DUP1 PUSH4 0xA8660A78 GT PUSH2 0x6E JUMPI DUP1 PUSH4 0xA8660A78 EQ PUSH2 0x27E JUMPI DUP1 PUSH4 0xA9059CBB EQ PUSH2 0x2A5 JUMPI DUP1 PUSH4 0xDD62ED3E EQ PUSH2 0x2B8 JUMPI DUP1 PUSH4 0xF2FDE38B EQ PUSH2 0x2F0 JUMPI DUP1 PUSH4 0xF4EB90A6 EQ PUSH2 0x303 JUMPI PUSH0 DUP1 REVERT JUMPDEST DUP1 PUSH4 0x715018A6 EQ PUSH2 0x219 JUMPI DUP1 PUSH4 0x79CC6790 EQ PUSH2 0x221 JUMPI DUP1 PUSH4 0x8DA5CB5B EQ PUSH2 0x234 JUMPI DUP1 PUSH4 0x95D89B41 EQ PUSH2 0x24F JUMPI DUP1 PUSH4 0x9DE5A561 EQ PUSH2 0x257 JUMPI PUSH0 DUP1 REVERT JUMPDEST DUP1 PUSH4 0x313CE567 GT PUSH2 0xEF JUMPI DUP1 PUSH4 0x313CE567 EQ PUSH2 0x1BC JUMPI DUP1 PUSH4 0x42966C68 EQ PUSH2 0x1CB JUMPI DUP1 PUSH4 0x4B8F1EF0 EQ PUSH2 0x1E0 JUMPI DUP1 PUSH4 0x54DD1DA4 EQ PUSH2 0x1E9 JUMPI DUP1 PUSH4 0x70A08231 EQ PUSH2 0x1F1 JUMPI PUSH0 DUP1 REVERT JUMPDEST DUP1 PUSH4 0x6FDDE03 EQ PUSH2 0x12B JUMPI DUP1 PUSH4 0x95EA7B3 EQ PUSH2 0x149 JUMPI DUP1 PUSH4 0x1514617E EQ PUSH2 0x16C JUMPI DUP1 PUSH4 0x18160DDD EQ PUSH2 0x1A1 JUMPI DUP1 PUSH4 0x23B872DD EQ PUSH2 0x1A9 JUMPI JUMPDEST PUSH0 DUP1 REVERT JUMPDEST PUSH2 0x133 PUSH2 0x30B JUMP JUMPDEST PUSH1 0x40 MLOAD PUSH2 0x140 SWAP2 SWAP1 PUSH2 0xB07 JUMP JUMPDEST PUSH1 0x40 MLOAD DUP1 SWAP2 SUB SWAP1 RETURN JUMPDEST PUSH2 0x15C PUSH2 0x157 CALLDATASIZE PUSH1 0x4 PUSH2 0xB57 JUMP JUMPDEST PUSH2 0x39B JUMP JUMPDEST PUSH1 0x40 MLOAD SWAP1 ISZERO ISZERO DUP2 MSTORE PUSH1 0x20 ADD PUSH2 0x140 JUMP JUMPDEST PUSH2 0x193 PUSH32 0x0 DUP2 JUMP JUMPDEST PUSH1 0x40 MLOAD SWAP1 DUP2 MSTORE PUSH1 0x20 ADD PUSH2 0x140 JUMP JUMPDEST PUSH1 0x2 SLOAD PUSH2 0x193 JUMP JUMPDEST PUSH2 0x15C PUSH2 0x1B7 CALLDATASIZE PUSH1 0x4 PUSH2 0xB7F JUMP JUMPDEST PUSH2 0x3B4 JUMP JUMPDEST PUSH1 0x40 MLOAD PUSH1 0x12 DUP2 MSTORE PUSH1 0x20 ADD PUSH2 0x140 JUMP JUMPDEST PUSH2 0x1DE PUSH2 0x1D9 CALLDATASIZE PUSH1 0x4 PUSH2 0xBB9 JUMP JUMPDEST PUSH2 0x3D7 JUMP JUMPDEST STOP JUMPDEST PUSH2 0x193 PUSH1 0x6 SLOAD DUP2 JUMP JUMPDEST PUSH2 0x1DE PUSH2 0x3E4 JUMP JUMPDEST PUSH2 0x193 PUSH2 0x1FF CALLDATASIZE PUSH1 0x4 PUSH2 0xBD0 JUMP JUMPDEST PUSH1 0x1 PUSH1 0x1 PUSH1 0xA0 SHL SUB AND PUSH0 SWAP1 DUP2 MSTORE PUSH1 0x20 DUP2 SWAP1 MSTORE PUSH1 0x40 SWAP1 KECCAK256 SLOAD SWAP1 JUMP JUMPDEST PUSH2 0x1DE PUSH2 0x4EF JUMP JUMPDEST PUSH2 0x1DE PUSH2 0x22F CALLDATASIZE PUSH1 0x4 PUSH2 0xB57 JUMP JUMPDEST PUSH2 0x502 JUMP JUMPDEST PUSH1 0x5 SLOAD PUSH1 0x40 MLOAD PUSH1 0x1 PUSH1 0x1 PUSH1 0xA0 SHL SUB SWAP1 SWAP2 AND DUP2 MSTORE PUSH1 0x20 ADD PUSH2 0x140 JUMP JUMPDEST PUSH2 0x133 PUSH2 0x51B JUMP JUMPDEST PUSH2 0x193 PUSH32 0x0 DUP2 JUMP JUMPDEST PUSH2 0x193 PUSH32 0x0 DUP2 JUMP JUMPDEST PUSH2 0x15C PUSH2 0x2B3 CALLDATASIZE PUSH1 0x4 PUSH2 0xB57 JUMP JUMPDEST PUSH2 0x52A JUMP JUMPDEST PUSH2 0x193 PUSH2 0x2C6 CALLDATASIZE PUSH1 0x4 PUSH2 0xBE9 JUMP JUMPDEST PUSH1 0x1 PUSH1 0x1 PUSH1 0xA0 SHL SUB SWAP2 DUP3 AND PUSH0 SWAP1 DUP2 MSTORE PUSH1 0x1 PUSH1 0x20 SWAP1 DUP2 MSTORE PUSH1 0x40 DUP1 DUP4 KECCAK256 SWAP4 SWAP1 SWAP5 AND DUP3 MSTORE SWAP2 SWAP1 SWAP2 MSTORE KECCAK256 SLOAD SWAP1 JUMP JUMPDEST PUSH2 0x1DE PUSH2 0x2FE CALLDATASIZE PUSH1 0x4 PUSH2 0xBD0 JUMP JUMPDEST PUSH2 0x537 JUMP JUMPDEST PUSH2 0x193 PUSH2 0x571 JUMP JUMPDEST PUSH1 0x60 PUSH1 0x3 DUP1 SLOAD PUSH2 0x31A SWAP1 PUSH2 0xC1A JUMP JUMPDEST DUP1 PUSH1 0x1F ADD PUSH1 0x20 DUP1 SWAP2 DIV MUL PUSH1 0x20 ADD PUSH1 0x40 MLOAD SWAP1 DUP2 ADD PUSH1 0x40 MSTORE DUP1 SWAP3 SWAP2 SWAP1 DUP2 DUP2 MSTORE PUSH1 0x20 ADD DUP3 DUP1 SLOAD PUSH2 0x346 SWAP1 PUSH2 0xC1A JUMP JUMPDEST DUP1 ISZERO PUSH2 0x391 JUMPI DUP1 PUSH1 0x1F LT PUSH2 0x368 JUMPI PUSH2 0x100 DUP1 DUP4 SLOAD DIV MUL DUP4 MSTORE SWAP2 PUSH1 0x20 ADD SWAP2 PUSH2 0x391 JUMP JUMPDEST DUP3 ADD SWAP2 SWAP1 PUSH0 MSTORE PUSH1 0x20 PUSH0 KECCAK256 SWAP1 JUMPDEST DUP2 SLOAD DUP2 MSTORE SWAP1 PUSH1 0x1 ADD SWAP1 PUSH1 0x20 ADD DUP1 DUP4 GT PUSH2 0x374 JUMPI DUP3 SWAP1 SUB PUSH1 0x1F AND DUP3 ADD SWAP2 JUMPDEST POP POP POP POP POP SWAP1 POP SWAP1 JUMP JUMPDEST PUSH0 CALLER PUSH2 0x3A8 DUP2 DUP6 DUP6 PUSH2 0x69D JUMP JUMPDEST PUSH1 0x1 SWAP2 POP POP JUMPDEST SWAP3 SWAP2 POP POP JUMP JUMPDEST PUSH0 CALLER PUSH2 0x3C1 DUP6 DUP3 DUP6 PUSH2 0x6AF JUMP JUMPDEST PUSH2 0x3CC DUP6 DUP6 DUP6 PUSH2 0x72B JUMP JUMPDEST POP PUSH1 0x1 SWAP5 SWAP4 POP POP POP POP JUMP JUMPDEST PUSH2 0x3E1 CALLER DUP3 PUSH2 0x788 JUMP JUMPDEST POP JUMP JUMPDEST PUSH2 0x3EC PUSH2 0x7BC JUMP JUMPDEST PUSH0 PUSH2 0x3F5 PUSH2 0x571 JUMP JUMPDEST SWAP1 POP PUSH1 0x6 SLOAD DUP2 GT PUSH2 0x458 JUMPI PUSH1 0x40 MLOAD PUSH3 0x461BCD PUSH1 0xE5 SHL DUP2 MSTORE PUSH1 0x20 PUSH1 0x4 DUP3 ADD MSTORE PUSH1 0x22 PUSH1 0x24 DUP3 ADD MSTORE PUSH32 0x56657374696E673A206E6F206E657720746F6B656E7320686176652076657374 PUSH1 0x44 DUP3 ADD MSTORE PUSH2 0x1959 PUSH1 0xF2 SHL PUSH1 0x64 DUP3 ADD MSTORE PUSH1 0x84 ADD JUMPDEST PUSH1 0x40 MLOAD DUP1 SWAP2 SUB SWAP1 REVERT JUMPDEST PUSH0 PUSH2 0x46E PUSH1 0x6 SLOAD DUP4 PUSH2 0x7E9 SWAP1 SWAP2 SWAP1 PUSH4 0xFFFFFFFF AND JUMP JUMPDEST PUSH1 0x6 SLOAD SWAP1 SWAP2 POP PUSH2 0x47E SWAP1 DUP3 PUSH2 0x7FB JUMP JUMPDEST PUSH1 0x6 SSTORE PUSH2 0x49D ADDRESS PUSH2 0x497 PUSH1 0x5 SLOAD PUSH1 0x1 PUSH1 0x1 PUSH1 0xA0 SHL SUB AND SWAP1 JUMP JUMPDEST DUP4 PUSH2 0x72B JUMP JUMPDEST PUSH1 0x5 SLOAD PUSH1 0x1 PUSH1 0x1 PUSH1 0xA0 SHL SUB AND PUSH1 0x1 PUSH1 0x1 PUSH1 0xA0 SHL SUB AND PUSH32 0x6BC5063C7239B75C8BF325A2A2238F726FADA322163996BB6C93D5594FB119F0 DUP3 PUSH1 0x40 MLOAD PUSH2 0x4E3 SWAP2 DUP2 MSTORE PUSH1 0x20 ADD SWAP1 JUMP JUMPDEST PUSH1 0x40 MLOAD DUP1 SWAP2 SUB SWAP1 LOG2 POP POP JUMP JUMPDEST PUSH2 0x4F7 PUSH2 0x7BC JUMP JUMPDEST PUSH2 0x500 PUSH0 PUSH2 0x806 JUMP JUMPDEST JUMP JUMPDEST PUSH2 0x50D DUP3 CALLER DUP4 PUSH2 0x6AF JUMP JUMPDEST PUSH2 0x517 DUP3 DUP3 PUSH2 0x788 JUMP JUMPDEST POP POP JUMP JUMPDEST PUSH1 0x60 PUSH1 0x4 DUP1 SLOAD PUSH2 0x31A SWAP1 PUSH2 0xC1A JUMP JUMPDEST PUSH0 CALLER PUSH2 0x3A8 DUP2 DUP6 DUP6 PUSH2 0x72B JUMP JUMPDEST PUSH2 0x53F PUSH2 0x7BC JUMP JUMPDEST PUSH1 0x1 PUSH1 0x1 PUSH1 0xA0 SHL SUB DUP2 AND PUSH2 0x568 JUMPI PUSH1 0x40 MLOAD PUSH4 0x1E4FBDF7 PUSH1 0xE0 SHL DUP2 MSTORE PUSH0 PUSH1 0x4 DUP3 ADD MSTORE PUSH1 0x24 ADD PUSH2 0x44F JUMP JUMPDEST PUSH2 0x3E1 DUP2 PUSH2 0x806 JUMP JUMPDEST PUSH0 PUSH32 0x0 TIMESTAMP LT DUP1 PUSH2 0x5BE JUMPI POP PUSH32 0x0 ISZERO JUMPDEST ISZERO PUSH2 0x5C8 JUMPI POP PUSH0 SWAP1 JUMP JUMPDEST PUSH0 PUSH2 0x5F3 TIMESTAMP PUSH32 0x0 PUSH2 0x7E9 JUMP JUMPDEST SWAP1 POP PUSH32 0x0 DUP2 LT PUSH2 0x643 JUMPI PUSH32 0x0 SWAP2 POP POP SWAP1 JUMP JUMPDEST PUSH2 0x697 PUSH32 0x0 PUSH2 0x691 PUSH32 0x0 DUP5 PUSH2 0x857 JUMP JUMPDEST SWAP1 PUSH2 0x862 JUMP JUMPDEST SWAP2 POP POP SWAP1 JUMP JUMPDEST PUSH2 0x6AA DUP4 DUP4 DUP4 PUSH1 0x1 PUSH2 0x86D JUMP JUMPDEST POP POP POP JUMP JUMPDEST PUSH1 0x1 PUSH1 0x1 PUSH1 0xA0 SHL SUB DUP4 DUP2 AND PUSH0 SWAP1 DUP2 MSTORE PUSH1 0x1 PUSH1 0x20 SWAP1 DUP2 MSTORE PUSH1 0x40 DUP1 DUP4 KECCAK256 SWAP4 DUP7 AND DUP4 MSTORE SWAP3 SWAP1 MSTORE KECCAK256 SLOAD PUSH0 NOT DUP2 LT ISZERO PUSH2 0x725 JUMPI DUP2 DUP2 LT ISZERO PUSH2 0x717 JUMPI PUSH1 0x40 MLOAD PUSH4 0x7DC7A0D9 PUSH1 0xE1 SHL DUP2 MSTORE PUSH1 0x1 PUSH1 0x1 PUSH1 0xA0 SHL SUB DUP5 AND PUSH1 0x4 DUP3 ADD MSTORE PUSH1 0x24 DUP2 ADD DUP3 SWAP1 MSTORE PUSH1 0x44 DUP2 ADD DUP4 SWAP1 MSTORE PUSH1 0x64 ADD PUSH2 0x44F JUMP JUMPDEST PUSH2 0x725 DUP5 DUP5 DUP5 DUP5 SUB PUSH0 PUSH2 0x86D JUMP JUMPDEST POP POP POP POP JUMP JUMPDEST PUSH1 0x1 PUSH1 0x1 PUSH1 0xA0 SHL SUB DUP4 AND PUSH2 0x754 JUMPI PUSH1 0x40 MLOAD PUSH4 0x4B637E8F PUSH1 0xE1 SHL DUP2 MSTORE PUSH0 PUSH1 0x4 DUP3 ADD MSTORE PUSH1 0x24 ADD PUSH2 0x44F JUMP JUMPDEST PUSH1 0x1 PUSH1 0x1 PUSH1 0xA0 SHL SUB DUP3 AND PUSH2 0x77D JUMPI PUSH1 0x40 MLOAD PUSH4 0xEC442F05 PUSH1 0xE0 SHL DUP2 MSTORE PUSH0 PUSH1 0x4 DUP3 ADD MSTORE PUSH1 0x24 ADD PUSH2 0x44F JUMP JUMPDEST PUSH2 0x6AA DUP4 DUP4 DUP4 PUSH2 0x93F JUMP JUMPDEST PUSH1 0x1 PUSH1 0x1 PUSH1 0xA0 SHL SUB DUP3 AND PUSH2 0x7B1 JUMPI PUSH1 0x40 MLOAD PUSH4 0x4B637E8F PUSH1 0xE1 SHL DUP2 MSTORE PUSH0 PUSH1 0x4 DUP3 ADD MSTORE PUSH1 0x24 ADD PUSH2 0x44F JUMP JUMPDEST PUSH2 0x517 DUP3 PUSH0 DUP4 PUSH2 0x93F JUMP JUMPDEST PUSH1 0x5 SLOAD PUSH1 0x1 PUSH1 0x1 PUSH1 0xA0 SHL SUB AND CALLER EQ PUSH2 0x500 JUMPI PUSH1 0x40 MLOAD PUSH4 0x118CDAA7 PUSH1 0xE0 SHL DUP2 MSTORE CALLER PUSH1 0x4 DUP3 ADD MSTORE PUSH1 0x24 ADD PUSH2 0x44F JUMP JUMPDEST PUSH0 PUSH2 0x7F4 DUP3 DUP5 PUSH2 0xC66 JUMP JUMPDEST SWAP4 SWAP3 POP POP POP JUMP JUMPDEST PUSH0 PUSH2 0x7F4 DUP3 DUP5 PUSH2 0xC79 JUMP JUMPDEST PUSH1 0x5 DUP1 SLOAD PUSH1 0x1 PUSH1 0x1 PUSH1 0xA0 SHL SUB DUP4 DUP2 AND PUSH1 0x1 PUSH1 0x1 PUSH1 0xA0 SHL SUB NOT DUP4 AND DUP2 OR SWAP1 SWAP4 SSTORE PUSH1 0x40 MLOAD SWAP2 AND SWAP2 SWAP1 DUP3 SWAP1 PUSH32 0x8BE0079C531659141344CD1FD0A4F28419497F9722A3DAAFE3B4186F6B6457E0 SWAP1 PUSH0 SWAP1 LOG3 POP POP JUMP JUMPDEST PUSH0 PUSH2 0x7F4 DUP3 DUP5 PUSH2 0xC8C JUMP JUMPDEST PUSH0 PUSH2 0x7F4 DUP3 DUP5 PUSH2 0xCA3 JUMP JUMPDEST PUSH1 0x1 PUSH1 0x1 PUSH1 0xA0 SHL SUB DUP5 AND PUSH2 0x896 JUMPI PUSH1 0x40 MLOAD PUSH4 0xE602DF05 PUSH1 0xE0 SHL DUP2 MSTORE PUSH0 PUSH1 0x4 DUP3 ADD MSTORE PUSH1 0x24 ADD PUSH2 0x44F JUMP JUMPDEST PUSH1 0x1 PUSH1 0x1 PUSH1 0xA0 SHL SUB DUP4 AND PUSH2 0x8BF JUMPI PUSH1 0x40 MLOAD PUSH4 0x4A1406B1 PUSH1 0xE1 SHL DUP2 MSTORE PUSH0 PUSH1 0x4 DUP3 ADD MSTORE PUSH1 0x24 ADD PUSH2 0x44F JUMP JUMPDEST PUSH1 0x1 PUSH1 0x1 PUSH1 0xA0 SHL SUB DUP1 DUP6 AND PUSH0 SWAP1 DUP2 MSTORE PUSH1 0x1 PUSH1 0x20 SWAP1 DUP2 MSTORE PUSH1 0x40 DUP1 DUP4 KECCAK256 SWAP4 DUP8 AND DUP4 MSTORE SWAP3 SWAP1 MSTORE KECCAK256 DUP3 SWAP1 SSTORE DUP1 ISZERO PUSH2 0x725 JUMPI DUP3 PUSH1 0x1 PUSH1 0x1 PUSH1 0xA0 SHL SUB AND DUP5 PUSH1 0x1 PUSH1 0x1 PUSH1 0xA0 SHL SUB AND PUSH32 0x8C5BE1E5EBEC7D5BD14F71427D1E84F3DD0314C0F7B2291E5B200AC8C7C3B925 DUP5 PUSH1 0x40 MLOAD PUSH2 0x931 SWAP2 DUP2 MSTORE PUSH1 0x20 ADD SWAP1 JUMP JUMPDEST PUSH1 0x40 MLOAD DUP1 SWAP2 SUB SWAP1 LOG3 POP POP POP POP JUMP JUMPDEST PUSH2 0x94A DUP4 DUP4 DUP4 PUSH2 0x9E1 JUMP JUMPDEST ADDRESS PUSH1 0x1 PUSH1 0x1 PUSH1 0xA0 SHL SUB DUP5 AND SUB PUSH2 0x6AA JUMPI PUSH1 0x5 SLOAD PUSH1 0x1 PUSH1 0x1 PUSH1 0xA0 SHL SUB DUP4 DUP2 AND SWAP2 AND EQ DUP1 ISZERO PUSH2 0x981 JUMPI POP PUSH1 0x5 SLOAD PUSH1 0x1 PUSH1 0x1 PUSH1 0xA0 SHL SUB AND CALLER EQ JUMPDEST PUSH2 0x6AA JUMPI PUSH1 0x40 MLOAD PUSH3 0x461BCD PUSH1 0xE5 SHL DUP2 MSTORE PUSH1 0x20 PUSH1 0x4 DUP3 ADD MSTORE PUSH1 0x2B PUSH1 0x24 DUP3 ADD MSTORE PUSH32 0x45524332303A2063616E6E6F74207472616E73666572206C6F636B6564207665 PUSH1 0x44 DUP3 ADD MSTORE PUSH11 0x7374656420746F6B656E73 PUSH1 0xA8 SHL PUSH1 0x64 DUP3 ADD MSTORE PUSH1 0x84 ADD PUSH2 0x44F JUMP JUMPDEST PUSH1 0x1 PUSH1 0x1 PUSH1 0xA0 SHL SUB DUP4 AND PUSH2 0xA0B JUMPI DUP1 PUSH1 0x2 PUSH0 DUP3 DUP3 SLOAD PUSH2 0xA00 SWAP2 SWAP1 PUSH2 0xC79 JUMP JUMPDEST SWAP1 SWAP2 SSTORE POP PUSH2 0xA7B SWAP1 POP JUMP JUMPDEST PUSH1 0x1 PUSH1 0x1 PUSH1 0xA0 SHL SUB DUP4 AND PUSH0 SWAP1 DUP2 MSTORE PUSH1 0x20 DUP2 SWAP1 MSTORE PUSH1 0x40 SWAP1 KECCAK256 SLOAD DUP2 DUP2 LT ISZERO PUSH2 0xA5D JUMPI PUSH1 0x40 MLOAD PUSH4 0x391434E3 PUSH1 0xE2 SHL DUP2 MSTORE PUSH1 0x1 PUSH1 0x1 PUSH1 0xA0 SHL SUB DUP6 AND PUSH1 0x4 DUP3 ADD MSTORE PUSH1 0x24 DUP2 ADD DUP3 SWAP1 MSTORE PUSH1 0x44 DUP2 ADD DUP4 SWAP1 MSTORE PUSH1 0x64 ADD PUSH2 0x44F JUMP JUMPDEST PUSH1 0x1 PUSH1 0x1 PUSH1 0xA0 SHL SUB DUP5 AND PUSH0 SWAP1 DUP2 MSTORE PUSH1 0x20 DUP2 SWAP1 MSTORE PUSH1 0x40 SWAP1 KECCAK256 SWAP1 DUP3 SWAP1 SUB SWAP1 SSTORE JUMPDEST PUSH1 0x1 PUSH1 0x1 PUSH1 0xA0 SHL SUB DUP3 AND PUSH2 0xA97 JUMPI PUSH1 0x2 DUP1 SLOAD DUP3 SWAP1 SUB SWAP1 SSTORE PUSH2 0xAB5 JUMP JUMPDEST PUSH1 0x1 PUSH1 0x1 PUSH1 0xA0 SHL SUB DUP3 AND PUSH0 SWAP1 DUP2 MSTORE PUSH1 0x20 DUP2 SWAP1 MSTORE PUSH1 0x40 SWAP1 KECCAK256 DUP1 SLOAD DUP3 ADD SWAP1 SSTORE JUMPDEST DUP2 PUSH1 0x1 PUSH1 0x1 PUSH1 0xA0 SHL SUB AND DUP4 PUSH1 0x1 PUSH1 0x1 PUSH1 0xA0 SHL SUB AND PUSH32 0xDDF252AD1BE2C89B69C2B068FC378DAA952BA7F163C4A11628F55A4DF523B3EF DUP4 PUSH1 0x40 MLOAD PUSH2 0xAFA SWAP2 DUP2 MSTORE PUSH1 0x20 ADD SWAP1 JUMP JUMPDEST PUSH1 0x40 MLOAD DUP1 SWAP2 SUB SWAP1 LOG3 POP POP POP JUMP JUMPDEST PUSH1 0x20 DUP2 MSTORE PUSH0 DUP3 MLOAD DUP1 PUSH1 0x20 DUP5 ADD MSTORE DUP1 PUSH1 0x20 DUP6 ADD PUSH1 0x40 DUP6 ADD MCOPY PUSH0 PUSH1 0x40 DUP3 DUP6 ADD ADD MSTORE PUSH1 0x40 PUSH1 0x1F NOT PUSH1 0x1F DUP4 ADD AND DUP5 ADD ADD SWAP2 POP POP SWAP3 SWAP2 POP POP JUMP JUMPDEST DUP1 CALLDATALOAD PUSH1 0x1 PUSH1 0x1 PUSH1 0xA0 SHL SUB DUP2 AND DUP2 EQ PUSH2 0xB52 JUMPI PUSH0 DUP1 REVERT JUMPDEST SWAP2 SWAP1 POP JUMP JUMPDEST PUSH0 DUP1 PUSH1 0x40 DUP4 DUP6 SUB SLT ISZERO PUSH2 0xB68 JUMPI PUSH0 DUP1 REVERT JUMPDEST PUSH2 0xB71 DUP4 PUSH2 0xB3C JUMP JUMPDEST SWAP5 PUSH1 0x20 SWAP4 SWAP1 SWAP4 ADD CALLDATALOAD SWAP4 POP POP POP JUMP JUMPDEST PUSH0 DUP1 PUSH0 PUSH1 0x60 DUP5 DUP7 SUB SLT ISZERO PUSH2 0xB91 JUMPI PUSH0 DUP1 REVERT JUMPDEST PUSH2 0xB9A DUP5 PUSH2 0xB3C JUMP JUMPDEST SWAP3 POP PUSH2 0xBA8 PUSH1 0x20 DUP6 ADD PUSH2 0xB3C JUMP JUMPDEST SWAP3 SWAP6 SWAP3 SWAP5 POP POP POP PUSH1 0x40 SWAP2 SWAP1 SWAP2 ADD CALLDATALOAD SWAP1 JUMP JUMPDEST PUSH0 PUSH1 0x20 DUP3 DUP5 SUB SLT ISZERO PUSH2 0xBC9 JUMPI PUSH0 DUP1 REVERT JUMPDEST POP CALLDATALOAD SWAP2 SWAP1 POP JUMP JUMPDEST PUSH0 PUSH1 0x20 DUP3 DUP5 SUB SLT ISZERO PUSH2 0xBE0 JUMPI PUSH0 DUP1 REVERT JUMPDEST PUSH2 0x7F4 DUP3 PUSH2 0xB3C JUMP JUMPDEST PUSH0 DUP1 PUSH1 0x40 DUP4 DUP6 SUB SLT ISZERO PUSH2 0xBFA JUMPI PUSH0 DUP1 REVERT JUMPDEST PUSH2 0xC03 DUP4 PUSH2 0xB3C JUMP JUMPDEST SWAP2 POP PUSH2 0xC11 PUSH1 0x20 DUP5 ADD PUSH2 0xB3C JUMP JUMPDEST SWAP1 POP SWAP3 POP SWAP3 SWAP1 POP JUMP JUMPDEST PUSH1 0x1 DUP2 DUP2 SHR SWAP1 DUP3 AND DUP1 PUSH2 0xC2E JUMPI PUSH1 0x7F DUP3 AND SWAP2 POP JUMPDEST PUSH1 0x20 DUP3 LT DUP2 SUB PUSH2 0xC4C JUMPI PUSH4 0x4E487B71 PUSH1 0xE0 SHL PUSH0 MSTORE PUSH1 0x22 PUSH1 0x4 MSTORE PUSH1 0x24 PUSH0 REVERT JUMPDEST POP SWAP2 SWAP1 POP JUMP JUMPDEST PUSH4 0x4E487B71 PUSH1 0xE0 SHL PUSH0 MSTORE PUSH1 0x11 PUSH1 0x4 MSTORE PUSH1 0x24 PUSH0 REVERT JUMPDEST DUP2 DUP2 SUB DUP2 DUP2 GT ISZERO PUSH2 0x3AE JUMPI PUSH2 0x3AE PUSH2 0xC52 JUMP JUMPDEST DUP1 DUP3 ADD DUP1 DUP3 GT ISZERO PUSH2 0x3AE JUMPI PUSH2 0x3AE PUSH2 0xC52 JUMP JUMPDEST DUP1 DUP3 MUL DUP2 ISZERO DUP3 DUP3 DIV DUP5 EQ OR PUSH2 0x3AE JUMPI PUSH2 0x3AE PUSH2 0xC52 JUMP JUMPDEST PUSH0 DUP3 PUSH2 0xCBD JUMPI PUSH4 0x4E487B71 PUSH1 0xE0 SHL PUSH0 MSTORE PUSH1 0x12 PUSH1 0x4 MSTORE PUSH1 0x24 PUSH0 REVERT JUMPDEST POP DIV SWAP1 JUMP INVALID LOG2 PUSH5 0x6970667358 0x22 SLT KECCAK256 0xC9 0xB3 0xC5 PUSH22 0xD73941A6363605C80751B333F5002709AC8B48E0ACAD JUMP PUSH25 0x2E2CDA7E64736F6C634300081A003300000000000000000000 "
				},
				"gasEstimates": {
					"creation": {
						"codeDepositCost": "664000",
						"executionCost": "infinite",
						"totalCost": "infinite"
					},
					"external": {
						"allowance(address,address)": "infinite",
						"approve(address,uint256)": "24758",
						"balanceOf(address)": "2648",
						"burn(uint256)": "55432",
						"burnFrom(address,uint256)": "infinite",
						"currentlyVested()": "infinite",
						"decimals()": "199",
						"name()": "infinite",
						"owner()": "2367",
						"releaseVestedTokens()": "infinite",
						"renounceOwnership()": "infinite",
						"symbol()": "infinite",
						"totalSupply()": "2381",
						"totalVestedReleased()": "2361",
						"totalVestedSupply()": "infinite",
						"transfer(address,uint256)": "infinite",
						"transferFrom(address,address,uint256)": "infinite",
						"transferOwnership(address)": "28421",
						"vestingDuration()": "infinite",
						"vestingStartTime()": "infinite"
					},
					"internal": {
						"_update(address,address,uint256)": "infinite"
					}
				},
				"methodIdentifiers": {
					"allowance(address,address)": "dd62ed3e",
					"approve(address,uint256)": "095ea7b3",
					"balanceOf(address)": "70a08231",
					"burn(uint256)": "42966c68",
					"burnFrom(address,uint256)": "79cc6790",
					"currentlyVested()": "f4eb90a6",
					"decimals()": "313ce567",
					"name()": "06fdde03",
					"owner()": "8da5cb5b",
					"releaseVestedTokens()": "54dd1da4",
					"renounceOwnership()": "715018a6",
					"symbol()": "95d89b41",
					"totalSupply()": "18160ddd",
					"totalVestedReleased()": "4b8f1ef0",
					"totalVestedSupply()": "9de5a561",
					"transfer(address,uint256)": "a9059cbb",
					"transferFrom(address,address,uint256)": "23b872dd",
					"transferOwnership(address)": "f2fde38b",
					"vestingDuration()": "1514617e",
					"vestingStartTime()": "a8660a78"
				}
			},
			"storageLayout": {
				"storage": [
					{
						"astId": 307,
						"contract": "contracts/BasicVestingGovernanceToken.sol:BasicVestingGovernanceToken",
						"label": "_balances",
						"offset": 0,
						"slot": "0",
						"type": "t_mapping(t_address,t_uint256)"
					},
					{
						"astId": 313,
						"contract": "contracts/BasicVestingGovernanceToken.sol:BasicVestingGovernanceToken",
						"label": "_allowances",
						"offset": 0,
						"slot": "1",
						"type": "t_mapping(t_address,t_mapping(t_address,t_uint256))"
					},
					{
						"astId": 315,
						"contract": "contracts/BasicVestingGovernanceToken.sol:BasicVestingGovernanceToken",
						"label": "_totalSupply",
						"offset": 0,
						"slot": "2",
						"type": "t_uint256"
					},
					{
						"astId": 317,
						"contract": "contracts/BasicVestingGovernanceToken.sol:BasicVestingGovernanceToken",
						"label": "_name",
						"offset": 0,
						"slot": "3",
						"type": "t_string_storage"
					},
					{
						"astId": 319,
						"contract": "contracts/BasicVestingGovernanceToken.sol:BasicVestingGovernanceToken",
						"label": "_symbol",
						"offset": 0,
						"slot": "4",
						"type": "t_string_storage"
					},
					{
						"astId": 8,
						"contract": "contracts/BasicVestingGovernanceToken.sol:BasicVestingGovernanceToken",
						"label": "_owner",
						"offset": 0,
						"slot": "5",
						"type": "t_address"
					},
					{
						"astId": 1314,
						"contract": "contracts/BasicVestingGovernanceToken.sol:BasicVestingGovernanceToken",
						"label": "totalVestedReleased",
						"offset": 0,
						"slot": "6",
						"type": "t_uint256"
					}
				],
				"types": {
					"t_address": {
						"encoding": "inplace",
						"label": "address",
						"numberOfBytes": "20"
					},
					"t_mapping(t_address,t_mapping(t_address,t_uint256))": {
						"encoding": "mapping",
						"key": "t_address",
						"label": "mapping(address => mapping(address => uint256))",
						"numberOfBytes": "32",
						"value": "t_mapping(t_address,t_uint256)"
					},
					"t_mapping(t_address,t_uint256)": {
						"encoding": "mapping",
						"key": "t_address",
						"label": "mapping(address => uint256)",
						"numberOfBytes": "32",
						"value": "t_uint256"
					},
					"t_string_storage": {
						"encoding": "bytes",
						"label": "string",
						"numberOfBytes": "32"
					},
					"t_uint256": {
						"encoding": "inplace",
						"label": "uint256",
						"numberOfBytes": "32"
					}
				}
			},
			"userdoc": {
				"kind": "user",
				"methods": {},
				"version": 1
			}
		}
	}
}