{
	"contracts/StakingContract.sol": {
		"StakingContract": {
			"abi": [
				{
					"inputs": [
						{
							"internalType": "address",
							"name": "_tokenAddress",
							"type": "address"
						},
						{
							"internalType": "address",
							"name": "_initialOwner",
							"type": "address"
						}
					],
					"stateMutability": "nonpayable",
					"type": "constructor"
				},
				{
					"inputs": [
						{
							"internalType": "address",
							"name": "owner",
							"type": "address"
						}
					],
					"name": "OwnableInvalidOwner",
					"type": "error"
				},
				{
					"inputs": [
						{
							"internalType": "address",
							"name": "account",
							"type": "address"
						}
					],
					"name": "OwnableUnauthorizedAccount",
					"type": "error"
				},
				{
					"anonymous": false,
					"inputs": [
						{
							"indexed": true,
							"internalType": "address",
							"name": "previousOwner",
							"type": "address"
						},
						{
							"indexed": true,
							"internalType": "address",
							"name": "newOwner",
							"type": "address"
						}
					],
					"name": "OwnershipTransferred",
					"type": "event"
				},
				{
					"anonymous": false,
					"inputs": [
						{
							"indexed": true,
							"internalType": "address",
							"name": "user",
							"type": "address"
						},
						{
							"indexed": false,
							"internalType": "uint256",
							"name": "amount",
							"type": "uint256"
						}
					],
					"name": "Staked",
					"type": "event"
				},
				{
					"anonymous": false,
					"inputs": [
						{
							"indexed": true,
							"internalType": "address",
							"name": "user",
							"type": "address"
						},
						{
							"indexed": false,
							"internalType": "uint256",
							"name": "amount",
							"type": "uint256"
						},
						{
							"indexed": false,
							"internalType": "uint256",
							"name": "unlockTime",
							"type": "uint256"
						}
					],
					"name": "UnstakeInitiated",
					"type": "event"
				},
				{
					"anonymous": false,
					"inputs": [
						{
							"indexed": true,
							"internalType": "address",
							"name": "user",
							"type": "address"
						},
						{
							"indexed": false,
							"internalType": "uint256",
							"name": "amount",
							"type": "uint256"
						}
					],
					"name": "Withdraw",
					"type": "event"
				},
				{
					"inputs": [],
					"name": "UNSTAKE_PERIOD",
					"outputs": [
						{
							"internalType": "uint256",
							"name": "",
							"type": "uint256"
						}
					],
					"stateMutability": "view",
					"type": "function"
				},
				{
					"inputs": [
						{
							"internalType": "address",
							"name": "_account",
							"type": "address"
						}
					],
					"name": "getUnstakedRequest",
					"outputs": [
						{
							"internalType": "uint256",
							"name": "amount",
							"type": "uint256"
						},
						{
							"internalType": "uint256",
							"name": "unlockTime",
							"type": "uint256"
						}
					],
					"stateMutability": "view",
					"type": "function"
				},
				{
					"inputs": [
						{
							"internalType": "address",
							"name": "_account",
							"type": "address"
						}
					],
					"name": "getVotingPower",
					"outputs": [
						{
							"internalType": "uint256",
							"name": "",
							"type": "uint256"
						}
					],
					"stateMutability": "view",
					"type": "function"
				},
				{
					"inputs": [],
					"name": "governanceToken",
					"outputs": [
						{
							"internalType": "contract IERC20",
							"name": "",
							"type": "address"
						}
					],
					"stateMutability": "view",
					"type": "function"
				},
				{
					"inputs": [
						{
							"internalType": "uint256",
							"name": "_amount",
							"type": "uint256"
						}
					],
					"name": "initiateUnstaking",
					"outputs": [],
					"stateMutability": "nonpayable",
					"type": "function"
				},
				{
					"inputs": [],
					"name": "owner",
					"outputs": [
						{
							"internalType": "address",
							"name": "",
							"type": "address"
						}
					],
					"stateMutability": "view",
					"type": "function"
				},
				{
					"inputs": [],
					"name": "renounceOwnership",
					"outputs": [],
					"stateMutability": "nonpayable",
					"type": "function"
				},
				{
					"inputs": [
						{
							"internalType": "uint256",
							"name": "_amount",
							"type": "uint256"
						}
					],
					"name": "stake",
					"outputs": [],
					"stateMutability": "nonpayable",
					"type": "function"
				},
				{
					"inputs": [
						{
							"internalType": "address",
							"name": "",
							"type": "address"
						}
					],
					"name": "stakedBalance",
					"outputs": [
						{
							"internalType": "uint256",
							"name": "",
							"type": "uint256"
						}
					],
					"stateMutability": "view",
					"type": "function"
				},
				{
					"inputs": [],
					"name": "totalStaked",
					"outputs": [
						{
							"internalType": "uint256",
							"name": "",
							"type": "uint256"
						}
					],
					"stateMutability": "view",
					"type": "function"
				},
				{
					"inputs": [
						{
							"internalType": "address",
							"name": "newOwner",
							"type": "address"
						}
					],
					"name": "transferOwnership",
					"outputs": [],
					"stateMutability": "nonpayable",
					"type": "function"
				},
				{
					"inputs": [
						{
							"internalType": "address",
							"name": "",
							"type": "address"
						}
					],
					"name": "unstakingRequest",
					"outputs": [
						{
							"internalType": "uint256",
							"name": "amount",
							"type": "uint256"
						},
						{
							"internalType": "uint256",
							"name": "unlockTime",
							"type": "uint256"
						}
					],
					"stateMutability": "view",
					"type": "function"
				},
				{
					"inputs": [],
					"name": "withdraw",
					"outputs": [],
					"stateMutability": "nonpayable",
					"type": "function"
				}
			],
			"devdoc": {
				"errors": {
					"OwnableInvalidOwner(address)": [
						{
							"details": "The owner is not a valid owner account. (eg. `address(0)`)"
						}
					],
					"OwnableUnauthorizedAccount(address)": [
						{
							"details": "The caller account is not authorized to perform an operation."
						}
					]
				},
				"kind": "dev",
				"methods": {
					"constructor": {
						"details": "Constructor sets the address of the Governance Token",
						"params": {
							"_initialOwner": "The address that will own the contract",
							"_tokenAddress": "The address to deploy GovernanceToken contract"
						}
					},
					"getUnstakedRequest(address)": {
						"params": {
							"_account": "The address to query."
						},
						"returns": {
							"amount": "The amount pending withdrawal.",
							"unlockTime": "The timestamp when withdrawal is possible."
						}
					},
					"getVotingPower(address)": {
						"params": {
							"_account": "The address to query."
						},
						"returns": {
							"_0": "The amount of tokens staked by the account."
						}
					},
					"initiateUnstaking(uint256)": {
						"details": "Tokens remain locked for UNSTAKE_PERIOD. Only one unstake request active at a time per user.",
						"params": {
							"_amount": "The amount of tokens to start unstaking."
						}
					},
					"owner()": {
						"details": "Returns the address of the current owner."
					},
					"renounceOwnership()": {
						"details": "Leaves the contract without owner. It will not be possible to call `onlyOwner` functions. Can only be called by the current owner. NOTE: Renouncing ownership will leave the contract without an owner, thereby disabling any functionality that is only available to the owner."
					},
					"stake(uint256)": {
						"details": "User must first approve this contract to spend their tokens.",
						"params": {
							"_amount": "The amount of tokens to stake."
						}
					},
					"transferOwnership(address)": {
						"details": "Transfers ownership of the contract to a new account (`newOwner`). Can only be called by the current owner."
					},
					"withdraw()": {
						"details": "Can only be called after initiateUnstake and waiting UNSTAKE_PERIOD."
					}
				},
				"version": 1
			},
			"evm": {
				"assembly": "    /* \"contracts/StakingContract.sol\":291:4983  contract StakingContract is Ownable, ReentrancyGuard {... */\n  mstore(0x40, 0xa0)\n    /* \"contracts/StakingContract.sol\":1213:1432  constructor(address _tokenAddress, address _initialOwner) Ownable(_initialOwner) {... */\n  callvalue\n  dup1\n  iszero\n  tag_1\n  jumpi\n  0x00\n  dup1\n  revert\ntag_1:\n  pop\n  mload(0x40)\n  sub(codesize, bytecodeSize)\n  dup1\n  bytecodeSize\n  dup4\n  codecopy\n  dup2\n  dup2\n  add\n  0x40\n  mstore\n  dup2\n  add\n  swap1\n  tag_2\n  swap2\n  swap1\n  tag_3\n  jump\t// in\ntag_2:\n    /* \"contracts/StakingContract.sol\":1279:1292  _initialOwner */\n  dup1\n    /* \"@openzeppelin/contracts/access/Ownable.sol\":1297:1298  0 */\n  0x00\n    /* \"@openzeppelin/contracts/access/Ownable.sol\":1273:1299  initialOwner == address(0) */\n  0xffffffffffffffffffffffffffffffffffffffff\n  and\n    /* \"@openzeppelin/contracts/access/Ownable.sol\":1273:1285  initialOwner */\n  dup2\n    /* \"@openzeppelin/contracts/access/Ownable.sol\":1273:1299  initialOwner == address(0) */\n  0xffffffffffffffffffffffffffffffffffffffff\n  and\n  sub\n    /* \"@openzeppelin/contracts/access/Ownable.sol\":1269:1364  if (initialOwner == address(0)) {... */\n  tag_8\n  jumpi\n    /* \"@openzeppelin/contracts/access/Ownable.sol\":1350:1351  0 */\n  0x00\n    /* \"@openzeppelin/contracts/access/Ownable.sol\":1322:1353  OwnableInvalidOwner(address(0)) */\n  mload(0x40)\n  0x1e4fbdf700000000000000000000000000000000000000000000000000000000\n  dup2\n  mstore\n  0x04\n  add\n  tag_9\n  swap2\n  swap1\n  tag_10\n  jump\t// in\ntag_9:\n  mload(0x40)\n  dup1\n  swap2\n  sub\n  swap1\n  revert\n    /* \"@openzeppelin/contracts/access/Ownable.sol\":1269:1364  if (initialOwner == address(0)) {... */\ntag_8:\n    /* \"@openzeppelin/contracts/access/Ownable.sol\":1373:1405  _transferOwnership(initialOwner) */\n  tag_11\n    /* \"@openzeppelin/contracts/access/Ownable.sol\":1392:1404  initialOwner */\n  dup2\n    /* \"@openzeppelin/contracts/access/Ownable.sol\":1373:1391  _transferOwnership */\n  shl(0x20, tag_12)\n    /* \"@openzeppelin/contracts/access/Ownable.sol\":1373:1405  _transferOwnership(initialOwner) */\n  0x20\n  shr\n  jump\t// in\ntag_11:\n    /* \"@openzeppelin/contracts/access/Ownable.sol\":1225:1412  constructor(address initialOwner) {... */\n  pop\n    /* \"@openzeppelin/contracts/security/ReentrancyGuard.sol\":1716:1717  1 */\n  0x01\n    /* \"@openzeppelin/contracts/security/ReentrancyGuard.sol\":1821:1828  _status */\n  dup1\n    /* \"@openzeppelin/contracts/security/ReentrancyGuard.sol\":1821:1843  _status = _NOT_ENTERED */\n  dup2\n  swap1\n  sstore\n  pop\n    /* \"contracts/StakingContract.sol\":1337:1338  0 */\n  0x00\n    /* \"contracts/StakingContract.sol\":1312:1339  _tokenAddress != address(0) */\n  0xffffffffffffffffffffffffffffffffffffffff\n  and\n    /* \"contracts/StakingContract.sol\":1312:1325  _tokenAddress */\n  dup3\n    /* \"contracts/StakingContract.sol\":1312:1339  _tokenAddress != address(0) */\n  0xffffffffffffffffffffffffffffffffffffffff\n  and\n  sub\n    /* \"contracts/StakingContract.sol\":1304:1376  require(_tokenAddress != address(0), \"The Token address cannot be zero\") */\n  tag_15\n  jumpi\n  mload(0x40)\n  0x08c379a000000000000000000000000000000000000000000000000000000000\n  dup2\n  mstore\n  0x04\n  add\n  tag_16\n  swap1\n  tag_17\n  jump\t// in\ntag_16:\n  mload(0x40)\n  dup1\n  swap2\n  sub\n  swap1\n  revert\ntag_15:\n    /* \"contracts/StakingContract.sol\":1411:1424  _tokenAddress */\n  dup2\n    /* \"contracts/StakingContract.sol\":1386:1425  governanceToken = IERC20(_tokenAddress) */\n  0xffffffffffffffffffffffffffffffffffffffff\n  and\n  0x80\n  dup2\n  0xffffffffffffffffffffffffffffffffffffffff\n  and\n  dup2\n  mstore\n  pop\n  pop\n    /* \"contracts/StakingContract.sol\":1213:1432  constructor(address _tokenAddress, address _initialOwner) Ownable(_initialOwner) {... */\n  pop\n  pop\n    /* \"contracts/StakingContract.sol\":291:4983  contract StakingContract is Ownable, ReentrancyGuard {... */\n  jump(tag_18)\n    /* \"@openzeppelin/contracts/access/Ownable.sol\":2912:3099  function _transferOwnership(address newOwner) internal virtual {... */\ntag_12:\n    /* \"@openzeppelin/contracts/access/Ownable.sol\":2985:3001  address oldOwner */\n  0x00\n    /* \"@openzeppelin/contracts/access/Ownable.sol\":3004:3010  _owner */\n  dup1\n  0x00\n  swap1\n  sload\n  swap1\n  0x0100\n  exp\n  swap1\n  div\n  0xffffffffffffffffffffffffffffffffffffffff\n  and\n    /* \"@openzeppelin/contracts/access/Ownable.sol\":2985:3010  address oldOwner = _owner */\n  swap1\n  pop\n    /* \"@openzeppelin/contracts/access/Ownable.sol\":3029:3037  newOwner */\n  dup2\n    /* \"@openzeppelin/contracts/access/Ownable.sol\":3020:3026  _owner */\n  0x00\n  dup1\n    /* \"@openzeppelin/contracts/access/Ownable.sol\":3020:3037  _owner = newOwner */\n  0x0100\n  exp\n  dup2\n  sload\n  dup2\n  0xffffffffffffffffffffffffffffffffffffffff\n  mul\n  not\n  and\n  swap1\n  dup4\n  0xffffffffffffffffffffffffffffffffffffffff\n  and\n  mul\n  or\n  swap1\n  sstore\n  pop\n    /* \"@openzeppelin/contracts/access/Ownable.sol\":3083:3091  newOwner */\n  dup2\n    /* \"@openzeppelin/contracts/access/Ownable.sol\":3052:3092  OwnershipTransferred(oldOwner, newOwner) */\n  0xffffffffffffffffffffffffffffffffffffffff\n  and\n    /* \"@openzeppelin/contracts/access/Ownable.sol\":3073:3081  oldOwner */\n  dup2\n    /* \"@openzeppelin/contracts/access/Ownable.sol\":3052:3092  OwnershipTransferred(oldOwner, newOwner) */\n  0xffffffffffffffffffffffffffffffffffffffff\n  and\n  0x8be0079c531659141344cd1fd0a4f28419497f9722a3daafe3b4186f6b6457e0\n  mload(0x40)\n  mload(0x40)\n  dup1\n  swap2\n  sub\n  swap1\n  log3\n    /* \"@openzeppelin/contracts/access/Ownable.sol\":2975:3099  {... */\n  pop\n    /* \"@openzeppelin/contracts/access/Ownable.sol\":2912:3099  function _transferOwnership(address newOwner) internal virtual {... */\n  pop\n  jump\t// out\n    /* \"#utility.yul\":88:205   */\ntag_21:\n    /* \"#utility.yul\":197:198   */\n  0x00\n    /* \"#utility.yul\":194:195   */\n  dup1\n    /* \"#utility.yul\":187:199   */\n  revert\n    /* \"#utility.yul\":334:460   */\ntag_23:\n    /* \"#utility.yul\":371:378   */\n  0x00\n    /* \"#utility.yul\":411:453   */\n  0xffffffffffffffffffffffffffffffffffffffff\n    /* \"#utility.yul\":404:409   */\n  dup3\n    /* \"#utility.yul\":400:454   */\n  and\n    /* \"#utility.yul\":389:454   */\n  swap1\n  pop\n    /* \"#utility.yul\":334:460   */\n  swap2\n  swap1\n  pop\n  jump\t// out\n    /* \"#utility.yul\":466:562   */\ntag_24:\n    /* \"#utility.yul\":503:510   */\n  0x00\n    /* \"#utility.yul\":532:556   */\n  tag_37\n    /* \"#utility.yul\":550:555   */\n  dup3\n    /* \"#utility.yul\":532:556   */\n  tag_23\n  jump\t// in\ntag_37:\n    /* \"#utility.yul\":521:556   */\n  swap1\n  pop\n    /* \"#utility.yul\":466:562   */\n  swap2\n  swap1\n  pop\n  jump\t// out\n    /* \"#utility.yul\":568:690   */\ntag_25:\n    /* \"#utility.yul\":641:665   */\n  tag_39\n    /* \"#utility.yul\":659:664   */\n  dup2\n    /* \"#utility.yul\":641:665   */\n  tag_24\n  jump\t// in\ntag_39:\n    /* \"#utility.yul\":634:639   */\n  dup2\n    /* \"#utility.yul\":631:666   */\n  eq\n    /* \"#utility.yul\":621:684   */\n  tag_40\n  jumpi\n    /* \"#utility.yul\":680:681   */\n  0x00\n    /* \"#utility.yul\":677:678   */\n  dup1\n    /* \"#utility.yul\":670:682   */\n  revert\n    /* \"#utility.yul\":621:684   */\ntag_40:\n    /* \"#utility.yul\":568:690   */\n  pop\n  jump\t// out\n    /* \"#utility.yul\":696:839   */\ntag_26:\n    /* \"#utility.yul\":753:758   */\n  0x00\n    /* \"#utility.yul\":784:790   */\n  dup2\n    /* \"#utility.yul\":778:791   */\n  mload\n    /* \"#utility.yul\":769:791   */\n  swap1\n  pop\n    /* \"#utility.yul\":800:833   */\n  tag_42\n    /* \"#utility.yul\":827:832   */\n  dup2\n    /* \"#utility.yul\":800:833   */\n  tag_25\n  jump\t// in\ntag_42:\n    /* \"#utility.yul\":696:839   */\n  swap3\n  swap2\n  pop\n  pop\n  jump\t// out\n    /* \"#utility.yul\":845:1352   */\ntag_3:\n    /* \"#utility.yul\":924:930   */\n  0x00\n    /* \"#utility.yul\":932:938   */\n  dup1\n    /* \"#utility.yul\":981:983   */\n  0x40\n    /* \"#utility.yul\":969:978   */\n  dup4\n    /* \"#utility.yul\":960:967   */\n  dup6\n    /* \"#utility.yul\":956:979   */\n  sub\n    /* \"#utility.yul\":952:984   */\n  slt\n    /* \"#utility.yul\":949:1068   */\n  iszero\n  tag_44\n  jumpi\n    /* \"#utility.yul\":987:1066   */\n  tag_45\n  tag_21\n  jump\t// in\ntag_45:\n    /* \"#utility.yul\":949:1068   */\ntag_44:\n    /* \"#utility.yul\":1107:1108   */\n  0x00\n    /* \"#utility.yul\":1132:1196   */\n  tag_46\n    /* \"#utility.yul\":1188:1195   */\n  dup6\n    /* \"#utility.yul\":1179:1185   */\n  dup3\n    /* \"#utility.yul\":1168:1177   */\n  dup7\n    /* \"#utility.yul\":1164:1186   */\n  add\n    /* \"#utility.yul\":1132:1196   */\n  tag_26\n  jump\t// in\ntag_46:\n    /* \"#utility.yul\":1122:1196   */\n  swap3\n  pop\n    /* \"#utility.yul\":1078:1206   */\n  pop\n    /* \"#utility.yul\":1245:1247   */\n  0x20\n    /* \"#utility.yul\":1271:1335   */\n  tag_47\n    /* \"#utility.yul\":1327:1334   */\n  dup6\n    /* \"#utility.yul\":1318:1324   */\n  dup3\n    /* \"#utility.yul\":1307:1316   */\n  dup7\n    /* \"#utility.yul\":1303:1325   */\n  add\n    /* \"#utility.yul\":1271:1335   */\n  tag_26\n  jump\t// in\ntag_47:\n    /* \"#utility.yul\":1261:1335   */\n  swap2\n  pop\n    /* \"#utility.yul\":1216:1345   */\n  pop\n    /* \"#utility.yul\":845:1352   */\n  swap3\n  pop\n  swap3\n  swap1\n  pop\n  jump\t// out\n    /* \"#utility.yul\":1358:1476   */\ntag_27:\n    /* \"#utility.yul\":1445:1469   */\n  tag_49\n    /* \"#utility.yul\":1463:1468   */\n  dup2\n    /* \"#utility.yul\":1445:1469   */\n  tag_24\n  jump\t// in\ntag_49:\n    /* \"#utility.yul\":1440:1443   */\n  dup3\n    /* \"#utility.yul\":1433:1470   */\n  mstore\n    /* \"#utility.yul\":1358:1476   */\n  pop\n  pop\n  jump\t// out\n    /* \"#utility.yul\":1482:1704   */\ntag_10:\n    /* \"#utility.yul\":1575:1579   */\n  0x00\n    /* \"#utility.yul\":1613:1615   */\n  0x20\n    /* \"#utility.yul\":1602:1611   */\n  dup3\n    /* \"#utility.yul\":1598:1616   */\n  add\n    /* \"#utility.yul\":1590:1616   */\n  swap1\n  pop\n    /* \"#utility.yul\":1626:1697   */\n  tag_51\n    /* \"#utility.yul\":1694:1695   */\n  0x00\n    /* \"#utility.yul\":1683:1692   */\n  dup4\n    /* \"#utility.yul\":1679:1696   */\n  add\n    /* \"#utility.yul\":1670:1676   */\n  dup5\n    /* \"#utility.yul\":1626:1697   */\n  tag_27\n  jump\t// in\ntag_51:\n    /* \"#utility.yul\":1482:1704   */\n  swap3\n  swap2\n  pop\n  pop\n  jump\t// out\n    /* \"#utility.yul\":1710:1879   */\ntag_28:\n    /* \"#utility.yul\":1794:1805   */\n  0x00\n    /* \"#utility.yul\":1828:1834   */\n  dup3\n    /* \"#utility.yul\":1823:1826   */\n  dup3\n    /* \"#utility.yul\":1816:1835   */\n  mstore\n    /* \"#utility.yul\":1868:1872   */\n  0x20\n    /* \"#utility.yul\":1863:1866   */\n  dup3\n    /* \"#utility.yul\":1859:1873   */\n  add\n    /* \"#utility.yul\":1844:1873   */\n  swap1\n  pop\n    /* \"#utility.yul\":1710:1879   */\n  swap3\n  swap2\n  pop\n  pop\n  jump\t// out\n    /* \"#utility.yul\":1885:2067   */\ntag_29:\n    /* \"#utility.yul\":2025:2059   */\n  0x54686520546f6b656e20616464726573732063616e6e6f74206265207a65726f\n    /* \"#utility.yul\":2021:2022   */\n  0x00\n    /* \"#utility.yul\":2013:2019   */\n  dup3\n    /* \"#utility.yul\":2009:2023   */\n  add\n    /* \"#utility.yul\":2002:2060   */\n  mstore\n    /* \"#utility.yul\":1885:2067   */\n  pop\n  jump\t// out\n    /* \"#utility.yul\":2073:2439   */\ntag_30:\n    /* \"#utility.yul\":2215:2218   */\n  0x00\n    /* \"#utility.yul\":2236:2303   */\n  tag_55\n    /* \"#utility.yul\":2300:2302   */\n  0x20\n    /* \"#utility.yul\":2295:2298   */\n  dup4\n    /* \"#utility.yul\":2236:2303   */\n  tag_28\n  jump\t// in\ntag_55:\n    /* \"#utility.yul\":2229:2303   */\n  swap2\n  pop\n    /* \"#utility.yul\":2312:2405   */\n  tag_56\n    /* \"#utility.yul\":2401:2404   */\n  dup3\n    /* \"#utility.yul\":2312:2405   */\n  tag_29\n  jump\t// in\ntag_56:\n    /* \"#utility.yul\":2430:2432   */\n  0x20\n    /* \"#utility.yul\":2425:2428   */\n  dup3\n    /* \"#utility.yul\":2421:2433   */\n  add\n    /* \"#utility.yul\":2414:2433   */\n  swap1\n  pop\n    /* \"#utility.yul\":2073:2439   */\n  swap2\n  swap1\n  pop\n  jump\t// out\n    /* \"#utility.yul\":2445:2864   */\ntag_17:\n    /* \"#utility.yul\":2611:2615   */\n  0x00\n    /* \"#utility.yul\":2649:2651   */\n  0x20\n    /* \"#utility.yul\":2638:2647   */\n  dup3\n    /* \"#utility.yul\":2634:2652   */\n  add\n    /* \"#utility.yul\":2626:2652   */\n  swap1\n  pop\n    /* \"#utility.yul\":2698:2707   */\n  dup2\n    /* \"#utility.yul\":2692:2696   */\n  dup2\n    /* \"#utility.yul\":2688:2708   */\n  sub\n    /* \"#utility.yul\":2684:2685   */\n  0x00\n    /* \"#utility.yul\":2673:2682   */\n  dup4\n    /* \"#utility.yul\":2669:2686   */\n  add\n    /* \"#utility.yul\":2662:2709   */\n  mstore\n    /* \"#utility.yul\":2726:2857   */\n  tag_58\n    /* \"#utility.yul\":2852:2856   */\n  dup2\n    /* \"#utility.yul\":2726:2857   */\n  tag_30\n  jump\t// in\ntag_58:\n    /* \"#utility.yul\":2718:2857   */\n  swap1\n  pop\n    /* \"#utility.yul\":2445:2864   */\n  swap2\n  swap1\n  pop\n  jump\t// out\n    /* \"contracts/StakingContract.sol\":291:4983  contract StakingContract is Ownable, ReentrancyGuard {... */\ntag_18:\n  mload(0x80)\n  codecopy(0x00, dataOffset(sub_0), dataSize(sub_0))\n  0x00\n  assignImmutable(\"0x42fa20e8c2fc174121a60bb5704cfd8579fc4a2698f9ae487d1310659094676e\")\n  return(0x00, dataSize(sub_0))\nstop\n\nsub_0: assembly {\n        /* \"contracts/StakingContract.sol\":291:4983  contract StakingContract is Ownable, ReentrancyGuard {... */\n      mstore(0x40, 0x80)\n      callvalue\n      dup1\n      iszero\n      tag_1\n      jumpi\n      0x00\n      dup1\n      revert\n    tag_1:\n      pop\n      jumpi(tag_2, lt(calldatasize, 0x04))\n      shr(0xe0, calldataload(0x00))\n      dup1\n      0x817b1cd2\n      gt\n      tag_16\n      jumpi\n      dup1\n      0xa694fc3a\n      gt\n      tag_17\n      jumpi\n      dup1\n      0xa694fc3a\n      eq\n      tag_12\n      jumpi\n      dup1\n      0xbb4d4436\n      eq\n      tag_13\n      jumpi\n      dup1\n      0xf2fde38b\n      eq\n      tag_14\n      jumpi\n      dup1\n      0xf96dae0a\n      eq\n      tag_15\n      jumpi\n      jump(tag_2)\n    tag_17:\n      dup1\n      0x817b1cd2\n      eq\n      tag_9\n      jumpi\n      dup1\n      0x8da5cb5b\n      eq\n      tag_10\n      jumpi\n      dup1\n      0xa0873111\n      eq\n      tag_11\n      jumpi\n      jump(tag_2)\n    tag_16:\n      dup1\n      0x18fb4f32\n      eq\n      tag_3\n      jumpi\n      dup1\n      0x3b64916e\n      eq\n      tag_4\n      jumpi\n      dup1\n      0x3ccfd60b\n      eq\n      tag_5\n      jumpi\n      dup1\n      0x60217267\n      eq\n      tag_6\n      jumpi\n      dup1\n      0x715018a6\n      eq\n      tag_7\n      jumpi\n      dup1\n      0x79b57862\n      eq\n      tag_8\n      jumpi\n    tag_2:\n      0x00\n      dup1\n      revert\n        /* \"contracts/StakingContract.sol\":2546:3303  function initiateUnstaking(uint256 _amount) external nonReentrant {... */\n    tag_3:\n      tag_18\n      0x04\n      dup1\n      calldatasize\n      sub\n      dup2\n      add\n      swap1\n      tag_19\n      swap2\n      swap1\n      tag_20\n      jump\t// in\n    tag_19:\n      tag_21\n      jump\t// in\n    tag_18:\n      stop\n        /* \"contracts/StakingContract.sol\":4749:4979  function getUnstakedRequest(address _account) external view returns(uint256 amount, uint256 unlockTime) {... */\n    tag_4:\n      tag_22\n      0x04\n      dup1\n      calldatasize\n      sub\n      dup2\n      add\n      swap1\n      tag_23\n      swap2\n      swap1\n      tag_24\n      jump\t// in\n    tag_23:\n      tag_25\n      jump\t// in\n    tag_22:\n      mload(0x40)\n      tag_26\n      swap3\n      swap2\n      swap1\n      tag_27\n      jump\t// in\n    tag_26:\n      mload(0x40)\n      dup1\n      swap2\n      sub\n      swap1\n      return\n        /* \"contracts/StakingContract.sol\":3477:4139  function withdraw() external nonReentrant {... */\n    tag_5:\n      tag_28\n      tag_29\n      jump\t// in\n    tag_28:\n      stop\n        /* \"contracts/StakingContract.sol\":429:477  mapping(address => uint256) public stakedBalance */\n    tag_6:\n      tag_30\n      0x04\n      dup1\n      calldatasize\n      sub\n      dup2\n      add\n      swap1\n      tag_31\n      swap2\n      swap1\n      tag_24\n      jump\t// in\n    tag_31:\n      tag_32\n      jump\t// in\n    tag_30:\n      mload(0x40)\n      tag_33\n      swap2\n      swap1\n      tag_34\n      jump\t// in\n    tag_33:\n      mload(0x40)\n      dup1\n      swap2\n      sub\n      swap1\n      return\n        /* \"@openzeppelin/contracts/access/Ownable.sol\":2293:2394  function renounceOwnership() public virtual onlyOwner {... */\n    tag_7:\n      tag_35\n      tag_36\n      jump\t// in\n    tag_35:\n      stop\n        /* \"contracts/StakingContract.sol\":721:768  uint256 public constant UNSTAKE_PERIOD = 7 days */\n    tag_8:\n      tag_37\n      tag_38\n      jump\t// in\n    tag_37:\n      mload(0x40)\n      tag_39\n      swap2\n      swap1\n      tag_34\n      jump\t// in\n    tag_39:\n      mload(0x40)\n      dup1\n      swap2\n      sub\n      swap1\n      return\n        /* \"contracts/StakingContract.sol\":483:506  uint public totalStaked */\n    tag_9:\n      tag_40\n      tag_41\n      jump\t// in\n    tag_40:\n      mload(0x40)\n      tag_42\n      swap2\n      swap1\n      tag_34\n      jump\t// in\n    tag_42:\n      mload(0x40)\n      dup1\n      swap2\n      sub\n      swap1\n      return\n        /* \"@openzeppelin/contracts/access/Ownable.sol\":1638:1723  function owner() public view virtual returns (address) {... */\n    tag_10:\n      tag_43\n      tag_44\n      jump\t// in\n    tag_43:\n      mload(0x40)\n      tag_45\n      swap2\n      swap1\n      tag_46\n      jump\t// in\n    tag_45:\n      mload(0x40)\n      dup1\n      swap2\n      sub\n      swap1\n      return\n        /* \"contracts/StakingContract.sol\":659:714  mapping(address => UnstakeInfo) public unstakingRequest */\n    tag_11:\n      tag_47\n      0x04\n      dup1\n      calldatasize\n      sub\n      dup2\n      add\n      swap1\n      tag_48\n      swap2\n      swap1\n      tag_24\n      jump\t// in\n    tag_48:\n      tag_49\n      jump\t// in\n    tag_47:\n      mload(0x40)\n      tag_50\n      swap3\n      swap2\n      swap1\n      tag_27\n      jump\t// in\n    tag_50:\n      mload(0x40)\n      dup1\n      swap2\n      sub\n      swap1\n      return\n        /* \"contracts/StakingContract.sol\":1657:2267  function stake(uint256 _amount) external nonReentrant {... */\n    tag_12:\n      tag_51\n      0x04\n      dup1\n      calldatasize\n      sub\n      dup2\n      add\n      swap1\n      tag_52\n      swap2\n      swap1\n      tag_20\n      jump\t// in\n    tag_52:\n      tag_53\n      jump\t// in\n    tag_51:\n      stop\n        /* \"contracts/StakingContract.sol\":4374:4492  function getVotingPower(address _account) public view returns(uint256) {... */\n    tag_13:\n      tag_54\n      0x04\n      dup1\n      calldatasize\n      sub\n      dup2\n      add\n      swap1\n      tag_55\n      swap2\n      swap1\n      tag_24\n      jump\t// in\n    tag_55:\n      tag_56\n      jump\t// in\n    tag_54:\n      mload(0x40)\n      tag_57\n      swap2\n      swap1\n      tag_34\n      jump\t// in\n    tag_57:\n      mload(0x40)\n      dup1\n      swap2\n      sub\n      swap1\n      return\n        /* \"@openzeppelin/contracts/access/Ownable.sol\":2543:2758  function transferOwnership(address newOwner) public virtual onlyOwner {... */\n    tag_14:\n      tag_58\n      0x04\n      dup1\n      calldatasize\n      sub\n      dup2\n      add\n      swap1\n      tag_59\n      swap2\n      swap1\n      tag_24\n      jump\t// in\n    tag_59:\n      tag_60\n      jump\t// in\n    tag_58:\n      stop\n        /* \"contracts/StakingContract.sol\":383:422  IERC20 public immutable governanceToken */\n    tag_15:\n      tag_61\n      tag_62\n      jump\t// in\n    tag_61:\n      mload(0x40)\n      tag_63\n      swap2\n      swap1\n      tag_64\n      jump\t// in\n    tag_63:\n      mload(0x40)\n      dup1\n      swap2\n      sub\n      swap1\n      return\n        /* \"contracts/StakingContract.sol\":2546:3303  function initiateUnstaking(uint256 _amount) external nonReentrant {... */\n    tag_21:\n        /* \"@openzeppelin/contracts/security/ReentrancyGuard.sol\":2261:2282  _nonReentrantBefore() */\n      tag_66\n        /* \"@openzeppelin/contracts/security/ReentrancyGuard.sol\":2261:2280  _nonReentrantBefore */\n      tag_67\n        /* \"@openzeppelin/contracts/security/ReentrancyGuard.sol\":2261:2282  _nonReentrantBefore() */\n      jump\t// in\n    tag_66:\n        /* \"contracts/StakingContract.sol\":2640:2641  0 */\n      0x00\n        /* \"contracts/StakingContract.sol\":2630:2637  _amount */\n      dup2\n        /* \"contracts/StakingContract.sol\":2630:2641  _amount > 0 */\n      gt\n        /* \"contracts/StakingContract.sol\":2622:2672  require(_amount > 0, \"Cannot Unstake zero tokens\") */\n      tag_69\n      jumpi\n      mload(0x40)\n      0x08c379a000000000000000000000000000000000000000000000000000000000\n      dup2\n      mstore\n      0x04\n      add\n      tag_70\n      swap1\n      tag_71\n      jump\t// in\n    tag_70:\n      mload(0x40)\n      dup1\n      swap2\n      sub\n      swap1\n      revert\n    tag_69:\n        /* \"contracts/StakingContract.sol\":2719:2726  _amount */\n      dup1\n        /* \"contracts/StakingContract.sol\":2690:2703  stakedBalance */\n      0x02\n        /* \"contracts/StakingContract.sol\":2690:2715  stakedBalance[msg.sender] */\n      0x00\n        /* \"contracts/StakingContract.sol\":2704:2714  msg.sender */\n      caller\n        /* \"contracts/StakingContract.sol\":2690:2715  stakedBalance[msg.sender] */\n      0xffffffffffffffffffffffffffffffffffffffff\n      and\n      0xffffffffffffffffffffffffffffffffffffffff\n      and\n      dup2\n      mstore\n      0x20\n      add\n      swap1\n      dup2\n      mstore\n      0x20\n      add\n      0x00\n      keccak256\n      sload\n        /* \"contracts/StakingContract.sol\":2690:2726  stakedBalance[msg.sender] >= _amount */\n      lt\n      iszero\n        /* \"contracts/StakingContract.sol\":2682:2758  require(stakedBalance[msg.sender] >= _amount, \"Insufficient staked balance\") */\n      tag_72\n      jumpi\n      mload(0x40)\n      0x08c379a000000000000000000000000000000000000000000000000000000000\n      dup2\n      mstore\n      0x04\n      add\n      tag_73\n      swap1\n      tag_74\n      jump\t// in\n    tag_73:\n      mload(0x40)\n      dup1\n      swap2\n      sub\n      swap1\n      revert\n    tag_72:\n        /* \"contracts/StakingContract.sol\":2815:2816  0 */\n      0x00\n        /* \"contracts/StakingContract.sol\":2776:2792  unstakingRequest */\n      0x04\n        /* \"contracts/StakingContract.sol\":2776:2804  unstakingRequest[msg.sender] */\n      0x00\n        /* \"contracts/StakingContract.sol\":2793:2803  msg.sender */\n      caller\n        /* \"contracts/StakingContract.sol\":2776:2804  unstakingRequest[msg.sender] */\n      0xffffffffffffffffffffffffffffffffffffffff\n      and\n      0xffffffffffffffffffffffffffffffffffffffff\n      and\n      dup2\n      mstore\n      0x20\n      add\n      swap1\n      dup2\n      mstore\n      0x20\n      add\n      0x00\n      keccak256\n        /* \"contracts/StakingContract.sol\":2776:2811  unstakingRequest[msg.sender].amount */\n      0x00\n      add\n      sload\n        /* \"contracts/StakingContract.sol\":2776:2816  unstakingRequest[msg.sender].amount == 0 */\n      eq\n        /* \"contracts/StakingContract.sol\":2768:2847  require(unstakingRequest[msg.sender].amount == 0, \"Unstake Already in Process\") */\n      tag_75\n      jumpi\n      mload(0x40)\n      0x08c379a000000000000000000000000000000000000000000000000000000000\n      dup2\n      mstore\n      0x04\n      add\n      tag_76\n      swap1\n      tag_77\n      jump\t// in\n    tag_76:\n      mload(0x40)\n      dup1\n      swap2\n      sub\n      swap1\n      revert\n    tag_75:\n        /* \"contracts/StakingContract.sol\":2922:2960  stakedBalance[msg.sender].sub(_amount) */\n      tag_78\n        /* \"contracts/StakingContract.sol\":2952:2959  _amount */\n      dup2\n        /* \"contracts/StakingContract.sol\":2922:2935  stakedBalance */\n      0x02\n        /* \"contracts/StakingContract.sol\":2922:2947  stakedBalance[msg.sender] */\n      0x00\n        /* \"contracts/StakingContract.sol\":2936:2946  msg.sender */\n      caller\n        /* \"contracts/StakingContract.sol\":2922:2947  stakedBalance[msg.sender] */\n      0xffffffffffffffffffffffffffffffffffffffff\n      and\n      0xffffffffffffffffffffffffffffffffffffffff\n      and\n      dup2\n      mstore\n      0x20\n      add\n      swap1\n      dup2\n      mstore\n      0x20\n      add\n      0x00\n      keccak256\n      sload\n        /* \"contracts/StakingContract.sol\":2922:2951  stakedBalance[msg.sender].sub */\n      tag_79\n      swap1\n        /* \"contracts/StakingContract.sol\":2922:2960  stakedBalance[msg.sender].sub(_amount) */\n      swap2\n      swap1\n      0xffffffff\n      and\n      jump\t// in\n    tag_78:\n        /* \"contracts/StakingContract.sol\":2894:2907  stakedBalance */\n      0x02\n        /* \"contracts/StakingContract.sol\":2894:2919  stakedBalance[msg.sender] */\n      0x00\n        /* \"contracts/StakingContract.sol\":2908:2918  msg.sender */\n      caller\n        /* \"contracts/StakingContract.sol\":2894:2919  stakedBalance[msg.sender] */\n      0xffffffffffffffffffffffffffffffffffffffff\n      and\n      0xffffffffffffffffffffffffffffffffffffffff\n      and\n      dup2\n      mstore\n      0x20\n      add\n      swap1\n      dup2\n      mstore\n      0x20\n      add\n      0x00\n      keccak256\n        /* \"contracts/StakingContract.sol\":2894:2960  stakedBalance[msg.sender] = stakedBalance[msg.sender].sub(_amount) */\n      dup2\n      swap1\n      sstore\n      pop\n        /* \"contracts/StakingContract.sol\":2984:3008  totalStaked.sub(_amount) */\n      tag_80\n        /* \"contracts/StakingContract.sol\":3000:3007  _amount */\n      dup2\n        /* \"contracts/StakingContract.sol\":2984:2995  totalStaked */\n      sload(0x03)\n        /* \"contracts/StakingContract.sol\":2984:2999  totalStaked.sub */\n      tag_79\n      swap1\n        /* \"contracts/StakingContract.sol\":2984:3008  totalStaked.sub(_amount) */\n      swap2\n      swap1\n      0xffffffff\n      and\n      jump\t// in\n    tag_80:\n        /* \"contracts/StakingContract.sol\":2970:2981  totalStaked */\n      0x03\n        /* \"contracts/StakingContract.sol\":2970:3008  totalStaked = totalStaked.sub(_amount) */\n      dup2\n      swap1\n      sstore\n      pop\n        /* \"contracts/StakingContract.sol\":3049:3067  uint256 unlockTime */\n      0x00\n        /* \"contracts/StakingContract.sol\":762:768  7 days */\n      0x093a80\n        /* \"contracts/StakingContract.sol\":3070:3085  block.timestamp */\n      timestamp\n        /* \"contracts/StakingContract.sol\":3070:3102  block.timestamp + UNSTAKE_PERIOD */\n      tag_81\n      swap2\n      swap1\n      tag_82\n      jump\t// in\n    tag_81:\n        /* \"contracts/StakingContract.sol\":3049:3102  uint256 unlockTime = block.timestamp + UNSTAKE_PERIOD */\n      swap1\n      pop\n        /* \"contracts/StakingContract.sol\":3143:3231  UnstakeInfo({... */\n      mload(0x40)\n      dup1\n      0x40\n      add\n      0x40\n      mstore\n      dup1\n        /* \"contracts/StakingContract.sol\":3177:3184  _amount */\n      dup4\n        /* \"contracts/StakingContract.sol\":3143:3231  UnstakeInfo({... */\n      dup2\n      mstore\n      0x20\n      add\n        /* \"contracts/StakingContract.sol\":3210:3220  unlockTime */\n      dup3\n        /* \"contracts/StakingContract.sol\":3143:3231  UnstakeInfo({... */\n      dup2\n      mstore\n      pop\n        /* \"contracts/StakingContract.sol\":3112:3128  unstakingRequest */\n      0x04\n        /* \"contracts/StakingContract.sol\":3112:3140  unstakingRequest[msg.sender] */\n      0x00\n        /* \"contracts/StakingContract.sol\":3129:3139  msg.sender */\n      caller\n        /* \"contracts/StakingContract.sol\":3112:3140  unstakingRequest[msg.sender] */\n      0xffffffffffffffffffffffffffffffffffffffff\n      and\n      0xffffffffffffffffffffffffffffffffffffffff\n      and\n      dup2\n      mstore\n      0x20\n      add\n      swap1\n      dup2\n      mstore\n      0x20\n      add\n      0x00\n      keccak256\n        /* \"contracts/StakingContract.sol\":3112:3231  unstakingRequest[msg.sender] = UnstakeInfo({... */\n      0x00\n      dup3\n      add\n      mload\n      dup2\n      0x00\n      add\n      sstore\n      0x20\n      dup3\n      add\n      mload\n      dup2\n      0x01\n      add\n      sstore\n      swap1\n      pop\n      pop\n        /* \"contracts/StakingContract.sol\":3264:3274  msg.sender */\n      caller\n        /* \"contracts/StakingContract.sol\":3247:3296  UnstakeInitiated(msg.sender, _amount, unlockTime) */\n      0xffffffffffffffffffffffffffffffffffffffff\n      and\n      0x9cee5eacd317086e5050733a5dad16ef5aaec185de792371a9625bfee2a3213b\n        /* \"contracts/StakingContract.sol\":3276:3283  _amount */\n      dup4\n        /* \"contracts/StakingContract.sol\":3285:3295  unlockTime */\n      dup4\n        /* \"contracts/StakingContract.sol\":3247:3296  UnstakeInitiated(msg.sender, _amount, unlockTime) */\n      mload(0x40)\n      tag_83\n      swap3\n      swap2\n      swap1\n      tag_27\n      jump\t// in\n    tag_83:\n      mload(0x40)\n      dup1\n      swap2\n      sub\n      swap1\n      log2\n        /* \"contracts/StakingContract.sol\":2612:3303  {... */\n      pop\n        /* \"@openzeppelin/contracts/security/ReentrancyGuard.sol\":2303:2323  _nonReentrantAfter() */\n      tag_84\n        /* \"@openzeppelin/contracts/security/ReentrancyGuard.sol\":2303:2321  _nonReentrantAfter */\n      tag_85\n        /* \"@openzeppelin/contracts/security/ReentrancyGuard.sol\":2303:2323  _nonReentrantAfter() */\n      jump\t// in\n    tag_84:\n        /* \"contracts/StakingContract.sol\":2546:3303  function initiateUnstaking(uint256 _amount) external nonReentrant {... */\n      pop\n      jump\t// out\n        /* \"contracts/StakingContract.sol\":4749:4979  function getUnstakedRequest(address _account) external view returns(uint256 amount, uint256 unlockTime) {... */\n    tag_25:\n        /* \"contracts/StakingContract.sol\":4817:4831  uint256 amount */\n      0x00\n        /* \"contracts/StakingContract.sol\":4833:4851  uint256 unlockTime */\n      dup1\n        /* \"contracts/StakingContract.sol\":4863:4890  UnstakeInfo storage request */\n      0x00\n        /* \"contracts/StakingContract.sol\":4893:4909  unstakingRequest */\n      0x04\n        /* \"contracts/StakingContract.sol\":4893:4919  unstakingRequest[_account] */\n      0x00\n        /* \"contracts/StakingContract.sol\":4910:4918  _account */\n      dup6\n        /* \"contracts/StakingContract.sol\":4893:4919  unstakingRequest[_account] */\n      0xffffffffffffffffffffffffffffffffffffffff\n      and\n      0xffffffffffffffffffffffffffffffffffffffff\n      and\n      dup2\n      mstore\n      0x20\n      add\n      swap1\n      dup2\n      mstore\n      0x20\n      add\n      0x00\n      keccak256\n        /* \"contracts/StakingContract.sol\":4863:4919  UnstakeInfo storage request = unstakingRequest[_account] */\n      swap1\n      pop\n        /* \"contracts/StakingContract.sol\":4937:4944  request */\n      dup1\n        /* \"contracts/StakingContract.sol\":4937:4951  request.amount */\n      0x00\n      add\n      sload\n        /* \"contracts/StakingContract.sol\":4953:4960  request */\n      dup2\n        /* \"contracts/StakingContract.sol\":4953:4971  request.unlockTime */\n      0x01\n      add\n      sload\n        /* \"contracts/StakingContract.sol\":4929:4972  return (request.amount, request.unlockTime) */\n      swap3\n      pop\n      swap3\n      pop\n      pop\n        /* \"contracts/StakingContract.sol\":4749:4979  function getUnstakedRequest(address _account) external view returns(uint256 amount, uint256 unlockTime) {... */\n      swap2\n      pop\n      swap2\n      jump\t// out\n        /* \"contracts/StakingContract.sol\":3477:4139  function withdraw() external nonReentrant {... */\n    tag_29:\n        /* \"@openzeppelin/contracts/security/ReentrancyGuard.sol\":2261:2282  _nonReentrantBefore() */\n      tag_88\n        /* \"@openzeppelin/contracts/security/ReentrancyGuard.sol\":2261:2280  _nonReentrantBefore */\n      tag_67\n        /* \"@openzeppelin/contracts/security/ReentrancyGuard.sol\":2261:2282  _nonReentrantBefore() */\n      jump\t// in\n    tag_88:\n        /* \"contracts/StakingContract.sol\":3529:3556  UnstakeInfo storage request */\n      0x00\n        /* \"contracts/StakingContract.sol\":3559:3575  unstakingRequest */\n      0x04\n        /* \"contracts/StakingContract.sol\":3559:3587  unstakingRequest[msg.sender] */\n      0x00\n        /* \"contracts/StakingContract.sol\":3576:3586  msg.sender */\n      caller\n        /* \"contracts/StakingContract.sol\":3559:3587  unstakingRequest[msg.sender] */\n      0xffffffffffffffffffffffffffffffffffffffff\n      and\n      0xffffffffffffffffffffffffffffffffffffffff\n      and\n      dup2\n      mstore\n      0x20\n      add\n      swap1\n      dup2\n      mstore\n      0x20\n      add\n      0x00\n      keccak256\n        /* \"contracts/StakingContract.sol\":3529:3587  UnstakeInfo storage request = unstakingRequest[msg.sender] */\n      swap1\n      pop\n        /* \"contracts/StakingContract.sol\":3622:3623  0 */\n      0x00\n        /* \"contracts/StakingContract.sol\":3605:3612  request */\n      dup2\n        /* \"contracts/StakingContract.sol\":3605:3619  request.amount */\n      0x00\n      add\n      sload\n        /* \"contracts/StakingContract.sol\":3605:3623  request.amount > 0 */\n      gt\n        /* \"contracts/StakingContract.sol\":3597:3652  require(request.amount > 0, \"No Unstake Request Found\") */\n      tag_90\n      jumpi\n      mload(0x40)\n      0x08c379a000000000000000000000000000000000000000000000000000000000\n      dup2\n      mstore\n      0x04\n      add\n      tag_91\n      swap1\n      tag_92\n      jump\t// in\n    tag_91:\n      mload(0x40)\n      dup1\n      swap2\n      sub\n      swap1\n      revert\n    tag_90:\n        /* \"contracts/StakingContract.sol\":3689:3696  request */\n      dup1\n        /* \"contracts/StakingContract.sol\":3689:3707  request.unlockTime */\n      0x01\n      add\n      sload\n        /* \"contracts/StakingContract.sol\":3670:3685  block.timestamp */\n      timestamp\n        /* \"contracts/StakingContract.sol\":3670:3707  block.timestamp >= request.unlockTime */\n      lt\n      iszero\n        /* \"contracts/StakingContract.sol\":3662:3735  require(block.timestamp >= request.unlockTime, \"Unstake period not over\") */\n      tag_93\n      jumpi\n      mload(0x40)\n      0x08c379a000000000000000000000000000000000000000000000000000000000\n      dup2\n      mstore\n      0x04\n      add\n      tag_94\n      swap1\n      tag_95\n      jump\t// in\n    tag_94:\n      mload(0x40)\n      dup1\n      swap2\n      sub\n      swap1\n      revert\n    tag_93:\n        /* \"contracts/StakingContract.sol\":3746:3770  uint256 amountToWithdraw */\n      0x00\n        /* \"contracts/StakingContract.sol\":3773:3780  request */\n      dup2\n        /* \"contracts/StakingContract.sol\":3773:3787  request.amount */\n      0x00\n      add\n      sload\n        /* \"contracts/StakingContract.sol\":3746:3787  uint256 amountToWithdraw = request.amount */\n      swap1\n      pop\n        /* \"contracts/StakingContract.sol\":3868:3869  0 */\n      0x00\n        /* \"contracts/StakingContract.sol\":3851:3858  request */\n      dup3\n        /* \"contracts/StakingContract.sol\":3851:3865  request.amount */\n      0x00\n      add\n        /* \"contracts/StakingContract.sol\":3851:3869  request.amount = 0 */\n      dup2\n      swap1\n      sstore\n      pop\n        /* \"contracts/StakingContract.sol\":3900:3901  0 */\n      0x00\n        /* \"contracts/StakingContract.sol\":3879:3886  request */\n      dup3\n        /* \"contracts/StakingContract.sol\":3879:3897  request.unlockTime */\n      0x01\n      add\n        /* \"contracts/StakingContract.sol\":3879:3901  request.unlockTime = 0 */\n      dup2\n      swap1\n      sstore\n      pop\n        /* \"contracts/StakingContract.sol\":3932:3944  bool success */\n      0x00\n        /* \"contracts/StakingContract.sol\":3947:3962  governanceToken */\n      immutable(\"0x42fa20e8c2fc174121a60bb5704cfd8579fc4a2698f9ae487d1310659094676e\")\n        /* \"contracts/StakingContract.sol\":3947:3971  governanceToken.transfer */\n      0xffffffffffffffffffffffffffffffffffffffff\n      and\n      0xa9059cbb\n        /* \"contracts/StakingContract.sol\":3972:3982  msg.sender */\n      caller\n        /* \"contracts/StakingContract.sol\":3984:4000  amountToWithdraw */\n      dup5\n        /* \"contracts/StakingContract.sol\":3947:4001  governanceToken.transfer(msg.sender, amountToWithdraw) */\n      mload(0x40)\n      dup4\n      0xffffffff\n      and\n      0xe0\n      shl\n      dup2\n      mstore\n      0x04\n      add\n      tag_96\n      swap3\n      swap2\n      swap1\n      tag_97\n      jump\t// in\n    tag_96:\n      0x20\n      mload(0x40)\n      dup1\n      dup4\n      sub\n      dup2\n      0x00\n      dup8\n      gas\n      call\n      iszero\n      dup1\n      iszero\n      tag_99\n      jumpi\n      returndatasize\n      0x00\n      dup1\n      returndatacopy\n      revert(0x00, returndatasize)\n    tag_99:\n      pop\n      pop\n      pop\n      pop\n      mload(0x40)\n      returndatasize\n      not(0x1f)\n      0x1f\n      dup3\n      add\n      and\n      dup3\n      add\n      dup1\n      0x40\n      mstore\n      pop\n      dup2\n      add\n      swap1\n      tag_100\n      swap2\n      swap1\n      tag_101\n      jump\t// in\n    tag_100:\n        /* \"contracts/StakingContract.sol\":3932:4001  bool success = governanceToken.transfer(msg.sender, amountToWithdraw) */\n      swap1\n      pop\n        /* \"contracts/StakingContract.sol\":4019:4026  success */\n      dup1\n        /* \"contracts/StakingContract.sol\":4011:4077  require(success, \"Token Transfer Failed during UnStaking Process\") */\n      tag_102\n      jumpi\n      mload(0x40)\n      0x08c379a000000000000000000000000000000000000000000000000000000000\n      dup2\n      mstore\n      0x04\n      add\n      tag_103\n      swap1\n      tag_104\n      jump\t// in\n    tag_103:\n      mload(0x40)\n      dup1\n      swap2\n      sub\n      swap1\n      revert\n    tag_102:\n        /* \"contracts/StakingContract.sol\":4102:4112  msg.sender */\n      caller\n        /* \"contracts/StakingContract.sol\":4093:4131  Withdraw(msg.sender, amountToWithdraw) */\n      0xffffffffffffffffffffffffffffffffffffffff\n      and\n      0x884edad9ce6fa2440d8a54cc123490eb96d2768479d49ff9c7366125a9424364\n        /* \"contracts/StakingContract.sol\":4114:4130  amountToWithdraw */\n      dup4\n        /* \"contracts/StakingContract.sol\":4093:4131  Withdraw(msg.sender, amountToWithdraw) */\n      mload(0x40)\n      tag_105\n      swap2\n      swap1\n      tag_34\n      jump\t// in\n    tag_105:\n      mload(0x40)\n      dup1\n      swap2\n      sub\n      swap1\n      log2\n        /* \"contracts/StakingContract.sol\":3519:4139  {... */\n      pop\n      pop\n      pop\n        /* \"@openzeppelin/contracts/security/ReentrancyGuard.sol\":2303:2323  _nonReentrantAfter() */\n      tag_106\n        /* \"@openzeppelin/contracts/security/ReentrancyGuard.sol\":2303:2321  _nonReentrantAfter */\n      tag_85\n        /* \"@openzeppelin/contracts/security/ReentrancyGuard.sol\":2303:2323  _nonReentrantAfter() */\n      jump\t// in\n    tag_106:\n        /* \"contracts/StakingContract.sol\":3477:4139  function withdraw() external nonReentrant {... */\n      jump\t// out\n        /* \"contracts/StakingContract.sol\":429:477  mapping(address => uint256) public stakedBalance */\n    tag_32:\n      mstore(0x20, 0x02)\n      dup1\n      0x00\n      mstore\n      keccak256(0x00, 0x40)\n      0x00\n      swap2\n      pop\n      swap1\n      pop\n      sload\n      dup2\n      jump\t// out\n        /* \"@openzeppelin/contracts/access/Ownable.sol\":2293:2394  function renounceOwnership() public virtual onlyOwner {... */\n    tag_36:\n        /* \"@openzeppelin/contracts/access/Ownable.sol\":1531:1544  _checkOwner() */\n      tag_108\n        /* \"@openzeppelin/contracts/access/Ownable.sol\":1531:1542  _checkOwner */\n      tag_109\n        /* \"@openzeppelin/contracts/access/Ownable.sol\":1531:1544  _checkOwner() */\n      jump\t// in\n    tag_108:\n        /* \"@openzeppelin/contracts/access/Ownable.sol\":2357:2387  _transferOwnership(address(0)) */\n      tag_111\n        /* \"@openzeppelin/contracts/access/Ownable.sol\":2384:2385  0 */\n      0x00\n        /* \"@openzeppelin/contracts/access/Ownable.sol\":2357:2375  _transferOwnership */\n      tag_112\n        /* \"@openzeppelin/contracts/access/Ownable.sol\":2357:2387  _transferOwnership(address(0)) */\n      jump\t// in\n    tag_111:\n        /* \"@openzeppelin/contracts/access/Ownable.sol\":2293:2394  function renounceOwnership() public virtual onlyOwner {... */\n      jump\t// out\n        /* \"contracts/StakingContract.sol\":721:768  uint256 public constant UNSTAKE_PERIOD = 7 days */\n    tag_38:\n        /* \"contracts/StakingContract.sol\":762:768  7 days */\n      0x093a80\n        /* \"contracts/StakingContract.sol\":721:768  uint256 public constant UNSTAKE_PERIOD = 7 days */\n      dup2\n      jump\t// out\n        /* \"contracts/StakingContract.sol\":483:506  uint public totalStaked */\n    tag_41:\n      sload(0x03)\n      dup2\n      jump\t// out\n        /* \"@openzeppelin/contracts/access/Ownable.sol\":1638:1723  function owner() public view virtual returns (address) {... */\n    tag_44:\n        /* \"@openzeppelin/contracts/access/Ownable.sol\":1684:1691  address */\n      0x00\n        /* \"@openzeppelin/contracts/access/Ownable.sol\":1710:1716  _owner */\n      dup1\n      0x00\n      swap1\n      sload\n      swap1\n      0x0100\n      exp\n      swap1\n      div\n      0xffffffffffffffffffffffffffffffffffffffff\n      and\n        /* \"@openzeppelin/contracts/access/Ownable.sol\":1703:1716  return _owner */\n      swap1\n      pop\n        /* \"@openzeppelin/contracts/access/Ownable.sol\":1638:1723  function owner() public view virtual returns (address) {... */\n      swap1\n      jump\t// out\n        /* \"contracts/StakingContract.sol\":659:714  mapping(address => UnstakeInfo) public unstakingRequest */\n    tag_49:\n      mstore(0x20, 0x04)\n      dup1\n      0x00\n      mstore\n      keccak256(0x00, 0x40)\n      0x00\n      swap2\n      pop\n      swap1\n      pop\n      dup1\n      0x00\n      add\n      sload\n      swap1\n      dup1\n      0x01\n      add\n      sload\n      swap1\n      pop\n      dup3\n      jump\t// out\n        /* \"contracts/StakingContract.sol\":1657:2267  function stake(uint256 _amount) external nonReentrant {... */\n    tag_53:\n        /* \"@openzeppelin/contracts/security/ReentrancyGuard.sol\":2261:2282  _nonReentrantBefore() */\n      tag_115\n        /* \"@openzeppelin/contracts/security/ReentrancyGuard.sol\":2261:2280  _nonReentrantBefore */\n      tag_67\n        /* \"@openzeppelin/contracts/security/ReentrancyGuard.sol\":2261:2282  _nonReentrantBefore() */\n      jump\t// in\n    tag_115:\n        /* \"contracts/StakingContract.sol\":1739:1740  0 */\n      0x00\n        /* \"contracts/StakingContract.sol\":1729:1736  _amount */\n      dup2\n        /* \"contracts/StakingContract.sol\":1729:1740  _amount > 0 */\n      gt\n        /* \"contracts/StakingContract.sol\":1721:1769  require(_amount > 0, \"Cannot stake zero Tokens\") */\n      tag_117\n      jumpi\n      mload(0x40)\n      0x08c379a000000000000000000000000000000000000000000000000000000000\n      dup2\n      mstore\n      0x04\n      add\n      tag_118\n      swap1\n      tag_119\n      jump\t// in\n    tag_118:\n      mload(0x40)\n      dup1\n      swap2\n      sub\n      swap1\n      revert\n    tag_117:\n        /* \"contracts/StakingContract.sol\":1828:1835  _amount */\n      dup1\n        /* \"contracts/StakingContract.sol\":1787:1802  governanceToken */\n      immutable(\"0x42fa20e8c2fc174121a60bb5704cfd8579fc4a2698f9ae487d1310659094676e\")\n        /* \"contracts/StakingContract.sol\":1787:1812  governanceToken.balanceOf */\n      0xffffffffffffffffffffffffffffffffffffffff\n      and\n      0x70a08231\n        /* \"contracts/StakingContract.sol\":1813:1823  msg.sender */\n      caller\n        /* \"contracts/StakingContract.sol\":1787:1824  governanceToken.balanceOf(msg.sender) */\n      mload(0x40)\n      dup3\n      0xffffffff\n      and\n      0xe0\n      shl\n      dup2\n      mstore\n      0x04\n      add\n      tag_120\n      swap2\n      swap1\n      tag_46\n      jump\t// in\n    tag_120:\n      0x20\n      mload(0x40)\n      dup1\n      dup4\n      sub\n      dup2\n      dup7\n      gas\n      staticcall\n      iszero\n      dup1\n      iszero\n      tag_122\n      jumpi\n      returndatasize\n      0x00\n      dup1\n      returndatacopy\n      revert(0x00, returndatasize)\n    tag_122:\n      pop\n      pop\n      pop\n      pop\n      mload(0x40)\n      returndatasize\n      not(0x1f)\n      0x1f\n      dup3\n      add\n      and\n      dup3\n      add\n      dup1\n      0x40\n      mstore\n      pop\n      dup2\n      add\n      swap1\n      tag_123\n      swap2\n      swap1\n      tag_124\n      jump\t// in\n    tag_123:\n        /* \"contracts/StakingContract.sol\":1787:1835  governanceToken.balanceOf(msg.sender) >= _amount */\n      lt\n      iszero\n        /* \"contracts/StakingContract.sol\":1779:1860  require(governanceToken.balanceOf(msg.sender) >= _amount, \"Insufficient Balance\") */\n      tag_125\n      jumpi\n      mload(0x40)\n      0x08c379a000000000000000000000000000000000000000000000000000000000\n      dup2\n      mstore\n      0x04\n      add\n      tag_126\n      swap1\n      tag_127\n      jump\t// in\n    tag_126:\n      mload(0x40)\n      dup1\n      swap2\n      sub\n      swap1\n      revert\n    tag_125:\n        /* \"contracts/StakingContract.sol\":1932:1944  bool success */\n      0x00\n        /* \"contracts/StakingContract.sol\":1947:1962  governanceToken */\n      immutable(\"0x42fa20e8c2fc174121a60bb5704cfd8579fc4a2698f9ae487d1310659094676e\")\n        /* \"contracts/StakingContract.sol\":1947:1975  governanceToken.transferFrom */\n      0xffffffffffffffffffffffffffffffffffffffff\n      and\n      0x23b872dd\n        /* \"contracts/StakingContract.sol\":1976:1986  msg.sender */\n      caller\n        /* \"contracts/StakingContract.sol\":1996:2000  this */\n      address\n        /* \"contracts/StakingContract.sol\":2003:2010  _amount */\n      dup6\n        /* \"contracts/StakingContract.sol\":1947:2011  governanceToken.transferFrom(msg.sender, address(this), _amount) */\n      mload(0x40)\n      dup5\n      0xffffffff\n      and\n      0xe0\n      shl\n      dup2\n      mstore\n      0x04\n      add\n      tag_128\n      swap4\n      swap3\n      swap2\n      swap1\n      tag_129\n      jump\t// in\n    tag_128:\n      0x20\n      mload(0x40)\n      dup1\n      dup4\n      sub\n      dup2\n      0x00\n      dup8\n      gas\n      call\n      iszero\n      dup1\n      iszero\n      tag_131\n      jumpi\n      returndatasize\n      0x00\n      dup1\n      returndatacopy\n      revert(0x00, returndatasize)\n    tag_131:\n      pop\n      pop\n      pop\n      pop\n      mload(0x40)\n      returndatasize\n      not(0x1f)\n      0x1f\n      dup3\n      add\n      and\n      dup3\n      add\n      dup1\n      0x40\n      mstore\n      pop\n      dup2\n      add\n      swap1\n      tag_132\n      swap2\n      swap1\n      tag_101\n      jump\t// in\n    tag_132:\n        /* \"contracts/StakingContract.sol\":1932:2011  bool success = governanceToken.transferFrom(msg.sender, address(this), _amount) */\n      swap1\n      pop\n        /* \"contracts/StakingContract.sol\":2029:2036  success */\n      dup1\n        /* \"contracts/StakingContract.sol\":2021:2056  require(success, \"Transfer Failed\") */\n      tag_133\n      jumpi\n      mload(0x40)\n      0x08c379a000000000000000000000000000000000000000000000000000000000\n      dup2\n      mstore\n      0x04\n      add\n      tag_134\n      swap1\n      tag_135\n      jump\t// in\n    tag_134:\n      mload(0x40)\n      dup1\n      swap2\n      sub\n      swap1\n      revert\n    tag_133:\n        /* \"contracts/StakingContract.sol\":2131:2169  stakedBalance[msg.sender].add(_amount) */\n      tag_136\n        /* \"contracts/StakingContract.sol\":2161:2168  _amount */\n      dup3\n        /* \"contracts/StakingContract.sol\":2131:2144  stakedBalance */\n      0x02\n        /* \"contracts/StakingContract.sol\":2131:2156  stakedBalance[msg.sender] */\n      0x00\n        /* \"contracts/StakingContract.sol\":2145:2155  msg.sender */\n      caller\n        /* \"contracts/StakingContract.sol\":2131:2156  stakedBalance[msg.sender] */\n      0xffffffffffffffffffffffffffffffffffffffff\n      and\n      0xffffffffffffffffffffffffffffffffffffffff\n      and\n      dup2\n      mstore\n      0x20\n      add\n      swap1\n      dup2\n      mstore\n      0x20\n      add\n      0x00\n      keccak256\n      sload\n        /* \"contracts/StakingContract.sol\":2131:2160  stakedBalance[msg.sender].add */\n      tag_137\n      swap1\n        /* \"contracts/StakingContract.sol\":2131:2169  stakedBalance[msg.sender].add(_amount) */\n      swap2\n      swap1\n      0xffffffff\n      and\n      jump\t// in\n    tag_136:\n        /* \"contracts/StakingContract.sol\":2103:2116  stakedBalance */\n      0x02\n        /* \"contracts/StakingContract.sol\":2103:2128  stakedBalance[msg.sender] */\n      0x00\n        /* \"contracts/StakingContract.sol\":2117:2127  msg.sender */\n      caller\n        /* \"contracts/StakingContract.sol\":2103:2128  stakedBalance[msg.sender] */\n      0xffffffffffffffffffffffffffffffffffffffff\n      and\n      0xffffffffffffffffffffffffffffffffffffffff\n      and\n      dup2\n      mstore\n      0x20\n      add\n      swap1\n      dup2\n      mstore\n      0x20\n      add\n      0x00\n      keccak256\n        /* \"contracts/StakingContract.sol\":2103:2169  stakedBalance[msg.sender] = stakedBalance[msg.sender].add(_amount) */\n      dup2\n      swap1\n      sstore\n      pop\n        /* \"contracts/StakingContract.sol\":2193:2217  totalStaked.add(_amount) */\n      tag_138\n        /* \"contracts/StakingContract.sol\":2209:2216  _amount */\n      dup3\n        /* \"contracts/StakingContract.sol\":2193:2204  totalStaked */\n      sload(0x03)\n        /* \"contracts/StakingContract.sol\":2193:2208  totalStaked.add */\n      tag_137\n      swap1\n        /* \"contracts/StakingContract.sol\":2193:2217  totalStaked.add(_amount) */\n      swap2\n      swap1\n      0xffffffff\n      and\n      jump\t// in\n    tag_138:\n        /* \"contracts/StakingContract.sol\":2179:2190  totalStaked */\n      0x03\n        /* \"contracts/StakingContract.sol\":2179:2217  totalStaked = totalStaked.add(_amount) */\n      dup2\n      swap1\n      sstore\n      pop\n        /* \"contracts/StakingContract.sol\":2240:2250  msg.sender */\n      caller\n        /* \"contracts/StakingContract.sol\":2233:2260  Staked(msg.sender, _amount) */\n      0xffffffffffffffffffffffffffffffffffffffff\n      and\n      0x9e71bc8eea02a63969f509818f2dafb9254532904319f9dbda79b67bd34a5f3d\n        /* \"contracts/StakingContract.sol\":2252:2259  _amount */\n      dup4\n        /* \"contracts/StakingContract.sol\":2233:2260  Staked(msg.sender, _amount) */\n      mload(0x40)\n      tag_139\n      swap2\n      swap1\n      tag_34\n      jump\t// in\n    tag_139:\n      mload(0x40)\n      dup1\n      swap2\n      sub\n      swap1\n      log2\n        /* \"contracts/StakingContract.sol\":1711:2267  {... */\n      pop\n        /* \"@openzeppelin/contracts/security/ReentrancyGuard.sol\":2303:2323  _nonReentrantAfter() */\n      tag_140\n        /* \"@openzeppelin/contracts/security/ReentrancyGuard.sol\":2303:2321  _nonReentrantAfter */\n      tag_85\n        /* \"@openzeppelin/contracts/security/ReentrancyGuard.sol\":2303:2323  _nonReentrantAfter() */\n      jump\t// in\n    tag_140:\n        /* \"contracts/StakingContract.sol\":1657:2267  function stake(uint256 _amount) external nonReentrant {... */\n      pop\n      jump\t// out\n        /* \"contracts/StakingContract.sol\":4374:4492  function getVotingPower(address _account) public view returns(uint256) {... */\n    tag_56:\n        /* \"contracts/StakingContract.sol\":4436:4443  uint256 */\n      0x00\n        /* \"contracts/StakingContract.sol\":4462:4475  stakedBalance */\n      0x02\n        /* \"contracts/StakingContract.sol\":4462:4485  stakedBalance[_account] */\n      0x00\n        /* \"contracts/StakingContract.sol\":4476:4484  _account */\n      dup4\n        /* \"contracts/StakingContract.sol\":4462:4485  stakedBalance[_account] */\n      0xffffffffffffffffffffffffffffffffffffffff\n      and\n      0xffffffffffffffffffffffffffffffffffffffff\n      and\n      dup2\n      mstore\n      0x20\n      add\n      swap1\n      dup2\n      mstore\n      0x20\n      add\n      0x00\n      keccak256\n      sload\n        /* \"contracts/StakingContract.sol\":4455:4485  return stakedBalance[_account] */\n      swap1\n      pop\n        /* \"contracts/StakingContract.sol\":4374:4492  function getVotingPower(address _account) public view returns(uint256) {... */\n      swap2\n      swap1\n      pop\n      jump\t// out\n        /* \"@openzeppelin/contracts/access/Ownable.sol\":2543:2758  function transferOwnership(address newOwner) public virtual onlyOwner {... */\n    tag_60:\n        /* \"@openzeppelin/contracts/access/Ownable.sol\":1531:1544  _checkOwner() */\n      tag_143\n        /* \"@openzeppelin/contracts/access/Ownable.sol\":1531:1542  _checkOwner */\n      tag_109\n        /* \"@openzeppelin/contracts/access/Ownable.sol\":1531:1544  _checkOwner() */\n      jump\t// in\n    tag_143:\n        /* \"@openzeppelin/contracts/access/Ownable.sol\":2647:2648  0 */\n      0x00\n        /* \"@openzeppelin/contracts/access/Ownable.sol\":2627:2649  newOwner == address(0) */\n      0xffffffffffffffffffffffffffffffffffffffff\n      and\n        /* \"@openzeppelin/contracts/access/Ownable.sol\":2627:2635  newOwner */\n      dup2\n        /* \"@openzeppelin/contracts/access/Ownable.sol\":2627:2649  newOwner == address(0) */\n      0xffffffffffffffffffffffffffffffffffffffff\n      and\n      sub\n        /* \"@openzeppelin/contracts/access/Ownable.sol\":2623:2714  if (newOwner == address(0)) {... */\n      tag_145\n      jumpi\n        /* \"@openzeppelin/contracts/access/Ownable.sol\":2700:2701  0 */\n      0x00\n        /* \"@openzeppelin/contracts/access/Ownable.sol\":2672:2703  OwnableInvalidOwner(address(0)) */\n      mload(0x40)\n      0x1e4fbdf700000000000000000000000000000000000000000000000000000000\n      dup2\n      mstore\n      0x04\n      add\n      tag_146\n      swap2\n      swap1\n      tag_46\n      jump\t// in\n    tag_146:\n      mload(0x40)\n      dup1\n      swap2\n      sub\n      swap1\n      revert\n        /* \"@openzeppelin/contracts/access/Ownable.sol\":2623:2714  if (newOwner == address(0)) {... */\n    tag_145:\n        /* \"@openzeppelin/contracts/access/Ownable.sol\":2723:2751  _transferOwnership(newOwner) */\n      tag_147\n        /* \"@openzeppelin/contracts/access/Ownable.sol\":2742:2750  newOwner */\n      dup2\n        /* \"@openzeppelin/contracts/access/Ownable.sol\":2723:2741  _transferOwnership */\n      tag_112\n        /* \"@openzeppelin/contracts/access/Ownable.sol\":2723:2751  _transferOwnership(newOwner) */\n      jump\t// in\n    tag_147:\n        /* \"@openzeppelin/contracts/access/Ownable.sol\":2543:2758  function transferOwnership(address newOwner) public virtual onlyOwner {... */\n      pop\n      jump\t// out\n        /* \"contracts/StakingContract.sol\":383:422  IERC20 public immutable governanceToken */\n    tag_62:\n      immutable(\"0x42fa20e8c2fc174121a60bb5704cfd8579fc4a2698f9ae487d1310659094676e\")\n      dup2\n      jump\t// out\n        /* \"@openzeppelin/contracts/security/ReentrancyGuard.sol\":2336:2623  function _nonReentrantBefore() private {... */\n    tag_67:\n        /* \"@openzeppelin/contracts/security/ReentrancyGuard.sol\":1759:1760  2 */\n      0x02\n        /* \"@openzeppelin/contracts/security/ReentrancyGuard.sol\":2468:2475  _status */\n      sload(0x01)\n        /* \"@openzeppelin/contracts/security/ReentrancyGuard.sol\":2468:2487  _status != _ENTERED */\n      sub\n        /* \"@openzeppelin/contracts/security/ReentrancyGuard.sol\":2460:2523  require(_status != _ENTERED, \"ReentrancyGuard: reentrant call\") */\n      tag_149\n      jumpi\n      mload(0x40)\n      0x08c379a000000000000000000000000000000000000000000000000000000000\n      dup2\n      mstore\n      0x04\n      add\n      tag_150\n      swap1\n      tag_151\n      jump\t// in\n    tag_150:\n      mload(0x40)\n      dup1\n      swap2\n      sub\n      swap1\n      revert\n    tag_149:\n        /* \"@openzeppelin/contracts/security/ReentrancyGuard.sol\":1759:1760  2 */\n      0x02\n        /* \"@openzeppelin/contracts/security/ReentrancyGuard.sol\":2598:2605  _status */\n      0x01\n        /* \"@openzeppelin/contracts/security/ReentrancyGuard.sol\":2598:2616  _status = _ENTERED */\n      dup2\n      swap1\n      sstore\n      pop\n        /* \"@openzeppelin/contracts/security/ReentrancyGuard.sol\":2336:2623  function _nonReentrantBefore() private {... */\n      jump\t// out\n        /* \"@openzeppelin/contracts/utils/math/SafeMath.sol\":3122:3218  function sub(uint256 a, uint256 b) internal pure returns (uint256) {... */\n    tag_79:\n        /* \"@openzeppelin/contracts/utils/math/SafeMath.sol\":3180:3187  uint256 */\n      0x00\n        /* \"@openzeppelin/contracts/utils/math/SafeMath.sol\":3210:3211  b */\n      dup2\n        /* \"@openzeppelin/contracts/utils/math/SafeMath.sol\":3206:3207  a */\n      dup4\n        /* \"@openzeppelin/contracts/utils/math/SafeMath.sol\":3206:3211  a - b */\n      tag_153\n      swap2\n      swap1\n      tag_154\n      jump\t// in\n    tag_153:\n        /* \"@openzeppelin/contracts/utils/math/SafeMath.sol\":3199:3211  return a - b */\n      swap1\n      pop\n        /* \"@openzeppelin/contracts/utils/math/SafeMath.sol\":3122:3218  function sub(uint256 a, uint256 b) internal pure returns (uint256) {... */\n      swap3\n      swap2\n      pop\n      pop\n      jump\t// out\n        /* \"@openzeppelin/contracts/security/ReentrancyGuard.sol\":2629:2838  function _nonReentrantAfter() private {... */\n    tag_85:\n        /* \"@openzeppelin/contracts/security/ReentrancyGuard.sol\":1716:1717  1 */\n      0x01\n        /* \"@openzeppelin/contracts/security/ReentrancyGuard.sol\":2809:2816  _status */\n      dup1\n        /* \"@openzeppelin/contracts/security/ReentrancyGuard.sol\":2809:2831  _status = _NOT_ENTERED */\n      dup2\n      swap1\n      sstore\n      pop\n        /* \"@openzeppelin/contracts/security/ReentrancyGuard.sol\":2629:2838  function _nonReentrantAfter() private {... */\n      jump\t// out\n        /* \"@openzeppelin/contracts/access/Ownable.sol\":1796:1958  function _checkOwner() internal view virtual {... */\n    tag_109:\n        /* \"@openzeppelin/contracts/access/Ownable.sol\":1866:1878  _msgSender() */\n      tag_157\n        /* \"@openzeppelin/contracts/access/Ownable.sol\":1866:1876  _msgSender */\n      tag_158\n        /* \"@openzeppelin/contracts/access/Ownable.sol\":1866:1878  _msgSender() */\n      jump\t// in\n    tag_157:\n        /* \"@openzeppelin/contracts/access/Ownable.sol\":1855:1878  owner() != _msgSender() */\n      0xffffffffffffffffffffffffffffffffffffffff\n      and\n        /* \"@openzeppelin/contracts/access/Ownable.sol\":1855:1862  owner() */\n      tag_159\n        /* \"@openzeppelin/contracts/access/Ownable.sol\":1855:1860  owner */\n      tag_44\n        /* \"@openzeppelin/contracts/access/Ownable.sol\":1855:1862  owner() */\n      jump\t// in\n    tag_159:\n        /* \"@openzeppelin/contracts/access/Ownable.sol\":1855:1878  owner() != _msgSender() */\n      0xffffffffffffffffffffffffffffffffffffffff\n      and\n      eq\n        /* \"@openzeppelin/contracts/access/Ownable.sol\":1851:1952  if (owner() != _msgSender()) {... */\n      tag_160\n      jumpi\n        /* \"@openzeppelin/contracts/access/Ownable.sol\":1928:1940  _msgSender() */\n      tag_161\n        /* \"@openzeppelin/contracts/access/Ownable.sol\":1928:1938  _msgSender */\n      tag_158\n        /* \"@openzeppelin/contracts/access/Ownable.sol\":1928:1940  _msgSender() */\n      jump\t// in\n    tag_161:\n        /* \"@openzeppelin/contracts/access/Ownable.sol\":1901:1941  OwnableUnauthorizedAccount(_msgSender()) */\n      mload(0x40)\n      0x118cdaa700000000000000000000000000000000000000000000000000000000\n      dup2\n      mstore\n      0x04\n      add\n      tag_162\n      swap2\n      swap1\n      tag_46\n      jump\t// in\n    tag_162:\n      mload(0x40)\n      dup1\n      swap2\n      sub\n      swap1\n      revert\n        /* \"@openzeppelin/contracts/access/Ownable.sol\":1851:1952  if (owner() != _msgSender()) {... */\n    tag_160:\n        /* \"@openzeppelin/contracts/access/Ownable.sol\":1796:1958  function _checkOwner() internal view virtual {... */\n      jump\t// out\n        /* \"@openzeppelin/contracts/access/Ownable.sol\":2912:3099  function _transferOwnership(address newOwner) internal virtual {... */\n    tag_112:\n        /* \"@openzeppelin/contracts/access/Ownable.sol\":2985:3001  address oldOwner */\n      0x00\n        /* \"@openzeppelin/contracts/access/Ownable.sol\":3004:3010  _owner */\n      dup1\n      0x00\n      swap1\n      sload\n      swap1\n      0x0100\n      exp\n      swap1\n      div\n      0xffffffffffffffffffffffffffffffffffffffff\n      and\n        /* \"@openzeppelin/contracts/access/Ownable.sol\":2985:3010  address oldOwner = _owner */\n      swap1\n      pop\n        /* \"@openzeppelin/contracts/access/Ownable.sol\":3029:3037  newOwner */\n      dup2\n        /* \"@openzeppelin/contracts/access/Ownable.sol\":3020:3026  _owner */\n      0x00\n      dup1\n        /* \"@openzeppelin/contracts/access/Ownable.sol\":3020:3037  _owner = newOwner */\n      0x0100\n      exp\n      dup2\n      sload\n      dup2\n      0xffffffffffffffffffffffffffffffffffffffff\n      mul\n      not\n      and\n      swap1\n      dup4\n      0xffffffffffffffffffffffffffffffffffffffff\n      and\n      mul\n      or\n      swap1\n      sstore\n      pop\n        /* \"@openzeppelin/contracts/access/Ownable.sol\":3083:3091  newOwner */\n      dup2\n        /* \"@openzeppelin/contracts/access/Ownable.sol\":3052:3092  OwnershipTransferred(oldOwner, newOwner) */\n      0xffffffffffffffffffffffffffffffffffffffff\n      and\n        /* \"@openzeppelin/contracts/access/Ownable.sol\":3073:3081  oldOwner */\n      dup2\n        /* \"@openzeppelin/contracts/access/Ownable.sol\":3052:3092  OwnershipTransferred(oldOwner, newOwner) */\n      0xffffffffffffffffffffffffffffffffffffffff\n      and\n      0x8be0079c531659141344cd1fd0a4f28419497f9722a3daafe3b4186f6b6457e0\n      mload(0x40)\n      mload(0x40)\n      dup1\n      swap2\n      sub\n      swap1\n      log3\n        /* \"@openzeppelin/contracts/access/Ownable.sol\":2975:3099  {... */\n      pop\n        /* \"@openzeppelin/contracts/access/Ownable.sol\":2912:3099  function _transferOwnership(address newOwner) internal virtual {... */\n      pop\n      jump\t// out\n        /* \"@openzeppelin/contracts/utils/math/SafeMath.sol\":2755:2851  function add(uint256 a, uint256 b) internal pure returns (uint256) {... */\n    tag_137:\n        /* \"@openzeppelin/contracts/utils/math/SafeMath.sol\":2813:2820  uint256 */\n      0x00\n        /* \"@openzeppelin/contracts/utils/math/SafeMath.sol\":2843:2844  b */\n      dup2\n        /* \"@openzeppelin/contracts/utils/math/SafeMath.sol\":2839:2840  a */\n      dup4\n        /* \"@openzeppelin/contracts/utils/math/SafeMath.sol\":2839:2844  a + b */\n      tag_165\n      swap2\n      swap1\n      tag_82\n      jump\t// in\n    tag_165:\n        /* \"@openzeppelin/contracts/utils/math/SafeMath.sol\":2832:2844  return a + b */\n      swap1\n      pop\n        /* \"@openzeppelin/contracts/utils/math/SafeMath.sol\":2755:2851  function add(uint256 a, uint256 b) internal pure returns (uint256) {... */\n      swap3\n      swap2\n      pop\n      pop\n      jump\t// out\n        /* \"@openzeppelin/contracts/utils/Context.sol\":656:752  function _msgSender() internal view virtual returns (address) {... */\n    tag_158:\n        /* \"@openzeppelin/contracts/utils/Context.sol\":709:716  address */\n      0x00\n        /* \"@openzeppelin/contracts/utils/Context.sol\":735:745  msg.sender */\n      caller\n        /* \"@openzeppelin/contracts/utils/Context.sol\":728:745  return msg.sender */\n      swap1\n      pop\n        /* \"@openzeppelin/contracts/utils/Context.sol\":656:752  function _msgSender() internal view virtual returns (address) {... */\n      swap1\n      jump\t// out\n        /* \"#utility.yul\":88:205   */\n    tag_168:\n        /* \"#utility.yul\":197:198   */\n      0x00\n        /* \"#utility.yul\":194:195   */\n      dup1\n        /* \"#utility.yul\":187:199   */\n      revert\n        /* \"#utility.yul\":334:411   */\n    tag_170:\n        /* \"#utility.yul\":371:378   */\n      0x00\n        /* \"#utility.yul\":400:405   */\n      dup2\n        /* \"#utility.yul\":389:405   */\n      swap1\n      pop\n        /* \"#utility.yul\":334:411   */\n      swap2\n      swap1\n      pop\n      jump\t// out\n        /* \"#utility.yul\":417:539   */\n    tag_171:\n        /* \"#utility.yul\":490:514   */\n      tag_216\n        /* \"#utility.yul\":508:513   */\n      dup2\n        /* \"#utility.yul\":490:514   */\n      tag_170\n      jump\t// in\n    tag_216:\n        /* \"#utility.yul\":483:488   */\n      dup2\n        /* \"#utility.yul\":480:515   */\n      eq\n        /* \"#utility.yul\":470:533   */\n      tag_217\n      jumpi\n        /* \"#utility.yul\":529:530   */\n      0x00\n        /* \"#utility.yul\":526:527   */\n      dup1\n        /* \"#utility.yul\":519:531   */\n      revert\n        /* \"#utility.yul\":470:533   */\n    tag_217:\n        /* \"#utility.yul\":417:539   */\n      pop\n      jump\t// out\n        /* \"#utility.yul\":545:684   */\n    tag_172:\n        /* \"#utility.yul\":591:596   */\n      0x00\n        /* \"#utility.yul\":629:635   */\n      dup2\n        /* \"#utility.yul\":616:636   */\n      calldataload\n        /* \"#utility.yul\":607:636   */\n      swap1\n      pop\n        /* \"#utility.yul\":645:678   */\n      tag_219\n        /* \"#utility.yul\":672:677   */\n      dup2\n        /* \"#utility.yul\":645:678   */\n      tag_171\n      jump\t// in\n    tag_219:\n        /* \"#utility.yul\":545:684   */\n      swap3\n      swap2\n      pop\n      pop\n      jump\t// out\n        /* \"#utility.yul\":690:1019   */\n    tag_20:\n        /* \"#utility.yul\":749:755   */\n      0x00\n        /* \"#utility.yul\":798:800   */\n      0x20\n        /* \"#utility.yul\":786:795   */\n      dup3\n        /* \"#utility.yul\":777:784   */\n      dup5\n        /* \"#utility.yul\":773:796   */\n      sub\n        /* \"#utility.yul\":769:801   */\n      slt\n        /* \"#utility.yul\":766:885   */\n      iszero\n      tag_221\n      jumpi\n        /* \"#utility.yul\":804:883   */\n      tag_222\n      tag_168\n      jump\t// in\n    tag_222:\n        /* \"#utility.yul\":766:885   */\n    tag_221:\n        /* \"#utility.yul\":924:925   */\n      0x00\n        /* \"#utility.yul\":949:1002   */\n      tag_223\n        /* \"#utility.yul\":994:1001   */\n      dup5\n        /* \"#utility.yul\":985:991   */\n      dup3\n        /* \"#utility.yul\":974:983   */\n      dup6\n        /* \"#utility.yul\":970:992   */\n      add\n        /* \"#utility.yul\":949:1002   */\n      tag_172\n      jump\t// in\n    tag_223:\n        /* \"#utility.yul\":939:1002   */\n      swap2\n      pop\n        /* \"#utility.yul\":895:1012   */\n      pop\n        /* \"#utility.yul\":690:1019   */\n      swap3\n      swap2\n      pop\n      pop\n      jump\t// out\n        /* \"#utility.yul\":1025:1151   */\n    tag_173:\n        /* \"#utility.yul\":1062:1069   */\n      0x00\n        /* \"#utility.yul\":1102:1144   */\n      0xffffffffffffffffffffffffffffffffffffffff\n        /* \"#utility.yul\":1095:1100   */\n      dup3\n        /* \"#utility.yul\":1091:1145   */\n      and\n        /* \"#utility.yul\":1080:1145   */\n      swap1\n      pop\n        /* \"#utility.yul\":1025:1151   */\n      swap2\n      swap1\n      pop\n      jump\t// out\n        /* \"#utility.yul\":1157:1253   */\n    tag_174:\n        /* \"#utility.yul\":1194:1201   */\n      0x00\n        /* \"#utility.yul\":1223:1247   */\n      tag_226\n        /* \"#utility.yul\":1241:1246   */\n      dup3\n        /* \"#utility.yul\":1223:1247   */\n      tag_173\n      jump\t// in\n    tag_226:\n        /* \"#utility.yul\":1212:1247   */\n      swap1\n      pop\n        /* \"#utility.yul\":1157:1253   */\n      swap2\n      swap1\n      pop\n      jump\t// out\n        /* \"#utility.yul\":1259:1381   */\n    tag_175:\n        /* \"#utility.yul\":1332:1356   */\n      tag_228\n        /* \"#utility.yul\":1350:1355   */\n      dup2\n        /* \"#utility.yul\":1332:1356   */\n      tag_174\n      jump\t// in\n    tag_228:\n        /* \"#utility.yul\":1325:1330   */\n      dup2\n        /* \"#utility.yul\":1322:1357   */\n      eq\n        /* \"#utility.yul\":1312:1375   */\n      tag_229\n      jumpi\n        /* \"#utility.yul\":1371:1372   */\n      0x00\n        /* \"#utility.yul\":1368:1369   */\n      dup1\n        /* \"#utility.yul\":1361:1373   */\n      revert\n        /* \"#utility.yul\":1312:1375   */\n    tag_229:\n        /* \"#utility.yul\":1259:1381   */\n      pop\n      jump\t// out\n        /* \"#utility.yul\":1387:1526   */\n    tag_176:\n        /* \"#utility.yul\":1433:1438   */\n      0x00\n        /* \"#utility.yul\":1471:1477   */\n      dup2\n        /* \"#utility.yul\":1458:1478   */\n      calldataload\n        /* \"#utility.yul\":1449:1478   */\n      swap1\n      pop\n        /* \"#utility.yul\":1487:1520   */\n      tag_231\n        /* \"#utility.yul\":1514:1519   */\n      dup2\n        /* \"#utility.yul\":1487:1520   */\n      tag_175\n      jump\t// in\n    tag_231:\n        /* \"#utility.yul\":1387:1526   */\n      swap3\n      swap2\n      pop\n      pop\n      jump\t// out\n        /* \"#utility.yul\":1532:1861   */\n    tag_24:\n        /* \"#utility.yul\":1591:1597   */\n      0x00\n        /* \"#utility.yul\":1640:1642   */\n      0x20\n        /* \"#utility.yul\":1628:1637   */\n      dup3\n        /* \"#utility.yul\":1619:1626   */\n      dup5\n        /* \"#utility.yul\":1615:1638   */\n      sub\n        /* \"#utility.yul\":1611:1643   */\n      slt\n        /* \"#utility.yul\":1608:1727   */\n      iszero\n      tag_233\n      jumpi\n        /* \"#utility.yul\":1646:1725   */\n      tag_234\n      tag_168\n      jump\t// in\n    tag_234:\n        /* \"#utility.yul\":1608:1727   */\n    tag_233:\n        /* \"#utility.yul\":1766:1767   */\n      0x00\n        /* \"#utility.yul\":1791:1844   */\n      tag_235\n        /* \"#utility.yul\":1836:1843   */\n      dup5\n        /* \"#utility.yul\":1827:1833   */\n      dup3\n        /* \"#utility.yul\":1816:1825   */\n      dup6\n        /* \"#utility.yul\":1812:1834   */\n      add\n        /* \"#utility.yul\":1791:1844   */\n      tag_176\n      jump\t// in\n    tag_235:\n        /* \"#utility.yul\":1781:1844   */\n      swap2\n      pop\n        /* \"#utility.yul\":1737:1854   */\n      pop\n        /* \"#utility.yul\":1532:1861   */\n      swap3\n      swap2\n      pop\n      pop\n      jump\t// out\n        /* \"#utility.yul\":1867:1985   */\n    tag_177:\n        /* \"#utility.yul\":1954:1978   */\n      tag_237\n        /* \"#utility.yul\":1972:1977   */\n      dup2\n        /* \"#utility.yul\":1954:1978   */\n      tag_170\n      jump\t// in\n    tag_237:\n        /* \"#utility.yul\":1949:1952   */\n      dup3\n        /* \"#utility.yul\":1942:1979   */\n      mstore\n        /* \"#utility.yul\":1867:1985   */\n      pop\n      pop\n      jump\t// out\n        /* \"#utility.yul\":1991:2323   */\n    tag_27:\n        /* \"#utility.yul\":2112:2116   */\n      0x00\n        /* \"#utility.yul\":2150:2152   */\n      0x40\n        /* \"#utility.yul\":2139:2148   */\n      dup3\n        /* \"#utility.yul\":2135:2153   */\n      add\n        /* \"#utility.yul\":2127:2153   */\n      swap1\n      pop\n        /* \"#utility.yul\":2163:2234   */\n      tag_239\n        /* \"#utility.yul\":2231:2232   */\n      0x00\n        /* \"#utility.yul\":2220:2229   */\n      dup4\n        /* \"#utility.yul\":2216:2233   */\n      add\n        /* \"#utility.yul\":2207:2213   */\n      dup6\n        /* \"#utility.yul\":2163:2234   */\n      tag_177\n      jump\t// in\n    tag_239:\n        /* \"#utility.yul\":2244:2316   */\n      tag_240\n        /* \"#utility.yul\":2312:2314   */\n      0x20\n        /* \"#utility.yul\":2301:2310   */\n      dup4\n        /* \"#utility.yul\":2297:2315   */\n      add\n        /* \"#utility.yul\":2288:2294   */\n      dup5\n        /* \"#utility.yul\":2244:2316   */\n      tag_177\n      jump\t// in\n    tag_240:\n        /* \"#utility.yul\":1991:2323   */\n      swap4\n      swap3\n      pop\n      pop\n      pop\n      jump\t// out\n        /* \"#utility.yul\":2329:2551   */\n    tag_34:\n        /* \"#utility.yul\":2422:2426   */\n      0x00\n        /* \"#utility.yul\":2460:2462   */\n      0x20\n        /* \"#utility.yul\":2449:2458   */\n      dup3\n        /* \"#utility.yul\":2445:2463   */\n      add\n        /* \"#utility.yul\":2437:2463   */\n      swap1\n      pop\n        /* \"#utility.yul\":2473:2544   */\n      tag_242\n        /* \"#utility.yul\":2541:2542   */\n      0x00\n        /* \"#utility.yul\":2530:2539   */\n      dup4\n        /* \"#utility.yul\":2526:2543   */\n      add\n        /* \"#utility.yul\":2517:2523   */\n      dup5\n        /* \"#utility.yul\":2473:2544   */\n      tag_177\n      jump\t// in\n    tag_242:\n        /* \"#utility.yul\":2329:2551   */\n      swap3\n      swap2\n      pop\n      pop\n      jump\t// out\n        /* \"#utility.yul\":2557:2675   */\n    tag_178:\n        /* \"#utility.yul\":2644:2668   */\n      tag_244\n        /* \"#utility.yul\":2662:2667   */\n      dup2\n        /* \"#utility.yul\":2644:2668   */\n      tag_174\n      jump\t// in\n    tag_244:\n        /* \"#utility.yul\":2639:2642   */\n      dup3\n        /* \"#utility.yul\":2632:2669   */\n      mstore\n        /* \"#utility.yul\":2557:2675   */\n      pop\n      pop\n      jump\t// out\n        /* \"#utility.yul\":2681:2903   */\n    tag_46:\n        /* \"#utility.yul\":2774:2778   */\n      0x00\n        /* \"#utility.yul\":2812:2814   */\n      0x20\n        /* \"#utility.yul\":2801:2810   */\n      dup3\n        /* \"#utility.yul\":2797:2815   */\n      add\n        /* \"#utility.yul\":2789:2815   */\n      swap1\n      pop\n        /* \"#utility.yul\":2825:2896   */\n      tag_246\n        /* \"#utility.yul\":2893:2894   */\n      0x00\n        /* \"#utility.yul\":2882:2891   */\n      dup4\n        /* \"#utility.yul\":2878:2895   */\n      add\n        /* \"#utility.yul\":2869:2875   */\n      dup5\n        /* \"#utility.yul\":2825:2896   */\n      tag_178\n      jump\t// in\n    tag_246:\n        /* \"#utility.yul\":2681:2903   */\n      swap3\n      swap2\n      pop\n      pop\n      jump\t// out\n        /* \"#utility.yul\":2909:2969   */\n    tag_179:\n        /* \"#utility.yul\":2937:2940   */\n      0x00\n        /* \"#utility.yul\":2958:2963   */\n      dup2\n        /* \"#utility.yul\":2951:2963   */\n      swap1\n      pop\n        /* \"#utility.yul\":2909:2969   */\n      swap2\n      swap1\n      pop\n      jump\t// out\n        /* \"#utility.yul\":2975:3117   */\n    tag_180:\n        /* \"#utility.yul\":3025:3034   */\n      0x00\n        /* \"#utility.yul\":3058:3111   */\n      tag_249\n        /* \"#utility.yul\":3076:3110   */\n      tag_250\n        /* \"#utility.yul\":3085:3109   */\n      tag_251\n        /* \"#utility.yul\":3103:3108   */\n      dup5\n        /* \"#utility.yul\":3085:3109   */\n      tag_173\n      jump\t// in\n    tag_251:\n        /* \"#utility.yul\":3076:3110   */\n      tag_179\n      jump\t// in\n    tag_250:\n        /* \"#utility.yul\":3058:3111   */\n      tag_173\n      jump\t// in\n    tag_249:\n        /* \"#utility.yul\":3045:3111   */\n      swap1\n      pop\n        /* \"#utility.yul\":2975:3117   */\n      swap2\n      swap1\n      pop\n      jump\t// out\n        /* \"#utility.yul\":3123:3249   */\n    tag_181:\n        /* \"#utility.yul\":3173:3182   */\n      0x00\n        /* \"#utility.yul\":3206:3243   */\n      tag_253\n        /* \"#utility.yul\":3237:3242   */\n      dup3\n        /* \"#utility.yul\":3206:3243   */\n      tag_180\n      jump\t// in\n    tag_253:\n        /* \"#utility.yul\":3193:3243   */\n      swap1\n      pop\n        /* \"#utility.yul\":3123:3249   */\n      swap2\n      swap1\n      pop\n      jump\t// out\n        /* \"#utility.yul\":3255:3395   */\n    tag_182:\n        /* \"#utility.yul\":3319:3328   */\n      0x00\n        /* \"#utility.yul\":3352:3389   */\n      tag_255\n        /* \"#utility.yul\":3383:3388   */\n      dup3\n        /* \"#utility.yul\":3352:3389   */\n      tag_181\n      jump\t// in\n    tag_255:\n        /* \"#utility.yul\":3339:3389   */\n      swap1\n      pop\n        /* \"#utility.yul\":3255:3395   */\n      swap2\n      swap1\n      pop\n      jump\t// out\n        /* \"#utility.yul\":3401:3560   */\n    tag_183:\n        /* \"#utility.yul\":3502:3553   */\n      tag_257\n        /* \"#utility.yul\":3547:3552   */\n      dup2\n        /* \"#utility.yul\":3502:3553   */\n      tag_182\n      jump\t// in\n    tag_257:\n        /* \"#utility.yul\":3497:3500   */\n      dup3\n        /* \"#utility.yul\":3490:3554   */\n      mstore\n        /* \"#utility.yul\":3401:3560   */\n      pop\n      pop\n      jump\t// out\n        /* \"#utility.yul\":3566:3816   */\n    tag_64:\n        /* \"#utility.yul\":3673:3677   */\n      0x00\n        /* \"#utility.yul\":3711:3713   */\n      0x20\n        /* \"#utility.yul\":3700:3709   */\n      dup3\n        /* \"#utility.yul\":3696:3714   */\n      add\n        /* \"#utility.yul\":3688:3714   */\n      swap1\n      pop\n        /* \"#utility.yul\":3724:3809   */\n      tag_259\n        /* \"#utility.yul\":3806:3807   */\n      0x00\n        /* \"#utility.yul\":3795:3804   */\n      dup4\n        /* \"#utility.yul\":3791:3808   */\n      add\n        /* \"#utility.yul\":3782:3788   */\n      dup5\n        /* \"#utility.yul\":3724:3809   */\n      tag_183\n      jump\t// in\n    tag_259:\n        /* \"#utility.yul\":3566:3816   */\n      swap3\n      swap2\n      pop\n      pop\n      jump\t// out\n        /* \"#utility.yul\":3822:3991   */\n    tag_184:\n        /* \"#utility.yul\":3906:3917   */\n      0x00\n        /* \"#utility.yul\":3940:3946   */\n      dup3\n        /* \"#utility.yul\":3935:3938   */\n      dup3\n        /* \"#utility.yul\":3928:3947   */\n      mstore\n        /* \"#utility.yul\":3980:3984   */\n      0x20\n        /* \"#utility.yul\":3975:3978   */\n      dup3\n        /* \"#utility.yul\":3971:3985   */\n      add\n        /* \"#utility.yul\":3956:3985   */\n      swap1\n      pop\n        /* \"#utility.yul\":3822:3991   */\n      swap3\n      swap2\n      pop\n      pop\n      jump\t// out\n        /* \"#utility.yul\":3997:4173   */\n    tag_185:\n        /* \"#utility.yul\":4137:4165   */\n      0x43616e6e6f7420556e7374616b65207a65726f20746f6b656e73000000000000\n        /* \"#utility.yul\":4133:4134   */\n      0x00\n        /* \"#utility.yul\":4125:4131   */\n      dup3\n        /* \"#utility.yul\":4121:4135   */\n      add\n        /* \"#utility.yul\":4114:4166   */\n      mstore\n        /* \"#utility.yul\":3997:4173   */\n      pop\n      jump\t// out\n        /* \"#utility.yul\":4179:4545   */\n    tag_186:\n        /* \"#utility.yul\":4321:4324   */\n      0x00\n        /* \"#utility.yul\":4342:4409   */\n      tag_263\n        /* \"#utility.yul\":4406:4408   */\n      0x1a\n        /* \"#utility.yul\":4401:4404   */\n      dup4\n        /* \"#utility.yul\":4342:4409   */\n      tag_184\n      jump\t// in\n    tag_263:\n        /* \"#utility.yul\":4335:4409   */\n      swap2\n      pop\n        /* \"#utility.yul\":4418:4511   */\n      tag_264\n        /* \"#utility.yul\":4507:4510   */\n      dup3\n        /* \"#utility.yul\":4418:4511   */\n      tag_185\n      jump\t// in\n    tag_264:\n        /* \"#utility.yul\":4536:4538   */\n      0x20\n        /* \"#utility.yul\":4531:4534   */\n      dup3\n        /* \"#utility.yul\":4527:4539   */\n      add\n        /* \"#utility.yul\":4520:4539   */\n      swap1\n      pop\n        /* \"#utility.yul\":4179:4545   */\n      swap2\n      swap1\n      pop\n      jump\t// out\n        /* \"#utility.yul\":4551:4970   */\n    tag_71:\n        /* \"#utility.yul\":4717:4721   */\n      0x00\n        /* \"#utility.yul\":4755:4757   */\n      0x20\n        /* \"#utility.yul\":4744:4753   */\n      dup3\n        /* \"#utility.yul\":4740:4758   */\n      add\n        /* \"#utility.yul\":4732:4758   */\n      swap1\n      pop\n        /* \"#utility.yul\":4804:4813   */\n      dup2\n        /* \"#utility.yul\":4798:4802   */\n      dup2\n        /* \"#utility.yul\":4794:4814   */\n      sub\n        /* \"#utility.yul\":4790:4791   */\n      0x00\n        /* \"#utility.yul\":4779:4788   */\n      dup4\n        /* \"#utility.yul\":4775:4792   */\n      add\n        /* \"#utility.yul\":4768:4815   */\n      mstore\n        /* \"#utility.yul\":4832:4963   */\n      tag_266\n        /* \"#utility.yul\":4958:4962   */\n      dup2\n        /* \"#utility.yul\":4832:4963   */\n      tag_186\n      jump\t// in\n    tag_266:\n        /* \"#utility.yul\":4824:4963   */\n      swap1\n      pop\n        /* \"#utility.yul\":4551:4970   */\n      swap2\n      swap1\n      pop\n      jump\t// out\n        /* \"#utility.yul\":4976:5153   */\n    tag_187:\n        /* \"#utility.yul\":5116:5145   */\n      0x496e73756666696369656e74207374616b65642062616c616e63650000000000\n        /* \"#utility.yul\":5112:5113   */\n      0x00\n        /* \"#utility.yul\":5104:5110   */\n      dup3\n        /* \"#utility.yul\":5100:5114   */\n      add\n        /* \"#utility.yul\":5093:5146   */\n      mstore\n        /* \"#utility.yul\":4976:5153   */\n      pop\n      jump\t// out\n        /* \"#utility.yul\":5159:5525   */\n    tag_188:\n        /* \"#utility.yul\":5301:5304   */\n      0x00\n        /* \"#utility.yul\":5322:5389   */\n      tag_269\n        /* \"#utility.yul\":5386:5388   */\n      0x1b\n        /* \"#utility.yul\":5381:5384   */\n      dup4\n        /* \"#utility.yul\":5322:5389   */\n      tag_184\n      jump\t// in\n    tag_269:\n        /* \"#utility.yul\":5315:5389   */\n      swap2\n      pop\n        /* \"#utility.yul\":5398:5491   */\n      tag_270\n        /* \"#utility.yul\":5487:5490   */\n      dup3\n        /* \"#utility.yul\":5398:5491   */\n      tag_187\n      jump\t// in\n    tag_270:\n        /* \"#utility.yul\":5516:5518   */\n      0x20\n        /* \"#utility.yul\":5511:5514   */\n      dup3\n        /* \"#utility.yul\":5507:5519   */\n      add\n        /* \"#utility.yul\":5500:5519   */\n      swap1\n      pop\n        /* \"#utility.yul\":5159:5525   */\n      swap2\n      swap1\n      pop\n      jump\t// out\n        /* \"#utility.yul\":5531:5950   */\n    tag_74:\n        /* \"#utility.yul\":5697:5701   */\n      0x00\n        /* \"#utility.yul\":5735:5737   */\n      0x20\n        /* \"#utility.yul\":5724:5733   */\n      dup3\n        /* \"#utility.yul\":5720:5738   */\n      add\n        /* \"#utility.yul\":5712:5738   */\n      swap1\n      pop\n        /* \"#utility.yul\":5784:5793   */\n      dup2\n        /* \"#utility.yul\":5778:5782   */\n      dup2\n        /* \"#utility.yul\":5774:5794   */\n      sub\n        /* \"#utility.yul\":5770:5771   */\n      0x00\n        /* \"#utility.yul\":5759:5768   */\n      dup4\n        /* \"#utility.yul\":5755:5772   */\n      add\n        /* \"#utility.yul\":5748:5795   */\n      mstore\n        /* \"#utility.yul\":5812:5943   */\n      tag_272\n        /* \"#utility.yul\":5938:5942   */\n      dup2\n        /* \"#utility.yul\":5812:5943   */\n      tag_188\n      jump\t// in\n    tag_272:\n        /* \"#utility.yul\":5804:5943   */\n      swap1\n      pop\n        /* \"#utility.yul\":5531:5950   */\n      swap2\n      swap1\n      pop\n      jump\t// out\n        /* \"#utility.yul\":5956:6132   */\n    tag_189:\n        /* \"#utility.yul\":6096:6124   */\n      0x556e7374616b6520416c726561647920696e2050726f63657373000000000000\n        /* \"#utility.yul\":6092:6093   */\n      0x00\n        /* \"#utility.yul\":6084:6090   */\n      dup3\n        /* \"#utility.yul\":6080:6094   */\n      add\n        /* \"#utility.yul\":6073:6125   */\n      mstore\n        /* \"#utility.yul\":5956:6132   */\n      pop\n      jump\t// out\n        /* \"#utility.yul\":6138:6504   */\n    tag_190:\n        /* \"#utility.yul\":6280:6283   */\n      0x00\n        /* \"#utility.yul\":6301:6368   */\n      tag_275\n        /* \"#utility.yul\":6365:6367   */\n      0x1a\n        /* \"#utility.yul\":6360:6363   */\n      dup4\n        /* \"#utility.yul\":6301:6368   */\n      tag_184\n      jump\t// in\n    tag_275:\n        /* \"#utility.yul\":6294:6368   */\n      swap2\n      pop\n        /* \"#utility.yul\":6377:6470   */\n      tag_276\n        /* \"#utility.yul\":6466:6469   */\n      dup3\n        /* \"#utility.yul\":6377:6470   */\n      tag_189\n      jump\t// in\n    tag_276:\n        /* \"#utility.yul\":6495:6497   */\n      0x20\n        /* \"#utility.yul\":6490:6493   */\n      dup3\n        /* \"#utility.yul\":6486:6498   */\n      add\n        /* \"#utility.yul\":6479:6498   */\n      swap1\n      pop\n        /* \"#utility.yul\":6138:6504   */\n      swap2\n      swap1\n      pop\n      jump\t// out\n        /* \"#utility.yul\":6510:6929   */\n    tag_77:\n        /* \"#utility.yul\":6676:6680   */\n      0x00\n        /* \"#utility.yul\":6714:6716   */\n      0x20\n        /* \"#utility.yul\":6703:6712   */\n      dup3\n        /* \"#utility.yul\":6699:6717   */\n      add\n        /* \"#utility.yul\":6691:6717   */\n      swap1\n      pop\n        /* \"#utility.yul\":6763:6772   */\n      dup2\n        /* \"#utility.yul\":6757:6761   */\n      dup2\n        /* \"#utility.yul\":6753:6773   */\n      sub\n        /* \"#utility.yul\":6749:6750   */\n      0x00\n        /* \"#utility.yul\":6738:6747   */\n      dup4\n        /* \"#utility.yul\":6734:6751   */\n      add\n        /* \"#utility.yul\":6727:6774   */\n      mstore\n        /* \"#utility.yul\":6791:6922   */\n      tag_278\n        /* \"#utility.yul\":6917:6921   */\n      dup2\n        /* \"#utility.yul\":6791:6922   */\n      tag_190\n      jump\t// in\n    tag_278:\n        /* \"#utility.yul\":6783:6922   */\n      swap1\n      pop\n        /* \"#utility.yul\":6510:6929   */\n      swap2\n      swap1\n      pop\n      jump\t// out\n        /* \"#utility.yul\":6935:7115   */\n    tag_191:\n        /* \"#utility.yul\":6983:7060   */\n      0x4e487b7100000000000000000000000000000000000000000000000000000000\n        /* \"#utility.yul\":6980:6981   */\n      0x00\n        /* \"#utility.yul\":6973:7061   */\n      mstore\n        /* \"#utility.yul\":7080:7084   */\n      0x11\n        /* \"#utility.yul\":7077:7078   */\n      0x04\n        /* \"#utility.yul\":7070:7085   */\n      mstore\n        /* \"#utility.yul\":7104:7108   */\n      0x24\n        /* \"#utility.yul\":7101:7102   */\n      0x00\n        /* \"#utility.yul\":7094:7109   */\n      revert\n        /* \"#utility.yul\":7121:7312   */\n    tag_82:\n        /* \"#utility.yul\":7161:7164   */\n      0x00\n        /* \"#utility.yul\":7180:7200   */\n      tag_281\n        /* \"#utility.yul\":7198:7199   */\n      dup3\n        /* \"#utility.yul\":7180:7200   */\n      tag_170\n      jump\t// in\n    tag_281:\n        /* \"#utility.yul\":7175:7200   */\n      swap2\n      pop\n        /* \"#utility.yul\":7214:7234   */\n      tag_282\n        /* \"#utility.yul\":7232:7233   */\n      dup4\n        /* \"#utility.yul\":7214:7234   */\n      tag_170\n      jump\t// in\n    tag_282:\n        /* \"#utility.yul\":7209:7234   */\n      swap3\n      pop\n        /* \"#utility.yul\":7257:7258   */\n      dup3\n        /* \"#utility.yul\":7254:7255   */\n      dup3\n        /* \"#utility.yul\":7250:7259   */\n      add\n        /* \"#utility.yul\":7243:7259   */\n      swap1\n      pop\n        /* \"#utility.yul\":7278:7281   */\n      dup1\n        /* \"#utility.yul\":7275:7276   */\n      dup3\n        /* \"#utility.yul\":7272:7282   */\n      gt\n        /* \"#utility.yul\":7269:7305   */\n      iszero\n      tag_283\n      jumpi\n        /* \"#utility.yul\":7285:7303   */\n      tag_284\n      tag_191\n      jump\t// in\n    tag_284:\n        /* \"#utility.yul\":7269:7305   */\n    tag_283:\n        /* \"#utility.yul\":7121:7312   */\n      swap3\n      swap2\n      pop\n      pop\n      jump\t// out\n        /* \"#utility.yul\":7318:7492   */\n    tag_192:\n        /* \"#utility.yul\":7458:7484   */\n      0x4e6f20556e7374616b65205265717565737420466f756e640000000000000000\n        /* \"#utility.yul\":7454:7455   */\n      0x00\n        /* \"#utility.yul\":7446:7452   */\n      dup3\n        /* \"#utility.yul\":7442:7456   */\n      add\n        /* \"#utility.yul\":7435:7485   */\n      mstore\n        /* \"#utility.yul\":7318:7492   */\n      pop\n      jump\t// out\n        /* \"#utility.yul\":7498:7864   */\n    tag_193:\n        /* \"#utility.yul\":7640:7643   */\n      0x00\n        /* \"#utility.yul\":7661:7728   */\n      tag_287\n        /* \"#utility.yul\":7725:7727   */\n      0x18\n        /* \"#utility.yul\":7720:7723   */\n      dup4\n        /* \"#utility.yul\":7661:7728   */\n      tag_184\n      jump\t// in\n    tag_287:\n        /* \"#utility.yul\":7654:7728   */\n      swap2\n      pop\n        /* \"#utility.yul\":7737:7830   */\n      tag_288\n        /* \"#utility.yul\":7826:7829   */\n      dup3\n        /* \"#utility.yul\":7737:7830   */\n      tag_192\n      jump\t// in\n    tag_288:\n        /* \"#utility.yul\":7855:7857   */\n      0x20\n        /* \"#utility.yul\":7850:7853   */\n      dup3\n        /* \"#utility.yul\":7846:7858   */\n      add\n        /* \"#utility.yul\":7839:7858   */\n      swap1\n      pop\n        /* \"#utility.yul\":7498:7864   */\n      swap2\n      swap1\n      pop\n      jump\t// out\n        /* \"#utility.yul\":7870:8289   */\n    tag_92:\n        /* \"#utility.yul\":8036:8040   */\n      0x00\n        /* \"#utility.yul\":8074:8076   */\n      0x20\n        /* \"#utility.yul\":8063:8072   */\n      dup3\n        /* \"#utility.yul\":8059:8077   */\n      add\n        /* \"#utility.yul\":8051:8077   */\n      swap1\n      pop\n        /* \"#utility.yul\":8123:8132   */\n      dup2\n        /* \"#utility.yul\":8117:8121   */\n      dup2\n        /* \"#utility.yul\":8113:8133   */\n      sub\n        /* \"#utility.yul\":8109:8110   */\n      0x00\n        /* \"#utility.yul\":8098:8107   */\n      dup4\n        /* \"#utility.yul\":8094:8111   */\n      add\n        /* \"#utility.yul\":8087:8134   */\n      mstore\n        /* \"#utility.yul\":8151:8282   */\n      tag_290\n        /* \"#utility.yul\":8277:8281   */\n      dup2\n        /* \"#utility.yul\":8151:8282   */\n      tag_193\n      jump\t// in\n    tag_290:\n        /* \"#utility.yul\":8143:8282   */\n      swap1\n      pop\n        /* \"#utility.yul\":7870:8289   */\n      swap2\n      swap1\n      pop\n      jump\t// out\n        /* \"#utility.yul\":8295:8468   */\n    tag_194:\n        /* \"#utility.yul\":8435:8460   */\n      0x556e7374616b6520706572696f64206e6f74206f766572000000000000000000\n        /* \"#utility.yul\":8431:8432   */\n      0x00\n        /* \"#utility.yul\":8423:8429   */\n      dup3\n        /* \"#utility.yul\":8419:8433   */\n      add\n        /* \"#utility.yul\":8412:8461   */\n      mstore\n        /* \"#utility.yul\":8295:8468   */\n      pop\n      jump\t// out\n        /* \"#utility.yul\":8474:8840   */\n    tag_195:\n        /* \"#utility.yul\":8616:8619   */\n      0x00\n        /* \"#utility.yul\":8637:8704   */\n      tag_293\n        /* \"#utility.yul\":8701:8703   */\n      0x17\n        /* \"#utility.yul\":8696:8699   */\n      dup4\n        /* \"#utility.yul\":8637:8704   */\n      tag_184\n      jump\t// in\n    tag_293:\n        /* \"#utility.yul\":8630:8704   */\n      swap2\n      pop\n        /* \"#utility.yul\":8713:8806   */\n      tag_294\n        /* \"#utility.yul\":8802:8805   */\n      dup3\n        /* \"#utility.yul\":8713:8806   */\n      tag_194\n      jump\t// in\n    tag_294:\n        /* \"#utility.yul\":8831:8833   */\n      0x20\n        /* \"#utility.yul\":8826:8829   */\n      dup3\n        /* \"#utility.yul\":8822:8834   */\n      add\n        /* \"#utility.yul\":8815:8834   */\n      swap1\n      pop\n        /* \"#utility.yul\":8474:8840   */\n      swap2\n      swap1\n      pop\n      jump\t// out\n        /* \"#utility.yul\":8846:9265   */\n    tag_95:\n        /* \"#utility.yul\":9012:9016   */\n      0x00\n        /* \"#utility.yul\":9050:9052   */\n      0x20\n        /* \"#utility.yul\":9039:9048   */\n      dup3\n        /* \"#utility.yul\":9035:9053   */\n      add\n        /* \"#utility.yul\":9027:9053   */\n      swap1\n      pop\n        /* \"#utility.yul\":9099:9108   */\n      dup2\n        /* \"#utility.yul\":9093:9097   */\n      dup2\n        /* \"#utility.yul\":9089:9109   */\n      sub\n        /* \"#utility.yul\":9085:9086   */\n      0x00\n        /* \"#utility.yul\":9074:9083   */\n      dup4\n        /* \"#utility.yul\":9070:9087   */\n      add\n        /* \"#utility.yul\":9063:9110   */\n      mstore\n        /* \"#utility.yul\":9127:9258   */\n      tag_296\n        /* \"#utility.yul\":9253:9257   */\n      dup2\n        /* \"#utility.yul\":9127:9258   */\n      tag_195\n      jump\t// in\n    tag_296:\n        /* \"#utility.yul\":9119:9258   */\n      swap1\n      pop\n        /* \"#utility.yul\":8846:9265   */\n      swap2\n      swap1\n      pop\n      jump\t// out\n        /* \"#utility.yul\":9271:9603   */\n    tag_97:\n        /* \"#utility.yul\":9392:9396   */\n      0x00\n        /* \"#utility.yul\":9430:9432   */\n      0x40\n        /* \"#utility.yul\":9419:9428   */\n      dup3\n        /* \"#utility.yul\":9415:9433   */\n      add\n        /* \"#utility.yul\":9407:9433   */\n      swap1\n      pop\n        /* \"#utility.yul\":9443:9514   */\n      tag_298\n        /* \"#utility.yul\":9511:9512   */\n      0x00\n        /* \"#utility.yul\":9500:9509   */\n      dup4\n        /* \"#utility.yul\":9496:9513   */\n      add\n        /* \"#utility.yul\":9487:9493   */\n      dup6\n        /* \"#utility.yul\":9443:9514   */\n      tag_178\n      jump\t// in\n    tag_298:\n        /* \"#utility.yul\":9524:9596   */\n      tag_299\n        /* \"#utility.yul\":9592:9594   */\n      0x20\n        /* \"#utility.yul\":9581:9590   */\n      dup4\n        /* \"#utility.yul\":9577:9595   */\n      add\n        /* \"#utility.yul\":9568:9574   */\n      dup5\n        /* \"#utility.yul\":9524:9596   */\n      tag_177\n      jump\t// in\n    tag_299:\n        /* \"#utility.yul\":9271:9603   */\n      swap4\n      swap3\n      pop\n      pop\n      pop\n      jump\t// out\n        /* \"#utility.yul\":9609:9699   */\n    tag_196:\n        /* \"#utility.yul\":9643:9650   */\n      0x00\n        /* \"#utility.yul\":9686:9691   */\n      dup2\n        /* \"#utility.yul\":9679:9692   */\n      iszero\n        /* \"#utility.yul\":9672:9693   */\n      iszero\n        /* \"#utility.yul\":9661:9693   */\n      swap1\n      pop\n        /* \"#utility.yul\":9609:9699   */\n      swap2\n      swap1\n      pop\n      jump\t// out\n        /* \"#utility.yul\":9705:9821   */\n    tag_197:\n        /* \"#utility.yul\":9775:9796   */\n      tag_302\n        /* \"#utility.yul\":9790:9795   */\n      dup2\n        /* \"#utility.yul\":9775:9796   */\n      tag_196\n      jump\t// in\n    tag_302:\n        /* \"#utility.yul\":9768:9773   */\n      dup2\n        /* \"#utility.yul\":9765:9797   */\n      eq\n        /* \"#utility.yul\":9755:9815   */\n      tag_303\n      jumpi\n        /* \"#utility.yul\":9811:9812   */\n      0x00\n        /* \"#utility.yul\":9808:9809   */\n      dup1\n        /* \"#utility.yul\":9801:9813   */\n      revert\n        /* \"#utility.yul\":9755:9815   */\n    tag_303:\n        /* \"#utility.yul\":9705:9821   */\n      pop\n      jump\t// out\n        /* \"#utility.yul\":9827:9964   */\n    tag_198:\n        /* \"#utility.yul\":9881:9886   */\n      0x00\n        /* \"#utility.yul\":9912:9918   */\n      dup2\n        /* \"#utility.yul\":9906:9919   */\n      mload\n        /* \"#utility.yul\":9897:9919   */\n      swap1\n      pop\n        /* \"#utility.yul\":9928:9958   */\n      tag_305\n        /* \"#utility.yul\":9952:9957   */\n      dup2\n        /* \"#utility.yul\":9928:9958   */\n      tag_197\n      jump\t// in\n    tag_305:\n        /* \"#utility.yul\":9827:9964   */\n      swap3\n      swap2\n      pop\n      pop\n      jump\t// out\n        /* \"#utility.yul\":9970:10315   */\n    tag_101:\n        /* \"#utility.yul\":10037:10043   */\n      0x00\n        /* \"#utility.yul\":10086:10088   */\n      0x20\n        /* \"#utility.yul\":10074:10083   */\n      dup3\n        /* \"#utility.yul\":10065:10072   */\n      dup5\n        /* \"#utility.yul\":10061:10084   */\n      sub\n        /* \"#utility.yul\":10057:10089   */\n      slt\n        /* \"#utility.yul\":10054:10173   */\n      iszero\n      tag_307\n      jumpi\n        /* \"#utility.yul\":10092:10171   */\n      tag_308\n      tag_168\n      jump\t// in\n    tag_308:\n        /* \"#utility.yul\":10054:10173   */\n    tag_307:\n        /* \"#utility.yul\":10212:10213   */\n      0x00\n        /* \"#utility.yul\":10237:10298   */\n      tag_309\n        /* \"#utility.yul\":10290:10297   */\n      dup5\n        /* \"#utility.yul\":10281:10287   */\n      dup3\n        /* \"#utility.yul\":10270:10279   */\n      dup6\n        /* \"#utility.yul\":10266:10288   */\n      add\n        /* \"#utility.yul\":10237:10298   */\n      tag_198\n      jump\t// in\n    tag_309:\n        /* \"#utility.yul\":10227:10298   */\n      swap2\n      pop\n        /* \"#utility.yul\":10183:10308   */\n      pop\n        /* \"#utility.yul\":9970:10315   */\n      swap3\n      swap2\n      pop\n      pop\n      jump\t// out\n        /* \"#utility.yul\":10321:10554   */\n    tag_199:\n        /* \"#utility.yul\":10461:10495   */\n      0x546f6b656e205472616e73666572204661696c656420647572696e6720556e53\n        /* \"#utility.yul\":10457:10458   */\n      0x00\n        /* \"#utility.yul\":10449:10455   */\n      dup3\n        /* \"#utility.yul\":10445:10459   */\n      add\n        /* \"#utility.yul\":10438:10496   */\n      mstore\n        /* \"#utility.yul\":10530:10546   */\n      0x74616b696e672050726f63657373000000000000000000000000000000000000\n        /* \"#utility.yul\":10525:10527   */\n      0x20\n        /* \"#utility.yul\":10517:10523   */\n      dup3\n        /* \"#utility.yul\":10513:10528   */\n      add\n        /* \"#utility.yul\":10506:10547   */\n      mstore\n        /* \"#utility.yul\":10321:10554   */\n      pop\n      jump\t// out\n        /* \"#utility.yul\":10560:10926   */\n    tag_200:\n        /* \"#utility.yul\":10702:10705   */\n      0x00\n        /* \"#utility.yul\":10723:10790   */\n      tag_312\n        /* \"#utility.yul\":10787:10789   */\n      0x2e\n        /* \"#utility.yul\":10782:10785   */\n      dup4\n        /* \"#utility.yul\":10723:10790   */\n      tag_184\n      jump\t// in\n    tag_312:\n        /* \"#utility.yul\":10716:10790   */\n      swap2\n      pop\n        /* \"#utility.yul\":10799:10892   */\n      tag_313\n        /* \"#utility.yul\":10888:10891   */\n      dup3\n        /* \"#utility.yul\":10799:10892   */\n      tag_199\n      jump\t// in\n    tag_313:\n        /* \"#utility.yul\":10917:10919   */\n      0x40\n        /* \"#utility.yul\":10912:10915   */\n      dup3\n        /* \"#utility.yul\":10908:10920   */\n      add\n        /* \"#utility.yul\":10901:10920   */\n      swap1\n      pop\n        /* \"#utility.yul\":10560:10926   */\n      swap2\n      swap1\n      pop\n      jump\t// out\n        /* \"#utility.yul\":10932:11351   */\n    tag_104:\n        /* \"#utility.yul\":11098:11102   */\n      0x00\n        /* \"#utility.yul\":11136:11138   */\n      0x20\n        /* \"#utility.yul\":11125:11134   */\n      dup3\n        /* \"#utility.yul\":11121:11139   */\n      add\n        /* \"#utility.yul\":11113:11139   */\n      swap1\n      pop\n        /* \"#utility.yul\":11185:11194   */\n      dup2\n        /* \"#utility.yul\":11179:11183   */\n      dup2\n        /* \"#utility.yul\":11175:11195   */\n      sub\n        /* \"#utility.yul\":11171:11172   */\n      0x00\n        /* \"#utility.yul\":11160:11169   */\n      dup4\n        /* \"#utility.yul\":11156:11173   */\n      add\n        /* \"#utility.yul\":11149:11196   */\n      mstore\n        /* \"#utility.yul\":11213:11344   */\n      tag_315\n        /* \"#utility.yul\":11339:11343   */\n      dup2\n        /* \"#utility.yul\":11213:11344   */\n      tag_200\n      jump\t// in\n    tag_315:\n        /* \"#utility.yul\":11205:11344   */\n      swap1\n      pop\n        /* \"#utility.yul\":10932:11351   */\n      swap2\n      swap1\n      pop\n      jump\t// out\n        /* \"#utility.yul\":11357:11531   */\n    tag_201:\n        /* \"#utility.yul\":11497:11523   */\n      0x43616e6e6f74207374616b65207a65726f20546f6b656e730000000000000000\n        /* \"#utility.yul\":11493:11494   */\n      0x00\n        /* \"#utility.yul\":11485:11491   */\n      dup3\n        /* \"#utility.yul\":11481:11495   */\n      add\n        /* \"#utility.yul\":11474:11524   */\n      mstore\n        /* \"#utility.yul\":11357:11531   */\n      pop\n      jump\t// out\n        /* \"#utility.yul\":11537:11903   */\n    tag_202:\n        /* \"#utility.yul\":11679:11682   */\n      0x00\n        /* \"#utility.yul\":11700:11767   */\n      tag_318\n        /* \"#utility.yul\":11764:11766   */\n      0x18\n        /* \"#utility.yul\":11759:11762   */\n      dup4\n        /* \"#utility.yul\":11700:11767   */\n      tag_184\n      jump\t// in\n    tag_318:\n        /* \"#utility.yul\":11693:11767   */\n      swap2\n      pop\n        /* \"#utility.yul\":11776:11869   */\n      tag_319\n        /* \"#utility.yul\":11865:11868   */\n      dup3\n        /* \"#utility.yul\":11776:11869   */\n      tag_201\n      jump\t// in\n    tag_319:\n        /* \"#utility.yul\":11894:11896   */\n      0x20\n        /* \"#utility.yul\":11889:11892   */\n      dup3\n        /* \"#utility.yul\":11885:11897   */\n      add\n        /* \"#utility.yul\":11878:11897   */\n      swap1\n      pop\n        /* \"#utility.yul\":11537:11903   */\n      swap2\n      swap1\n      pop\n      jump\t// out\n        /* \"#utility.yul\":11909:12328   */\n    tag_119:\n        /* \"#utility.yul\":12075:12079   */\n      0x00\n        /* \"#utility.yul\":12113:12115   */\n      0x20\n        /* \"#utility.yul\":12102:12111   */\n      dup3\n        /* \"#utility.yul\":12098:12116   */\n      add\n        /* \"#utility.yul\":12090:12116   */\n      swap1\n      pop\n        /* \"#utility.yul\":12162:12171   */\n      dup2\n        /* \"#utility.yul\":12156:12160   */\n      dup2\n        /* \"#utility.yul\":12152:12172   */\n      sub\n        /* \"#utility.yul\":12148:12149   */\n      0x00\n        /* \"#utility.yul\":12137:12146   */\n      dup4\n        /* \"#utility.yul\":12133:12150   */\n      add\n        /* \"#utility.yul\":12126:12173   */\n      mstore\n        /* \"#utility.yul\":12190:12321   */\n      tag_321\n        /* \"#utility.yul\":12316:12320   */\n      dup2\n        /* \"#utility.yul\":12190:12321   */\n      tag_202\n      jump\t// in\n    tag_321:\n        /* \"#utility.yul\":12182:12321   */\n      swap1\n      pop\n        /* \"#utility.yul\":11909:12328   */\n      swap2\n      swap1\n      pop\n      jump\t// out\n        /* \"#utility.yul\":12334:12477   */\n    tag_203:\n        /* \"#utility.yul\":12391:12396   */\n      0x00\n        /* \"#utility.yul\":12422:12428   */\n      dup2\n        /* \"#utility.yul\":12416:12429   */\n      mload\n        /* \"#utility.yul\":12407:12429   */\n      swap1\n      pop\n        /* \"#utility.yul\":12438:12471   */\n      tag_323\n        /* \"#utility.yul\":12465:12470   */\n      dup2\n        /* \"#utility.yul\":12438:12471   */\n      tag_171\n      jump\t// in\n    tag_323:\n        /* \"#utility.yul\":12334:12477   */\n      swap3\n      swap2\n      pop\n      pop\n      jump\t// out\n        /* \"#utility.yul\":12483:12834   */\n    tag_124:\n        /* \"#utility.yul\":12553:12559   */\n      0x00\n        /* \"#utility.yul\":12602:12604   */\n      0x20\n        /* \"#utility.yul\":12590:12599   */\n      dup3\n        /* \"#utility.yul\":12581:12588   */\n      dup5\n        /* \"#utility.yul\":12577:12600   */\n      sub\n        /* \"#utility.yul\":12573:12605   */\n      slt\n        /* \"#utility.yul\":12570:12689   */\n      iszero\n      tag_325\n      jumpi\n        /* \"#utility.yul\":12608:12687   */\n      tag_326\n      tag_168\n      jump\t// in\n    tag_326:\n        /* \"#utility.yul\":12570:12689   */\n    tag_325:\n        /* \"#utility.yul\":12728:12729   */\n      0x00\n        /* \"#utility.yul\":12753:12817   */\n      tag_327\n        /* \"#utility.yul\":12809:12816   */\n      dup5\n        /* \"#utility.yul\":12800:12806   */\n      dup3\n        /* \"#utility.yul\":12789:12798   */\n      dup6\n        /* \"#utility.yul\":12785:12807   */\n      add\n        /* \"#utility.yul\":12753:12817   */\n      tag_203\n      jump\t// in\n    tag_327:\n        /* \"#utility.yul\":12743:12817   */\n      swap2\n      pop\n        /* \"#utility.yul\":12699:12827   */\n      pop\n        /* \"#utility.yul\":12483:12834   */\n      swap3\n      swap2\n      pop\n      pop\n      jump\t// out\n        /* \"#utility.yul\":12840:13010   */\n    tag_204:\n        /* \"#utility.yul\":12980:13002   */\n      0x496e73756666696369656e742042616c616e6365000000000000000000000000\n        /* \"#utility.yul\":12976:12977   */\n      0x00\n        /* \"#utility.yul\":12968:12974   */\n      dup3\n        /* \"#utility.yul\":12964:12978   */\n      add\n        /* \"#utility.yul\":12957:13003   */\n      mstore\n        /* \"#utility.yul\":12840:13010   */\n      pop\n      jump\t// out\n        /* \"#utility.yul\":13016:13382   */\n    tag_205:\n        /* \"#utility.yul\":13158:13161   */\n      0x00\n        /* \"#utility.yul\":13179:13246   */\n      tag_330\n        /* \"#utility.yul\":13243:13245   */\n      0x14\n        /* \"#utility.yul\":13238:13241   */\n      dup4\n        /* \"#utility.yul\":13179:13246   */\n      tag_184\n      jump\t// in\n    tag_330:\n        /* \"#utility.yul\":13172:13246   */\n      swap2\n      pop\n        /* \"#utility.yul\":13255:13348   */\n      tag_331\n        /* \"#utility.yul\":13344:13347   */\n      dup3\n        /* \"#utility.yul\":13255:13348   */\n      tag_204\n      jump\t// in\n    tag_331:\n        /* \"#utility.yul\":13373:13375   */\n      0x20\n        /* \"#utility.yul\":13368:13371   */\n      dup3\n        /* \"#utility.yul\":13364:13376   */\n      add\n        /* \"#utility.yul\":13357:13376   */\n      swap1\n      pop\n        /* \"#utility.yul\":13016:13382   */\n      swap2\n      swap1\n      pop\n      jump\t// out\n        /* \"#utility.yul\":13388:13807   */\n    tag_127:\n        /* \"#utility.yul\":13554:13558   */\n      0x00\n        /* \"#utility.yul\":13592:13594   */\n      0x20\n        /* \"#utility.yul\":13581:13590   */\n      dup3\n        /* \"#utility.yul\":13577:13595   */\n      add\n        /* \"#utility.yul\":13569:13595   */\n      swap1\n      pop\n        /* \"#utility.yul\":13641:13650   */\n      dup2\n        /* \"#utility.yul\":13635:13639   */\n      dup2\n        /* \"#utility.yul\":13631:13651   */\n      sub\n        /* \"#utility.yul\":13627:13628   */\n      0x00\n        /* \"#utility.yul\":13616:13625   */\n      dup4\n        /* \"#utility.yul\":13612:13629   */\n      add\n        /* \"#utility.yul\":13605:13652   */\n      mstore\n        /* \"#utility.yul\":13669:13800   */\n      tag_333\n        /* \"#utility.yul\":13795:13799   */\n      dup2\n        /* \"#utility.yul\":13669:13800   */\n      tag_205\n      jump\t// in\n    tag_333:\n        /* \"#utility.yul\":13661:13800   */\n      swap1\n      pop\n        /* \"#utility.yul\":13388:13807   */\n      swap2\n      swap1\n      pop\n      jump\t// out\n        /* \"#utility.yul\":13813:14255   */\n    tag_129:\n        /* \"#utility.yul\":13962:13966   */\n      0x00\n        /* \"#utility.yul\":14000:14002   */\n      0x60\n        /* \"#utility.yul\":13989:13998   */\n      dup3\n        /* \"#utility.yul\":13985:14003   */\n      add\n        /* \"#utility.yul\":13977:14003   */\n      swap1\n      pop\n        /* \"#utility.yul\":14013:14084   */\n      tag_335\n        /* \"#utility.yul\":14081:14082   */\n      0x00\n        /* \"#utility.yul\":14070:14079   */\n      dup4\n        /* \"#utility.yul\":14066:14083   */\n      add\n        /* \"#utility.yul\":14057:14063   */\n      dup7\n        /* \"#utility.yul\":14013:14084   */\n      tag_178\n      jump\t// in\n    tag_335:\n        /* \"#utility.yul\":14094:14166   */\n      tag_336\n        /* \"#utility.yul\":14162:14164   */\n      0x20\n        /* \"#utility.yul\":14151:14160   */\n      dup4\n        /* \"#utility.yul\":14147:14165   */\n      add\n        /* \"#utility.yul\":14138:14144   */\n      dup6\n        /* \"#utility.yul\":14094:14166   */\n      tag_178\n      jump\t// in\n    tag_336:\n        /* \"#utility.yul\":14176:14248   */\n      tag_337\n        /* \"#utility.yul\":14244:14246   */\n      0x40\n        /* \"#utility.yul\":14233:14242   */\n      dup4\n        /* \"#utility.yul\":14229:14247   */\n      add\n        /* \"#utility.yul\":14220:14226   */\n      dup5\n        /* \"#utility.yul\":14176:14248   */\n      tag_177\n      jump\t// in\n    tag_337:\n        /* \"#utility.yul\":13813:14255   */\n      swap5\n      swap4\n      pop\n      pop\n      pop\n      pop\n      jump\t// out\n        /* \"#utility.yul\":14261:14426   */\n    tag_206:\n        /* \"#utility.yul\":14401:14418   */\n      0x5472616e73666572204661696c65640000000000000000000000000000000000\n        /* \"#utility.yul\":14397:14398   */\n      0x00\n        /* \"#utility.yul\":14389:14395   */\n      dup3\n        /* \"#utility.yul\":14385:14399   */\n      add\n        /* \"#utility.yul\":14378:14419   */\n      mstore\n        /* \"#utility.yul\":14261:14426   */\n      pop\n      jump\t// out\n        /* \"#utility.yul\":14432:14798   */\n    tag_207:\n        /* \"#utility.yul\":14574:14577   */\n      0x00\n        /* \"#utility.yul\":14595:14662   */\n      tag_340\n        /* \"#utility.yul\":14659:14661   */\n      0x0f\n        /* \"#utility.yul\":14654:14657   */\n      dup4\n        /* \"#utility.yul\":14595:14662   */\n      tag_184\n      jump\t// in\n    tag_340:\n        /* \"#utility.yul\":14588:14662   */\n      swap2\n      pop\n        /* \"#utility.yul\":14671:14764   */\n      tag_341\n        /* \"#utility.yul\":14760:14763   */\n      dup3\n        /* \"#utility.yul\":14671:14764   */\n      tag_206\n      jump\t// in\n    tag_341:\n        /* \"#utility.yul\":14789:14791   */\n      0x20\n        /* \"#utility.yul\":14784:14787   */\n      dup3\n        /* \"#utility.yul\":14780:14792   */\n      add\n        /* \"#utility.yul\":14773:14792   */\n      swap1\n      pop\n        /* \"#utility.yul\":14432:14798   */\n      swap2\n      swap1\n      pop\n      jump\t// out\n        /* \"#utility.yul\":14804:15223   */\n    tag_135:\n        /* \"#utility.yul\":14970:14974   */\n      0x00\n        /* \"#utility.yul\":15008:15010   */\n      0x20\n        /* \"#utility.yul\":14997:15006   */\n      dup3\n        /* \"#utility.yul\":14993:15011   */\n      add\n        /* \"#utility.yul\":14985:15011   */\n      swap1\n      pop\n        /* \"#utility.yul\":15057:15066   */\n      dup2\n        /* \"#utility.yul\":15051:15055   */\n      dup2\n        /* \"#utility.yul\":15047:15067   */\n      sub\n        /* \"#utility.yul\":15043:15044   */\n      0x00\n        /* \"#utility.yul\":15032:15041   */\n      dup4\n        /* \"#utility.yul\":15028:15045   */\n      add\n        /* \"#utility.yul\":15021:15068   */\n      mstore\n        /* \"#utility.yul\":15085:15216   */\n      tag_343\n        /* \"#utility.yul\":15211:15215   */\n      dup2\n        /* \"#utility.yul\":15085:15216   */\n      tag_207\n      jump\t// in\n    tag_343:\n        /* \"#utility.yul\":15077:15216   */\n      swap1\n      pop\n        /* \"#utility.yul\":14804:15223   */\n      swap2\n      swap1\n      pop\n      jump\t// out\n        /* \"#utility.yul\":15229:15410   */\n    tag_208:\n        /* \"#utility.yul\":15369:15402   */\n      0x5265656e7472616e637947756172643a207265656e7472616e742063616c6c00\n        /* \"#utility.yul\":15365:15366   */\n      0x00\n        /* \"#utility.yul\":15357:15363   */\n      dup3\n        /* \"#utility.yul\":15353:15367   */\n      add\n        /* \"#utility.yul\":15346:15403   */\n      mstore\n        /* \"#utility.yul\":15229:15410   */\n      pop\n      jump\t// out\n        /* \"#utility.yul\":15416:15782   */\n    tag_209:\n        /* \"#utility.yul\":15558:15561   */\n      0x00\n        /* \"#utility.yul\":15579:15646   */\n      tag_346\n        /* \"#utility.yul\":15643:15645   */\n      0x1f\n        /* \"#utility.yul\":15638:15641   */\n      dup4\n        /* \"#utility.yul\":15579:15646   */\n      tag_184\n      jump\t// in\n    tag_346:\n        /* \"#utility.yul\":15572:15646   */\n      swap2\n      pop\n        /* \"#utility.yul\":15655:15748   */\n      tag_347\n        /* \"#utility.yul\":15744:15747   */\n      dup3\n        /* \"#utility.yul\":15655:15748   */\n      tag_208\n      jump\t// in\n    tag_347:\n        /* \"#utility.yul\":15773:15775   */\n      0x20\n        /* \"#utility.yul\":15768:15771   */\n      dup3\n        /* \"#utility.yul\":15764:15776   */\n      add\n        /* \"#utility.yul\":15757:15776   */\n      swap1\n      pop\n        /* \"#utility.yul\":15416:15782   */\n      swap2\n      swap1\n      pop\n      jump\t// out\n        /* \"#utility.yul\":15788:16207   */\n    tag_151:\n        /* \"#utility.yul\":15954:15958   */\n      0x00\n        /* \"#utility.yul\":15992:15994   */\n      0x20\n        /* \"#utility.yul\":15981:15990   */\n      dup3\n        /* \"#utility.yul\":15977:15995   */\n      add\n        /* \"#utility.yul\":15969:15995   */\n      swap1\n      pop\n        /* \"#utility.yul\":16041:16050   */\n      dup2\n        /* \"#utility.yul\":16035:16039   */\n      dup2\n        /* \"#utility.yul\":16031:16051   */\n      sub\n        /* \"#utility.yul\":16027:16028   */\n      0x00\n        /* \"#utility.yul\":16016:16025   */\n      dup4\n        /* \"#utility.yul\":16012:16029   */\n      add\n        /* \"#utility.yul\":16005:16052   */\n      mstore\n        /* \"#utility.yul\":16069:16200   */\n      tag_349\n        /* \"#utility.yul\":16195:16199   */\n      dup2\n        /* \"#utility.yul\":16069:16200   */\n      tag_209\n      jump\t// in\n    tag_349:\n        /* \"#utility.yul\":16061:16200   */\n      swap1\n      pop\n        /* \"#utility.yul\":15788:16207   */\n      swap2\n      swap1\n      pop\n      jump\t// out\n        /* \"#utility.yul\":16213:16407   */\n    tag_154:\n        /* \"#utility.yul\":16253:16257   */\n      0x00\n        /* \"#utility.yul\":16273:16293   */\n      tag_351\n        /* \"#utility.yul\":16291:16292   */\n      dup3\n        /* \"#utility.yul\":16273:16293   */\n      tag_170\n      jump\t// in\n    tag_351:\n        /* \"#utility.yul\":16268:16293   */\n      swap2\n      pop\n        /* \"#utility.yul\":16307:16327   */\n      tag_352\n        /* \"#utility.yul\":16325:16326   */\n      dup4\n        /* \"#utility.yul\":16307:16327   */\n      tag_170\n      jump\t// in\n    tag_352:\n        /* \"#utility.yul\":16302:16327   */\n      swap3\n      pop\n        /* \"#utility.yul\":16351:16352   */\n      dup3\n        /* \"#utility.yul\":16348:16349   */\n      dup3\n        /* \"#utility.yul\":16344:16353   */\n      sub\n        /* \"#utility.yul\":16336:16353   */\n      swap1\n      pop\n        /* \"#utility.yul\":16375:16376   */\n      dup2\n        /* \"#utility.yul\":16369:16373   */\n      dup2\n        /* \"#utility.yul\":16366:16377   */\n      gt\n        /* \"#utility.yul\":16363:16400   */\n      iszero\n      tag_353\n      jumpi\n        /* \"#utility.yul\":16380:16398   */\n      tag_354\n      tag_191\n      jump\t// in\n    tag_354:\n        /* \"#utility.yul\":16363:16400   */\n    tag_353:\n        /* \"#utility.yul\":16213:16407   */\n      swap3\n      swap2\n      pop\n      pop\n      jump\t// out\n\n    auxdata: 0xa2646970667358221220fa7070370293574d30dfd8e05efd63bd8f2b2509d3c1a00919f1144eff2ce81f64736f6c634300081a0033\n}\n",
				"bytecode": {
					"linkReferences": {},
					"object": "60a060405234801561000f575f80fd5b5060405161196638038061196683398181016040528101906100319190610281565b805f73ffffffffffffffffffffffffffffffffffffffff168173ffffffffffffffffffffffffffffffffffffffff16036100a2575f6040517f1e4fbdf700000000000000000000000000000000000000000000000000000000815260040161009991906102ce565b60405180910390fd5b6100b18161016260201b60201c565b50600180819055505f73ffffffffffffffffffffffffffffffffffffffff168273ffffffffffffffffffffffffffffffffffffffff1603610127576040517f08c379a000000000000000000000000000000000000000000000000000000000815260040161011e90610341565b60405180910390fd5b8173ffffffffffffffffffffffffffffffffffffffff1660808173ffffffffffffffffffffffffffffffffffffffff1681525050505061035f565b5f805f9054906101000a900473ffffffffffffffffffffffffffffffffffffffff169050815f806101000a81548173ffffffffffffffffffffffffffffffffffffffff021916908373ffffffffffffffffffffffffffffffffffffffff1602179055508173ffffffffffffffffffffffffffffffffffffffff168173ffffffffffffffffffffffffffffffffffffffff167f8be0079c531659141344cd1fd0a4f28419497f9722a3daafe3b4186f6b6457e060405160405180910390a35050565b5f80fd5b5f73ffffffffffffffffffffffffffffffffffffffff82169050919050565b5f61025082610227565b9050919050565b61026081610246565b811461026a575f80fd5b50565b5f8151905061027b81610257565b92915050565b5f806040838503121561029757610296610223565b5b5f6102a48582860161026d565b92505060206102b58582860161026d565b9150509250929050565b6102c881610246565b82525050565b5f6020820190506102e15f8301846102bf565b92915050565b5f82825260208201905092915050565b7f54686520546f6b656e20616464726573732063616e6e6f74206265207a65726f5f82015250565b5f61032b6020836102e7565b9150610336826102f7565b602082019050919050565b5f6020820190508181035f8301526103588161031f565b9050919050565b6080516115da61038c5f395f8181610683015281816108820152818161095c0152610c0b01526115da5ff3fe608060405234801561000f575f80fd5b50600436106100cd575f3560e01c8063817b1cd21161008a578063a694fc3a11610064578063a694fc3a146101ed578063bb4d443614610209578063f2fde38b14610239578063f96dae0a14610255576100cd565b8063817b1cd2146101805780638da5cb5b1461019e578063a0873111146101bc576100cd565b806318fb4f32146100d15780633b64916e146100ed5780633ccfd60b1461011e5780636021726714610128578063715018a61461015857806379b5786214610162575b5f80fd5b6100eb60048036038101906100e69190610e35565b610273565b005b61010760048036038101906101029190610eba565b61053f565b604051610115929190610ef4565b60405180910390f35b610126610594565b005b610142600480360381019061013d9190610eba565b6107b9565b60405161014f9190610f1b565b60405180910390f35b6101606107ce565b005b61016a6107e1565b6040516101779190610f1b565b60405180910390f35b6101886107e8565b6040516101959190610f1b565b60405180910390f35b6101a66107ee565b6040516101b39190610f43565b60405180910390f35b6101d660048036038101906101d19190610eba565b610815565b6040516101e4929190610ef4565b60405180910390f35b61020760048036038101906102029190610e35565b610835565b005b610223600480360381019061021e9190610eba565b610b3f565b6040516102309190610f1b565b60405180910390f35b610253600480360381019061024e9190610eba565b610b85565b005b61025d610c09565b60405161026a9190610fb7565b60405180910390f35b61027b610c2d565b5f81116102bd576040517f08c379a00000000000000000000000000000000000000000000000000000000081526004016102b49061102a565b60405180910390fd5b8060025f3373ffffffffffffffffffffffffffffffffffffffff1673ffffffffffffffffffffffffffffffffffffffff1681526020019081526020015f2054101561033d576040517f08c379a000000000000000000000000000000000000000000000000000000000815260040161033490611092565b60405180910390fd5b5f60045f3373ffffffffffffffffffffffffffffffffffffffff1673ffffffffffffffffffffffffffffffffffffffff1681526020019081526020015f205f0154146103be576040517f08c379a00000000000000000000000000000000000000000000000000000000081526004016103b5906110fa565b60405180910390fd5b61040e8160025f3373ffffffffffffffffffffffffffffffffffffffff1673ffffffffffffffffffffffffffffffffffffffff1681526020019081526020015f2054610c7c90919063ffffffff16565b60025f3373ffffffffffffffffffffffffffffffffffffffff1673ffffffffffffffffffffffffffffffffffffffff1681526020019081526020015f208190555061046481600354610c7c90919063ffffffff16565b6003819055505f62093a804261047a9190611145565b905060405180604001604052808381526020018281525060045f3373ffffffffffffffffffffffffffffffffffffffff1673ffffffffffffffffffffffffffffffffffffffff1681526020019081526020015f205f820151815f0155602082015181600101559050503373ffffffffffffffffffffffffffffffffffffffff167f9cee5eacd317086e5050733a5dad16ef5aaec185de792371a9625bfee2a3213b838360405161052b929190610ef4565b60405180910390a25061053c610c91565b50565b5f805f60045f8573ffffffffffffffffffffffffffffffffffffffff1673ffffffffffffffffffffffffffffffffffffffff1681526020019081526020015f209050805f015481600101549250925050915091565b61059c610c2d565b5f60045f3373ffffffffffffffffffffffffffffffffffffffff1673ffffffffffffffffffffffffffffffffffffffff1681526020019081526020015f2090505f815f015411610621576040517f08c379a0000000000000000000000000000000000000000000000000000000008152600401610618906111c2565b60405180910390fd5b8060010154421015610668576040517f08c379a000000000000000000000000000000000000000000000000000000000815260040161065f9061122a565b60405180910390fd5b5f815f015490505f825f01819055505f82600101819055505f7f000000000000000000000000000000000000000000000000000000000000000073ffffffffffffffffffffffffffffffffffffffff1663a9059cbb33846040518363ffffffff1660e01b81526004016106dc929190611248565b6020604051808303815f875af11580156106f8573d5f803e3d5ffd5b505050506040513d601f19601f8201168201806040525081019061071c91906112a4565b90508061075e576040517f08c379a00000000000000000000000000000000000000000000000000000000081526004016107559061133f565b60405180910390fd5b3373ffffffffffffffffffffffffffffffffffffffff167f884edad9ce6fa2440d8a54cc123490eb96d2768479d49ff9c7366125a9424364836040516107a49190610f1b565b60405180910390a25050506107b7610c91565b565b6002602052805f5260405f205f915090505481565b6107d6610c9a565b6107df5f610d21565b565b62093a8081565b60035481565b5f805f9054906101000a900473ffffffffffffffffffffffffffffffffffffffff16905090565b6004602052805f5260405f205f91509050805f0154908060010154905082565b61083d610c2d565b5f811161087f576040517f08c379a0000000000000000000000000000000000000000000000000000000008152600401610876906113a7565b60405180910390fd5b807f000000000000000000000000000000000000000000000000000000000000000073ffffffffffffffffffffffffffffffffffffffff166370a08231336040518263ffffffff1660e01b81526004016108d99190610f43565b602060405180830381865afa1580156108f4573d5f803e3d5ffd5b505050506040513d601f19601f8201168201806040525081019061091891906113d9565b1015610959576040517f08c379a00000000000000000000000000000000000000000000000000000000081526004016109509061144e565b60405180910390fd5b5f7f000000000000000000000000000000000000000000000000000000000000000073ffffffffffffffffffffffffffffffffffffffff166323b872dd3330856040518463ffffffff1660e01b81526004016109b79392919061146c565b6020604051808303815f875af11580156109d3573d5f803e3d5ffd5b505050506040513d601f19601f820116820180604052508101906109f791906112a4565b905080610a39576040517f08c379a0000000000000000000000000000000000000000000000000000000008152600401610a30906114eb565b60405180910390fd5b610a898260025f3373ffffffffffffffffffffffffffffffffffffffff1673ffffffffffffffffffffffffffffffffffffffff1681526020019081526020015f2054610de290919063ffffffff16565b60025f3373ffffffffffffffffffffffffffffffffffffffff1673ffffffffffffffffffffffffffffffffffffffff1681526020019081526020015f2081905550610adf82600354610de290919063ffffffff16565b6003819055503373ffffffffffffffffffffffffffffffffffffffff167f9e71bc8eea02a63969f509818f2dafb9254532904319f9dbda79b67bd34a5f3d83604051610b2b9190610f1b565b60405180910390a250610b3c610c91565b50565b5f60025f8373ffffffffffffffffffffffffffffffffffffffff1673ffffffffffffffffffffffffffffffffffffffff1681526020019081526020015f20549050919050565b610b8d610c9a565b5f73ffffffffffffffffffffffffffffffffffffffff168173ffffffffffffffffffffffffffffffffffffffff1603610bfd575f6040517f1e4fbdf7000000000000000000000000000000000000000000000000000000008152600401610bf49190610f43565b60405180910390fd5b610c0681610d21565b50565b7f000000000000000000000000000000000000000000000000000000000000000081565b600260015403610c72576040517f08c379a0000000000000000000000000000000000000000000000000000000008152600401610c6990611553565b60405180910390fd5b6002600181905550565b5f8183610c899190611571565b905092915050565b60018081905550565b610ca2610df7565b73ffffffffffffffffffffffffffffffffffffffff16610cc06107ee565b73ffffffffffffffffffffffffffffffffffffffff1614610d1f57610ce3610df7565b6040517f118cdaa7000000000000000000000000000000000000000000000000000000008152600401610d169190610f43565b60405180910390fd5b565b5f805f9054906101000a900473ffffffffffffffffffffffffffffffffffffffff169050815f806101000a81548173ffffffffffffffffffffffffffffffffffffffff021916908373ffffffffffffffffffffffffffffffffffffffff1602179055508173ffffffffffffffffffffffffffffffffffffffff168173ffffffffffffffffffffffffffffffffffffffff167f8be0079c531659141344cd1fd0a4f28419497f9722a3daafe3b4186f6b6457e060405160405180910390a35050565b5f8183610def9190611145565b905092915050565b5f33905090565b5f80fd5b5f819050919050565b610e1481610e02565b8114610e1e575f80fd5b50565b5f81359050610e2f81610e0b565b92915050565b5f60208284031215610e4a57610e49610dfe565b5b5f610e5784828501610e21565b91505092915050565b5f73ffffffffffffffffffffffffffffffffffffffff82169050919050565b5f610e8982610e60565b9050919050565b610e9981610e7f565b8114610ea3575f80fd5b50565b5f81359050610eb481610e90565b92915050565b5f60208284031215610ecf57610ece610dfe565b5b5f610edc84828501610ea6565b91505092915050565b610eee81610e02565b82525050565b5f604082019050610f075f830185610ee5565b610f146020830184610ee5565b9392505050565b5f602082019050610f2e5f830184610ee5565b92915050565b610f3d81610e7f565b82525050565b5f602082019050610f565f830184610f34565b92915050565b5f819050919050565b5f610f7f610f7a610f7584610e60565b610f5c565b610e60565b9050919050565b5f610f9082610f65565b9050919050565b5f610fa182610f86565b9050919050565b610fb181610f97565b82525050565b5f602082019050610fca5f830184610fa8565b92915050565b5f82825260208201905092915050565b7f43616e6e6f7420556e7374616b65207a65726f20746f6b656e730000000000005f82015250565b5f611014601a83610fd0565b915061101f82610fe0565b602082019050919050565b5f6020820190508181035f83015261104181611008565b9050919050565b7f496e73756666696369656e74207374616b65642062616c616e636500000000005f82015250565b5f61107c601b83610fd0565b915061108782611048565b602082019050919050565b5f6020820190508181035f8301526110a981611070565b9050919050565b7f556e7374616b6520416c726561647920696e2050726f636573730000000000005f82015250565b5f6110e4601a83610fd0565b91506110ef826110b0565b602082019050919050565b5f6020820190508181035f830152611111816110d8565b9050919050565b7f4e487b71000000000000000000000000000000000000000000000000000000005f52601160045260245ffd5b5f61114f82610e02565b915061115a83610e02565b925082820190508082111561117257611171611118565b5b92915050565b7f4e6f20556e7374616b65205265717565737420466f756e6400000000000000005f82015250565b5f6111ac601883610fd0565b91506111b782611178565b602082019050919050565b5f6020820190508181035f8301526111d9816111a0565b9050919050565b7f556e7374616b6520706572696f64206e6f74206f7665720000000000000000005f82015250565b5f611214601783610fd0565b915061121f826111e0565b602082019050919050565b5f6020820190508181035f83015261124181611208565b9050919050565b5f60408201905061125b5f830185610f34565b6112686020830184610ee5565b9392505050565b5f8115159050919050565b6112838161126f565b811461128d575f80fd5b50565b5f8151905061129e8161127a565b92915050565b5f602082840312156112b9576112b8610dfe565b5b5f6112c684828501611290565b91505092915050565b7f546f6b656e205472616e73666572204661696c656420647572696e6720556e535f8201527f74616b696e672050726f63657373000000000000000000000000000000000000602082015250565b5f611329602e83610fd0565b9150611334826112cf565b604082019050919050565b5f6020820190508181035f8301526113568161131d565b9050919050565b7f43616e6e6f74207374616b65207a65726f20546f6b656e7300000000000000005f82015250565b5f611391601883610fd0565b915061139c8261135d565b602082019050919050565b5f6020820190508181035f8301526113be81611385565b9050919050565b5f815190506113d381610e0b565b92915050565b5f602082840312156113ee576113ed610dfe565b5b5f6113fb848285016113c5565b91505092915050565b7f496e73756666696369656e742042616c616e63650000000000000000000000005f82015250565b5f611438601483610fd0565b915061144382611404565b602082019050919050565b5f6020820190508181035f8301526114658161142c565b9050919050565b5f60608201905061147f5f830186610f34565b61148c6020830185610f34565b6114996040830184610ee5565b949350505050565b7f5472616e73666572204661696c656400000000000000000000000000000000005f82015250565b5f6114d5600f83610fd0565b91506114e0826114a1565b602082019050919050565b5f6020820190508181035f830152611502816114c9565b9050919050565b7f5265656e7472616e637947756172643a207265656e7472616e742063616c6c005f82015250565b5f61153d601f83610fd0565b915061154882611509565b602082019050919050565b5f6020820190508181035f83015261156a81611531565b9050919050565b5f61157b82610e02565b915061158683610e02565b925082820390508181111561159e5761159d611118565b5b9291505056fea2646970667358221220fa7070370293574d30dfd8e05efd63bd8f2b2509d3c1a00919f1144eff2ce81f64736f6c634300081a0033",
					"opcodes": "PUSH1 0xA0 PUSH1 0x40 MSTORE CALLVALUE DUP1 ISZERO PUSH2 0xF JUMPI PUSH0 DUP1 REVERT JUMPDEST POP PUSH1 0x40 MLOAD PUSH2 0x1966 CODESIZE SUB DUP1 PUSH2 0x1966 DUP4 CODECOPY DUP2 DUP2 ADD PUSH1 0x40 MSTORE DUP2 ADD SWAP1 PUSH2 0x31 SWAP2 SWAP1 PUSH2 0x281 JUMP JUMPDEST DUP1 PUSH0 PUSH20 0xFFFFFFFFFFFFFFFFFFFFFFFFFFFFFFFFFFFFFFFF AND DUP2 PUSH20 0xFFFFFFFFFFFFFFFFFFFFFFFFFFFFFFFFFFFFFFFF AND SUB PUSH2 0xA2 JUMPI PUSH0 PUSH1 0x40 MLOAD PUSH32 0x1E4FBDF700000000000000000000000000000000000000000000000000000000 DUP2 MSTORE PUSH1 0x4 ADD PUSH2 0x99 SWAP2 SWAP1 PUSH2 0x2CE JUMP JUMPDEST PUSH1 0x40 MLOAD DUP1 SWAP2 SUB SWAP1 REVERT JUMPDEST PUSH2 0xB1 DUP2 PUSH2 0x162 PUSH1 0x20 SHL PUSH1 0x20 SHR JUMP JUMPDEST POP PUSH1 0x1 DUP1 DUP2 SWAP1 SSTORE POP PUSH0 PUSH20 0xFFFFFFFFFFFFFFFFFFFFFFFFFFFFFFFFFFFFFFFF AND DUP3 PUSH20 0xFFFFFFFFFFFFFFFFFFFFFFFFFFFFFFFFFFFFFFFF AND SUB PUSH2 0x127 JUMPI PUSH1 0x40 MLOAD PUSH32 0x8C379A000000000000000000000000000000000000000000000000000000000 DUP2 MSTORE PUSH1 0x4 ADD PUSH2 0x11E SWAP1 PUSH2 0x341 JUMP JUMPDEST PUSH1 0x40 MLOAD DUP1 SWAP2 SUB SWAP1 REVERT JUMPDEST DUP2 PUSH20 0xFFFFFFFFFFFFFFFFFFFFFFFFFFFFFFFFFFFFFFFF AND PUSH1 0x80 DUP2 PUSH20 0xFFFFFFFFFFFFFFFFFFFFFFFFFFFFFFFFFFFFFFFF AND DUP2 MSTORE POP POP POP POP PUSH2 0x35F JUMP JUMPDEST PUSH0 DUP1 PUSH0 SWAP1 SLOAD SWAP1 PUSH2 0x100 EXP SWAP1 DIV PUSH20 0xFFFFFFFFFFFFFFFFFFFFFFFFFFFFFFFFFFFFFFFF AND SWAP1 POP DUP2 PUSH0 DUP1 PUSH2 0x100 EXP DUP2 SLOAD DUP2 PUSH20 0xFFFFFFFFFFFFFFFFFFFFFFFFFFFFFFFFFFFFFFFF MUL NOT AND SWAP1 DUP4 PUSH20 0xFFFFFFFFFFFFFFFFFFFFFFFFFFFFFFFFFFFFFFFF AND MUL OR SWAP1 SSTORE POP DUP2 PUSH20 0xFFFFFFFFFFFFFFFFFFFFFFFFFFFFFFFFFFFFFFFF AND DUP2 PUSH20 0xFFFFFFFFFFFFFFFFFFFFFFFFFFFFFFFFFFFFFFFF AND PUSH32 0x8BE0079C531659141344CD1FD0A4F28419497F9722A3DAAFE3B4186F6B6457E0 PUSH1 0x40 MLOAD PUSH1 0x40 MLOAD DUP1 SWAP2 SUB SWAP1 LOG3 POP POP JUMP JUMPDEST PUSH0 DUP1 REVERT JUMPDEST PUSH0 PUSH20 0xFFFFFFFFFFFFFFFFFFFFFFFFFFFFFFFFFFFFFFFF DUP3 AND SWAP1 POP SWAP2 SWAP1 POP JUMP JUMPDEST PUSH0 PUSH2 0x250 DUP3 PUSH2 0x227 JUMP JUMPDEST SWAP1 POP SWAP2 SWAP1 POP JUMP JUMPDEST PUSH2 0x260 DUP2 PUSH2 0x246 JUMP JUMPDEST DUP2 EQ PUSH2 0x26A JUMPI PUSH0 DUP1 REVERT JUMPDEST POP JUMP JUMPDEST PUSH0 DUP2 MLOAD SWAP1 POP PUSH2 0x27B DUP2 PUSH2 0x257 JUMP JUMPDEST SWAP3 SWAP2 POP POP JUMP JUMPDEST PUSH0 DUP1 PUSH1 0x40 DUP4 DUP6 SUB SLT ISZERO PUSH2 0x297 JUMPI PUSH2 0x296 PUSH2 0x223 JUMP JUMPDEST JUMPDEST PUSH0 PUSH2 0x2A4 DUP6 DUP3 DUP7 ADD PUSH2 0x26D JUMP JUMPDEST SWAP3 POP POP PUSH1 0x20 PUSH2 0x2B5 DUP6 DUP3 DUP7 ADD PUSH2 0x26D JUMP JUMPDEST SWAP2 POP POP SWAP3 POP SWAP3 SWAP1 POP JUMP JUMPDEST PUSH2 0x2C8 DUP2 PUSH2 0x246 JUMP JUMPDEST DUP3 MSTORE POP POP JUMP JUMPDEST PUSH0 PUSH1 0x20 DUP3 ADD SWAP1 POP PUSH2 0x2E1 PUSH0 DUP4 ADD DUP5 PUSH2 0x2BF JUMP JUMPDEST SWAP3 SWAP2 POP POP JUMP JUMPDEST PUSH0 DUP3 DUP3 MSTORE PUSH1 0x20 DUP3 ADD SWAP1 POP SWAP3 SWAP2 POP POP JUMP JUMPDEST PUSH32 0x54686520546F6B656E20616464726573732063616E6E6F74206265207A65726F PUSH0 DUP3 ADD MSTORE POP JUMP JUMPDEST PUSH0 PUSH2 0x32B PUSH1 0x20 DUP4 PUSH2 0x2E7 JUMP JUMPDEST SWAP2 POP PUSH2 0x336 DUP3 PUSH2 0x2F7 JUMP JUMPDEST PUSH1 0x20 DUP3 ADD SWAP1 POP SWAP2 SWAP1 POP JUMP JUMPDEST PUSH0 PUSH1 0x20 DUP3 ADD SWAP1 POP DUP2 DUP2 SUB PUSH0 DUP4 ADD MSTORE PUSH2 0x358 DUP2 PUSH2 0x31F JUMP JUMPDEST SWAP1 POP SWAP2 SWAP1 POP JUMP JUMPDEST PUSH1 0x80 MLOAD PUSH2 0x15DA PUSH2 0x38C PUSH0 CODECOPY PUSH0 DUP2 DUP2 PUSH2 0x683 ADD MSTORE DUP2 DUP2 PUSH2 0x882 ADD MSTORE DUP2 DUP2 PUSH2 0x95C ADD MSTORE PUSH2 0xC0B ADD MSTORE PUSH2 0x15DA PUSH0 RETURN INVALID PUSH1 0x80 PUSH1 0x40 MSTORE CALLVALUE DUP1 ISZERO PUSH2 0xF JUMPI PUSH0 DUP1 REVERT JUMPDEST POP PUSH1 0x4 CALLDATASIZE LT PUSH2 0xCD JUMPI PUSH0 CALLDATALOAD PUSH1 0xE0 SHR DUP1 PUSH4 0x817B1CD2 GT PUSH2 0x8A JUMPI DUP1 PUSH4 0xA694FC3A GT PUSH2 0x64 JUMPI DUP1 PUSH4 0xA694FC3A EQ PUSH2 0x1ED JUMPI DUP1 PUSH4 0xBB4D4436 EQ PUSH2 0x209 JUMPI DUP1 PUSH4 0xF2FDE38B EQ PUSH2 0x239 JUMPI DUP1 PUSH4 0xF96DAE0A EQ PUSH2 0x255 JUMPI PUSH2 0xCD JUMP JUMPDEST DUP1 PUSH4 0x817B1CD2 EQ PUSH2 0x180 JUMPI DUP1 PUSH4 0x8DA5CB5B EQ PUSH2 0x19E JUMPI DUP1 PUSH4 0xA0873111 EQ PUSH2 0x1BC JUMPI PUSH2 0xCD JUMP JUMPDEST DUP1 PUSH4 0x18FB4F32 EQ PUSH2 0xD1 JUMPI DUP1 PUSH4 0x3B64916E EQ PUSH2 0xED JUMPI DUP1 PUSH4 0x3CCFD60B EQ PUSH2 0x11E JUMPI DUP1 PUSH4 0x60217267 EQ PUSH2 0x128 JUMPI DUP1 PUSH4 0x715018A6 EQ PUSH2 0x158 JUMPI DUP1 PUSH4 0x79B57862 EQ PUSH2 0x162 JUMPI JUMPDEST PUSH0 DUP1 REVERT JUMPDEST PUSH2 0xEB PUSH1 0x4 DUP1 CALLDATASIZE SUB DUP2 ADD SWAP1 PUSH2 0xE6 SWAP2 SWAP1 PUSH2 0xE35 JUMP JUMPDEST PUSH2 0x273 JUMP JUMPDEST STOP JUMPDEST PUSH2 0x107 PUSH1 0x4 DUP1 CALLDATASIZE SUB DUP2 ADD SWAP1 PUSH2 0x102 SWAP2 SWAP1 PUSH2 0xEBA JUMP JUMPDEST PUSH2 0x53F JUMP JUMPDEST PUSH1 0x40 MLOAD PUSH2 0x115 SWAP3 SWAP2 SWAP1 PUSH2 0xEF4 JUMP JUMPDEST PUSH1 0x40 MLOAD DUP1 SWAP2 SUB SWAP1 RETURN JUMPDEST PUSH2 0x126 PUSH2 0x594 JUMP JUMPDEST STOP JUMPDEST PUSH2 0x142 PUSH1 0x4 DUP1 CALLDATASIZE SUB DUP2 ADD SWAP1 PUSH2 0x13D SWAP2 SWAP1 PUSH2 0xEBA JUMP JUMPDEST PUSH2 0x7B9 JUMP JUMPDEST PUSH1 0x40 MLOAD PUSH2 0x14F SWAP2 SWAP1 PUSH2 0xF1B JUMP JUMPDEST PUSH1 0x40 MLOAD DUP1 SWAP2 SUB SWAP1 RETURN JUMPDEST PUSH2 0x160 PUSH2 0x7CE JUMP JUMPDEST STOP JUMPDEST PUSH2 0x16A PUSH2 0x7E1 JUMP JUMPDEST PUSH1 0x40 MLOAD PUSH2 0x177 SWAP2 SWAP1 PUSH2 0xF1B JUMP JUMPDEST PUSH1 0x40 MLOAD DUP1 SWAP2 SUB SWAP1 RETURN JUMPDEST PUSH2 0x188 PUSH2 0x7E8 JUMP JUMPDEST PUSH1 0x40 MLOAD PUSH2 0x195 SWAP2 SWAP1 PUSH2 0xF1B JUMP JUMPDEST PUSH1 0x40 MLOAD DUP1 SWAP2 SUB SWAP1 RETURN JUMPDEST PUSH2 0x1A6 PUSH2 0x7EE JUMP JUMPDEST PUSH1 0x40 MLOAD PUSH2 0x1B3 SWAP2 SWAP1 PUSH2 0xF43 JUMP JUMPDEST PUSH1 0x40 MLOAD DUP1 SWAP2 SUB SWAP1 RETURN JUMPDEST PUSH2 0x1D6 PUSH1 0x4 DUP1 CALLDATASIZE SUB DUP2 ADD SWAP1 PUSH2 0x1D1 SWAP2 SWAP1 PUSH2 0xEBA JUMP JUMPDEST PUSH2 0x815 JUMP JUMPDEST PUSH1 0x40 MLOAD PUSH2 0x1E4 SWAP3 SWAP2 SWAP1 PUSH2 0xEF4 JUMP JUMPDEST PUSH1 0x40 MLOAD DUP1 SWAP2 SUB SWAP1 RETURN JUMPDEST PUSH2 0x207 PUSH1 0x4 DUP1 CALLDATASIZE SUB DUP2 ADD SWAP1 PUSH2 0x202 SWAP2 SWAP1 PUSH2 0xE35 JUMP JUMPDEST PUSH2 0x835 JUMP JUMPDEST STOP JUMPDEST PUSH2 0x223 PUSH1 0x4 DUP1 CALLDATASIZE SUB DUP2 ADD SWAP1 PUSH2 0x21E SWAP2 SWAP1 PUSH2 0xEBA JUMP JUMPDEST PUSH2 0xB3F JUMP JUMPDEST PUSH1 0x40 MLOAD PUSH2 0x230 SWAP2 SWAP1 PUSH2 0xF1B JUMP JUMPDEST PUSH1 0x40 MLOAD DUP1 SWAP2 SUB SWAP1 RETURN JUMPDEST PUSH2 0x253 PUSH1 0x4 DUP1 CALLDATASIZE SUB DUP2 ADD SWAP1 PUSH2 0x24E SWAP2 SWAP1 PUSH2 0xEBA JUMP JUMPDEST PUSH2 0xB85 JUMP JUMPDEST STOP JUMPDEST PUSH2 0x25D PUSH2 0xC09 JUMP JUMPDEST PUSH1 0x40 MLOAD PUSH2 0x26A SWAP2 SWAP1 PUSH2 0xFB7 JUMP JUMPDEST PUSH1 0x40 MLOAD DUP1 SWAP2 SUB SWAP1 RETURN JUMPDEST PUSH2 0x27B PUSH2 0xC2D JUMP JUMPDEST PUSH0 DUP2 GT PUSH2 0x2BD JUMPI PUSH1 0x40 MLOAD PUSH32 0x8C379A000000000000000000000000000000000000000000000000000000000 DUP2 MSTORE PUSH1 0x4 ADD PUSH2 0x2B4 SWAP1 PUSH2 0x102A JUMP JUMPDEST PUSH1 0x40 MLOAD DUP1 SWAP2 SUB SWAP1 REVERT JUMPDEST DUP1 PUSH1 0x2 PUSH0 CALLER PUSH20 0xFFFFFFFFFFFFFFFFFFFFFFFFFFFFFFFFFFFFFFFF AND PUSH20 0xFFFFFFFFFFFFFFFFFFFFFFFFFFFFFFFFFFFFFFFF AND DUP2 MSTORE PUSH1 0x20 ADD SWAP1 DUP2 MSTORE PUSH1 0x20 ADD PUSH0 KECCAK256 SLOAD LT ISZERO PUSH2 0x33D JUMPI PUSH1 0x40 MLOAD PUSH32 0x8C379A000000000000000000000000000000000000000000000000000000000 DUP2 MSTORE PUSH1 0x4 ADD PUSH2 0x334 SWAP1 PUSH2 0x1092 JUMP JUMPDEST PUSH1 0x40 MLOAD DUP1 SWAP2 SUB SWAP1 REVERT JUMPDEST PUSH0 PUSH1 0x4 PUSH0 CALLER PUSH20 0xFFFFFFFFFFFFFFFFFFFFFFFFFFFFFFFFFFFFFFFF AND PUSH20 0xFFFFFFFFFFFFFFFFFFFFFFFFFFFFFFFFFFFFFFFF AND DUP2 MSTORE PUSH1 0x20 ADD SWAP1 DUP2 MSTORE PUSH1 0x20 ADD PUSH0 KECCAK256 PUSH0 ADD SLOAD EQ PUSH2 0x3BE JUMPI PUSH1 0x40 MLOAD PUSH32 0x8C379A000000000000000000000000000000000000000000000000000000000 DUP2 MSTORE PUSH1 0x4 ADD PUSH2 0x3B5 SWAP1 PUSH2 0x10FA JUMP JUMPDEST PUSH1 0x40 MLOAD DUP1 SWAP2 SUB SWAP1 REVERT JUMPDEST PUSH2 0x40E DUP2 PUSH1 0x2 PUSH0 CALLER PUSH20 0xFFFFFFFFFFFFFFFFFFFFFFFFFFFFFFFFFFFFFFFF AND PUSH20 0xFFFFFFFFFFFFFFFFFFFFFFFFFFFFFFFFFFFFFFFF AND DUP2 MSTORE PUSH1 0x20 ADD SWAP1 DUP2 MSTORE PUSH1 0x20 ADD PUSH0 KECCAK256 SLOAD PUSH2 0xC7C SWAP1 SWAP2 SWAP1 PUSH4 0xFFFFFFFF AND JUMP JUMPDEST PUSH1 0x2 PUSH0 CALLER PUSH20 0xFFFFFFFFFFFFFFFFFFFFFFFFFFFFFFFFFFFFFFFF AND PUSH20 0xFFFFFFFFFFFFFFFFFFFFFFFFFFFFFFFFFFFFFFFF AND DUP2 MSTORE PUSH1 0x20 ADD SWAP1 DUP2 MSTORE PUSH1 0x20 ADD PUSH0 KECCAK256 DUP2 SWAP1 SSTORE POP PUSH2 0x464 DUP2 PUSH1 0x3 SLOAD PUSH2 0xC7C SWAP1 SWAP2 SWAP1 PUSH4 0xFFFFFFFF AND JUMP JUMPDEST PUSH1 0x3 DUP2 SWAP1 SSTORE POP PUSH0 PUSH3 0x93A80 TIMESTAMP PUSH2 0x47A SWAP2 SWAP1 PUSH2 0x1145 JUMP JUMPDEST SWAP1 POP PUSH1 0x40 MLOAD DUP1 PUSH1 0x40 ADD PUSH1 0x40 MSTORE DUP1 DUP4 DUP2 MSTORE PUSH1 0x20 ADD DUP3 DUP2 MSTORE POP PUSH1 0x4 PUSH0 CALLER PUSH20 0xFFFFFFFFFFFFFFFFFFFFFFFFFFFFFFFFFFFFFFFF AND PUSH20 0xFFFFFFFFFFFFFFFFFFFFFFFFFFFFFFFFFFFFFFFF AND DUP2 MSTORE PUSH1 0x20 ADD SWAP1 DUP2 MSTORE PUSH1 0x20 ADD PUSH0 KECCAK256 PUSH0 DUP3 ADD MLOAD DUP2 PUSH0 ADD SSTORE PUSH1 0x20 DUP3 ADD MLOAD DUP2 PUSH1 0x1 ADD SSTORE SWAP1 POP POP CALLER PUSH20 0xFFFFFFFFFFFFFFFFFFFFFFFFFFFFFFFFFFFFFFFF AND PUSH32 0x9CEE5EACD317086E5050733A5DAD16EF5AAEC185DE792371A9625BFEE2A3213B DUP4 DUP4 PUSH1 0x40 MLOAD PUSH2 0x52B SWAP3 SWAP2 SWAP1 PUSH2 0xEF4 JUMP JUMPDEST PUSH1 0x40 MLOAD DUP1 SWAP2 SUB SWAP1 LOG2 POP PUSH2 0x53C PUSH2 0xC91 JUMP JUMPDEST POP JUMP JUMPDEST PUSH0 DUP1 PUSH0 PUSH1 0x4 PUSH0 DUP6 PUSH20 0xFFFFFFFFFFFFFFFFFFFFFFFFFFFFFFFFFFFFFFFF AND PUSH20 0xFFFFFFFFFFFFFFFFFFFFFFFFFFFFFFFFFFFFFFFF AND DUP2 MSTORE PUSH1 0x20 ADD SWAP1 DUP2 MSTORE PUSH1 0x20 ADD PUSH0 KECCAK256 SWAP1 POP DUP1 PUSH0 ADD SLOAD DUP2 PUSH1 0x1 ADD SLOAD SWAP3 POP SWAP3 POP POP SWAP2 POP SWAP2 JUMP JUMPDEST PUSH2 0x59C PUSH2 0xC2D JUMP JUMPDEST PUSH0 PUSH1 0x4 PUSH0 CALLER PUSH20 0xFFFFFFFFFFFFFFFFFFFFFFFFFFFFFFFFFFFFFFFF AND PUSH20 0xFFFFFFFFFFFFFFFFFFFFFFFFFFFFFFFFFFFFFFFF AND DUP2 MSTORE PUSH1 0x20 ADD SWAP1 DUP2 MSTORE PUSH1 0x20 ADD PUSH0 KECCAK256 SWAP1 POP PUSH0 DUP2 PUSH0 ADD SLOAD GT PUSH2 0x621 JUMPI PUSH1 0x40 MLOAD PUSH32 0x8C379A000000000000000000000000000000000000000000000000000000000 DUP2 MSTORE PUSH1 0x4 ADD PUSH2 0x618 SWAP1 PUSH2 0x11C2 JUMP JUMPDEST PUSH1 0x40 MLOAD DUP1 SWAP2 SUB SWAP1 REVERT JUMPDEST DUP1 PUSH1 0x1 ADD SLOAD TIMESTAMP LT ISZERO PUSH2 0x668 JUMPI PUSH1 0x40 MLOAD PUSH32 0x8C379A000000000000000000000000000000000000000000000000000000000 DUP2 MSTORE PUSH1 0x4 ADD PUSH2 0x65F SWAP1 PUSH2 0x122A JUMP JUMPDEST PUSH1 0x40 MLOAD DUP1 SWAP2 SUB SWAP1 REVERT JUMPDEST PUSH0 DUP2 PUSH0 ADD SLOAD SWAP1 POP PUSH0 DUP3 PUSH0 ADD DUP2 SWAP1 SSTORE POP PUSH0 DUP3 PUSH1 0x1 ADD DUP2 SWAP1 SSTORE POP PUSH0 PUSH32 0x0 PUSH20 0xFFFFFFFFFFFFFFFFFFFFFFFFFFFFFFFFFFFFFFFF AND PUSH4 0xA9059CBB CALLER DUP5 PUSH1 0x40 MLOAD DUP4 PUSH4 0xFFFFFFFF AND PUSH1 0xE0 SHL DUP2 MSTORE PUSH1 0x4 ADD PUSH2 0x6DC SWAP3 SWAP2 SWAP1 PUSH2 0x1248 JUMP JUMPDEST PUSH1 0x20 PUSH1 0x40 MLOAD DUP1 DUP4 SUB DUP2 PUSH0 DUP8 GAS CALL ISZERO DUP1 ISZERO PUSH2 0x6F8 JUMPI RETURNDATASIZE PUSH0 DUP1 RETURNDATACOPY RETURNDATASIZE PUSH0 REVERT JUMPDEST POP POP POP POP PUSH1 0x40 MLOAD RETURNDATASIZE PUSH1 0x1F NOT PUSH1 0x1F DUP3 ADD AND DUP3 ADD DUP1 PUSH1 0x40 MSTORE POP DUP2 ADD SWAP1 PUSH2 0x71C SWAP2 SWAP1 PUSH2 0x12A4 JUMP JUMPDEST SWAP1 POP DUP1 PUSH2 0x75E JUMPI PUSH1 0x40 MLOAD PUSH32 0x8C379A000000000000000000000000000000000000000000000000000000000 DUP2 MSTORE PUSH1 0x4 ADD PUSH2 0x755 SWAP1 PUSH2 0x133F JUMP JUMPDEST PUSH1 0x40 MLOAD DUP1 SWAP2 SUB SWAP1 REVERT JUMPDEST CALLER PUSH20 0xFFFFFFFFFFFFFFFFFFFFFFFFFFFFFFFFFFFFFFFF AND PUSH32 0x884EDAD9CE6FA2440D8A54CC123490EB96D2768479D49FF9C7366125A9424364 DUP4 PUSH1 0x40 MLOAD PUSH2 0x7A4 SWAP2 SWAP1 PUSH2 0xF1B JUMP JUMPDEST PUSH1 0x40 MLOAD DUP1 SWAP2 SUB SWAP1 LOG2 POP POP POP PUSH2 0x7B7 PUSH2 0xC91 JUMP JUMPDEST JUMP JUMPDEST PUSH1 0x2 PUSH1 0x20 MSTORE DUP1 PUSH0 MSTORE PUSH1 0x40 PUSH0 KECCAK256 PUSH0 SWAP2 POP SWAP1 POP SLOAD DUP2 JUMP JUMPDEST PUSH2 0x7D6 PUSH2 0xC9A JUMP JUMPDEST PUSH2 0x7DF PUSH0 PUSH2 0xD21 JUMP JUMPDEST JUMP JUMPDEST PUSH3 0x93A80 DUP2 JUMP JUMPDEST PUSH1 0x3 SLOAD DUP2 JUMP JUMPDEST PUSH0 DUP1 PUSH0 SWAP1 SLOAD SWAP1 PUSH2 0x100 EXP SWAP1 DIV PUSH20 0xFFFFFFFFFFFFFFFFFFFFFFFFFFFFFFFFFFFFFFFF AND SWAP1 POP SWAP1 JUMP JUMPDEST PUSH1 0x4 PUSH1 0x20 MSTORE DUP1 PUSH0 MSTORE PUSH1 0x40 PUSH0 KECCAK256 PUSH0 SWAP2 POP SWAP1 POP DUP1 PUSH0 ADD SLOAD SWAP1 DUP1 PUSH1 0x1 ADD SLOAD SWAP1 POP DUP3 JUMP JUMPDEST PUSH2 0x83D PUSH2 0xC2D JUMP JUMPDEST PUSH0 DUP2 GT PUSH2 0x87F JUMPI PUSH1 0x40 MLOAD PUSH32 0x8C379A000000000000000000000000000000000000000000000000000000000 DUP2 MSTORE PUSH1 0x4 ADD PUSH2 0x876 SWAP1 PUSH2 0x13A7 JUMP JUMPDEST PUSH1 0x40 MLOAD DUP1 SWAP2 SUB SWAP1 REVERT JUMPDEST DUP1 PUSH32 0x0 PUSH20 0xFFFFFFFFFFFFFFFFFFFFFFFFFFFFFFFFFFFFFFFF AND PUSH4 0x70A08231 CALLER PUSH1 0x40 MLOAD DUP3 PUSH4 0xFFFFFFFF AND PUSH1 0xE0 SHL DUP2 MSTORE PUSH1 0x4 ADD PUSH2 0x8D9 SWAP2 SWAP1 PUSH2 0xF43 JUMP JUMPDEST PUSH1 0x20 PUSH1 0x40 MLOAD DUP1 DUP4 SUB DUP2 DUP7 GAS STATICCALL ISZERO DUP1 ISZERO PUSH2 0x8F4 JUMPI RETURNDATASIZE PUSH0 DUP1 RETURNDATACOPY RETURNDATASIZE PUSH0 REVERT JUMPDEST POP POP POP POP PUSH1 0x40 MLOAD RETURNDATASIZE PUSH1 0x1F NOT PUSH1 0x1F DUP3 ADD AND DUP3 ADD DUP1 PUSH1 0x40 MSTORE POP DUP2 ADD SWAP1 PUSH2 0x918 SWAP2 SWAP1 PUSH2 0x13D9 JUMP JUMPDEST LT ISZERO PUSH2 0x959 JUMPI PUSH1 0x40 MLOAD PUSH32 0x8C379A000000000000000000000000000000000000000000000000000000000 DUP2 MSTORE PUSH1 0x4 ADD PUSH2 0x950 SWAP1 PUSH2 0x144E JUMP JUMPDEST PUSH1 0x40 MLOAD DUP1 SWAP2 SUB SWAP1 REVERT JUMPDEST PUSH0 PUSH32 0x0 PUSH20 0xFFFFFFFFFFFFFFFFFFFFFFFFFFFFFFFFFFFFFFFF AND PUSH4 0x23B872DD CALLER ADDRESS DUP6 PUSH1 0x40 MLOAD DUP5 PUSH4 0xFFFFFFFF AND PUSH1 0xE0 SHL DUP2 MSTORE PUSH1 0x4 ADD PUSH2 0x9B7 SWAP4 SWAP3 SWAP2 SWAP1 PUSH2 0x146C JUMP JUMPDEST PUSH1 0x20 PUSH1 0x40 MLOAD DUP1 DUP4 SUB DUP2 PUSH0 DUP8 GAS CALL ISZERO DUP1 ISZERO PUSH2 0x9D3 JUMPI RETURNDATASIZE PUSH0 DUP1 RETURNDATACOPY RETURNDATASIZE PUSH0 REVERT JUMPDEST POP POP POP POP PUSH1 0x40 MLOAD RETURNDATASIZE PUSH1 0x1F NOT PUSH1 0x1F DUP3 ADD AND DUP3 ADD DUP1 PUSH1 0x40 MSTORE POP DUP2 ADD SWAP1 PUSH2 0x9F7 SWAP2 SWAP1 PUSH2 0x12A4 JUMP JUMPDEST SWAP1 POP DUP1 PUSH2 0xA39 JUMPI PUSH1 0x40 MLOAD PUSH32 0x8C379A000000000000000000000000000000000000000000000000000000000 DUP2 MSTORE PUSH1 0x4 ADD PUSH2 0xA30 SWAP1 PUSH2 0x14EB JUMP JUMPDEST PUSH1 0x40 MLOAD DUP1 SWAP2 SUB SWAP1 REVERT JUMPDEST PUSH2 0xA89 DUP3 PUSH1 0x2 PUSH0 CALLER PUSH20 0xFFFFFFFFFFFFFFFFFFFFFFFFFFFFFFFFFFFFFFFF AND PUSH20 0xFFFFFFFFFFFFFFFFFFFFFFFFFFFFFFFFFFFFFFFF AND DUP2 MSTORE PUSH1 0x20 ADD SWAP1 DUP2 MSTORE PUSH1 0x20 ADD PUSH0 KECCAK256 SLOAD PUSH2 0xDE2 SWAP1 SWAP2 SWAP1 PUSH4 0xFFFFFFFF AND JUMP JUMPDEST PUSH1 0x2 PUSH0 CALLER PUSH20 0xFFFFFFFFFFFFFFFFFFFFFFFFFFFFFFFFFFFFFFFF AND PUSH20 0xFFFFFFFFFFFFFFFFFFFFFFFFFFFFFFFFFFFFFFFF AND DUP2 MSTORE PUSH1 0x20 ADD SWAP1 DUP2 MSTORE PUSH1 0x20 ADD PUSH0 KECCAK256 DUP2 SWAP1 SSTORE POP PUSH2 0xADF DUP3 PUSH1 0x3 SLOAD PUSH2 0xDE2 SWAP1 SWAP2 SWAP1 PUSH4 0xFFFFFFFF AND JUMP JUMPDEST PUSH1 0x3 DUP2 SWAP1 SSTORE POP CALLER PUSH20 0xFFFFFFFFFFFFFFFFFFFFFFFFFFFFFFFFFFFFFFFF AND PUSH32 0x9E71BC8EEA02A63969F509818F2DAFB9254532904319F9DBDA79B67BD34A5F3D DUP4 PUSH1 0x40 MLOAD PUSH2 0xB2B SWAP2 SWAP1 PUSH2 0xF1B JUMP JUMPDEST PUSH1 0x40 MLOAD DUP1 SWAP2 SUB SWAP1 LOG2 POP PUSH2 0xB3C PUSH2 0xC91 JUMP JUMPDEST POP JUMP JUMPDEST PUSH0 PUSH1 0x2 PUSH0 DUP4 PUSH20 0xFFFFFFFFFFFFFFFFFFFFFFFFFFFFFFFFFFFFFFFF AND PUSH20 0xFFFFFFFFFFFFFFFFFFFFFFFFFFFFFFFFFFFFFFFF AND DUP2 MSTORE PUSH1 0x20 ADD SWAP1 DUP2 MSTORE PUSH1 0x20 ADD PUSH0 KECCAK256 SLOAD SWAP1 POP SWAP2 SWAP1 POP JUMP JUMPDEST PUSH2 0xB8D PUSH2 0xC9A JUMP JUMPDEST PUSH0 PUSH20 0xFFFFFFFFFFFFFFFFFFFFFFFFFFFFFFFFFFFFFFFF AND DUP2 PUSH20 0xFFFFFFFFFFFFFFFFFFFFFFFFFFFFFFFFFFFFFFFF AND SUB PUSH2 0xBFD JUMPI PUSH0 PUSH1 0x40 MLOAD PUSH32 0x1E4FBDF700000000000000000000000000000000000000000000000000000000 DUP2 MSTORE PUSH1 0x4 ADD PUSH2 0xBF4 SWAP2 SWAP1 PUSH2 0xF43 JUMP JUMPDEST PUSH1 0x40 MLOAD DUP1 SWAP2 SUB SWAP1 REVERT JUMPDEST PUSH2 0xC06 DUP2 PUSH2 0xD21 JUMP JUMPDEST POP JUMP JUMPDEST PUSH32 0x0 DUP2 JUMP JUMPDEST PUSH1 0x2 PUSH1 0x1 SLOAD SUB PUSH2 0xC72 JUMPI PUSH1 0x40 MLOAD PUSH32 0x8C379A000000000000000000000000000000000000000000000000000000000 DUP2 MSTORE PUSH1 0x4 ADD PUSH2 0xC69 SWAP1 PUSH2 0x1553 JUMP JUMPDEST PUSH1 0x40 MLOAD DUP1 SWAP2 SUB SWAP1 REVERT JUMPDEST PUSH1 0x2 PUSH1 0x1 DUP2 SWAP1 SSTORE POP JUMP JUMPDEST PUSH0 DUP2 DUP4 PUSH2 0xC89 SWAP2 SWAP1 PUSH2 0x1571 JUMP JUMPDEST SWAP1 POP SWAP3 SWAP2 POP POP JUMP JUMPDEST PUSH1 0x1 DUP1 DUP2 SWAP1 SSTORE POP JUMP JUMPDEST PUSH2 0xCA2 PUSH2 0xDF7 JUMP JUMPDEST PUSH20 0xFFFFFFFFFFFFFFFFFFFFFFFFFFFFFFFFFFFFFFFF AND PUSH2 0xCC0 PUSH2 0x7EE JUMP JUMPDEST PUSH20 0xFFFFFFFFFFFFFFFFFFFFFFFFFFFFFFFFFFFFFFFF AND EQ PUSH2 0xD1F JUMPI PUSH2 0xCE3 PUSH2 0xDF7 JUMP JUMPDEST PUSH1 0x40 MLOAD PUSH32 0x118CDAA700000000000000000000000000000000000000000000000000000000 DUP2 MSTORE PUSH1 0x4 ADD PUSH2 0xD16 SWAP2 SWAP1 PUSH2 0xF43 JUMP JUMPDEST PUSH1 0x40 MLOAD DUP1 SWAP2 SUB SWAP1 REVERT JUMPDEST JUMP JUMPDEST PUSH0 DUP1 PUSH0 SWAP1 SLOAD SWAP1 PUSH2 0x100 EXP SWAP1 DIV PUSH20 0xFFFFFFFFFFFFFFFFFFFFFFFFFFFFFFFFFFFFFFFF AND SWAP1 POP DUP2 PUSH0 DUP1 PUSH2 0x100 EXP DUP2 SLOAD DUP2 PUSH20 0xFFFFFFFFFFFFFFFFFFFFFFFFFFFFFFFFFFFFFFFF MUL NOT AND SWAP1 DUP4 PUSH20 0xFFFFFFFFFFFFFFFFFFFFFFFFFFFFFFFFFFFFFFFF AND MUL OR SWAP1 SSTORE POP DUP2 PUSH20 0xFFFFFFFFFFFFFFFFFFFFFFFFFFFFFFFFFFFFFFFF AND DUP2 PUSH20 0xFFFFFFFFFFFFFFFFFFFFFFFFFFFFFFFFFFFFFFFF AND PUSH32 0x8BE0079C531659141344CD1FD0A4F28419497F9722A3DAAFE3B4186F6B6457E0 PUSH1 0x40 MLOAD PUSH1 0x40 MLOAD DUP1 SWAP2 SUB SWAP1 LOG3 POP POP JUMP JUMPDEST PUSH0 DUP2 DUP4 PUSH2 0xDEF SWAP2 SWAP1 PUSH2 0x1145 JUMP JUMPDEST SWAP1 POP SWAP3 SWAP2 POP POP JUMP JUMPDEST PUSH0 CALLER SWAP1 POP SWAP1 JUMP JUMPDEST PUSH0 DUP1 REVERT JUMPDEST PUSH0 DUP2 SWAP1 POP SWAP2 SWAP1 POP JUMP JUMPDEST PUSH2 0xE14 DUP2 PUSH2 0xE02 JUMP JUMPDEST DUP2 EQ PUSH2 0xE1E JUMPI PUSH0 DUP1 REVERT JUMPDEST POP JUMP JUMPDEST PUSH0 DUP2 CALLDATALOAD SWAP1 POP PUSH2 0xE2F DUP2 PUSH2 0xE0B JUMP JUMPDEST SWAP3 SWAP2 POP POP JUMP JUMPDEST PUSH0 PUSH1 0x20 DUP3 DUP5 SUB SLT ISZERO PUSH2 0xE4A JUMPI PUSH2 0xE49 PUSH2 0xDFE JUMP JUMPDEST JUMPDEST PUSH0 PUSH2 0xE57 DUP5 DUP3 DUP6 ADD PUSH2 0xE21 JUMP JUMPDEST SWAP2 POP POP SWAP3 SWAP2 POP POP JUMP JUMPDEST PUSH0 PUSH20 0xFFFFFFFFFFFFFFFFFFFFFFFFFFFFFFFFFFFFFFFF DUP3 AND SWAP1 POP SWAP2 SWAP1 POP JUMP JUMPDEST PUSH0 PUSH2 0xE89 DUP3 PUSH2 0xE60 JUMP JUMPDEST SWAP1 POP SWAP2 SWAP1 POP JUMP JUMPDEST PUSH2 0xE99 DUP2 PUSH2 0xE7F JUMP JUMPDEST DUP2 EQ PUSH2 0xEA3 JUMPI PUSH0 DUP1 REVERT JUMPDEST POP JUMP JUMPDEST PUSH0 DUP2 CALLDATALOAD SWAP1 POP PUSH2 0xEB4 DUP2 PUSH2 0xE90 JUMP JUMPDEST SWAP3 SWAP2 POP POP JUMP JUMPDEST PUSH0 PUSH1 0x20 DUP3 DUP5 SUB SLT ISZERO PUSH2 0xECF JUMPI PUSH2 0xECE PUSH2 0xDFE JUMP JUMPDEST JUMPDEST PUSH0 PUSH2 0xEDC DUP5 DUP3 DUP6 ADD PUSH2 0xEA6 JUMP JUMPDEST SWAP2 POP POP SWAP3 SWAP2 POP POP JUMP JUMPDEST PUSH2 0xEEE DUP2 PUSH2 0xE02 JUMP JUMPDEST DUP3 MSTORE POP POP JUMP JUMPDEST PUSH0 PUSH1 0x40 DUP3 ADD SWAP1 POP PUSH2 0xF07 PUSH0 DUP4 ADD DUP6 PUSH2 0xEE5 JUMP JUMPDEST PUSH2 0xF14 PUSH1 0x20 DUP4 ADD DUP5 PUSH2 0xEE5 JUMP JUMPDEST SWAP4 SWAP3 POP POP POP JUMP JUMPDEST PUSH0 PUSH1 0x20 DUP3 ADD SWAP1 POP PUSH2 0xF2E PUSH0 DUP4 ADD DUP5 PUSH2 0xEE5 JUMP JUMPDEST SWAP3 SWAP2 POP POP JUMP JUMPDEST PUSH2 0xF3D DUP2 PUSH2 0xE7F JUMP JUMPDEST DUP3 MSTORE POP POP JUMP JUMPDEST PUSH0 PUSH1 0x20 DUP3 ADD SWAP1 POP PUSH2 0xF56 PUSH0 DUP4 ADD DUP5 PUSH2 0xF34 JUMP JUMPDEST SWAP3 SWAP2 POP POP JUMP JUMPDEST PUSH0 DUP2 SWAP1 POP SWAP2 SWAP1 POP JUMP JUMPDEST PUSH0 PUSH2 0xF7F PUSH2 0xF7A PUSH2 0xF75 DUP5 PUSH2 0xE60 JUMP JUMPDEST PUSH2 0xF5C JUMP JUMPDEST PUSH2 0xE60 JUMP JUMPDEST SWAP1 POP SWAP2 SWAP1 POP JUMP JUMPDEST PUSH0 PUSH2 0xF90 DUP3 PUSH2 0xF65 JUMP JUMPDEST SWAP1 POP SWAP2 SWAP1 POP JUMP JUMPDEST PUSH0 PUSH2 0xFA1 DUP3 PUSH2 0xF86 JUMP JUMPDEST SWAP1 POP SWAP2 SWAP1 POP JUMP JUMPDEST PUSH2 0xFB1 DUP2 PUSH2 0xF97 JUMP JUMPDEST DUP3 MSTORE POP POP JUMP JUMPDEST PUSH0 PUSH1 0x20 DUP3 ADD SWAP1 POP PUSH2 0xFCA PUSH0 DUP4 ADD DUP5 PUSH2 0xFA8 JUMP JUMPDEST SWAP3 SWAP2 POP POP JUMP JUMPDEST PUSH0 DUP3 DUP3 MSTORE PUSH1 0x20 DUP3 ADD SWAP1 POP SWAP3 SWAP2 POP POP JUMP JUMPDEST PUSH32 0x43616E6E6F7420556E7374616B65207A65726F20746F6B656E73000000000000 PUSH0 DUP3 ADD MSTORE POP JUMP JUMPDEST PUSH0 PUSH2 0x1014 PUSH1 0x1A DUP4 PUSH2 0xFD0 JUMP JUMPDEST SWAP2 POP PUSH2 0x101F DUP3 PUSH2 0xFE0 JUMP JUMPDEST PUSH1 0x20 DUP3 ADD SWAP1 POP SWAP2 SWAP1 POP JUMP JUMPDEST PUSH0 PUSH1 0x20 DUP3 ADD SWAP1 POP DUP2 DUP2 SUB PUSH0 DUP4 ADD MSTORE PUSH2 0x1041 DUP2 PUSH2 0x1008 JUMP JUMPDEST SWAP1 POP SWAP2 SWAP1 POP JUMP JUMPDEST PUSH32 0x496E73756666696369656E74207374616B65642062616C616E63650000000000 PUSH0 DUP3 ADD MSTORE POP JUMP JUMPDEST PUSH0 PUSH2 0x107C PUSH1 0x1B DUP4 PUSH2 0xFD0 JUMP JUMPDEST SWAP2 POP PUSH2 0x1087 DUP3 PUSH2 0x1048 JUMP JUMPDEST PUSH1 0x20 DUP3 ADD SWAP1 POP SWAP2 SWAP1 POP JUMP JUMPDEST PUSH0 PUSH1 0x20 DUP3 ADD SWAP1 POP DUP2 DUP2 SUB PUSH0 DUP4 ADD MSTORE PUSH2 0x10A9 DUP2 PUSH2 0x1070 JUMP JUMPDEST SWAP1 POP SWAP2 SWAP1 POP JUMP JUMPDEST PUSH32 0x556E7374616B6520416C726561647920696E2050726F63657373000000000000 PUSH0 DUP3 ADD MSTORE POP JUMP JUMPDEST PUSH0 PUSH2 0x10E4 PUSH1 0x1A DUP4 PUSH2 0xFD0 JUMP JUMPDEST SWAP2 POP PUSH2 0x10EF DUP3 PUSH2 0x10B0 JUMP JUMPDEST PUSH1 0x20 DUP3 ADD SWAP1 POP SWAP2 SWAP1 POP JUMP JUMPDEST PUSH0 PUSH1 0x20 DUP3 ADD SWAP1 POP DUP2 DUP2 SUB PUSH0 DUP4 ADD MSTORE PUSH2 0x1111 DUP2 PUSH2 0x10D8 JUMP JUMPDEST SWAP1 POP SWAP2 SWAP1 POP JUMP JUMPDEST PUSH32 0x4E487B7100000000000000000000000000000000000000000000000000000000 PUSH0 MSTORE PUSH1 0x11 PUSH1 0x4 MSTORE PUSH1 0x24 PUSH0 REVERT JUMPDEST PUSH0 PUSH2 0x114F DUP3 PUSH2 0xE02 JUMP JUMPDEST SWAP2 POP PUSH2 0x115A DUP4 PUSH2 0xE02 JUMP JUMPDEST SWAP3 POP DUP3 DUP3 ADD SWAP1 POP DUP1 DUP3 GT ISZERO PUSH2 0x1172 JUMPI PUSH2 0x1171 PUSH2 0x1118 JUMP JUMPDEST JUMPDEST SWAP3 SWAP2 POP POP JUMP JUMPDEST PUSH32 0x4E6F20556E7374616B65205265717565737420466F756E640000000000000000 PUSH0 DUP3 ADD MSTORE POP JUMP JUMPDEST PUSH0 PUSH2 0x11AC PUSH1 0x18 DUP4 PUSH2 0xFD0 JUMP JUMPDEST SWAP2 POP PUSH2 0x11B7 DUP3 PUSH2 0x1178 JUMP JUMPDEST PUSH1 0x20 DUP3 ADD SWAP1 POP SWAP2 SWAP1 POP JUMP JUMPDEST PUSH0 PUSH1 0x20 DUP3 ADD SWAP1 POP DUP2 DUP2 SUB PUSH0 DUP4 ADD MSTORE PUSH2 0x11D9 DUP2 PUSH2 0x11A0 JUMP JUMPDEST SWAP1 POP SWAP2 SWAP1 POP JUMP JUMPDEST PUSH32 0x556E7374616B6520706572696F64206E6F74206F766572000000000000000000 PUSH0 DUP3 ADD MSTORE POP JUMP JUMPDEST PUSH0 PUSH2 0x1214 PUSH1 0x17 DUP4 PUSH2 0xFD0 JUMP JUMPDEST SWAP2 POP PUSH2 0x121F DUP3 PUSH2 0x11E0 JUMP JUMPDEST PUSH1 0x20 DUP3 ADD SWAP1 POP SWAP2 SWAP1 POP JUMP JUMPDEST PUSH0 PUSH1 0x20 DUP3 ADD SWAP1 POP DUP2 DUP2 SUB PUSH0 DUP4 ADD MSTORE PUSH2 0x1241 DUP2 PUSH2 0x1208 JUMP JUMPDEST SWAP1 POP SWAP2 SWAP1 POP JUMP JUMPDEST PUSH0 PUSH1 0x40 DUP3 ADD SWAP1 POP PUSH2 0x125B PUSH0 DUP4 ADD DUP6 PUSH2 0xF34 JUMP JUMPDEST PUSH2 0x1268 PUSH1 0x20 DUP4 ADD DUP5 PUSH2 0xEE5 JUMP JUMPDEST SWAP4 SWAP3 POP POP POP JUMP JUMPDEST PUSH0 DUP2 ISZERO ISZERO SWAP1 POP SWAP2 SWAP1 POP JUMP JUMPDEST PUSH2 0x1283 DUP2 PUSH2 0x126F JUMP JUMPDEST DUP2 EQ PUSH2 0x128D JUMPI PUSH0 DUP1 REVERT JUMPDEST POP JUMP JUMPDEST PUSH0 DUP2 MLOAD SWAP1 POP PUSH2 0x129E DUP2 PUSH2 0x127A JUMP JUMPDEST SWAP3 SWAP2 POP POP JUMP JUMPDEST PUSH0 PUSH1 0x20 DUP3 DUP5 SUB SLT ISZERO PUSH2 0x12B9 JUMPI PUSH2 0x12B8 PUSH2 0xDFE JUMP JUMPDEST JUMPDEST PUSH0 PUSH2 0x12C6 DUP5 DUP3 DUP6 ADD PUSH2 0x1290 JUMP JUMPDEST SWAP2 POP POP SWAP3 SWAP2 POP POP JUMP JUMPDEST PUSH32 0x546F6B656E205472616E73666572204661696C656420647572696E6720556E53 PUSH0 DUP3 ADD MSTORE PUSH32 0x74616B696E672050726F63657373000000000000000000000000000000000000 PUSH1 0x20 DUP3 ADD MSTORE POP JUMP JUMPDEST PUSH0 PUSH2 0x1329 PUSH1 0x2E DUP4 PUSH2 0xFD0 JUMP JUMPDEST SWAP2 POP PUSH2 0x1334 DUP3 PUSH2 0x12CF JUMP JUMPDEST PUSH1 0x40 DUP3 ADD SWAP1 POP SWAP2 SWAP1 POP JUMP JUMPDEST PUSH0 PUSH1 0x20 DUP3 ADD SWAP1 POP DUP2 DUP2 SUB PUSH0 DUP4 ADD MSTORE PUSH2 0x1356 DUP2 PUSH2 0x131D JUMP JUMPDEST SWAP1 POP SWAP2 SWAP1 POP JUMP JUMPDEST PUSH32 0x43616E6E6F74207374616B65207A65726F20546F6B656E730000000000000000 PUSH0 DUP3 ADD MSTORE POP JUMP JUMPDEST PUSH0 PUSH2 0x1391 PUSH1 0x18 DUP4 PUSH2 0xFD0 JUMP JUMPDEST SWAP2 POP PUSH2 0x139C DUP3 PUSH2 0x135D JUMP JUMPDEST PUSH1 0x20 DUP3 ADD SWAP1 POP SWAP2 SWAP1 POP JUMP JUMPDEST PUSH0 PUSH1 0x20 DUP3 ADD SWAP1 POP DUP2 DUP2 SUB PUSH0 DUP4 ADD MSTORE PUSH2 0x13BE DUP2 PUSH2 0x1385 JUMP JUMPDEST SWAP1 POP SWAP2 SWAP1 POP JUMP JUMPDEST PUSH0 DUP2 MLOAD SWAP1 POP PUSH2 0x13D3 DUP2 PUSH2 0xE0B JUMP JUMPDEST SWAP3 SWAP2 POP POP JUMP JUMPDEST PUSH0 PUSH1 0x20 DUP3 DUP5 SUB SLT ISZERO PUSH2 0x13EE JUMPI PUSH2 0x13ED PUSH2 0xDFE JUMP JUMPDEST JUMPDEST PUSH0 PUSH2 0x13FB DUP5 DUP3 DUP6 ADD PUSH2 0x13C5 JUMP JUMPDEST SWAP2 POP POP SWAP3 SWAP2 POP POP JUMP JUMPDEST PUSH32 0x496E73756666696369656E742042616C616E6365000000000000000000000000 PUSH0 DUP3 ADD MSTORE POP JUMP JUMPDEST PUSH0 PUSH2 0x1438 PUSH1 0x14 DUP4 PUSH2 0xFD0 JUMP JUMPDEST SWAP2 POP PUSH2 0x1443 DUP3 PUSH2 0x1404 JUMP JUMPDEST PUSH1 0x20 DUP3 ADD SWAP1 POP SWAP2 SWAP1 POP JUMP JUMPDEST PUSH0 PUSH1 0x20 DUP3 ADD SWAP1 POP DUP2 DUP2 SUB PUSH0 DUP4 ADD MSTORE PUSH2 0x1465 DUP2 PUSH2 0x142C JUMP JUMPDEST SWAP1 POP SWAP2 SWAP1 POP JUMP JUMPDEST PUSH0 PUSH1 0x60 DUP3 ADD SWAP1 POP PUSH2 0x147F PUSH0 DUP4 ADD DUP7 PUSH2 0xF34 JUMP JUMPDEST PUSH2 0x148C PUSH1 0x20 DUP4 ADD DUP6 PUSH2 0xF34 JUMP JUMPDEST PUSH2 0x1499 PUSH1 0x40 DUP4 ADD DUP5 PUSH2 0xEE5 JUMP JUMPDEST SWAP5 SWAP4 POP POP POP POP JUMP JUMPDEST PUSH32 0x5472616E73666572204661696C65640000000000000000000000000000000000 PUSH0 DUP3 ADD MSTORE POP JUMP JUMPDEST PUSH0 PUSH2 0x14D5 PUSH1 0xF DUP4 PUSH2 0xFD0 JUMP JUMPDEST SWAP2 POP PUSH2 0x14E0 DUP3 PUSH2 0x14A1 JUMP JUMPDEST PUSH1 0x20 DUP3 ADD SWAP1 POP SWAP2 SWAP1 POP JUMP JUMPDEST PUSH0 PUSH1 0x20 DUP3 ADD SWAP1 POP DUP2 DUP2 SUB PUSH0 DUP4 ADD MSTORE PUSH2 0x1502 DUP2 PUSH2 0x14C9 JUMP JUMPDEST SWAP1 POP SWAP2 SWAP1 POP JUMP JUMPDEST PUSH32 0x5265656E7472616E637947756172643A207265656E7472616E742063616C6C00 PUSH0 DUP3 ADD MSTORE POP JUMP JUMPDEST PUSH0 PUSH2 0x153D PUSH1 0x1F DUP4 PUSH2 0xFD0 JUMP JUMPDEST SWAP2 POP PUSH2 0x1548 DUP3 PUSH2 0x1509 JUMP JUMPDEST PUSH1 0x20 DUP3 ADD SWAP1 POP SWAP2 SWAP1 POP JUMP JUMPDEST PUSH0 PUSH1 0x20 DUP3 ADD SWAP1 POP DUP2 DUP2 SUB PUSH0 DUP4 ADD MSTORE PUSH2 0x156A DUP2 PUSH2 0x1531 JUMP JUMPDEST SWAP1 POP SWAP2 SWAP1 POP JUMP JUMPDEST PUSH0 PUSH2 0x157B DUP3 PUSH2 0xE02 JUMP JUMPDEST SWAP2 POP PUSH2 0x1586 DUP4 PUSH2 0xE02 JUMP JUMPDEST SWAP3 POP DUP3 DUP3 SUB SWAP1 POP DUP2 DUP2 GT ISZERO PUSH2 0x159E JUMPI PUSH2 0x159D PUSH2 0x1118 JUMP JUMPDEST JUMPDEST SWAP3 SWAP2 POP POP JUMP INVALID LOG2 PUSH5 0x6970667358 0x22 SLT KECCAK256 STATICCALL PUSH17 0x70370293574D30DFD8E05EFD63BD8F2B25 MULMOD 0xD3 0xC1 LOG0 MULMOD NOT CALL EQ 0x4E SELFDESTRUCT 0x2C 0xE8 0x1F PUSH5 0x736F6C6343 STOP ADDMOD BYTE STOP CALLER "
				},
				"gasEstimates": {
					"creation": {
						"codeDepositCost": "1118800",
						"executionCost": "infinite",
						"totalCost": "infinite"
					},
					"external": {
						"UNSTAKE_PERIOD()": "436",
						"getUnstakedRequest(address)": "infinite",
						"getVotingPower(address)": "2873",
						"governanceToken()": "infinite",
						"initiateUnstaking(uint256)": "infinite",
						"owner()": "2560",
						"renounceOwnership()": "infinite",
						"stake(uint256)": "infinite",
						"stakedBalance(address)": "2869",
						"totalStaked()": "2448",
						"transferOwnership(address)": "infinite",
						"unstakingRequest(address)": "infinite",
						"withdraw()": "infinite"
					}
				},
				"methodIdentifiers": {
					"UNSTAKE_PERIOD()": "79b57862",
					"getUnstakedRequest(address)": "3b64916e",
					"getVotingPower(address)": "bb4d4436",
					"governanceToken()": "f96dae0a",
					"initiateUnstaking(uint256)": "18fb4f32",
					"owner()": "8da5cb5b",
					"renounceOwnership()": "715018a6",
					"stake(uint256)": "a694fc3a",
					"stakedBalance(address)": "60217267",
					"totalStaked()": "817b1cd2",
					"transferOwnership(address)": "f2fde38b",
					"unstakingRequest(address)": "a0873111",
					"withdraw()": "3ccfd60b"
				}
			},
			"storageLayout": {
				"storage": [
					{
						"astId": 8,
						"contract": "contracts/StakingContract.sol:StakingContract",
						"label": "_owner",
						"offset": 0,
						"slot": "0",
						"type": "t_address"
					},
					{
						"astId": 158,
						"contract": "contracts/StakingContract.sol:StakingContract",
						"label": "_status",
						"offset": 0,
						"slot": "1",
						"type": "t_uint256"
					},
					{
						"astId": 652,
						"contract": "contracts/StakingContract.sol:StakingContract",
						"label": "stakedBalance",
						"offset": 0,
						"slot": "2",
						"type": "t_mapping(t_address,t_uint256)"
					},
					{
						"astId": 654,
						"contract": "contracts/StakingContract.sol:StakingContract",
						"label": "totalStaked",
						"offset": 0,
						"slot": "3",
						"type": "t_uint256"
					},
					{
						"astId": 664,
						"contract": "contracts/StakingContract.sol:StakingContract",
						"label": "unstakingRequest",
						"offset": 0,
						"slot": "4",
						"type": "t_mapping(t_address,t_struct(UnstakeInfo)659_storage)"
					}
				],
				"types": {
					"t_address": {
						"encoding": "inplace",
						"label": "address",
						"numberOfBytes": "20"
					},
					"t_mapping(t_address,t_struct(UnstakeInfo)659_storage)": {
						"encoding": "mapping",
						"key": "t_address",
						"label": "mapping(address => struct StakingContract.UnstakeInfo)",
						"numberOfBytes": "32",
						"value": "t_struct(UnstakeInfo)659_storage"
					},
					"t_mapping(t_address,t_uint256)": {
						"encoding": "mapping",
						"key": "t_address",
						"label": "mapping(address => uint256)",
						"numberOfBytes": "32",
						"value": "t_uint256"
					},
					"t_struct(UnstakeInfo)659_storage": {
						"encoding": "inplace",
						"label": "struct StakingContract.UnstakeInfo",
						"members": [
							{
								"astId": 656,
								"contract": "contracts/StakingContract.sol:StakingContract",
								"label": "amount",
								"offset": 0,
								"slot": "0",
								"type": "t_uint256"
							},
							{
								"astId": 658,
								"contract": "contracts/StakingContract.sol:StakingContract",
								"label": "unlockTime",
								"offset": 0,
								"slot": "1",
								"type": "t_uint256"
							}
						],
						"numberOfBytes": "64"
					},
					"t_uint256": {
						"encoding": "inplace",
						"label": "uint256",
						"numberOfBytes": "32"
					}
				}
			},
			"userdoc": {
				"kind": "user",
				"methods": {
					"getUnstakedRequest(address)": {
						"notice": "Gets details of a pending unstake request for an account."
					},
					"getVotingPower(address)": {
						"notice": "Gets the staked balance of an account, which represents voting power."
					},
					"initiateUnstaking(uint256)": {
						"notice": "Initiates the unstaking process for a specified amount."
					},
					"stake(uint256)": {
						"notice": "Stakes a specified amount of GovernanceToken."
					},
					"withdraw()": {
						"notice": "Withdraws tokens after the unstaking period has passed."
					}
				},
				"version": 1
			}
		}
	}
}