{
	"contracts/VotingContract.sol": {
		"VotingContract": {
			"abi": [
				{
					"inputs": [
						{
							"internalType": "address",
							"name": "_stakingContractAddress",
							"type": "address"
						},
						{
							"internalType": "uint256",
							"name": "_initialQuorumBasisPoints",
							"type": "uint256"
						},
						{
							"internalType": "address",
							"name": "_initialOwner",
							"type": "address"
						}
					],
					"stateMutability": "nonpayable",
					"type": "constructor"
				},
				{
					"inputs": [
						{
							"internalType": "address",
							"name": "owner",
							"type": "address"
						}
					],
					"name": "OwnableInvalidOwner",
					"type": "error"
				},
				{
					"inputs": [
						{
							"internalType": "address",
							"name": "account",
							"type": "address"
						}
					],
					"name": "OwnableUnauthorizedAccount",
					"type": "error"
				},
				{
					"anonymous": false,
					"inputs": [
						{
							"indexed": true,
							"internalType": "address",
							"name": "previousOwner",
							"type": "address"
						},
						{
							"indexed": true,
							"internalType": "address",
							"name": "newOwner",
							"type": "address"
						}
					],
					"name": "OwnershipTransferred",
					"type": "event"
				},
				{
					"anonymous": false,
					"inputs": [
						{
							"indexed": true,
							"internalType": "uint256",
							"name": "proposalId",
							"type": "uint256"
						}
					],
					"name": "ProposalCanceled",
					"type": "event"
				},
				{
					"anonymous": false,
					"inputs": [
						{
							"indexed": true,
							"internalType": "uint256",
							"name": "proposalId",
							"type": "uint256"
						},
						{
							"indexed": true,
							"internalType": "address",
							"name": "proposer",
							"type": "address"
						},
						{
							"indexed": false,
							"internalType": "string",
							"name": "description",
							"type": "string"
						},
						{
							"indexed": false,
							"internalType": "uint256",
							"name": "startTime",
							"type": "uint256"
						},
						{
							"indexed": false,
							"internalType": "uint256",
							"name": "endTime",
							"type": "uint256"
						},
						{
							"indexed": false,
							"internalType": "uint256",
							"name": "snapShotTotalStaked",
							"type": "uint256"
						}
					],
					"name": "ProposalCreated",
					"type": "event"
				},
				{
					"anonymous": false,
					"inputs": [
						{
							"indexed": true,
							"internalType": "uint256",
							"name": "proposalId",
							"type": "uint256"
						},
						{
							"indexed": false,
							"internalType": "enum VotingContract.ProposalState",
							"name": "finalState",
							"type": "uint8"
						},
						{
							"indexed": false,
							"internalType": "uint256",
							"name": "forVotes",
							"type": "uint256"
						},
						{
							"indexed": false,
							"internalType": "uint256",
							"name": "againstVotes",
							"type": "uint256"
						},
						{
							"indexed": false,
							"internalType": "uint256",
							"name": "abstainVotes",
							"type": "uint256"
						}
					],
					"name": "ProposalFinished",
					"type": "event"
				},
				{
					"anonymous": false,
					"inputs": [
						{
							"indexed": true,
							"internalType": "uint256",
							"name": "proposalId",
							"type": "uint256"
						},
						{
							"indexed": true,
							"internalType": "address",
							"name": "voter",
							"type": "address"
						},
						{
							"indexed": false,
							"internalType": "enum VotingContract.VoteType",
							"name": "voteType",
							"type": "uint8"
						},
						{
							"indexed": false,
							"internalType": "uint256",
							"name": "votingPower",
							"type": "uint256"
						}
					],
					"name": "Voted",
					"type": "event"
				},
				{
					"inputs": [
						{
							"internalType": "uint256",
							"name": "_proposalId",
							"type": "uint256"
						}
					],
					"name": "cancelProposal",
					"outputs": [],
					"stateMutability": "nonpayable",
					"type": "function"
				},
				{
					"inputs": [
						{
							"internalType": "uint256",
							"name": "_proposalId",
							"type": "uint256"
						},
						{
							"internalType": "enum VotingContract.VoteType",
							"name": "_voteType",
							"type": "uint8"
						}
					],
					"name": "casteVote",
					"outputs": [],
					"stateMutability": "nonpayable",
					"type": "function"
				},
				{
					"inputs": [
						{
							"internalType": "string",
							"name": "_description",
							"type": "string"
						}
					],
					"name": "createProposal",
					"outputs": [
						{
							"internalType": "uint256",
							"name": "",
							"type": "uint256"
						}
					],
					"stateMutability": "nonpayable",
					"type": "function"
				},
				{
					"inputs": [
						{
							"internalType": "uint256",
							"name": "_proposalId",
							"type": "uint256"
						}
					],
					"name": "finishProposal",
					"outputs": [],
					"stateMutability": "nonpayable",
					"type": "function"
				},
				{
					"inputs": [
						{
							"internalType": "uint256",
							"name": "_proposalId",
							"type": "uint256"
						}
					],
					"name": "getProposal",
					"outputs": [
						{
							"internalType": "uint256",
							"name": "id",
							"type": "uint256"
						},
						{
							"internalType": "address",
							"name": "proposer",
							"type": "address"
						},
						{
							"internalType": "string",
							"name": "description",
							"type": "string"
						},
						{
							"internalType": "uint256",
							"name": "startTime",
							"type": "uint256"
						},
						{
							"internalType": "uint256",
							"name": "endTime",
							"type": "uint256"
						},
						{
							"internalType": "uint256",
							"name": "forVotes",
							"type": "uint256"
						},
						{
							"internalType": "uint256",
							"name": "againstVotes",
							"type": "uint256"
						},
						{
							"internalType": "uint256",
							"name": "abstainVotes",
							"type": "uint256"
						},
						{
							"internalType": "uint256",
							"name": "totalVotesParticipated",
							"type": "uint256"
						},
						{
							"internalType": "uint256",
							"name": "snapshotTotalStaked",
							"type": "uint256"
						},
						{
							"internalType": "bool",
							"name": "canceled",
							"type": "bool"
						},
						{
							"internalType": "enum VotingContract.ProposalState",
							"name": "state",
							"type": "uint8"
						}
					],
					"stateMutability": "view",
					"type": "function"
				},
				{
					"inputs": [
						{
							"internalType": "uint256",
							"name": "_proposalId",
							"type": "uint256"
						},
						{
							"internalType": "address",
							"name": "_voter",
							"type": "address"
						}
					],
					"name": "getVote",
					"outputs": [
						{
							"internalType": "bool",
							"name": "hasVoted",
							"type": "bool"
						},
						{
							"internalType": "enum VotingContract.VoteType",
							"name": "voteChoice",
							"type": "uint8"
						}
					],
					"stateMutability": "view",
					"type": "function"
				},
				{
					"inputs": [],
					"name": "owner",
					"outputs": [
						{
							"internalType": "address",
							"name": "",
							"type": "address"
						}
					],
					"stateMutability": "view",
					"type": "function"
				},
				{
					"inputs": [],
					"name": "proposalCounter",
					"outputs": [
						{
							"internalType": "uint256",
							"name": "",
							"type": "uint256"
						}
					],
					"stateMutability": "view",
					"type": "function"
				},
				{
					"inputs": [
						{
							"internalType": "uint256",
							"name": "",
							"type": "uint256"
						}
					],
					"name": "proposals",
					"outputs": [
						{
							"internalType": "uint256",
							"name": "id",
							"type": "uint256"
						},
						{
							"internalType": "address",
							"name": "proposer",
							"type": "address"
						},
						{
							"internalType": "string",
							"name": "description",
							"type": "string"
						},
						{
							"internalType": "uint256",
							"name": "creationTime",
							"type": "uint256"
						},
						{
							"internalType": "uint256",
							"name": "startTime",
							"type": "uint256"
						},
						{
							"internalType": "uint256",
							"name": "endTime",
							"type": "uint256"
						},
						{
							"internalType": "uint256",
							"name": "forVotes",
							"type": "uint256"
						},
						{
							"internalType": "uint256",
							"name": "againstVotes",
							"type": "uint256"
						},
						{
							"internalType": "uint256",
							"name": "abstainVotes",
							"type": "uint256"
						},
						{
							"internalType": "uint256",
							"name": "totalVotesParticipated",
							"type": "uint256"
						},
						{
							"internalType": "uint256",
							"name": "snapshotTotalStaked",
							"type": "uint256"
						},
						{
							"internalType": "bool",
							"name": "canceled",
							"type": "bool"
						},
						{
							"internalType": "enum VotingContract.ProposalState",
							"name": "state",
							"type": "uint8"
						}
					],
					"stateMutability": "view",
					"type": "function"
				},
				{
					"inputs": [],
					"name": "quorumBasisPoints",
					"outputs": [
						{
							"internalType": "uint256",
							"name": "",
							"type": "uint256"
						}
					],
					"stateMutability": "view",
					"type": "function"
				},
				{
					"inputs": [],
					"name": "renounceOwnership",
					"outputs": [],
					"stateMutability": "nonpayable",
					"type": "function"
				},
				{
					"inputs": [
						{
							"internalType": "uint256",
							"name": "_newQuorumBasisPoints",
							"type": "uint256"
						}
					],
					"name": "setQuorum",
					"outputs": [],
					"stateMutability": "nonpayable",
					"type": "function"
				},
				{
					"inputs": [
						{
							"internalType": "uint256",
							"name": "_newVotingPeriod",
							"type": "uint256"
						}
					],
					"name": "setVotingPeriod",
					"outputs": [],
					"stateMutability": "nonpayable",
					"type": "function"
				},
				{
					"inputs": [],
					"name": "stakingContract",
					"outputs": [
						{
							"internalType": "contract IStakingContract",
							"name": "",
							"type": "address"
						}
					],
					"stateMutability": "view",
					"type": "function"
				},
				{
					"inputs": [
						{
							"internalType": "address",
							"name": "newOwner",
							"type": "address"
						}
					],
					"name": "transferOwnership",
					"outputs": [],
					"stateMutability": "nonpayable",
					"type": "function"
				},
				{
					"inputs": [],
					"name": "votingPeriod",
					"outputs": [
						{
							"internalType": "uint256",
							"name": "",
							"type": "uint256"
						}
					],
					"stateMutability": "view",
					"type": "function"
				}
			],
			"devdoc": {
				"details": "Manages DAO Proposals and votes",
				"errors": {
					"OwnableInvalidOwner(address)": [
						{
							"details": "The owner is not a valid owner account. (eg. `address(0)`)"
						}
					],
					"OwnableUnauthorizedAccount(address)": [
						{
							"details": "The caller account is not authorized to perform an operation."
						}
					]
				},
				"kind": "dev",
				"methods": {
					"cancelProposal(uint256)": {
						"params": {
							"_proposalId": "The ID of the proposal to cancel."
						}
					},
					"casteVote(uint256,uint8)": {
						"params": {
							"_proposalId": "the proposal Id",
							"_voteType": "vote for, against or abstrain"
						}
					},
					"constructor": {
						"params": {
							"_initialOwner": "Owner of this contract.",
							"_initialQuorumBasisPoints": "Quorum requirement",
							"_stakingContractAddress": "Address of the deployed StakingContract."
						}
					},
					"createProposal(string)": {
						"params": {
							"_description": "Text describing the proposal."
						}
					},
					"finishProposal(uint256)": {
						"params": {
							"_proposalId": "the proposal id"
						}
					},
					"getProposal(uint256)": {
						"params": {
							"_proposalId": "proposal id to fetch"
						}
					},
					"owner()": {
						"details": "Returns the address of the current owner."
					},
					"renounceOwnership()": {
						"details": "Leaves the contract without owner. It will not be possible to call `onlyOwner` functions. Can only be called by the current owner. NOTE: Renouncing ownership will leave the contract without an owner, thereby disabling any functionality that is only available to the owner."
					},
					"transferOwnership(address)": {
						"details": "Transfers ownership of the contract to a new account (`newOwner`). Can only be called by the current owner."
					}
				},
				"title": "VotingContract",
				"version": 1
			},
			"evm": {
				"assembly": "    /* \"contracts/VotingContract.sol\":275:9257  contract VotingContract is Ownable {... */\n  mstore(0x40, 0xa0)\n    /* \"contracts/VotingContract.sol\":1235:1241  5 days */\n  0x069780\n    /* \"contracts/VotingContract.sol\":1205:1241  uint256 public votingPeriod = 5 days */\n  0x03\n  sstore\n    /* \"contracts/VotingContract.sol\":2195:2693  constructor(... */\n  callvalue\n  dup1\n  iszero\n  tag_1\n  jumpi\n  0x00\n  dup1\n  revert\ntag_1:\n  pop\n  mload(0x40)\n  sub(codesize, bytecodeSize)\n  dup1\n  bytecodeSize\n  dup4\n  codecopy\n  dup2\n  add\n  0x40\n  dup2\n  swap1\n  mstore\n  tag_2\n  swap2\n  tag_3\n  jump\t// in\ntag_2:\n    /* \"contracts/VotingContract.sol\":2340:2353  _initialOwner */\n  dup1\n  sub(shl(0xa0, 0x01), 0x01)\n    /* \"@openzeppelin/contracts/access/Ownable.sol\":1273:1299  initialOwner == address(0) */\n  dup2\n  and\n    /* \"@openzeppelin/contracts/access/Ownable.sol\":1269:1364  if (initialOwner == address(0)) {... */\n  tag_7\n  jumpi\n    /* \"@openzeppelin/contracts/access/Ownable.sol\":1322:1353  OwnableInvalidOwner(address(0)) */\n  mload(0x40)\n  shl(0xe0, 0x1e4fbdf7)\n  dup2\n  mstore\n    /* \"@openzeppelin/contracts/access/Ownable.sol\":1350:1351  0 */\n  0x00\n    /* \"@openzeppelin/contracts/access/Ownable.sol\":1322:1353  OwnableInvalidOwner(address(0)) */\n  0x04\n  dup3\n  add\n    /* \"#utility.yul\":701:752   */\n  mstore\n    /* \"#utility.yul\":674:692   */\n  0x24\n  add\n    /* \"@openzeppelin/contracts/access/Ownable.sol\":1322:1353  OwnableInvalidOwner(address(0)) */\ntag_8:\n  mload(0x40)\n  dup1\n  swap2\n  sub\n  swap1\n  revert\n    /* \"@openzeppelin/contracts/access/Ownable.sol\":1269:1364  if (initialOwner == address(0)) {... */\ntag_7:\n    /* \"@openzeppelin/contracts/access/Ownable.sol\":1373:1405  _transferOwnership(initialOwner) */\n  tag_10\n    /* \"@openzeppelin/contracts/access/Ownable.sol\":1392:1404  initialOwner */\n  dup2\n    /* \"@openzeppelin/contracts/access/Ownable.sol\":1373:1391  _transferOwnership */\n  tag_11\n    /* \"@openzeppelin/contracts/access/Ownable.sol\":1373:1405  _transferOwnership(initialOwner) */\n  jump\t// in\ntag_10:\n  pop\n  sub(shl(0xa0, 0x01), 0x01)\n    /* \"contracts/VotingContract.sol\":2386:2423  _stakingContractAddress != address(0) */\n  dup4\n  and\n    /* \"contracts/VotingContract.sol\":2378:2467  require(_stakingContractAddress != address(0), \"Staking contract address cannot be zero\") */\n  tag_13\n  jumpi\n  mload(0x40)\n  shl(0xe5, 0x461bcd)\n  dup2\n  mstore\n    /* \"#utility.yul\":965:967   */\n  0x20\n    /* \"contracts/VotingContract.sol\":2378:2467  require(_stakingContractAddress != address(0), \"Staking contract address cannot be zero\") */\n  0x04\n  dup3\n  add\n    /* \"#utility.yul\":947:968   */\n  mstore\n    /* \"#utility.yul\":1004:1006   */\n  0x27\n    /* \"#utility.yul\":984:1002   */\n  0x24\n  dup3\n  add\n    /* \"#utility.yul\":977:1007   */\n  mstore\n    /* \"#utility.yul\":1043:1077   */\n  0x5374616b696e6720636f6e747261637420616464726573732063616e6e6f7420\n    /* \"#utility.yul\":1023:1041   */\n  0x44\n  dup3\n  add\n    /* \"#utility.yul\":1016:1078   */\n  mstore\n  shl(0xc8, 0x6265207a65726f)\n    /* \"#utility.yul\":1094:1112   */\n  0x64\n  dup3\n  add\n    /* \"#utility.yul\":1087:1124   */\n  mstore\n    /* \"#utility.yul\":1141:1160   */\n  0x84\n  add\n    /* \"contracts/VotingContract.sol\":2378:2467  require(_stakingContractAddress != address(0), \"Staking contract address cannot be zero\") */\n  tag_8\n    /* \"#utility.yul\":763:1166   */\n  jump\n    /* \"contracts/VotingContract.sol\":2378:2467  require(_stakingContractAddress != address(0), \"Staking contract address cannot be zero\") */\ntag_13:\n    /* \"contracts/VotingContract.sol\":2518:2523  10000 */\n  0x2710\n    /* \"contracts/VotingContract.sol\":2489:2514  _initialQuorumBasisPoints */\n  dup3\n    /* \"contracts/VotingContract.sol\":2489:2523  _initialQuorumBasisPoints <= 10000 */\n  gt\n  iszero\n    /* \"contracts/VotingContract.sol\":2481:2553  require(_initialQuorumBasisPoints <= 10000, \"Quorum cannot exceed 100%\") */\n  tag_16\n  jumpi\n  mload(0x40)\n  shl(0xe5, 0x461bcd)\n  dup2\n  mstore\n    /* \"#utility.yul\":1373:1375   */\n  0x20\n    /* \"contracts/VotingContract.sol\":2481:2553  require(_initialQuorumBasisPoints <= 10000, \"Quorum cannot exceed 100%\") */\n  0x04\n  dup3\n  add\n    /* \"#utility.yul\":1355:1376   */\n  mstore\n    /* \"#utility.yul\":1412:1414   */\n  0x19\n    /* \"#utility.yul\":1392:1410   */\n  0x24\n  dup3\n  add\n    /* \"#utility.yul\":1385:1415   */\n  mstore\n    /* \"#utility.yul\":1451:1478   */\n  0x51756f72756d2063616e6e6f7420657863656564203130302500000000000000\n    /* \"#utility.yul\":1431:1449   */\n  0x44\n  dup3\n  add\n    /* \"#utility.yul\":1424:1479   */\n  mstore\n    /* \"#utility.yul\":1496:1514   */\n  0x64\n  add\n    /* \"contracts/VotingContract.sol\":2481:2553  require(_initialQuorumBasisPoints <= 10000, \"Quorum cannot exceed 100%\") */\n  tag_8\n    /* \"#utility.yul\":1171:1520   */\n  jump\n    /* \"contracts/VotingContract.sol\":2481:2553  require(_initialQuorumBasisPoints <= 10000, \"Quorum cannot exceed 100%\") */\ntag_16:\n  pop\n  sub(shl(0xa0, 0x01), 0x01)\n    /* \"contracts/VotingContract.sol\":2568:2627  stakingContract = IStakingContract(_stakingContractAddress) */\n  swap1\n  swap2\n  and\n  0x80\n  mstore\n    /* \"contracts/VotingContract.sol\":2641:2658  quorumBasisPoints */\n  0x04\n    /* \"contracts/VotingContract.sol\":2641:2686  quorumBasisPoints = _initialQuorumBasisPoints */\n  sstore\n    /* \"contracts/VotingContract.sol\":275:9257  contract VotingContract is Ownable {... */\n  jump(tag_22)\n    /* \"@openzeppelin/contracts/access/Ownable.sol\":2912:3099  function _transferOwnership(address newOwner) internal virtual {... */\ntag_11:\n    /* \"@openzeppelin/contracts/access/Ownable.sol\":2985:3001  address oldOwner */\n  0x00\n    /* \"@openzeppelin/contracts/access/Ownable.sol\":3004:3010  _owner */\n  dup1\n  sload\n  sub(shl(0xa0, 0x01), 0x01)\n    /* \"@openzeppelin/contracts/access/Ownable.sol\":3020:3037  _owner = newOwner */\n  dup4\n  dup2\n  and\n  not(sub(shl(0xa0, 0x01), 0x01))\n  dup4\n  and\n  dup2\n  or\n  dup5\n  sstore\n    /* \"@openzeppelin/contracts/access/Ownable.sol\":3052:3092  OwnershipTransferred(oldOwner, newOwner) */\n  mload(0x40)\n    /* \"@openzeppelin/contracts/access/Ownable.sol\":3004:3010  _owner */\n  swap2\n  swap1\n  swap3\n  and\n  swap3\n  dup4\n  swap2\n    /* \"@openzeppelin/contracts/access/Ownable.sol\":3052:3092  OwnershipTransferred(oldOwner, newOwner) */\n  0x8be0079c531659141344cd1fd0a4f28419497f9722a3daafe3b4186f6b6457e0\n  swap2\n    /* \"@openzeppelin/contracts/access/Ownable.sol\":2985:3001  address oldOwner */\n  swap1\n    /* \"@openzeppelin/contracts/access/Ownable.sol\":3052:3092  OwnershipTransferred(oldOwner, newOwner) */\n  log3\n    /* \"@openzeppelin/contracts/access/Ownable.sol\":2975:3099  {... */\n  pop\n    /* \"@openzeppelin/contracts/access/Ownable.sol\":2912:3099  function _transferOwnership(address newOwner) internal virtual {... */\n  pop\n  jump\t// out\n    /* \"#utility.yul\":14:191   */\ntag_21:\n    /* \"#utility.yul\":93:106   */\n  dup1\n  mload\n  sub(shl(0xa0, 0x01), 0x01)\n    /* \"#utility.yul\":135:166   */\n  dup2\n  and\n    /* \"#utility.yul\":125:167   */\n  dup2\n  eq\n    /* \"#utility.yul\":115:185   */\n  tag_24\n  jumpi\n    /* \"#utility.yul\":181:182   */\n  0x00\n    /* \"#utility.yul\":178:179   */\n  dup1\n    /* \"#utility.yul\":171:183   */\n  revert\n    /* \"#utility.yul\":115:185   */\ntag_24:\n    /* \"#utility.yul\":14:191   */\n  swap2\n  swap1\n  pop\n  jump\t// out\n    /* \"#utility.yul\":196:550   */\ntag_3:\n    /* \"#utility.yul\":284:290   */\n  0x00\n    /* \"#utility.yul\":292:298   */\n  dup1\n    /* \"#utility.yul\":300:306   */\n  0x00\n    /* \"#utility.yul\":353:355   */\n  0x60\n    /* \"#utility.yul\":341:350   */\n  dup5\n    /* \"#utility.yul\":332:339   */\n  dup7\n    /* \"#utility.yul\":328:351   */\n  sub\n    /* \"#utility.yul\":324:356   */\n  slt\n    /* \"#utility.yul\":321:373   */\n  iszero\n  tag_26\n  jumpi\n    /* \"#utility.yul\":369:370   */\n  0x00\n    /* \"#utility.yul\":366:367   */\n  dup1\n    /* \"#utility.yul\":359:371   */\n  revert\n    /* \"#utility.yul\":321:373   */\ntag_26:\n    /* \"#utility.yul\":392:432   */\n  tag_27\n    /* \"#utility.yul\":422:431   */\n  dup5\n    /* \"#utility.yul\":392:432   */\n  tag_21\n  jump\t// in\ntag_27:\n    /* \"#utility.yul\":382:432   */\n  swap3\n  pop\n    /* \"#utility.yul\":472:474   */\n  0x20\n    /* \"#utility.yul\":461:470   */\n  dup5\n    /* \"#utility.yul\":457:475   */\n  add\n    /* \"#utility.yul\":451:476   */\n  mload\n    /* \"#utility.yul\":441:476   */\n  swap2\n  pop\n    /* \"#utility.yul\":495:544   */\n  tag_28\n    /* \"#utility.yul\":540:542   */\n  0x40\n    /* \"#utility.yul\":529:538   */\n  dup6\n    /* \"#utility.yul\":525:543   */\n  add\n    /* \"#utility.yul\":495:544   */\n  tag_21\n  jump\t// in\ntag_28:\n    /* \"#utility.yul\":485:544   */\n  swap1\n  pop\n    /* \"#utility.yul\":196:550   */\n  swap3\n  pop\n  swap3\n  pop\n  swap3\n  jump\t// out\n    /* \"#utility.yul\":1171:1520   */\ntag_22:\n    /* \"contracts/VotingContract.sol\":275:9257  contract VotingContract is Ownable {... */\n  mload(0x80)\n  codecopy(0x00, dataOffset(sub_0), dataSize(sub_0))\n  0x00\n  assignImmutable(\"0xc40f7608bb89a6dc7aa17f3e1230f56b2e6b59319af129191c75cf59e69bfe22\")\n  return(0x00, dataSize(sub_0))\nstop\n\nsub_0: assembly {\n        /* \"contracts/VotingContract.sol\":275:9257  contract VotingContract is Ownable {... */\n      mstore(0x40, 0x80)\n      callvalue\n      dup1\n      iszero\n      tag_1\n      jumpi\n      0x00\n      dup1\n      revert\n    tag_1:\n      pop\n      jumpi(tag_2, lt(calldatasize, 0x04))\n      shr(0xe0, calldataload(0x00))\n      dup1\n      0xbc3f931f\n      gt\n      tag_19\n      jumpi\n      dup1\n      0xe0a8f6f5\n      gt\n      tag_20\n      jumpi\n      dup1\n      0xe0a8f6f5\n      eq\n      tag_15\n      jumpi\n      dup1\n      0xea0217cf\n      eq\n      tag_16\n      jumpi\n      dup1\n      0xee99205c\n      eq\n      tag_17\n      jumpi\n      dup1\n      0xf2fde38b\n      eq\n      tag_18\n      jumpi\n      0x00\n      dup1\n      revert\n    tag_20:\n      dup1\n      0xbc3f931f\n      eq\n      tag_11\n      jumpi\n      dup1\n      0xc1ba4e59\n      eq\n      tag_12\n      jumpi\n      dup1\n      0xc29a6b46\n      eq\n      tag_13\n      jumpi\n      dup1\n      0xc7f758a8\n      eq\n      tag_14\n      jumpi\n      0x00\n      dup1\n      revert\n    tag_19:\n      dup1\n      0x27393278\n      gt\n      tag_21\n      jumpi\n      dup1\n      0x27393278\n      eq\n      tag_7\n      jumpi\n      dup1\n      0x49c2a1a6\n      eq\n      tag_8\n      jumpi\n      dup1\n      0x715018a6\n      eq\n      tag_9\n      jumpi\n      dup1\n      0x8da5cb5b\n      eq\n      tag_10\n      jumpi\n      0x00\n      dup1\n      revert\n    tag_21:\n      dup1\n      0x013cf08b\n      eq\n      tag_3\n      jumpi\n      dup1\n      0x02a251a3\n      eq\n      tag_4\n      jumpi\n      dup1\n      0x079e2d2a\n      eq\n      tag_5\n      jumpi\n      dup1\n      0x0c0512e9\n      eq\n      tag_6\n      jumpi\n    tag_2:\n      0x00\n      dup1\n      revert\n        /* \"contracts/VotingContract.sol\":1149:1198  mapping(uint256 => ProposalView) public proposals */\n    tag_3:\n      tag_22\n      tag_23\n      calldatasize\n      0x04\n      tag_24\n      jump\t// in\n    tag_23:\n      tag_25\n      jump\t// in\n    tag_22:\n      mload(0x40)\n      tag_26\n      swap14\n      swap13\n      swap12\n      swap11\n      swap10\n      swap9\n      swap8\n      swap7\n      swap6\n      swap5\n      swap4\n      swap3\n      swap2\n      swap1\n      tag_27\n      jump\t// in\n    tag_26:\n      mload(0x40)\n      dup1\n      swap2\n      sub\n      swap1\n      return\n        /* \"contracts/VotingContract.sol\":1205:1241  uint256 public votingPeriod = 5 days */\n    tag_4:\n      tag_28\n      sload(0x03)\n      dup2\n      jump\n    tag_28:\n      mload(0x40)\n        /* \"#utility.yul\":2134:2159   */\n      swap1\n      dup2\n      mstore\n        /* \"#utility.yul\":2122:2124   */\n      0x20\n        /* \"#utility.yul\":2107:2125   */\n      add\n        /* \"contracts/VotingContract.sol\":1205:1241  uint256 public votingPeriod = 5 days */\n      tag_26\n        /* \"#utility.yul\":1988:2165   */\n      jump\n        /* \"contracts/VotingContract.sol\":1280:1312  uint256 public quorumBasisPoints */\n    tag_5:\n      tag_28\n      sload(0x04)\n      dup2\n      jump\n        /* \"contracts/VotingContract.sol\":1113:1143  uint256 public proposalCounter */\n    tag_6:\n      tag_28\n      sload(0x01)\n      dup2\n      jump\n        /* \"contracts/VotingContract.sol\":6075:7304  function finishProposal(uint256 _proposalId) external {... */\n    tag_7:\n      tag_38\n      tag_39\n      calldatasize\n      0x04\n      tag_24\n      jump\t// in\n    tag_39:\n      tag_40\n      jump\t// in\n    tag_38:\n      stop\n        /* \"contracts/VotingContract.sol\":2828:3762  function createProposal(string calldata _description) external onlyOwner returns(uint256) {... */\n    tag_8:\n      tag_28\n      tag_42\n      calldatasize\n      0x04\n      tag_43\n      jump\t// in\n    tag_42:\n      tag_44\n      jump\t// in\n        /* \"@openzeppelin/contracts/access/Ownable.sol\":2293:2394  function renounceOwnership() public virtual onlyOwner {... */\n    tag_9:\n      tag_38\n      tag_47\n      jump\t// in\n        /* \"@openzeppelin/contracts/access/Ownable.sol\":1638:1723  function owner() public view virtual returns (address) {... */\n    tag_10:\n        /* \"@openzeppelin/contracts/access/Ownable.sol\":1684:1691  address */\n      0x00\n        /* \"@openzeppelin/contracts/access/Ownable.sol\":1710:1716  _owner */\n      sload\n      sub(shl(0xa0, 0x01), 0x01)\n      and\n        /* \"@openzeppelin/contracts/access/Ownable.sol\":1638:1723  function owner() public view virtual returns (address) {... */\n    tag_48:\n      mload(0x40)\n      sub(shl(0xa0, 0x01), 0x01)\n        /* \"#utility.yul\":2926:2958   */\n      swap1\n      swap2\n      and\n        /* \"#utility.yul\":2908:2959   */\n      dup2\n      mstore\n        /* \"#utility.yul\":2896:2898   */\n      0x20\n        /* \"#utility.yul\":2881:2899   */\n      add\n        /* \"@openzeppelin/contracts/access/Ownable.sol\":1638:1723  function owner() public view virtual returns (address) {... */\n      tag_26\n        /* \"#utility.yul\":2762:2965   */\n      jump\n        /* \"contracts/VotingContract.sol\":8476:8796  function getVote(uint256 _proposalId, address _voter) external view returns (bool hasVoted, VoteType voteChoice) {... */\n    tag_11:\n      tag_52\n      tag_53\n      calldatasize\n      0x04\n      tag_54\n      jump\t// in\n    tag_53:\n      tag_55\n      jump\t// in\n    tag_52:\n      mload(0x40)\n      tag_26\n      swap3\n      swap2\n      swap1\n      tag_57\n      jump\t// in\n        /* \"contracts/VotingContract.sol\":9048:9253  function setQuorum(uint256 _newQuorumBasisPoints) external onlyOwner {... */\n    tag_12:\n      tag_38\n      tag_59\n      calldatasize\n      0x04\n      tag_24\n      jump\t// in\n    tag_59:\n      tag_60\n      jump\t// in\n        /* \"contracts/VotingContract.sol\":4518:5896  function casteVote(uint256 _proposalId, VoteType _voteType) external {... */\n    tag_13:\n      tag_38\n      tag_62\n      calldatasize\n      0x04\n      tag_63\n      jump\t// in\n    tag_62:\n      tag_64\n      jump\t// in\n        /* \"contracts/VotingContract.sol\":7449:8438  function getProposal(uint256 _proposalId) external view... */\n    tag_14:\n      tag_65\n      tag_66\n      calldatasize\n      0x04\n      tag_24\n      jump\t// in\n    tag_66:\n      tag_67\n      jump\t// in\n    tag_65:\n      mload(0x40)\n      tag_26\n      swap13\n      swap12\n      swap11\n      swap10\n      swap9\n      swap8\n      swap7\n      swap6\n      swap5\n      swap4\n      swap3\n      swap2\n      swap1\n      tag_69\n      jump\t// in\n        /* \"contracts/VotingContract.sol\":3909:4314  function cancelProposal(uint256 _proposalId) external onlyOwner{... */\n    tag_15:\n      tag_38\n      tag_71\n      calldatasize\n      0x04\n      tag_24\n      jump\t// in\n    tag_71:\n      tag_72\n      jump\t// in\n        /* \"contracts/VotingContract.sol\":8851:9042  function setVotingPeriod(uint256 _newVotingPeriod) external onlyOwner {... */\n    tag_16:\n      tag_38\n      tag_74\n      calldatasize\n      0x04\n      tag_24\n      jump\t// in\n    tag_74:\n      tag_75\n      jump\t// in\n        /* \"contracts/VotingContract.sol\":349:398  IStakingContract public immutable stakingContract */\n    tag_17:\n      tag_48\n      immutable(\"0xc40f7608bb89a6dc7aa17f3e1230f56b2e6b59319af129191c75cf59e69bfe22\")\n      dup2\n      jump\n        /* \"@openzeppelin/contracts/access/Ownable.sol\":2543:2758  function transferOwnership(address newOwner) public virtual onlyOwner {... */\n    tag_18:\n      tag_38\n      tag_81\n      calldatasize\n      0x04\n      tag_82\n      jump\t// in\n    tag_81:\n      tag_83\n      jump\t// in\n        /* \"contracts/VotingContract.sol\":1149:1198  mapping(uint256 => ProposalView) public proposals */\n    tag_25:\n      0x02\n      0x20\n      dup2\n      swap1\n      mstore\n      0x00\n      swap2\n      dup3\n      mstore\n      0x40\n      swap1\n      swap2\n      keccak256\n      dup1\n      sload\n      0x01\n      dup3\n      add\n      sload\n      swap3\n      dup3\n      add\n      dup1\n      sload\n      swap2\n      swap4\n      sub(shl(0xa0, 0x01), 0x01)\n      and\n      swap3\n      swap2\n      tag_84\n      swap1\n      tag_85\n      jump\t// in\n    tag_84:\n      dup1\n      0x1f\n      add\n      0x20\n      dup1\n      swap2\n      div\n      mul\n      0x20\n      add\n      mload(0x40)\n      swap1\n      dup2\n      add\n      0x40\n      mstore\n      dup1\n      swap3\n      swap2\n      swap1\n      dup2\n      dup2\n      mstore\n      0x20\n      add\n      dup3\n      dup1\n      sload\n      tag_86\n      swap1\n      tag_85\n      jump\t// in\n    tag_86:\n      dup1\n      iszero\n      tag_87\n      jumpi\n      dup1\n      0x1f\n      lt\n      tag_88\n      jumpi\n      0x0100\n      dup1\n      dup4\n      sload\n      div\n      mul\n      dup4\n      mstore\n      swap2\n      0x20\n      add\n      swap2\n      jump(tag_87)\n    tag_88:\n      dup3\n      add\n      swap2\n      swap1\n      0x00\n      mstore\n      keccak256(0x00, 0x20)\n      swap1\n    tag_89:\n      dup2\n      sload\n      dup2\n      mstore\n      swap1\n      0x01\n      add\n      swap1\n      0x20\n      add\n      dup1\n      dup4\n      gt\n      tag_89\n      jumpi\n      dup3\n      swap1\n      sub\n      0x1f\n      and\n      dup3\n      add\n      swap2\n    tag_87:\n      pop\n      pop\n      pop\n      0x03\n      dup5\n      add\n      sload\n      0x04\n      dup6\n      add\n      sload\n      0x05\n      dup7\n      add\n      sload\n      0x06\n      dup8\n      add\n      sload\n      0x07\n      dup9\n      add\n      sload\n      0x08\n      dup10\n      add\n      sload\n      0x09\n      dup11\n      add\n      sload\n      0x0a\n      dup12\n      add\n      sload\n      0x0b\n      swap1\n      swap12\n      add\n      sload\n      swap10\n      swap11\n      swap7\n      swap10\n      swap6\n      swap9\n      pop\n      swap4\n      swap7\n      pop\n      swap2\n      swap5\n      swap1\n      swap4\n      swap2\n      swap3\n      swap2\n      0xff\n      dup1\n      dup3\n      and\n      swap2\n      0x0100\n      swap1\n      div\n      and\n      dup14\n      jump\t// out\n        /* \"contracts/VotingContract.sol\":6075:7304  function finishProposal(uint256 _proposalId) external {... */\n    tag_40:\n        /* \"contracts/VotingContract.sol\":6139:6168  ProposalView storage proposal */\n      0x00\n        /* \"contracts/VotingContract.sol\":6171:6193  proposals[_proposalId] */\n      dup2\n      dup2\n      mstore\n        /* \"contracts/VotingContract.sol\":6171:6180  proposals */\n      0x02\n        /* \"contracts/VotingContract.sol\":6171:6193  proposals[_proposalId] */\n      0x20\n      mstore\n      0x40\n      dup2\n      keccak256\n        /* \"contracts/VotingContract.sol\":6211:6222  proposal.id */\n      dup1\n      sload\n        /* \"contracts/VotingContract.sol\":6171:6193  proposals[_proposalId] */\n      swap1\n      swap2\n        /* \"contracts/VotingContract.sol\":6211:6227  proposal.id != 0 */\n      sub\n        /* \"contracts/VotingContract.sol\":6203:6255  require(proposal.id != 0, \"Proposal does not exist\") */\n      tag_91\n      jumpi\n      mload(0x40)\n      shl(0xe5, 0x461bcd)\n      dup2\n      mstore\n      0x04\n      add\n      tag_92\n      swap1\n      tag_93\n      jump\t// in\n    tag_92:\n      mload(0x40)\n      dup1\n      swap2\n      sub\n      swap1\n      revert\n    tag_91:\n        /* \"contracts/VotingContract.sol\":6291:6311  ProposalState.Active */\n      0x01\n        /* \"contracts/VotingContract.sol\":6273:6287  proposal.state */\n      0x0b\n      dup3\n      add\n      sload\n      0x0100\n      swap1\n      div\n      0xff\n      and\n        /* \"contracts/VotingContract.sol\":6273:6311  proposal.state == ProposalState.Active */\n      0x04\n      dup2\n      gt\n      iszero\n      tag_98\n      jumpi\n      tag_98\n      tag_96\n      jump\t// in\n    tag_98:\n      eq\n        /* \"contracts/VotingContract.sol\":6265:6358  require(proposal.state == ProposalState.Active, \"Proposal is not active or already finished\") */\n      tag_99\n      jumpi\n      mload(0x40)\n      shl(0xe5, 0x461bcd)\n      dup2\n      mstore\n        /* \"#utility.yul\":6737:6739   */\n      0x20\n        /* \"contracts/VotingContract.sol\":6265:6358  require(proposal.state == ProposalState.Active, \"Proposal is not active or already finished\") */\n      0x04\n      dup3\n      add\n        /* \"#utility.yul\":6719:6740   */\n      mstore\n        /* \"#utility.yul\":6776:6778   */\n      0x2a\n        /* \"#utility.yul\":6756:6774   */\n      0x24\n      dup3\n      add\n        /* \"#utility.yul\":6749:6779   */\n      mstore\n        /* \"#utility.yul\":6815:6849   */\n      0x50726f706f73616c206973206e6f7420616374697665206f7220616c72656164\n        /* \"#utility.yul\":6795:6813   */\n      0x44\n      dup3\n      add\n        /* \"#utility.yul\":6788:6850   */\n      mstore\n      shl(0xb2, 0x1e48199a5b9a5cda1959)\n        /* \"#utility.yul\":6866:6884   */\n      0x64\n      dup3\n      add\n        /* \"#utility.yul\":6859:6899   */\n      mstore\n        /* \"#utility.yul\":6916:6935   */\n      0x84\n      add\n        /* \"contracts/VotingContract.sol\":6265:6358  require(proposal.state == ProposalState.Active, \"Proposal is not active or already finished\") */\n      tag_92\n        /* \"#utility.yul\":6535:6941   */\n      jump\n        /* \"contracts/VotingContract.sol\":6265:6358  require(proposal.state == ProposalState.Active, \"Proposal is not active or already finished\") */\n    tag_99:\n        /* \"contracts/VotingContract.sol\":6395:6403  proposal */\n      dup1\n        /* \"contracts/VotingContract.sol\":6395:6411  proposal.endTime */\n      0x05\n      add\n      sload\n        /* \"contracts/VotingContract.sol\":6376:6391  block.timestamp */\n      timestamp\n        /* \"contracts/VotingContract.sol\":6376:6411  block.timestamp >= proposal.endTime */\n      lt\n      iszero\n        /* \"contracts/VotingContract.sol\":6368:6442  require(block.timestamp >= proposal.endTime, \"Voting period not yet over\") */\n      tag_102\n      jumpi\n      mload(0x40)\n      shl(0xe5, 0x461bcd)\n      dup2\n      mstore\n        /* \"#utility.yul\":7148:7150   */\n      0x20\n        /* \"contracts/VotingContract.sol\":6368:6442  require(block.timestamp >= proposal.endTime, \"Voting period not yet over\") */\n      0x04\n      dup3\n      add\n        /* \"#utility.yul\":7130:7151   */\n      mstore\n        /* \"#utility.yul\":7187:7189   */\n      0x1a\n        /* \"#utility.yul\":7167:7185   */\n      0x24\n      dup3\n      add\n        /* \"#utility.yul\":7160:7190   */\n      mstore\n        /* \"#utility.yul\":7226:7254   */\n      0x566f74696e6720706572696f64206e6f7420796574206f766572000000000000\n        /* \"#utility.yul\":7206:7224   */\n      0x44\n      dup3\n      add\n        /* \"#utility.yul\":7199:7255   */\n      mstore\n        /* \"#utility.yul\":7272:7290   */\n      0x64\n      add\n        /* \"contracts/VotingContract.sol\":6368:6442  require(block.timestamp >= proposal.endTime, \"Voting period not yet over\") */\n      tag_92\n        /* \"#utility.yul\":6946:7296   */\n      jump\n        /* \"contracts/VotingContract.sol\":6368:6442  require(block.timestamp >= proposal.endTime, \"Voting period not yet over\") */\n    tag_102:\n        /* \"contracts/VotingContract.sol\":6493:6521  proposal.snapshotTotalStaked */\n      0x0a\n      dup2\n      add\n      sload\n        /* \"contracts/VotingContract.sol\":6453:6471  bool quorumReached */\n      0x00\n      swap1\n        /* \"contracts/VotingContract.sol\":6493:6525  proposal.snapshotTotalStaked > 0 */\n      iszero\n        /* \"contracts/VotingContract.sol\":6489:6780  if (proposal.snapshotTotalStaked > 0) {... */\n      tag_105\n      jumpi\n        /* \"contracts/VotingContract.sol\":6541:6573  uint256 participationBasisPoints */\n      0x00\n        /* \"contracts/VotingContract.sol\":6576:6652  proposal.totalVotesParticipated.mul(10000).div(proposal.snapshotTotalStaked) */\n      tag_106\n        /* \"contracts/VotingContract.sol\":6623:6631  proposal */\n      dup4\n        /* \"contracts/VotingContract.sol\":6623:6651  proposal.snapshotTotalStaked */\n      0x0a\n      add\n      sload\n        /* \"contracts/VotingContract.sol\":6576:6618  proposal.totalVotesParticipated.mul(10000) */\n      tag_107\n        /* \"contracts/VotingContract.sol\":6612:6617  10000 */\n      0x2710\n        /* \"contracts/VotingContract.sol\":6576:6584  proposal */\n      dup7\n        /* \"contracts/VotingContract.sol\":6576:6607  proposal.totalVotesParticipated */\n      0x09\n      add\n      sload\n        /* \"contracts/VotingContract.sol\":6576:6611  proposal.totalVotesParticipated.mul */\n      tag_108\n      swap1\n        /* \"contracts/VotingContract.sol\":6576:6618  proposal.totalVotesParticipated.mul(10000) */\n      swap2\n      swap1\n      0xffffffff\n      and\n      jump\t// in\n    tag_107:\n        /* \"contracts/VotingContract.sol\":6576:6622  proposal.totalVotesParticipated.mul(10000).div */\n      swap1\n      tag_109\n        /* \"contracts/VotingContract.sol\":6576:6652  proposal.totalVotesParticipated.mul(10000).div(proposal.snapshotTotalStaked) */\n      jump\t// in\n    tag_106:\n        /* \"contracts/VotingContract.sol\":6541:6652  uint256 participationBasisPoints = proposal.totalVotesParticipated.mul(10000).div(proposal.snapshotTotalStaked) */\n      swap1\n      pop\n        /* \"contracts/VotingContract.sol\":6698:6715  quorumBasisPoints */\n      sload(0x04)\n        /* \"contracts/VotingContract.sol\":6670:6694  participationBasisPoints */\n      dup2\n        /* \"contracts/VotingContract.sol\":6670:6715  participationBasisPoints >= quorumBasisPoints */\n      lt\n        /* \"contracts/VotingContract.sol\":6666:6770  if (participationBasisPoints >= quorumBasisPoints) {... */\n      tag_110\n      jumpi\n        /* \"contracts/VotingContract.sol\":6751:6755  true */\n      0x01\n        /* \"contracts/VotingContract.sol\":6735:6755  quorumReached = true */\n      swap2\n      pop\n        /* \"contracts/VotingContract.sol\":6666:6770  if (participationBasisPoints >= quorumBasisPoints) {... */\n    tag_110:\n        /* \"contracts/VotingContract.sol\":6527:6780  {... */\n      pop\n        /* \"contracts/VotingContract.sol\":6489:6780  if (proposal.snapshotTotalStaked > 0) {... */\n    tag_105:\n        /* \"contracts/VotingContract.sol\":6795:6808  quorumReached */\n      dup1\n        /* \"contracts/VotingContract.sol\":6790:7102  if (!quorumReached) {... */\n      tag_111\n      jumpi\n        /* \"contracts/VotingContract.sol\":6824:6838  proposal.state */\n      0x0b\n      dup3\n      add\n        /* \"contracts/VotingContract.sol\":6824:6863  proposal.state = ProposalState.Defeated */\n      dup1\n      sload\n        /* \"contracts/VotingContract.sol\":6841:6863  ProposalState.Defeated */\n      0x03\n      swap2\n        /* \"contracts/VotingContract.sol\":6824:6838  proposal.state */\n      swap1\n      not(0xff00)\n        /* \"contracts/VotingContract.sol\":6824:6863  proposal.state = ProposalState.Defeated */\n      and\n      0x0100\n        /* \"contracts/VotingContract.sol\":6841:6863  ProposalState.Defeated */\n      dup4\n        /* \"contracts/VotingContract.sol\":6824:6863  proposal.state = ProposalState.Defeated */\n    tag_113:\n      mul\n      or\n      swap1\n      sstore\n      pop\n        /* \"contracts/VotingContract.sol\":6790:7102  if (!quorumReached) {... */\n      jump(tag_118)\n    tag_111:\n        /* \"contracts/VotingContract.sol\":6918:6926  proposal */\n      dup2\n        /* \"contracts/VotingContract.sol\":6918:6939  proposal.againstVotes */\n      0x07\n      add\n      sload\n        /* \"contracts/VotingContract.sol\":6898:6906  proposal */\n      dup3\n        /* \"contracts/VotingContract.sol\":6898:6915  proposal.forVotes */\n      0x06\n      add\n      sload\n        /* \"contracts/VotingContract.sol\":6898:6939  proposal.forVotes > proposal.againstVotes */\n      gt\n        /* \"contracts/VotingContract.sol\":6894:7092  if (proposal.forVotes > proposal.againstVotes) {... */\n      iszero\n      tag_115\n      jumpi\n        /* \"contracts/VotingContract.sol\":6959:6973  proposal.state */\n      0x0b\n      dup3\n      add\n        /* \"contracts/VotingContract.sol\":6959:6999  proposal.state = ProposalState.Succeeded */\n      dup1\n      sload\n        /* \"contracts/VotingContract.sol\":6976:6999  ProposalState.Succeeded */\n      0x04\n      swap2\n        /* \"contracts/VotingContract.sol\":6959:6973  proposal.state */\n      swap1\n      not(0xff00)\n        /* \"contracts/VotingContract.sol\":6959:6999  proposal.state = ProposalState.Succeeded */\n      and\n      0x0100\n        /* \"contracts/VotingContract.sol\":6976:6999  ProposalState.Succeeded */\n      dup4\n        /* \"contracts/VotingContract.sol\":6959:6999  proposal.state = ProposalState.Succeeded */\n      jump(tag_113)\n        /* \"contracts/VotingContract.sol\":6894:7092  if (proposal.forVotes > proposal.againstVotes) {... */\n    tag_115:\n        /* \"contracts/VotingContract.sol\":7038:7052  proposal.state */\n      0x0b\n      dup3\n      add\n        /* \"contracts/VotingContract.sol\":7038:7077  proposal.state = ProposalState.Defeated */\n      dup1\n      sload\n      not(0xff00)\n      and\n      0x0300\n      or\n      swap1\n      sstore\n        /* \"contracts/VotingContract.sol\":6894:7092  if (proposal.forVotes > proposal.againstVotes) {... */\n    tag_118:\n        /* \"contracts/VotingContract.sol\":7147:7158  _proposalId */\n      dup3\n        /* \"contracts/VotingContract.sol\":7117:7297  ProposalFinished(... */\n      0x50dfc6bc47da7bb0a9fcdd194f019ea60dc27c97dde4a73504e84ca271e94d7c\n        /* \"contracts/VotingContract.sol\":7172:7180  proposal */\n      dup4\n        /* \"contracts/VotingContract.sol\":7172:7186  proposal.state */\n      0x0b\n      add\n      0x01\n      swap1\n      sload\n      swap1\n      0x0100\n      exp\n      swap1\n      div\n      0xff\n      and\n        /* \"contracts/VotingContract.sol\":7200:7208  proposal */\n      dup5\n        /* \"contracts/VotingContract.sol\":7200:7217  proposal.forVotes */\n      0x06\n      add\n      sload\n        /* \"contracts/VotingContract.sol\":7231:7239  proposal */\n      dup6\n        /* \"contracts/VotingContract.sol\":7231:7252  proposal.againstVotes */\n      0x07\n      add\n      sload\n        /* \"contracts/VotingContract.sol\":7266:7274  proposal */\n      dup7\n        /* \"contracts/VotingContract.sol\":7266:7287  proposal.abstainVotes */\n      0x08\n      add\n      sload\n        /* \"contracts/VotingContract.sol\":7117:7297  ProposalFinished(... */\n      mload(0x40)\n      tag_121\n      swap5\n      swap4\n      swap3\n      swap2\n      swap1\n      tag_122\n      jump\t// in\n    tag_121:\n      mload(0x40)\n      dup1\n      swap2\n      sub\n      swap1\n      log2\n        /* \"contracts/VotingContract.sol\":6129:7304  {... */\n      pop\n      pop\n        /* \"contracts/VotingContract.sol\":6075:7304  function finishProposal(uint256 _proposalId) external {... */\n      pop\n      jump\t// out\n        /* \"contracts/VotingContract.sol\":2828:3762  function createProposal(string calldata _description) external onlyOwner returns(uint256) {... */\n    tag_44:\n        /* \"contracts/VotingContract.sol\":2909:2916  uint256 */\n      0x00\n        /* \"@openzeppelin/contracts/access/Ownable.sol\":1531:1544  _checkOwner() */\n      tag_124\n        /* \"@openzeppelin/contracts/access/Ownable.sol\":1531:1542  _checkOwner */\n      tag_125\n        /* \"@openzeppelin/contracts/access/Ownable.sol\":1531:1544  _checkOwner() */\n      jump\t// in\n    tag_124:\n        /* \"contracts/VotingContract.sol\":2975:2976  1 */\n      0x01\n        /* \"contracts/VotingContract.sol\":2955:2970  proposalCounter */\n      dup1\n      sload\n        /* \"contracts/VotingContract.sol\":2955:2977  proposalCounter.add(1) */\n      tag_127\n      swap2\n        /* \"contracts/VotingContract.sol\":2955:2974  proposalCounter.add */\n      tag_128\n        /* \"contracts/VotingContract.sol\":2955:2977  proposalCounter.add(1) */\n      jump\t// in\n    tag_127:\n        /* \"contracts/VotingContract.sol\":2937:2952  proposalCounter */\n      0x01\n        /* \"contracts/VotingContract.sol\":2937:2977  proposalCounter = proposalCounter.add(1) */\n      dup2\n      swap1\n      sstore\n        /* \"contracts/VotingContract.sol\":3107:3136  stakingContract.totalStaked() */\n      0x40\n      dup1\n      mload\n      shl(0xe1, 0x40bd8e69)\n      dup2\n      mstore\n      swap1\n      mload\n        /* \"contracts/VotingContract.sol\":3056:3071  block.timestamp */\n      timestamp\n      swap2\n        /* \"contracts/VotingContract.sol\":2987:3005  uint256 proposalId */\n      0x00\n      swap2\n      sub(shl(0xa0, 0x01), 0x01)\n        /* \"contracts/VotingContract.sol\":3107:3122  stakingContract */\n      immutable(\"0xc40f7608bb89a6dc7aa17f3e1230f56b2e6b59319af129191c75cf59e69bfe22\")\n        /* \"contracts/VotingContract.sol\":3107:3134  stakingContract.totalStaked */\n      and\n      swap2\n      0x817b1cd2\n      swap2\n        /* \"contracts/VotingContract.sol\":3107:3136  stakingContract.totalStaked() */\n      0x04\n      dup1\n      dup4\n      add\n      swap3\n      0x20\n      swap3\n      swap2\n      swap1\n      dup3\n      swap1\n      sub\n      add\n      dup2\n        /* \"contracts/VotingContract.sol\":3107:3134  stakingContract.totalStaked */\n      dup7\n        /* \"contracts/VotingContract.sol\":3107:3136  stakingContract.totalStaked() */\n      gas\n      staticcall\n      iszero\n      dup1\n      iszero\n      tag_130\n      jumpi\n      returndatasize\n      0x00\n      dup1\n      returndatacopy\n      revert(0x00, returndatasize)\n    tag_130:\n      pop\n      pop\n      pop\n      pop\n      mload(0x40)\n      returndatasize\n      not(0x1f)\n      0x1f\n      dup3\n      add\n      and\n      dup3\n      add\n      dup1\n      0x40\n      mstore\n      pop\n      dup2\n      add\n      swap1\n      tag_131\n      swap2\n      swap1\n      tag_132\n      jump\t// in\n    tag_131:\n        /* \"contracts/VotingContract.sol\":3147:3179  ProposalView storage newProposal */\n      0x00\n        /* \"contracts/VotingContract.sol\":3182:3203  proposals[proposalId] */\n      dup5\n      dup2\n      mstore\n        /* \"contracts/VotingContract.sol\":3182:3191  proposals */\n      0x02\n        /* \"contracts/VotingContract.sol\":3182:3203  proposals[proposalId] */\n      0x20\n      dup2\n      swap1\n      mstore\n      0x40\n      swap1\n      swap2\n      keccak256\n        /* \"contracts/VotingContract.sol\":3213:3240  newProposal.id = proposalId */\n      dup6\n      dup2\n      sstore\n        /* \"contracts/VotingContract.sol\":3250:3270  newProposal.proposer */\n      0x01\n      dup2\n      add\n        /* \"contracts/VotingContract.sol\":3250:3283  newProposal.proposer = msg.sender */\n      dup1\n      sload\n      not(sub(shl(0xa0, 0x01), 0x01))\n      and\n        /* \"contracts/VotingContract.sol\":3273:3283  msg.sender */\n      caller\n        /* \"contracts/VotingContract.sol\":3250:3283  newProposal.proposer = msg.sender */\n      or\n      swap1\n      sstore\n        /* \"contracts/VotingContract.sol\":3081:3136  uint currentTotalStaked = stakingContract.totalStaked() */\n      swap2\n      swap3\n      pop\n        /* \"contracts/VotingContract.sol\":3293:3316  newProposal.description */\n      dup2\n      add\n        /* \"contracts/VotingContract.sol\":3293:3331  newProposal.description = _description */\n      tag_133\n        /* \"contracts/VotingContract.sol\":3319:3331  _description */\n      dup8\n      dup10\n        /* \"contracts/VotingContract.sol\":3293:3316  newProposal.description */\n      dup4\n        /* \"contracts/VotingContract.sol\":3293:3331  newProposal.description = _description */\n      tag_134\n      jump\t// in\n    tag_133:\n      pop\n        /* \"contracts/VotingContract.sol\":3341:3365  newProposal.creationTime */\n      0x03\n      dup1\n      dup3\n      add\n        /* \"contracts/VotingContract.sol\":3341:3379  newProposal.creationTime = currentTime */\n      dup5\n      swap1\n      sstore\n        /* \"contracts/VotingContract.sol\":3389:3410  newProposal.startTime */\n      0x04\n      dup3\n      add\n        /* \"contracts/VotingContract.sol\":3389:3424  newProposal.startTime = currentTime */\n      dup5\n      swap1\n      sstore\n        /* \"contracts/VotingContract.sol\":3470:3482  votingPeriod */\n      sload\n        /* \"contracts/VotingContract.sol\":3456:3482  currentTime + votingPeriod */\n      tag_135\n      swap1\n        /* \"contracts/VotingContract.sol\":3368:3379  currentTime */\n      dup5\n        /* \"contracts/VotingContract.sol\":3456:3482  currentTime + votingPeriod */\n      tag_136\n      jump\t// in\n    tag_135:\n        /* \"contracts/VotingContract.sol\":3434:3453  newProposal.endTime */\n      0x05\n      dup3\n      add\n        /* \"contracts/VotingContract.sol\":3434:3482  newProposal.endTime = currentTime + votingPeriod */\n      dup2\n      swap1\n      sstore\n        /* \"contracts/VotingContract.sol\":3492:3523  newProposal.snapshotTotalStaked */\n      0x0a\n      dup3\n      add\n        /* \"contracts/VotingContract.sol\":3492:3544  newProposal.snapshotTotalStaked = currentTotalStaked */\n      dup4\n      swap1\n      sstore\n        /* \"contracts/VotingContract.sol\":3554:3571  newProposal.state */\n      0x0b\n      dup3\n      add\n        /* \"contracts/VotingContract.sol\":3554:3594  newProposal.state = ProposalState.Active */\n      dup1\n      sload\n      not(0xff00)\n      and\n      0x0100\n      or\n      swap1\n      sstore\n        /* \"contracts/VotingContract.sol\":3664:3685  newProposal.startTime */\n      0x04\n      dup3\n      add\n      sload\n        /* \"contracts/VotingContract.sol\":3610:3727  ProposalCreated(proposalId, msg.sender, _description, newProposal.startTime, newProposal.endTime, currentTotalStaked) */\n      mload(0x40)\n        /* \"contracts/VotingContract.sol\":3638:3648  msg.sender */\n      caller\n      swap3\n        /* \"contracts/VotingContract.sol\":3626:3636  proposalId */\n      dup8\n      swap3\n        /* \"contracts/VotingContract.sol\":3610:3727  ProposalCreated(proposalId, msg.sender, _description, newProposal.startTime, newProposal.endTime, currentTotalStaked) */\n      0x6b04e3d11c426737470e9f5cdd847185e72cb1b770b7b6781c49838732a9011e\n      swap3\n      tag_139\n      swap3\n        /* \"contracts/VotingContract.sol\":3650:3662  _description */\n      dup14\n      swap3\n      dup14\n      swap3\n        /* \"contracts/VotingContract.sol\":3664:3685  newProposal.startTime */\n      swap1\n      swap2\n        /* \"contracts/VotingContract.sol\":3434:3482  newProposal.endTime = currentTime + votingPeriod */\n      swap1\n        /* \"contracts/VotingContract.sol\":3492:3544  newProposal.snapshotTotalStaked = currentTotalStaked */\n      dup11\n      swap1\n        /* \"contracts/VotingContract.sol\":3610:3727  ProposalCreated(proposalId, msg.sender, _description, newProposal.startTime, newProposal.endTime, currentTotalStaked) */\n      tag_140\n      jump\t// in\n    tag_139:\n      mload(0x40)\n      dup1\n      swap2\n      sub\n      swap1\n      log3\n      pop\n        /* \"contracts/VotingContract.sol\":3745:3755  proposalId */\n      swap2\n      swap3\n      pop\n      pop\n      pop\n        /* \"@openzeppelin/contracts/access/Ownable.sol\":1554:1555  _ */\n    tag_126:\n        /* \"contracts/VotingContract.sol\":2828:3762  function createProposal(string calldata _description) external onlyOwner returns(uint256) {... */\n      swap3\n      swap2\n      pop\n      pop\n      jump\t// out\n        /* \"@openzeppelin/contracts/access/Ownable.sol\":2293:2394  function renounceOwnership() public virtual onlyOwner {... */\n    tag_47:\n        /* \"@openzeppelin/contracts/access/Ownable.sol\":1531:1544  _checkOwner() */\n      tag_142\n        /* \"@openzeppelin/contracts/access/Ownable.sol\":1531:1542  _checkOwner */\n      tag_125\n        /* \"@openzeppelin/contracts/access/Ownable.sol\":1531:1544  _checkOwner() */\n      jump\t// in\n    tag_142:\n        /* \"@openzeppelin/contracts/access/Ownable.sol\":2357:2387  _transferOwnership(address(0)) */\n      tag_144\n        /* \"@openzeppelin/contracts/access/Ownable.sol\":2384:2385  0 */\n      0x00\n        /* \"@openzeppelin/contracts/access/Ownable.sol\":2357:2375  _transferOwnership */\n      tag_145\n        /* \"@openzeppelin/contracts/access/Ownable.sol\":2357:2387  _transferOwnership(address(0)) */\n      jump\t// in\n    tag_144:\n        /* \"@openzeppelin/contracts/access/Ownable.sol\":2293:2394  function renounceOwnership() public virtual onlyOwner {... */\n      jump\t// out\n        /* \"contracts/VotingContract.sol\":8476:8796  function getVote(uint256 _proposalId, address _voter) external view returns (bool hasVoted, VoteType voteChoice) {... */\n    tag_55:\n        /* \"contracts/VotingContract.sol\":8553:8566  bool hasVoted */\n      0x00\n        /* \"contracts/VotingContract.sol\":8631:8653  proposals[_proposalId] */\n      dup3\n      dup2\n      mstore\n        /* \"contracts/VotingContract.sol\":8631:8640  proposals */\n      0x02\n        /* \"contracts/VotingContract.sol\":8631:8653  proposals[_proposalId] */\n      0x20\n      mstore\n      0x40\n      dup2\n      keccak256\n        /* \"contracts/VotingContract.sol\":8672:8683  proposal.id */\n      dup1\n      sload\n        /* \"contracts/VotingContract.sol\":8553:8566  bool hasVoted */\n      dup3\n      swap2\n        /* \"contracts/VotingContract.sol\":8631:8653  proposals[_proposalId] */\n      swap1\n        /* \"contracts/VotingContract.sol\":8672:8688  proposal.id != 0 */\n      dup3\n      sub\n        /* \"contracts/VotingContract.sol\":8664:8716  require(proposal.id != 0, \"Proposal does not exist\") */\n      tag_148\n      jumpi\n      mload(0x40)\n      shl(0xe5, 0x461bcd)\n      dup2\n      mstore\n      0x04\n      add\n      tag_92\n      swap1\n      tag_93\n      jump\t// in\n    tag_148:\n      sub(shl(0xa0, 0x01), 0x01)\n        /* \"contracts/VotingContract.sol\":8734:8759  proposal.hasVoted[_voter] */\n      swap4\n      swap1\n      swap4\n      and\n      0x00\n      swap1\n      dup2\n      mstore\n        /* \"contracts/VotingContract.sol\":8734:8751  proposal.hasVoted */\n      0x0c\n      dup5\n      add\n        /* \"contracts/VotingContract.sol\":8734:8759  proposal.hasVoted[_voter] */\n      0x20\n      swap1\n      dup2\n      mstore\n      0x40\n      dup1\n      dup4\n      keccak256\n      sload\n        /* \"contracts/VotingContract.sol\":8761:8780  proposal.voteChoice */\n      0x0d\n      swap1\n      swap7\n      add\n        /* \"contracts/VotingContract.sol\":8761:8788  proposal.voteChoice[_voter] */\n      swap1\n      swap2\n      mstore\n      swap1\n      keccak256\n      sload\n        /* \"contracts/VotingContract.sol\":8734:8759  proposal.hasVoted[_voter] */\n      0xff\n      swap4\n      dup5\n      and\n      swap6\n        /* \"contracts/VotingContract.sol\":8761:8788  proposal.voteChoice[_voter] */\n      swap4\n      and\n      swap4\n      pop\n      pop\n      pop\n        /* \"contracts/VotingContract.sol\":8476:8796  function getVote(uint256 _proposalId, address _voter) external view returns (bool hasVoted, VoteType voteChoice) {... */\n      jump\t// out\n        /* \"contracts/VotingContract.sol\":9048:9253  function setQuorum(uint256 _newQuorumBasisPoints) external onlyOwner {... */\n    tag_60:\n        /* \"@openzeppelin/contracts/access/Ownable.sol\":1531:1544  _checkOwner() */\n      tag_151\n        /* \"@openzeppelin/contracts/access/Ownable.sol\":1531:1542  _checkOwner */\n      tag_125\n        /* \"@openzeppelin/contracts/access/Ownable.sol\":1531:1544  _checkOwner() */\n      jump\t// in\n    tag_151:\n        /* \"contracts/VotingContract.sol\":9160:9165  10000 */\n      0x2710\n        /* \"contracts/VotingContract.sol\":9135:9156  _newQuorumBasisPoints */\n      dup2\n        /* \"contracts/VotingContract.sol\":9135:9165  _newQuorumBasisPoints <= 10000 */\n      gt\n      iszero\n        /* \"contracts/VotingContract.sol\":9127:9195  require(_newQuorumBasisPoints <= 10000, \"Quorum cannot exceed 100%\") */\n      tag_153\n      jumpi\n      mload(0x40)\n      shl(0xe5, 0x461bcd)\n      dup2\n      mstore\n        /* \"#utility.yul\":11158:11160   */\n      0x20\n        /* \"contracts/VotingContract.sol\":9127:9195  require(_newQuorumBasisPoints <= 10000, \"Quorum cannot exceed 100%\") */\n      0x04\n      dup3\n      add\n        /* \"#utility.yul\":11140:11161   */\n      mstore\n        /* \"#utility.yul\":11197:11199   */\n      0x19\n        /* \"#utility.yul\":11177:11195   */\n      0x24\n      dup3\n      add\n        /* \"#utility.yul\":11170:11200   */\n      mstore\n        /* \"#utility.yul\":11236:11263   */\n      0x51756f72756d2063616e6e6f7420657863656564203130302500000000000000\n        /* \"#utility.yul\":11216:11234   */\n      0x44\n      dup3\n      add\n        /* \"#utility.yul\":11209:11264   */\n      mstore\n        /* \"#utility.yul\":11281:11299   */\n      0x64\n      add\n        /* \"contracts/VotingContract.sol\":9127:9195  require(_newQuorumBasisPoints <= 10000, \"Quorum cannot exceed 100%\") */\n      tag_92\n        /* \"#utility.yul\":10956:11305   */\n      jump\n        /* \"contracts/VotingContract.sol\":9127:9195  require(_newQuorumBasisPoints <= 10000, \"Quorum cannot exceed 100%\") */\n    tag_153:\n        /* \"contracts/VotingContract.sol\":9205:9222  quorumBasisPoints */\n      0x04\n        /* \"contracts/VotingContract.sol\":9205:9246  quorumBasisPoints = _newQuorumBasisPoints */\n      sstore\n        /* \"contracts/VotingContract.sol\":9048:9253  function setQuorum(uint256 _newQuorumBasisPoints) external onlyOwner {... */\n      jump\t// out\n        /* \"contracts/VotingContract.sol\":4518:5896  function casteVote(uint256 _proposalId, VoteType _voteType) external {... */\n    tag_64:\n        /* \"contracts/VotingContract.sol\":4597:4626  ProposalView storage proposal */\n      0x00\n        /* \"contracts/VotingContract.sol\":4629:4651  proposals[_proposalId] */\n      dup3\n      dup2\n      mstore\n        /* \"contracts/VotingContract.sol\":4629:4638  proposals */\n      0x02\n        /* \"contracts/VotingContract.sol\":4629:4651  proposals[_proposalId] */\n      0x20\n      mstore\n      0x40\n      dup2\n      keccak256\n        /* \"contracts/VotingContract.sol\":4669:4680  proposal.id */\n      dup1\n      sload\n        /* \"contracts/VotingContract.sol\":4629:4651  proposals[_proposalId] */\n      swap1\n      swap2\n        /* \"contracts/VotingContract.sol\":4669:4685  proposal.id != 0 */\n      sub\n        /* \"contracts/VotingContract.sol\":4661:4713  require(proposal.id != 0, \"Proposal does not exist\") */\n      tag_157\n      jumpi\n      mload(0x40)\n      shl(0xe5, 0x461bcd)\n      dup2\n      mstore\n      0x04\n      add\n      tag_92\n      swap1\n      tag_93\n      jump\t// in\n    tag_157:\n        /* \"contracts/VotingContract.sol\":4749:4769  ProposalState.Active */\n      0x01\n        /* \"contracts/VotingContract.sol\":4731:4745  proposal.state */\n      0x0b\n      dup3\n      add\n      sload\n      0x0100\n      swap1\n      div\n      0xff\n      and\n        /* \"contracts/VotingContract.sol\":4731:4769  proposal.state == ProposalState.Active */\n      0x04\n      dup2\n      gt\n      iszero\n      tag_162\n      jumpi\n      tag_162\n      tag_96\n      jump\t// in\n    tag_162:\n      eq\n        /* \"contracts/VotingContract.sol\":4723:4796  require(proposal.state == ProposalState.Active, \"Proposal is not active\") */\n      tag_163\n      jumpi\n      mload(0x40)\n      shl(0xe5, 0x461bcd)\n      dup2\n      mstore\n        /* \"#utility.yul\":11512:11514   */\n      0x20\n        /* \"contracts/VotingContract.sol\":4723:4796  require(proposal.state == ProposalState.Active, \"Proposal is not active\") */\n      0x04\n      dup3\n      add\n        /* \"#utility.yul\":11494:11515   */\n      mstore\n        /* \"#utility.yul\":11551:11553   */\n      0x16\n        /* \"#utility.yul\":11531:11549   */\n      0x24\n      dup3\n      add\n        /* \"#utility.yul\":11524:11554   */\n      mstore\n      shl(0x50, 0x50726f706f73616c206973206e6f7420616374697665)\n        /* \"#utility.yul\":11570:11588   */\n      0x44\n      dup3\n      add\n        /* \"#utility.yul\":11563:11615   */\n      mstore\n        /* \"#utility.yul\":11632:11650   */\n      0x64\n      add\n        /* \"contracts/VotingContract.sol\":4723:4796  require(proposal.state == ProposalState.Active, \"Proposal is not active\") */\n      tag_92\n        /* \"#utility.yul\":11310:11656   */\n      jump\n        /* \"contracts/VotingContract.sol\":4723:4796  require(proposal.state == ProposalState.Active, \"Proposal is not active\") */\n    tag_163:\n        /* \"contracts/VotingContract.sol\":4833:4841  proposal */\n      dup1\n        /* \"contracts/VotingContract.sol\":4833:4851  proposal.startTime */\n      0x04\n      add\n      sload\n        /* \"contracts/VotingContract.sol\":4814:4829  block.timestamp */\n      timestamp\n        /* \"contracts/VotingContract.sol\":4814:4851  block.timestamp >= proposal.startTime */\n      lt\n      iszero\n        /* \"contracts/VotingContract.sol\":4806:4878  require(block.timestamp >= proposal.startTime, \"Voting has not started\") */\n      tag_166\n      jumpi\n      mload(0x40)\n      shl(0xe5, 0x461bcd)\n      dup2\n      mstore\n        /* \"#utility.yul\":11863:11865   */\n      0x20\n        /* \"contracts/VotingContract.sol\":4806:4878  require(block.timestamp >= proposal.startTime, \"Voting has not started\") */\n      0x04\n      dup3\n      add\n        /* \"#utility.yul\":11845:11866   */\n      mstore\n        /* \"#utility.yul\":11902:11904   */\n      0x16\n        /* \"#utility.yul\":11882:11900   */\n      0x24\n      dup3\n      add\n        /* \"#utility.yul\":11875:11905   */\n      mstore\n      shl(0x52, 0x159bdd1a5b99c81a185cc81b9bdd081cdd185c9d1959)\n        /* \"#utility.yul\":11921:11939   */\n      0x44\n      dup3\n      add\n        /* \"#utility.yul\":11914:11966   */\n      mstore\n        /* \"#utility.yul\":11983:12001   */\n      0x64\n      add\n        /* \"contracts/VotingContract.sol\":4806:4878  require(block.timestamp >= proposal.startTime, \"Voting has not started\") */\n      tag_92\n        /* \"#utility.yul\":11661:12007   */\n      jump\n        /* \"contracts/VotingContract.sol\":4806:4878  require(block.timestamp >= proposal.startTime, \"Voting has not started\") */\n    tag_166:\n        /* \"contracts/VotingContract.sol\":4914:4922  proposal */\n      dup1\n        /* \"contracts/VotingContract.sol\":4914:4930  proposal.endTime */\n      0x05\n      add\n      sload\n        /* \"contracts/VotingContract.sol\":4896:4911  block.timestamp */\n      timestamp\n        /* \"contracts/VotingContract.sol\":4896:4930  block.timestamp < proposal.endTime */\n      lt\n        /* \"contracts/VotingContract.sol\":4888:4958  require(block.timestamp < proposal.endTime, \"Voting period has ended\") */\n      tag_169\n      jumpi\n      mload(0x40)\n      shl(0xe5, 0x461bcd)\n      dup2\n      mstore\n        /* \"#utility.yul\":12214:12216   */\n      0x20\n        /* \"contracts/VotingContract.sol\":4888:4958  require(block.timestamp < proposal.endTime, \"Voting period has ended\") */\n      0x04\n      dup3\n      add\n        /* \"#utility.yul\":12196:12217   */\n      mstore\n        /* \"#utility.yul\":12253:12255   */\n      0x17\n        /* \"#utility.yul\":12233:12251   */\n      0x24\n      dup3\n      add\n        /* \"#utility.yul\":12226:12256   */\n      mstore\n        /* \"#utility.yul\":12292:12317   */\n      0x566f74696e6720706572696f642068617320656e646564000000000000000000\n        /* \"#utility.yul\":12272:12290   */\n      0x44\n      dup3\n      add\n        /* \"#utility.yul\":12265:12318   */\n      mstore\n        /* \"#utility.yul\":12335:12353   */\n      0x64\n      add\n        /* \"contracts/VotingContract.sol\":4888:4958  require(block.timestamp < proposal.endTime, \"Voting period has ended\") */\n      tag_92\n        /* \"#utility.yul\":12012:12359   */\n      jump\n        /* \"contracts/VotingContract.sol\":4888:4958  require(block.timestamp < proposal.endTime, \"Voting period has ended\") */\n    tag_169:\n        /* \"contracts/VotingContract.sol\":4995:5005  msg.sender */\n      caller\n        /* \"contracts/VotingContract.sol\":4977:5006  proposal.hasVoted[msg.sender] */\n      0x00\n      swap1\n      dup2\n      mstore\n        /* \"contracts/VotingContract.sol\":4977:4994  proposal.hasVoted */\n      0x0c\n      dup3\n      add\n        /* \"contracts/VotingContract.sol\":4977:5006  proposal.hasVoted[msg.sender] */\n      0x20\n      mstore\n      0x40\n      swap1\n      keccak256\n      sload\n      0xff\n      and\n        /* \"contracts/VotingContract.sol\":4976:5006  !proposal.hasVoted[msg.sender] */\n      iszero\n        /* \"contracts/VotingContract.sol\":4968:5041  require(!proposal.hasVoted[msg.sender], \"Already voted on this proposal\") */\n      tag_172\n      jumpi\n      mload(0x40)\n      shl(0xe5, 0x461bcd)\n      dup2\n      mstore\n        /* \"#utility.yul\":12566:12568   */\n      0x20\n        /* \"contracts/VotingContract.sol\":4968:5041  require(!proposal.hasVoted[msg.sender], \"Already voted on this proposal\") */\n      0x04\n      dup3\n      add\n        /* \"#utility.yul\":12548:12569   */\n      mstore\n        /* \"#utility.yul\":12605:12607   */\n      0x1e\n        /* \"#utility.yul\":12585:12603   */\n      0x24\n      dup3\n      add\n        /* \"#utility.yul\":12578:12608   */\n      mstore\n        /* \"#utility.yul\":12644:12676   */\n      0x416c726561647920766f746564206f6e20746869732070726f706f73616c0000\n        /* \"#utility.yul\":12624:12642   */\n      0x44\n      dup3\n      add\n        /* \"#utility.yul\":12617:12677   */\n      mstore\n        /* \"#utility.yul\":12694:12712   */\n      0x64\n      add\n        /* \"contracts/VotingContract.sol\":4968:5041  require(!proposal.hasVoted[msg.sender], \"Already voted on this proposal\") */\n      tag_92\n        /* \"#utility.yul\":12364:12718   */\n      jump\n        /* \"contracts/VotingContract.sol\":4968:5041  require(!proposal.hasVoted[msg.sender], \"Already voted on this proposal\") */\n    tag_172:\n        /* \"contracts/VotingContract.sol\":5073:5115  stakingContract.getVotingPower(msg.sender) */\n      mload(0x40)\n      shl(0xe1, 0x5da6a21b)\n      dup2\n      mstore\n        /* \"contracts/VotingContract.sol\":5104:5114  msg.sender */\n      caller\n        /* \"contracts/VotingContract.sol\":5073:5115  stakingContract.getVotingPower(msg.sender) */\n      0x04\n      dup3\n      add\n        /* \"#utility.yul\":2908:2959   */\n      mstore\n        /* \"contracts/VotingContract.sol\":5052:5070  uint256 voterPower */\n      0x00\n      swap1\n        /* \"contracts/VotingContract.sol\":5073:5088  stakingContract */\n      immutable(\"0xc40f7608bb89a6dc7aa17f3e1230f56b2e6b59319af129191c75cf59e69bfe22\")\n      sub(shl(0xa0, 0x01), 0x01)\n        /* \"contracts/VotingContract.sol\":5073:5103  stakingContract.getVotingPower */\n      and\n      swap1\n      0xbb4d4436\n      swap1\n        /* \"#utility.yul\":2881:2899   */\n      0x24\n      add\n        /* \"contracts/VotingContract.sol\":5073:5115  stakingContract.getVotingPower(msg.sender) */\n      0x20\n      mload(0x40)\n      dup1\n      dup4\n      sub\n      dup2\n      dup7\n      gas\n      staticcall\n      iszero\n      dup1\n      iszero\n      tag_177\n      jumpi\n      returndatasize\n      0x00\n      dup1\n      returndatacopy\n      revert(0x00, returndatasize)\n    tag_177:\n      pop\n      pop\n      pop\n      pop\n      mload(0x40)\n      returndatasize\n      not(0x1f)\n      0x1f\n      dup3\n      add\n      and\n      dup3\n      add\n      dup1\n      0x40\n      mstore\n      pop\n      dup2\n      add\n      swap1\n      tag_178\n      swap2\n      swap1\n      tag_132\n      jump\t// in\n    tag_178:\n        /* \"contracts/VotingContract.sol\":5052:5115  uint256 voterPower = stakingContract.getVotingPower(msg.sender) */\n      swap1\n      pop\n        /* \"contracts/VotingContract.sol\":5146:5147  0 */\n      0x00\n        /* \"contracts/VotingContract.sol\":5133:5143  voterPower */\n      dup2\n        /* \"contracts/VotingContract.sol\":5133:5147  voterPower > 0 */\n      gt\n        /* \"contracts/VotingContract.sol\":5125:5198  require(voterPower > 0, \"Must have staked tokens (voting power) to vote\") */\n      tag_179\n      jumpi\n      mload(0x40)\n      shl(0xe5, 0x461bcd)\n      dup2\n      mstore\n        /* \"#utility.yul\":12925:12927   */\n      0x20\n        /* \"contracts/VotingContract.sol\":5125:5198  require(voterPower > 0, \"Must have staked tokens (voting power) to vote\") */\n      0x04\n      dup3\n      add\n        /* \"#utility.yul\":12907:12928   */\n      mstore\n        /* \"#utility.yul\":12964:12966   */\n      0x2e\n        /* \"#utility.yul\":12944:12962   */\n      0x24\n      dup3\n      add\n        /* \"#utility.yul\":12937:12967   */\n      mstore\n        /* \"#utility.yul\":13003:13037   */\n      0x4d7573742068617665207374616b656420746f6b656e732028766f74696e6720\n        /* \"#utility.yul\":12983:13001   */\n      0x44\n      dup3\n      add\n        /* \"#utility.yul\":12976:13038   */\n      mstore\n      shl(0x90, 0x706f7765722920746f20766f7465)\n        /* \"#utility.yul\":13054:13072   */\n      0x64\n      dup3\n      add\n        /* \"#utility.yul\":13047:13091   */\n      mstore\n        /* \"#utility.yul\":13108:13127   */\n      0x84\n      add\n        /* \"contracts/VotingContract.sol\":5125:5198  require(voterPower > 0, \"Must have staked tokens (voting power) to vote\") */\n      tag_92\n        /* \"#utility.yul\":12723:13133   */\n      jump\n        /* \"contracts/VotingContract.sol\":5125:5198  require(voterPower > 0, \"Must have staked tokens (voting power) to vote\") */\n    tag_179:\n        /* \"contracts/VotingContract.sol\":5227:5237  msg.sender */\n      caller\n        /* \"contracts/VotingContract.sol\":5209:5238  proposal.hasVoted[msg.sender] */\n      0x00\n      swap1\n      dup2\n      mstore\n        /* \"contracts/VotingContract.sol\":5209:5226  proposal.hasVoted */\n      0x0c\n      dup4\n      add\n        /* \"contracts/VotingContract.sol\":5209:5238  proposal.hasVoted[msg.sender] */\n      0x20\n      swap1\n      dup2\n      mstore\n      0x40\n      dup1\n      dup4\n      keccak256\n        /* \"contracts/VotingContract.sol\":5209:5245  proposal.hasVoted[msg.sender] = true */\n      dup1\n      sload\n        /* \"contracts/VotingContract.sol\":5241:5245  true */\n      0x01\n      not(0xff)\n        /* \"contracts/VotingContract.sol\":5209:5245  proposal.hasVoted[msg.sender] = true */\n      swap2\n      dup3\n      and\n      dup2\n      or\n      swap1\n      swap3\n      sstore\n        /* \"contracts/VotingContract.sol\":5255:5274  proposal.voteChoice */\n      0x0d\n      dup8\n      add\n        /* \"contracts/VotingContract.sol\":5255:5286  proposal.voteChoice[msg.sender] */\n      swap1\n      swap4\n      mstore\n      swap3\n      keccak256\n        /* \"contracts/VotingContract.sol\":5255:5298  proposal.voteChoice[msg.sender] = _voteType */\n      dup1\n      sload\n        /* \"contracts/VotingContract.sol\":5289:5298  _voteType */\n      dup7\n      swap4\n        /* \"contracts/VotingContract.sol\":5255:5286  proposal.voteChoice[msg.sender] */\n      swap2\n      swap3\n        /* \"contracts/VotingContract.sol\":5255:5298  proposal.voteChoice[msg.sender] = _voteType */\n      and\n      swap1\n        /* \"contracts/VotingContract.sol\":5289:5298  _voteType */\n      dup4\n        /* \"contracts/VotingContract.sol\":5255:5298  proposal.voteChoice[msg.sender] = _voteType */\n      0x02\n      dup2\n      gt\n      iszero\n      tag_183\n      jumpi\n      tag_183\n      tag_96\n      jump\t// in\n    tag_183:\n      mul\n      or\n      swap1\n      sstore\n      pop\n        /* \"contracts/VotingContract.sol\":5342:5373  proposal.totalVotesParticipated */\n      0x09\n      dup3\n      add\n      sload\n        /* \"contracts/VotingContract.sol\":5342:5389  proposal.totalVotesParticipated.add(voterPower) */\n      tag_184\n      swap1\n        /* \"contracts/VotingContract.sol\":5378:5388  voterPower */\n      dup3\n        /* \"contracts/VotingContract.sol\":5342:5377  proposal.totalVotesParticipated.add */\n      tag_128\n        /* \"contracts/VotingContract.sol\":5342:5389  proposal.totalVotesParticipated.add(voterPower) */\n      jump\t// in\n    tag_184:\n        /* \"contracts/VotingContract.sol\":5308:5339  proposal.totalVotesParticipated */\n      0x09\n      dup4\n      add\n        /* \"contracts/VotingContract.sol\":5308:5389  proposal.totalVotesParticipated = proposal.totalVotesParticipated.add(voterPower) */\n      sstore\n        /* \"contracts/VotingContract.sol\":5417:5429  VoteType.For */\n      0x01\n        /* \"contracts/VotingContract.sol\":5404:5413  _voteType */\n      dup4\n        /* \"contracts/VotingContract.sol\":5404:5429  _voteType == VoteType.For */\n      0x02\n      dup2\n      gt\n      iszero\n      tag_188\n      jumpi\n      tag_188\n      tag_96\n      jump\t// in\n    tag_188:\n      sub\n        /* \"contracts/VotingContract.sol\":5400:5821  if (_voteType == VoteType.For) {... */\n      tag_189\n      jumpi\n        /* \"contracts/VotingContract.sol\":5465:5482  proposal.forVotes */\n      0x06\n      dup3\n      add\n      sload\n        /* \"contracts/VotingContract.sol\":5465:5498  proposal.forVotes.add(voterPower) */\n      tag_190\n      swap1\n        /* \"contracts/VotingContract.sol\":5487:5497  voterPower */\n      dup3\n        /* \"contracts/VotingContract.sol\":5465:5486  proposal.forVotes.add */\n      tag_128\n        /* \"contracts/VotingContract.sol\":5465:5498  proposal.forVotes.add(voterPower) */\n      jump\t// in\n    tag_190:\n        /* \"contracts/VotingContract.sol\":5445:5462  proposal.forVotes */\n      0x06\n      dup4\n      add\n        /* \"contracts/VotingContract.sol\":5445:5498  proposal.forVotes = proposal.forVotes.add(voterPower) */\n      sstore\n        /* \"contracts/VotingContract.sol\":5400:5821  if (_voteType == VoteType.For) {... */\n      jump(tag_205)\n    tag_189:\n        /* \"contracts/VotingContract.sol\":5532:5548  VoteType.Against */\n      0x00\n        /* \"contracts/VotingContract.sol\":5519:5528  _voteType */\n      dup4\n        /* \"contracts/VotingContract.sol\":5519:5548  _voteType == VoteType.Against */\n      0x02\n      dup2\n      gt\n      iszero\n      tag_195\n      jumpi\n      tag_195\n      tag_96\n      jump\t// in\n    tag_195:\n      sub\n        /* \"contracts/VotingContract.sol\":5515:5821  if (_voteType == VoteType.Against) {... */\n      tag_196\n      jumpi\n        /* \"contracts/VotingContract.sol\":5588:5609  proposal.againstVotes */\n      0x07\n      dup3\n      add\n      sload\n        /* \"contracts/VotingContract.sol\":5588:5625  proposal.againstVotes.add(voterPower) */\n      tag_197\n      swap1\n        /* \"contracts/VotingContract.sol\":5614:5624  voterPower */\n      dup3\n        /* \"contracts/VotingContract.sol\":5588:5613  proposal.againstVotes.add */\n      tag_128\n        /* \"contracts/VotingContract.sol\":5588:5625  proposal.againstVotes.add(voterPower) */\n      jump\t// in\n    tag_197:\n        /* \"contracts/VotingContract.sol\":5564:5585  proposal.againstVotes */\n      0x07\n      dup4\n      add\n        /* \"contracts/VotingContract.sol\":5564:5625  proposal.againstVotes = proposal.againstVotes.add(voterPower) */\n      sstore\n        /* \"contracts/VotingContract.sol\":5515:5821  if (_voteType == VoteType.Against) {... */\n      jump(tag_205)\n    tag_196:\n        /* \"contracts/VotingContract.sol\":5659:5675  VoteType.Abstain */\n      0x02\n        /* \"contracts/VotingContract.sol\":5646:5655  _voteType */\n      dup4\n        /* \"contracts/VotingContract.sol\":5646:5675  _voteType == VoteType.Abstain */\n      0x02\n      dup2\n      gt\n      iszero\n      tag_202\n      jumpi\n      tag_202\n      tag_96\n      jump\t// in\n    tag_202:\n      sub\n        /* \"contracts/VotingContract.sol\":5642:5821  if (_voteType == VoteType.Abstain) {... */\n      tag_203\n      jumpi\n        /* \"contracts/VotingContract.sol\":5715:5736  proposal.abstainVotes */\n      0x08\n      dup3\n      add\n      sload\n        /* \"contracts/VotingContract.sol\":5715:5752  proposal.abstainVotes.add(voterPower) */\n      tag_204\n      swap1\n        /* \"contracts/VotingContract.sol\":5741:5751  voterPower */\n      dup3\n        /* \"contracts/VotingContract.sol\":5715:5740  proposal.abstainVotes.add */\n      tag_128\n        /* \"contracts/VotingContract.sol\":5715:5752  proposal.abstainVotes.add(voterPower) */\n      jump\t// in\n    tag_204:\n        /* \"contracts/VotingContract.sol\":5691:5712  proposal.abstainVotes */\n      0x08\n      dup4\n      add\n        /* \"contracts/VotingContract.sol\":5691:5752  proposal.abstainVotes = proposal.abstainVotes.add(voterPower) */\n      sstore\n        /* \"contracts/VotingContract.sol\":5642:5821  if (_voteType == VoteType.Abstain) {... */\n      jump(tag_205)\n    tag_203:\n        /* \"contracts/VotingContract.sol\":5783:5810  revert(\"Invalid vote type\") */\n      mload(0x40)\n      shl(0xe5, 0x461bcd)\n      dup2\n      mstore\n        /* \"#utility.yul\":13340:13342   */\n      0x20\n        /* \"contracts/VotingContract.sol\":5783:5810  revert(\"Invalid vote type\") */\n      0x04\n      dup3\n      add\n        /* \"#utility.yul\":13322:13343   */\n      mstore\n        /* \"#utility.yul\":13379:13381   */\n      0x11\n        /* \"#utility.yul\":13359:13377   */\n      0x24\n      dup3\n      add\n        /* \"#utility.yul\":13352:13382   */\n      mstore\n      shl(0x78, 0x496e76616c696420766f74652074797065)\n        /* \"#utility.yul\":13398:13416   */\n      0x44\n      dup3\n      add\n        /* \"#utility.yul\":13391:13438   */\n      mstore\n        /* \"#utility.yul\":13455:13473   */\n      0x64\n      add\n        /* \"contracts/VotingContract.sol\":5783:5810  revert(\"Invalid vote type\") */\n      tag_92\n        /* \"#utility.yul\":13138:13479   */\n      jump\n        /* \"contracts/VotingContract.sol\":5642:5821  if (_voteType == VoteType.Abstain) {... */\n    tag_205:\n        /* \"contracts/VotingContract.sol\":5855:5865  msg.sender */\n      caller\n      sub(shl(0xa0, 0x01), 0x01)\n        /* \"contracts/VotingContract.sol\":5836:5889  Voted(_proposalId, msg.sender, _voteType, voterPower) */\n      and\n        /* \"contracts/VotingContract.sol\":5842:5853  _proposalId */\n      dup5\n        /* \"contracts/VotingContract.sol\":5836:5889  Voted(_proposalId, msg.sender, _voteType, voterPower) */\n      0x2635c84c3a8027a303ca6d6e90b1c4a9604754040372414d244aadfa64717518\n        /* \"contracts/VotingContract.sol\":5867:5876  _voteType */\n      dup6\n        /* \"contracts/VotingContract.sol\":5878:5888  voterPower */\n      dup5\n        /* \"contracts/VotingContract.sol\":5836:5889  Voted(_proposalId, msg.sender, _voteType, voterPower) */\n      mload(0x40)\n      tag_208\n      swap3\n      swap2\n      swap1\n      tag_209\n      jump\t// in\n    tag_208:\n      mload(0x40)\n      dup1\n      swap2\n      sub\n      swap1\n      log3\n        /* \"contracts/VotingContract.sol\":4587:5896  {... */\n      pop\n      pop\n        /* \"contracts/VotingContract.sol\":4518:5896  function casteVote(uint256 _proposalId, VoteType _voteType) external {... */\n      pop\n      pop\n      jump\t// out\n        /* \"contracts/VotingContract.sol\":7449:8438  function getProposal(uint256 _proposalId) external view... */\n    tag_67:\n        /* \"contracts/VotingContract.sol\":7526:7536  uint256 id */\n      0x00\n        /* \"contracts/VotingContract.sol\":7546:7562  address proposer */\n      dup1\n        /* \"contracts/VotingContract.sol\":7572:7597  string memory description */\n      0x60\n        /* \"contracts/VotingContract.sol\":7607:7624  uint256 startTime */\n      0x00\n        /* \"contracts/VotingContract.sol\":7634:7649  uint256 endTime */\n      dup1\n        /* \"contracts/VotingContract.sol\":7659:7675  uint256 forVotes */\n      0x00\n        /* \"contracts/VotingContract.sol\":7685:7705  uint256 againstVotes */\n      dup1\n        /* \"contracts/VotingContract.sol\":7715:7735  uint256 abstainVotes */\n      0x00\n        /* \"contracts/VotingContract.sol\":7745:7775  uint256 totalVotesParticipated */\n      dup1\n        /* \"contracts/VotingContract.sol\":7785:7812  uint256 snapshotTotalStaked */\n      0x00\n        /* \"contracts/VotingContract.sol\":7822:7835  bool canceled */\n      dup1\n        /* \"contracts/VotingContract.sol\":7845:7864  ProposalState state */\n      0x00\n        /* \"contracts/VotingContract.sol\":7889:7918  ProposalView storage proposal */\n      dup1\n        /* \"contracts/VotingContract.sol\":7921:7930  proposals */\n      0x02\n        /* \"contracts/VotingContract.sol\":7921:7943  proposals[_proposalId] */\n      0x00\n        /* \"contracts/VotingContract.sol\":7931:7942  _proposalId */\n      dup16\n        /* \"contracts/VotingContract.sol\":7921:7943  proposals[_proposalId] */\n      dup2\n      mstore\n      0x20\n      add\n      swap1\n      dup2\n      mstore\n      0x20\n      add\n      0x00\n      keccak256\n        /* \"contracts/VotingContract.sol\":7889:7943  ProposalView storage proposal = proposals[_proposalId] */\n      swap1\n      pop\n        /* \"contracts/VotingContract.sol\":7961:7969  proposal */\n      dup1\n        /* \"contracts/VotingContract.sol\":7961:7972  proposal.id */\n      0x00\n      add\n      sload\n        /* \"contracts/VotingContract.sol\":7976:7977  0 */\n      0x00\n        /* \"contracts/VotingContract.sol\":7961:7977  proposal.id != 0 */\n      sub\n        /* \"contracts/VotingContract.sol\":7953:8005  require(proposal.id != 0, \"Proposal does not exist\") */\n      tag_211\n      jumpi\n      mload(0x40)\n      shl(0xe5, 0x461bcd)\n      dup2\n      mstore\n      0x04\n      add\n      tag_92\n      swap1\n      tag_93\n      jump\t// in\n    tag_211:\n        /* \"contracts/VotingContract.sol\":8036:8047  proposal.id */\n      dup1\n      sload\n        /* \"contracts/VotingContract.sol\":8061:8078  proposal.proposer */\n      0x01\n      dup3\n      add\n      sload\n        /* \"contracts/VotingContract.sol\":8126:8144  proposal.startTime */\n      0x04\n      dup4\n      add\n      sload\n        /* \"contracts/VotingContract.sol\":8158:8174  proposal.endTime */\n      0x05\n      dup5\n      add\n      sload\n        /* \"contracts/VotingContract.sol\":8188:8205  proposal.forVotes */\n      0x06\n      dup6\n      add\n      sload\n        /* \"contracts/VotingContract.sol\":8219:8240  proposal.againstVotes */\n      0x07\n      dup7\n      add\n      sload\n        /* \"contracts/VotingContract.sol\":8254:8275  proposal.abstainVotes */\n      0x08\n      dup8\n      add\n      sload\n        /* \"contracts/VotingContract.sol\":8289:8320  proposal.totalVotesParticipated */\n      0x09\n      dup9\n      add\n      sload\n        /* \"contracts/VotingContract.sol\":8334:8362  proposal.snapshotTotalStaked */\n      0x0a\n      dup10\n      add\n      sload\n        /* \"contracts/VotingContract.sol\":8376:8393  proposal.canceled */\n      0x0b\n      dup11\n      add\n      sload\n        /* \"contracts/VotingContract.sol\":8092:8112  proposal.description */\n      0x02\n      dup12\n      add\n        /* \"contracts/VotingContract.sol\":8015:8431  return (... */\n      dup1\n      sload\n      sub(shl(0xa0, 0x01), 0x01)\n        /* \"contracts/VotingContract.sol\":8061:8078  proposal.proposer */\n      swap1\n      swap11\n      and\n      swap10\n        /* \"contracts/VotingContract.sol\":8092:8112  proposal.description */\n      swap1\n      swap9\n        /* \"contracts/VotingContract.sol\":8126:8144  proposal.startTime */\n      swap8\n        /* \"contracts/VotingContract.sol\":8158:8174  proposal.endTime */\n      swap7\n        /* \"contracts/VotingContract.sol\":8188:8205  proposal.forVotes */\n      swap6\n        /* \"contracts/VotingContract.sol\":8219:8240  proposal.againstVotes */\n      swap5\n        /* \"contracts/VotingContract.sol\":8254:8275  proposal.abstainVotes */\n      swap4\n        /* \"contracts/VotingContract.sol\":8289:8320  proposal.totalVotesParticipated */\n      swap3\n        /* \"contracts/VotingContract.sol\":8334:8362  proposal.snapshotTotalStaked */\n      swap2\n        /* \"contracts/VotingContract.sol\":8376:8393  proposal.canceled */\n      0xff\n      dup1\n      dup3\n      and\n      swap3\n        /* \"contracts/VotingContract.sol\":8061:8078  proposal.proposer */\n      0x0100\n        /* \"contracts/VotingContract.sol\":8407:8421  proposal.state */\n      swap1\n      swap3\n      div\n      and\n      swap1\n        /* \"contracts/VotingContract.sol\":8092:8112  proposal.description */\n      dup11\n      swap1\n        /* \"contracts/VotingContract.sol\":8015:8431  return (... */\n      tag_213\n      swap1\n      tag_85\n      jump\t// in\n    tag_213:\n      dup1\n      0x1f\n      add\n      0x20\n      dup1\n      swap2\n      div\n      mul\n      0x20\n      add\n      mload(0x40)\n      swap1\n      dup2\n      add\n      0x40\n      mstore\n      dup1\n      swap3\n      swap2\n      swap1\n      dup2\n      dup2\n      mstore\n      0x20\n      add\n      dup3\n      dup1\n      sload\n      tag_214\n      swap1\n      tag_85\n      jump\t// in\n    tag_214:\n      dup1\n      iszero\n      tag_215\n      jumpi\n      dup1\n      0x1f\n      lt\n      tag_216\n      jumpi\n      0x0100\n      dup1\n      dup4\n      sload\n      div\n      mul\n      dup4\n      mstore\n      swap2\n      0x20\n      add\n      swap2\n      jump(tag_215)\n    tag_216:\n      dup3\n      add\n      swap2\n      swap1\n      0x00\n      mstore\n      keccak256(0x00, 0x20)\n      swap1\n    tag_217:\n      dup2\n      sload\n      dup2\n      mstore\n      swap1\n      0x01\n      add\n      swap1\n      0x20\n      add\n      dup1\n      dup4\n      gt\n      tag_217\n      jumpi\n      dup3\n      swap1\n      sub\n      0x1f\n      and\n      dup3\n      add\n      swap2\n    tag_215:\n      pop\n      pop\n      pop\n      pop\n      pop\n      swap10\n      pop\n      swap13\n      pop\n      swap13\n      pop\n      swap13\n      pop\n      swap13\n      pop\n      swap13\n      pop\n      swap13\n      pop\n      swap13\n      pop\n      swap13\n      pop\n      swap13\n      pop\n      swap13\n      pop\n      swap13\n      pop\n      swap13\n      pop\n      pop\n        /* \"contracts/VotingContract.sol\":7449:8438  function getProposal(uint256 _proposalId) external view... */\n      swap2\n      swap4\n      swap6\n      swap8\n      swap10\n      swap12\n      pop\n      swap2\n      swap4\n      swap6\n      swap8\n      swap10\n      swap12\n      jump\t// out\n        /* \"contracts/VotingContract.sol\":3909:4314  function cancelProposal(uint256 _proposalId) external onlyOwner{... */\n    tag_72:\n        /* \"@openzeppelin/contracts/access/Ownable.sol\":1531:1544  _checkOwner() */\n      tag_219\n        /* \"@openzeppelin/contracts/access/Ownable.sol\":1531:1542  _checkOwner */\n      tag_125\n        /* \"@openzeppelin/contracts/access/Ownable.sol\":1531:1544  _checkOwner() */\n      jump\t// in\n    tag_219:\n        /* \"contracts/VotingContract.sol\":3982:4011  ProposalView storage proposal */\n      0x00\n        /* \"contracts/VotingContract.sol\":4014:4036  proposals[_proposalId] */\n      dup2\n      dup2\n      mstore\n        /* \"contracts/VotingContract.sol\":4014:4023  proposals */\n      0x02\n        /* \"contracts/VotingContract.sol\":4014:4036  proposals[_proposalId] */\n      0x20\n      mstore\n      0x40\n      dup2\n      keccak256\n        /* \"contracts/VotingContract.sol\":4054:4065  proposal.id */\n      dup1\n      sload\n        /* \"contracts/VotingContract.sol\":4014:4036  proposals[_proposalId] */\n      swap1\n      swap2\n        /* \"contracts/VotingContract.sol\":4054:4070  proposal.id != 0 */\n      sub\n        /* \"contracts/VotingContract.sol\":4046:4098  require(proposal.id != 0, \"Proposal Does not exist\") */\n      tag_221\n      jumpi\n      mload(0x40)\n      shl(0xe5, 0x461bcd)\n      dup2\n      mstore\n        /* \"#utility.yul\":13967:13969   */\n      0x20\n        /* \"contracts/VotingContract.sol\":4046:4098  require(proposal.id != 0, \"Proposal Does not exist\") */\n      0x04\n      dup3\n      add\n        /* \"#utility.yul\":13949:13970   */\n      mstore\n        /* \"#utility.yul\":14006:14008   */\n      0x17\n        /* \"#utility.yul\":13986:14004   */\n      0x24\n      dup3\n      add\n        /* \"#utility.yul\":13979:14009   */\n      mstore\n        /* \"#utility.yul\":14045:14070   */\n      0x50726f706f73616c20446f6573206e6f74206578697374000000000000000000\n        /* \"#utility.yul\":14025:14043   */\n      0x44\n      dup3\n      add\n        /* \"#utility.yul\":14018:14071   */\n      mstore\n        /* \"#utility.yul\":14088:14106   */\n      0x64\n      add\n        /* \"contracts/VotingContract.sol\":4046:4098  require(proposal.id != 0, \"Proposal Does not exist\") */\n      tag_92\n        /* \"#utility.yul\":13765:14112   */\n      jump\n        /* \"contracts/VotingContract.sol\":4046:4098  require(proposal.id != 0, \"Proposal Does not exist\") */\n    tag_221:\n        /* \"contracts/VotingContract.sol\":4134:4154  ProposalState.Active */\n      0x01\n        /* \"contracts/VotingContract.sol\":4116:4130  proposal.state */\n      0x0b\n      dup3\n      add\n      sload\n      0x0100\n      swap1\n      div\n      0xff\n      and\n        /* \"contracts/VotingContract.sol\":4116:4154  proposal.state == ProposalState.Active */\n      0x04\n      dup2\n      gt\n      iszero\n      tag_227\n      jumpi\n      tag_227\n      tag_96\n      jump\t// in\n    tag_227:\n      eq\n        /* \"contracts/VotingContract.sol\":4108:4178  require(proposal.state == ProposalState.Active, \"Proposal Not Active\") */\n      tag_228\n      jumpi\n      mload(0x40)\n      shl(0xe5, 0x461bcd)\n      dup2\n      mstore\n        /* \"#utility.yul\":14319:14321   */\n      0x20\n        /* \"contracts/VotingContract.sol\":4108:4178  require(proposal.state == ProposalState.Active, \"Proposal Not Active\") */\n      0x04\n      dup3\n      add\n        /* \"#utility.yul\":14301:14322   */\n      mstore\n        /* \"#utility.yul\":14358:14360   */\n      0x13\n        /* \"#utility.yul\":14338:14356   */\n      0x24\n      dup3\n      add\n        /* \"#utility.yul\":14331:14361   */\n      mstore\n      shl(0x68, 0x50726f706f73616c204e6f7420416374697665)\n        /* \"#utility.yul\":14377:14395   */\n      0x44\n      dup3\n      add\n        /* \"#utility.yul\":14370:14419   */\n      mstore\n        /* \"#utility.yul\":14436:14454   */\n      0x64\n      add\n        /* \"contracts/VotingContract.sol\":4108:4178  require(proposal.state == ProposalState.Active, \"Proposal Not Active\") */\n      tag_92\n        /* \"#utility.yul\":14117:14460   */\n      jump\n        /* \"contracts/VotingContract.sol\":4108:4178  require(proposal.state == ProposalState.Active, \"Proposal Not Active\") */\n    tag_228:\n        /* \"contracts/VotingContract.sol\":4189:4203  proposal.state */\n      0x0b\n      dup2\n      add\n        /* \"contracts/VotingContract.sol\":4189:4228  proposal.state = ProposalState.Canceled */\n      dup1\n      sload\n      not(0xffff)\n        /* \"contracts/VotingContract.sol\":4238:4262  proposal.canceled = true */\n      and\n      0x0201\n      or\n      swap1\n      sstore\n        /* \"contracts/VotingContract.sol\":4278:4307  ProposalCanceled(_proposalId) */\n      mload(0x40)\n        /* \"contracts/VotingContract.sol\":4295:4306  _proposalId */\n      dup3\n      swap1\n        /* \"contracts/VotingContract.sol\":4278:4307  ProposalCanceled(_proposalId) */\n      0x789cf55be980739dad1d0699b93b58e806b51c9d96619bfa8fe0a28abaa7b30c\n      swap1\n      0x00\n      swap1\n      log2\n        /* \"contracts/VotingContract.sol\":3972:4314  {... */\n      pop\n        /* \"contracts/VotingContract.sol\":3909:4314  function cancelProposal(uint256 _proposalId) external onlyOwner{... */\n      pop\n      jump\t// out\n        /* \"contracts/VotingContract.sol\":8851:9042  function setVotingPeriod(uint256 _newVotingPeriod) external onlyOwner {... */\n    tag_75:\n        /* \"@openzeppelin/contracts/access/Ownable.sol\":1531:1544  _checkOwner() */\n      tag_234\n        /* \"@openzeppelin/contracts/access/Ownable.sol\":1531:1542  _checkOwner */\n      tag_125\n        /* \"@openzeppelin/contracts/access/Ownable.sol\":1531:1544  _checkOwner() */\n      jump\t// in\n    tag_234:\n        /* \"contracts/VotingContract.sol\":8958:8959  0 */\n      0x00\n        /* \"contracts/VotingContract.sol\":8939:8955  _newVotingPeriod */\n      dup2\n        /* \"contracts/VotingContract.sol\":8939:8959  _newVotingPeriod > 0 */\n      gt\n        /* \"contracts/VotingContract.sol\":8931:8994  require(_newVotingPeriod > 0, \"Voting period must be positive\") */\n      tag_236\n      jumpi\n      mload(0x40)\n      shl(0xe5, 0x461bcd)\n      dup2\n      mstore\n        /* \"#utility.yul\":14667:14669   */\n      0x20\n        /* \"contracts/VotingContract.sol\":8931:8994  require(_newVotingPeriod > 0, \"Voting period must be positive\") */\n      0x04\n      dup3\n      add\n        /* \"#utility.yul\":14649:14670   */\n      mstore\n        /* \"#utility.yul\":14706:14708   */\n      0x1e\n        /* \"#utility.yul\":14686:14704   */\n      0x24\n      dup3\n      add\n        /* \"#utility.yul\":14679:14709   */\n      mstore\n        /* \"#utility.yul\":14745:14777   */\n      0x566f74696e6720706572696f64206d75737420626520706f7369746976650000\n        /* \"#utility.yul\":14725:14743   */\n      0x44\n      dup3\n      add\n        /* \"#utility.yul\":14718:14778   */\n      mstore\n        /* \"#utility.yul\":14795:14813   */\n      0x64\n      add\n        /* \"contracts/VotingContract.sol\":8931:8994  require(_newVotingPeriod > 0, \"Voting period must be positive\") */\n      tag_92\n        /* \"#utility.yul\":14465:14819   */\n      jump\n        /* \"contracts/VotingContract.sol\":8931:8994  require(_newVotingPeriod > 0, \"Voting period must be positive\") */\n    tag_236:\n        /* \"contracts/VotingContract.sol\":9004:9016  votingPeriod */\n      0x03\n        /* \"contracts/VotingContract.sol\":9004:9035  votingPeriod = _newVotingPeriod */\n      sstore\n        /* \"contracts/VotingContract.sol\":8851:9042  function setVotingPeriod(uint256 _newVotingPeriod) external onlyOwner {... */\n      jump\t// out\n        /* \"@openzeppelin/contracts/access/Ownable.sol\":2543:2758  function transferOwnership(address newOwner) public virtual onlyOwner {... */\n    tag_83:\n        /* \"@openzeppelin/contracts/access/Ownable.sol\":1531:1544  _checkOwner() */\n      tag_240\n        /* \"@openzeppelin/contracts/access/Ownable.sol\":1531:1542  _checkOwner */\n      tag_125\n        /* \"@openzeppelin/contracts/access/Ownable.sol\":1531:1544  _checkOwner() */\n      jump\t// in\n    tag_240:\n      sub(shl(0xa0, 0x01), 0x01)\n        /* \"@openzeppelin/contracts/access/Ownable.sol\":2627:2649  newOwner == address(0) */\n      dup2\n      and\n        /* \"@openzeppelin/contracts/access/Ownable.sol\":2623:2714  if (newOwner == address(0)) {... */\n      tag_242\n      jumpi\n        /* \"@openzeppelin/contracts/access/Ownable.sol\":2672:2703  OwnableInvalidOwner(address(0)) */\n      mload(0x40)\n      shl(0xe0, 0x1e4fbdf7)\n      dup2\n      mstore\n        /* \"@openzeppelin/contracts/access/Ownable.sol\":2700:2701  0 */\n      0x00\n        /* \"@openzeppelin/contracts/access/Ownable.sol\":2672:2703  OwnableInvalidOwner(address(0)) */\n      0x04\n      dup3\n      add\n        /* \"#utility.yul\":2908:2959   */\n      mstore\n        /* \"#utility.yul\":2881:2899   */\n      0x24\n      add\n        /* \"@openzeppelin/contracts/access/Ownable.sol\":2672:2703  OwnableInvalidOwner(address(0)) */\n      tag_92\n        /* \"#utility.yul\":2762:2965   */\n      jump\n        /* \"@openzeppelin/contracts/access/Ownable.sol\":2623:2714  if (newOwner == address(0)) {... */\n    tag_242:\n        /* \"@openzeppelin/contracts/access/Ownable.sol\":2723:2751  _transferOwnership(newOwner) */\n      tag_244\n        /* \"@openzeppelin/contracts/access/Ownable.sol\":2742:2750  newOwner */\n      dup2\n        /* \"@openzeppelin/contracts/access/Ownable.sol\":2723:2741  _transferOwnership */\n      tag_145\n        /* \"@openzeppelin/contracts/access/Ownable.sol\":2723:2751  _transferOwnership(newOwner) */\n      jump\t// in\n    tag_244:\n        /* \"@openzeppelin/contracts/access/Ownable.sol\":2543:2758  function transferOwnership(address newOwner) public virtual onlyOwner {... */\n      pop\n      jump\t// out\n        /* \"@openzeppelin/contracts/utils/math/SafeMath.sol\":3465:3561  function mul(uint256 a, uint256 b) internal pure returns (uint256) {... */\n    tag_108:\n        /* \"@openzeppelin/contracts/utils/math/SafeMath.sol\":3523:3530  uint256 */\n      0x00\n        /* \"@openzeppelin/contracts/utils/math/SafeMath.sol\":3549:3554  a * b */\n      tag_246\n        /* \"@openzeppelin/contracts/utils/math/SafeMath.sol\":3553:3554  b */\n      dup3\n        /* \"@openzeppelin/contracts/utils/math/SafeMath.sol\":3549:3550  a */\n      dup5\n        /* \"@openzeppelin/contracts/utils/math/SafeMath.sol\":3549:3554  a * b */\n      tag_247\n      jump\t// in\n    tag_246:\n        /* \"@openzeppelin/contracts/utils/math/SafeMath.sol\":3542:3554  return a * b */\n      swap4\n        /* \"@openzeppelin/contracts/utils/math/SafeMath.sol\":3465:3561  function mul(uint256 a, uint256 b) internal pure returns (uint256) {... */\n      swap3\n      pop\n      pop\n      pop\n      jump\t// out\n        /* \"@openzeppelin/contracts/utils/math/SafeMath.sol\":3850:3946  function div(uint256 a, uint256 b) internal pure returns (uint256) {... */\n    tag_109:\n        /* \"@openzeppelin/contracts/utils/math/SafeMath.sol\":3908:3915  uint256 */\n      0x00\n        /* \"@openzeppelin/contracts/utils/math/SafeMath.sol\":3934:3939  a / b */\n      tag_246\n        /* \"@openzeppelin/contracts/utils/math/SafeMath.sol\":3938:3939  b */\n      dup3\n        /* \"@openzeppelin/contracts/utils/math/SafeMath.sol\":3934:3935  a */\n      dup5\n        /* \"@openzeppelin/contracts/utils/math/SafeMath.sol\":3934:3939  a / b */\n      tag_250\n      jump\t// in\n        /* \"@openzeppelin/contracts/access/Ownable.sol\":1796:1958  function _checkOwner() internal view virtual {... */\n    tag_125:\n        /* \"@openzeppelin/contracts/access/Ownable.sol\":1684:1691  address */\n      0x00\n        /* \"@openzeppelin/contracts/access/Ownable.sol\":1710:1716  _owner */\n      sload\n      sub(shl(0xa0, 0x01), 0x01)\n      and\n        /* \"@openzeppelin/contracts/utils/Context.sol\":735:745  msg.sender */\n      caller\n        /* \"@openzeppelin/contracts/access/Ownable.sol\":1855:1878  owner() != _msgSender() */\n      eq\n        /* \"@openzeppelin/contracts/access/Ownable.sol\":1851:1952  if (owner() != _msgSender()) {... */\n      tag_144\n      jumpi\n        /* \"@openzeppelin/contracts/access/Ownable.sol\":1901:1941  OwnableUnauthorizedAccount(_msgSender()) */\n      mload(0x40)\n      shl(0xe0, 0x118cdaa7)\n      dup2\n      mstore\n        /* \"@openzeppelin/contracts/utils/Context.sol\":735:745  msg.sender */\n      caller\n        /* \"@openzeppelin/contracts/access/Ownable.sol\":1901:1941  OwnableUnauthorizedAccount(_msgSender()) */\n      0x04\n      dup3\n      add\n        /* \"#utility.yul\":2908:2959   */\n      mstore\n        /* \"#utility.yul\":2881:2899   */\n      0x24\n      add\n        /* \"@openzeppelin/contracts/access/Ownable.sol\":1901:1941  OwnableUnauthorizedAccount(_msgSender()) */\n      tag_92\n        /* \"#utility.yul\":2762:2965   */\n      jump\n        /* \"@openzeppelin/contracts/utils/math/SafeMath.sol\":2755:2851  function add(uint256 a, uint256 b) internal pure returns (uint256) {... */\n    tag_128:\n        /* \"@openzeppelin/contracts/utils/math/SafeMath.sol\":2813:2820  uint256 */\n      0x00\n        /* \"@openzeppelin/contracts/utils/math/SafeMath.sol\":2839:2844  a + b */\n      tag_246\n        /* \"@openzeppelin/contracts/utils/math/SafeMath.sol\":2843:2844  b */\n      dup3\n        /* \"@openzeppelin/contracts/utils/math/SafeMath.sol\":2839:2840  a */\n      dup5\n        /* \"@openzeppelin/contracts/utils/math/SafeMath.sol\":2839:2844  a + b */\n      tag_136\n      jump\t// in\n        /* \"@openzeppelin/contracts/access/Ownable.sol\":2912:3099  function _transferOwnership(address newOwner) internal virtual {... */\n    tag_145:\n        /* \"@openzeppelin/contracts/access/Ownable.sol\":2985:3001  address oldOwner */\n      0x00\n        /* \"@openzeppelin/contracts/access/Ownable.sol\":3004:3010  _owner */\n      dup1\n      sload\n      sub(shl(0xa0, 0x01), 0x01)\n        /* \"@openzeppelin/contracts/access/Ownable.sol\":3020:3037  _owner = newOwner */\n      dup4\n      dup2\n      and\n      not(sub(shl(0xa0, 0x01), 0x01))\n      dup4\n      and\n      dup2\n      or\n      dup5\n      sstore\n        /* \"@openzeppelin/contracts/access/Ownable.sol\":3052:3092  OwnershipTransferred(oldOwner, newOwner) */\n      mload(0x40)\n        /* \"@openzeppelin/contracts/access/Ownable.sol\":3004:3010  _owner */\n      swap2\n      swap1\n      swap3\n      and\n      swap3\n      dup4\n      swap2\n        /* \"@openzeppelin/contracts/access/Ownable.sol\":3052:3092  OwnershipTransferred(oldOwner, newOwner) */\n      0x8be0079c531659141344cd1fd0a4f28419497f9722a3daafe3b4186f6b6457e0\n      swap2\n        /* \"@openzeppelin/contracts/access/Ownable.sol\":2985:3001  address oldOwner */\n      swap1\n        /* \"@openzeppelin/contracts/access/Ownable.sol\":3052:3092  OwnershipTransferred(oldOwner, newOwner) */\n      log3\n        /* \"@openzeppelin/contracts/access/Ownable.sol\":2975:3099  {... */\n      pop\n        /* \"@openzeppelin/contracts/access/Ownable.sol\":2912:3099  function _transferOwnership(address newOwner) internal virtual {... */\n      pop\n      jump\t// out\n        /* \"#utility.yul\":14:240   */\n    tag_24:\n        /* \"#utility.yul\":73:79   */\n      0x00\n        /* \"#utility.yul\":126:128   */\n      0x20\n        /* \"#utility.yul\":114:123   */\n      dup3\n        /* \"#utility.yul\":105:112   */\n      dup5\n        /* \"#utility.yul\":101:124   */\n      sub\n        /* \"#utility.yul\":97:129   */\n      slt\n        /* \"#utility.yul\":94:146   */\n      iszero\n      tag_273\n      jumpi\n        /* \"#utility.yul\":142:143   */\n      0x00\n        /* \"#utility.yul\":139:140   */\n      dup1\n        /* \"#utility.yul\":132:144   */\n      revert\n        /* \"#utility.yul\":94:146   */\n    tag_273:\n      pop\n        /* \"#utility.yul\":187:210   */\n      calldataload\n      swap2\n        /* \"#utility.yul\":14:240   */\n      swap1\n      pop\n      jump\t// out\n        /* \"#utility.yul\":245:534   */\n    tag_262:\n        /* \"#utility.yul\":287:290   */\n      0x00\n        /* \"#utility.yul\":325:330   */\n      dup2\n        /* \"#utility.yul\":319:331   */\n      mload\n        /* \"#utility.yul\":352:358   */\n      dup1\n        /* \"#utility.yul\":347:350   */\n      dup5\n        /* \"#utility.yul\":340:359   */\n      mstore\n        /* \"#utility.yul\":408:414   */\n      dup1\n        /* \"#utility.yul\":401:405   */\n      0x20\n        /* \"#utility.yul\":394:399   */\n      dup5\n        /* \"#utility.yul\":390:406   */\n      add\n        /* \"#utility.yul\":383:387   */\n      0x20\n        /* \"#utility.yul\":378:381   */\n      dup7\n        /* \"#utility.yul\":374:388   */\n      add\n        /* \"#utility.yul\":368:415   */\n      mcopy\n        /* \"#utility.yul\":460:461   */\n      0x00\n        /* \"#utility.yul\":453:457   */\n      0x20\n        /* \"#utility.yul\":444:450   */\n      dup3\n        /* \"#utility.yul\":439:442   */\n      dup7\n        /* \"#utility.yul\":435:451   */\n      add\n        /* \"#utility.yul\":431:458   */\n      add\n        /* \"#utility.yul\":424:462   */\n      mstore\n        /* \"#utility.yul\":523:527   */\n      0x20\n        /* \"#utility.yul\":516:518   */\n      0x1f\n        /* \"#utility.yul\":512:519   */\n      not\n        /* \"#utility.yul\":507:509   */\n      0x1f\n        /* \"#utility.yul\":499:505   */\n      dup4\n        /* \"#utility.yul\":495:510   */\n      add\n        /* \"#utility.yul\":491:520   */\n      and\n        /* \"#utility.yul\":486:489   */\n      dup6\n        /* \"#utility.yul\":482:521   */\n      add\n        /* \"#utility.yul\":478:528   */\n      add\n        /* \"#utility.yul\":471:528   */\n      swap2\n      pop\n      pop\n        /* \"#utility.yul\":245:534   */\n      swap3\n      swap2\n      pop\n      pop\n      jump\t// out\n        /* \"#utility.yul\":539:666   */\n    tag_96:\n        /* \"#utility.yul\":600:610   */\n      0x4e487b71\n        /* \"#utility.yul\":595:598   */\n      0xe0\n        /* \"#utility.yul\":591:611   */\n      shl\n        /* \"#utility.yul\":588:589   */\n      0x00\n        /* \"#utility.yul\":581:612   */\n      mstore\n        /* \"#utility.yul\":631:635   */\n      0x21\n        /* \"#utility.yul\":628:629   */\n      0x04\n        /* \"#utility.yul\":621:636   */\n      mstore\n        /* \"#utility.yul\":655:659   */\n      0x24\n        /* \"#utility.yul\":652:653   */\n      0x00\n        /* \"#utility.yul\":645:660   */\n      revert\n        /* \"#utility.yul\":671:815   */\n    tag_263:\n        /* \"#utility.yul\":756:757   */\n      0x05\n        /* \"#utility.yul\":749:754   */\n      dup2\n        /* \"#utility.yul\":746:758   */\n      lt\n        /* \"#utility.yul\":736:782   */\n      tag_278\n      jumpi\n        /* \"#utility.yul\":762:780   */\n      tag_278\n      tag_96\n      jump\t// in\n    tag_278:\n        /* \"#utility.yul\":791:809   */\n      swap1\n      mstore\n        /* \"#utility.yul\":671:815   */\n      jump\t// out\n        /* \"#utility.yul\":820:1983   */\n    tag_27:\n        /* \"#utility.yul\":1299:1324   */\n      dup14\n      dup2\n      mstore\n      sub(shl(0xa0, 0x01), 0x01)\n        /* \"#utility.yul\":1360:1392   */\n      dup14\n      and\n        /* \"#utility.yul\":1355:1357   */\n      0x20\n        /* \"#utility.yul\":1340:1358   */\n      dup3\n      add\n        /* \"#utility.yul\":1333:1393   */\n      mstore\n        /* \"#utility.yul\":1429:1432   */\n      0x01a0\n        /* \"#utility.yul\":1424:1426   */\n      0x40\n        /* \"#utility.yul\":1409:1427   */\n      dup3\n      add\n        /* \"#utility.yul\":1402:1433   */\n      dup2\n      swap1\n      mstore\n      0x00\n      swap1\n        /* \"#utility.yul\":1450:1496   */\n      tag_280\n      swap1\n        /* \"#utility.yul\":1476:1495   */\n      dup4\n      add\n        /* \"#utility.yul\":1468:1474   */\n      dup15\n        /* \"#utility.yul\":1450:1496   */\n      tag_262\n      jump\t// in\n    tag_280:\n        /* \"#utility.yul\":1442:1496   */\n      swap1\n      pop\n        /* \"#utility.yul\":1532:1538   */\n      dup12\n        /* \"#utility.yul\":1527:1529   */\n      0x60\n        /* \"#utility.yul\":1516:1525   */\n      dup4\n        /* \"#utility.yul\":1512:1530   */\n      add\n        /* \"#utility.yul\":1505:1539   */\n      mstore\n        /* \"#utility.yul\":1576:1582   */\n      dup11\n        /* \"#utility.yul\":1570:1573   */\n      0x80\n        /* \"#utility.yul\":1559:1568   */\n      dup4\n        /* \"#utility.yul\":1555:1574   */\n      add\n        /* \"#utility.yul\":1548:1583   */\n      mstore\n        /* \"#utility.yul\":1620:1626   */\n      dup10\n        /* \"#utility.yul\":1614:1617   */\n      0xa0\n        /* \"#utility.yul\":1603:1612   */\n      dup4\n        /* \"#utility.yul\":1599:1618   */\n      add\n        /* \"#utility.yul\":1592:1627   */\n      mstore\n        /* \"#utility.yul\":1664:1670   */\n      dup9\n        /* \"#utility.yul\":1658:1661   */\n      0xc0\n        /* \"#utility.yul\":1647:1656   */\n      dup4\n        /* \"#utility.yul\":1643:1662   */\n      add\n        /* \"#utility.yul\":1636:1671   */\n      mstore\n        /* \"#utility.yul\":1708:1714   */\n      dup8\n        /* \"#utility.yul\":1702:1705   */\n      0xe0\n        /* \"#utility.yul\":1691:1700   */\n      dup4\n        /* \"#utility.yul\":1687:1706   */\n      add\n        /* \"#utility.yul\":1680:1715   */\n      mstore\n        /* \"#utility.yul\":1752:1758   */\n      dup7\n        /* \"#utility.yul\":1746:1749   */\n      0x0100\n        /* \"#utility.yul\":1735:1744   */\n      dup4\n        /* \"#utility.yul\":1731:1750   */\n      add\n        /* \"#utility.yul\":1724:1759   */\n      mstore\n        /* \"#utility.yul\":1796:1802   */\n      dup6\n        /* \"#utility.yul\":1790:1793   */\n      0x0120\n        /* \"#utility.yul\":1779:1788   */\n      dup4\n        /* \"#utility.yul\":1775:1794   */\n      add\n        /* \"#utility.yul\":1768:1803   */\n      mstore\n        /* \"#utility.yul\":1840:1847   */\n      dup5\n        /* \"#utility.yul\":1834:1837   */\n      0x0140\n        /* \"#utility.yul\":1823:1832   */\n      dup4\n        /* \"#utility.yul\":1819:1838   */\n      add\n        /* \"#utility.yul\":1812:1848   */\n      mstore\n        /* \"#utility.yul\":1899:1906   */\n      dup4\n        /* \"#utility.yul\":1892:1907   */\n      iszero\n        /* \"#utility.yul\":1885:1908   */\n      iszero\n        /* \"#utility.yul\":1879:1882   */\n      0x0160\n        /* \"#utility.yul\":1868:1877   */\n      dup4\n        /* \"#utility.yul\":1864:1883   */\n      add\n        /* \"#utility.yul\":1857:1909   */\n      mstore\n        /* \"#utility.yul\":1918:1977   */\n      tag_281\n        /* \"#utility.yul\":1972:1975   */\n      0x0180\n        /* \"#utility.yul\":1961:1970   */\n      dup4\n        /* \"#utility.yul\":1957:1976   */\n      add\n        /* \"#utility.yul\":1948:1955   */\n      dup5\n        /* \"#utility.yul\":1918:1977   */\n      tag_263\n      jump\t// in\n    tag_281:\n        /* \"#utility.yul\":820:1983   */\n      swap15\n      swap14\n      pop\n      pop\n      pop\n      pop\n      pop\n      pop\n      pop\n      pop\n      pop\n      pop\n      pop\n      pop\n      pop\n      pop\n      jump\t// out\n        /* \"#utility.yul\":2170:2757   */\n    tag_43:\n        /* \"#utility.yul\":2241:2247   */\n      0x00\n        /* \"#utility.yul\":2249:2255   */\n      dup1\n        /* \"#utility.yul\":2302:2304   */\n      0x20\n        /* \"#utility.yul\":2290:2299   */\n      dup4\n        /* \"#utility.yul\":2281:2288   */\n      dup6\n        /* \"#utility.yul\":2277:2300   */\n      sub\n        /* \"#utility.yul\":2273:2305   */\n      slt\n        /* \"#utility.yul\":2270:2322   */\n      iszero\n      tag_284\n      jumpi\n        /* \"#utility.yul\":2318:2319   */\n      0x00\n        /* \"#utility.yul\":2315:2316   */\n      dup1\n        /* \"#utility.yul\":2308:2320   */\n      revert\n        /* \"#utility.yul\":2270:2322   */\n    tag_284:\n        /* \"#utility.yul\":2358:2367   */\n      dup3\n        /* \"#utility.yul\":2345:2368   */\n      calldataload\n        /* \"#utility.yul\":2391:2409   */\n      0xffffffffffffffff\n        /* \"#utility.yul\":2383:2389   */\n      dup2\n        /* \"#utility.yul\":2380:2410   */\n      gt\n        /* \"#utility.yul\":2377:2427   */\n      iszero\n      tag_285\n      jumpi\n        /* \"#utility.yul\":2423:2424   */\n      0x00\n        /* \"#utility.yul\":2420:2421   */\n      dup1\n        /* \"#utility.yul\":2413:2425   */\n      revert\n        /* \"#utility.yul\":2377:2427   */\n    tag_285:\n        /* \"#utility.yul\":2446:2468   */\n      dup4\n      add\n        /* \"#utility.yul\":2499:2503   */\n      0x1f\n        /* \"#utility.yul\":2491:2504   */\n      dup2\n      add\n        /* \"#utility.yul\":2487:2514   */\n      dup6\n      sgt\n        /* \"#utility.yul\":2477:2532   */\n      tag_286\n      jumpi\n        /* \"#utility.yul\":2528:2529   */\n      0x00\n        /* \"#utility.yul\":2525:2526   */\n      dup1\n        /* \"#utility.yul\":2518:2530   */\n      revert\n        /* \"#utility.yul\":2477:2532   */\n    tag_286:\n        /* \"#utility.yul\":2568:2570   */\n      dup1\n        /* \"#utility.yul\":2555:2571   */\n      calldataload\n        /* \"#utility.yul\":2594:2612   */\n      0xffffffffffffffff\n        /* \"#utility.yul\":2586:2592   */\n      dup2\n        /* \"#utility.yul\":2583:2613   */\n      gt\n        /* \"#utility.yul\":2580:2630   */\n      iszero\n      tag_287\n      jumpi\n        /* \"#utility.yul\":2626:2627   */\n      0x00\n        /* \"#utility.yul\":2623:2624   */\n      dup1\n        /* \"#utility.yul\":2616:2628   */\n      revert\n        /* \"#utility.yul\":2580:2630   */\n    tag_287:\n        /* \"#utility.yul\":2671:2678   */\n      dup6\n        /* \"#utility.yul\":2666:2668   */\n      0x20\n        /* \"#utility.yul\":2657:2663   */\n      dup3\n        /* \"#utility.yul\":2653:2655   */\n      dup5\n        /* \"#utility.yul\":2649:2664   */\n      add\n        /* \"#utility.yul\":2645:2669   */\n      add\n        /* \"#utility.yul\":2642:2679   */\n      gt\n        /* \"#utility.yul\":2639:2696   */\n      iszero\n      tag_288\n      jumpi\n        /* \"#utility.yul\":2692:2693   */\n      0x00\n        /* \"#utility.yul\":2689:2690   */\n      dup1\n        /* \"#utility.yul\":2682:2694   */\n      revert\n        /* \"#utility.yul\":2639:2696   */\n    tag_288:\n        /* \"#utility.yul\":2723:2725   */\n      0x20\n        /* \"#utility.yul\":2715:2726   */\n      swap2\n      swap1\n      swap2\n      add\n      swap6\n        /* \"#utility.yul\":2745:2751   */\n      swap1\n      swap5\n      pop\n        /* \"#utility.yul\":2170:2757   */\n      swap3\n      pop\n      pop\n      pop\n      jump\t// out\n        /* \"#utility.yul\":2970:3143   */\n    tag_264:\n        /* \"#utility.yul\":3038:3058   */\n      dup1\n      calldataload\n      sub(shl(0xa0, 0x01), 0x01)\n        /* \"#utility.yul\":3087:3118   */\n      dup2\n      and\n        /* \"#utility.yul\":3077:3119   */\n      dup2\n      eq\n        /* \"#utility.yul\":3067:3137   */\n      tag_291\n      jumpi\n        /* \"#utility.yul\":3133:3134   */\n      0x00\n        /* \"#utility.yul\":3130:3131   */\n      dup1\n        /* \"#utility.yul\":3123:3135   */\n      revert\n        /* \"#utility.yul\":3067:3137   */\n    tag_291:\n        /* \"#utility.yul\":2970:3143   */\n      swap2\n      swap1\n      pop\n      jump\t// out\n        /* \"#utility.yul\":3148:3448   */\n    tag_54:\n        /* \"#utility.yul\":3216:3222   */\n      0x00\n        /* \"#utility.yul\":3224:3230   */\n      dup1\n        /* \"#utility.yul\":3277:3279   */\n      0x40\n        /* \"#utility.yul\":3265:3274   */\n      dup4\n        /* \"#utility.yul\":3256:3263   */\n      dup6\n        /* \"#utility.yul\":3252:3275   */\n      sub\n        /* \"#utility.yul\":3248:3280   */\n      slt\n        /* \"#utility.yul\":3245:3297   */\n      iszero\n      tag_293\n      jumpi\n        /* \"#utility.yul\":3293:3294   */\n      0x00\n        /* \"#utility.yul\":3290:3291   */\n      dup1\n        /* \"#utility.yul\":3283:3295   */\n      revert\n        /* \"#utility.yul\":3245:3297   */\n    tag_293:\n        /* \"#utility.yul\":3338:3361   */\n      dup3\n      calldataload\n      swap2\n      pop\n        /* \"#utility.yul\":3404:3442   */\n      tag_294\n        /* \"#utility.yul\":3438:3440   */\n      0x20\n        /* \"#utility.yul\":3423:3441   */\n      dup5\n      add\n        /* \"#utility.yul\":3404:3442   */\n      tag_264\n      jump\t// in\n    tag_294:\n        /* \"#utility.yul\":3394:3442   */\n      swap1\n      pop\n        /* \"#utility.yul\":3148:3448   */\n      swap3\n      pop\n      swap3\n      swap1\n      pop\n      jump\t// out\n        /* \"#utility.yul\":3453:3592   */\n    tag_265:\n        /* \"#utility.yul\":3533:3534   */\n      0x03\n        /* \"#utility.yul\":3526:3531   */\n      dup2\n        /* \"#utility.yul\":3523:3535   */\n      lt\n        /* \"#utility.yul\":3513:3559   */\n      tag_278\n      jumpi\n        /* \"#utility.yul\":3539:3557   */\n      tag_278\n      tag_96\n      jump\t// in\n        /* \"#utility.yul\":3597:3883   */\n    tag_57:\n        /* \"#utility.yul\":3800:3814   */\n      dup3\n      iszero\n        /* \"#utility.yul\":3793:3815   */\n      iszero\n        /* \"#utility.yul\":3775:3816   */\n      dup2\n      mstore\n        /* \"#utility.yul\":3763:3765   */\n      0x40\n        /* \"#utility.yul\":3748:3766   */\n      dup2\n      add\n        /* \"#utility.yul\":3825:3877   */\n      tag_246\n        /* \"#utility.yul\":3873:3875   */\n      0x20\n        /* \"#utility.yul\":3858:3876   */\n      dup4\n      add\n        /* \"#utility.yul\":3850:3856   */\n      dup5\n        /* \"#utility.yul\":3825:3877   */\n      tag_265\n      jump\t// in\n        /* \"#utility.yul\":3888:4276   */\n    tag_63:\n        /* \"#utility.yul\":3968:3974   */\n      0x00\n        /* \"#utility.yul\":3976:3982   */\n      dup1\n        /* \"#utility.yul\":4029:4031   */\n      0x40\n        /* \"#utility.yul\":4017:4026   */\n      dup4\n        /* \"#utility.yul\":4008:4015   */\n      dup6\n        /* \"#utility.yul\":4004:4027   */\n      sub\n        /* \"#utility.yul\":4000:4032   */\n      slt\n        /* \"#utility.yul\":3997:4049   */\n      iszero\n      tag_301\n      jumpi\n        /* \"#utility.yul\":4045:4046   */\n      0x00\n        /* \"#utility.yul\":4042:4043   */\n      dup1\n        /* \"#utility.yul\":4035:4047   */\n      revert\n        /* \"#utility.yul\":3997:4049   */\n    tag_301:\n        /* \"#utility.yul\":4090:4113   */\n      dup3\n      calldataload\n      swap2\n      pop\n        /* \"#utility.yul\":4189:4191   */\n      0x20\n        /* \"#utility.yul\":4174:4192   */\n      dup4\n      add\n        /* \"#utility.yul\":4161:4193   */\n      calldataload\n        /* \"#utility.yul\":4224:4225   */\n      0x03\n        /* \"#utility.yul\":4212:4226   */\n      dup2\n      lt\n        /* \"#utility.yul\":4202:4244   */\n      tag_302\n      jumpi\n        /* \"#utility.yul\":4240:4241   */\n      0x00\n        /* \"#utility.yul\":4237:4238   */\n      dup1\n        /* \"#utility.yul\":4230:4242   */\n      revert\n        /* \"#utility.yul\":4202:4244   */\n    tag_302:\n        /* \"#utility.yul\":4263:4270   */\n      dup1\n        /* \"#utility.yul\":4253:4270   */\n      swap2\n      pop\n      pop\n        /* \"#utility.yul\":3888:4276   */\n      swap3\n      pop\n      swap3\n      swap1\n      pop\n      jump\t// out\n        /* \"#utility.yul\":4281:5370   */\n    tag_69:\n        /* \"#utility.yul\":4731:4756   */\n      dup13\n      dup2\n      mstore\n      sub(shl(0xa0, 0x01), 0x01)\n        /* \"#utility.yul\":4792:4824   */\n      dup13\n      and\n        /* \"#utility.yul\":4787:4789   */\n      0x20\n        /* \"#utility.yul\":4772:4790   */\n      dup3\n      add\n        /* \"#utility.yul\":4765:4825   */\n      mstore\n        /* \"#utility.yul\":4861:4864   */\n      0x0180\n        /* \"#utility.yul\":4856:4858   */\n      0x40\n        /* \"#utility.yul\":4841:4859   */\n      dup3\n      add\n        /* \"#utility.yul\":4834:4865   */\n      dup2\n      swap1\n      mstore\n      0x00\n      swap1\n        /* \"#utility.yul\":4882:4928   */\n      tag_304\n      swap1\n        /* \"#utility.yul\":4908:4927   */\n      dup4\n      add\n        /* \"#utility.yul\":4900:4906   */\n      dup14\n        /* \"#utility.yul\":4882:4928   */\n      tag_262\n      jump\t// in\n    tag_304:\n        /* \"#utility.yul\":4874:4928   */\n      swap1\n      pop\n        /* \"#utility.yul\":4964:4970   */\n      dup11\n        /* \"#utility.yul\":4959:4961   */\n      0x60\n        /* \"#utility.yul\":4948:4957   */\n      dup4\n        /* \"#utility.yul\":4944:4962   */\n      add\n        /* \"#utility.yul\":4937:4971   */\n      mstore\n        /* \"#utility.yul\":5008:5014   */\n      dup10\n        /* \"#utility.yul\":5002:5005   */\n      0x80\n        /* \"#utility.yul\":4991:5000   */\n      dup4\n        /* \"#utility.yul\":4987:5006   */\n      add\n        /* \"#utility.yul\":4980:5015   */\n      mstore\n        /* \"#utility.yul\":5052:5058   */\n      dup9\n        /* \"#utility.yul\":5046:5049   */\n      0xa0\n        /* \"#utility.yul\":5035:5044   */\n      dup4\n        /* \"#utility.yul\":5031:5050   */\n      add\n        /* \"#utility.yul\":5024:5059   */\n      mstore\n        /* \"#utility.yul\":5096:5102   */\n      dup8\n        /* \"#utility.yul\":5090:5093   */\n      0xc0\n        /* \"#utility.yul\":5079:5088   */\n      dup4\n        /* \"#utility.yul\":5075:5094   */\n      add\n        /* \"#utility.yul\":5068:5103   */\n      mstore\n        /* \"#utility.yul\":5140:5146   */\n      dup7\n        /* \"#utility.yul\":5134:5137   */\n      0xe0\n        /* \"#utility.yul\":5123:5132   */\n      dup4\n        /* \"#utility.yul\":5119:5138   */\n      add\n        /* \"#utility.yul\":5112:5147   */\n      mstore\n        /* \"#utility.yul\":5184:5190   */\n      dup6\n        /* \"#utility.yul\":5178:5181   */\n      0x0100\n        /* \"#utility.yul\":5167:5176   */\n      dup4\n        /* \"#utility.yul\":5163:5182   */\n      add\n        /* \"#utility.yul\":5156:5191   */\n      mstore\n        /* \"#utility.yul\":5228:5234   */\n      dup5\n        /* \"#utility.yul\":5222:5225   */\n      0x0120\n        /* \"#utility.yul\":5211:5220   */\n      dup4\n        /* \"#utility.yul\":5207:5226   */\n      add\n        /* \"#utility.yul\":5200:5235   */\n      mstore\n        /* \"#utility.yul\":5286:5293   */\n      dup4\n        /* \"#utility.yul\":5279:5294   */\n      iszero\n        /* \"#utility.yul\":5272:5295   */\n      iszero\n        /* \"#utility.yul\":5266:5269   */\n      0x0140\n        /* \"#utility.yul\":5255:5264   */\n      dup4\n        /* \"#utility.yul\":5251:5270   */\n      add\n        /* \"#utility.yul\":5244:5296   */\n      mstore\n        /* \"#utility.yul\":5305:5364   */\n      tag_305\n        /* \"#utility.yul\":5359:5362   */\n      0x0160\n        /* \"#utility.yul\":5348:5357   */\n      dup4\n        /* \"#utility.yul\":5344:5363   */\n      add\n        /* \"#utility.yul\":5335:5342   */\n      dup5\n        /* \"#utility.yul\":5305:5364   */\n      tag_263\n      jump\t// in\n    tag_305:\n        /* \"#utility.yul\":4281:5370   */\n      swap14\n      swap13\n      pop\n      pop\n      pop\n      pop\n      pop\n      pop\n      pop\n      pop\n      pop\n      pop\n      pop\n      pop\n      pop\n      jump\t// out\n        /* \"#utility.yul\":5607:5793   */\n    tag_82:\n        /* \"#utility.yul\":5666:5672   */\n      0x00\n        /* \"#utility.yul\":5719:5721   */\n      0x20\n        /* \"#utility.yul\":5707:5716   */\n      dup3\n        /* \"#utility.yul\":5698:5705   */\n      dup5\n        /* \"#utility.yul\":5694:5717   */\n      sub\n        /* \"#utility.yul\":5690:5722   */\n      slt\n        /* \"#utility.yul\":5687:5739   */\n      iszero\n      tag_308\n      jumpi\n        /* \"#utility.yul\":5735:5736   */\n      0x00\n        /* \"#utility.yul\":5732:5733   */\n      dup1\n        /* \"#utility.yul\":5725:5737   */\n      revert\n        /* \"#utility.yul\":5687:5739   */\n    tag_308:\n        /* \"#utility.yul\":5758:5787   */\n      tag_246\n        /* \"#utility.yul\":5777:5786   */\n      dup3\n        /* \"#utility.yul\":5758:5787   */\n      tag_264\n      jump\t// in\n        /* \"#utility.yul\":5798:6178   */\n    tag_85:\n        /* \"#utility.yul\":5877:5878   */\n      0x01\n        /* \"#utility.yul\":5873:5885   */\n      dup2\n      dup2\n      shr\n      swap1\n        /* \"#utility.yul\":5920:5932   */\n      dup3\n      and\n      dup1\n        /* \"#utility.yul\":5941:6002   */\n      tag_311\n      jumpi\n        /* \"#utility.yul\":5995:5999   */\n      0x7f\n        /* \"#utility.yul\":5987:5993   */\n      dup3\n        /* \"#utility.yul\":5983:6000   */\n      and\n        /* \"#utility.yul\":5973:6000   */\n      swap2\n      pop\n        /* \"#utility.yul\":5941:6002   */\n    tag_311:\n        /* \"#utility.yul\":6048:6050   */\n      0x20\n        /* \"#utility.yul\":6040:6046   */\n      dup3\n        /* \"#utility.yul\":6037:6051   */\n      lt\n        /* \"#utility.yul\":6017:6035   */\n      dup2\n        /* \"#utility.yul\":6014:6052   */\n      sub\n        /* \"#utility.yul\":6011:6172   */\n      tag_312\n      jumpi\n        /* \"#utility.yul\":6094:6104   */\n      0x4e487b71\n        /* \"#utility.yul\":6089:6092   */\n      0xe0\n        /* \"#utility.yul\":6085:6105   */\n      shl\n        /* \"#utility.yul\":6082:6083   */\n      0x00\n        /* \"#utility.yul\":6075:6106   */\n      mstore\n        /* \"#utility.yul\":6129:6133   */\n      0x22\n        /* \"#utility.yul\":6126:6127   */\n      0x04\n        /* \"#utility.yul\":6119:6134   */\n      mstore\n        /* \"#utility.yul\":6157:6161   */\n      0x24\n        /* \"#utility.yul\":6154:6155   */\n      0x00\n        /* \"#utility.yul\":6147:6162   */\n      revert\n        /* \"#utility.yul\":6011:6172   */\n    tag_312:\n      pop\n        /* \"#utility.yul\":5798:6178   */\n      swap2\n      swap1\n      pop\n      jump\t// out\n        /* \"#utility.yul\":6183:6530   */\n    tag_93:\n        /* \"#utility.yul\":6385:6387   */\n      0x20\n        /* \"#utility.yul\":6367:6388   */\n      dup1\n      dup3\n      mstore\n        /* \"#utility.yul\":6424:6426   */\n      0x17\n        /* \"#utility.yul\":6404:6422   */\n      swap1\n      dup3\n      add\n        /* \"#utility.yul\":6397:6427   */\n      mstore\n        /* \"#utility.yul\":6463:6488   */\n      0x50726f706f73616c20646f6573206e6f74206578697374000000000000000000\n        /* \"#utility.yul\":6458:6460   */\n      0x40\n        /* \"#utility.yul\":6443:6461   */\n      dup3\n      add\n        /* \"#utility.yul\":6436:6489   */\n      mstore\n        /* \"#utility.yul\":6521:6523   */\n      0x60\n        /* \"#utility.yul\":6506:6524   */\n      add\n      swap1\n        /* \"#utility.yul\":6183:6530   */\n      jump\t// out\n        /* \"#utility.yul\":7301:7730   */\n    tag_122:\n        /* \"#utility.yul\":7534:7537   */\n      0x80\n        /* \"#utility.yul\":7519:7538   */\n      dup2\n      add\n        /* \"#utility.yul\":7547:7595   */\n      tag_317\n        /* \"#utility.yul\":7523:7532   */\n      dup3\n        /* \"#utility.yul\":7577:7583   */\n      dup8\n        /* \"#utility.yul\":7547:7595   */\n      tag_263\n      jump\t// in\n    tag_317:\n        /* \"#utility.yul\":7631:7637   */\n      dup5\n        /* \"#utility.yul\":7626:7628   */\n      0x20\n        /* \"#utility.yul\":7615:7624   */\n      dup4\n        /* \"#utility.yul\":7611:7629   */\n      add\n        /* \"#utility.yul\":7604:7638   */\n      mstore\n        /* \"#utility.yul\":7674:7680   */\n      dup4\n        /* \"#utility.yul\":7669:7671   */\n      0x40\n        /* \"#utility.yul\":7658:7667   */\n      dup4\n        /* \"#utility.yul\":7654:7672   */\n      add\n        /* \"#utility.yul\":7647:7681   */\n      mstore\n        /* \"#utility.yul\":7717:7723   */\n      dup3\n        /* \"#utility.yul\":7712:7714   */\n      0x60\n        /* \"#utility.yul\":7701:7710   */\n      dup4\n        /* \"#utility.yul\":7697:7715   */\n      add\n        /* \"#utility.yul\":7690:7724   */\n      mstore\n        /* \"#utility.yul\":7301:7730   */\n      swap6\n      swap5\n      pop\n      pop\n      pop\n      pop\n      pop\n      jump\t// out\n        /* \"#utility.yul\":7735:7919   */\n    tag_132:\n        /* \"#utility.yul\":7805:7811   */\n      0x00\n        /* \"#utility.yul\":7858:7860   */\n      0x20\n        /* \"#utility.yul\":7846:7855   */\n      dup3\n        /* \"#utility.yul\":7837:7844   */\n      dup5\n        /* \"#utility.yul\":7833:7856   */\n      sub\n        /* \"#utility.yul\":7829:7861   */\n      slt\n        /* \"#utility.yul\":7826:7878   */\n      iszero\n      tag_319\n      jumpi\n        /* \"#utility.yul\":7874:7875   */\n      0x00\n        /* \"#utility.yul\":7871:7872   */\n      dup1\n        /* \"#utility.yul\":7864:7876   */\n      revert\n        /* \"#utility.yul\":7826:7878   */\n    tag_319:\n      pop\n        /* \"#utility.yul\":7897:7913   */\n      mload\n      swap2\n        /* \"#utility.yul\":7735:7919   */\n      swap1\n      pop\n      jump\t// out\n        /* \"#utility.yul\":7924:8051   */\n    tag_266:\n        /* \"#utility.yul\":7985:7995   */\n      0x4e487b71\n        /* \"#utility.yul\":7980:7983   */\n      0xe0\n        /* \"#utility.yul\":7976:7996   */\n      shl\n        /* \"#utility.yul\":7973:7974   */\n      0x00\n        /* \"#utility.yul\":7966:7997   */\n      mstore\n        /* \"#utility.yul\":8016:8020   */\n      0x41\n        /* \"#utility.yul\":8013:8014   */\n      0x04\n        /* \"#utility.yul\":8006:8021   */\n      mstore\n        /* \"#utility.yul\":8040:8044   */\n      0x24\n        /* \"#utility.yul\":8037:8038   */\n      0x00\n        /* \"#utility.yul\":8030:8045   */\n      revert\n        /* \"#utility.yul\":8182:8700   */\n    tag_268:\n        /* \"#utility.yul\":8284:8286   */\n      0x1f\n        /* \"#utility.yul\":8279:8282   */\n      dup3\n        /* \"#utility.yul\":8276:8287   */\n      gt\n        /* \"#utility.yul\":8273:8694   */\n      iszero\n      tag_323\n      jumpi\n        /* \"#utility.yul\":8320:8325   */\n      dup1\n        /* \"#utility.yul\":8317:8318   */\n      0x00\n        /* \"#utility.yul\":8310:8326   */\n      mstore\n        /* \"#utility.yul\":8364:8368   */\n      0x20\n        /* \"#utility.yul\":8361:8362   */\n      0x00\n        /* \"#utility.yul\":8351:8369   */\n      keccak256\n        /* \"#utility.yul\":8434:8436   */\n      0x1f\n        /* \"#utility.yul\":8422:8432   */\n      dup5\n        /* \"#utility.yul\":8418:8437   */\n      add\n        /* \"#utility.yul\":8415:8416   */\n      0x05\n        /* \"#utility.yul\":8411:8438   */\n      shr\n        /* \"#utility.yul\":8405:8409   */\n      dup2\n        /* \"#utility.yul\":8401:8439   */\n      add\n        /* \"#utility.yul\":8470:8474   */\n      0x20\n        /* \"#utility.yul\":8458:8468   */\n      dup6\n        /* \"#utility.yul\":8455:8475   */\n      lt\n        /* \"#utility.yul\":8452:8499   */\n      iszero\n      tag_324\n      jumpi\n      pop\n        /* \"#utility.yul\":8493:8497   */\n      dup1\n        /* \"#utility.yul\":8452:8499   */\n    tag_324:\n        /* \"#utility.yul\":8548:8550   */\n      0x1f\n        /* \"#utility.yul\":8543:8546   */\n      dup5\n        /* \"#utility.yul\":8539:8551   */\n      add\n        /* \"#utility.yul\":8536:8537   */\n      0x05\n        /* \"#utility.yul\":8532:8552   */\n      shr\n        /* \"#utility.yul\":8526:8530   */\n      dup3\n        /* \"#utility.yul\":8522:8553   */\n      add\n        /* \"#utility.yul\":8512:8553   */\n      swap2\n      pop\n        /* \"#utility.yul\":8603:8684   */\n    tag_325:\n        /* \"#utility.yul\":8621:8623   */\n      dup2\n        /* \"#utility.yul\":8614:8619   */\n      dup2\n        /* \"#utility.yul\":8611:8624   */\n      lt\n        /* \"#utility.yul\":8603:8684   */\n      iszero\n      tag_327\n      jumpi\n        /* \"#utility.yul\":8680:8681   */\n      0x00\n        /* \"#utility.yul\":8666:8682   */\n      dup2\n      sstore\n        /* \"#utility.yul\":8647:8648   */\n      0x01\n        /* \"#utility.yul\":8636:8649   */\n      add\n        /* \"#utility.yul\":8603:8684   */\n      jump(tag_325)\n    tag_327:\n        /* \"#utility.yul\":8607:8610   */\n      pop\n      pop\n        /* \"#utility.yul\":8273:8694   */\n    tag_323:\n        /* \"#utility.yul\":8182:8700   */\n      pop\n      pop\n      pop\n      jump\t// out\n        /* \"#utility.yul\":8876:10074   */\n    tag_134:\n        /* \"#utility.yul\":9000:9018   */\n      0xffffffffffffffff\n        /* \"#utility.yul\":8995:8998   */\n      dup4\n        /* \"#utility.yul\":8992:9019   */\n      gt\n        /* \"#utility.yul\":8989:9042   */\n      iszero\n      tag_331\n      jumpi\n        /* \"#utility.yul\":9022:9040   */\n      tag_331\n      tag_266\n      jump\t// in\n    tag_331:\n        /* \"#utility.yul\":9051:9145   */\n      tag_332\n        /* \"#utility.yul\":9141:9144   */\n      dup4\n        /* \"#utility.yul\":9101:9139   */\n      tag_333\n        /* \"#utility.yul\":9133:9137   */\n      dup4\n        /* \"#utility.yul\":9127:9138   */\n      sload\n        /* \"#utility.yul\":9101:9139   */\n      tag_85\n      jump\t// in\n    tag_333:\n        /* \"#utility.yul\":9095:9099   */\n      dup4\n        /* \"#utility.yul\":9051:9145   */\n      tag_268\n      jump\t// in\n    tag_332:\n        /* \"#utility.yul\":9171:9172   */\n      0x00\n        /* \"#utility.yul\":9196:9198   */\n      0x1f\n        /* \"#utility.yul\":9191:9194   */\n      dup5\n        /* \"#utility.yul\":9188:9199   */\n      gt\n        /* \"#utility.yul\":9213:9214   */\n      0x01\n        /* \"#utility.yul\":9208:9816   */\n      dup2\n      eq\n      tag_335\n      jumpi\n        /* \"#utility.yul\":9860:9861   */\n      0x00\n        /* \"#utility.yul\":9877:9880   */\n      dup6\n        /* \"#utility.yul\":9874:9967   */\n      iszero\n      tag_336\n      jumpi\n      pop\n        /* \"#utility.yul\":9933:9952   */\n      dup4\n      dup3\n      add\n        /* \"#utility.yul\":9920:9953   */\n      calldataload\n        /* \"#utility.yul\":9874:9967   */\n    tag_336:\n      not(0x00)\n        /* \"#utility.yul\":8833:8834   */\n      0x03\n        /* \"#utility.yul\":8829:8840   */\n      dup8\n      swap1\n      shl\n        /* \"#utility.yul\":8825:8849   */\n      shr\n        /* \"#utility.yul\":8821:8850   */\n      not\n        /* \"#utility.yul\":8811:8851   */\n      and\n        /* \"#utility.yul\":8857:8858   */\n      0x01\n        /* \"#utility.yul\":8853:8864   */\n      dup7\n      swap1\n      shl\n        /* \"#utility.yul\":8808:8865   */\n      or\n        /* \"#utility.yul\":9980:10058   */\n      dup4\n      sstore\n        /* \"#utility.yul\":9181:10068   */\n      jump(tag_327)\n        /* \"#utility.yul\":9208:9816   */\n    tag_335:\n        /* \"#utility.yul\":8129:8130   */\n      0x00\n        /* \"#utility.yul\":8122:8136   */\n      dup4\n      dup2\n      mstore\n        /* \"#utility.yul\":8166:8170   */\n      0x20\n        /* \"#utility.yul\":8153:8171   */\n      dup2\n      keccak256\n      not(0x1f)\n        /* \"#utility.yul\":9244:9261   */\n      dup8\n      and\n      swap2\n        /* \"#utility.yul\":9359:9588   */\n    tag_339:\n        /* \"#utility.yul\":9373:9380   */\n      dup3\n        /* \"#utility.yul\":9370:9371   */\n      dup2\n        /* \"#utility.yul\":9367:9381   */\n      lt\n        /* \"#utility.yul\":9359:9588   */\n      iszero\n      tag_341\n      jumpi\n        /* \"#utility.yul\":9462:9481   */\n      dup7\n      dup6\n      add\n        /* \"#utility.yul\":9449:9482   */\n      calldataload\n        /* \"#utility.yul\":9434:9483   */\n      dup3\n      sstore\n        /* \"#utility.yul\":9569:9573   */\n      0x20\n        /* \"#utility.yul\":9554:9574   */\n      swap5\n      dup6\n      add\n      swap5\n        /* \"#utility.yul\":9522:9523   */\n      0x01\n        /* \"#utility.yul\":9510:9524   */\n      swap1\n      swap3\n      add\n      swap2\n        /* \"#utility.yul\":9389:9401   */\n      add\n        /* \"#utility.yul\":9359:9588   */\n      jump(tag_339)\n    tag_341:\n        /* \"#utility.yul\":9363:9366   */\n      pop\n        /* \"#utility.yul\":9616:9619   */\n      dup7\n        /* \"#utility.yul\":9607:9614   */\n      dup3\n        /* \"#utility.yul\":9604:9620   */\n      lt\n        /* \"#utility.yul\":9601:9760   */\n      iszero\n      tag_342\n      jumpi\n        /* \"#utility.yul\":9740:9741   */\n      0x00\n        /* \"#utility.yul\":9736:9742   */\n      not\n        /* \"#utility.yul\":9730:9733   */\n      0xf8\n        /* \"#utility.yul\":9724:9727   */\n      dup9\n        /* \"#utility.yul\":9721:9722   */\n      0x03\n        /* \"#utility.yul\":9717:9728   */\n      shl\n        /* \"#utility.yul\":9713:9734   */\n      and\n        /* \"#utility.yul\":9709:9743   */\n      shr\n        /* \"#utility.yul\":9705:9744   */\n      not\n        /* \"#utility.yul\":9692:9701   */\n      dup5\n        /* \"#utility.yul\":9687:9690   */\n      dup8\n        /* \"#utility.yul\":9683:9702   */\n      add\n        /* \"#utility.yul\":9670:9703   */\n      calldataload\n        /* \"#utility.yul\":9666:9745   */\n      and\n        /* \"#utility.yul\":9658:9664   */\n      dup2\n        /* \"#utility.yul\":9651:9746   */\n      sstore\n        /* \"#utility.yul\":9601:9760   */\n    tag_342:\n      pop\n      pop\n        /* \"#utility.yul\":9803:9804   */\n      0x01\n        /* \"#utility.yul\":9797:9800   */\n      dup6\n        /* \"#utility.yul\":9794:9795   */\n      0x01\n        /* \"#utility.yul\":9790:9801   */\n      shl\n        /* \"#utility.yul\":9786:9805   */\n      add\n        /* \"#utility.yul\":9780:9784   */\n      dup4\n        /* \"#utility.yul\":9773:9806   */\n      sstore\n        /* \"#utility.yul\":9181:10068   */\n      pop\n      pop\n        /* \"#utility.yul\":8876:10074   */\n      pop\n      pop\n      pop\n      jump\t// out\n        /* \"#utility.yul\":10079:10206   */\n    tag_270:\n        /* \"#utility.yul\":10140:10150   */\n      0x4e487b71\n        /* \"#utility.yul\":10135:10138   */\n      0xe0\n        /* \"#utility.yul\":10131:10151   */\n      shl\n        /* \"#utility.yul\":10128:10129   */\n      0x00\n        /* \"#utility.yul\":10121:10152   */\n      mstore\n        /* \"#utility.yul\":10171:10175   */\n      0x11\n        /* \"#utility.yul\":10168:10169   */\n      0x04\n        /* \"#utility.yul\":10161:10176   */\n      mstore\n        /* \"#utility.yul\":10195:10199   */\n      0x24\n        /* \"#utility.yul\":10192:10193   */\n      0x00\n        /* \"#utility.yul\":10185:10200   */\n      revert\n        /* \"#utility.yul\":10211:10336   */\n    tag_136:\n        /* \"#utility.yul\":10276:10285   */\n      dup1\n      dup3\n      add\n        /* \"#utility.yul\":10297:10307   */\n      dup1\n      dup3\n      gt\n        /* \"#utility.yul\":10294:10330   */\n      iszero\n      tag_126\n      jumpi\n        /* \"#utility.yul\":10310:10328   */\n      tag_126\n      tag_270\n      jump\t// in\n        /* \"#utility.yul\":10341:10951   */\n    tag_140:\n        /* \"#utility.yul\":10584:10587   */\n      0x80\n        /* \"#utility.yul\":10573:10582   */\n      dup2\n        /* \"#utility.yul\":10566:10588   */\n      mstore\n        /* \"#utility.yul\":10625:10631   */\n      dup5\n        /* \"#utility.yul\":10619:10622   */\n      0x80\n        /* \"#utility.yul\":10608:10617   */\n      dup3\n        /* \"#utility.yul\":10604:10623   */\n      add\n        /* \"#utility.yul\":10597:10632   */\n      mstore\n        /* \"#utility.yul\":10683:10689   */\n      dup5\n        /* \"#utility.yul\":10675:10681   */\n      dup7\n        /* \"#utility.yul\":10669:10672   */\n      0xa0\n        /* \"#utility.yul\":10658:10667   */\n      dup4\n        /* \"#utility.yul\":10654:10673   */\n      add\n        /* \"#utility.yul\":10641:10690   */\n      calldatacopy\n        /* \"#utility.yul\":10740:10741   */\n      0x00\n        /* \"#utility.yul\":10734:10737   */\n      0xa0\n        /* \"#utility.yul\":10725:10731   */\n      dup7\n        /* \"#utility.yul\":10714:10723   */\n      dup4\n        /* \"#utility.yul\":10710:10732   */\n      add\n        /* \"#utility.yul\":10706:10738   */\n      add\n        /* \"#utility.yul\":10699:10742   */\n      mstore\n        /* \"#utility.yul\":10547:10551   */\n      0x00\n        /* \"#utility.yul\":10810:10813   */\n      0xa0\n        /* \"#utility.yul\":10803:10805   */\n      0x1f\n        /* \"#utility.yul\":10799:10806   */\n      not\n        /* \"#utility.yul\":10794:10796   */\n      0x1f\n        /* \"#utility.yul\":10786:10792   */\n      dup9\n        /* \"#utility.yul\":10782:10797   */\n      add\n        /* \"#utility.yul\":10778:10807   */\n      and\n        /* \"#utility.yul\":10767:10776   */\n      dup4\n        /* \"#utility.yul\":10763:10808   */\n      add\n        /* \"#utility.yul\":10759:10814   */\n      add\n        /* \"#utility.yul\":10751:10814   */\n      swap1\n      pop\n        /* \"#utility.yul\":10852:10858   */\n      dup5\n        /* \"#utility.yul\":10845:10849   */\n      0x20\n        /* \"#utility.yul\":10834:10843   */\n      dup4\n        /* \"#utility.yul\":10830:10850   */\n      add\n        /* \"#utility.yul\":10823:10859   */\n      mstore\n        /* \"#utility.yul\":10895:10901   */\n      dup4\n        /* \"#utility.yul\":10890:10892   */\n      0x40\n        /* \"#utility.yul\":10879:10888   */\n      dup4\n        /* \"#utility.yul\":10875:10893   */\n      add\n        /* \"#utility.yul\":10868:10902   */\n      mstore\n        /* \"#utility.yul\":10938:10944   */\n      dup3\n        /* \"#utility.yul\":10933:10935   */\n      0x60\n        /* \"#utility.yul\":10922:10931   */\n      dup4\n        /* \"#utility.yul\":10918:10936   */\n      add\n        /* \"#utility.yul\":10911:10945   */\n      mstore\n        /* \"#utility.yul\":10341:10951   */\n      swap7\n      swap6\n      pop\n      pop\n      pop\n      pop\n      pop\n      pop\n      jump\t// out\n        /* \"#utility.yul\":13484:13760   */\n    tag_209:\n        /* \"#utility.yul\":13656:13658   */\n      0x40\n        /* \"#utility.yul\":13641:13659   */\n      dup2\n      add\n        /* \"#utility.yul\":13668:13711   */\n      tag_356\n        /* \"#utility.yul\":13645:13654   */\n      dup3\n        /* \"#utility.yul\":13693:13699   */\n      dup6\n        /* \"#utility.yul\":13668:13711   */\n      tag_265\n      jump\t// in\n    tag_356:\n        /* \"#utility.yul\":13747:13753   */\n      dup3\n        /* \"#utility.yul\":13742:13744   */\n      0x20\n        /* \"#utility.yul\":13731:13740   */\n      dup4\n        /* \"#utility.yul\":13727:13745   */\n      add\n        /* \"#utility.yul\":13720:13754   */\n      mstore\n        /* \"#utility.yul\":13484:13760   */\n      swap4\n      swap3\n      pop\n      pop\n      pop\n      jump\t// out\n        /* \"#utility.yul\":14824:14992   */\n    tag_247:\n        /* \"#utility.yul\":14897:14906   */\n      dup1\n      dup3\n      mul\n        /* \"#utility.yul\":14928:14937   */\n      dup2\n      iszero\n        /* \"#utility.yul\":14945:14960   */\n      dup3\n      dup3\n      div\n        /* \"#utility.yul\":14939:14961   */\n      dup5\n      eq\n        /* \"#utility.yul\":14925:14962   */\n      or\n        /* \"#utility.yul\":14915:14986   */\n      tag_126\n      jumpi\n        /* \"#utility.yul\":14966:14984   */\n      tag_126\n      tag_270\n      jump\t// in\n        /* \"#utility.yul\":14997:15214   */\n    tag_250:\n        /* \"#utility.yul\":15037:15038   */\n      0x00\n        /* \"#utility.yul\":15063:15064   */\n      dup3\n        /* \"#utility.yul\":15053:15185   */\n      tag_364\n      jumpi\n        /* \"#utility.yul\":15107:15117   */\n      0x4e487b71\n        /* \"#utility.yul\":15102:15105   */\n      0xe0\n        /* \"#utility.yul\":15098:15118   */\n      shl\n        /* \"#utility.yul\":15095:15096   */\n      0x00\n        /* \"#utility.yul\":15088:15119   */\n      mstore\n        /* \"#utility.yul\":15142:15146   */\n      0x12\n        /* \"#utility.yul\":15139:15140   */\n      0x04\n        /* \"#utility.yul\":15132:15147   */\n      mstore\n        /* \"#utility.yul\":15170:15174   */\n      0x24\n        /* \"#utility.yul\":15167:15168   */\n      0x00\n        /* \"#utility.yul\":15160:15175   */\n      revert\n        /* \"#utility.yul\":15053:15185   */\n    tag_364:\n      pop\n        /* \"#utility.yul\":15199:15208   */\n      div\n      swap1\n        /* \"#utility.yul\":14997:15214   */\n      jump\t// out\n\n    auxdata: 0xa2646970667358221220a2d5f46a443566f04940d18fdce289c5f08035229ec20848106566910160cdec64736f6c634300081a0033\n}\n",
				"bytecode": {
					"linkReferences": {},
					"object": "60a060405262069780600355348015610016575f80fd5b506040516116b93803806116b9833981016040819052610035916101a7565b806001600160a01b03811661006457604051631e4fbdf760e01b81525f60048201526024015b60405180910390fd5b61006d8161013d565b506001600160a01b0383166100d45760405162461bcd60e51b815260206004820152602760248201527f5374616b696e6720636f6e747261637420616464726573732063616e6e6f74206044820152666265207a65726f60c81b606482015260840161005b565b6127108211156101265760405162461bcd60e51b815260206004820152601960248201527f51756f72756d2063616e6e6f7420657863656564203130302500000000000000604482015260640161005b565b506001600160a01b039091166080526004556101e0565b5f80546001600160a01b038381166001600160a01b0319831681178455604051919092169283917f8be0079c531659141344cd1fd0a4f28419497f9722a3daafe3b4186f6b6457e09190a35050565b80516001600160a01b03811681146101a2575f80fd5b919050565b5f805f606084860312156101b9575f80fd5b6101c28461018c565b9250602084015191506101d76040850161018c565b90509250925092565b6080516114b36102065f395f818161024e015281816105c4015261097d01526114b35ff3fe608060405234801561000f575f80fd5b50600436106100fb575f3560e01c8063bc3f931f11610093578063e0a8f6f511610063578063e0a8f6f514610223578063ea0217cf14610236578063ee99205c14610249578063f2fde38b14610270575f80fd5b8063bc3f931f146101b1578063c1ba4e59146101d2578063c29a6b46146101e5578063c7f758a8146101f8575f80fd5b806327393278116100ce578063273932781461015d57806349c2a1a614610172578063715018a6146101855780638da5cb5b1461018d575f80fd5b8063013cf08b146100ff57806302a251a314610134578063079e2d2a1461014b5780630c0512e914610154575b5f80fd5b61011261010d366004610f5f565b610283565b60405161012b9d9c9b9a99989796959493929190610fcc565b60405180910390f35b61013d60035481565b60405190815260200161012b565b61013d60045481565b61013d60015481565b61017061016b366004610f5f565b61037d565b005b61013d610180366004611054565b61058b565b6101706106f7565b5f546001600160a01b03165b6040516001600160a01b03909116815260200161012b565b6101c46101bf3660046110dd565b61070a565b60405161012b929190611117565b6101706101e0366004610f5f565b610772565b6101706101f336600461112d565b6107d1565b61020b610206366004610f5f565b610bcf565b60405161012b9c9b9a9998979695949392919061115e565b610170610231366004610f5f565b610d1b565b610170610244366004610f5f565b610e23565b6101997f000000000000000000000000000000000000000000000000000000000000000081565b61017061027e3660046111de565b610e7f565b600260208190525f918252604090912080546001820154928201805491936001600160a01b031692916102b5906111f7565b80601f01602080910402602001604051908101604052809291908181526020018280546102e1906111f7565b801561032c5780601f106103035761010080835404028352916020019161032c565b820191905f5260205f20905b81548152906001019060200180831161030f57829003601f168201915b50505060038401546004850154600586015460068701546007880154600889015460098a0154600a8b0154600b909b0154999a96999598509396509194909391929160ff808216916101009004168d565b5f81815260026020526040812080549091036103b45760405162461bcd60e51b81526004016103ab9061122f565b60405180910390fd5b6001600b820154610100900460ff1660048111156103d4576103d4610fa4565b146104345760405162461bcd60e51b815260206004820152602a60248201527f50726f706f73616c206973206e6f7420616374697665206f7220616c726561646044820152691e48199a5b9a5cda195960b21b60648201526084016103ab565b80600501544210156104885760405162461bcd60e51b815260206004820152601a60248201527f566f74696e6720706572696f64206e6f7420796574206f76657200000000000060448201526064016103ab565b600a8101545f90156104ce575f6104bc83600a01546104b66127108660090154610ebc90919063ffffffff16565b90610ece565b905060045481106104cc57600191505b505b806104f157600b820180546003919061ff001916610100835b021790555061052b565b81600701548260060154111561051957600b820180546004919061ff001916610100836104e7565b600b8201805461ff0019166103001790555b827f50dfc6bc47da7bb0a9fcdd194f019ea60dc27c97dde4a73504e84ca271e94d7c83600b0160019054906101000a900460ff1684600601548560070154866008015460405161057e9493929190611266565b60405180910390a2505050565b5f610594610ed9565b600180546105a191610f05565b6001819055604080516340bd8e6960e11b8152905142915f916001600160a01b037f0000000000000000000000000000000000000000000000000000000000000000169163817b1cd29160048083019260209291908290030181865afa15801561060d573d5f803e3d5ffd5b505050506040513d601f19601f82011682018060405250810190610631919061128f565b5f8481526002602081905260409091208581556001810180546001600160a01b031916331790559192508101610668878983611306565b506003808201849055600482018490555461068390846113d4565b60058201819055600a8201839055600b8201805461ff0019166101001790556004820154604051339287927f6b04e3d11c426737470e9f5cdd847185e72cb1b770b7b6781c49838732a9011e926106e2928d928d929091908a906113e7565b60405180910390a35091925050505b92915050565b6106ff610ed9565b6107085f610f10565b565b5f8281526002602052604081208054829190820361073a5760405162461bcd60e51b81526004016103ab9061122f565b6001600160a01b03939093165f908152600c84016020908152604080832054600d90960190915290205460ff93841695931693505050565b61077a610ed9565b6127108111156107cc5760405162461bcd60e51b815260206004820152601960248201527f51756f72756d2063616e6e6f742065786365656420313030250000000000000060448201526064016103ab565b600455565b5f82815260026020526040812080549091036107ff5760405162461bcd60e51b81526004016103ab9061122f565b6001600b820154610100900460ff16600481111561081f5761081f610fa4565b146108655760405162461bcd60e51b815260206004820152601660248201527550726f706f73616c206973206e6f742061637469766560501b60448201526064016103ab565b80600401544210156108b25760405162461bcd60e51b8152602060048201526016602482015275159bdd1a5b99c81a185cc81b9bdd081cdd185c9d195960521b60448201526064016103ab565b806005015442106109055760405162461bcd60e51b815260206004820152601760248201527f566f74696e6720706572696f642068617320656e64656400000000000000000060448201526064016103ab565b335f908152600c8201602052604090205460ff16156109665760405162461bcd60e51b815260206004820152601e60248201527f416c726561647920766f746564206f6e20746869732070726f706f73616c000060448201526064016103ab565b604051635da6a21b60e11b81523360048201525f907f00000000000000000000000000000000000000000000000000000000000000006001600160a01b03169063bb4d443690602401602060405180830381865afa1580156109ca573d5f803e3d5ffd5b505050506040513d601f19601f820116820180604052508101906109ee919061128f565b90505f8111610a565760405162461bcd60e51b815260206004820152602e60248201527f4d7573742068617665207374616b656420746f6b656e732028766f74696e672060448201526d706f7765722920746f20766f746560901b60648201526084016103ab565b335f908152600c8301602090815260408083208054600160ff199182168117909255600d870190935292208054869391921690836002811115610a9b57610a9b610fa4565b02179055506009820154610aaf9082610f05565b60098301556001836002811115610ac857610ac8610fa4565b03610ae6576006820154610adc9082610f05565b6006830155610b85565b5f836002811115610af957610af9610fa4565b03610b17576007820154610b0d9082610f05565b6007830155610b85565b6002836002811115610b2b57610b2b610fa4565b03610b49576008820154610b3f9082610f05565b6008830155610b85565b60405162461bcd60e51b8152602060048201526011602482015270496e76616c696420766f7465207479706560781b60448201526064016103ab565b336001600160a01b0316847f2635c84c3a8027a303ca6d6e90b1c4a9604754040372414d244aadfa647175188584604051610bc192919061142c565b60405180910390a350505050565b5f8060605f805f805f805f805f8060025f8f81526020019081526020015f209050805f01545f03610c125760405162461bcd60e51b81526004016103ab9061122f565b80546001820154600483015460058401546006850154600786015460088701546009880154600a890154600b8a015460028b0180546001600160a01b03909a169990989796959493929160ff8082169261010090920416908a90610c75906111f7565b80601f0160208091040260200160405190810160405280929190818152602001828054610ca1906111f7565b8015610cec5780601f10610cc357610100808354040283529160200191610cec565b820191905f5260205f20905b815481529060010190602001808311610ccf57829003601f168201915b505050505099509c509c509c509c509c509c509c509c509c509c509c509c505091939597999b5091939597999b565b610d23610ed9565b5f8181526002602052604081208054909103610d815760405162461bcd60e51b815260206004820152601760248201527f50726f706f73616c20446f6573206e6f7420657869737400000000000000000060448201526064016103ab565b6001600b820154610100900460ff166004811115610da157610da1610fa4565b14610de45760405162461bcd60e51b815260206004820152601360248201527250726f706f73616c204e6f742041637469766560681b60448201526064016103ab565b600b8101805461ffff191661020117905560405182907f789cf55be980739dad1d0699b93b58e806b51c9d96619bfa8fe0a28abaa7b30c905f90a25050565b610e2b610ed9565b5f8111610e7a5760405162461bcd60e51b815260206004820152601e60248201527f566f74696e6720706572696f64206d75737420626520706f736974697665000060448201526064016103ab565b600355565b610e87610ed9565b6001600160a01b038116610eb057604051631e4fbdf760e01b81525f60048201526024016103ab565b610eb981610f10565b50565b5f610ec78284611447565b9392505050565b5f610ec7828461145e565b5f546001600160a01b031633146107085760405163118cdaa760e01b81523360048201526024016103ab565b5f610ec782846113d4565b5f80546001600160a01b038381166001600160a01b0319831681178455604051919092169283917f8be0079c531659141344cd1fd0a4f28419497f9722a3daafe3b4186f6b6457e09190a35050565b5f60208284031215610f6f575f80fd5b5035919050565b5f81518084528060208401602086015e5f602082860101526020601f19601f83011685010191505092915050565b634e487b7160e01b5f52602160045260245ffd5b60058110610fc857610fc8610fa4565b9052565b8d81526001600160a01b038d1660208201526101a0604082018190525f90610ff69083018e610f76565b90508b60608301528a60808301528960a08301528860c08301528760e0830152866101008301528561012083015284610140830152831515610160830152611042610180830184610fb8565b9e9d5050505050505050505050505050565b5f8060208385031215611065575f80fd5b823567ffffffffffffffff81111561107b575f80fd5b8301601f8101851361108b575f80fd5b803567ffffffffffffffff8111156110a1575f80fd5b8560208284010111156110b2575f80fd5b6020919091019590945092505050565b80356001600160a01b03811681146110d8575f80fd5b919050565b5f80604083850312156110ee575f80fd5b823591506110fe602084016110c2565b90509250929050565b60038110610fc857610fc8610fa4565b821515815260408101610ec76020830184611107565b5f806040838503121561113e575f80fd5b82359150602083013560038110611153575f80fd5b809150509250929050565b8c81526001600160a01b038c166020820152610180604082018190525f906111889083018d610f76565b90508a60608301528960808301528860a08301528760c08301528660e083015285610100830152846101208301528315156101408301526111cd610160830184610fb8565b9d9c50505050505050505050505050565b5f602082840312156111ee575f80fd5b610ec7826110c2565b600181811c9082168061120b57607f821691505b60208210810361122957634e487b7160e01b5f52602260045260245ffd5b50919050565b60208082526017908201527f50726f706f73616c20646f6573206e6f74206578697374000000000000000000604082015260600190565b608081016112748287610fb8565b84602083015283604083015282606083015295945050505050565b5f6020828403121561129f575f80fd5b5051919050565b634e487b7160e01b5f52604160045260245ffd5b601f82111561130157805f5260205f20601f840160051c810160208510156112df5750805b601f840160051c820191505b818110156112fe575f81556001016112eb565b50505b505050565b67ffffffffffffffff83111561131e5761131e6112a6565b6113328361132c83546111f7565b836112ba565b5f601f841160018114611363575f851561134c5750838201355b5f19600387901b1c1916600186901b1783556112fe565b5f83815260208120601f198716915b828110156113925786850135825560209485019460019092019101611372565b50868210156113ae575f1960f88860031b161c19848701351681555b505060018560011b0183555050505050565b634e487b7160e01b5f52601160045260245ffd5b808201808211156106f1576106f16113c0565b60808152846080820152848660a08301375f60a086830101525f60a0601f19601f88011683010190508460208301528360408301528260608301529695505050505050565b6040810161143a8285611107565b8260208301529392505050565b80820281158282048414176106f1576106f16113c0565b5f8261147857634e487b7160e01b5f52601260045260245ffd5b50049056fea2646970667358221220a2d5f46a443566f04940d18fdce289c5f08035229ec20848106566910160cdec64736f6c634300081a0033",
					"opcodes": "PUSH1 0xA0 PUSH1 0x40 MSTORE PUSH3 0x69780 PUSH1 0x3 SSTORE CALLVALUE DUP1 ISZERO PUSH2 0x16 JUMPI PUSH0 DUP1 REVERT JUMPDEST POP PUSH1 0x40 MLOAD PUSH2 0x16B9 CODESIZE SUB DUP1 PUSH2 0x16B9 DUP4 CODECOPY DUP2 ADD PUSH1 0x40 DUP2 SWAP1 MSTORE PUSH2 0x35 SWAP2 PUSH2 0x1A7 JUMP JUMPDEST DUP1 PUSH1 0x1 PUSH1 0x1 PUSH1 0xA0 SHL SUB DUP2 AND PUSH2 0x64 JUMPI PUSH1 0x40 MLOAD PUSH4 0x1E4FBDF7 PUSH1 0xE0 SHL DUP2 MSTORE PUSH0 PUSH1 0x4 DUP3 ADD MSTORE PUSH1 0x24 ADD JUMPDEST PUSH1 0x40 MLOAD DUP1 SWAP2 SUB SWAP1 REVERT JUMPDEST PUSH2 0x6D DUP2 PUSH2 0x13D JUMP JUMPDEST POP PUSH1 0x1 PUSH1 0x1 PUSH1 0xA0 SHL SUB DUP4 AND PUSH2 0xD4 JUMPI PUSH1 0x40 MLOAD PUSH3 0x461BCD PUSH1 0xE5 SHL DUP2 MSTORE PUSH1 0x20 PUSH1 0x4 DUP3 ADD MSTORE PUSH1 0x27 PUSH1 0x24 DUP3 ADD MSTORE PUSH32 0x5374616B696E6720636F6E747261637420616464726573732063616E6E6F7420 PUSH1 0x44 DUP3 ADD MSTORE PUSH7 0x6265207A65726F PUSH1 0xC8 SHL PUSH1 0x64 DUP3 ADD MSTORE PUSH1 0x84 ADD PUSH2 0x5B JUMP JUMPDEST PUSH2 0x2710 DUP3 GT ISZERO PUSH2 0x126 JUMPI PUSH1 0x40 MLOAD PUSH3 0x461BCD PUSH1 0xE5 SHL DUP2 MSTORE PUSH1 0x20 PUSH1 0x4 DUP3 ADD MSTORE PUSH1 0x19 PUSH1 0x24 DUP3 ADD MSTORE PUSH32 0x51756F72756D2063616E6E6F7420657863656564203130302500000000000000 PUSH1 0x44 DUP3 ADD MSTORE PUSH1 0x64 ADD PUSH2 0x5B JUMP JUMPDEST POP PUSH1 0x1 PUSH1 0x1 PUSH1 0xA0 SHL SUB SWAP1 SWAP2 AND PUSH1 0x80 MSTORE PUSH1 0x4 SSTORE PUSH2 0x1E0 JUMP JUMPDEST PUSH0 DUP1 SLOAD PUSH1 0x1 PUSH1 0x1 PUSH1 0xA0 SHL SUB DUP4 DUP2 AND PUSH1 0x1 PUSH1 0x1 PUSH1 0xA0 SHL SUB NOT DUP4 AND DUP2 OR DUP5 SSTORE PUSH1 0x40 MLOAD SWAP2 SWAP1 SWAP3 AND SWAP3 DUP4 SWAP2 PUSH32 0x8BE0079C531659141344CD1FD0A4F28419497F9722A3DAAFE3B4186F6B6457E0 SWAP2 SWAP1 LOG3 POP POP JUMP JUMPDEST DUP1 MLOAD PUSH1 0x1 PUSH1 0x1 PUSH1 0xA0 SHL SUB DUP2 AND DUP2 EQ PUSH2 0x1A2 JUMPI PUSH0 DUP1 REVERT JUMPDEST SWAP2 SWAP1 POP JUMP JUMPDEST PUSH0 DUP1 PUSH0 PUSH1 0x60 DUP5 DUP7 SUB SLT ISZERO PUSH2 0x1B9 JUMPI PUSH0 DUP1 REVERT JUMPDEST PUSH2 0x1C2 DUP5 PUSH2 0x18C JUMP JUMPDEST SWAP3 POP PUSH1 0x20 DUP5 ADD MLOAD SWAP2 POP PUSH2 0x1D7 PUSH1 0x40 DUP6 ADD PUSH2 0x18C JUMP JUMPDEST SWAP1 POP SWAP3 POP SWAP3 POP SWAP3 JUMP JUMPDEST PUSH1 0x80 MLOAD PUSH2 0x14B3 PUSH2 0x206 PUSH0 CODECOPY PUSH0 DUP2 DUP2 PUSH2 0x24E ADD MSTORE DUP2 DUP2 PUSH2 0x5C4 ADD MSTORE PUSH2 0x97D ADD MSTORE PUSH2 0x14B3 PUSH0 RETURN INVALID PUSH1 0x80 PUSH1 0x40 MSTORE CALLVALUE DUP1 ISZERO PUSH2 0xF JUMPI PUSH0 DUP1 REVERT JUMPDEST POP PUSH1 0x4 CALLDATASIZE LT PUSH2 0xFB JUMPI PUSH0 CALLDATALOAD PUSH1 0xE0 SHR DUP1 PUSH4 0xBC3F931F GT PUSH2 0x93 JUMPI DUP1 PUSH4 0xE0A8F6F5 GT PUSH2 0x63 JUMPI DUP1 PUSH4 0xE0A8F6F5 EQ PUSH2 0x223 JUMPI DUP1 PUSH4 0xEA0217CF EQ PUSH2 0x236 JUMPI DUP1 PUSH4 0xEE99205C EQ PUSH2 0x249 JUMPI DUP1 PUSH4 0xF2FDE38B EQ PUSH2 0x270 JUMPI PUSH0 DUP1 REVERT JUMPDEST DUP1 PUSH4 0xBC3F931F EQ PUSH2 0x1B1 JUMPI DUP1 PUSH4 0xC1BA4E59 EQ PUSH2 0x1D2 JUMPI DUP1 PUSH4 0xC29A6B46 EQ PUSH2 0x1E5 JUMPI DUP1 PUSH4 0xC7F758A8 EQ PUSH2 0x1F8 JUMPI PUSH0 DUP1 REVERT JUMPDEST DUP1 PUSH4 0x27393278 GT PUSH2 0xCE JUMPI DUP1 PUSH4 0x27393278 EQ PUSH2 0x15D JUMPI DUP1 PUSH4 0x49C2A1A6 EQ PUSH2 0x172 JUMPI DUP1 PUSH4 0x715018A6 EQ PUSH2 0x185 JUMPI DUP1 PUSH4 0x8DA5CB5B EQ PUSH2 0x18D JUMPI PUSH0 DUP1 REVERT JUMPDEST DUP1 PUSH4 0x13CF08B EQ PUSH2 0xFF JUMPI DUP1 PUSH4 0x2A251A3 EQ PUSH2 0x134 JUMPI DUP1 PUSH4 0x79E2D2A EQ PUSH2 0x14B JUMPI DUP1 PUSH4 0xC0512E9 EQ PUSH2 0x154 JUMPI JUMPDEST PUSH0 DUP1 REVERT JUMPDEST PUSH2 0x112 PUSH2 0x10D CALLDATASIZE PUSH1 0x4 PUSH2 0xF5F JUMP JUMPDEST PUSH2 0x283 JUMP JUMPDEST PUSH1 0x40 MLOAD PUSH2 0x12B SWAP14 SWAP13 SWAP12 SWAP11 SWAP10 SWAP9 SWAP8 SWAP7 SWAP6 SWAP5 SWAP4 SWAP3 SWAP2 SWAP1 PUSH2 0xFCC JUMP JUMPDEST PUSH1 0x40 MLOAD DUP1 SWAP2 SUB SWAP1 RETURN JUMPDEST PUSH2 0x13D PUSH1 0x3 SLOAD DUP2 JUMP JUMPDEST PUSH1 0x40 MLOAD SWAP1 DUP2 MSTORE PUSH1 0x20 ADD PUSH2 0x12B JUMP JUMPDEST PUSH2 0x13D PUSH1 0x4 SLOAD DUP2 JUMP JUMPDEST PUSH2 0x13D PUSH1 0x1 SLOAD DUP2 JUMP JUMPDEST PUSH2 0x170 PUSH2 0x16B CALLDATASIZE PUSH1 0x4 PUSH2 0xF5F JUMP JUMPDEST PUSH2 0x37D JUMP JUMPDEST STOP JUMPDEST PUSH2 0x13D PUSH2 0x180 CALLDATASIZE PUSH1 0x4 PUSH2 0x1054 JUMP JUMPDEST PUSH2 0x58B JUMP JUMPDEST PUSH2 0x170 PUSH2 0x6F7 JUMP JUMPDEST PUSH0 SLOAD PUSH1 0x1 PUSH1 0x1 PUSH1 0xA0 SHL SUB AND JUMPDEST PUSH1 0x40 MLOAD PUSH1 0x1 PUSH1 0x1 PUSH1 0xA0 SHL SUB SWAP1 SWAP2 AND DUP2 MSTORE PUSH1 0x20 ADD PUSH2 0x12B JUMP JUMPDEST PUSH2 0x1C4 PUSH2 0x1BF CALLDATASIZE PUSH1 0x4 PUSH2 0x10DD JUMP JUMPDEST PUSH2 0x70A JUMP JUMPDEST PUSH1 0x40 MLOAD PUSH2 0x12B SWAP3 SWAP2 SWAP1 PUSH2 0x1117 JUMP JUMPDEST PUSH2 0x170 PUSH2 0x1E0 CALLDATASIZE PUSH1 0x4 PUSH2 0xF5F JUMP JUMPDEST PUSH2 0x772 JUMP JUMPDEST PUSH2 0x170 PUSH2 0x1F3 CALLDATASIZE PUSH1 0x4 PUSH2 0x112D JUMP JUMPDEST PUSH2 0x7D1 JUMP JUMPDEST PUSH2 0x20B PUSH2 0x206 CALLDATASIZE PUSH1 0x4 PUSH2 0xF5F JUMP JUMPDEST PUSH2 0xBCF JUMP JUMPDEST PUSH1 0x40 MLOAD PUSH2 0x12B SWAP13 SWAP12 SWAP11 SWAP10 SWAP9 SWAP8 SWAP7 SWAP6 SWAP5 SWAP4 SWAP3 SWAP2 SWAP1 PUSH2 0x115E JUMP JUMPDEST PUSH2 0x170 PUSH2 0x231 CALLDATASIZE PUSH1 0x4 PUSH2 0xF5F JUMP JUMPDEST PUSH2 0xD1B JUMP JUMPDEST PUSH2 0x170 PUSH2 0x244 CALLDATASIZE PUSH1 0x4 PUSH2 0xF5F JUMP JUMPDEST PUSH2 0xE23 JUMP JUMPDEST PUSH2 0x199 PUSH32 0x0 DUP2 JUMP JUMPDEST PUSH2 0x170 PUSH2 0x27E CALLDATASIZE PUSH1 0x4 PUSH2 0x11DE JUMP JUMPDEST PUSH2 0xE7F JUMP JUMPDEST PUSH1 0x2 PUSH1 0x20 DUP2 SWAP1 MSTORE PUSH0 SWAP2 DUP3 MSTORE PUSH1 0x40 SWAP1 SWAP2 KECCAK256 DUP1 SLOAD PUSH1 0x1 DUP3 ADD SLOAD SWAP3 DUP3 ADD DUP1 SLOAD SWAP2 SWAP4 PUSH1 0x1 PUSH1 0x1 PUSH1 0xA0 SHL SUB AND SWAP3 SWAP2 PUSH2 0x2B5 SWAP1 PUSH2 0x11F7 JUMP JUMPDEST DUP1 PUSH1 0x1F ADD PUSH1 0x20 DUP1 SWAP2 DIV MUL PUSH1 0x20 ADD PUSH1 0x40 MLOAD SWAP1 DUP2 ADD PUSH1 0x40 MSTORE DUP1 SWAP3 SWAP2 SWAP1 DUP2 DUP2 MSTORE PUSH1 0x20 ADD DUP3 DUP1 SLOAD PUSH2 0x2E1 SWAP1 PUSH2 0x11F7 JUMP JUMPDEST DUP1 ISZERO PUSH2 0x32C JUMPI DUP1 PUSH1 0x1F LT PUSH2 0x303 JUMPI PUSH2 0x100 DUP1 DUP4 SLOAD DIV MUL DUP4 MSTORE SWAP2 PUSH1 0x20 ADD SWAP2 PUSH2 0x32C JUMP JUMPDEST DUP3 ADD SWAP2 SWAP1 PUSH0 MSTORE PUSH1 0x20 PUSH0 KECCAK256 SWAP1 JUMPDEST DUP2 SLOAD DUP2 MSTORE SWAP1 PUSH1 0x1 ADD SWAP1 PUSH1 0x20 ADD DUP1 DUP4 GT PUSH2 0x30F JUMPI DUP3 SWAP1 SUB PUSH1 0x1F AND DUP3 ADD SWAP2 JUMPDEST POP POP POP PUSH1 0x3 DUP5 ADD SLOAD PUSH1 0x4 DUP6 ADD SLOAD PUSH1 0x5 DUP7 ADD SLOAD PUSH1 0x6 DUP8 ADD SLOAD PUSH1 0x7 DUP9 ADD SLOAD PUSH1 0x8 DUP10 ADD SLOAD PUSH1 0x9 DUP11 ADD SLOAD PUSH1 0xA DUP12 ADD SLOAD PUSH1 0xB SWAP1 SWAP12 ADD SLOAD SWAP10 SWAP11 SWAP7 SWAP10 SWAP6 SWAP9 POP SWAP4 SWAP7 POP SWAP2 SWAP5 SWAP1 SWAP4 SWAP2 SWAP3 SWAP2 PUSH1 0xFF DUP1 DUP3 AND SWAP2 PUSH2 0x100 SWAP1 DIV AND DUP14 JUMP JUMPDEST PUSH0 DUP2 DUP2 MSTORE PUSH1 0x2 PUSH1 0x20 MSTORE PUSH1 0x40 DUP2 KECCAK256 DUP1 SLOAD SWAP1 SWAP2 SUB PUSH2 0x3B4 JUMPI PUSH1 0x40 MLOAD PUSH3 0x461BCD PUSH1 0xE5 SHL DUP2 MSTORE PUSH1 0x4 ADD PUSH2 0x3AB SWAP1 PUSH2 0x122F JUMP JUMPDEST PUSH1 0x40 MLOAD DUP1 SWAP2 SUB SWAP1 REVERT JUMPDEST PUSH1 0x1 PUSH1 0xB DUP3 ADD SLOAD PUSH2 0x100 SWAP1 DIV PUSH1 0xFF AND PUSH1 0x4 DUP2 GT ISZERO PUSH2 0x3D4 JUMPI PUSH2 0x3D4 PUSH2 0xFA4 JUMP JUMPDEST EQ PUSH2 0x434 JUMPI PUSH1 0x40 MLOAD PUSH3 0x461BCD PUSH1 0xE5 SHL DUP2 MSTORE PUSH1 0x20 PUSH1 0x4 DUP3 ADD MSTORE PUSH1 0x2A PUSH1 0x24 DUP3 ADD MSTORE PUSH32 0x50726F706F73616C206973206E6F7420616374697665206F7220616C72656164 PUSH1 0x44 DUP3 ADD MSTORE PUSH10 0x1E48199A5B9A5CDA1959 PUSH1 0xB2 SHL PUSH1 0x64 DUP3 ADD MSTORE PUSH1 0x84 ADD PUSH2 0x3AB JUMP JUMPDEST DUP1 PUSH1 0x5 ADD SLOAD TIMESTAMP LT ISZERO PUSH2 0x488 JUMPI PUSH1 0x40 MLOAD PUSH3 0x461BCD PUSH1 0xE5 SHL DUP2 MSTORE PUSH1 0x20 PUSH1 0x4 DUP3 ADD MSTORE PUSH1 0x1A PUSH1 0x24 DUP3 ADD MSTORE PUSH32 0x566F74696E6720706572696F64206E6F7420796574206F766572000000000000 PUSH1 0x44 DUP3 ADD MSTORE PUSH1 0x64 ADD PUSH2 0x3AB JUMP JUMPDEST PUSH1 0xA DUP2 ADD SLOAD PUSH0 SWAP1 ISZERO PUSH2 0x4CE JUMPI PUSH0 PUSH2 0x4BC DUP4 PUSH1 0xA ADD SLOAD PUSH2 0x4B6 PUSH2 0x2710 DUP7 PUSH1 0x9 ADD SLOAD PUSH2 0xEBC SWAP1 SWAP2 SWAP1 PUSH4 0xFFFFFFFF AND JUMP JUMPDEST SWAP1 PUSH2 0xECE JUMP JUMPDEST SWAP1 POP PUSH1 0x4 SLOAD DUP2 LT PUSH2 0x4CC JUMPI PUSH1 0x1 SWAP2 POP JUMPDEST POP JUMPDEST DUP1 PUSH2 0x4F1 JUMPI PUSH1 0xB DUP3 ADD DUP1 SLOAD PUSH1 0x3 SWAP2 SWAP1 PUSH2 0xFF00 NOT AND PUSH2 0x100 DUP4 JUMPDEST MUL OR SWAP1 SSTORE POP PUSH2 0x52B JUMP JUMPDEST DUP2 PUSH1 0x7 ADD SLOAD DUP3 PUSH1 0x6 ADD SLOAD GT ISZERO PUSH2 0x519 JUMPI PUSH1 0xB DUP3 ADD DUP1 SLOAD PUSH1 0x4 SWAP2 SWAP1 PUSH2 0xFF00 NOT AND PUSH2 0x100 DUP4 PUSH2 0x4E7 JUMP JUMPDEST PUSH1 0xB DUP3 ADD DUP1 SLOAD PUSH2 0xFF00 NOT AND PUSH2 0x300 OR SWAP1 SSTORE JUMPDEST DUP3 PUSH32 0x50DFC6BC47DA7BB0A9FCDD194F019EA60DC27C97DDE4A73504E84CA271E94D7C DUP4 PUSH1 0xB ADD PUSH1 0x1 SWAP1 SLOAD SWAP1 PUSH2 0x100 EXP SWAP1 DIV PUSH1 0xFF AND DUP5 PUSH1 0x6 ADD SLOAD DUP6 PUSH1 0x7 ADD SLOAD DUP7 PUSH1 0x8 ADD SLOAD PUSH1 0x40 MLOAD PUSH2 0x57E SWAP5 SWAP4 SWAP3 SWAP2 SWAP1 PUSH2 0x1266 JUMP JUMPDEST PUSH1 0x40 MLOAD DUP1 SWAP2 SUB SWAP1 LOG2 POP POP POP JUMP JUMPDEST PUSH0 PUSH2 0x594 PUSH2 0xED9 JUMP JUMPDEST PUSH1 0x1 DUP1 SLOAD PUSH2 0x5A1 SWAP2 PUSH2 0xF05 JUMP JUMPDEST PUSH1 0x1 DUP2 SWAP1 SSTORE PUSH1 0x40 DUP1 MLOAD PUSH4 0x40BD8E69 PUSH1 0xE1 SHL DUP2 MSTORE SWAP1 MLOAD TIMESTAMP SWAP2 PUSH0 SWAP2 PUSH1 0x1 PUSH1 0x1 PUSH1 0xA0 SHL SUB PUSH32 0x0 AND SWAP2 PUSH4 0x817B1CD2 SWAP2 PUSH1 0x4 DUP1 DUP4 ADD SWAP3 PUSH1 0x20 SWAP3 SWAP2 SWAP1 DUP3 SWAP1 SUB ADD DUP2 DUP7 GAS STATICCALL ISZERO DUP1 ISZERO PUSH2 0x60D JUMPI RETURNDATASIZE PUSH0 DUP1 RETURNDATACOPY RETURNDATASIZE PUSH0 REVERT JUMPDEST POP POP POP POP PUSH1 0x40 MLOAD RETURNDATASIZE PUSH1 0x1F NOT PUSH1 0x1F DUP3 ADD AND DUP3 ADD DUP1 PUSH1 0x40 MSTORE POP DUP2 ADD SWAP1 PUSH2 0x631 SWAP2 SWAP1 PUSH2 0x128F JUMP JUMPDEST PUSH0 DUP5 DUP2 MSTORE PUSH1 0x2 PUSH1 0x20 DUP2 SWAP1 MSTORE PUSH1 0x40 SWAP1 SWAP2 KECCAK256 DUP6 DUP2 SSTORE PUSH1 0x1 DUP2 ADD DUP1 SLOAD PUSH1 0x1 PUSH1 0x1 PUSH1 0xA0 SHL SUB NOT AND CALLER OR SWAP1 SSTORE SWAP2 SWAP3 POP DUP2 ADD PUSH2 0x668 DUP8 DUP10 DUP4 PUSH2 0x1306 JUMP JUMPDEST POP PUSH1 0x3 DUP1 DUP3 ADD DUP5 SWAP1 SSTORE PUSH1 0x4 DUP3 ADD DUP5 SWAP1 SSTORE SLOAD PUSH2 0x683 SWAP1 DUP5 PUSH2 0x13D4 JUMP JUMPDEST PUSH1 0x5 DUP3 ADD DUP2 SWAP1 SSTORE PUSH1 0xA DUP3 ADD DUP4 SWAP1 SSTORE PUSH1 0xB DUP3 ADD DUP1 SLOAD PUSH2 0xFF00 NOT AND PUSH2 0x100 OR SWAP1 SSTORE PUSH1 0x4 DUP3 ADD SLOAD PUSH1 0x40 MLOAD CALLER SWAP3 DUP8 SWAP3 PUSH32 0x6B04E3D11C426737470E9F5CDD847185E72CB1B770B7B6781C49838732A9011E SWAP3 PUSH2 0x6E2 SWAP3 DUP14 SWAP3 DUP14 SWAP3 SWAP1 SWAP2 SWAP1 DUP11 SWAP1 PUSH2 0x13E7 JUMP JUMPDEST PUSH1 0x40 MLOAD DUP1 SWAP2 SUB SWAP1 LOG3 POP SWAP2 SWAP3 POP POP POP JUMPDEST SWAP3 SWAP2 POP POP JUMP JUMPDEST PUSH2 0x6FF PUSH2 0xED9 JUMP JUMPDEST PUSH2 0x708 PUSH0 PUSH2 0xF10 JUMP JUMPDEST JUMP JUMPDEST PUSH0 DUP3 DUP2 MSTORE PUSH1 0x2 PUSH1 0x20 MSTORE PUSH1 0x40 DUP2 KECCAK256 DUP1 SLOAD DUP3 SWAP2 SWAP1 DUP3 SUB PUSH2 0x73A JUMPI PUSH1 0x40 MLOAD PUSH3 0x461BCD PUSH1 0xE5 SHL DUP2 MSTORE PUSH1 0x4 ADD PUSH2 0x3AB SWAP1 PUSH2 0x122F JUMP JUMPDEST PUSH1 0x1 PUSH1 0x1 PUSH1 0xA0 SHL SUB SWAP4 SWAP1 SWAP4 AND PUSH0 SWAP1 DUP2 MSTORE PUSH1 0xC DUP5 ADD PUSH1 0x20 SWAP1 DUP2 MSTORE PUSH1 0x40 DUP1 DUP4 KECCAK256 SLOAD PUSH1 0xD SWAP1 SWAP7 ADD SWAP1 SWAP2 MSTORE SWAP1 KECCAK256 SLOAD PUSH1 0xFF SWAP4 DUP5 AND SWAP6 SWAP4 AND SWAP4 POP POP POP JUMP JUMPDEST PUSH2 0x77A PUSH2 0xED9 JUMP JUMPDEST PUSH2 0x2710 DUP2 GT ISZERO PUSH2 0x7CC JUMPI PUSH1 0x40 MLOAD PUSH3 0x461BCD PUSH1 0xE5 SHL DUP2 MSTORE PUSH1 0x20 PUSH1 0x4 DUP3 ADD MSTORE PUSH1 0x19 PUSH1 0x24 DUP3 ADD MSTORE PUSH32 0x51756F72756D2063616E6E6F7420657863656564203130302500000000000000 PUSH1 0x44 DUP3 ADD MSTORE PUSH1 0x64 ADD PUSH2 0x3AB JUMP JUMPDEST PUSH1 0x4 SSTORE JUMP JUMPDEST PUSH0 DUP3 DUP2 MSTORE PUSH1 0x2 PUSH1 0x20 MSTORE PUSH1 0x40 DUP2 KECCAK256 DUP1 SLOAD SWAP1 SWAP2 SUB PUSH2 0x7FF JUMPI PUSH1 0x40 MLOAD PUSH3 0x461BCD PUSH1 0xE5 SHL DUP2 MSTORE PUSH1 0x4 ADD PUSH2 0x3AB SWAP1 PUSH2 0x122F JUMP JUMPDEST PUSH1 0x1 PUSH1 0xB DUP3 ADD SLOAD PUSH2 0x100 SWAP1 DIV PUSH1 0xFF AND PUSH1 0x4 DUP2 GT ISZERO PUSH2 0x81F JUMPI PUSH2 0x81F PUSH2 0xFA4 JUMP JUMPDEST EQ PUSH2 0x865 JUMPI PUSH1 0x40 MLOAD PUSH3 0x461BCD PUSH1 0xE5 SHL DUP2 MSTORE PUSH1 0x20 PUSH1 0x4 DUP3 ADD MSTORE PUSH1 0x16 PUSH1 0x24 DUP3 ADD MSTORE PUSH22 0x50726F706F73616C206973206E6F7420616374697665 PUSH1 0x50 SHL PUSH1 0x44 DUP3 ADD MSTORE PUSH1 0x64 ADD PUSH2 0x3AB JUMP JUMPDEST DUP1 PUSH1 0x4 ADD SLOAD TIMESTAMP LT ISZERO PUSH2 0x8B2 JUMPI PUSH1 0x40 MLOAD PUSH3 0x461BCD PUSH1 0xE5 SHL DUP2 MSTORE PUSH1 0x20 PUSH1 0x4 DUP3 ADD MSTORE PUSH1 0x16 PUSH1 0x24 DUP3 ADD MSTORE PUSH22 0x159BDD1A5B99C81A185CC81B9BDD081CDD185C9D1959 PUSH1 0x52 SHL PUSH1 0x44 DUP3 ADD MSTORE PUSH1 0x64 ADD PUSH2 0x3AB JUMP JUMPDEST DUP1 PUSH1 0x5 ADD SLOAD TIMESTAMP LT PUSH2 0x905 JUMPI PUSH1 0x40 MLOAD PUSH3 0x461BCD PUSH1 0xE5 SHL DUP2 MSTORE PUSH1 0x20 PUSH1 0x4 DUP3 ADD MSTORE PUSH1 0x17 PUSH1 0x24 DUP3 ADD MSTORE PUSH32 0x566F74696E6720706572696F642068617320656E646564000000000000000000 PUSH1 0x44 DUP3 ADD MSTORE PUSH1 0x64 ADD PUSH2 0x3AB JUMP JUMPDEST CALLER PUSH0 SWAP1 DUP2 MSTORE PUSH1 0xC DUP3 ADD PUSH1 0x20 MSTORE PUSH1 0x40 SWAP1 KECCAK256 SLOAD PUSH1 0xFF AND ISZERO PUSH2 0x966 JUMPI PUSH1 0x40 MLOAD PUSH3 0x461BCD PUSH1 0xE5 SHL DUP2 MSTORE PUSH1 0x20 PUSH1 0x4 DUP3 ADD MSTORE PUSH1 0x1E PUSH1 0x24 DUP3 ADD MSTORE PUSH32 0x416C726561647920766F746564206F6E20746869732070726F706F73616C0000 PUSH1 0x44 DUP3 ADD MSTORE PUSH1 0x64 ADD PUSH2 0x3AB JUMP JUMPDEST PUSH1 0x40 MLOAD PUSH4 0x5DA6A21B PUSH1 0xE1 SHL DUP2 MSTORE CALLER PUSH1 0x4 DUP3 ADD MSTORE PUSH0 SWAP1 PUSH32 0x0 PUSH1 0x1 PUSH1 0x1 PUSH1 0xA0 SHL SUB AND SWAP1 PUSH4 0xBB4D4436 SWAP1 PUSH1 0x24 ADD PUSH1 0x20 PUSH1 0x40 MLOAD DUP1 DUP4 SUB DUP2 DUP7 GAS STATICCALL ISZERO DUP1 ISZERO PUSH2 0x9CA JUMPI RETURNDATASIZE PUSH0 DUP1 RETURNDATACOPY RETURNDATASIZE PUSH0 REVERT JUMPDEST POP POP POP POP PUSH1 0x40 MLOAD RETURNDATASIZE PUSH1 0x1F NOT PUSH1 0x1F DUP3 ADD AND DUP3 ADD DUP1 PUSH1 0x40 MSTORE POP DUP2 ADD SWAP1 PUSH2 0x9EE SWAP2 SWAP1 PUSH2 0x128F JUMP JUMPDEST SWAP1 POP PUSH0 DUP2 GT PUSH2 0xA56 JUMPI PUSH1 0x40 MLOAD PUSH3 0x461BCD PUSH1 0xE5 SHL DUP2 MSTORE PUSH1 0x20 PUSH1 0x4 DUP3 ADD MSTORE PUSH1 0x2E PUSH1 0x24 DUP3 ADD MSTORE PUSH32 0x4D7573742068617665207374616B656420746F6B656E732028766F74696E6720 PUSH1 0x44 DUP3 ADD MSTORE PUSH14 0x706F7765722920746F20766F7465 PUSH1 0x90 SHL PUSH1 0x64 DUP3 ADD MSTORE PUSH1 0x84 ADD PUSH2 0x3AB JUMP JUMPDEST CALLER PUSH0 SWAP1 DUP2 MSTORE PUSH1 0xC DUP4 ADD PUSH1 0x20 SWAP1 DUP2 MSTORE PUSH1 0x40 DUP1 DUP4 KECCAK256 DUP1 SLOAD PUSH1 0x1 PUSH1 0xFF NOT SWAP2 DUP3 AND DUP2 OR SWAP1 SWAP3 SSTORE PUSH1 0xD DUP8 ADD SWAP1 SWAP4 MSTORE SWAP3 KECCAK256 DUP1 SLOAD DUP7 SWAP4 SWAP2 SWAP3 AND SWAP1 DUP4 PUSH1 0x2 DUP2 GT ISZERO PUSH2 0xA9B JUMPI PUSH2 0xA9B PUSH2 0xFA4 JUMP JUMPDEST MUL OR SWAP1 SSTORE POP PUSH1 0x9 DUP3 ADD SLOAD PUSH2 0xAAF SWAP1 DUP3 PUSH2 0xF05 JUMP JUMPDEST PUSH1 0x9 DUP4 ADD SSTORE PUSH1 0x1 DUP4 PUSH1 0x2 DUP2 GT ISZERO PUSH2 0xAC8 JUMPI PUSH2 0xAC8 PUSH2 0xFA4 JUMP JUMPDEST SUB PUSH2 0xAE6 JUMPI PUSH1 0x6 DUP3 ADD SLOAD PUSH2 0xADC SWAP1 DUP3 PUSH2 0xF05 JUMP JUMPDEST PUSH1 0x6 DUP4 ADD SSTORE PUSH2 0xB85 JUMP JUMPDEST PUSH0 DUP4 PUSH1 0x2 DUP2 GT ISZERO PUSH2 0xAF9 JUMPI PUSH2 0xAF9 PUSH2 0xFA4 JUMP JUMPDEST SUB PUSH2 0xB17 JUMPI PUSH1 0x7 DUP3 ADD SLOAD PUSH2 0xB0D SWAP1 DUP3 PUSH2 0xF05 JUMP JUMPDEST PUSH1 0x7 DUP4 ADD SSTORE PUSH2 0xB85 JUMP JUMPDEST PUSH1 0x2 DUP4 PUSH1 0x2 DUP2 GT ISZERO PUSH2 0xB2B JUMPI PUSH2 0xB2B PUSH2 0xFA4 JUMP JUMPDEST SUB PUSH2 0xB49 JUMPI PUSH1 0x8 DUP3 ADD SLOAD PUSH2 0xB3F SWAP1 DUP3 PUSH2 0xF05 JUMP JUMPDEST PUSH1 0x8 DUP4 ADD SSTORE PUSH2 0xB85 JUMP JUMPDEST PUSH1 0x40 MLOAD PUSH3 0x461BCD PUSH1 0xE5 SHL DUP2 MSTORE PUSH1 0x20 PUSH1 0x4 DUP3 ADD MSTORE PUSH1 0x11 PUSH1 0x24 DUP3 ADD MSTORE PUSH17 0x496E76616C696420766F74652074797065 PUSH1 0x78 SHL PUSH1 0x44 DUP3 ADD MSTORE PUSH1 0x64 ADD PUSH2 0x3AB JUMP JUMPDEST CALLER PUSH1 0x1 PUSH1 0x1 PUSH1 0xA0 SHL SUB AND DUP5 PUSH32 0x2635C84C3A8027A303CA6D6E90B1C4A9604754040372414D244AADFA64717518 DUP6 DUP5 PUSH1 0x40 MLOAD PUSH2 0xBC1 SWAP3 SWAP2 SWAP1 PUSH2 0x142C JUMP JUMPDEST PUSH1 0x40 MLOAD DUP1 SWAP2 SUB SWAP1 LOG3 POP POP POP POP JUMP JUMPDEST PUSH0 DUP1 PUSH1 0x60 PUSH0 DUP1 PUSH0 DUP1 PUSH0 DUP1 PUSH0 DUP1 PUSH0 DUP1 PUSH1 0x2 PUSH0 DUP16 DUP2 MSTORE PUSH1 0x20 ADD SWAP1 DUP2 MSTORE PUSH1 0x20 ADD PUSH0 KECCAK256 SWAP1 POP DUP1 PUSH0 ADD SLOAD PUSH0 SUB PUSH2 0xC12 JUMPI PUSH1 0x40 MLOAD PUSH3 0x461BCD PUSH1 0xE5 SHL DUP2 MSTORE PUSH1 0x4 ADD PUSH2 0x3AB SWAP1 PUSH2 0x122F JUMP JUMPDEST DUP1 SLOAD PUSH1 0x1 DUP3 ADD SLOAD PUSH1 0x4 DUP4 ADD SLOAD PUSH1 0x5 DUP5 ADD SLOAD PUSH1 0x6 DUP6 ADD SLOAD PUSH1 0x7 DUP7 ADD SLOAD PUSH1 0x8 DUP8 ADD SLOAD PUSH1 0x9 DUP9 ADD SLOAD PUSH1 0xA DUP10 ADD SLOAD PUSH1 0xB DUP11 ADD SLOAD PUSH1 0x2 DUP12 ADD DUP1 SLOAD PUSH1 0x1 PUSH1 0x1 PUSH1 0xA0 SHL SUB SWAP1 SWAP11 AND SWAP10 SWAP1 SWAP9 SWAP8 SWAP7 SWAP6 SWAP5 SWAP4 SWAP3 SWAP2 PUSH1 0xFF DUP1 DUP3 AND SWAP3 PUSH2 0x100 SWAP1 SWAP3 DIV AND SWAP1 DUP11 SWAP1 PUSH2 0xC75 SWAP1 PUSH2 0x11F7 JUMP JUMPDEST DUP1 PUSH1 0x1F ADD PUSH1 0x20 DUP1 SWAP2 DIV MUL PUSH1 0x20 ADD PUSH1 0x40 MLOAD SWAP1 DUP2 ADD PUSH1 0x40 MSTORE DUP1 SWAP3 SWAP2 SWAP1 DUP2 DUP2 MSTORE PUSH1 0x20 ADD DUP3 DUP1 SLOAD PUSH2 0xCA1 SWAP1 PUSH2 0x11F7 JUMP JUMPDEST DUP1 ISZERO PUSH2 0xCEC JUMPI DUP1 PUSH1 0x1F LT PUSH2 0xCC3 JUMPI PUSH2 0x100 DUP1 DUP4 SLOAD DIV MUL DUP4 MSTORE SWAP2 PUSH1 0x20 ADD SWAP2 PUSH2 0xCEC JUMP JUMPDEST DUP3 ADD SWAP2 SWAP1 PUSH0 MSTORE PUSH1 0x20 PUSH0 KECCAK256 SWAP1 JUMPDEST DUP2 SLOAD DUP2 MSTORE SWAP1 PUSH1 0x1 ADD SWAP1 PUSH1 0x20 ADD DUP1 DUP4 GT PUSH2 0xCCF JUMPI DUP3 SWAP1 SUB PUSH1 0x1F AND DUP3 ADD SWAP2 JUMPDEST POP POP POP POP POP SWAP10 POP SWAP13 POP SWAP13 POP SWAP13 POP SWAP13 POP SWAP13 POP SWAP13 POP SWAP13 POP SWAP13 POP SWAP13 POP SWAP13 POP SWAP13 POP SWAP13 POP POP SWAP2 SWAP4 SWAP6 SWAP8 SWAP10 SWAP12 POP SWAP2 SWAP4 SWAP6 SWAP8 SWAP10 SWAP12 JUMP JUMPDEST PUSH2 0xD23 PUSH2 0xED9 JUMP JUMPDEST PUSH0 DUP2 DUP2 MSTORE PUSH1 0x2 PUSH1 0x20 MSTORE PUSH1 0x40 DUP2 KECCAK256 DUP1 SLOAD SWAP1 SWAP2 SUB PUSH2 0xD81 JUMPI PUSH1 0x40 MLOAD PUSH3 0x461BCD PUSH1 0xE5 SHL DUP2 MSTORE PUSH1 0x20 PUSH1 0x4 DUP3 ADD MSTORE PUSH1 0x17 PUSH1 0x24 DUP3 ADD MSTORE PUSH32 0x50726F706F73616C20446F6573206E6F74206578697374000000000000000000 PUSH1 0x44 DUP3 ADD MSTORE PUSH1 0x64 ADD PUSH2 0x3AB JUMP JUMPDEST PUSH1 0x1 PUSH1 0xB DUP3 ADD SLOAD PUSH2 0x100 SWAP1 DIV PUSH1 0xFF AND PUSH1 0x4 DUP2 GT ISZERO PUSH2 0xDA1 JUMPI PUSH2 0xDA1 PUSH2 0xFA4 JUMP JUMPDEST EQ PUSH2 0xDE4 JUMPI PUSH1 0x40 MLOAD PUSH3 0x461BCD PUSH1 0xE5 SHL DUP2 MSTORE PUSH1 0x20 PUSH1 0x4 DUP3 ADD MSTORE PUSH1 0x13 PUSH1 0x24 DUP3 ADD MSTORE PUSH19 0x50726F706F73616C204E6F7420416374697665 PUSH1 0x68 SHL PUSH1 0x44 DUP3 ADD MSTORE PUSH1 0x64 ADD PUSH2 0x3AB JUMP JUMPDEST PUSH1 0xB DUP2 ADD DUP1 SLOAD PUSH2 0xFFFF NOT AND PUSH2 0x201 OR SWAP1 SSTORE PUSH1 0x40 MLOAD DUP3 SWAP1 PUSH32 0x789CF55BE980739DAD1D0699B93B58E806B51C9D96619BFA8FE0A28ABAA7B30C SWAP1 PUSH0 SWAP1 LOG2 POP POP JUMP JUMPDEST PUSH2 0xE2B PUSH2 0xED9 JUMP JUMPDEST PUSH0 DUP2 GT PUSH2 0xE7A JUMPI PUSH1 0x40 MLOAD PUSH3 0x461BCD PUSH1 0xE5 SHL DUP2 MSTORE PUSH1 0x20 PUSH1 0x4 DUP3 ADD MSTORE PUSH1 0x1E PUSH1 0x24 DUP3 ADD MSTORE PUSH32 0x566F74696E6720706572696F64206D75737420626520706F7369746976650000 PUSH1 0x44 DUP3 ADD MSTORE PUSH1 0x64 ADD PUSH2 0x3AB JUMP JUMPDEST PUSH1 0x3 SSTORE JUMP JUMPDEST PUSH2 0xE87 PUSH2 0xED9 JUMP JUMPDEST PUSH1 0x1 PUSH1 0x1 PUSH1 0xA0 SHL SUB DUP2 AND PUSH2 0xEB0 JUMPI PUSH1 0x40 MLOAD PUSH4 0x1E4FBDF7 PUSH1 0xE0 SHL DUP2 MSTORE PUSH0 PUSH1 0x4 DUP3 ADD MSTORE PUSH1 0x24 ADD PUSH2 0x3AB JUMP JUMPDEST PUSH2 0xEB9 DUP2 PUSH2 0xF10 JUMP JUMPDEST POP JUMP JUMPDEST PUSH0 PUSH2 0xEC7 DUP3 DUP5 PUSH2 0x1447 JUMP JUMPDEST SWAP4 SWAP3 POP POP POP JUMP JUMPDEST PUSH0 PUSH2 0xEC7 DUP3 DUP5 PUSH2 0x145E JUMP JUMPDEST PUSH0 SLOAD PUSH1 0x1 PUSH1 0x1 PUSH1 0xA0 SHL SUB AND CALLER EQ PUSH2 0x708 JUMPI PUSH1 0x40 MLOAD PUSH4 0x118CDAA7 PUSH1 0xE0 SHL DUP2 MSTORE CALLER PUSH1 0x4 DUP3 ADD MSTORE PUSH1 0x24 ADD PUSH2 0x3AB JUMP JUMPDEST PUSH0 PUSH2 0xEC7 DUP3 DUP5 PUSH2 0x13D4 JUMP JUMPDEST PUSH0 DUP1 SLOAD PUSH1 0x1 PUSH1 0x1 PUSH1 0xA0 SHL SUB DUP4 DUP2 AND PUSH1 0x1 PUSH1 0x1 PUSH1 0xA0 SHL SUB NOT DUP4 AND DUP2 OR DUP5 SSTORE PUSH1 0x40 MLOAD SWAP2 SWAP1 SWAP3 AND SWAP3 DUP4 SWAP2 PUSH32 0x8BE0079C531659141344CD1FD0A4F28419497F9722A3DAAFE3B4186F6B6457E0 SWAP2 SWAP1 LOG3 POP POP JUMP JUMPDEST PUSH0 PUSH1 0x20 DUP3 DUP5 SUB SLT ISZERO PUSH2 0xF6F JUMPI PUSH0 DUP1 REVERT JUMPDEST POP CALLDATALOAD SWAP2 SWAP1 POP JUMP JUMPDEST PUSH0 DUP2 MLOAD DUP1 DUP5 MSTORE DUP1 PUSH1 0x20 DUP5 ADD PUSH1 0x20 DUP7 ADD MCOPY PUSH0 PUSH1 0x20 DUP3 DUP7 ADD ADD MSTORE PUSH1 0x20 PUSH1 0x1F NOT PUSH1 0x1F DUP4 ADD AND DUP6 ADD ADD SWAP2 POP POP SWAP3 SWAP2 POP POP JUMP JUMPDEST PUSH4 0x4E487B71 PUSH1 0xE0 SHL PUSH0 MSTORE PUSH1 0x21 PUSH1 0x4 MSTORE PUSH1 0x24 PUSH0 REVERT JUMPDEST PUSH1 0x5 DUP2 LT PUSH2 0xFC8 JUMPI PUSH2 0xFC8 PUSH2 0xFA4 JUMP JUMPDEST SWAP1 MSTORE JUMP JUMPDEST DUP14 DUP2 MSTORE PUSH1 0x1 PUSH1 0x1 PUSH1 0xA0 SHL SUB DUP14 AND PUSH1 0x20 DUP3 ADD MSTORE PUSH2 0x1A0 PUSH1 0x40 DUP3 ADD DUP2 SWAP1 MSTORE PUSH0 SWAP1 PUSH2 0xFF6 SWAP1 DUP4 ADD DUP15 PUSH2 0xF76 JUMP JUMPDEST SWAP1 POP DUP12 PUSH1 0x60 DUP4 ADD MSTORE DUP11 PUSH1 0x80 DUP4 ADD MSTORE DUP10 PUSH1 0xA0 DUP4 ADD MSTORE DUP9 PUSH1 0xC0 DUP4 ADD MSTORE DUP8 PUSH1 0xE0 DUP4 ADD MSTORE DUP7 PUSH2 0x100 DUP4 ADD MSTORE DUP6 PUSH2 0x120 DUP4 ADD MSTORE DUP5 PUSH2 0x140 DUP4 ADD MSTORE DUP4 ISZERO ISZERO PUSH2 0x160 DUP4 ADD MSTORE PUSH2 0x1042 PUSH2 0x180 DUP4 ADD DUP5 PUSH2 0xFB8 JUMP JUMPDEST SWAP15 SWAP14 POP POP POP POP POP POP POP POP POP POP POP POP POP POP JUMP JUMPDEST PUSH0 DUP1 PUSH1 0x20 DUP4 DUP6 SUB SLT ISZERO PUSH2 0x1065 JUMPI PUSH0 DUP1 REVERT JUMPDEST DUP3 CALLDATALOAD PUSH8 0xFFFFFFFFFFFFFFFF DUP2 GT ISZERO PUSH2 0x107B JUMPI PUSH0 DUP1 REVERT JUMPDEST DUP4 ADD PUSH1 0x1F DUP2 ADD DUP6 SGT PUSH2 0x108B JUMPI PUSH0 DUP1 REVERT JUMPDEST DUP1 CALLDATALOAD PUSH8 0xFFFFFFFFFFFFFFFF DUP2 GT ISZERO PUSH2 0x10A1 JUMPI PUSH0 DUP1 REVERT JUMPDEST DUP6 PUSH1 0x20 DUP3 DUP5 ADD ADD GT ISZERO PUSH2 0x10B2 JUMPI PUSH0 DUP1 REVERT JUMPDEST PUSH1 0x20 SWAP2 SWAP1 SWAP2 ADD SWAP6 SWAP1 SWAP5 POP SWAP3 POP POP POP JUMP JUMPDEST DUP1 CALLDATALOAD PUSH1 0x1 PUSH1 0x1 PUSH1 0xA0 SHL SUB DUP2 AND DUP2 EQ PUSH2 0x10D8 JUMPI PUSH0 DUP1 REVERT JUMPDEST SWAP2 SWAP1 POP JUMP JUMPDEST PUSH0 DUP1 PUSH1 0x40 DUP4 DUP6 SUB SLT ISZERO PUSH2 0x10EE JUMPI PUSH0 DUP1 REVERT JUMPDEST DUP3 CALLDATALOAD SWAP2 POP PUSH2 0x10FE PUSH1 0x20 DUP5 ADD PUSH2 0x10C2 JUMP JUMPDEST SWAP1 POP SWAP3 POP SWAP3 SWAP1 POP JUMP JUMPDEST PUSH1 0x3 DUP2 LT PUSH2 0xFC8 JUMPI PUSH2 0xFC8 PUSH2 0xFA4 JUMP JUMPDEST DUP3 ISZERO ISZERO DUP2 MSTORE PUSH1 0x40 DUP2 ADD PUSH2 0xEC7 PUSH1 0x20 DUP4 ADD DUP5 PUSH2 0x1107 JUMP JUMPDEST PUSH0 DUP1 PUSH1 0x40 DUP4 DUP6 SUB SLT ISZERO PUSH2 0x113E JUMPI PUSH0 DUP1 REVERT JUMPDEST DUP3 CALLDATALOAD SWAP2 POP PUSH1 0x20 DUP4 ADD CALLDATALOAD PUSH1 0x3 DUP2 LT PUSH2 0x1153 JUMPI PUSH0 DUP1 REVERT JUMPDEST DUP1 SWAP2 POP POP SWAP3 POP SWAP3 SWAP1 POP JUMP JUMPDEST DUP13 DUP2 MSTORE PUSH1 0x1 PUSH1 0x1 PUSH1 0xA0 SHL SUB DUP13 AND PUSH1 0x20 DUP3 ADD MSTORE PUSH2 0x180 PUSH1 0x40 DUP3 ADD DUP2 SWAP1 MSTORE PUSH0 SWAP1 PUSH2 0x1188 SWAP1 DUP4 ADD DUP14 PUSH2 0xF76 JUMP JUMPDEST SWAP1 POP DUP11 PUSH1 0x60 DUP4 ADD MSTORE DUP10 PUSH1 0x80 DUP4 ADD MSTORE DUP9 PUSH1 0xA0 DUP4 ADD MSTORE DUP8 PUSH1 0xC0 DUP4 ADD MSTORE DUP7 PUSH1 0xE0 DUP4 ADD MSTORE DUP6 PUSH2 0x100 DUP4 ADD MSTORE DUP5 PUSH2 0x120 DUP4 ADD MSTORE DUP4 ISZERO ISZERO PUSH2 0x140 DUP4 ADD MSTORE PUSH2 0x11CD PUSH2 0x160 DUP4 ADD DUP5 PUSH2 0xFB8 JUMP JUMPDEST SWAP14 SWAP13 POP POP POP POP POP POP POP POP POP POP POP POP POP JUMP JUMPDEST PUSH0 PUSH1 0x20 DUP3 DUP5 SUB SLT ISZERO PUSH2 0x11EE JUMPI PUSH0 DUP1 REVERT JUMPDEST PUSH2 0xEC7 DUP3 PUSH2 0x10C2 JUMP JUMPDEST PUSH1 0x1 DUP2 DUP2 SHR SWAP1 DUP3 AND DUP1 PUSH2 0x120B JUMPI PUSH1 0x7F DUP3 AND SWAP2 POP JUMPDEST PUSH1 0x20 DUP3 LT DUP2 SUB PUSH2 0x1229 JUMPI PUSH4 0x4E487B71 PUSH1 0xE0 SHL PUSH0 MSTORE PUSH1 0x22 PUSH1 0x4 MSTORE PUSH1 0x24 PUSH0 REVERT JUMPDEST POP SWAP2 SWAP1 POP JUMP JUMPDEST PUSH1 0x20 DUP1 DUP3 MSTORE PUSH1 0x17 SWAP1 DUP3 ADD MSTORE PUSH32 0x50726F706F73616C20646F6573206E6F74206578697374000000000000000000 PUSH1 0x40 DUP3 ADD MSTORE PUSH1 0x60 ADD SWAP1 JUMP JUMPDEST PUSH1 0x80 DUP2 ADD PUSH2 0x1274 DUP3 DUP8 PUSH2 0xFB8 JUMP JUMPDEST DUP5 PUSH1 0x20 DUP4 ADD MSTORE DUP4 PUSH1 0x40 DUP4 ADD MSTORE DUP3 PUSH1 0x60 DUP4 ADD MSTORE SWAP6 SWAP5 POP POP POP POP POP JUMP JUMPDEST PUSH0 PUSH1 0x20 DUP3 DUP5 SUB SLT ISZERO PUSH2 0x129F JUMPI PUSH0 DUP1 REVERT JUMPDEST POP MLOAD SWAP2 SWAP1 POP JUMP JUMPDEST PUSH4 0x4E487B71 PUSH1 0xE0 SHL PUSH0 MSTORE PUSH1 0x41 PUSH1 0x4 MSTORE PUSH1 0x24 PUSH0 REVERT JUMPDEST PUSH1 0x1F DUP3 GT ISZERO PUSH2 0x1301 JUMPI DUP1 PUSH0 MSTORE PUSH1 0x20 PUSH0 KECCAK256 PUSH1 0x1F DUP5 ADD PUSH1 0x5 SHR DUP2 ADD PUSH1 0x20 DUP6 LT ISZERO PUSH2 0x12DF JUMPI POP DUP1 JUMPDEST PUSH1 0x1F DUP5 ADD PUSH1 0x5 SHR DUP3 ADD SWAP2 POP JUMPDEST DUP2 DUP2 LT ISZERO PUSH2 0x12FE JUMPI PUSH0 DUP2 SSTORE PUSH1 0x1 ADD PUSH2 0x12EB JUMP JUMPDEST POP POP JUMPDEST POP POP POP JUMP JUMPDEST PUSH8 0xFFFFFFFFFFFFFFFF DUP4 GT ISZERO PUSH2 0x131E JUMPI PUSH2 0x131E PUSH2 0x12A6 JUMP JUMPDEST PUSH2 0x1332 DUP4 PUSH2 0x132C DUP4 SLOAD PUSH2 0x11F7 JUMP JUMPDEST DUP4 PUSH2 0x12BA JUMP JUMPDEST PUSH0 PUSH1 0x1F DUP5 GT PUSH1 0x1 DUP2 EQ PUSH2 0x1363 JUMPI PUSH0 DUP6 ISZERO PUSH2 0x134C JUMPI POP DUP4 DUP3 ADD CALLDATALOAD JUMPDEST PUSH0 NOT PUSH1 0x3 DUP8 SWAP1 SHL SHR NOT AND PUSH1 0x1 DUP7 SWAP1 SHL OR DUP4 SSTORE PUSH2 0x12FE JUMP JUMPDEST PUSH0 DUP4 DUP2 MSTORE PUSH1 0x20 DUP2 KECCAK256 PUSH1 0x1F NOT DUP8 AND SWAP2 JUMPDEST DUP3 DUP2 LT ISZERO PUSH2 0x1392 JUMPI DUP7 DUP6 ADD CALLDATALOAD DUP3 SSTORE PUSH1 0x20 SWAP5 DUP6 ADD SWAP5 PUSH1 0x1 SWAP1 SWAP3 ADD SWAP2 ADD PUSH2 0x1372 JUMP JUMPDEST POP DUP7 DUP3 LT ISZERO PUSH2 0x13AE JUMPI PUSH0 NOT PUSH1 0xF8 DUP9 PUSH1 0x3 SHL AND SHR NOT DUP5 DUP8 ADD CALLDATALOAD AND DUP2 SSTORE JUMPDEST POP POP PUSH1 0x1 DUP6 PUSH1 0x1 SHL ADD DUP4 SSTORE POP POP POP POP POP JUMP JUMPDEST PUSH4 0x4E487B71 PUSH1 0xE0 SHL PUSH0 MSTORE PUSH1 0x11 PUSH1 0x4 MSTORE PUSH1 0x24 PUSH0 REVERT JUMPDEST DUP1 DUP3 ADD DUP1 DUP3 GT ISZERO PUSH2 0x6F1 JUMPI PUSH2 0x6F1 PUSH2 0x13C0 JUMP JUMPDEST PUSH1 0x80 DUP2 MSTORE DUP5 PUSH1 0x80 DUP3 ADD MSTORE DUP5 DUP7 PUSH1 0xA0 DUP4 ADD CALLDATACOPY PUSH0 PUSH1 0xA0 DUP7 DUP4 ADD ADD MSTORE PUSH0 PUSH1 0xA0 PUSH1 0x1F NOT PUSH1 0x1F DUP9 ADD AND DUP4 ADD ADD SWAP1 POP DUP5 PUSH1 0x20 DUP4 ADD MSTORE DUP4 PUSH1 0x40 DUP4 ADD MSTORE DUP3 PUSH1 0x60 DUP4 ADD MSTORE SWAP7 SWAP6 POP POP POP POP POP POP JUMP JUMPDEST PUSH1 0x40 DUP2 ADD PUSH2 0x143A DUP3 DUP6 PUSH2 0x1107 JUMP JUMPDEST DUP3 PUSH1 0x20 DUP4 ADD MSTORE SWAP4 SWAP3 POP POP POP JUMP JUMPDEST DUP1 DUP3 MUL DUP2 ISZERO DUP3 DUP3 DIV DUP5 EQ OR PUSH2 0x6F1 JUMPI PUSH2 0x6F1 PUSH2 0x13C0 JUMP JUMPDEST PUSH0 DUP3 PUSH2 0x1478 JUMPI PUSH4 0x4E487B71 PUSH1 0xE0 SHL PUSH0 MSTORE PUSH1 0x12 PUSH1 0x4 MSTORE PUSH1 0x24 PUSH0 REVERT JUMPDEST POP DIV SWAP1 JUMP INVALID LOG2 PUSH5 0x6970667358 0x22 SLT KECCAK256 LOG2 0xD5 DELEGATECALL PUSH11 0x443566F04940D18FDCE289 0xC5 CREATE DUP1 CALLDATALOAD 0x22 SWAP15 0xC2 ADDMOD BASEFEE LT PUSH6 0x66910160CDEC PUSH5 0x736F6C6343 STOP ADDMOD BYTE STOP CALLER "
				},
				"gasEstimates": {
					"creation": {
						"codeDepositCost": "1059800",
						"executionCost": "infinite",
						"totalCost": "infinite"
					},
					"external": {
						"cancelProposal(uint256)": "32152",
						"casteVote(uint256,uint8)": "infinite",
						"createProposal(string)": "infinite",
						"finishProposal(uint256)": "infinite",
						"getProposal(uint256)": "infinite",
						"getVote(uint256,address)": "7122",
						"owner()": "2407",
						"proposalCounter()": "2384",
						"proposals(uint256)": "infinite",
						"quorumBasisPoints()": "2362",
						"renounceOwnership()": "infinite",
						"setQuorum(uint256)": "24556",
						"setVotingPeriod(uint256)": "24551",
						"stakingContract()": "infinite",
						"transferOwnership(address)": "28417",
						"votingPeriod()": "2340"
					}
				},
				"methodIdentifiers": {
					"cancelProposal(uint256)": "e0a8f6f5",
					"casteVote(uint256,uint8)": "c29a6b46",
					"createProposal(string)": "49c2a1a6",
					"finishProposal(uint256)": "27393278",
					"getProposal(uint256)": "c7f758a8",
					"getVote(uint256,address)": "bc3f931f",
					"owner()": "8da5cb5b",
					"proposalCounter()": "0c0512e9",
					"proposals(uint256)": "013cf08b",
					"quorumBasisPoints()": "079e2d2a",
					"renounceOwnership()": "715018a6",
					"setQuorum(uint256)": "c1ba4e59",
					"setVotingPeriod(uint256)": "ea0217cf",
					"stakingContract()": "ee99205c",
					"transferOwnership(address)": "f2fde38b",
					"votingPeriod()": "02a251a3"
				}
			},
			"storageLayout": {
				"storage": [
					{
						"astId": 8,
						"contract": "contracts/VotingContract.sol:VotingContract",
						"label": "_owner",
						"offset": 0,
						"slot": "0",
						"type": "t_address"
					},
					{
						"astId": 569,
						"contract": "contracts/VotingContract.sol:VotingContract",
						"label": "proposalCounter",
						"offset": 0,
						"slot": "1",
						"type": "t_uint256"
					},
					{
						"astId": 574,
						"contract": "contracts/VotingContract.sol:VotingContract",
						"label": "proposals",
						"offset": 0,
						"slot": "2",
						"type": "t_mapping(t_uint256,t_struct(ProposalView)567_storage)"
					},
					{
						"astId": 577,
						"contract": "contracts/VotingContract.sol:VotingContract",
						"label": "votingPeriod",
						"offset": 0,
						"slot": "3",
						"type": "t_uint256"
					},
					{
						"astId": 579,
						"contract": "contracts/VotingContract.sol:VotingContract",
						"label": "quorumBasisPoints",
						"offset": 0,
						"slot": "4",
						"type": "t_uint256"
					}
				],
				"types": {
					"t_address": {
						"encoding": "inplace",
						"label": "address",
						"numberOfBytes": "20"
					},
					"t_bool": {
						"encoding": "inplace",
						"label": "bool",
						"numberOfBytes": "1"
					},
					"t_enum(ProposalState)526": {
						"encoding": "inplace",
						"label": "enum VotingContract.ProposalState",
						"numberOfBytes": "1"
					},
					"t_enum(VoteType)530": {
						"encoding": "inplace",
						"label": "enum VotingContract.VoteType",
						"numberOfBytes": "1"
					},
					"t_mapping(t_address,t_bool)": {
						"encoding": "mapping",
						"key": "t_address",
						"label": "mapping(address => bool)",
						"numberOfBytes": "32",
						"value": "t_bool"
					},
					"t_mapping(t_address,t_enum(VoteType)530)": {
						"encoding": "mapping",
						"key": "t_address",
						"label": "mapping(address => enum VotingContract.VoteType)",
						"numberOfBytes": "32",
						"value": "t_enum(VoteType)530"
					},
					"t_mapping(t_uint256,t_struct(ProposalView)567_storage)": {
						"encoding": "mapping",
						"key": "t_uint256",
						"label": "mapping(uint256 => struct VotingContract.ProposalView)",
						"numberOfBytes": "32",
						"value": "t_struct(ProposalView)567_storage"
					},
					"t_string_storage": {
						"encoding": "bytes",
						"label": "string",
						"numberOfBytes": "32"
					},
					"t_struct(ProposalView)567_storage": {
						"encoding": "inplace",
						"label": "struct VotingContract.ProposalView",
						"members": [
							{
								"astId": 532,
								"contract": "contracts/VotingContract.sol:VotingContract",
								"label": "id",
								"offset": 0,
								"slot": "0",
								"type": "t_uint256"
							},
							{
								"astId": 534,
								"contract": "contracts/VotingContract.sol:VotingContract",
								"label": "proposer",
								"offset": 0,
								"slot": "1",
								"type": "t_address"
							},
							{
								"astId": 536,
								"contract": "contracts/VotingContract.sol:VotingContract",
								"label": "description",
								"offset": 0,
								"slot": "2",
								"type": "t_string_storage"
							},
							{
								"astId": 538,
								"contract": "contracts/VotingContract.sol:VotingContract",
								"label": "creationTime",
								"offset": 0,
								"slot": "3",
								"type": "t_uint256"
							},
							{
								"astId": 540,
								"contract": "contracts/VotingContract.sol:VotingContract",
								"label": "startTime",
								"offset": 0,
								"slot": "4",
								"type": "t_uint256"
							},
							{
								"astId": 542,
								"contract": "contracts/VotingContract.sol:VotingContract",
								"label": "endTime",
								"offset": 0,
								"slot": "5",
								"type": "t_uint256"
							},
							{
								"astId": 544,
								"contract": "contracts/VotingContract.sol:VotingContract",
								"label": "forVotes",
								"offset": 0,
								"slot": "6",
								"type": "t_uint256"
							},
							{
								"astId": 546,
								"contract": "contracts/VotingContract.sol:VotingContract",
								"label": "againstVotes",
								"offset": 0,
								"slot": "7",
								"type": "t_uint256"
							},
							{
								"astId": 548,
								"contract": "contracts/VotingContract.sol:VotingContract",
								"label": "abstainVotes",
								"offset": 0,
								"slot": "8",
								"type": "t_uint256"
							},
							{
								"astId": 550,
								"contract": "contracts/VotingContract.sol:VotingContract",
								"label": "totalVotesParticipated",
								"offset": 0,
								"slot": "9",
								"type": "t_uint256"
							},
							{
								"astId": 552,
								"contract": "contracts/VotingContract.sol:VotingContract",
								"label": "snapshotTotalStaked",
								"offset": 0,
								"slot": "10",
								"type": "t_uint256"
							},
							{
								"astId": 554,
								"contract": "contracts/VotingContract.sol:VotingContract",
								"label": "canceled",
								"offset": 0,
								"slot": "11",
								"type": "t_bool"
							},
							{
								"astId": 557,
								"contract": "contracts/VotingContract.sol:VotingContract",
								"label": "state",
								"offset": 1,
								"slot": "11",
								"type": "t_enum(ProposalState)526"
							},
							{
								"astId": 561,
								"contract": "contracts/VotingContract.sol:VotingContract",
								"label": "hasVoted",
								"offset": 0,
								"slot": "12",
								"type": "t_mapping(t_address,t_bool)"
							},
							{
								"astId": 566,
								"contract": "contracts/VotingContract.sol:VotingContract",
								"label": "voteChoice",
								"offset": 0,
								"slot": "13",
								"type": "t_mapping(t_address,t_enum(VoteType)530)"
							}
						],
						"numberOfBytes": "448"
					},
					"t_uint256": {
						"encoding": "inplace",
						"label": "uint256",
						"numberOfBytes": "32"
					}
				}
			},
			"userdoc": {
				"kind": "user",
				"methods": {
					"cancelProposal(uint256)": {
						"notice": "Allows the proposer to cancel an active proposal."
					},
					"casteVote(uint256,uint8)": {
						"notice": "Allows the users to caste the vote on an active proposal"
					},
					"createProposal(string)": {
						"notice": "Creates a new proposal."
					},
					"finishProposal(uint256)": {
						"notice": "Allows everyone to finish the proposal after its voting period is over"
					},
					"getProposal(uint256)": {
						"notice": "Fetches the proposal using proposalId"
					}
				},
				"version": 1
			}
		}
	}
}