{
	"data": {
		"bytecode": {
			"linkReferences": {},
			"object": "60e060405234801561000f575f80fd5b5060405161141838038061141883398101604081905261002e916104c2565b808686600361003d83826105e6565b50600461004a82826105e6565b5050506001600160a01b03811661007b57604051631e4fbdf760e01b81525f60048201526024015b60405180910390fd5b610084816101cf565b506001600160a01b0381166100ee5760405162461bcd60e51b815260206004820152602a60248201527f4f776e61626c653a20696e697469616c206f776e657220697320746865207a65604482015269726f206164647265737360b01b6064820152608401610072565b5f82116101515760405162461bcd60e51b815260206004820152602b60248201527f56657374696e673a206475726174696f6e206d7573742062652067726561746560448201526a72207468616e207a65726f60a81b6064820152608401610072565b4260805260a082905260c0839052831561016f5761016f8185610220565b821561017f5761017f3084610220565b60805160a0516040805186815260208101939093528201527fe8fbcdfc2a707362664a0cdec5038e3d2a2183f4d4d3747e56bfc200eda137569060600160405180910390a15050505050506106c5565b600580546001600160a01b038381166001600160a01b0319831681179093556040519116919082907f8be0079c531659141344cd1fd0a4f28419497f9722a3daafe3b4186f6b6457e0905f90a35050565b6001600160a01b0382166102495760405163ec442f0560e01b81525f6004820152602401610072565b6102545f8383610258565b5050565b6102638383836102ff565b306001600160a01b038416036102fa576005546001600160a01b03838116911614801561029a57506005546001600160a01b031633145b6102fa5760405162461bcd60e51b815260206004820152602b60248201527f45524332303a2063616e6e6f74207472616e73666572206c6f636b656420766560448201526a7374656420746f6b656e7360a81b6064820152608401610072565b505050565b6001600160a01b038316610329578060025f82825461031e91906106a0565b909155506103999050565b6001600160a01b0383165f908152602081905260409020548181101561037b5760405163391434e360e21b81526001600160a01b03851660048201526024810182905260448101839052606401610072565b6001600160a01b0384165f9081526020819052604090209082900390555b6001600160a01b0382166103b5576002805482900390556103d3565b6001600160a01b0382165f9081526020819052604090208054820190555b816001600160a01b0316836001600160a01b03167fddf252ad1be2c89b69c2b068fc378daa952ba7f163c4a11628f55a4df523b3ef8360405161041891815260200190565b60405180910390a3505050565b634e487b7160e01b5f52604160045260245ffd5b5f82601f830112610448575f80fd5b81516001600160401b0381111561046157610461610425565b604051601f8201601f19908116603f011681016001600160401b038111828210171561048f5761048f610425565b6040528181528382016020018510156104a6575f80fd5b8160208501602083015e5f918101602001919091529392505050565b5f805f805f8060c087890312156104d7575f80fd5b86516001600160401b038111156104ec575f80fd5b6104f889828a01610439565b602089015190975090506001600160401b03811115610515575f80fd5b61052189828a01610439565b604089015160608a015160808b015160a08c01519399509197509550935090506001600160a01b0381168114610555575f80fd5b809150509295509295509295565b600181811c9082168061057757607f821691505b60208210810361059557634e487b7160e01b5f52602260045260245ffd5b50919050565b601f8211156102fa57805f5260205f20601f840160051c810160208510156105c05750805b601f840160051c820191505b818110156105df575f81556001016105cc565b5050505050565b81516001600160401b038111156105ff576105ff610425565b6106138161060d8454610563565b8461059b565b6020601f821160018114610645575f831561062e5750848201515b5f19600385901b1c1916600184901b1784556105df565b5f84815260208120601f198516915b828110156106745787850151825560209485019460019092019101610654565b508482101561069157868401515f19600387901b60f8161c191681555b50505050600190811b01905550565b808201808211156106bf57634e487b7160e01b5f52601160045260245ffd5b92915050565b60805160a05160c051610cf86107205f395f818161025c0152818161061e015261066c01525f81816101710152818161059d015281816105f7015261064801525f81816102830152818161057401526105cf0152610cf85ff3fe608060405234801561000f575f80fd5b5060043610610127575f3560e01c8063715018a6116100a9578063a8660a781161006e578063a8660a781461027e578063a9059cbb146102a5578063dd62ed3e146102b8578063f2fde38b146102f0578063f4eb90a614610303575f80fd5b8063715018a61461021957806379cc6790146102215780638da5cb5b1461023457806395d89b411461024f5780639de5a56114610257575f80fd5b8063313ce567116100ef578063313ce567146101bc57806342966c68146101cb5780634b8f1ef0146101e057806354dd1da4146101e957806370a08231146101f1575f80fd5b806306fdde031461012b578063095ea7b3146101495780631514617e1461016c57806318160ddd146101a157806323b872dd146101a9575b5f80fd5b61013361030b565b6040516101409190610b07565b60405180910390f35b61015c610157366004610b57565b61039b565b6040519015158152602001610140565b6101937f000000000000000000000000000000000000000000000000000000000000000081565b604051908152602001610140565b600254610193565b61015c6101b7366004610b7f565b6103b4565b60405160128152602001610140565b6101de6101d9366004610bb9565b6103d7565b005b61019360065481565b6101de6103e4565b6101936101ff366004610bd0565b6001600160a01b03165f9081526020819052604090205490565b6101de6104ef565b6101de61022f366004610b57565b610502565b6005546040516001600160a01b039091168152602001610140565b61013361051b565b6101937f000000000000000000000000000000000000000000000000000000000000000081565b6101937f000000000000000000000000000000000000000000000000000000000000000081565b61015c6102b3366004610b57565b61052a565b6101936102c6366004610be9565b6001600160a01b039182165f90815260016020908152604080832093909416825291909152205490565b6101de6102fe366004610bd0565b610537565b610193610571565b60606003805461031a90610c1a565b80601f016020809104026020016040519081016040528092919081815260200182805461034690610c1a565b80156103915780601f1061036857610100808354040283529160200191610391565b820191905f5260205f20905b81548152906001019060200180831161037457829003601f168201915b5050505050905090565b5f336103a881858561069d565b60019150505b92915050565b5f336103c18582856106af565b6103cc85858561072b565b506001949350505050565b6103e13382610788565b50565b6103ec6107bc565b5f6103f5610571565b905060065481116104585760405162461bcd60e51b815260206004820152602260248201527f56657374696e673a206e6f206e657720746f6b656e7320686176652076657374604482015261195960f21b60648201526084015b60405180910390fd5b5f61046e600654836107e990919063ffffffff16565b60065490915061047e90826107fb565b60065561049d306104976005546001600160a01b031690565b8361072b565b6005546001600160a01b03166001600160a01b03167f6bc5063c7239b75c8bf325a2a2238f726fada322163996bb6c93d5594fb119f0826040516104e391815260200190565b60405180910390a25050565b6104f76107bc565b6105005f610806565b565b61050d8233836106af565b6105178282610788565b5050565b60606004805461031a90610c1a565b5f336103a881858561072b565b61053f6107bc565b6001600160a01b03811661056857604051631e4fbdf760e01b81525f600482015260240161044f565b6103e181610806565b5f7f00000000000000000000000000000000000000000000000000000000000000004210806105be57507f0000000000000000000000000000000000000000000000000000000000000000155b156105c857505f90565b5f6105f3427f00000000000000000000000000000000000000000000000000000000000000006107e9565b90507f00000000000000000000000000000000000000000000000000000000000000008110610643577f000000000000000000000000000000000000000000000000000000000000000091505090565b6106977f00000000000000000000000000000000000000000000000000000000000000006106917f000000000000000000000000000000000000000000000000000000000000000084610857565b90610862565b91505090565b6106aa838383600161086d565b505050565b6001600160a01b038381165f908152600160209081526040808320938616835292905220545f19811015610725578181101561071757604051637dc7a0d960e11b81526001600160a01b0384166004820152602481018290526044810183905260640161044f565b61072584848484035f61086d565b50505050565b6001600160a01b03831661075457604051634b637e8f60e11b81525f600482015260240161044f565b6001600160a01b03821661077d5760405163ec442f0560e01b81525f600482015260240161044f565b6106aa83838361093f565b6001600160a01b0382166107b157604051634b637e8f60e11b81525f600482015260240161044f565b610517825f8361093f565b6005546001600160a01b031633146105005760405163118cdaa760e01b815233600482015260240161044f565b5f6107f48284610c66565b9392505050565b5f6107f48284610c79565b600580546001600160a01b038381166001600160a01b0319831681179093556040519116919082907f8be0079c531659141344cd1fd0a4f28419497f9722a3daafe3b4186f6b6457e0905f90a35050565b5f6107f48284610c8c565b5f6107f48284610ca3565b6001600160a01b0384166108965760405163e602df0560e01b81525f600482015260240161044f565b6001600160a01b0383166108bf57604051634a1406b160e11b81525f600482015260240161044f565b6001600160a01b038085165f908152600160209081526040808320938716835292905220829055801561072557826001600160a01b0316846001600160a01b03167f8c5be1e5ebec7d5bd14f71427d1e84f3dd0314c0f7b2291e5b200ac8c7c3b9258460405161093191815260200190565b60405180910390a350505050565b61094a8383836109e1565b306001600160a01b038416036106aa576005546001600160a01b03838116911614801561098157506005546001600160a01b031633145b6106aa5760405162461bcd60e51b815260206004820152602b60248201527f45524332303a2063616e6e6f74207472616e73666572206c6f636b656420766560448201526a7374656420746f6b656e7360a81b606482015260840161044f565b6001600160a01b038316610a0b578060025f828254610a009190610c79565b90915550610a7b9050565b6001600160a01b0383165f9081526020819052604090205481811015610a5d5760405163391434e360e21b81526001600160a01b0385166004820152602481018290526044810183905260640161044f565b6001600160a01b0384165f9081526020819052604090209082900390555b6001600160a01b038216610a9757600280548290039055610ab5565b6001600160a01b0382165f9081526020819052604090208054820190555b816001600160a01b0316836001600160a01b03167fddf252ad1be2c89b69c2b068fc378daa952ba7f163c4a11628f55a4df523b3ef83604051610afa91815260200190565b60405180910390a3505050565b602081525f82518060208401528060208501604085015e5f604082850101526040601f19601f83011684010191505092915050565b80356001600160a01b0381168114610b52575f80fd5b919050565b5f8060408385031215610b68575f80fd5b610b7183610b3c565b946020939093013593505050565b5f805f60608486031215610b91575f80fd5b610b9a84610b3c565b9250610ba860208501610b3c565b929592945050506040919091013590565b5f60208284031215610bc9575f80fd5b5035919050565b5f60208284031215610be0575f80fd5b6107f482610b3c565b5f8060408385031215610bfa575f80fd5b610c0383610b3c565b9150610c1160208401610b3c565b90509250929050565b600181811c90821680610c2e57607f821691505b602082108103610c4c57634e487b7160e01b5f52602260045260245ffd5b50919050565b634e487b7160e01b5f52601160045260245ffd5b818103818111156103ae576103ae610c52565b808201808211156103ae576103ae610c52565b80820281158282048414176103ae576103ae610c52565b5f82610cbd57634e487b7160e01b5f52601260045260245ffd5b50049056fea2646970667358221220c9b3c575d73941a6363605c80751b333f5002709ac8b48e0acad56782e2cda7e64736f6c634300081a0033",
			"opcodes": "PUSH1 0xE0 PUSH1 0x40 MSTORE CALLVALUE DUP1 ISZERO PUSH2 0xF JUMPI PUSH0 DUP1 REVERT JUMPDEST POP PUSH1 0x40 MLOAD PUSH2 0x1418 CODESIZE SUB DUP1 PUSH2 0x1418 DUP4 CODECOPY DUP2 ADD PUSH1 0x40 DUP2 SWAP1 MSTORE PUSH2 0x2E SWAP2 PUSH2 0x4C2 JUMP JUMPDEST DUP1 DUP7 DUP7 PUSH1 0x3 PUSH2 0x3D DUP4 DUP3 PUSH2 0x5E6 JUMP JUMPDEST POP PUSH1 0x4 PUSH2 0x4A DUP3 DUP3 PUSH2 0x5E6 JUMP JUMPDEST POP POP POP PUSH1 0x1 PUSH1 0x1 PUSH1 0xA0 SHL SUB DUP2 AND PUSH2 0x7B JUMPI PUSH1 0x40 MLOAD PUSH4 0x1E4FBDF7 PUSH1 0xE0 SHL DUP2 MSTORE PUSH0 PUSH1 0x4 DUP3 ADD MSTORE PUSH1 0x24 ADD JUMPDEST PUSH1 0x40 MLOAD DUP1 SWAP2 SUB SWAP1 REVERT JUMPDEST PUSH2 0x84 DUP2 PUSH2 0x1CF JUMP JUMPDEST POP PUSH1 0x1 PUSH1 0x1 PUSH1 0xA0 SHL SUB DUP2 AND PUSH2 0xEE JUMPI PUSH1 0x40 MLOAD PUSH3 0x461BCD PUSH1 0xE5 SHL DUP2 MSTORE PUSH1 0x20 PUSH1 0x4 DUP3 ADD MSTORE PUSH1 0x2A PUSH1 0x24 DUP3 ADD MSTORE PUSH32 0x4F776E61626C653A20696E697469616C206F776E657220697320746865207A65 PUSH1 0x44 DUP3 ADD MSTORE PUSH10 0x726F2061646472657373 PUSH1 0xB0 SHL PUSH1 0x64 DUP3 ADD MSTORE PUSH1 0x84 ADD PUSH2 0x72 JUMP JUMPDEST PUSH0 DUP3 GT PUSH2 0x151 JUMPI PUSH1 0x40 MLOAD PUSH3 0x461BCD PUSH1 0xE5 SHL DUP2 MSTORE PUSH1 0x20 PUSH1 0x4 DUP3 ADD MSTORE PUSH1 0x2B PUSH1 0x24 DUP3 ADD MSTORE PUSH32 0x56657374696E673A206475726174696F6E206D75737420626520677265617465 PUSH1 0x44 DUP3 ADD MSTORE PUSH11 0x72207468616E207A65726F PUSH1 0xA8 SHL PUSH1 0x64 DUP3 ADD MSTORE PUSH1 0x84 ADD PUSH2 0x72 JUMP JUMPDEST TIMESTAMP PUSH1 0x80 MSTORE PUSH1 0xA0 DUP3 SWAP1 MSTORE PUSH1 0xC0 DUP4 SWAP1 MSTORE DUP4 ISZERO PUSH2 0x16F JUMPI PUSH2 0x16F DUP2 DUP6 PUSH2 0x220 JUMP JUMPDEST DUP3 ISZERO PUSH2 0x17F JUMPI PUSH2 0x17F ADDRESS DUP5 PUSH2 0x220 JUMP JUMPDEST PUSH1 0x80 MLOAD PUSH1 0xA0 MLOAD PUSH1 0x40 DUP1 MLOAD DUP7 DUP2 MSTORE PUSH1 0x20 DUP2 ADD SWAP4 SWAP1 SWAP4 MSTORE DUP3 ADD MSTORE PUSH32 0xE8FBCDFC2A707362664A0CDEC5038E3D2A2183F4D4D3747E56BFC200EDA13756 SWAP1 PUSH1 0x60 ADD PUSH1 0x40 MLOAD DUP1 SWAP2 SUB SWAP1 LOG1 POP POP POP POP POP POP PUSH2 0x6C5 JUMP JUMPDEST PUSH1 0x5 DUP1 SLOAD PUSH1 0x1 PUSH1 0x1 PUSH1 0xA0 SHL SUB DUP4 DUP2 AND PUSH1 0x1 PUSH1 0x1 PUSH1 0xA0 SHL SUB NOT DUP4 AND DUP2 OR SWAP1 SWAP4 SSTORE PUSH1 0x40 MLOAD SWAP2 AND SWAP2 SWAP1 DUP3 SWAP1 PUSH32 0x8BE0079C531659141344CD1FD0A4F28419497F9722A3DAAFE3B4186F6B6457E0 SWAP1 PUSH0 SWAP1 LOG3 POP POP JUMP JUMPDEST PUSH1 0x1 PUSH1 0x1 PUSH1 0xA0 SHL SUB DUP3 AND PUSH2 0x249 JUMPI PUSH1 0x40 MLOAD PUSH4 0xEC442F05 PUSH1 0xE0 SHL DUP2 MSTORE PUSH0 PUSH1 0x4 DUP3 ADD MSTORE PUSH1 0x24 ADD PUSH2 0x72 JUMP JUMPDEST PUSH2 0x254 PUSH0 DUP4 DUP4 PUSH2 0x258 JUMP JUMPDEST POP POP JUMP JUMPDEST PUSH2 0x263 DUP4 DUP4 DUP4 PUSH2 0x2FF JUMP JUMPDEST ADDRESS PUSH1 0x1 PUSH1 0x1 PUSH1 0xA0 SHL SUB DUP5 AND SUB PUSH2 0x2FA JUMPI PUSH1 0x5 SLOAD PUSH1 0x1 PUSH1 0x1 PUSH1 0xA0 SHL SUB DUP4 DUP2 AND SWAP2 AND EQ DUP1 ISZERO PUSH2 0x29A JUMPI POP PUSH1 0x5 SLOAD PUSH1 0x1 PUSH1 0x1 PUSH1 0xA0 SHL SUB AND CALLER EQ JUMPDEST PUSH2 0x2FA JUMPI PUSH1 0x40 MLOAD PUSH3 0x461BCD PUSH1 0xE5 SHL DUP2 MSTORE PUSH1 0x20 PUSH1 0x4 DUP3 ADD MSTORE PUSH1 0x2B PUSH1 0x24 DUP3 ADD MSTORE PUSH32 0x45524332303A2063616E6E6F74207472616E73666572206C6F636B6564207665 PUSH1 0x44 DUP3 ADD MSTORE PUSH11 0x7374656420746F6B656E73 PUSH1 0xA8 SHL PUSH1 0x64 DUP3 ADD MSTORE PUSH1 0x84 ADD PUSH2 0x72 JUMP JUMPDEST POP POP POP JUMP JUMPDEST PUSH1 0x1 PUSH1 0x1 PUSH1 0xA0 SHL SUB DUP4 AND PUSH2 0x329 JUMPI DUP1 PUSH1 0x2 PUSH0 DUP3 DUP3 SLOAD PUSH2 0x31E SWAP2 SWAP1 PUSH2 0x6A0 JUMP JUMPDEST SWAP1 SWAP2 SSTORE POP PUSH2 0x399 SWAP1 POP JUMP JUMPDEST PUSH1 0x1 PUSH1 0x1 PUSH1 0xA0 SHL SUB DUP4 AND PUSH0 SWAP1 DUP2 MSTORE PUSH1 0x20 DUP2 SWAP1 MSTORE PUSH1 0x40 SWAP1 KECCAK256 SLOAD DUP2 DUP2 LT ISZERO PUSH2 0x37B JUMPI PUSH1 0x40 MLOAD PUSH4 0x391434E3 PUSH1 0xE2 SHL DUP2 MSTORE PUSH1 0x1 PUSH1 0x1 PUSH1 0xA0 SHL SUB DUP6 AND PUSH1 0x4 DUP3 ADD MSTORE PUSH1 0x24 DUP2 ADD DUP3 SWAP1 MSTORE PUSH1 0x44 DUP2 ADD DUP4 SWAP1 MSTORE PUSH1 0x64 ADD PUSH2 0x72 JUMP JUMPDEST PUSH1 0x1 PUSH1 0x1 PUSH1 0xA0 SHL SUB DUP5 AND PUSH0 SWAP1 DUP2 MSTORE PUSH1 0x20 DUP2 SWAP1 MSTORE PUSH1 0x40 SWAP1 KECCAK256 SWAP1 DUP3 SWAP1 SUB SWAP1 SSTORE JUMPDEST PUSH1 0x1 PUSH1 0x1 PUSH1 0xA0 SHL SUB DUP3 AND PUSH2 0x3B5 JUMPI PUSH1 0x2 DUP1 SLOAD DUP3 SWAP1 SUB SWAP1 SSTORE PUSH2 0x3D3 JUMP JUMPDEST PUSH1 0x1 PUSH1 0x1 PUSH1 0xA0 SHL SUB DUP3 AND PUSH0 SWAP1 DUP2 MSTORE PUSH1 0x20 DUP2 SWAP1 MSTORE PUSH1 0x40 SWAP1 KECCAK256 DUP1 SLOAD DUP3 ADD SWAP1 SSTORE JUMPDEST DUP2 PUSH1 0x1 PUSH1 0x1 PUSH1 0xA0 SHL SUB AND DUP4 PUSH1 0x1 PUSH1 0x1 PUSH1 0xA0 SHL SUB AND PUSH32 0xDDF252AD1BE2C89B69C2B068FC378DAA952BA7F163C4A11628F55A4DF523B3EF DUP4 PUSH1 0x40 MLOAD PUSH2 0x418 SWAP2 DUP2 MSTORE PUSH1 0x20 ADD SWAP1 JUMP JUMPDEST PUSH1 0x40 MLOAD DUP1 SWAP2 SUB SWAP1 LOG3 POP POP POP JUMP JUMPDEST PUSH4 0x4E487B71 PUSH1 0xE0 SHL PUSH0 MSTORE PUSH1 0x41 PUSH1 0x4 MSTORE PUSH1 0x24 PUSH0 REVERT JUMPDEST PUSH0 DUP3 PUSH1 0x1F DUP4 ADD SLT PUSH2 0x448 JUMPI PUSH0 DUP1 REVERT JUMPDEST DUP2 MLOAD PUSH1 0x1 PUSH1 0x1 PUSH1 0x40 SHL SUB DUP2 GT ISZERO PUSH2 0x461 JUMPI PUSH2 0x461 PUSH2 0x425 JUMP JUMPDEST PUSH1 0x40 MLOAD PUSH1 0x1F DUP3 ADD PUSH1 0x1F NOT SWAP1 DUP2 AND PUSH1 0x3F ADD AND DUP2 ADD PUSH1 0x1 PUSH1 0x1 PUSH1 0x40 SHL SUB DUP2 GT DUP3 DUP3 LT OR ISZERO PUSH2 0x48F JUMPI PUSH2 0x48F PUSH2 0x425 JUMP JUMPDEST PUSH1 0x40 MSTORE DUP2 DUP2 MSTORE DUP4 DUP3 ADD PUSH1 0x20 ADD DUP6 LT ISZERO PUSH2 0x4A6 JUMPI PUSH0 DUP1 REVERT JUMPDEST DUP2 PUSH1 0x20 DUP6 ADD PUSH1 0x20 DUP4 ADD MCOPY PUSH0 SWAP2 DUP2 ADD PUSH1 0x20 ADD SWAP2 SWAP1 SWAP2 MSTORE SWAP4 SWAP3 POP POP POP JUMP JUMPDEST PUSH0 DUP1 PUSH0 DUP1 PUSH0 DUP1 PUSH1 0xC0 DUP8 DUP10 SUB SLT ISZERO PUSH2 0x4D7 JUMPI PUSH0 DUP1 REVERT JUMPDEST DUP7 MLOAD PUSH1 0x1 PUSH1 0x1 PUSH1 0x40 SHL SUB DUP2 GT ISZERO PUSH2 0x4EC JUMPI PUSH0 DUP1 REVERT JUMPDEST PUSH2 0x4F8 DUP10 DUP3 DUP11 ADD PUSH2 0x439 JUMP JUMPDEST PUSH1 0x20 DUP10 ADD MLOAD SWAP1 SWAP8 POP SWAP1 POP PUSH1 0x1 PUSH1 0x1 PUSH1 0x40 SHL SUB DUP2 GT ISZERO PUSH2 0x515 JUMPI PUSH0 DUP1 REVERT JUMPDEST PUSH2 0x521 DUP10 DUP3 DUP11 ADD PUSH2 0x439 JUMP JUMPDEST PUSH1 0x40 DUP10 ADD MLOAD PUSH1 0x60 DUP11 ADD MLOAD PUSH1 0x80 DUP12 ADD MLOAD PUSH1 0xA0 DUP13 ADD MLOAD SWAP4 SWAP10 POP SWAP2 SWAP8 POP SWAP6 POP SWAP4 POP SWAP1 POP PUSH1 0x1 PUSH1 0x1 PUSH1 0xA0 SHL SUB DUP2 AND DUP2 EQ PUSH2 0x555 JUMPI PUSH0 DUP1 REVERT JUMPDEST DUP1 SWAP2 POP POP SWAP3 SWAP6 POP SWAP3 SWAP6 POP SWAP3 SWAP6 JUMP JUMPDEST PUSH1 0x1 DUP2 DUP2 SHR SWAP1 DUP3 AND DUP1 PUSH2 0x577 JUMPI PUSH1 0x7F DUP3 AND SWAP2 POP JUMPDEST PUSH1 0x20 DUP3 LT DUP2 SUB PUSH2 0x595 JUMPI PUSH4 0x4E487B71 PUSH1 0xE0 SHL PUSH0 MSTORE PUSH1 0x22 PUSH1 0x4 MSTORE PUSH1 0x24 PUSH0 REVERT JUMPDEST POP SWAP2 SWAP1 POP JUMP JUMPDEST PUSH1 0x1F DUP3 GT ISZERO PUSH2 0x2FA JUMPI DUP1 PUSH0 MSTORE PUSH1 0x20 PUSH0 KECCAK256 PUSH1 0x1F DUP5 ADD PUSH1 0x5 SHR DUP2 ADD PUSH1 0x20 DUP6 LT ISZERO PUSH2 0x5C0 JUMPI POP DUP1 JUMPDEST PUSH1 0x1F DUP5 ADD PUSH1 0x5 SHR DUP3 ADD SWAP2 POP JUMPDEST DUP2 DUP2 LT ISZERO PUSH2 0x5DF JUMPI PUSH0 DUP2 SSTORE PUSH1 0x1 ADD PUSH2 0x5CC JUMP JUMPDEST POP POP POP POP POP JUMP JUMPDEST DUP2 MLOAD PUSH1 0x1 PUSH1 0x1 PUSH1 0x40 SHL SUB DUP2 GT ISZERO PUSH2 0x5FF JUMPI PUSH2 0x5FF PUSH2 0x425 JUMP JUMPDEST PUSH2 0x613 DUP2 PUSH2 0x60D DUP5 SLOAD PUSH2 0x563 JUMP JUMPDEST DUP5 PUSH2 0x59B JUMP JUMPDEST PUSH1 0x20 PUSH1 0x1F DUP3 GT PUSH1 0x1 DUP2 EQ PUSH2 0x645 JUMPI PUSH0 DUP4 ISZERO PUSH2 0x62E JUMPI POP DUP5 DUP3 ADD MLOAD JUMPDEST PUSH0 NOT PUSH1 0x3 DUP6 SWAP1 SHL SHR NOT AND PUSH1 0x1 DUP5 SWAP1 SHL OR DUP5 SSTORE PUSH2 0x5DF JUMP JUMPDEST PUSH0 DUP5 DUP2 MSTORE PUSH1 0x20 DUP2 KECCAK256 PUSH1 0x1F NOT DUP6 AND SWAP2 JUMPDEST DUP3 DUP2 LT ISZERO PUSH2 0x674 JUMPI DUP8 DUP6 ADD MLOAD DUP3 SSTORE PUSH1 0x20 SWAP5 DUP6 ADD SWAP5 PUSH1 0x1 SWAP1 SWAP3 ADD SWAP2 ADD PUSH2 0x654 JUMP JUMPDEST POP DUP5 DUP3 LT ISZERO PUSH2 0x691 JUMPI DUP7 DUP5 ADD MLOAD PUSH0 NOT PUSH1 0x3 DUP8 SWAP1 SHL PUSH1 0xF8 AND SHR NOT AND DUP2 SSTORE JUMPDEST POP POP POP POP PUSH1 0x1 SWAP1 DUP2 SHL ADD SWAP1 SSTORE POP JUMP JUMPDEST DUP1 DUP3 ADD DUP1 DUP3 GT ISZERO PUSH2 0x6BF JUMPI PUSH4 0x4E487B71 PUSH1 0xE0 SHL PUSH0 MSTORE PUSH1 0x11 PUSH1 0x4 MSTORE PUSH1 0x24 PUSH0 REVERT JUMPDEST SWAP3 SWAP2 POP POP JUMP JUMPDEST PUSH1 0x80 MLOAD PUSH1 0xA0 MLOAD PUSH1 0xC0 MLOAD PUSH2 0xCF8 PUSH2 0x720 PUSH0 CODECOPY PUSH0 DUP2 DUP2 PUSH2 0x25C ADD MSTORE DUP2 DUP2 PUSH2 0x61E ADD MSTORE PUSH2 0x66C ADD MSTORE PUSH0 DUP2 DUP2 PUSH2 0x171 ADD MSTORE DUP2 DUP2 PUSH2 0x59D ADD MSTORE DUP2 DUP2 PUSH2 0x5F7 ADD MSTORE PUSH2 0x648 ADD MSTORE PUSH0 DUP2 DUP2 PUSH2 0x283 ADD MSTORE DUP2 DUP2 PUSH2 0x574 ADD MSTORE PUSH2 0x5CF ADD MSTORE PUSH2 0xCF8 PUSH0 RETURN INVALID PUSH1 0x80 PUSH1 0x40 MSTORE CALLVALUE DUP1 ISZERO PUSH2 0xF JUMPI PUSH0 DUP1 REVERT JUMPDEST POP PUSH1 0x4 CALLDATASIZE LT PUSH2 0x127 JUMPI PUSH0 CALLDATALOAD PUSH1 0xE0 SHR DUP1 PUSH4 0x715018A6 GT PUSH2 0xA9 JUMPI DUP1 PUSH4 0xA8660A78 GT PUSH2 0x6E JUMPI DUP1 PUSH4 0xA8660A78 EQ PUSH2 0x27E JUMPI DUP1 PUSH4 0xA9059CBB EQ PUSH2 0x2A5 JUMPI DUP1 PUSH4 0xDD62ED3E EQ PUSH2 0x2B8 JUMPI DUP1 PUSH4 0xF2FDE38B EQ PUSH2 0x2F0 JUMPI DUP1 PUSH4 0xF4EB90A6 EQ PUSH2 0x303 JUMPI PUSH0 DUP1 REVERT JUMPDEST DUP1 PUSH4 0x715018A6 EQ PUSH2 0x219 JUMPI DUP1 PUSH4 0x79CC6790 EQ PUSH2 0x221 JUMPI DUP1 PUSH4 0x8DA5CB5B EQ PUSH2 0x234 JUMPI DUP1 PUSH4 0x95D89B41 EQ PUSH2 0x24F JUMPI DUP1 PUSH4 0x9DE5A561 EQ PUSH2 0x257 JUMPI PUSH0 DUP1 REVERT JUMPDEST DUP1 PUSH4 0x313CE567 GT PUSH2 0xEF JUMPI DUP1 PUSH4 0x313CE567 EQ PUSH2 0x1BC JUMPI DUP1 PUSH4 0x42966C68 EQ PUSH2 0x1CB JUMPI DUP1 PUSH4 0x4B8F1EF0 EQ PUSH2 0x1E0 JUMPI DUP1 PUSH4 0x54DD1DA4 EQ PUSH2 0x1E9 JUMPI DUP1 PUSH4 0x70A08231 EQ PUSH2 0x1F1 JUMPI PUSH0 DUP1 REVERT JUMPDEST DUP1 PUSH4 0x6FDDE03 EQ PUSH2 0x12B JUMPI DUP1 PUSH4 0x95EA7B3 EQ PUSH2 0x149 JUMPI DUP1 PUSH4 0x1514617E EQ PUSH2 0x16C JUMPI DUP1 PUSH4 0x18160DDD EQ PUSH2 0x1A1 JUMPI DUP1 PUSH4 0x23B872DD EQ PUSH2 0x1A9 JUMPI JUMPDEST PUSH0 DUP1 REVERT JUMPDEST PUSH2 0x133 PUSH2 0x30B JUMP JUMPDEST PUSH1 0x40 MLOAD PUSH2 0x140 SWAP2 SWAP1 PUSH2 0xB07 JUMP JUMPDEST PUSH1 0x40 MLOAD DUP1 SWAP2 SUB SWAP1 RETURN JUMPDEST PUSH2 0x15C PUSH2 0x157 CALLDATASIZE PUSH1 0x4 PUSH2 0xB57 JUMP JUMPDEST PUSH2 0x39B JUMP JUMPDEST PUSH1 0x40 MLOAD SWAP1 ISZERO ISZERO DUP2 MSTORE PUSH1 0x20 ADD PUSH2 0x140 JUMP JUMPDEST PUSH2 0x193 PUSH32 0x0 DUP2 JUMP JUMPDEST PUSH1 0x40 MLOAD SWAP1 DUP2 MSTORE PUSH1 0x20 ADD PUSH2 0x140 JUMP JUMPDEST PUSH1 0x2 SLOAD PUSH2 0x193 JUMP JUMPDEST PUSH2 0x15C PUSH2 0x1B7 CALLDATASIZE PUSH1 0x4 PUSH2 0xB7F JUMP JUMPDEST PUSH2 0x3B4 JUMP JUMPDEST PUSH1 0x40 MLOAD PUSH1 0x12 DUP2 MSTORE PUSH1 0x20 ADD PUSH2 0x140 JUMP JUMPDEST PUSH2 0x1DE PUSH2 0x1D9 CALLDATASIZE PUSH1 0x4 PUSH2 0xBB9 JUMP JUMPDEST PUSH2 0x3D7 JUMP JUMPDEST STOP JUMPDEST PUSH2 0x193 PUSH1 0x6 SLOAD DUP2 JUMP JUMPDEST PUSH2 0x1DE PUSH2 0x3E4 JUMP JUMPDEST PUSH2 0x193 PUSH2 0x1FF CALLDATASIZE PUSH1 0x4 PUSH2 0xBD0 JUMP JUMPDEST PUSH1 0x1 PUSH1 0x1 PUSH1 0xA0 SHL SUB AND PUSH0 SWAP1 DUP2 MSTORE PUSH1 0x20 DUP2 SWAP1 MSTORE PUSH1 0x40 SWAP1 KECCAK256 SLOAD SWAP1 JUMP JUMPDEST PUSH2 0x1DE PUSH2 0x4EF JUMP JUMPDEST PUSH2 0x1DE PUSH2 0x22F CALLDATASIZE PUSH1 0x4 PUSH2 0xB57 JUMP JUMPDEST PUSH2 0x502 JUMP JUMPDEST PUSH1 0x5 SLOAD PUSH1 0x40 MLOAD PUSH1 0x1 PUSH1 0x1 PUSH1 0xA0 SHL SUB SWAP1 SWAP2 AND DUP2 MSTORE PUSH1 0x20 ADD PUSH2 0x140 JUMP JUMPDEST PUSH2 0x133 PUSH2 0x51B JUMP JUMPDEST PUSH2 0x193 PUSH32 0x0 DUP2 JUMP JUMPDEST PUSH2 0x193 PUSH32 0x0 DUP2 JUMP JUMPDEST PUSH2 0x15C PUSH2 0x2B3 CALLDATASIZE PUSH1 0x4 PUSH2 0xB57 JUMP JUMPDEST PUSH2 0x52A JUMP JUMPDEST PUSH2 0x193 PUSH2 0x2C6 CALLDATASIZE PUSH1 0x4 PUSH2 0xBE9 JUMP JUMPDEST PUSH1 0x1 PUSH1 0x1 PUSH1 0xA0 SHL SUB SWAP2 DUP3 AND PUSH0 SWAP1 DUP2 MSTORE PUSH1 0x1 PUSH1 0x20 SWAP1 DUP2 MSTORE PUSH1 0x40 DUP1 DUP4 KECCAK256 SWAP4 SWAP1 SWAP5 AND DUP3 MSTORE SWAP2 SWAP1 SWAP2 MSTORE KECCAK256 SLOAD SWAP1 JUMP JUMPDEST PUSH2 0x1DE PUSH2 0x2FE CALLDATASIZE PUSH1 0x4 PUSH2 0xBD0 JUMP JUMPDEST PUSH2 0x537 JUMP JUMPDEST PUSH2 0x193 PUSH2 0x571 JUMP JUMPDEST PUSH1 0x60 PUSH1 0x3 DUP1 SLOAD PUSH2 0x31A SWAP1 PUSH2 0xC1A JUMP JUMPDEST DUP1 PUSH1 0x1F ADD PUSH1 0x20 DUP1 SWAP2 DIV MUL PUSH1 0x20 ADD PUSH1 0x40 MLOAD SWAP1 DUP2 ADD PUSH1 0x40 MSTORE DUP1 SWAP3 SWAP2 SWAP1 DUP2 DUP2 MSTORE PUSH1 0x20 ADD DUP3 DUP1 SLOAD PUSH2 0x346 SWAP1 PUSH2 0xC1A JUMP JUMPDEST DUP1 ISZERO PUSH2 0x391 JUMPI DUP1 PUSH1 0x1F LT PUSH2 0x368 JUMPI PUSH2 0x100 DUP1 DUP4 SLOAD DIV MUL DUP4 MSTORE SWAP2 PUSH1 0x20 ADD SWAP2 PUSH2 0x391 JUMP JUMPDEST DUP3 ADD SWAP2 SWAP1 PUSH0 MSTORE PUSH1 0x20 PUSH0 KECCAK256 SWAP1 JUMPDEST DUP2 SLOAD DUP2 MSTORE SWAP1 PUSH1 0x1 ADD SWAP1 PUSH1 0x20 ADD DUP1 DUP4 GT PUSH2 0x374 JUMPI DUP3 SWAP1 SUB PUSH1 0x1F AND DUP3 ADD SWAP2 JUMPDEST POP POP POP POP POP SWAP1 POP SWAP1 JUMP JUMPDEST PUSH0 CALLER PUSH2 0x3A8 DUP2 DUP6 DUP6 PUSH2 0x69D JUMP JUMPDEST PUSH1 0x1 SWAP2 POP POP JUMPDEST SWAP3 SWAP2 POP POP JUMP JUMPDEST PUSH0 CALLER PUSH2 0x3C1 DUP6 DUP3 DUP6 PUSH2 0x6AF JUMP JUMPDEST PUSH2 0x3CC DUP6 DUP6 DUP6 PUSH2 0x72B JUMP JUMPDEST POP PUSH1 0x1 SWAP5 SWAP4 POP POP POP POP JUMP JUMPDEST PUSH2 0x3E1 CALLER DUP3 PUSH2 0x788 JUMP JUMPDEST POP JUMP JUMPDEST PUSH2 0x3EC PUSH2 0x7BC JUMP JUMPDEST PUSH0 PUSH2 0x3F5 PUSH2 0x571 JUMP JUMPDEST SWAP1 POP PUSH1 0x6 SLOAD DUP2 GT PUSH2 0x458 JUMPI PUSH1 0x40 MLOAD PUSH3 0x461BCD PUSH1 0xE5 SHL DUP2 MSTORE PUSH1 0x20 PUSH1 0x4 DUP3 ADD MSTORE PUSH1 0x22 PUSH1 0x24 DUP3 ADD MSTORE PUSH32 0x56657374696E673A206E6F206E657720746F6B656E7320686176652076657374 PUSH1 0x44 DUP3 ADD MSTORE PUSH2 0x1959 PUSH1 0xF2 SHL PUSH1 0x64 DUP3 ADD MSTORE PUSH1 0x84 ADD JUMPDEST PUSH1 0x40 MLOAD DUP1 SWAP2 SUB SWAP1 REVERT JUMPDEST PUSH0 PUSH2 0x46E PUSH1 0x6 SLOAD DUP4 PUSH2 0x7E9 SWAP1 SWAP2 SWAP1 PUSH4 0xFFFFFFFF AND JUMP JUMPDEST PUSH1 0x6 SLOAD SWAP1 SWAP2 POP PUSH2 0x47E SWAP1 DUP3 PUSH2 0x7FB JUMP JUMPDEST PUSH1 0x6 SSTORE PUSH2 0x49D ADDRESS PUSH2 0x497 PUSH1 0x5 SLOAD PUSH1 0x1 PUSH1 0x1 PUSH1 0xA0 SHL SUB AND SWAP1 JUMP JUMPDEST DUP4 PUSH2 0x72B JUMP JUMPDEST PUSH1 0x5 SLOAD PUSH1 0x1 PUSH1 0x1 PUSH1 0xA0 SHL SUB AND PUSH1 0x1 PUSH1 0x1 PUSH1 0xA0 SHL SUB AND PUSH32 0x6BC5063C7239B75C8BF325A2A2238F726FADA322163996BB6C93D5594FB119F0 DUP3 PUSH1 0x40 MLOAD PUSH2 0x4E3 SWAP2 DUP2 MSTORE PUSH1 0x20 ADD SWAP1 JUMP JUMPDEST PUSH1 0x40 MLOAD DUP1 SWAP2 SUB SWAP1 LOG2 POP POP JUMP JUMPDEST PUSH2 0x4F7 PUSH2 0x7BC JUMP JUMPDEST PUSH2 0x500 PUSH0 PUSH2 0x806 JUMP JUMPDEST JUMP JUMPDEST PUSH2 0x50D DUP3 CALLER DUP4 PUSH2 0x6AF JUMP JUMPDEST PUSH2 0x517 DUP3 DUP3 PUSH2 0x788 JUMP JUMPDEST POP POP JUMP JUMPDEST PUSH1 0x60 PUSH1 0x4 DUP1 SLOAD PUSH2 0x31A SWAP1 PUSH2 0xC1A JUMP JUMPDEST PUSH0 CALLER PUSH2 0x3A8 DUP2 DUP6 DUP6 PUSH2 0x72B JUMP JUMPDEST PUSH2 0x53F PUSH2 0x7BC JUMP JUMPDEST PUSH1 0x1 PUSH1 0x1 PUSH1 0xA0 SHL SUB DUP2 AND PUSH2 0x568 JUMPI PUSH1 0x40 MLOAD PUSH4 0x1E4FBDF7 PUSH1 0xE0 SHL DUP2 MSTORE PUSH0 PUSH1 0x4 DUP3 ADD MSTORE PUSH1 0x24 ADD PUSH2 0x44F JUMP JUMPDEST PUSH2 0x3E1 DUP2 PUSH2 0x806 JUMP JUMPDEST PUSH0 PUSH32 0x0 TIMESTAMP LT DUP1 PUSH2 0x5BE JUMPI POP PUSH32 0x0 ISZERO JUMPDEST ISZERO PUSH2 0x5C8 JUMPI POP PUSH0 SWAP1 JUMP JUMPDEST PUSH0 PUSH2 0x5F3 TIMESTAMP PUSH32 0x0 PUSH2 0x7E9 JUMP JUMPDEST SWAP1 POP PUSH32 0x0 DUP2 LT PUSH2 0x643 JUMPI PUSH32 0x0 SWAP2 POP POP SWAP1 JUMP JUMPDEST PUSH2 0x697 PUSH32 0x0 PUSH2 0x691 PUSH32 0x0 DUP5 PUSH2 0x857 JUMP JUMPDEST SWAP1 PUSH2 0x862 JUMP JUMPDEST SWAP2 POP POP SWAP1 JUMP JUMPDEST PUSH2 0x6AA DUP4 DUP4 DUP4 PUSH1 0x1 PUSH2 0x86D JUMP JUMPDEST POP POP POP JUMP JUMPDEST PUSH1 0x1 PUSH1 0x1 PUSH1 0xA0 SHL SUB DUP4 DUP2 AND PUSH0 SWAP1 DUP2 MSTORE PUSH1 0x1 PUSH1 0x20 SWAP1 DUP2 MSTORE PUSH1 0x40 DUP1 DUP4 KECCAK256 SWAP4 DUP7 AND DUP4 MSTORE SWAP3 SWAP1 MSTORE KECCAK256 SLOAD PUSH0 NOT DUP2 LT ISZERO PUSH2 0x725 JUMPI DUP2 DUP2 LT ISZERO PUSH2 0x717 JUMPI PUSH1 0x40 MLOAD PUSH4 0x7DC7A0D9 PUSH1 0xE1 SHL DUP2 MSTORE PUSH1 0x1 PUSH1 0x1 PUSH1 0xA0 SHL SUB DUP5 AND PUSH1 0x4 DUP3 ADD MSTORE PUSH1 0x24 DUP2 ADD DUP3 SWAP1 MSTORE PUSH1 0x44 DUP2 ADD DUP4 SWAP1 MSTORE PUSH1 0x64 ADD PUSH2 0x44F JUMP JUMPDEST PUSH2 0x725 DUP5 DUP5 DUP5 DUP5 SUB PUSH0 PUSH2 0x86D JUMP JUMPDEST POP POP POP POP JUMP JUMPDEST PUSH1 0x1 PUSH1 0x1 PUSH1 0xA0 SHL SUB DUP4 AND PUSH2 0x754 JUMPI PUSH1 0x40 MLOAD PUSH4 0x4B637E8F PUSH1 0xE1 SHL DUP2 MSTORE PUSH0 PUSH1 0x4 DUP3 ADD MSTORE PUSH1 0x24 ADD PUSH2 0x44F JUMP JUMPDEST PUSH1 0x1 PUSH1 0x1 PUSH1 0xA0 SHL SUB DUP3 AND PUSH2 0x77D JUMPI PUSH1 0x40 MLOAD PUSH4 0xEC442F05 PUSH1 0xE0 SHL DUP2 MSTORE PUSH0 PUSH1 0x4 DUP3 ADD MSTORE PUSH1 0x24 ADD PUSH2 0x44F JUMP JUMPDEST PUSH2 0x6AA DUP4 DUP4 DUP4 PUSH2 0x93F JUMP JUMPDEST PUSH1 0x1 PUSH1 0x1 PUSH1 0xA0 SHL SUB DUP3 AND PUSH2 0x7B1 JUMPI PUSH1 0x40 MLOAD PUSH4 0x4B637E8F PUSH1 0xE1 SHL DUP2 MSTORE PUSH0 PUSH1 0x4 DUP3 ADD MSTORE PUSH1 0x24 ADD PUSH2 0x44F JUMP JUMPDEST PUSH2 0x517 DUP3 PUSH0 DUP4 PUSH2 0x93F JUMP JUMPDEST PUSH1 0x5 SLOAD PUSH1 0x1 PUSH1 0x1 PUSH1 0xA0 SHL SUB AND CALLER EQ PUSH2 0x500 JUMPI PUSH1 0x40 MLOAD PUSH4 0x118CDAA7 PUSH1 0xE0 SHL DUP2 MSTORE CALLER PUSH1 0x4 DUP3 ADD MSTORE PUSH1 0x24 ADD PUSH2 0x44F JUMP JUMPDEST PUSH0 PUSH2 0x7F4 DUP3 DUP5 PUSH2 0xC66 JUMP JUMPDEST SWAP4 SWAP3 POP POP POP JUMP JUMPDEST PUSH0 PUSH2 0x7F4 DUP3 DUP5 PUSH2 0xC79 JUMP JUMPDEST PUSH1 0x5 DUP1 SLOAD PUSH1 0x1 PUSH1 0x1 PUSH1 0xA0 SHL SUB DUP4 DUP2 AND PUSH1 0x1 PUSH1 0x1 PUSH1 0xA0 SHL SUB NOT DUP4 AND DUP2 OR SWAP1 SWAP4 SSTORE PUSH1 0x40 MLOAD SWAP2 AND SWAP2 SWAP1 DUP3 SWAP1 PUSH32 0x8BE0079C531659141344CD1FD0A4F28419497F9722A3DAAFE3B4186F6B6457E0 SWAP1 PUSH0 SWAP1 LOG3 POP POP JUMP JUMPDEST PUSH0 PUSH2 0x7F4 DUP3 DUP5 PUSH2 0xC8C JUMP JUMPDEST PUSH0 PUSH2 0x7F4 DUP3 DUP5 PUSH2 0xCA3 JUMP JUMPDEST PUSH1 0x1 PUSH1 0x1 PUSH1 0xA0 SHL SUB DUP5 AND PUSH2 0x896 JUMPI PUSH1 0x40 MLOAD PUSH4 0xE602DF05 PUSH1 0xE0 SHL DUP2 MSTORE PUSH0 PUSH1 0x4 DUP3 ADD MSTORE PUSH1 0x24 ADD PUSH2 0x44F JUMP JUMPDEST PUSH1 0x1 PUSH1 0x1 PUSH1 0xA0 SHL SUB DUP4 AND PUSH2 0x8BF JUMPI PUSH1 0x40 MLOAD PUSH4 0x4A1406B1 PUSH1 0xE1 SHL DUP2 MSTORE PUSH0 PUSH1 0x4 DUP3 ADD MSTORE PUSH1 0x24 ADD PUSH2 0x44F JUMP JUMPDEST PUSH1 0x1 PUSH1 0x1 PUSH1 0xA0 SHL SUB DUP1 DUP6 AND PUSH0 SWAP1 DUP2 MSTORE PUSH1 0x1 PUSH1 0x20 SWAP1 DUP2 MSTORE PUSH1 0x40 DUP1 DUP4 KECCAK256 SWAP4 DUP8 AND DUP4 MSTORE SWAP3 SWAP1 MSTORE KECCAK256 DUP3 SWAP1 SSTORE DUP1 ISZERO PUSH2 0x725 JUMPI DUP3 PUSH1 0x1 PUSH1 0x1 PUSH1 0xA0 SHL SUB AND DUP5 PUSH1 0x1 PUSH1 0x1 PUSH1 0xA0 SHL SUB AND PUSH32 0x8C5BE1E5EBEC7D5BD14F71427D1E84F3DD0314C0F7B2291E5B200AC8C7C3B925 DUP5 PUSH1 0x40 MLOAD PUSH2 0x931 SWAP2 DUP2 MSTORE PUSH1 0x20 ADD SWAP1 JUMP JUMPDEST PUSH1 0x40 MLOAD DUP1 SWAP2 SUB SWAP1 LOG3 POP POP POP POP JUMP JUMPDEST PUSH2 0x94A DUP4 DUP4 DUP4 PUSH2 0x9E1 JUMP JUMPDEST ADDRESS PUSH1 0x1 PUSH1 0x1 PUSH1 0xA0 SHL SUB DUP5 AND SUB PUSH2 0x6AA JUMPI PUSH1 0x5 SLOAD PUSH1 0x1 PUSH1 0x1 PUSH1 0xA0 SHL SUB DUP4 DUP2 AND SWAP2 AND EQ DUP1 ISZERO PUSH2 0x981 JUMPI POP PUSH1 0x5 SLOAD PUSH1 0x1 PUSH1 0x1 PUSH1 0xA0 SHL SUB AND CALLER EQ JUMPDEST PUSH2 0x6AA JUMPI PUSH1 0x40 MLOAD PUSH3 0x461BCD PUSH1 0xE5 SHL DUP2 MSTORE PUSH1 0x20 PUSH1 0x4 DUP3 ADD MSTORE PUSH1 0x2B PUSH1 0x24 DUP3 ADD MSTORE PUSH32 0x45524332303A2063616E6E6F74207472616E73666572206C6F636B6564207665 PUSH1 0x44 DUP3 ADD MSTORE PUSH11 0x7374656420746F6B656E73 PUSH1 0xA8 SHL PUSH1 0x64 DUP3 ADD MSTORE PUSH1 0x84 ADD PUSH2 0x44F JUMP JUMPDEST PUSH1 0x1 PUSH1 0x1 PUSH1 0xA0 SHL SUB DUP4 AND PUSH2 0xA0B JUMPI DUP1 PUSH1 0x2 PUSH0 DUP3 DUP3 SLOAD PUSH2 0xA00 SWAP2 SWAP1 PUSH2 0xC79 JUMP JUMPDEST SWAP1 SWAP2 SSTORE POP PUSH2 0xA7B SWAP1 POP JUMP JUMPDEST PUSH1 0x1 PUSH1 0x1 PUSH1 0xA0 SHL SUB DUP4 AND PUSH0 SWAP1 DUP2 MSTORE PUSH1 0x20 DUP2 SWAP1 MSTORE PUSH1 0x40 SWAP1 KECCAK256 SLOAD DUP2 DUP2 LT ISZERO PUSH2 0xA5D JUMPI PUSH1 0x40 MLOAD PUSH4 0x391434E3 PUSH1 0xE2 SHL DUP2 MSTORE PUSH1 0x1 PUSH1 0x1 PUSH1 0xA0 SHL SUB DUP6 AND PUSH1 0x4 DUP3 ADD MSTORE PUSH1 0x24 DUP2 ADD DUP3 SWAP1 MSTORE PUSH1 0x44 DUP2 ADD DUP4 SWAP1 MSTORE PUSH1 0x64 ADD PUSH2 0x44F JUMP JUMPDEST PUSH1 0x1 PUSH1 0x1 PUSH1 0xA0 SHL SUB DUP5 AND PUSH0 SWAP1 DUP2 MSTORE PUSH1 0x20 DUP2 SWAP1 MSTORE PUSH1 0x40 SWAP1 KECCAK256 SWAP1 DUP3 SWAP1 SUB SWAP1 SSTORE JUMPDEST PUSH1 0x1 PUSH1 0x1 PUSH1 0xA0 SHL SUB DUP3 AND PUSH2 0xA97 JUMPI PUSH1 0x2 DUP1 SLOAD DUP3 SWAP1 SUB SWAP1 SSTORE PUSH2 0xAB5 JUMP JUMPDEST PUSH1 0x1 PUSH1 0x1 PUSH1 0xA0 SHL SUB DUP3 AND PUSH0 SWAP1 DUP2 MSTORE PUSH1 0x20 DUP2 SWAP1 MSTORE PUSH1 0x40 SWAP1 KECCAK256 DUP1 SLOAD DUP3 ADD SWAP1 SSTORE JUMPDEST DUP2 PUSH1 0x1 PUSH1 0x1 PUSH1 0xA0 SHL SUB AND DUP4 PUSH1 0x1 PUSH1 0x1 PUSH1 0xA0 SHL SUB AND PUSH32 0xDDF252AD1BE2C89B69C2B068FC378DAA952BA7F163C4A11628F55A4DF523B3EF DUP4 PUSH1 0x40 MLOAD PUSH2 0xAFA SWAP2 DUP2 MSTORE PUSH1 0x20 ADD SWAP1 JUMP JUMPDEST PUSH1 0x40 MLOAD DUP1 SWAP2 SUB SWAP1 LOG3 POP POP POP JUMP JUMPDEST PUSH1 0x20 DUP2 MSTORE PUSH0 DUP3 MLOAD DUP1 PUSH1 0x20 DUP5 ADD MSTORE DUP1 PUSH1 0x20 DUP6 ADD PUSH1 0x40 DUP6 ADD MCOPY PUSH0 PUSH1 0x40 DUP3 DUP6 ADD ADD MSTORE PUSH1 0x40 PUSH1 0x1F NOT PUSH1 0x1F DUP4 ADD AND DUP5 ADD ADD SWAP2 POP POP SWAP3 SWAP2 POP POP JUMP JUMPDEST DUP1 CALLDATALOAD PUSH1 0x1 PUSH1 0x1 PUSH1 0xA0 SHL SUB DUP2 AND DUP2 EQ PUSH2 0xB52 JUMPI PUSH0 DUP1 REVERT JUMPDEST SWAP2 SWAP1 POP JUMP JUMPDEST PUSH0 DUP1 PUSH1 0x40 DUP4 DUP6 SUB SLT ISZERO PUSH2 0xB68 JUMPI PUSH0 DUP1 REVERT JUMPDEST PUSH2 0xB71 DUP4 PUSH2 0xB3C JUMP JUMPDEST SWAP5 PUSH1 0x20 SWAP4 SWAP1 SWAP4 ADD CALLDATALOAD SWAP4 POP POP POP JUMP JUMPDEST PUSH0 DUP1 PUSH0 PUSH1 0x60 DUP5 DUP7 SUB SLT ISZERO PUSH2 0xB91 JUMPI PUSH0 DUP1 REVERT JUMPDEST PUSH2 0xB9A DUP5 PUSH2 0xB3C JUMP JUMPDEST SWAP3 POP PUSH2 0xBA8 PUSH1 0x20 DUP6 ADD PUSH2 0xB3C JUMP JUMPDEST SWAP3 SWAP6 SWAP3 SWAP5 POP POP POP PUSH1 0x40 SWAP2 SWAP1 SWAP2 ADD CALLDATALOAD SWAP1 JUMP JUMPDEST PUSH0 PUSH1 0x20 DUP3 DUP5 SUB SLT ISZERO PUSH2 0xBC9 JUMPI PUSH0 DUP1 REVERT JUMPDEST POP CALLDATALOAD SWAP2 SWAP1 POP JUMP JUMPDEST PUSH0 PUSH1 0x20 DUP3 DUP5 SUB SLT ISZERO PUSH2 0xBE0 JUMPI PUSH0 DUP1 REVERT JUMPDEST PUSH2 0x7F4 DUP3 PUSH2 0xB3C JUMP JUMPDEST PUSH0 DUP1 PUSH1 0x40 DUP4 DUP6 SUB SLT ISZERO PUSH2 0xBFA JUMPI PUSH0 DUP1 REVERT JUMPDEST PUSH2 0xC03 DUP4 PUSH2 0xB3C JUMP JUMPDEST SWAP2 POP PUSH2 0xC11 PUSH1 0x20 DUP5 ADD PUSH2 0xB3C JUMP JUMPDEST SWAP1 POP SWAP3 POP SWAP3 SWAP1 POP JUMP JUMPDEST PUSH1 0x1 DUP2 DUP2 SHR SWAP1 DUP3 AND DUP1 PUSH2 0xC2E JUMPI PUSH1 0x7F DUP3 AND SWAP2 POP JUMPDEST PUSH1 0x20 DUP3 LT DUP2 SUB PUSH2 0xC4C JUMPI PUSH4 0x4E487B71 PUSH1 0xE0 SHL PUSH0 MSTORE PUSH1 0x22 PUSH1 0x4 MSTORE PUSH1 0x24 PUSH0 REVERT JUMPDEST POP SWAP2 SWAP1 POP JUMP JUMPDEST PUSH4 0x4E487B71 PUSH1 0xE0 SHL PUSH0 MSTORE PUSH1 0x11 PUSH1 0x4 MSTORE PUSH1 0x24 PUSH0 REVERT JUMPDEST DUP2 DUP2 SUB DUP2 DUP2 GT ISZERO PUSH2 0x3AE JUMPI PUSH2 0x3AE PUSH2 0xC52 JUMP JUMPDEST DUP1 DUP3 ADD DUP1 DUP3 GT ISZERO PUSH2 0x3AE JUMPI PUSH2 0x3AE PUSH2 0xC52 JUMP JUMPDEST DUP1 DUP3 MUL DUP2 ISZERO DUP3 DUP3 DIV DUP5 EQ OR PUSH2 0x3AE JUMPI PUSH2 0x3AE PUSH2 0xC52 JUMP JUMPDEST PUSH0 DUP3 PUSH2 0xCBD JUMPI PUSH4 0x4E487B71 PUSH1 0xE0 SHL PUSH0 MSTORE PUSH1 0x12 PUSH1 0x4 MSTORE PUSH1 0x24 PUSH0 REVERT JUMPDEST POP DIV SWAP1 JUMP INVALID LOG2 PUSH5 0x6970667358 0x22 SLT KECCAK256 0xC9 0xB3 0xC5 PUSH22 0xD73941A6363605C80751B333F5002709AC8B48E0ACAD JUMP PUSH25 0x2E2CDA7E64736F6C634300081A003300000000000000000000 "
		},
		"gasEstimates": {
			"creation": {
				"codeDepositCost": "664000",
				"executionCost": "infinite",
				"totalCost": "infinite"
			},
			"external": {
				"allowance(address,address)": "infinite",
				"approve(address,uint256)": "24758",
				"balanceOf(address)": "2648",
				"burn(uint256)": "55432",
				"burnFrom(address,uint256)": "infinite",
				"currentlyVested()": "infinite",
				"decimals()": "199",
				"name()": "infinite",
				"owner()": "2367",
				"releaseVestedTokens()": "infinite",
				"renounceOwnership()": "infinite",
				"symbol()": "infinite",
				"totalSupply()": "2381",
				"totalVestedReleased()": "2361",
				"totalVestedSupply()": "infinite",
				"transfer(address,uint256)": "infinite",
				"transferFrom(address,address,uint256)": "infinite",
				"transferOwnership(address)": "28421",
				"vestingDuration()": "infinite",
				"vestingStartTime()": "infinite"
			},
			"internal": {
				"_update(address,address,uint256)": "infinite"
			}
		},
		"methodIdentifiers": {
			"allowance(address,address)": "dd62ed3e",
			"approve(address,uint256)": "095ea7b3",
			"balanceOf(address)": "70a08231",
			"burn(uint256)": "42966c68",
			"burnFrom(address,uint256)": "79cc6790",
			"currentlyVested()": "f4eb90a6",
			"decimals()": "313ce567",
			"name()": "06fdde03",
			"owner()": "8da5cb5b",
			"releaseVestedTokens()": "54dd1da4",
			"renounceOwnership()": "715018a6",
			"symbol()": "95d89b41",
			"totalSupply()": "18160ddd",
			"totalVestedReleased()": "4b8f1ef0",
			"totalVestedSupply()": "9de5a561",
			"transfer(address,uint256)": "a9059cbb",
			"transferFrom(address,address,uint256)": "23b872dd",
			"transferOwnership(address)": "f2fde38b",
			"vestingDuration()": "1514617e",
			"vestingStartTime()": "a8660a78"
		}
	},
	"abi": [
		{
			"inputs": [
				{
					"internalType": "string",
					"name": "_name",
					"type": "string"
				},
				{
					"internalType": "string",
					"name": "_symbol",
					"type": "string"
				},
				{
					"internalType": "uint256",
					"name": "_initialOwnerSupply",
					"type": "uint256"
				},
				{
					"internalType": "uint256",
					"name": "_totalVestedSupply",
					"type": "uint256"
				},
				{
					"internalType": "uint256",
					"name": "_vestingDurationInSeconds",
					"type": "uint256"
				},
				{
					"internalType": "address",
					"name": "_initialOwner",
					"type": "address"
				}
			],
			"stateMutability": "nonpayable",
			"type": "constructor"
		},
		{
			"inputs": [
				{
					"internalType": "address",
					"name": "spender",
					"type": "address"
				},
				{
					"internalType": "uint256",
					"name": "allowance",
					"type": "uint256"
				},
				{
					"internalType": "uint256",
					"name": "needed",
					"type": "uint256"
				}
			],
			"name": "ERC20InsufficientAllowance",
			"type": "error"
		},
		{
			"inputs": [
				{
					"internalType": "address",
					"name": "sender",
					"type": "address"
				},
				{
					"internalType": "uint256",
					"name": "balance",
					"type": "uint256"
				},
				{
					"internalType": "uint256",
					"name": "needed",
					"type": "uint256"
				}
			],
			"name": "ERC20InsufficientBalance",
			"type": "error"
		},
		{
			"inputs": [
				{
					"internalType": "address",
					"name": "approver",
					"type": "address"
				}
			],
			"name": "ERC20InvalidApprover",
			"type": "error"
		},
		{
			"inputs": [
				{
					"internalType": "address",
					"name": "receiver",
					"type": "address"
				}
			],
			"name": "ERC20InvalidReceiver",
			"type": "error"
		},
		{
			"inputs": [
				{
					"internalType": "address",
					"name": "sender",
					"type": "address"
				}
			],
			"name": "ERC20InvalidSender",
			"type": "error"
		},
		{
			"inputs": [
				{
					"internalType": "address",
					"name": "spender",
					"type": "address"
				}
			],
			"name": "ERC20InvalidSpender",
			"type": "error"
		},
		{
			"inputs": [
				{
					"internalType": "address",
					"name": "owner",
					"type": "address"
				}
			],
			"name": "OwnableInvalidOwner",
			"type": "error"
		},
		{
			"inputs": [
				{
					"internalType": "address",
					"name": "account",
					"type": "address"
				}
			],
			"name": "OwnableUnauthorizedAccount",
			"type": "error"
		},
		{
			"anonymous": false,
			"inputs": [
				{
					"indexed": true,
					"internalType": "address",
					"name": "owner",
					"type": "address"
				},
				{
					"indexed": true,
					"internalType": "address",
					"name": "spender",
					"type": "address"
				},
				{
					"indexed": false,
					"internalType": "uint256",
					"name": "value",
					"type": "uint256"
				}
			],
			"name": "Approval",
			"type": "event"
		},
		{
			"anonymous": false,
			"inputs": [
				{
					"indexed": true,
					"internalType": "address",
					"name": "previousOwner",
					"type": "address"
				},
				{
					"indexed": true,
					"internalType": "address",
					"name": "newOwner",
					"type": "address"
				}
			],
			"name": "OwnershipTransferred",
			"type": "event"
		},
		{
			"anonymous": false,
			"inputs": [
				{
					"indexed": true,
					"internalType": "address",
					"name": "from",
					"type": "address"
				},
				{
					"indexed": true,
					"internalType": "address",
					"name": "to",
					"type": "address"
				},
				{
					"indexed": false,
					"internalType": "uint256",
					"name": "value",
					"type": "uint256"
				}
			],
			"name": "Transfer",
			"type": "event"
		},
		{
			"anonymous": false,
			"inputs": [
				{
					"indexed": true,
					"internalType": "address",
					"name": "to",
					"type": "address"
				},
				{
					"indexed": false,
					"internalType": "uint256",
					"name": "amount",
					"type": "uint256"
				}
			],
			"name": "VestedTokensReleased",
			"type": "event"
		},
		{
			"anonymous": false,
			"inputs": [
				{
					"indexed": false,
					"internalType": "uint256",
					"name": "totalAmount",
					"type": "uint256"
				},
				{
					"indexed": false,
					"internalType": "uint256",
					"name": "startTime",
					"type": "uint256"
				},
				{
					"indexed": false,
					"internalType": "uint256",
					"name": "duration",
					"type": "uint256"
				}
			],
			"name": "VestingScheduleCreated",
			"type": "event"
		},
		{
			"inputs": [
				{
					"internalType": "address",
					"name": "owner",
					"type": "address"
				},
				{
					"internalType": "address",
					"name": "spender",
					"type": "address"
				}
			],
			"name": "allowance",
			"outputs": [
				{
					"internalType": "uint256",
					"name": "",
					"type": "uint256"
				}
			],
			"stateMutability": "view",
			"type": "function"
		},
		{
			"inputs": [
				{
					"internalType": "address",
					"name": "spender",
					"type": "address"
				},
				{
					"internalType": "uint256",
					"name": "value",
					"type": "uint256"
				}
			],
			"name": "approve",
			"outputs": [
				{
					"internalType": "bool",
					"name": "",
					"type": "bool"
				}
			],
			"stateMutability": "nonpayable",
			"type": "function"
		},
		{
			"inputs": [
				{
					"internalType": "address",
					"name": "account",
					"type": "address"
				}
			],
			"name": "balanceOf",
			"outputs": [
				{
					"internalType": "uint256",
					"name": "",
					"type": "uint256"
				}
			],
			"stateMutability": "view",
			"type": "function"
		},
		{
			"inputs": [
				{
					"internalType": "uint256",
					"name": "value",
					"type": "uint256"
				}
			],
			"name": "burn",
			"outputs": [],
			"stateMutability": "nonpayable",
			"type": "function"
		},
		{
			"inputs": [
				{
					"internalType": "address",
					"name": "account",
					"type": "address"
				},
				{
					"internalType": "uint256",
					"name": "value",
					"type": "uint256"
				}
			],
			"name": "burnFrom",
			"outputs": [],
			"stateMutability": "nonpayable",
			"type": "function"
		},
		{
			"inputs": [],
			"name": "currentlyVested",
			"outputs": [
				{
					"internalType": "uint256",
					"name": "",
					"type": "uint256"
				}
			],
			"stateMutability": "view",
			"type": "function"
		},
		{
			"inputs": [],
			"name": "decimals",
			"outputs": [
				{
					"internalType": "uint8",
					"name": "",
					"type": "uint8"
				}
			],
			"stateMutability": "view",
			"type": "function"
		},
		{
			"inputs": [],
			"name": "name",
			"outputs": [
				{
					"internalType": "string",
					"name": "",
					"type": "string"
				}
			],
			"stateMutability": "view",
			"type": "function"
		},
		{
			"inputs": [],
			"name": "owner",
			"outputs": [
				{
					"internalType": "address",
					"name": "",
					"type": "address"
				}
			],
			"stateMutability": "view",
			"type": "function"
		},
		{
			"inputs": [],
			"name": "releaseVestedTokens",
			"outputs": [],
			"stateMutability": "nonpayable",
			"type": "function"
		},
		{
			"inputs": [],
			"name": "renounceOwnership",
			"outputs": [],
			"stateMutability": "nonpayable",
			"type": "function"
		},
		{
			"inputs": [],
			"name": "symbol",
			"outputs": [
				{
					"internalType": "string",
					"name": "",
					"type": "string"
				}
			],
			"stateMutability": "view",
			"type": "function"
		},
		{
			"inputs": [],
			"name": "totalSupply",
			"outputs": [
				{
					"internalType": "uint256",
					"name": "",
					"type": "uint256"
				}
			],
			"stateMutability": "view",
			"type": "function"
		},
		{
			"inputs": [],
			"name": "totalVestedReleased",
			"outputs": [
				{
					"internalType": "uint256",
					"name": "",
					"type": "uint256"
				}
			],
			"stateMutability": "view",
			"type": "function"
		},
		{
			"inputs": [],
			"name": "totalVestedSupply",
			"outputs": [
				{
					"internalType": "uint256",
					"name": "",
					"type": "uint256"
				}
			],
			"stateMutability": "view",
			"type": "function"
		},
		{
			"inputs": [
				{
					"internalType": "address",
					"name": "to",
					"type": "address"
				},
				{
					"internalType": "uint256",
					"name": "value",
					"type": "uint256"
				}
			],
			"name": "transfer",
			"outputs": [
				{
					"internalType": "bool",
					"name": "",
					"type": "bool"
				}
			],
			"stateMutability": "nonpayable",
			"type": "function"
		},
		{
			"inputs": [
				{
					"internalType": "address",
					"name": "from",
					"type": "address"
				},
				{
					"internalType": "address",
					"name": "to",
					"type": "address"
				},
				{
					"internalType": "uint256",
					"name": "value",
					"type": "uint256"
				}
			],
			"name": "transferFrom",
			"outputs": [
				{
					"internalType": "bool",
					"name": "",
					"type": "bool"
				}
			],
			"stateMutability": "nonpayable",
			"type": "function"
		},
		{
			"inputs": [
				{
					"internalType": "address",
					"name": "newOwner",
					"type": "address"
				}
			],
			"name": "transferOwnership",
			"outputs": [],
			"stateMutability": "nonpayable",
			"type": "function"
		},
		{
			"inputs": [],
			"name": "vestingDuration",
			"outputs": [
				{
					"internalType": "uint256",
					"name": "",
					"type": "uint256"
				}
			],
			"stateMutability": "view",
			"type": "function"
		},
		{
			"inputs": [],
			"name": "vestingStartTime",
			"outputs": [
				{
					"internalType": "uint256",
					"name": "",
					"type": "uint256"
				}
			],
			"stateMutability": "view",
			"type": "function"
		}
	]
}