{
	"data": {
		"bytecode": {
			"linkReferences": {},
			"object": "60a060405262069780600355348015610016575f80fd5b506040516116b93803806116b9833981016040819052610035916101a7565b806001600160a01b03811661006457604051631e4fbdf760e01b81525f60048201526024015b60405180910390fd5b61006d8161013d565b506001600160a01b0383166100d45760405162461bcd60e51b815260206004820152602760248201527f5374616b696e6720636f6e747261637420616464726573732063616e6e6f74206044820152666265207a65726f60c81b606482015260840161005b565b6127108211156101265760405162461bcd60e51b815260206004820152601960248201527f51756f72756d2063616e6e6f7420657863656564203130302500000000000000604482015260640161005b565b506001600160a01b039091166080526004556101e0565b5f80546001600160a01b038381166001600160a01b0319831681178455604051919092169283917f8be0079c531659141344cd1fd0a4f28419497f9722a3daafe3b4186f6b6457e09190a35050565b80516001600160a01b03811681146101a2575f80fd5b919050565b5f805f606084860312156101b9575f80fd5b6101c28461018c565b9250602084015191506101d76040850161018c565b90509250925092565b6080516114b36102065f395f818161024e015281816105c4015261097d01526114b35ff3fe608060405234801561000f575f80fd5b50600436106100fb575f3560e01c8063bc3f931f11610093578063e0a8f6f511610063578063e0a8f6f514610223578063ea0217cf14610236578063ee99205c14610249578063f2fde38b14610270575f80fd5b8063bc3f931f146101b1578063c1ba4e59146101d2578063c29a6b46146101e5578063c7f758a8146101f8575f80fd5b806327393278116100ce578063273932781461015d57806349c2a1a614610172578063715018a6146101855780638da5cb5b1461018d575f80fd5b8063013cf08b146100ff57806302a251a314610134578063079e2d2a1461014b5780630c0512e914610154575b5f80fd5b61011261010d366004610f5f565b610283565b60405161012b9d9c9b9a99989796959493929190610fcc565b60405180910390f35b61013d60035481565b60405190815260200161012b565b61013d60045481565b61013d60015481565b61017061016b366004610f5f565b61037d565b005b61013d610180366004611054565b61058b565b6101706106f7565b5f546001600160a01b03165b6040516001600160a01b03909116815260200161012b565b6101c46101bf3660046110dd565b61070a565b60405161012b929190611117565b6101706101e0366004610f5f565b610772565b6101706101f336600461112d565b6107d1565b61020b610206366004610f5f565b610bcf565b60405161012b9c9b9a9998979695949392919061115e565b610170610231366004610f5f565b610d1b565b610170610244366004610f5f565b610e23565b6101997f000000000000000000000000000000000000000000000000000000000000000081565b61017061027e3660046111de565b610e7f565b600260208190525f918252604090912080546001820154928201805491936001600160a01b031692916102b5906111f7565b80601f01602080910402602001604051908101604052809291908181526020018280546102e1906111f7565b801561032c5780601f106103035761010080835404028352916020019161032c565b820191905f5260205f20905b81548152906001019060200180831161030f57829003601f168201915b50505060038401546004850154600586015460068701546007880154600889015460098a0154600a8b0154600b909b0154999a96999598509396509194909391929160ff808216916101009004168d565b5f81815260026020526040812080549091036103b45760405162461bcd60e51b81526004016103ab9061122f565b60405180910390fd5b6001600b820154610100900460ff1660048111156103d4576103d4610fa4565b146104345760405162461bcd60e51b815260206004820152602a60248201527f50726f706f73616c206973206e6f7420616374697665206f7220616c726561646044820152691e48199a5b9a5cda195960b21b60648201526084016103ab565b80600501544210156104885760405162461bcd60e51b815260206004820152601a60248201527f566f74696e6720706572696f64206e6f7420796574206f76657200000000000060448201526064016103ab565b600a8101545f90156104ce575f6104bc83600a01546104b66127108660090154610ebc90919063ffffffff16565b90610ece565b905060045481106104cc57600191505b505b806104f157600b820180546003919061ff001916610100835b021790555061052b565b81600701548260060154111561051957600b820180546004919061ff001916610100836104e7565b600b8201805461ff0019166103001790555b827f50dfc6bc47da7bb0a9fcdd194f019ea60dc27c97dde4a73504e84ca271e94d7c83600b0160019054906101000a900460ff1684600601548560070154866008015460405161057e9493929190611266565b60405180910390a2505050565b5f610594610ed9565b600180546105a191610f05565b6001819055604080516340bd8e6960e11b8152905142915f916001600160a01b037f0000000000000000000000000000000000000000000000000000000000000000169163817b1cd29160048083019260209291908290030181865afa15801561060d573d5f803e3d5ffd5b505050506040513d601f19601f82011682018060405250810190610631919061128f565b5f8481526002602081905260409091208581556001810180546001600160a01b031916331790559192508101610668878983611306565b506003808201849055600482018490555461068390846113d4565b60058201819055600a8201839055600b8201805461ff0019166101001790556004820154604051339287927f6b04e3d11c426737470e9f5cdd847185e72cb1b770b7b6781c49838732a9011e926106e2928d928d929091908a906113e7565b60405180910390a35091925050505b92915050565b6106ff610ed9565b6107085f610f10565b565b5f8281526002602052604081208054829190820361073a5760405162461bcd60e51b81526004016103ab9061122f565b6001600160a01b03939093165f908152600c84016020908152604080832054600d90960190915290205460ff93841695931693505050565b61077a610ed9565b6127108111156107cc5760405162461bcd60e51b815260206004820152601960248201527f51756f72756d2063616e6e6f742065786365656420313030250000000000000060448201526064016103ab565b600455565b5f82815260026020526040812080549091036107ff5760405162461bcd60e51b81526004016103ab9061122f565b6001600b820154610100900460ff16600481111561081f5761081f610fa4565b146108655760405162461bcd60e51b815260206004820152601660248201527550726f706f73616c206973206e6f742061637469766560501b60448201526064016103ab565b80600401544210156108b25760405162461bcd60e51b8152602060048201526016602482015275159bdd1a5b99c81a185cc81b9bdd081cdd185c9d195960521b60448201526064016103ab565b806005015442106109055760405162461bcd60e51b815260206004820152601760248201527f566f74696e6720706572696f642068617320656e64656400000000000000000060448201526064016103ab565b335f908152600c8201602052604090205460ff16156109665760405162461bcd60e51b815260206004820152601e60248201527f416c726561647920766f746564206f6e20746869732070726f706f73616c000060448201526064016103ab565b604051635da6a21b60e11b81523360048201525f907f00000000000000000000000000000000000000000000000000000000000000006001600160a01b03169063bb4d443690602401602060405180830381865afa1580156109ca573d5f803e3d5ffd5b505050506040513d601f19601f820116820180604052508101906109ee919061128f565b90505f8111610a565760405162461bcd60e51b815260206004820152602e60248201527f4d7573742068617665207374616b656420746f6b656e732028766f74696e672060448201526d706f7765722920746f20766f746560901b60648201526084016103ab565b335f908152600c8301602090815260408083208054600160ff199182168117909255600d870190935292208054869391921690836002811115610a9b57610a9b610fa4565b02179055506009820154610aaf9082610f05565b60098301556001836002811115610ac857610ac8610fa4565b03610ae6576006820154610adc9082610f05565b6006830155610b85565b5f836002811115610af957610af9610fa4565b03610b17576007820154610b0d9082610f05565b6007830155610b85565b6002836002811115610b2b57610b2b610fa4565b03610b49576008820154610b3f9082610f05565b6008830155610b85565b60405162461bcd60e51b8152602060048201526011602482015270496e76616c696420766f7465207479706560781b60448201526064016103ab565b336001600160a01b0316847f2635c84c3a8027a303ca6d6e90b1c4a9604754040372414d244aadfa647175188584604051610bc192919061142c565b60405180910390a350505050565b5f8060605f805f805f805f805f8060025f8f81526020019081526020015f209050805f01545f03610c125760405162461bcd60e51b81526004016103ab9061122f565b80546001820154600483015460058401546006850154600786015460088701546009880154600a890154600b8a015460028b0180546001600160a01b03909a169990989796959493929160ff8082169261010090920416908a90610c75906111f7565b80601f0160208091040260200160405190810160405280929190818152602001828054610ca1906111f7565b8015610cec5780601f10610cc357610100808354040283529160200191610cec565b820191905f5260205f20905b815481529060010190602001808311610ccf57829003601f168201915b505050505099509c509c509c509c509c509c509c509c509c509c509c509c505091939597999b5091939597999b565b610d23610ed9565b5f8181526002602052604081208054909103610d815760405162461bcd60e51b815260206004820152601760248201527f50726f706f73616c20446f6573206e6f7420657869737400000000000000000060448201526064016103ab565b6001600b820154610100900460ff166004811115610da157610da1610fa4565b14610de45760405162461bcd60e51b815260206004820152601360248201527250726f706f73616c204e6f742041637469766560681b60448201526064016103ab565b600b8101805461ffff191661020117905560405182907f789cf55be980739dad1d0699b93b58e806b51c9d96619bfa8fe0a28abaa7b30c905f90a25050565b610e2b610ed9565b5f8111610e7a5760405162461bcd60e51b815260206004820152601e60248201527f566f74696e6720706572696f64206d75737420626520706f736974697665000060448201526064016103ab565b600355565b610e87610ed9565b6001600160a01b038116610eb057604051631e4fbdf760e01b81525f60048201526024016103ab565b610eb981610f10565b50565b5f610ec78284611447565b9392505050565b5f610ec7828461145e565b5f546001600160a01b031633146107085760405163118cdaa760e01b81523360048201526024016103ab565b5f610ec782846113d4565b5f80546001600160a01b038381166001600160a01b0319831681178455604051919092169283917f8be0079c531659141344cd1fd0a4f28419497f9722a3daafe3b4186f6b6457e09190a35050565b5f60208284031215610f6f575f80fd5b5035919050565b5f81518084528060208401602086015e5f602082860101526020601f19601f83011685010191505092915050565b634e487b7160e01b5f52602160045260245ffd5b60058110610fc857610fc8610fa4565b9052565b8d81526001600160a01b038d1660208201526101a0604082018190525f90610ff69083018e610f76565b90508b60608301528a60808301528960a08301528860c08301528760e0830152866101008301528561012083015284610140830152831515610160830152611042610180830184610fb8565b9e9d5050505050505050505050505050565b5f8060208385031215611065575f80fd5b823567ffffffffffffffff81111561107b575f80fd5b8301601f8101851361108b575f80fd5b803567ffffffffffffffff8111156110a1575f80fd5b8560208284010111156110b2575f80fd5b6020919091019590945092505050565b80356001600160a01b03811681146110d8575f80fd5b919050565b5f80604083850312156110ee575f80fd5b823591506110fe602084016110c2565b90509250929050565b60038110610fc857610fc8610fa4565b821515815260408101610ec76020830184611107565b5f806040838503121561113e575f80fd5b82359150602083013560038110611153575f80fd5b809150509250929050565b8c81526001600160a01b038c166020820152610180604082018190525f906111889083018d610f76565b90508a60608301528960808301528860a08301528760c08301528660e083015285610100830152846101208301528315156101408301526111cd610160830184610fb8565b9d9c50505050505050505050505050565b5f602082840312156111ee575f80fd5b610ec7826110c2565b600181811c9082168061120b57607f821691505b60208210810361122957634e487b7160e01b5f52602260045260245ffd5b50919050565b60208082526017908201527f50726f706f73616c20646f6573206e6f74206578697374000000000000000000604082015260600190565b608081016112748287610fb8565b84602083015283604083015282606083015295945050505050565b5f6020828403121561129f575f80fd5b5051919050565b634e487b7160e01b5f52604160045260245ffd5b601f82111561130157805f5260205f20601f840160051c810160208510156112df5750805b601f840160051c820191505b818110156112fe575f81556001016112eb565b50505b505050565b67ffffffffffffffff83111561131e5761131e6112a6565b6113328361132c83546111f7565b836112ba565b5f601f841160018114611363575f851561134c5750838201355b5f19600387901b1c1916600186901b1783556112fe565b5f83815260208120601f198716915b828110156113925786850135825560209485019460019092019101611372565b50868210156113ae575f1960f88860031b161c19848701351681555b505060018560011b0183555050505050565b634e487b7160e01b5f52601160045260245ffd5b808201808211156106f1576106f16113c0565b60808152846080820152848660a08301375f60a086830101525f60a0601f19601f88011683010190508460208301528360408301528260608301529695505050505050565b6040810161143a8285611107565b8260208301529392505050565b80820281158282048414176106f1576106f16113c0565b5f8261147857634e487b7160e01b5f52601260045260245ffd5b50049056fea2646970667358221220a2d5f46a443566f04940d18fdce289c5f08035229ec20848106566910160cdec64736f6c634300081a0033",
			"opcodes": "PUSH1 0xA0 PUSH1 0x40 MSTORE PUSH3 0x69780 PUSH1 0x3 SSTORE CALLVALUE DUP1 ISZERO PUSH2 0x16 JUMPI PUSH0 DUP1 REVERT JUMPDEST POP PUSH1 0x40 MLOAD PUSH2 0x16B9 CODESIZE SUB DUP1 PUSH2 0x16B9 DUP4 CODECOPY DUP2 ADD PUSH1 0x40 DUP2 SWAP1 MSTORE PUSH2 0x35 SWAP2 PUSH2 0x1A7 JUMP JUMPDEST DUP1 PUSH1 0x1 PUSH1 0x1 PUSH1 0xA0 SHL SUB DUP2 AND PUSH2 0x64 JUMPI PUSH1 0x40 MLOAD PUSH4 0x1E4FBDF7 PUSH1 0xE0 SHL DUP2 MSTORE PUSH0 PUSH1 0x4 DUP3 ADD MSTORE PUSH1 0x24 ADD JUMPDEST PUSH1 0x40 MLOAD DUP1 SWAP2 SUB SWAP1 REVERT JUMPDEST PUSH2 0x6D DUP2 PUSH2 0x13D JUMP JUMPDEST POP PUSH1 0x1 PUSH1 0x1 PUSH1 0xA0 SHL SUB DUP4 AND PUSH2 0xD4 JUMPI PUSH1 0x40 MLOAD PUSH3 0x461BCD PUSH1 0xE5 SHL DUP2 MSTORE PUSH1 0x20 PUSH1 0x4 DUP3 ADD MSTORE PUSH1 0x27 PUSH1 0x24 DUP3 ADD MSTORE PUSH32 0x5374616B696E6720636F6E747261637420616464726573732063616E6E6F7420 PUSH1 0x44 DUP3 ADD MSTORE PUSH7 0x6265207A65726F PUSH1 0xC8 SHL PUSH1 0x64 DUP3 ADD MSTORE PUSH1 0x84 ADD PUSH2 0x5B JUMP JUMPDEST PUSH2 0x2710 DUP3 GT ISZERO PUSH2 0x126 JUMPI PUSH1 0x40 MLOAD PUSH3 0x461BCD PUSH1 0xE5 SHL DUP2 MSTORE PUSH1 0x20 PUSH1 0x4 DUP3 ADD MSTORE PUSH1 0x19 PUSH1 0x24 DUP3 ADD MSTORE PUSH32 0x51756F72756D2063616E6E6F7420657863656564203130302500000000000000 PUSH1 0x44 DUP3 ADD MSTORE PUSH1 0x64 ADD PUSH2 0x5B JUMP JUMPDEST POP PUSH1 0x1 PUSH1 0x1 PUSH1 0xA0 SHL SUB SWAP1 SWAP2 AND PUSH1 0x80 MSTORE PUSH1 0x4 SSTORE PUSH2 0x1E0 JUMP JUMPDEST PUSH0 DUP1 SLOAD PUSH1 0x1 PUSH1 0x1 PUSH1 0xA0 SHL SUB DUP4 DUP2 AND PUSH1 0x1 PUSH1 0x1 PUSH1 0xA0 SHL SUB NOT DUP4 AND DUP2 OR DUP5 SSTORE PUSH1 0x40 MLOAD SWAP2 SWAP1 SWAP3 AND SWAP3 DUP4 SWAP2 PUSH32 0x8BE0079C531659141344CD1FD0A4F28419497F9722A3DAAFE3B4186F6B6457E0 SWAP2 SWAP1 LOG3 POP POP JUMP JUMPDEST DUP1 MLOAD PUSH1 0x1 PUSH1 0x1 PUSH1 0xA0 SHL SUB DUP2 AND DUP2 EQ PUSH2 0x1A2 JUMPI PUSH0 DUP1 REVERT JUMPDEST SWAP2 SWAP1 POP JUMP JUMPDEST PUSH0 DUP1 PUSH0 PUSH1 0x60 DUP5 DUP7 SUB SLT ISZERO PUSH2 0x1B9 JUMPI PUSH0 DUP1 REVERT JUMPDEST PUSH2 0x1C2 DUP5 PUSH2 0x18C JUMP JUMPDEST SWAP3 POP PUSH1 0x20 DUP5 ADD MLOAD SWAP2 POP PUSH2 0x1D7 PUSH1 0x40 DUP6 ADD PUSH2 0x18C JUMP JUMPDEST SWAP1 POP SWAP3 POP SWAP3 POP SWAP3 JUMP JUMPDEST PUSH1 0x80 MLOAD PUSH2 0x14B3 PUSH2 0x206 PUSH0 CODECOPY PUSH0 DUP2 DUP2 PUSH2 0x24E ADD MSTORE DUP2 DUP2 PUSH2 0x5C4 ADD MSTORE PUSH2 0x97D ADD MSTORE PUSH2 0x14B3 PUSH0 RETURN INVALID PUSH1 0x80 PUSH1 0x40 MSTORE CALLVALUE DUP1 ISZERO PUSH2 0xF JUMPI PUSH0 DUP1 REVERT JUMPDEST POP PUSH1 0x4 CALLDATASIZE LT PUSH2 0xFB JUMPI PUSH0 CALLDATALOAD PUSH1 0xE0 SHR DUP1 PUSH4 0xBC3F931F GT PUSH2 0x93 JUMPI DUP1 PUSH4 0xE0A8F6F5 GT PUSH2 0x63 JUMPI DUP1 PUSH4 0xE0A8F6F5 EQ PUSH2 0x223 JUMPI DUP1 PUSH4 0xEA0217CF EQ PUSH2 0x236 JUMPI DUP1 PUSH4 0xEE99205C EQ PUSH2 0x249 JUMPI DUP1 PUSH4 0xF2FDE38B EQ PUSH2 0x270 JUMPI PUSH0 DUP1 REVERT JUMPDEST DUP1 PUSH4 0xBC3F931F EQ PUSH2 0x1B1 JUMPI DUP1 PUSH4 0xC1BA4E59 EQ PUSH2 0x1D2 JUMPI DUP1 PUSH4 0xC29A6B46 EQ PUSH2 0x1E5 JUMPI DUP1 PUSH4 0xC7F758A8 EQ PUSH2 0x1F8 JUMPI PUSH0 DUP1 REVERT JUMPDEST DUP1 PUSH4 0x27393278 GT PUSH2 0xCE JUMPI DUP1 PUSH4 0x27393278 EQ PUSH2 0x15D JUMPI DUP1 PUSH4 0x49C2A1A6 EQ PUSH2 0x172 JUMPI DUP1 PUSH4 0x715018A6 EQ PUSH2 0x185 JUMPI DUP1 PUSH4 0x8DA5CB5B EQ PUSH2 0x18D JUMPI PUSH0 DUP1 REVERT JUMPDEST DUP1 PUSH4 0x13CF08B EQ PUSH2 0xFF JUMPI DUP1 PUSH4 0x2A251A3 EQ PUSH2 0x134 JUMPI DUP1 PUSH4 0x79E2D2A EQ PUSH2 0x14B JUMPI DUP1 PUSH4 0xC0512E9 EQ PUSH2 0x154 JUMPI JUMPDEST PUSH0 DUP1 REVERT JUMPDEST PUSH2 0x112 PUSH2 0x10D CALLDATASIZE PUSH1 0x4 PUSH2 0xF5F JUMP JUMPDEST PUSH2 0x283 JUMP JUMPDEST PUSH1 0x40 MLOAD PUSH2 0x12B SWAP14 SWAP13 SWAP12 SWAP11 SWAP10 SWAP9 SWAP8 SWAP7 SWAP6 SWAP5 SWAP4 SWAP3 SWAP2 SWAP1 PUSH2 0xFCC JUMP JUMPDEST PUSH1 0x40 MLOAD DUP1 SWAP2 SUB SWAP1 RETURN JUMPDEST PUSH2 0x13D PUSH1 0x3 SLOAD DUP2 JUMP JUMPDEST PUSH1 0x40 MLOAD SWAP1 DUP2 MSTORE PUSH1 0x20 ADD PUSH2 0x12B JUMP JUMPDEST PUSH2 0x13D PUSH1 0x4 SLOAD DUP2 JUMP JUMPDEST PUSH2 0x13D PUSH1 0x1 SLOAD DUP2 JUMP JUMPDEST PUSH2 0x170 PUSH2 0x16B CALLDATASIZE PUSH1 0x4 PUSH2 0xF5F JUMP JUMPDEST PUSH2 0x37D JUMP JUMPDEST STOP JUMPDEST PUSH2 0x13D PUSH2 0x180 CALLDATASIZE PUSH1 0x4 PUSH2 0x1054 JUMP JUMPDEST PUSH2 0x58B JUMP JUMPDEST PUSH2 0x170 PUSH2 0x6F7 JUMP JUMPDEST PUSH0 SLOAD PUSH1 0x1 PUSH1 0x1 PUSH1 0xA0 SHL SUB AND JUMPDEST PUSH1 0x40 MLOAD PUSH1 0x1 PUSH1 0x1 PUSH1 0xA0 SHL SUB SWAP1 SWAP2 AND DUP2 MSTORE PUSH1 0x20 ADD PUSH2 0x12B JUMP JUMPDEST PUSH2 0x1C4 PUSH2 0x1BF CALLDATASIZE PUSH1 0x4 PUSH2 0x10DD JUMP JUMPDEST PUSH2 0x70A JUMP JUMPDEST PUSH1 0x40 MLOAD PUSH2 0x12B SWAP3 SWAP2 SWAP1 PUSH2 0x1117 JUMP JUMPDEST PUSH2 0x170 PUSH2 0x1E0 CALLDATASIZE PUSH1 0x4 PUSH2 0xF5F JUMP JUMPDEST PUSH2 0x772 JUMP JUMPDEST PUSH2 0x170 PUSH2 0x1F3 CALLDATASIZE PUSH1 0x4 PUSH2 0x112D JUMP JUMPDEST PUSH2 0x7D1 JUMP JUMPDEST PUSH2 0x20B PUSH2 0x206 CALLDATASIZE PUSH1 0x4 PUSH2 0xF5F JUMP JUMPDEST PUSH2 0xBCF JUMP JUMPDEST PUSH1 0x40 MLOAD PUSH2 0x12B SWAP13 SWAP12 SWAP11 SWAP10 SWAP9 SWAP8 SWAP7 SWAP6 SWAP5 SWAP4 SWAP3 SWAP2 SWAP1 PUSH2 0x115E JUMP JUMPDEST PUSH2 0x170 PUSH2 0x231 CALLDATASIZE PUSH1 0x4 PUSH2 0xF5F JUMP JUMPDEST PUSH2 0xD1B JUMP JUMPDEST PUSH2 0x170 PUSH2 0x244 CALLDATASIZE PUSH1 0x4 PUSH2 0xF5F JUMP JUMPDEST PUSH2 0xE23 JUMP JUMPDEST PUSH2 0x199 PUSH32 0x0 DUP2 JUMP JUMPDEST PUSH2 0x170 PUSH2 0x27E CALLDATASIZE PUSH1 0x4 PUSH2 0x11DE JUMP JUMPDEST PUSH2 0xE7F JUMP JUMPDEST PUSH1 0x2 PUSH1 0x20 DUP2 SWAP1 MSTORE PUSH0 SWAP2 DUP3 MSTORE PUSH1 0x40 SWAP1 SWAP2 KECCAK256 DUP1 SLOAD PUSH1 0x1 DUP3 ADD SLOAD SWAP3 DUP3 ADD DUP1 SLOAD SWAP2 SWAP4 PUSH1 0x1 PUSH1 0x1 PUSH1 0xA0 SHL SUB AND SWAP3 SWAP2 PUSH2 0x2B5 SWAP1 PUSH2 0x11F7 JUMP JUMPDEST DUP1 PUSH1 0x1F ADD PUSH1 0x20 DUP1 SWAP2 DIV MUL PUSH1 0x20 ADD PUSH1 0x40 MLOAD SWAP1 DUP2 ADD PUSH1 0x40 MSTORE DUP1 SWAP3 SWAP2 SWAP1 DUP2 DUP2 MSTORE PUSH1 0x20 ADD DUP3 DUP1 SLOAD PUSH2 0x2E1 SWAP1 PUSH2 0x11F7 JUMP JUMPDEST DUP1 ISZERO PUSH2 0x32C JUMPI DUP1 PUSH1 0x1F LT PUSH2 0x303 JUMPI PUSH2 0x100 DUP1 DUP4 SLOAD DIV MUL DUP4 MSTORE SWAP2 PUSH1 0x20 ADD SWAP2 PUSH2 0x32C JUMP JUMPDEST DUP3 ADD SWAP2 SWAP1 PUSH0 MSTORE PUSH1 0x20 PUSH0 KECCAK256 SWAP1 JUMPDEST DUP2 SLOAD DUP2 MSTORE SWAP1 PUSH1 0x1 ADD SWAP1 PUSH1 0x20 ADD DUP1 DUP4 GT PUSH2 0x30F JUMPI DUP3 SWAP1 SUB PUSH1 0x1F AND DUP3 ADD SWAP2 JUMPDEST POP POP POP PUSH1 0x3 DUP5 ADD SLOAD PUSH1 0x4 DUP6 ADD SLOAD PUSH1 0x5 DUP7 ADD SLOAD PUSH1 0x6 DUP8 ADD SLOAD PUSH1 0x7 DUP9 ADD SLOAD PUSH1 0x8 DUP10 ADD SLOAD PUSH1 0x9 DUP11 ADD SLOAD PUSH1 0xA DUP12 ADD SLOAD PUSH1 0xB SWAP1 SWAP12 ADD SLOAD SWAP10 SWAP11 SWAP7 SWAP10 SWAP6 SWAP9 POP SWAP4 SWAP7 POP SWAP2 SWAP5 SWAP1 SWAP4 SWAP2 SWAP3 SWAP2 PUSH1 0xFF DUP1 DUP3 AND SWAP2 PUSH2 0x100 SWAP1 DIV AND DUP14 JUMP JUMPDEST PUSH0 DUP2 DUP2 MSTORE PUSH1 0x2 PUSH1 0x20 MSTORE PUSH1 0x40 DUP2 KECCAK256 DUP1 SLOAD SWAP1 SWAP2 SUB PUSH2 0x3B4 JUMPI PUSH1 0x40 MLOAD PUSH3 0x461BCD PUSH1 0xE5 SHL DUP2 MSTORE PUSH1 0x4 ADD PUSH2 0x3AB SWAP1 PUSH2 0x122F JUMP JUMPDEST PUSH1 0x40 MLOAD DUP1 SWAP2 SUB SWAP1 REVERT JUMPDEST PUSH1 0x1 PUSH1 0xB DUP3 ADD SLOAD PUSH2 0x100 SWAP1 DIV PUSH1 0xFF AND PUSH1 0x4 DUP2 GT ISZERO PUSH2 0x3D4 JUMPI PUSH2 0x3D4 PUSH2 0xFA4 JUMP JUMPDEST EQ PUSH2 0x434 JUMPI PUSH1 0x40 MLOAD PUSH3 0x461BCD PUSH1 0xE5 SHL DUP2 MSTORE PUSH1 0x20 PUSH1 0x4 DUP3 ADD MSTORE PUSH1 0x2A PUSH1 0x24 DUP3 ADD MSTORE PUSH32 0x50726F706F73616C206973206E6F7420616374697665206F7220616C72656164 PUSH1 0x44 DUP3 ADD MSTORE PUSH10 0x1E48199A5B9A5CDA1959 PUSH1 0xB2 SHL PUSH1 0x64 DUP3 ADD MSTORE PUSH1 0x84 ADD PUSH2 0x3AB JUMP JUMPDEST DUP1 PUSH1 0x5 ADD SLOAD TIMESTAMP LT ISZERO PUSH2 0x488 JUMPI PUSH1 0x40 MLOAD PUSH3 0x461BCD PUSH1 0xE5 SHL DUP2 MSTORE PUSH1 0x20 PUSH1 0x4 DUP3 ADD MSTORE PUSH1 0x1A PUSH1 0x24 DUP3 ADD MSTORE PUSH32 0x566F74696E6720706572696F64206E6F7420796574206F766572000000000000 PUSH1 0x44 DUP3 ADD MSTORE PUSH1 0x64 ADD PUSH2 0x3AB JUMP JUMPDEST PUSH1 0xA DUP2 ADD SLOAD PUSH0 SWAP1 ISZERO PUSH2 0x4CE JUMPI PUSH0 PUSH2 0x4BC DUP4 PUSH1 0xA ADD SLOAD PUSH2 0x4B6 PUSH2 0x2710 DUP7 PUSH1 0x9 ADD SLOAD PUSH2 0xEBC SWAP1 SWAP2 SWAP1 PUSH4 0xFFFFFFFF AND JUMP JUMPDEST SWAP1 PUSH2 0xECE JUMP JUMPDEST SWAP1 POP PUSH1 0x4 SLOAD DUP2 LT PUSH2 0x4CC JUMPI PUSH1 0x1 SWAP2 POP JUMPDEST POP JUMPDEST DUP1 PUSH2 0x4F1 JUMPI PUSH1 0xB DUP3 ADD DUP1 SLOAD PUSH1 0x3 SWAP2 SWAP1 PUSH2 0xFF00 NOT AND PUSH2 0x100 DUP4 JUMPDEST MUL OR SWAP1 SSTORE POP PUSH2 0x52B JUMP JUMPDEST DUP2 PUSH1 0x7 ADD SLOAD DUP3 PUSH1 0x6 ADD SLOAD GT ISZERO PUSH2 0x519 JUMPI PUSH1 0xB DUP3 ADD DUP1 SLOAD PUSH1 0x4 SWAP2 SWAP1 PUSH2 0xFF00 NOT AND PUSH2 0x100 DUP4 PUSH2 0x4E7 JUMP JUMPDEST PUSH1 0xB DUP3 ADD DUP1 SLOAD PUSH2 0xFF00 NOT AND PUSH2 0x300 OR SWAP1 SSTORE JUMPDEST DUP3 PUSH32 0x50DFC6BC47DA7BB0A9FCDD194F019EA60DC27C97DDE4A73504E84CA271E94D7C DUP4 PUSH1 0xB ADD PUSH1 0x1 SWAP1 SLOAD SWAP1 PUSH2 0x100 EXP SWAP1 DIV PUSH1 0xFF AND DUP5 PUSH1 0x6 ADD SLOAD DUP6 PUSH1 0x7 ADD SLOAD DUP7 PUSH1 0x8 ADD SLOAD PUSH1 0x40 MLOAD PUSH2 0x57E SWAP5 SWAP4 SWAP3 SWAP2 SWAP1 PUSH2 0x1266 JUMP JUMPDEST PUSH1 0x40 MLOAD DUP1 SWAP2 SUB SWAP1 LOG2 POP POP POP JUMP JUMPDEST PUSH0 PUSH2 0x594 PUSH2 0xED9 JUMP JUMPDEST PUSH1 0x1 DUP1 SLOAD PUSH2 0x5A1 SWAP2 PUSH2 0xF05 JUMP JUMPDEST PUSH1 0x1 DUP2 SWAP1 SSTORE PUSH1 0x40 DUP1 MLOAD PUSH4 0x40BD8E69 PUSH1 0xE1 SHL DUP2 MSTORE SWAP1 MLOAD TIMESTAMP SWAP2 PUSH0 SWAP2 PUSH1 0x1 PUSH1 0x1 PUSH1 0xA0 SHL SUB PUSH32 0x0 AND SWAP2 PUSH4 0x817B1CD2 SWAP2 PUSH1 0x4 DUP1 DUP4 ADD SWAP3 PUSH1 0x20 SWAP3 SWAP2 SWAP1 DUP3 SWAP1 SUB ADD DUP2 DUP7 GAS STATICCALL ISZERO DUP1 ISZERO PUSH2 0x60D JUMPI RETURNDATASIZE PUSH0 DUP1 RETURNDATACOPY RETURNDATASIZE PUSH0 REVERT JUMPDEST POP POP POP POP PUSH1 0x40 MLOAD RETURNDATASIZE PUSH1 0x1F NOT PUSH1 0x1F DUP3 ADD AND DUP3 ADD DUP1 PUSH1 0x40 MSTORE POP DUP2 ADD SWAP1 PUSH2 0x631 SWAP2 SWAP1 PUSH2 0x128F JUMP JUMPDEST PUSH0 DUP5 DUP2 MSTORE PUSH1 0x2 PUSH1 0x20 DUP2 SWAP1 MSTORE PUSH1 0x40 SWAP1 SWAP2 KECCAK256 DUP6 DUP2 SSTORE PUSH1 0x1 DUP2 ADD DUP1 SLOAD PUSH1 0x1 PUSH1 0x1 PUSH1 0xA0 SHL SUB NOT AND CALLER OR SWAP1 SSTORE SWAP2 SWAP3 POP DUP2 ADD PUSH2 0x668 DUP8 DUP10 DUP4 PUSH2 0x1306 JUMP JUMPDEST POP PUSH1 0x3 DUP1 DUP3 ADD DUP5 SWAP1 SSTORE PUSH1 0x4 DUP3 ADD DUP5 SWAP1 SSTORE SLOAD PUSH2 0x683 SWAP1 DUP5 PUSH2 0x13D4 JUMP JUMPDEST PUSH1 0x5 DUP3 ADD DUP2 SWAP1 SSTORE PUSH1 0xA DUP3 ADD DUP4 SWAP1 SSTORE PUSH1 0xB DUP3 ADD DUP1 SLOAD PUSH2 0xFF00 NOT AND PUSH2 0x100 OR SWAP1 SSTORE PUSH1 0x4 DUP3 ADD SLOAD PUSH1 0x40 MLOAD CALLER SWAP3 DUP8 SWAP3 PUSH32 0x6B04E3D11C426737470E9F5CDD847185E72CB1B770B7B6781C49838732A9011E SWAP3 PUSH2 0x6E2 SWAP3 DUP14 SWAP3 DUP14 SWAP3 SWAP1 SWAP2 SWAP1 DUP11 SWAP1 PUSH2 0x13E7 JUMP JUMPDEST PUSH1 0x40 MLOAD DUP1 SWAP2 SUB SWAP1 LOG3 POP SWAP2 SWAP3 POP POP POP JUMPDEST SWAP3 SWAP2 POP POP JUMP JUMPDEST PUSH2 0x6FF PUSH2 0xED9 JUMP JUMPDEST PUSH2 0x708 PUSH0 PUSH2 0xF10 JUMP JUMPDEST JUMP JUMPDEST PUSH0 DUP3 DUP2 MSTORE PUSH1 0x2 PUSH1 0x20 MSTORE PUSH1 0x40 DUP2 KECCAK256 DUP1 SLOAD DUP3 SWAP2 SWAP1 DUP3 SUB PUSH2 0x73A JUMPI PUSH1 0x40 MLOAD PUSH3 0x461BCD PUSH1 0xE5 SHL DUP2 MSTORE PUSH1 0x4 ADD PUSH2 0x3AB SWAP1 PUSH2 0x122F JUMP JUMPDEST PUSH1 0x1 PUSH1 0x1 PUSH1 0xA0 SHL SUB SWAP4 SWAP1 SWAP4 AND PUSH0 SWAP1 DUP2 MSTORE PUSH1 0xC DUP5 ADD PUSH1 0x20 SWAP1 DUP2 MSTORE PUSH1 0x40 DUP1 DUP4 KECCAK256 SLOAD PUSH1 0xD SWAP1 SWAP7 ADD SWAP1 SWAP2 MSTORE SWAP1 KECCAK256 SLOAD PUSH1 0xFF SWAP4 DUP5 AND SWAP6 SWAP4 AND SWAP4 POP POP POP JUMP JUMPDEST PUSH2 0x77A PUSH2 0xED9 JUMP JUMPDEST PUSH2 0x2710 DUP2 GT ISZERO PUSH2 0x7CC JUMPI PUSH1 0x40 MLOAD PUSH3 0x461BCD PUSH1 0xE5 SHL DUP2 MSTORE PUSH1 0x20 PUSH1 0x4 DUP3 ADD MSTORE PUSH1 0x19 PUSH1 0x24 DUP3 ADD MSTORE PUSH32 0x51756F72756D2063616E6E6F7420657863656564203130302500000000000000 PUSH1 0x44 DUP3 ADD MSTORE PUSH1 0x64 ADD PUSH2 0x3AB JUMP JUMPDEST PUSH1 0x4 SSTORE JUMP JUMPDEST PUSH0 DUP3 DUP2 MSTORE PUSH1 0x2 PUSH1 0x20 MSTORE PUSH1 0x40 DUP2 KECCAK256 DUP1 SLOAD SWAP1 SWAP2 SUB PUSH2 0x7FF JUMPI PUSH1 0x40 MLOAD PUSH3 0x461BCD PUSH1 0xE5 SHL DUP2 MSTORE PUSH1 0x4 ADD PUSH2 0x3AB SWAP1 PUSH2 0x122F JUMP JUMPDEST PUSH1 0x1 PUSH1 0xB DUP3 ADD SLOAD PUSH2 0x100 SWAP1 DIV PUSH1 0xFF AND PUSH1 0x4 DUP2 GT ISZERO PUSH2 0x81F JUMPI PUSH2 0x81F PUSH2 0xFA4 JUMP JUMPDEST EQ PUSH2 0x865 JUMPI PUSH1 0x40 MLOAD PUSH3 0x461BCD PUSH1 0xE5 SHL DUP2 MSTORE PUSH1 0x20 PUSH1 0x4 DUP3 ADD MSTORE PUSH1 0x16 PUSH1 0x24 DUP3 ADD MSTORE PUSH22 0x50726F706F73616C206973206E6F7420616374697665 PUSH1 0x50 SHL PUSH1 0x44 DUP3 ADD MSTORE PUSH1 0x64 ADD PUSH2 0x3AB JUMP JUMPDEST DUP1 PUSH1 0x4 ADD SLOAD TIMESTAMP LT ISZERO PUSH2 0x8B2 JUMPI PUSH1 0x40 MLOAD PUSH3 0x461BCD PUSH1 0xE5 SHL DUP2 MSTORE PUSH1 0x20 PUSH1 0x4 DUP3 ADD MSTORE PUSH1 0x16 PUSH1 0x24 DUP3 ADD MSTORE PUSH22 0x159BDD1A5B99C81A185CC81B9BDD081CDD185C9D1959 PUSH1 0x52 SHL PUSH1 0x44 DUP3 ADD MSTORE PUSH1 0x64 ADD PUSH2 0x3AB JUMP JUMPDEST DUP1 PUSH1 0x5 ADD SLOAD TIMESTAMP LT PUSH2 0x905 JUMPI PUSH1 0x40 MLOAD PUSH3 0x461BCD PUSH1 0xE5 SHL DUP2 MSTORE PUSH1 0x20 PUSH1 0x4 DUP3 ADD MSTORE PUSH1 0x17 PUSH1 0x24 DUP3 ADD MSTORE PUSH32 0x566F74696E6720706572696F642068617320656E646564000000000000000000 PUSH1 0x44 DUP3 ADD MSTORE PUSH1 0x64 ADD PUSH2 0x3AB JUMP JUMPDEST CALLER PUSH0 SWAP1 DUP2 MSTORE PUSH1 0xC DUP3 ADD PUSH1 0x20 MSTORE PUSH1 0x40 SWAP1 KECCAK256 SLOAD PUSH1 0xFF AND ISZERO PUSH2 0x966 JUMPI PUSH1 0x40 MLOAD PUSH3 0x461BCD PUSH1 0xE5 SHL DUP2 MSTORE PUSH1 0x20 PUSH1 0x4 DUP3 ADD MSTORE PUSH1 0x1E PUSH1 0x24 DUP3 ADD MSTORE PUSH32 0x416C726561647920766F746564206F6E20746869732070726F706F73616C0000 PUSH1 0x44 DUP3 ADD MSTORE PUSH1 0x64 ADD PUSH2 0x3AB JUMP JUMPDEST PUSH1 0x40 MLOAD PUSH4 0x5DA6A21B PUSH1 0xE1 SHL DUP2 MSTORE CALLER PUSH1 0x4 DUP3 ADD MSTORE PUSH0 SWAP1 PUSH32 0x0 PUSH1 0x1 PUSH1 0x1 PUSH1 0xA0 SHL SUB AND SWAP1 PUSH4 0xBB4D4436 SWAP1 PUSH1 0x24 ADD PUSH1 0x20 PUSH1 0x40 MLOAD DUP1 DUP4 SUB DUP2 DUP7 GAS STATICCALL ISZERO DUP1 ISZERO PUSH2 0x9CA JUMPI RETURNDATASIZE PUSH0 DUP1 RETURNDATACOPY RETURNDATASIZE PUSH0 REVERT JUMPDEST POP POP POP POP PUSH1 0x40 MLOAD RETURNDATASIZE PUSH1 0x1F NOT PUSH1 0x1F DUP3 ADD AND DUP3 ADD DUP1 PUSH1 0x40 MSTORE POP DUP2 ADD SWAP1 PUSH2 0x9EE SWAP2 SWAP1 PUSH2 0x128F JUMP JUMPDEST SWAP1 POP PUSH0 DUP2 GT PUSH2 0xA56 JUMPI PUSH1 0x40 MLOAD PUSH3 0x461BCD PUSH1 0xE5 SHL DUP2 MSTORE PUSH1 0x20 PUSH1 0x4 DUP3 ADD MSTORE PUSH1 0x2E PUSH1 0x24 DUP3 ADD MSTORE PUSH32 0x4D7573742068617665207374616B656420746F6B656E732028766F74696E6720 PUSH1 0x44 DUP3 ADD MSTORE PUSH14 0x706F7765722920746F20766F7465 PUSH1 0x90 SHL PUSH1 0x64 DUP3 ADD MSTORE PUSH1 0x84 ADD PUSH2 0x3AB JUMP JUMPDEST CALLER PUSH0 SWAP1 DUP2 MSTORE PUSH1 0xC DUP4 ADD PUSH1 0x20 SWAP1 DUP2 MSTORE PUSH1 0x40 DUP1 DUP4 KECCAK256 DUP1 SLOAD PUSH1 0x1 PUSH1 0xFF NOT SWAP2 DUP3 AND DUP2 OR SWAP1 SWAP3 SSTORE PUSH1 0xD DUP8 ADD SWAP1 SWAP4 MSTORE SWAP3 KECCAK256 DUP1 SLOAD DUP7 SWAP4 SWAP2 SWAP3 AND SWAP1 DUP4 PUSH1 0x2 DUP2 GT ISZERO PUSH2 0xA9B JUMPI PUSH2 0xA9B PUSH2 0xFA4 JUMP JUMPDEST MUL OR SWAP1 SSTORE POP PUSH1 0x9 DUP3 ADD SLOAD PUSH2 0xAAF SWAP1 DUP3 PUSH2 0xF05 JUMP JUMPDEST PUSH1 0x9 DUP4 ADD SSTORE PUSH1 0x1 DUP4 PUSH1 0x2 DUP2 GT ISZERO PUSH2 0xAC8 JUMPI PUSH2 0xAC8 PUSH2 0xFA4 JUMP JUMPDEST SUB PUSH2 0xAE6 JUMPI PUSH1 0x6 DUP3 ADD SLOAD PUSH2 0xADC SWAP1 DUP3 PUSH2 0xF05 JUMP JUMPDEST PUSH1 0x6 DUP4 ADD SSTORE PUSH2 0xB85 JUMP JUMPDEST PUSH0 DUP4 PUSH1 0x2 DUP2 GT ISZERO PUSH2 0xAF9 JUMPI PUSH2 0xAF9 PUSH2 0xFA4 JUMP JUMPDEST SUB PUSH2 0xB17 JUMPI PUSH1 0x7 DUP3 ADD SLOAD PUSH2 0xB0D SWAP1 DUP3 PUSH2 0xF05 JUMP JUMPDEST PUSH1 0x7 DUP4 ADD SSTORE PUSH2 0xB85 JUMP JUMPDEST PUSH1 0x2 DUP4 PUSH1 0x2 DUP2 GT ISZERO PUSH2 0xB2B JUMPI PUSH2 0xB2B PUSH2 0xFA4 JUMP JUMPDEST SUB PUSH2 0xB49 JUMPI PUSH1 0x8 DUP3 ADD SLOAD PUSH2 0xB3F SWAP1 DUP3 PUSH2 0xF05 JUMP JUMPDEST PUSH1 0x8 DUP4 ADD SSTORE PUSH2 0xB85 JUMP JUMPDEST PUSH1 0x40 MLOAD PUSH3 0x461BCD PUSH1 0xE5 SHL DUP2 MSTORE PUSH1 0x20 PUSH1 0x4 DUP3 ADD MSTORE PUSH1 0x11 PUSH1 0x24 DUP3 ADD MSTORE PUSH17 0x496E76616C696420766F74652074797065 PUSH1 0x78 SHL PUSH1 0x44 DUP3 ADD MSTORE PUSH1 0x64 ADD PUSH2 0x3AB JUMP JUMPDEST CALLER PUSH1 0x1 PUSH1 0x1 PUSH1 0xA0 SHL SUB AND DUP5 PUSH32 0x2635C84C3A8027A303CA6D6E90B1C4A9604754040372414D244AADFA64717518 DUP6 DUP5 PUSH1 0x40 MLOAD PUSH2 0xBC1 SWAP3 SWAP2 SWAP1 PUSH2 0x142C JUMP JUMPDEST PUSH1 0x40 MLOAD DUP1 SWAP2 SUB SWAP1 LOG3 POP POP POP POP JUMP JUMPDEST PUSH0 DUP1 PUSH1 0x60 PUSH0 DUP1 PUSH0 DUP1 PUSH0 DUP1 PUSH0 DUP1 PUSH0 DUP1 PUSH1 0x2 PUSH0 DUP16 DUP2 MSTORE PUSH1 0x20 ADD SWAP1 DUP2 MSTORE PUSH1 0x20 ADD PUSH0 KECCAK256 SWAP1 POP DUP1 PUSH0 ADD SLOAD PUSH0 SUB PUSH2 0xC12 JUMPI PUSH1 0x40 MLOAD PUSH3 0x461BCD PUSH1 0xE5 SHL DUP2 MSTORE PUSH1 0x4 ADD PUSH2 0x3AB SWAP1 PUSH2 0x122F JUMP JUMPDEST DUP1 SLOAD PUSH1 0x1 DUP3 ADD SLOAD PUSH1 0x4 DUP4 ADD SLOAD PUSH1 0x5 DUP5 ADD SLOAD PUSH1 0x6 DUP6 ADD SLOAD PUSH1 0x7 DUP7 ADD SLOAD PUSH1 0x8 DUP8 ADD SLOAD PUSH1 0x9 DUP9 ADD SLOAD PUSH1 0xA DUP10 ADD SLOAD PUSH1 0xB DUP11 ADD SLOAD PUSH1 0x2 DUP12 ADD DUP1 SLOAD PUSH1 0x1 PUSH1 0x1 PUSH1 0xA0 SHL SUB SWAP1 SWAP11 AND SWAP10 SWAP1 SWAP9 SWAP8 SWAP7 SWAP6 SWAP5 SWAP4 SWAP3 SWAP2 PUSH1 0xFF DUP1 DUP3 AND SWAP3 PUSH2 0x100 SWAP1 SWAP3 DIV AND SWAP1 DUP11 SWAP1 PUSH2 0xC75 SWAP1 PUSH2 0x11F7 JUMP JUMPDEST DUP1 PUSH1 0x1F ADD PUSH1 0x20 DUP1 SWAP2 DIV MUL PUSH1 0x20 ADD PUSH1 0x40 MLOAD SWAP1 DUP2 ADD PUSH1 0x40 MSTORE DUP1 SWAP3 SWAP2 SWAP1 DUP2 DUP2 MSTORE PUSH1 0x20 ADD DUP3 DUP1 SLOAD PUSH2 0xCA1 SWAP1 PUSH2 0x11F7 JUMP JUMPDEST DUP1 ISZERO PUSH2 0xCEC JUMPI DUP1 PUSH1 0x1F LT PUSH2 0xCC3 JUMPI PUSH2 0x100 DUP1 DUP4 SLOAD DIV MUL DUP4 MSTORE SWAP2 PUSH1 0x20 ADD SWAP2 PUSH2 0xCEC JUMP JUMPDEST DUP3 ADD SWAP2 SWAP1 PUSH0 MSTORE PUSH1 0x20 PUSH0 KECCAK256 SWAP1 JUMPDEST DUP2 SLOAD DUP2 MSTORE SWAP1 PUSH1 0x1 ADD SWAP1 PUSH1 0x20 ADD DUP1 DUP4 GT PUSH2 0xCCF JUMPI DUP3 SWAP1 SUB PUSH1 0x1F AND DUP3 ADD SWAP2 JUMPDEST POP POP POP POP POP SWAP10 POP SWAP13 POP SWAP13 POP SWAP13 POP SWAP13 POP SWAP13 POP SWAP13 POP SWAP13 POP SWAP13 POP SWAP13 POP SWAP13 POP SWAP13 POP SWAP13 POP POP SWAP2 SWAP4 SWAP6 SWAP8 SWAP10 SWAP12 POP SWAP2 SWAP4 SWAP6 SWAP8 SWAP10 SWAP12 JUMP JUMPDEST PUSH2 0xD23 PUSH2 0xED9 JUMP JUMPDEST PUSH0 DUP2 DUP2 MSTORE PUSH1 0x2 PUSH1 0x20 MSTORE PUSH1 0x40 DUP2 KECCAK256 DUP1 SLOAD SWAP1 SWAP2 SUB PUSH2 0xD81 JUMPI PUSH1 0x40 MLOAD PUSH3 0x461BCD PUSH1 0xE5 SHL DUP2 MSTORE PUSH1 0x20 PUSH1 0x4 DUP3 ADD MSTORE PUSH1 0x17 PUSH1 0x24 DUP3 ADD MSTORE PUSH32 0x50726F706F73616C20446F6573206E6F74206578697374000000000000000000 PUSH1 0x44 DUP3 ADD MSTORE PUSH1 0x64 ADD PUSH2 0x3AB JUMP JUMPDEST PUSH1 0x1 PUSH1 0xB DUP3 ADD SLOAD PUSH2 0x100 SWAP1 DIV PUSH1 0xFF AND PUSH1 0x4 DUP2 GT ISZERO PUSH2 0xDA1 JUMPI PUSH2 0xDA1 PUSH2 0xFA4 JUMP JUMPDEST EQ PUSH2 0xDE4 JUMPI PUSH1 0x40 MLOAD PUSH3 0x461BCD PUSH1 0xE5 SHL DUP2 MSTORE PUSH1 0x20 PUSH1 0x4 DUP3 ADD MSTORE PUSH1 0x13 PUSH1 0x24 DUP3 ADD MSTORE PUSH19 0x50726F706F73616C204E6F7420416374697665 PUSH1 0x68 SHL PUSH1 0x44 DUP3 ADD MSTORE PUSH1 0x64 ADD PUSH2 0x3AB JUMP JUMPDEST PUSH1 0xB DUP2 ADD DUP1 SLOAD PUSH2 0xFFFF NOT AND PUSH2 0x201 OR SWAP1 SSTORE PUSH1 0x40 MLOAD DUP3 SWAP1 PUSH32 0x789CF55BE980739DAD1D0699B93B58E806B51C9D96619BFA8FE0A28ABAA7B30C SWAP1 PUSH0 SWAP1 LOG2 POP POP JUMP JUMPDEST PUSH2 0xE2B PUSH2 0xED9 JUMP JUMPDEST PUSH0 DUP2 GT PUSH2 0xE7A JUMPI PUSH1 0x40 MLOAD PUSH3 0x461BCD PUSH1 0xE5 SHL DUP2 MSTORE PUSH1 0x20 PUSH1 0x4 DUP3 ADD MSTORE PUSH1 0x1E PUSH1 0x24 DUP3 ADD MSTORE PUSH32 0x566F74696E6720706572696F64206D75737420626520706F7369746976650000 PUSH1 0x44 DUP3 ADD MSTORE PUSH1 0x64 ADD PUSH2 0x3AB JUMP JUMPDEST PUSH1 0x3 SSTORE JUMP JUMPDEST PUSH2 0xE87 PUSH2 0xED9 JUMP JUMPDEST PUSH1 0x1 PUSH1 0x1 PUSH1 0xA0 SHL SUB DUP2 AND PUSH2 0xEB0 JUMPI PUSH1 0x40 MLOAD PUSH4 0x1E4FBDF7 PUSH1 0xE0 SHL DUP2 MSTORE PUSH0 PUSH1 0x4 DUP3 ADD MSTORE PUSH1 0x24 ADD PUSH2 0x3AB JUMP JUMPDEST PUSH2 0xEB9 DUP2 PUSH2 0xF10 JUMP JUMPDEST POP JUMP JUMPDEST PUSH0 PUSH2 0xEC7 DUP3 DUP5 PUSH2 0x1447 JUMP JUMPDEST SWAP4 SWAP3 POP POP POP JUMP JUMPDEST PUSH0 PUSH2 0xEC7 DUP3 DUP5 PUSH2 0x145E JUMP JUMPDEST PUSH0 SLOAD PUSH1 0x1 PUSH1 0x1 PUSH1 0xA0 SHL SUB AND CALLER EQ PUSH2 0x708 JUMPI PUSH1 0x40 MLOAD PUSH4 0x118CDAA7 PUSH1 0xE0 SHL DUP2 MSTORE CALLER PUSH1 0x4 DUP3 ADD MSTORE PUSH1 0x24 ADD PUSH2 0x3AB JUMP JUMPDEST PUSH0 PUSH2 0xEC7 DUP3 DUP5 PUSH2 0x13D4 JUMP JUMPDEST PUSH0 DUP1 SLOAD PUSH1 0x1 PUSH1 0x1 PUSH1 0xA0 SHL SUB DUP4 DUP2 AND PUSH1 0x1 PUSH1 0x1 PUSH1 0xA0 SHL SUB NOT DUP4 AND DUP2 OR DUP5 SSTORE PUSH1 0x40 MLOAD SWAP2 SWAP1 SWAP3 AND SWAP3 DUP4 SWAP2 PUSH32 0x8BE0079C531659141344CD1FD0A4F28419497F9722A3DAAFE3B4186F6B6457E0 SWAP2 SWAP1 LOG3 POP POP JUMP JUMPDEST PUSH0 PUSH1 0x20 DUP3 DUP5 SUB SLT ISZERO PUSH2 0xF6F JUMPI PUSH0 DUP1 REVERT JUMPDEST POP CALLDATALOAD SWAP2 SWAP1 POP JUMP JUMPDEST PUSH0 DUP2 MLOAD DUP1 DUP5 MSTORE DUP1 PUSH1 0x20 DUP5 ADD PUSH1 0x20 DUP7 ADD MCOPY PUSH0 PUSH1 0x20 DUP3 DUP7 ADD ADD MSTORE PUSH1 0x20 PUSH1 0x1F NOT PUSH1 0x1F DUP4 ADD AND DUP6 ADD ADD SWAP2 POP POP SWAP3 SWAP2 POP POP JUMP JUMPDEST PUSH4 0x4E487B71 PUSH1 0xE0 SHL PUSH0 MSTORE PUSH1 0x21 PUSH1 0x4 MSTORE PUSH1 0x24 PUSH0 REVERT JUMPDEST PUSH1 0x5 DUP2 LT PUSH2 0xFC8 JUMPI PUSH2 0xFC8 PUSH2 0xFA4 JUMP JUMPDEST SWAP1 MSTORE JUMP JUMPDEST DUP14 DUP2 MSTORE PUSH1 0x1 PUSH1 0x1 PUSH1 0xA0 SHL SUB DUP14 AND PUSH1 0x20 DUP3 ADD MSTORE PUSH2 0x1A0 PUSH1 0x40 DUP3 ADD DUP2 SWAP1 MSTORE PUSH0 SWAP1 PUSH2 0xFF6 SWAP1 DUP4 ADD DUP15 PUSH2 0xF76 JUMP JUMPDEST SWAP1 POP DUP12 PUSH1 0x60 DUP4 ADD MSTORE DUP11 PUSH1 0x80 DUP4 ADD MSTORE DUP10 PUSH1 0xA0 DUP4 ADD MSTORE DUP9 PUSH1 0xC0 DUP4 ADD MSTORE DUP8 PUSH1 0xE0 DUP4 ADD MSTORE DUP7 PUSH2 0x100 DUP4 ADD MSTORE DUP6 PUSH2 0x120 DUP4 ADD MSTORE DUP5 PUSH2 0x140 DUP4 ADD MSTORE DUP4 ISZERO ISZERO PUSH2 0x160 DUP4 ADD MSTORE PUSH2 0x1042 PUSH2 0x180 DUP4 ADD DUP5 PUSH2 0xFB8 JUMP JUMPDEST SWAP15 SWAP14 POP POP POP POP POP POP POP POP POP POP POP POP POP POP JUMP JUMPDEST PUSH0 DUP1 PUSH1 0x20 DUP4 DUP6 SUB SLT ISZERO PUSH2 0x1065 JUMPI PUSH0 DUP1 REVERT JUMPDEST DUP3 CALLDATALOAD PUSH8 0xFFFFFFFFFFFFFFFF DUP2 GT ISZERO PUSH2 0x107B JUMPI PUSH0 DUP1 REVERT JUMPDEST DUP4 ADD PUSH1 0x1F DUP2 ADD DUP6 SGT PUSH2 0x108B JUMPI PUSH0 DUP1 REVERT JUMPDEST DUP1 CALLDATALOAD PUSH8 0xFFFFFFFFFFFFFFFF DUP2 GT ISZERO PUSH2 0x10A1 JUMPI PUSH0 DUP1 REVERT JUMPDEST DUP6 PUSH1 0x20 DUP3 DUP5 ADD ADD GT ISZERO PUSH2 0x10B2 JUMPI PUSH0 DUP1 REVERT JUMPDEST PUSH1 0x20 SWAP2 SWAP1 SWAP2 ADD SWAP6 SWAP1 SWAP5 POP SWAP3 POP POP POP JUMP JUMPDEST DUP1 CALLDATALOAD PUSH1 0x1 PUSH1 0x1 PUSH1 0xA0 SHL SUB DUP2 AND DUP2 EQ PUSH2 0x10D8 JUMPI PUSH0 DUP1 REVERT JUMPDEST SWAP2 SWAP1 POP JUMP JUMPDEST PUSH0 DUP1 PUSH1 0x40 DUP4 DUP6 SUB SLT ISZERO PUSH2 0x10EE JUMPI PUSH0 DUP1 REVERT JUMPDEST DUP3 CALLDATALOAD SWAP2 POP PUSH2 0x10FE PUSH1 0x20 DUP5 ADD PUSH2 0x10C2 JUMP JUMPDEST SWAP1 POP SWAP3 POP SWAP3 SWAP1 POP JUMP JUMPDEST PUSH1 0x3 DUP2 LT PUSH2 0xFC8 JUMPI PUSH2 0xFC8 PUSH2 0xFA4 JUMP JUMPDEST DUP3 ISZERO ISZERO DUP2 MSTORE PUSH1 0x40 DUP2 ADD PUSH2 0xEC7 PUSH1 0x20 DUP4 ADD DUP5 PUSH2 0x1107 JUMP JUMPDEST PUSH0 DUP1 PUSH1 0x40 DUP4 DUP6 SUB SLT ISZERO PUSH2 0x113E JUMPI PUSH0 DUP1 REVERT JUMPDEST DUP3 CALLDATALOAD SWAP2 POP PUSH1 0x20 DUP4 ADD CALLDATALOAD PUSH1 0x3 DUP2 LT PUSH2 0x1153 JUMPI PUSH0 DUP1 REVERT JUMPDEST DUP1 SWAP2 POP POP SWAP3 POP SWAP3 SWAP1 POP JUMP JUMPDEST DUP13 DUP2 MSTORE PUSH1 0x1 PUSH1 0x1 PUSH1 0xA0 SHL SUB DUP13 AND PUSH1 0x20 DUP3 ADD MSTORE PUSH2 0x180 PUSH1 0x40 DUP3 ADD DUP2 SWAP1 MSTORE PUSH0 SWAP1 PUSH2 0x1188 SWAP1 DUP4 ADD DUP14 PUSH2 0xF76 JUMP JUMPDEST SWAP1 POP DUP11 PUSH1 0x60 DUP4 ADD MSTORE DUP10 PUSH1 0x80 DUP4 ADD MSTORE DUP9 PUSH1 0xA0 DUP4 ADD MSTORE DUP8 PUSH1 0xC0 DUP4 ADD MSTORE DUP7 PUSH1 0xE0 DUP4 ADD MSTORE DUP6 PUSH2 0x100 DUP4 ADD MSTORE DUP5 PUSH2 0x120 DUP4 ADD MSTORE DUP4 ISZERO ISZERO PUSH2 0x140 DUP4 ADD MSTORE PUSH2 0x11CD PUSH2 0x160 DUP4 ADD DUP5 PUSH2 0xFB8 JUMP JUMPDEST SWAP14 SWAP13 POP POP POP POP POP POP POP POP POP POP POP POP POP JUMP JUMPDEST PUSH0 PUSH1 0x20 DUP3 DUP5 SUB SLT ISZERO PUSH2 0x11EE JUMPI PUSH0 DUP1 REVERT JUMPDEST PUSH2 0xEC7 DUP3 PUSH2 0x10C2 JUMP JUMPDEST PUSH1 0x1 DUP2 DUP2 SHR SWAP1 DUP3 AND DUP1 PUSH2 0x120B JUMPI PUSH1 0x7F DUP3 AND SWAP2 POP JUMPDEST PUSH1 0x20 DUP3 LT DUP2 SUB PUSH2 0x1229 JUMPI PUSH4 0x4E487B71 PUSH1 0xE0 SHL PUSH0 MSTORE PUSH1 0x22 PUSH1 0x4 MSTORE PUSH1 0x24 PUSH0 REVERT JUMPDEST POP SWAP2 SWAP1 POP JUMP JUMPDEST PUSH1 0x20 DUP1 DUP3 MSTORE PUSH1 0x17 SWAP1 DUP3 ADD MSTORE PUSH32 0x50726F706F73616C20646F6573206E6F74206578697374000000000000000000 PUSH1 0x40 DUP3 ADD MSTORE PUSH1 0x60 ADD SWAP1 JUMP JUMPDEST PUSH1 0x80 DUP2 ADD PUSH2 0x1274 DUP3 DUP8 PUSH2 0xFB8 JUMP JUMPDEST DUP5 PUSH1 0x20 DUP4 ADD MSTORE DUP4 PUSH1 0x40 DUP4 ADD MSTORE DUP3 PUSH1 0x60 DUP4 ADD MSTORE SWAP6 SWAP5 POP POP POP POP POP JUMP JUMPDEST PUSH0 PUSH1 0x20 DUP3 DUP5 SUB SLT ISZERO PUSH2 0x129F JUMPI PUSH0 DUP1 REVERT JUMPDEST POP MLOAD SWAP2 SWAP1 POP JUMP JUMPDEST PUSH4 0x4E487B71 PUSH1 0xE0 SHL PUSH0 MSTORE PUSH1 0x41 PUSH1 0x4 MSTORE PUSH1 0x24 PUSH0 REVERT JUMPDEST PUSH1 0x1F DUP3 GT ISZERO PUSH2 0x1301 JUMPI DUP1 PUSH0 MSTORE PUSH1 0x20 PUSH0 KECCAK256 PUSH1 0x1F DUP5 ADD PUSH1 0x5 SHR DUP2 ADD PUSH1 0x20 DUP6 LT ISZERO PUSH2 0x12DF JUMPI POP DUP1 JUMPDEST PUSH1 0x1F DUP5 ADD PUSH1 0x5 SHR DUP3 ADD SWAP2 POP JUMPDEST DUP2 DUP2 LT ISZERO PUSH2 0x12FE JUMPI PUSH0 DUP2 SSTORE PUSH1 0x1 ADD PUSH2 0x12EB JUMP JUMPDEST POP POP JUMPDEST POP POP POP JUMP JUMPDEST PUSH8 0xFFFFFFFFFFFFFFFF DUP4 GT ISZERO PUSH2 0x131E JUMPI PUSH2 0x131E PUSH2 0x12A6 JUMP JUMPDEST PUSH2 0x1332 DUP4 PUSH2 0x132C DUP4 SLOAD PUSH2 0x11F7 JUMP JUMPDEST DUP4 PUSH2 0x12BA JUMP JUMPDEST PUSH0 PUSH1 0x1F DUP5 GT PUSH1 0x1 DUP2 EQ PUSH2 0x1363 JUMPI PUSH0 DUP6 ISZERO PUSH2 0x134C JUMPI POP DUP4 DUP3 ADD CALLDATALOAD JUMPDEST PUSH0 NOT PUSH1 0x3 DUP8 SWAP1 SHL SHR NOT AND PUSH1 0x1 DUP7 SWAP1 SHL OR DUP4 SSTORE PUSH2 0x12FE JUMP JUMPDEST PUSH0 DUP4 DUP2 MSTORE PUSH1 0x20 DUP2 KECCAK256 PUSH1 0x1F NOT DUP8 AND SWAP2 JUMPDEST DUP3 DUP2 LT ISZERO PUSH2 0x1392 JUMPI DUP7 DUP6 ADD CALLDATALOAD DUP3 SSTORE PUSH1 0x20 SWAP5 DUP6 ADD SWAP5 PUSH1 0x1 SWAP1 SWAP3 ADD SWAP2 ADD PUSH2 0x1372 JUMP JUMPDEST POP DUP7 DUP3 LT ISZERO PUSH2 0x13AE JUMPI PUSH0 NOT PUSH1 0xF8 DUP9 PUSH1 0x3 SHL AND SHR NOT DUP5 DUP8 ADD CALLDATALOAD AND DUP2 SSTORE JUMPDEST POP POP PUSH1 0x1 DUP6 PUSH1 0x1 SHL ADD DUP4 SSTORE POP POP POP POP POP JUMP JUMPDEST PUSH4 0x4E487B71 PUSH1 0xE0 SHL PUSH0 MSTORE PUSH1 0x11 PUSH1 0x4 MSTORE PUSH1 0x24 PUSH0 REVERT JUMPDEST DUP1 DUP3 ADD DUP1 DUP3 GT ISZERO PUSH2 0x6F1 JUMPI PUSH2 0x6F1 PUSH2 0x13C0 JUMP JUMPDEST PUSH1 0x80 DUP2 MSTORE DUP5 PUSH1 0x80 DUP3 ADD MSTORE DUP5 DUP7 PUSH1 0xA0 DUP4 ADD CALLDATACOPY PUSH0 PUSH1 0xA0 DUP7 DUP4 ADD ADD MSTORE PUSH0 PUSH1 0xA0 PUSH1 0x1F NOT PUSH1 0x1F DUP9 ADD AND DUP4 ADD ADD SWAP1 POP DUP5 PUSH1 0x20 DUP4 ADD MSTORE DUP4 PUSH1 0x40 DUP4 ADD MSTORE DUP3 PUSH1 0x60 DUP4 ADD MSTORE SWAP7 SWAP6 POP POP POP POP POP POP JUMP JUMPDEST PUSH1 0x40 DUP2 ADD PUSH2 0x143A DUP3 DUP6 PUSH2 0x1107 JUMP JUMPDEST DUP3 PUSH1 0x20 DUP4 ADD MSTORE SWAP4 SWAP3 POP POP POP JUMP JUMPDEST DUP1 DUP3 MUL DUP2 ISZERO DUP3 DUP3 DIV DUP5 EQ OR PUSH2 0x6F1 JUMPI PUSH2 0x6F1 PUSH2 0x13C0 JUMP JUMPDEST PUSH0 DUP3 PUSH2 0x1478 JUMPI PUSH4 0x4E487B71 PUSH1 0xE0 SHL PUSH0 MSTORE PUSH1 0x12 PUSH1 0x4 MSTORE PUSH1 0x24 PUSH0 REVERT JUMPDEST POP DIV SWAP1 JUMP INVALID LOG2 PUSH5 0x6970667358 0x22 SLT KECCAK256 LOG2 0xD5 DELEGATECALL PUSH11 0x443566F04940D18FDCE289 0xC5 CREATE DUP1 CALLDATALOAD 0x22 SWAP15 0xC2 ADDMOD BASEFEE LT PUSH6 0x66910160CDEC PUSH5 0x736F6C6343 STOP ADDMOD BYTE STOP CALLER "
		},
		"gasEstimates": {
			"creation": {
				"codeDepositCost": "1059800",
				"executionCost": "infinite",
				"totalCost": "infinite"
			},
			"external": {
				"cancelProposal(uint256)": "32152",
				"casteVote(uint256,uint8)": "infinite",
				"createProposal(string)": "infinite",
				"finishProposal(uint256)": "infinite",
				"getProposal(uint256)": "infinite",
				"getVote(uint256,address)": "7122",
				"owner()": "2407",
				"proposalCounter()": "2384",
				"proposals(uint256)": "infinite",
				"quorumBasisPoints()": "2362",
				"renounceOwnership()": "infinite",
				"setQuorum(uint256)": "24556",
				"setVotingPeriod(uint256)": "24551",
				"stakingContract()": "infinite",
				"transferOwnership(address)": "28417",
				"votingPeriod()": "2340"
			}
		},
		"methodIdentifiers": {
			"cancelProposal(uint256)": "e0a8f6f5",
			"casteVote(uint256,uint8)": "c29a6b46",
			"createProposal(string)": "49c2a1a6",
			"finishProposal(uint256)": "27393278",
			"getProposal(uint256)": "c7f758a8",
			"getVote(uint256,address)": "bc3f931f",
			"owner()": "8da5cb5b",
			"proposalCounter()": "0c0512e9",
			"proposals(uint256)": "013cf08b",
			"quorumBasisPoints()": "079e2d2a",
			"renounceOwnership()": "715018a6",
			"setQuorum(uint256)": "c1ba4e59",
			"setVotingPeriod(uint256)": "ea0217cf",
			"stakingContract()": "ee99205c",
			"transferOwnership(address)": "f2fde38b",
			"votingPeriod()": "02a251a3"
		}
	},
	"abi": [
		{
			"inputs": [
				{
					"internalType": "address",
					"name": "_stakingContractAddress",
					"type": "address"
				},
				{
					"internalType": "uint256",
					"name": "_initialQuorumBasisPoints",
					"type": "uint256"
				},
				{
					"internalType": "address",
					"name": "_initialOwner",
					"type": "address"
				}
			],
			"stateMutability": "nonpayable",
			"type": "constructor"
		},
		{
			"inputs": [
				{
					"internalType": "address",
					"name": "owner",
					"type": "address"
				}
			],
			"name": "OwnableInvalidOwner",
			"type": "error"
		},
		{
			"inputs": [
				{
					"internalType": "address",
					"name": "account",
					"type": "address"
				}
			],
			"name": "OwnableUnauthorizedAccount",
			"type": "error"
		},
		{
			"anonymous": false,
			"inputs": [
				{
					"indexed": true,
					"internalType": "address",
					"name": "previousOwner",
					"type": "address"
				},
				{
					"indexed": true,
					"internalType": "address",
					"name": "newOwner",
					"type": "address"
				}
			],
			"name": "OwnershipTransferred",
			"type": "event"
		},
		{
			"anonymous": false,
			"inputs": [
				{
					"indexed": true,
					"internalType": "uint256",
					"name": "proposalId",
					"type": "uint256"
				}
			],
			"name": "ProposalCanceled",
			"type": "event"
		},
		{
			"anonymous": false,
			"inputs": [
				{
					"indexed": true,
					"internalType": "uint256",
					"name": "proposalId",
					"type": "uint256"
				},
				{
					"indexed": true,
					"internalType": "address",
					"name": "proposer",
					"type": "address"
				},
				{
					"indexed": false,
					"internalType": "string",
					"name": "description",
					"type": "string"
				},
				{
					"indexed": false,
					"internalType": "uint256",
					"name": "startTime",
					"type": "uint256"
				},
				{
					"indexed": false,
					"internalType": "uint256",
					"name": "endTime",
					"type": "uint256"
				},
				{
					"indexed": false,
					"internalType": "uint256",
					"name": "snapShotTotalStaked",
					"type": "uint256"
				}
			],
			"name": "ProposalCreated",
			"type": "event"
		},
		{
			"anonymous": false,
			"inputs": [
				{
					"indexed": true,
					"internalType": "uint256",
					"name": "proposalId",
					"type": "uint256"
				},
				{
					"indexed": false,
					"internalType": "enum VotingContract.ProposalState",
					"name": "finalState",
					"type": "uint8"
				},
				{
					"indexed": false,
					"internalType": "uint256",
					"name": "forVotes",
					"type": "uint256"
				},
				{
					"indexed": false,
					"internalType": "uint256",
					"name": "againstVotes",
					"type": "uint256"
				},
				{
					"indexed": false,
					"internalType": "uint256",
					"name": "abstainVotes",
					"type": "uint256"
				}
			],
			"name": "ProposalFinished",
			"type": "event"
		},
		{
			"anonymous": false,
			"inputs": [
				{
					"indexed": true,
					"internalType": "uint256",
					"name": "proposalId",
					"type": "uint256"
				},
				{
					"indexed": true,
					"internalType": "address",
					"name": "voter",
					"type": "address"
				},
				{
					"indexed": false,
					"internalType": "enum VotingContract.VoteType",
					"name": "voteType",
					"type": "uint8"
				},
				{
					"indexed": false,
					"internalType": "uint256",
					"name": "votingPower",
					"type": "uint256"
				}
			],
			"name": "Voted",
			"type": "event"
		},
		{
			"inputs": [
				{
					"internalType": "uint256",
					"name": "_proposalId",
					"type": "uint256"
				}
			],
			"name": "cancelProposal",
			"outputs": [],
			"stateMutability": "nonpayable",
			"type": "function"
		},
		{
			"inputs": [
				{
					"internalType": "uint256",
					"name": "_proposalId",
					"type": "uint256"
				},
				{
					"internalType": "enum VotingContract.VoteType",
					"name": "_voteType",
					"type": "uint8"
				}
			],
			"name": "casteVote",
			"outputs": [],
			"stateMutability": "nonpayable",
			"type": "function"
		},
		{
			"inputs": [
				{
					"internalType": "string",
					"name": "_description",
					"type": "string"
				}
			],
			"name": "createProposal",
			"outputs": [
				{
					"internalType": "uint256",
					"name": "",
					"type": "uint256"
				}
			],
			"stateMutability": "nonpayable",
			"type": "function"
		},
		{
			"inputs": [
				{
					"internalType": "uint256",
					"name": "_proposalId",
					"type": "uint256"
				}
			],
			"name": "finishProposal",
			"outputs": [],
			"stateMutability": "nonpayable",
			"type": "function"
		},
		{
			"inputs": [
				{
					"internalType": "uint256",
					"name": "_proposalId",
					"type": "uint256"
				}
			],
			"name": "getProposal",
			"outputs": [
				{
					"internalType": "uint256",
					"name": "id",
					"type": "uint256"
				},
				{
					"internalType": "address",
					"name": "proposer",
					"type": "address"
				},
				{
					"internalType": "string",
					"name": "description",
					"type": "string"
				},
				{
					"internalType": "uint256",
					"name": "startTime",
					"type": "uint256"
				},
				{
					"internalType": "uint256",
					"name": "endTime",
					"type": "uint256"
				},
				{
					"internalType": "uint256",
					"name": "forVotes",
					"type": "uint256"
				},
				{
					"internalType": "uint256",
					"name": "againstVotes",
					"type": "uint256"
				},
				{
					"internalType": "uint256",
					"name": "abstainVotes",
					"type": "uint256"
				},
				{
					"internalType": "uint256",
					"name": "totalVotesParticipated",
					"type": "uint256"
				},
				{
					"internalType": "uint256",
					"name": "snapshotTotalStaked",
					"type": "uint256"
				},
				{
					"internalType": "bool",
					"name": "canceled",
					"type": "bool"
				},
				{
					"internalType": "enum VotingContract.ProposalState",
					"name": "state",
					"type": "uint8"
				}
			],
			"stateMutability": "view",
			"type": "function"
		},
		{
			"inputs": [
				{
					"internalType": "uint256",
					"name": "_proposalId",
					"type": "uint256"
				},
				{
					"internalType": "address",
					"name": "_voter",
					"type": "address"
				}
			],
			"name": "getVote",
			"outputs": [
				{
					"internalType": "bool",
					"name": "hasVoted",
					"type": "bool"
				},
				{
					"internalType": "enum VotingContract.VoteType",
					"name": "voteChoice",
					"type": "uint8"
				}
			],
			"stateMutability": "view",
			"type": "function"
		},
		{
			"inputs": [],
			"name": "owner",
			"outputs": [
				{
					"internalType": "address",
					"name": "",
					"type": "address"
				}
			],
			"stateMutability": "view",
			"type": "function"
		},
		{
			"inputs": [],
			"name": "proposalCounter",
			"outputs": [
				{
					"internalType": "uint256",
					"name": "",
					"type": "uint256"
				}
			],
			"stateMutability": "view",
			"type": "function"
		},
		{
			"inputs": [
				{
					"internalType": "uint256",
					"name": "",
					"type": "uint256"
				}
			],
			"name": "proposals",
			"outputs": [
				{
					"internalType": "uint256",
					"name": "id",
					"type": "uint256"
				},
				{
					"internalType": "address",
					"name": "proposer",
					"type": "address"
				},
				{
					"internalType": "string",
					"name": "description",
					"type": "string"
				},
				{
					"internalType": "uint256",
					"name": "creationTime",
					"type": "uint256"
				},
				{
					"internalType": "uint256",
					"name": "startTime",
					"type": "uint256"
				},
				{
					"internalType": "uint256",
					"name": "endTime",
					"type": "uint256"
				},
				{
					"internalType": "uint256",
					"name": "forVotes",
					"type": "uint256"
				},
				{
					"internalType": "uint256",
					"name": "againstVotes",
					"type": "uint256"
				},
				{
					"internalType": "uint256",
					"name": "abstainVotes",
					"type": "uint256"
				},
				{
					"internalType": "uint256",
					"name": "totalVotesParticipated",
					"type": "uint256"
				},
				{
					"internalType": "uint256",
					"name": "snapshotTotalStaked",
					"type": "uint256"
				},
				{
					"internalType": "bool",
					"name": "canceled",
					"type": "bool"
				},
				{
					"internalType": "enum VotingContract.ProposalState",
					"name": "state",
					"type": "uint8"
				}
			],
			"stateMutability": "view",
			"type": "function"
		},
		{
			"inputs": [],
			"name": "quorumBasisPoints",
			"outputs": [
				{
					"internalType": "uint256",
					"name": "",
					"type": "uint256"
				}
			],
			"stateMutability": "view",
			"type": "function"
		},
		{
			"inputs": [],
			"name": "renounceOwnership",
			"outputs": [],
			"stateMutability": "nonpayable",
			"type": "function"
		},
		{
			"inputs": [
				{
					"internalType": "uint256",
					"name": "_newQuorumBasisPoints",
					"type": "uint256"
				}
			],
			"name": "setQuorum",
			"outputs": [],
			"stateMutability": "nonpayable",
			"type": "function"
		},
		{
			"inputs": [
				{
					"internalType": "uint256",
					"name": "_newVotingPeriod",
					"type": "uint256"
				}
			],
			"name": "setVotingPeriod",
			"outputs": [],
			"stateMutability": "nonpayable",
			"type": "function"
		},
		{
			"inputs": [],
			"name": "stakingContract",
			"outputs": [
				{
					"internalType": "contract IStakingContract",
					"name": "",
					"type": "address"
				}
			],
			"stateMutability": "view",
			"type": "function"
		},
		{
			"inputs": [
				{
					"internalType": "address",
					"name": "newOwner",
					"type": "address"
				}
			],
			"name": "transferOwnership",
			"outputs": [],
			"stateMutability": "nonpayable",
			"type": "function"
		},
		{
			"inputs": [],
			"name": "votingPeriod",
			"outputs": [
				{
					"internalType": "uint256",
					"name": "",
					"type": "uint256"
				}
			],
			"stateMutability": "view",
			"type": "function"
		}
	]
}